:100000000C94D8040C94373F0C940C3F0C94E13EB4
:100010000C94B6410C9402050C9402050C94D24148
:100020000C9402050C9402050C9402050C94020534
:100030000C9402050C94623F0C9402050C9402058A
:100040000C9402050C9402050C94973E0C94020546
:100050000C94623E0C94383E0C9402050C940205FC
:100060000C9402050C9402050C9492400C94020529
:100070000C9402050C9402050C9402050C940205E4
:100080000C9402050C9402050C94020500407A10B1
:10009000F35A00A0724E18090010A5D4E80000E839
:1000A0007648170000E40B54020000CA9A3B000097
:1000B00000E1F505000080969800000040420F0026
:1000C0000000A08601000000102700000000E803E7
:1000D000000000006400000000000A0000000000B2
:1000E0000100000000002C76D888DC674F0823DF71
:1000F000C1DFAE59E1B1B796E5E3E453C63AE65144
:10010000997696E8E6C28426EB898C9B62ED407C6A
:100110006FFCEFBC9C9F40F2BAA56FA5F490055A06
:100120002AF75C936B6CF9676DC11BFCE0E40D472B
:10013000FEF520E6B500D0ED902E0300943577054E
:100140000080841E080000204E0A000000C80C3306
:100150003333330F986E12831141EF8D2114893B95
:10016000E65516CFFEE6DB18D1844B381BF77C1D15
:10017000901DA4BBE424203284725E228100C9F168
:1001800024ECA1E53D276364696E6F707375785840
:100190005B00446F6E65005363616E6E696E67202D
:1001A000666F72205344492D31322073656E736F30
:1001B00072732E2E2E002020696E707574206D696A
:1001C0006E7574653A20002020696E707574206821
:1001D0006F75723A20002020696E70757420796501
:1001E00061723A20002020696E7075742064617914
:1001F0003A20002020696E707574206D6F6E7468EF
:100200003A2000456E7465722074686520646174DC
:100210006520616E642074696D6520696E20436F8E
:100220006F7264696E6174656420556E697665727B
:1002300073616C2054696D652028555443293A2018
:100240000020202020456E74657220476174657718
:10025000617920726164696F2049443A20004172DB
:100260006520796F75207573696E6720612047611D
:1002700074657761793F20456E7465722027792710
:1002800020666F72207965732C20276E2720666F99
:1002900072206E6F3A200044656661756C7420723E
:1002A0006164696F204944206163636570746564AB
:1002B00000526164696F20494420757064617465FF
:1002C000640020456E746572206E657720726164EB
:1002D000696F2049443A2000576F756C6420796F2C
:1002E00075206C696B6520746F206368616E67654B
:1002F0002074686520726164696F204944206672C9
:100300006F6D207468652064656661756C74207615
:10031000616C75653F2028792F6E293A2000456E63
:10032000746572206E6577206D6561737572656D99
:10033000656E7420696E74657276616C2865766589
:1003400072792031302C2031352C2032302C203362
:10035000302C206F72203630206D696E73293A2060
:10036000004552524F523A206D696E696D756D208D
:100370003135206D696E75746520696E74657276AD
:10038000616C207265717569726564207769746843
:100390002052482073656E736F722E00496E76612D
:1003A0006C696420696E74657276616C2E20456E8E
:1003B000746572206D6561737572656D656E74200C
:1003C000696E74657276616C202865766572792035
:1003D00031302C2031352C2032302C2033302C2061
:1003E0006F72203630206D696E73293A2000456E99
:1003F000746572206D6561737572656D656E7420CC
:10040000696E74657276616C2028657665727920F4
:1004100031302C2031352C2032302C2033302C2020
:100420006F72203630206D696E73293A2000537543
:1004300063636573730041646472657373206368FA
:10044000616E6765206661696C65640043757272F0
:10045000656E7420616464726573733A20002020B5
:10046000456E74657220612050726F6A65637420F6
:1004700049442028757020746F20352063686172AC
:100480006163746572732C2065783A20505341295A
:100490003A2000457869740041726520796F7520B3
:1004A0007375726520796F752077616E7420746F33
:1004B00020657261736520616C6C206461746120D9
:1004C00073746F72656420696E206D656D6F7279EB
:1004D0003F2028792F6E293A2000496E76616C6999
:1004E0006420696E7075742E2052657475726E6921
:1004F0006E6720746F206D656E752E00456E746595
:10050000722063686F6963653A2000202074202D93
:100510002D3E205072696E74206C61746573742076
:100520006C6F677300202061202D2D3E2050726972
:100530006E7420616C6C2074686520646174610065
:100540005072696E74206461746120746F207363EB
:100550007265656E3A200054657374206D65617331
:100560007572656D656E74733A00456E74657220C0
:1005700073656E736F7220646570746820696E2095
:10058000636D2E2055736520272B27206F7220273F
:100590002D2720746F20696E646963617465206122
:1005A000626F7665206F722062656C6F7720736F63
:1005B000696C20737572666163653A00456E746597
:1005C0007220636F6E66696775726174696F6E2001
:1005D000737472696E673A200052454D494E444526
:1005E000523A2055736520272B27206F7220272D24
:1005F0002720746F20696E6469636174652061628D
:100600006F7665206F722062656C6F7720736F69FB
:100610006C207375726661636520666F7220646515
:10062000707468732100456E7465722063686F6929
:1006300063653A20002020207820203C2D2D2020AA
:1006400045786974206D656E750020202065202036
:100650003C2D2D2020457261736520616C6C2064F7
:10066000617461002020207020203C2D2D2020501E
:1006700072696E74206461746120746F2073637298
:1006800065656E002020207420203C2D2D202054F4
:100690006573742073656E736F7273002020206120
:1006A00020203C2D2D20204368616E676520534437
:1006B000492D31322073656E736F722061646472EC
:1006C0006573736573002020206E20203C2D2D2043
:1006D000205363616E20666F72206465766963657E
:1006E00073206F6E205344492D31322062757300A0
:1006F0002020206D20203C2D2D2020536574206D5E
:100700006561737572656D656E7420696E7465726E
:1007100076616C002020207220203C2D2D2020436B
:1007200068616E6765204E6F646520726164696FF1
:10073000204944002020206720203C2D2D202045EA
:100740006E746572204761746577617920726164A7
:10075000696F204944002020206920203C2D2D2055
:1007600020456E7465722070726F6A6563742049EB
:1007700044002020206320203C2D2D202053657430
:1007800020636C6F636B002020206420203C2D2DA3
:100790002020456E7465722073656E736F722064DD
:1007A0006570746873002020203020203C2D2D209F
:1007B00020456E74657220636F6E6669677572613D
:1007C00074696F6E20737472696E67004D656E7523
:1007D000206F7074696F6E733A2000437572726592
:1007E0006E74206261747465727920766F6C7461C6
:1007F00067653A20200043757272656E74206461EB
:10080000746520262074696D653A20004D6561731A
:100810007572656D656E7420496E74657276616C73
:100820003A20004761746577617920526164696F8D
:100830002049443A2000526164696F2049443A20BB
:100840000050726F6A6563742049443A20004C6F0F
:10085000526120526164696F204672657120284D93
:10086000487A293A200053657269616C204E756D93
:100870006265723A200056657273696F6E2000538C
:100880006F696C2057617465722044617461204EF9
:100890006574776F726B202D20576972656C657374
:1008A00073205344492D313220446174616C6F6769
:1008B000676572204E6F6465007274009274004820
:1008C000940078C40000002100240027002A0000C2
:1008D000002200250028002B000000200023002615
:1008E00000290002020202020202020404040404BB
:1008F00004040403030303030303030101010101CF
:1009000001010101020408102040800102040810C6
:1009100020408001020408102040800102040810D9
:10092000204080000000010200090A0000000004CD
:1009300003080700000000000000000000000000A5
:100940000000004552524F523A204D697373696E50
:1009500067202B2F2D206265666F7265206465709D
:10096000746821004552524F523A20496E76616CAC
:10097000696420696E74657276616C20286576659D
:1009800072792031302C2031352C2032302C20331C
:10099000302C206F72203630206D696E7329007004
:1009A000726F6A65637449443A2000008A42FB48CA
:1009B00011241FBECFEFD0E4DEBFCDBF17E0A0E013
:1009C000B1E0EEE6F0EB00E00BBF02C007900D9245
:1009D000A834B107D9F729E1A8E4B7E001C01D9216
:1009E000A132B207E1F714E0C7EDD4E004C02197CB
:1009F000FE010E94954FC63DD107C9F70E9494435E
:100A00000C942A580C94000010920E0C10920D0CAD
:100A100010925B0E089508950895982F2091040C6C
:100A200081E0213208F043C08091030C8111FCCF9A
:100A30008091FC0B32E03093030C9093020C9FEFFB
:100A40009093DA0B1092D90B2093D80BACEDBBE04E
:100A5000E8EBFBE090E0291331C01092B70B9091C6
:100A6000B70B880F892B8093B70B8091010C8130D5
:100A700049F51092010C8091B70B8093BB008091D7
:100A8000BC0083FDF8CF85EC8093BC008091030C03
:100A90008230E1F38091DA0B8F3FB1F08091DA0B75
:100AA0008032A1F08091DA0B803391F084E01092D3
:100AB000050C1092040C1092DB0B08953D913193BC
:100AC0009F5FC9CF85EEE0CF80E0F1CF82E0EFCF2E
:100AD00083E0EDCF9091030C9111FCCF91E09093C6
:100AE000030C9093020C2FEF2093DA0B1092D90B8A
:100AF000260F2093D80B9093B70B9091B70B880FCC
:100B0000892B8093B70B8091010C8130F9F41092FE
:100B1000010C8091B70B8093BB008091BC0083FDDA
:100B2000F8CF85EC8093BC008091030C8130E1F319
:100B30008091D90B861710F46091D90BA8EBBBE01C
:100B4000E7E9FBE080E0861303C0089585EEEACF75
:100B50009D9191938F5FF7CF4F925F926F927F92AB
:100B60008F929F92AF92BF92CF92DF92EF92FF92BD
:100B70000F931F930091460E1091470E2091480E3F
:100B80003091490EC090420ED090430EE090440E3A
:100B9000F090450E480159018C189D08AE08BF0819
:100BA00026013701401A510A620A730A6017710759
:100BB0008207930728F0640D751D861D971DF6CFDB
:100BC0006C157D058E059F0528F4680D791D8A1D1D
:100BD0009B1DECCF1F910F91FF90EF90DF90CF9076
:100BE000BF90AF909F908F907F906F905F904F904D
:100BF0000895BF92CF92DF92EF92FF920F931F93CF
:100C0000CF93DF93EC01B62EC880D980EA80FB80B9
:100C100000914A0E10914B0E980150E040E0C70140
:100C2000B6010E94E64D662391F0862F90E0980170
:100C3000369527958217930700F1081B190BC00EF4
:100C4000D11EE11CF11CC882D982EA82FB82688134
:100C500079818A819B81BB20A9F00E94AC056883C1
:100C600079838A839B83DF91CF911F910F91FF90AE
:100C7000EF90DF90CF90BF900895C61AD108E10899
:100C8000F108E1CF0091460E1091470E2091480ED9
:100C90003091490E061717072807390720F70883F0
:100CA00019832A833B83DFCFEFE0FCE0A089B18981
:100CB00082E08C93A485B5851C92A685B78580E1DA
:100CC0008C93108EA489B58986E08C93A289B38910
:100CD0008C9180618C93A289B3898C9188608C936C
:100CE000A289B3898C9180688C930288F389E02D66
:100CF00080818F7D8083089580915E0E90915F0E3C
:100D0000DC01ED91FC910484F585E02D0994FF92BE
:100D10000F931F93CF93DF938C01F62ECEE5DEE089
:100D200088819981DC01ED91FC910488F589E02DA1
:100D3000642F099588819981DC01ED91FC910680F1
:100D4000F781E02D4F2DB801DF91CF911F910F91C9
:100D5000FF900994E82FF0E0EE0FFF1FE35FFE4FD6
:100D600071836083813049F0823071F08091690035
:100D7000836080936900E89A0895809169008C608F
:100D800080936900E99A0895809169008063809357
:100D90006900EA9A0895AF92BF92CF92DF92EF92E4
:100DA000FF920F931F93CF93DF936C017B018B0115
:100DB000040F151FEB015E01AE18BF08C017D10765
:100DC00059F06991D601ED91FC910190F081E02DEF
:100DD000C6010995892B79F7C501DF91CF911F9144
:100DE0000F91FF90EF90DF90CF90BF90AF9008955C
:100DF000FC01538D448D252F30E0842F90E0821B21
:100E0000930B541718F081509F4F08950197089540
:100E1000FC01918D828D981759F0A28DAE0FBF2FD6
:100E2000B11D5D968C91928D9F5F928F90E0089599
:100E30008FEF9FEF0895FC01918D828D981731F00F
:100E4000828DE80FF11D858D90E008958FEF9FEF63
:100E50000895FC01918D828D981B892F90E0089553
:100E60008FE09CE00E94290721E0892B09F420E013
:100E7000822F0895FC01A48DA80FB92FB11DA35E88
:100E8000BE4F9C91848D8F5F848FA689B7899C9378
:100E9000A089B1898C91837080648C93938D848DAB
:100EA000981306C00288F389E02D80818F7D8083AE
:100EB00008950F931F93CF93DF93EC0181E0888F08
:100EC0009B8D8C8D981318C0E889F989808185FFE6
:100ED00013C09FB7F894EE89FF896083E889F98988
:100EE00080818370806480839FBF81E090E0DF9188
:100EF000CF911F910F910895062F1B8D1F5F8C8D31
:100F000081130CC00FB607FCFACFE889F9898081FC
:100F100085FFF5CFCE010E943A07F1CFEB8DEC0FA4
:100F2000FD2FF11DE35EFE4F00839FB7F8941B8FEA
:100F3000EA89FB8980818062D6CF682F8FE09CE0B0
:100F40000C9459070F931F93CF93DF938C01D0E03C
:100F5000C0E0F801EC0FFD1F6491662341F08FE0C3
:100F60009CE00E945907892B11F02196F2CFCE0107
:100F7000DF91CF911F910F910895CF93DF93EC01F3
:100F8000888D8823B9F0AA89BB89E889F9898C9171
:100F900085FD03C0808186FD0DC00FB607FCF7CF2D
:100FA0008C9185FFF2CF808185FFEDCFCE010E942D
:100FB0003A07E9CFDF91CF91089580E090E0892B47
:100FC00029F00E94300781110E94000080E090E02B
:100FD000892B49F080E090E0892B29F00E940000E5
:100FE00081110C940000089581508A3080F5E82F1B
:100FF000F0E0E350F84F0C94954F110815080708DE
:101000000D082708270818081E08220828088091BC
:1010100080008F77809380000895809180008F7D7D
:10102000F9CF84B58F7784BD089584B58F7DFBCFCC
:101030008091B0008F778093B00008958091B000C8
:101040008F7DF9CF809190008F77809390000895E5
:10105000809190008F7DF9CFCF93DF93282F30E0E0
:10106000F901ED5DF64F8491F901ED5FF64FD491F2
:10107000F901ED51F74FC491CC23A1F081110E94E9
:10108000F407EC2FF0E0EE0FFF1FE752F74FA591AA
:10109000B491EC91ED2381E090E009F480E0DF91E0
:1010A000CF91089580E090E0FACF1F93CF93DF9324
:1010B000282F30E0F901ED5DF64F8491F901ED5FE5
:1010C000F64FD491F901ED51F74FC491CC23A9F01B
:1010D000162F81110E94F407EC2FF0E0EE0FFF1F96
:1010E000E153F74FA591B4918FB7F894EC9111119A
:1010F00008C0D095DE23DC938FBFDF91CF911F9185
:101100000895DE2BF8CF1092070C1092060C109267
:10111000050C1092040C1092030C81E08093020CD9
:101120001092010C61E081E10E94550861E080E1CC
:101130000E945508E9EBF0E080818E7F80838081FA
:101140008D7F808380E28093B80085E48093BC002B
:101150008BE095E09093000C8093FF0B8CE095E082
:101160009093FE0B8093FD0B0895CF93DF9390E057
:10117000FC01ED5FF64F24918D51974FFC01849156
:101180008823D1F090E0880F991FFC01EB53F74FB3
:10119000A591B491FC01E153F74FC591D491611130
:1011A0000EC09FB7F8948C91E22FE0958E238C931C
:1011B0002881E223E8839FBFDF91CF9108958FB705
:1011C000F894EC91E22BEC938FBFF6CF88518064BA
:1011D00080937C0080917A00806480937A00809173
:1011E0007A0086FDFCCF8091780090917900089577
:1011F0003FB7F89480913C0A90913D0AA0913E0A35
:10120000B0913F0A26B5A89B05C02F3F19F0019663
:10121000A11DB11D3FBFBA2FA92F982F8827BC0150
:10122000CD01620F711D811D911D43E0660F771F77
:10123000881F991F4A95D1F708958F929F92AF9278
:10124000BF92CF92DF92EF92FF926B017C010E94DE
:10125000F8084B015C01C114D104E104F104B9F0B8
:101260000E94F808681979098A099B09683E734049
:101270008105910580F321E0C21AD108E108F10847
:1012800088EE880E83E0981EA11CB11CE4CFFF906D
:10129000EF90DF90CF90BF90AF909F908F90089588
:1012A0002FB7F8946091380A7091390A80913A0A00
:1012B00090913B0A2FBF089508958BEF0895CF9327
:1012C000DF93FC01228133812230310569F0EC018A
:1012D000638D818D0E94550860E0888D0E945508BD
:1012E00082E090E09B838A83DF91CF910895FF9203
:1012F0000F931F93CF93DF93EC01162FF42E0FB7AC
:10130000F89460E08F890E9455088D899E89612F2D
:101310006068DC01ED91FC910190F081E02D099570
:10132000182F8D899E89DC01ED91FC910190F0814F
:10133000E02D6F2D099561E08F890E9455080FBF40
:10134000812FDF91CF911F910F91FF9008950F93FF
:101350001F93CF938C01C62F44E06DE40E94770960
:101360004BEF4C0F406869E0C801CF911F910F917E
:101370000C947709CF93DF93FC01228133812130D4
:10138000310549F0EC0140E061E00E94770981E01D
:1013900090E09B838A8381E0DF91CF910895CF9382
:1013A000DF93FC01228133812230310549F0EC01C9
:1013B00041E061E00E94770982E090E09B838A83AC
:1013C000DF91CF910895CF92DF92EF92FF92CF936A
:1013D000DF93EC01CB01BA0120E034E244E759E4A9
:1013E0000E94124D20E034E244E752E40E94B64EDF
:1013F0000E94284F6B017C01A7016627772766E0D2
:10140000CE010E94770977276F2D5E2D4D2D67E065
:10141000CE010E9477094C2D68E0CE010E94770929
:1014200081E0DF91CF91FF90EF90DF90CF90089512
:10143000CF92DF92EF92FF920F931F93CF93DF93A0
:101440004C3F08F067C0142F072FF62EEC01E881FF
:10145000F9810484F585E02D0995CE010E94CF091C
:1014600040E06DE0CE010E9477094A8560E0CE0140
:101470000E9477094B8560E0CE010E9477094C8578
:1014800060E0CE010E9477094D8560E0CE010E94A8
:101490007709EFB6F89460E08F890E9455088D892E
:1014A0009E89DC01ED91FC910190F081E02D60E8D6
:1014B0000995CF2CD02E012F015068F08D899E897F
:1014C000F60161916F01DC01ED91FC910190F081D9
:1014D000E02D0995F1CF61E08F890E945508EFBE9C
:1014E00044E0410F62E2CE010E9477098A819B812C
:1014F000039771F043E061E0CE010E94770940E478
:1015000060E4CE010E94770983E090E09B838A83A8
:1015100081E001C080E0DF91CF911F910F91FF909A
:10152000EF90DF90CF900895CF93DF93FC0122815D
:10153000338123303105C9F0EC0182819381049716
:1015400071F045E061E0CF010E94770940E060E47E
:10155000CE010E94770984E090E09B838A83C65E77
:10156000DE4F8881DF91CF91089580E0FBCF0F930C
:101570001F93CF93DF93EC01162F0FB7F89460E021
:101580008F890E9455088D899E89DC01ED91FC911F
:101590000190F081E02D612F09958D899E89DC01F4
:1015A000ED91FC910190F081E02D60E00995182FFC
:1015B00061E08F890E9455080FBF812FDF91CF9185
:1015C0001F910F910895DF92EF92FF920F931F9357
:1015D000CF93DF93EC0162E10E94B70A2A813B813D
:1015E00024303105A1F4982F907A89F08F8598895D
:1015F0000196988B8F874FEF62E1CE01DF91CF91FB
:101600001F910F91FF90EF90DF900C9477092A8142
:101610003B812430310511F486FD0DC02A813B81C8
:101620002330310541F783FFE6CF8B899C890196F2
:101630009C8B8B8B67C063E1CE010E94B70A082F99
:1016400060E1CE010E94B70A482F6DE0CE010E94F2
:101650007709DFB6F89460E08F890E9455088D897C
:101660009E89DC01ED91FC910190F081E02D60E01C
:1016700009957E01BBE1EB0EF11C102F115070F0AB
:101680008D899E89DC01ED91FC910190F081E02D26
:1016900060E00995F70181937F01F0CF61E08F89C8
:1016A0000E945508DFBE0A8F4FEF62E1CE010E9413
:1016B00077096AE1CE010E94B70A89588E878A8D20
:1016C000FE01E65EFE4F8430C8F08B8D8E838C8DDC
:1016D0008F838D8D88878E8D89878D81811107C03D
:1016E0009E818C81981719F08E818F3F39F48989FA
:1016F0009A8901969A8B898B81E0808380818823E7
:1017000009F479CFCE010E94CF0975CF8091350AB7
:101710009091360A009711F00C94E30A0895809195
:10172000330A9091340A009711F00C94E30A08955B
:101730008091310A9091320A009711F00C94E30ADB
:101740000895CF93DF93EC018D899E89DC01ED91A3
:10175000FC910680F781E02D099561E08F890E9458
:10176000B50861E08F890E94550864E670E080E06A
:1017700090E00E941D0981E0DF91CF910895FF92D2
:101780000F931F93CF93DF931F92CDB7DEB7F42E45
:101790000EE51EE0D8018D919C91DC01ED91FC914C
:1017A000008CF18DE02D0995F80180819181DC019B
:1017B000ED91FC91028CF38DE02D40E060E80995FD
:1017C00081E289834F2D61E0CE0101960E94870658
:1017D0000E947C060F90DF91CF911F910F91FF9097
:1017E00008952F923F924F925F926F927F928F92C5
:1017F0009F92AF92BF92CF92DF92EF92FF920F93A0
:101800001F93CF93DF938C015B016A0119010E9442
:1018100050092B013C01F12CE12C0E945009641964
:101820007509860997096C157D058E059F0508F0D9
:1018300078C080915E0E90915F0EDC01ED91FC917D
:101840000280F381E02D0995882339F380915E0EA3
:1018500090915F0EDC01ED91FC910480F581E02D0B
:10186000A501B8010995C82F8823B9F280915E0EB1
:1018700090915F0EDC01ED91FC9100A0F1A1E02DB3
:101880000995D82F80915E0E90915F0EDC01ED914D
:10189000FC91068CF78DE02D0995882E80915E0EC7
:1018A00090915F0EDC01ED91FC9102A0F3A1E02D7F
:1018B0000995982E80915E0E90915F0EDC01ED915E
:1018C000FC9104A0F5A1E02D099587FDA6CFBFEFFF
:1018D0008B1631F04D2F692D8EE59EE00E94BF0BD7
:1018E000ED2FF0E0E25AF14FDF011B968385891559
:1018F00009F493CFF101D0839C928C2FDF91CF918B
:101900001F910F91FF90EF90DF90CF90BF90AF901D
:101910009F908F907F906F905F904F903F902F900F
:101920000895C0E0EACF9FB7F89480912F0A8823EA
:1019300019F0815080932F0A80912F0A811105C0E0
:101940008CB58F7B8CBD10922E0A9FBF08958CB5ED
:101950008F778CBD08958CB580688CBD0895FC018F
:10196000738362830895FC01778366830895FC0185
:10197000758364830895089580E00895FC0181854E
:101980000895FC0180850895FC0187810895FC017C
:10199000868108954095FC0125854223642B658747
:1019A0000895FC0164870895FC0163870895FC0194
:1019B00062870895FC0164830895FC01658308959E
:1019C0008F929F92AF92BF92CF92DF92EF92FF924F
:1019D000CF93DF93EC016B010E9450094B015C0136
:1019E000F12CE12C0E945009681979098A099B0998
:1019F0006C157D058E059F0580F48A819B81039778
:101A000089F381E0DF91CF91FF90EF90DF90CF904D
:101A1000BF90AF909F908F90089580E0F3CFFC012E
:101A20002281338123303105D1F381E008958F92F3
:101A30009F92AF92BF92CF92DF92EF92FF92CF939D
:101A4000DF93EC016B010E9450094B015C01F12C0A
:101A5000E12C0E945009681979098A099B096C15C3
:101A60007D058E059F05A0F4E881F9810280F38150
:101A7000E02DCE010995882361F3DF91CF91FF908E
:101A8000EF90DF90CF90BF90AF909F908F90089590
:101A900080E0F3CFCF93DF93EC01E881F9810280FE
:101AA000F381E02DCE0109958823B9F3DF91CF9121
:101AB000089581E008951F93CF93DF93EC01162FD3
:101AC00088819981DC01ED91FC910288F389E02DF8
:101AD000099588819981DC01ED91FC910688F7894F
:101AE000E02D612F09951A83DF91CF911F91089501
:101AF000CF92DF92EF92FF920F931F93CF936B01E0
:101B00007C01142F80915E0E90915F0EDC01ED91AF
:101B1000FC910190F081E02D0995C82F882309F1EF
:101B20006091600E8EE59EE00E945B0D88E790E07C
:101B30009093670E8093660E83E08093680E612F0A
:101B40008EE59EE00E945B0D00915E0E10915F0E8F
:101B5000B701A601C8010E94E30961E1C8010E9422
:101B6000A7098C2FCF911F910F91FF90EF90DF90DD
:101B7000CF90089585ED8093BC008091BC0084FDDA
:101B8000FCCF1092030C089520910B0A260F3327E7
:101B9000331F21323105ECF42091030CFC0190E05D
:101BA00080E0243069F082E00895A0910B0A219131
:101BB000AC014551564FA40FB52FB11D2C93019682
:101BC000861798F380910B0A680F60930B0A80E0E8
:101BD000089581E008950895E091070C8091060C26
:101BE000E81730F4F0E0E956F44F808190E0089572
:101BF0008FEF9FEF08959091070C8091060C2FEFC7
:101C00003FEF981748F4E92FF0E0E956F44F2081B0
:101C100030E09F5F9093070CC90108958091060CF6
:101C20009091070C891B990B0895CF92DF92EF9248
:101C3000FF920F931F93CF93DF937C01CB018A0117
:101C40002091DB0B222389F0EB016B01C40ED51E22
:101C5000CC15DD0569F06991D701ED91FC910190FA
:101C6000F081E02DC7010995F3CF642F0E94C40DC8
:101C7000C801DF91CF911F910F91FF90EF90DF90FE
:101C8000CF900895CF93DF931F92CDB7DEB76983CE
:101C90002091DB0B2223F9F02091040C203258F024
:101CA00021E030E0FC013383228390E080E00F905C
:101CB000DF91CF9108958091050CE82FF0E0E45278
:101CC000F44F998190838F5F8093050C8093040C6F
:101CD00081E090E0ECCF61E0CE0101960E94C40D5E
:101CE000F7CFCF93C62F91E09093DB0B98E69093BC
:101CF000FC0B1092050C1092040C682F81E199E105
:101D00000E94420E6C2F81E199E10E94420E81E017
:101D1000CF910C940D05CF93CFB7F89480912F0AF3
:101D2000811127C0E7EEF8E08491E7E0F9E09491B3
:101D3000E82FF0E0EE0FFF1FEB53F74FA591B491A2
:101D4000EC91E92321F461E084E00E94550861E010
:101D500084E00E94B5088CB580618CBD8CB5806430
:101D60008CBD61E087E00E94B50861E085E00E94DB
:101D7000B50880912F0A8F5F80932F0ACFBFCF9134
:101D80000895FC01268137812115310591F121301B
:101D9000310559F12230310551F12330310549F532
:101DA0002CE09CB5937F922B9CBD848195810197FB
:101DB00011F58CB580628CBD82819381019784304E
:101DC0009105E0F4845B9E4FFC0190818CB58C7F83
:101DD000292F2370822B8CBD8DB592FB992790F90A
:101DE0008E7F892B8DBD0C948B0E24E0DACF28E0FA
:101DF000D8CF20E0D6CF8CB58F7DDDCF95E0E6CF74
:101E0000CF92DF92EF92FF92CF93DF9360E08DE16C
:101E10000E94B5088DE10E94E608B0E0A0E0BC0198
:101E2000CD01660F771F881F991F0E94B14C23E3D5
:101E300033E343E550E40E94124D20E030E048ECEB
:101E400052E40E94124D20E030E84FEF53E40E942C
:101E50004A4E20E030EC4FE754E40E94B64E0E9418
:101E6000284FCB0164E670E00E946D4FEB01BC018E
:101E700090E080E00E94B14C20E030E048EC52E479
:101E80000E94B64E6B017C01BE0190E080E00E9492
:101E9000B14C9B01AC01C701B6010E944A4EDF91D3
:101EA000CF91FF90EF90DF90CF900895CF92DF9287
:101EB000EF92FF92CF93DF9361E08EE00E94B5082E
:101EC00060E088E10E94B50861E08EE00E9455085C
:101ED00084EE93E00197F1F788E10E94E608EC01B7
:101EE00060E08EE00E945508BE0190E080E022E0B4
:101EF000660F771F881F991F2A95D1F70E94B14C52
:101F000023E333E343E550E40E94124D20E030E048
:101F100048EC52E40E94124D20E030EC4FEB54E4C8
:101F20000E944A4E20E030ED4FE355E40E94B64E49
:101F30000E94284FCB0164E670E00E946D4FEB01D8
:101F4000BC0190E080E00E94B14C20E030E048EC21
:101F500052E40E94B64E6B017C01BE0190E080E02D
:101F60000E94B14C9B01AC01C701B6010E944A4ED0
:101F7000DF91CF91FF90EF90DF90CF9008958FE0A9
:101F80009CE00E94BD07EFE0FCE0A289B3898C9140
:101F90008F7E8C93A289B3898C91877F8C93A28941
:101FA000B3898C918F778C93A289B3898C918F7D23
:101FB0008C93828D818F60E08FE00E94550860E0F5
:101FC00080E00E94550860E081E00E94550882E7A9
:101FD00090E10E94BA0980B78F7780BFEAE7F0E00E
:101FE00080818F778083F89485B7806885BF85B7B7
:101FF000806885BF789483B7817F846083BF83B70F
:10200000816083BF7894ABE6B0E08C9184608C9360
:10201000A8E6B0E08C9181608C9383B7816083BF28
:10202000889583B78E7F83BF8081806880830E947C
:1020300054060E948B0E61E080E00E94550861E02A
:1020400081E00C9455089FB7F89420912E0A809156
:102050008D07213019F48DBB9FBF08958FBF089560
:10206000CF93DF93EC0161E088810E945508809155
:102070002E0A81110E9423108B818CBD8C818DBD15
:10208000DF91CF9108958EBD00000DB407FEFDCF06
:102090008EB50895862F0C94431020912E0A22238A
:1020A00061F02FB7F89430912E0A313049F43DB3E6
:1020B00030938D073DB33DBB2FBF8CBD9DBD0895B3
:1020C00020938D07FACFCF93DF93EC018CB58B83F0
:1020D0008DB58C838D819E810E944D1060E088813A
:1020E000DF91CF910C9455088F929F92AF92BF923F
:1020F000CF92DF92EF92FF920F931F93CF93DF93D4
:102100004B015C0128E833E140E050E00E94E64DDD
:102110002A31310510F029E130E06901F12CE12C80
:10212000C501B401A7010E94E64D8901D0E0C0E0DD
:10213000C017D107C8F4A0902C0EB0902D0EC50189
:102140000E94631085E00E94431080E00E944310CB
:10215000982EC5010E94301090FE14C0C701B60130
:102160000E941D092196E4CF80E0DF91CF911F915D
:102170000F91FF90EF90DF90CF90BF90AF909F9026
:102180008F90089581E0F1CF0F931F93CF93DF934A
:10219000EC01162F442339F040E066E00E94C410A1
:1021A000CE010E943010CE010E94631085E00E9493
:1021B000431080E00E944310082FCE010E9430108F
:1021C00000FDF1CFCE010E946310812FDF91CF91EE
:1021D0001F910F910C944310FF920F931F93CF9375
:1021E000DF93162F072FF82E68EE73E080E090E063
:1021F0000E947410882301F1C0912C0ED0912D0EF5
:1022000041E060E2CE010E94C4108F2D0E94431075
:10221000802F0E944310812F0E944310CE010E9404
:10222000301068EE73E080E090E0DF91CF911F9175
:102230000F91FF900C94741080E0DF91CF911F916B
:102240000F91FF9008952F923F924F925F926F925D
:102250007F928F929F92AF92BF92CF92DF92EF9236
:10226000FF920F931F93CF93DF936C012A013B01E1
:1022700019019A01332780E091E0821B930B912C86
:10228000812C0115110581F1E8018017910708F4EF
:10229000EC0141E062E0C6010E94C410862D0E945C
:1022A0004310852D0E944310842D0E94431051013C
:1022B000A80CB91C7501F70181917F010E944310A0
:1022C000C7018A199B098C179D07A8F3C6010E94B4
:1022D00030104C0E5D1E611C711C8C0E9D1E0C1B63
:1022E0001D0B80E091E0CDCFDF91CF911F910F9139
:1022F000FF90EF90DF90CF90BF90AF909F908F9026
:102300007F906F905F904F903F902F900895BF9275
:10231000CF92DF92EF92FF920F931F93CF93DF93B1
:102320007C01EA01B62E690140E06BE00E94C41016
:102330008B2D0E9443108D2F0E9443108C2F0E94E2
:10234000431080E00E944310E6010C0D1D1DC017D4
:10235000D10729F080E00E9443108993F8CFC7018C
:10236000DF91CF911F910F91FF90EF90DF90CF9071
:10237000BF900C9430100F931F93CF93DF9300D036
:10238000CDB7DEB7AB01BC014C5F5F4F6F4F7F4FE6
:1023900002E010E09E012F5F3F4F80912C0E909144
:1023A0002D0E0E94871120914C0E30914D0E898187
:1023B0009A812817390710F41A82198289819A8123
:1023C0000F900F90DF91CF911F910F910895CF92B1
:1023D000DF92EF92FF926B017C010E94BB119C0186
:1023E000009769F0E0914A0EF0914B0EBF010E94F8
:1023F0006D4F009721F02E0F3F1F281B390BC7018F
:10240000B601620F731F811D911DFF90EF90DF9049
:10241000CF900C94AC050F931F93CF93DF93CDB760
:10242000DEB760970FB6F894DEBF0FBECDBFAB012D
:10243000BC0100E110E09E012F5F3F4F80912C0E08
:1024400090912D0E0E948711FE013196CE0141968A
:1024500021912F3F79F4E817F907D1F781E06096D1
:102460000FB6F894DEBF0FBECDBFDF91CF911F91A5
:102470000F91089580E0F3CF4F925F926F927F9219
:10248000AF92BF92CF92DF92EF92FF920F931F9382
:10249000CF93DF93CDB7DEB72C970FB6F894DEBF9E
:1024A0000FBECDBF6B017C015A01FA01108211826F
:1024B0001282138204E010E09A01BC01A60180910F
:1024C0002C0E90912D0E0E948711F5018081918133
:1024D000A281B3818F3F9F4FAF4FBF4F79F01986D5
:1024E0001A861B861C86C701B6010E94E7112B01C4
:1024F0003C01C414D504E604F70411F480E054C090
:1025000004E010E09E01275F3F4FBC01A2018091D3
:102510002C0E90912D0E0E94871149855A856B854E
:102520007C85F50180819181A281B3810196A11DF5
:10253000B11D84179507A607B70709F451C04F3F8F
:102540005F4F6F4F7F4FD1F6C301B2010E940B1254
:102550008823A1F280914A0E90914B0EC81AD90A95
:10256000E108F108CD82DE82EF82F886AE014F5F8E
:102570005F4F6FEFCE0105960E94F212882349F15A
:1025800049815A816B817C814F5F5F4F6F4F7F4FD5
:1025900081E0F501C080D180E280F3804C155D05BB
:1025A0006E057F0509F0AACF2C960FB6F894DEBF12
:1025B0000FBECDBFDF91CF911F910F91FF90EF9094
:1025C000DF90CF90BF90AF907F906F905F904F90D3
:1025D00008956D817E818F8198850E940B12E4CFD2
:1025E00081E0E2CFCF92DF92EF92FF920F931F93A1
:1025F000CF93DF93EC01D62E7A01688179818A81AD
:102600009B810E940B12CC24C39410E000E088232D
:1026100091F08FEF9FEFDC01F70180839183A2831C
:10262000B38380E0DF91CF911F910F91FF90EF90E6
:10263000DF90CF900895688179818A819B81A7017D
:102640000E943C128111EECFCC20D9F061E0CE0186
:102650000E94F905688179818A819B810E940B1211
:10266000C82E8111D6CF80914C0E90914D0E609165
:102670004A0E70914B0E0E946D4F60177107D8F68D
:10268000C8CF88819981AA81BB8140914A0E50911F
:102690004B0E70E060E01D14ACF0841B950BA60B94
:1026A000B70B88839983AA83BB83688179818A81E8
:1026B0009B810E94AC05688379838A839B830F5F2B
:1026C0001F4FC8CF840F951FA61FB71FEACF2F92A9
:1026D0003F924F925F926F927F928F929F92AF92B2
:1026E000BF92CF92DF92EF92FF920F931F93CF93FF
:1026F000DF93CDB7DEB72E970FB6F894DEBF0FBECF
:10270000CDBF8C016D87FC016081718182819381D5
:102710000E940B128823C9F0F80180809180A2806A
:10272000B380FD85F13009F4F5C08091420E90919F
:10273000430EA091440EB091450E75016401C81A74
:10274000D90AEA0AFB0A7D84F3C020914A0E30912F
:102750004B0E8091460E9091470EA091480EB0917D
:10276000490E821B930BA109B109F8018083918363
:10277000A283B383AE01475F5F4F6FEFC8010E9432
:10278000F21281110BC0F801608171818281938105
:102790000E940B128111C0CF612C22C18091420E88
:1027A0009091430EA091440EB091450EF8018083A4
:1027B0009183A283B383AE014B5F5F4F61E0C80199
:1027C0000E94F212F801608171812281938181114E
:1027D00002C0822FDDCF4D805E806F8078846B01D8
:1027E000E22EF92E8090460E9090470EA090480E53
:1027F000B090490E8C189D08AE08BF0822E9222E21
:102800003324339480914A0E90914B0EB0E0A0E0B7
:1028100088159905AA05BB0520F4B694A79497944A
:102820008794FFEF3F1252C0C814D904EA04FB0496
:1028300008F04CC08091460E9091470EA091480E32
:10284000B091490E4091420E5091430E6091440E5A
:102850007091450E841B950BA60BB70B8C0D9D1D1F
:10286000AE1DBF1D6C017D01C818D908EA08FB0820
:10287000F801C082D182E282F38260E0C8010E9446
:10288000F905F80160817181828193810E940B12A8
:10289000811142CFAE014F5F5F4F632DC8010E948F
:1028A000F212882341F189819A81AB81BC81F1E0E8
:1028B0003F1219C0481659066A067B0640F52A944D
:1028C000222009F469CF2C013D019CCFA32D032CBC
:1028D000000CBB0BA50194010E94324EC60ED71E00
:1028E000E81EF91EC5CF84159505A605B70538F372
:1028F00033243394E4CFF801608171818281938124
:102900000E940B12811108CFD301C201D8CF33240A
:102910003A94D5CFC090460ED090470EE090480E26
:10292000F090490EC818D908EA08FB087724739478
:10293000F2E9FE87F80160817181828193810E94B2
:102940000B128111C7C0F801208031804280538072
:10295000C201B1016627707F9927705181099109E1
:102960000E94AC050E940B12682E8823E9F0C20178
:10297000B1010E940B12811117C0FD85F130A1F445
:10298000F80180819181A281B3818827907FBB2744
:1029900080839183A283B383AE014F5F5F4F61E079
:1029A000C8010E94F2121CC0AE014B5F5F4F672D41
:1029B000C8010E94F212F801408151816281738145
:1029C000882309F47EC0FD85FF3F21F5CB01BA01C4
:1029D0000E94E7110E940B12682E882309F47EC022
:1029E000862D2E960FB6F894DEBF0FBECDBFDF91B9
:1029F000CF911F910F91FF90EF90DF90CF90BF90FC
:102A0000AF909F908F907F906F905F904F903F908E
:102A10002F90089580914A0E90914B0E2A013B0110
:102A2000481A590A61087108C301B2010E940B12C9
:102A3000682E8111B1CF77247A9480914A0E9091BB
:102A40004B0EB0E0A0E08C159D05AE05BF0520F44F
:102A5000F694E794D794C7948FEF781242C08C1401
:102A60009D04AE04BF04E8F58091460E9091470E98
:102A7000A091480EB091490E4091420E5091430EE4
:102A80006091440E7091450E841B950BA60BB70BFD
:102A9000880D991DAA1DBB1D4C015D018C189D0858
:102AA000AE08BF08F80180829182A282B38260E002
:102AB000C8010E94F905FE85F150FE87F1113ACF59
:102AC0006BCECB01BA010E940B12882309F4B5CF5B
:102AD0007194B3CF2D852F3F09F4ADCF7724739434
:102AE000ACCFA72D072C000CBB0BA70196010E94B1
:102AF000324E860E971EA81EB91ED4CFCF93DF93F9
:102B000000D000D0CDB7DEB7AE014F5F5F4F0E945F
:102B10003C12882359F069817A818B819C810F90C6
:102B20000F900F900F90DF91CF9108956FEF7FEF8F
:102B3000CB01F5CF282F30E094E0359527959A9575
:102B4000E1F7922F990F990F291B220F820F0895F9
:102B5000EF92FF920F931F93CF93DF938C01C62FB9
:102B6000F894F090B20061E0FC0184850E94550861
:102B70009C2F80E031E0992329F083272FEF290F44
:102B80009223F9CFF0E88F9FC0011124C82B80E871
:102B9000D9E0982F9C2319F0D1508695FACF8091D7
:102BA000B2008F198A31D8F3F090B200EE24E3948A
:102BB000F8018485ED1678F460E0C0FF61E00E94C2
:102BC00055088091B2008F198A31D8F3F090B20085
:102BD000C695E394EDCF60E00E94550878948AE0B2
:102BE00090E08D1B91099AE1899F802D112490918D
:102BF000B2009F199817D8F3DF91CF911F910F91D1
:102C0000FF90EF900895FC01158690910D0C809136
:102C10000E0C981789F0E0910D0CF0E0E85BF84F8E
:102C2000808120910D0C30E02F5F3F4F2F733327B1
:102C300020930D0C90E008958FEF9FEF08959091F1
:102C40000D0C80910E0C981741F0E0910D0CF0E006
:102C5000E85BF84F808190E008958FEF9FEF089533
:102C6000FC01858581110EC080910E0C20910D0C08
:102C700090E0805C9F4F821B910960E470E00E94AD
:102C8000814F08958FEF9FEF089590E080E00895C1
:102C9000DC011C969C911C97ECE6F0E0983050F01B
:102CA000E3E7F0E0903130F0EBE6F0E0983110F43B
:102CB000EDE6F0E08081977021E030E001C0220F66
:102CC0009A95EAF72095282320831C968C91ECE6B0
:102CD000F0E0883050F0E3E7F0E0803130F0EBE6F0
:102CE000F0E0883110F4EDE6F0E09081911110C031
:102CF000F0E0E0E0803210F4E8E6F0E09081883027
:102D000040F0803140F0883140F08EEF892380839D
:102D100008958DEFFBCF87EFF9CF8BEFF7CFCF93F0
:102D2000DF93EC016330710521F164307105E1F14D
:102D30006230710509F05FC060E083E00E94B50871
:102D400061E083E00E94B50861E083E00E945508DD
:102D500060E08C850E94B50861E08C850E94B50812
:102D600060E08C850E945508CE01DF91CF910C94D4
:102D7000481660E083E00E94B50861E083E00E94AD
:102D8000B50861E083E00E94550862E070E080E0F1
:102D900090E00E941D0960E08C850E94B50861E00A
:102DA0008C850E94B508E0CF61E083E00E94B50801
:102DB00060E083E00E94550862E070E080E090E00F
:102DC0000E941D0960E08C850E94550860E08C859A
:102DD0000E94B508789480916800886080936800AC
:102DE000809173008460809373008FEF80938C07D1
:102DF000DF91CF91089561E083E00E94B50861E022
:102E000083E00E94550860E08C850E94550860E0D0
:102E1000C7CF70E060E08EE49EE00E948F161092B3
:102E20000C0C10920B0C80910A0C8093B0008091D6
:102E3000090C8093B100089580910B0C90910C0CBB
:102E40008E549E4061F062E070E08EE49EE00E944D
:102E50008F168EE49EE090930C0C80930B0C86E909
:102E600090E0A0E0B0E08093520E9093530EA093B8
:102E7000540EB093550E81EF98ED90935D0E8093B4
:102E80005C0E8091B00080930A0C8091B100809319
:102E9000090C1092B00086E08093B1000895CF93A2
:102EA000DF9363E070E08EE49EE00E948F16CEE434
:102EB000DEE061E08C850E9455088CE895E601977C
:102EC000F1F760E08C850E9455088CE496E4019748
:102ED000F1F7DF91CF9108950F931F93CF93DF9375
:102EE0008C010E944F17D0E0C0E0D80114968D915C
:102EF0009C911597C817D90790F4ED91FC913097E4
:102F000059F41092080CE8E0FCE060818EE49EE049
:102F10000E94A8152196E9CFEC0FFD1FF6CF64E0C3
:102F200070E08EE49EE0DF91CF911F910F910C94A1
:102F30008F161F93CF93DF93EC01162F63E070E0A1
:102F40000E948F16612FCE010E94A81564E070E0E8
:102F5000CE010E948F1681E090E0DF91CF911F910A
:102F6000089581E08093DB0B88E68093FC0B109240
:102F7000050C1092040C60E081E199E10E94420E80
:102F800081E00E940D05811142C067E088E60E9441
:102F90006A051092070C8093060C81E199E10E946A
:102FA000FB0D8F770E949A158093900B81E199E138
:102FB0000E94FB0D0E949A158093910B81E199E18B
:102FC0000E94FB0D8F7B0E949A158093920B81E1EA
:102FD00099E10E94FB0D8093930B81E199E10E949E
:102FE000FB0D0E949A158093940B81E199E10E9458
:102FF000FB0D8F770E949A158093950B81E199E1E3
:103000000E94FB0D0E949A15825E8093960B809120
:10301000900B8093E3098091910B8093430A8091F8
:10302000920B8093E4098091940B8093E70980913F
:10303000950B8093E8098091960B90E08E54984F01
:103040009093E6098093E50962E370E080E090E008
:103050000C941D09CF9391E09093DB0B98E690932D
:10306000FC0B1092050C1092040C682F81E199E181
:103070000E94420E81E00E940D0581110DC061E0A9
:1030800088E60E946A051092070C8093060C81E185
:1030900099E10E94FB0DC82F8C2FCF9108951F93AB
:1030A000CF93DF9381E08093DB0B88E68093FC0B6A
:1030B0001092050C1092040C60E081E199E10E94ED
:1030C000420EC0E9DBE028811AE0822F612F0E94C6
:1030D000614F682F660F680F660F620F81E199E1FB
:1030E0000E94420E2981822F612F0E94614F682F1A
:1030F000660F680F660F620F81E199E10E94420E30
:103100002A81822F612F0E94614F682F660F680FFE
:10311000660F620F81E199E10E94420E6B8181E1AD
:1031200099E10E94420E2C81822F612F0E94614FF3
:10313000682F660F680F660F620F81E199E10E94A8
:10314000420E2D81822F612F0E94614F682F660FE2
:10315000680F660F620F81E199E10E94420E2E8195
:103160002E51822F612F0E94614F682F660F680FCA
:10317000660F620F81E199E10E94420E81E00E9498
:103180000D05C82F8FE00E942A18682F6F778FE0F7
:103190000E94710E8C2FDF91CF911F910895CF93D4
:1031A000DF93C82FD62F8EE00E942A184C2F415053
:1031B000550B61E070E001C0660F4A95EAF7DD2328
:1031C00031F0682B8EE0DF91CF910C94710E6095F9
:1031D0006823F8CFCF93DF93C82F8FE00E942A187F
:1031E000C150DD0B21E030E001C0220FCA95EAF7A3
:1031F000982F922351F02095622F68238FE00E9430
:10320000710E81E0DF91CF91089580E0FBCF0F93A5
:103210001F93CF93DF93EC010E944F178E01FE01A5
:1032200001900020E9F73197EC1BFD0BC8018C1BC6
:103230009D0B8E179F0740F4F80161918F018EE47A
:103240009EE00E94A815EBCF64E070E08EE49EE063
:10325000DF91CF911F910F910C948F16FC0101907B
:103260000020E9F73197AF01481B590BBC018FE0F3
:103270009CE00C94CB068CED91E00C942E19CF932E
:10328000DF93FC0144815581608171818FE09CE076
:103290000E94CB06EC010E943B198C0F9D1FDF9111
:1032A000CF910895CF93DF930E94A207EC010E9473
:1032B0003B198C0F9D1FDF91CF910895CF93DF9322
:1032C0000E949D07EC010E943B198C0F9D1FDF910E
:1032D000CF9108958F929F92AF92BF920F931F93B9
:1032E000CF93DF93CDB7DEB7A1970FB6F894DEBFCB
:1032F0000FBECDBF19A2423008F44AE08E010F5D27
:103300001F4F842E912CB12CA12CA50194010E9459
:10331000E64DE62FB901CA01EA30F4F4E05DD801C8
:10332000EE938D01232B242B252B79F790E080E061
:10333000109719F0CD010E942E19A1960FB6F8949E
:10334000DEBF0FBECDBFDF91CF911F910F91BF9018
:10335000AF909F908F900895E95CE1CF682F70E067
:1033600090E080E04AE00C946A19CF93DF930E94CA
:10337000AE19EC010E943B198C0F9D1FDF91CF917C
:103380000895CF92DF92EF92FF92CF93DF9397FF52
:1033900019C06B017C018DE20E949D07EC0166273C
:1033A0007727CB016C197D098E099F094AE00E949D
:1033B0006A198C0F9D1FDF91CF91FF90EF90DF90E6
:1033C000CF9008954AE0DF91CF91FF90EF90DF908A
:1033D000CF900C946A19CF92DF92EF92FF920F93E5
:1033E0001F93CF93DF930E9450096B017C0120E172
:1033F000C20E27E2D21EE11CF11C1092EA091092C3
:10340000E9090E9450096C157D058E059F05A0F500
:103410008FE09CE00E9429071816190694F764E6CD
:1034200070E080E090E00E941D098FE09CE00E9427
:103430002907F82E11E00AE0C091E909D091EA09C4
:10344000F11690F08FE09CE00E9408070C9F90011D
:103450000D9F300D1124C097280F391F3093EA09B2
:103460002093E9091F5FE8CFBE01DD0F880B990BA0
:103470000E94C1190E943B196AE070E080E090E070
:10348000DF91CF911F910F91FF90EF90DF90CF9040
:103490000C941D09CF93DF934AE00E946A19EC0156
:1034A0000E943B198C0F9D1FDF91CF910895CF9300
:1034B000DF93D0E0C0E0009719F00E942E19EC01D4
:1034C0000E943B198C0F9D1FDF91CF9108958F9221
:1034D0009F92AF92BF92CF92DF92EF92FF921F9393
:1034E000CF93DF93CDB7DEB764970FB6F894DEBF06
:1034F0000FBECDBF6B017C0149015A0168E873E141
:1035000080E090E00E947410182F882309F410C204
:10351000C092420ED092430EE092440EF092450EBD
:103520008092460E9092470EA092480EB092490E9D
:1035300080E290E090934B0E80934A0E80E090E101
:1035400090934D0E80934C0EF8948FEF9FEFDC011B
:1035500080932E0E90932F0EA093300EB093310EC9
:103560008093320E9093330EA093340EB093350EA9
:103570008093360E9093370EA093380EB093390E89
:1035800080933A0E90933B0EA0933C0EB0933D0E69
:103590006091420E7091430E8091440E9091450EC1
:1035A0000E940B12882309F4C0C08090420E9090B4
:1035B000430EA090440EB090450E6091460E70915F
:1035C000470E8091480E9091490E681979098A0931
:1035D0009B099695879577956795680D791D8A1D46
:1035E0009B1D0E940B12882309F49FC08091420EFC
:1035F0009091430EA091440EB091450E898B9A8B09
:10360000AB8BBC8B8D879E87AF87B88B69897A8996
:103610008B899C896093320E7093330E8093340EA5
:103620009093350ECD84DE84EF84F888C0922E0E00
:10363000D0922F0EE092300EF092310E0E94E711E0
:103640006093360E7093370E8093380E9093390E38
:103650006B017C01CC2420EFD222FF246C157D0568
:103660008E059F0509F0A6C160933A0E70933B0E3C
:1036700080933C0E90933D0E60913A0E70913B0EFC
:1036800080913C0E90913D0E0E94AC0560933A0EE5
:1036900070933B0E80933C0E90933D0E8091320EC2
:1036A0009091330EA091340EB091350E0097A04842
:1036B000B10508F486C110923E0E10923F0E109292
:1036C000400E1092410E78948FED91E00E94571AAF
:1036D0000E943B1960912E0E70912F0E8091300E3A
:1036E0009091310E0E947E156091320E7091330ED2
:1036F0008091340E9091350E0E947E158FE09CE0F3
:103700000E94BD07812F64960FB6F894DEBF0FBEEE
:10371000CDBFDF91CF911F91FF90EF90DF90CF90C1
:10372000BF90AF909F908F9008958091420E90919E
:10373000430EA091440EB091450E898B9A8BAB8BB2
:10374000BC8BAE014B5F5F4F6FEFCE0141960E9485
:10375000F21281111DC08091420E9091430EA091F2
:10376000440EB091450E898B9A8BAB8BBC8BAE010E
:103770004B5F5F4F61E0CE0141960E94F2128111D2
:1037800007C08FEF9FEFDC018D839E83AF83B887E7
:1037900020914A0E30914B0E8091460E9091470E2B
:1037A000A091480EB091490E821B930BA109B1095B
:1037B000898B9A8BAB8BBC8BAE01475F5F4F6FEFF2
:1037C000CE0141960E94F212811107C08FEF9FEF48
:1037D000DC0189879A87AB87BC8789849A84AB840C
:1037E000BC848091420E9091430EA091440EB09102
:1037F000450E4D815E816F8178854F3F5F4F6F4FE2
:103800007F4F09F18B208A208920809409F096C08F
:103810008D879E87AF87B88BAE014F5F5F4F61E0AA
:10382000CE010D960E94F2128823E1F120914A0EFA
:1038300030914B0E8091460E9091470EA091480E0C
:10384000B091490E9AC020914A0E30914B0E409192
:10385000460E5091470E6091480E7091490E421BE2
:10386000530B610971098B208A208920809409F407
:103870008DC0498B5A8B6B8B7C8B8D879E87AF87D6
:10388000B88BAE014F5F5F4F6FEFCE0141960E9444
:10389000F212882339F061E0CE010D960E94671381
:1038A0008111B4CE89899A89AB89BC89C816D90699
:1038B000EA06FB06E1F58D859E85AF85B889C816B9
:1038C000D906EA06FB0699F580E090E0A0E8B0E0B2
:1038D0008093320E9093330EA093340EB093350E36
:1038E00080932E0E90932F0EA093300EB093310E36
:1038F000C092360ED092370EE092380EF092390E0A
:1039000080E1D80EE11CF11CC0923A0ED0923B0E21
:10391000E0923C0EF0923D0E8FEF9FEFDC01809322
:103920003E0E90933F0EA093400EB093410E7894BC
:1039300086EF91E00E94571A10E0E4CE19861A86AD
:103940001B861C864FEF5FEFBA014D835E836F834A
:1039500078878D879E87AF87B88B61E0CE010D9603
:103960000E946713882309F49DCF20914A0E30915D
:103970004B0E8D859E85AF85B889821B930BA1095F
:10398000B109898B9A8BAB8BBC8B10C08D879E87BE
:10399000AF87B88B498B5A8B6B8B7C8B61E0CE01E8
:1039A0000D960E946713882309F47CCF6FEFCE0138
:1039B000419674CF705F8F4F9F4F6627707F992716
:1039C00053CE4EE35EE061E082E39EE00E94F2129D
:1039D0007ACE0C942E190E94B11765E38BE00E94F9
:1039E000710E68E18CE00E94710E60E88DE00E942B
:1039F000710E84E192E00E94E91C82E10E94AE19FE
:103A00008FEB95E00E94E91C83E20E94B51962E306
:103A100070E080E090E00C941D09CF93DF93482F75
:103A20005091430A852F90E0E091140BE4133BC0C2
:103A3000CE2FD0E08C0F9D1F6CE370E00E94814F71
:103A4000BE010E94814FE69FE02D1124E093CE0934
:103A50002091CE09822F6AE00E94614FC82FCC0FBF
:103A6000C80FCC0FC20F60E087E00E94710E6C2F70
:103A700088E00E94710E60E889E00E94710E60E8A3
:103A80008AE00E94710E86E292E00E94E91C809119
:103A9000CE090E94B51962E370E080E090E0DF910A
:103AA000CF910C941D09840F911D8C3391053CF02E
:103AB0006CE370E00E94814F8093CE09C9CF450F1F
:103AC0004093CE09C5CFCF93DF93EC0188819981D4
:103AD000009711F00E944150198218821D821C82A9
:103AE0001B821A82DF91CF910895FC018081918120
:103AF0000C9441502F923F924F925F927F928F92FF
:103B00009F92AF92BF92CF92DF92EF92FF920F936C
:103B10001F93CF93DF9300D000D000D0CDB7DEB796
:103B20004B015C01AE014F5F5F4F0E943C12782E4B
:103B300081111DC086E392E00E94571A872D2696B8
:103B40000FB6F894DEBF0FBECDBFDF91CF911F91AE
:103B50000F91FF90EF90DF90CF90BF90AF909F902C
:103B60008F907F905F904F903F902F90089506E048
:103B700010E09E012F5F3F4FB501A40180912C0EF4
:103B800090912D0E0E9487114D805E80620186E02B
:103B9000C81AD108C20105970E94A54F7C01009167
:103BA000460E1091470E2091480E3091490EB501F6
:103BB000A4014A5F5F4F6F4F7F4FD501C401840D51
:103BC000951DA11DB11D1C012D0180912C0E909100
:103BD0002D0E021513052405350560F50650110953
:103BE0005801A818B908850197010E94871186011C
:103BF0000A191B0997012A0D3B1D4091420E509155
:103C0000430E6091440E7091450E80912C0E909160
:103C10002D0E0E948711F701EC0DFD1D1082C701CA
:103C20000E94571A8FE09CE00E94BD07C7010E94C6
:103C3000415084CF86019701ECCFEF92FF920F9312
:103C40001F93CF93DF937C018C01CAE0D0E0CE01BB
:103C50000E94D04DF80181938F012196CE30D1057D
:103C6000B1F7C701DF91CF911F910F91FF90EF90B6
:103C700008950F931F93CF93DF9300E21BE0C8E0FA
:103C8000DBE0CE010E94D04DF80181938F01219697
:103C9000C837FBE0DF07A9F780E29BE0DF91CF9117
:103CA0001F910F9108950F931F93CF93DF938C0172
:103CB000EB010E94D04D8883C80101960E94D04D2F
:103CC0008983CE01DF91CF911F910F910895CF93FA
:103CD000DF93EB010E94D04D8883CE01DF91CF911D
:103CE00008950C94D04D2F923F924F925F926F9215
:103CF0007F928F929F92AF92BF92CF92DF92EF927C
:103D0000FF920F931F93CF93DF93CDB7DEB72A9720
:103D10000FB6F894DEBF0FBECDBFFC0169830481EE
:103D20001581C80187509F4F6AEF70E00E946D4F68
:103D3000662309F42AC129812A874F0161506987C6
:103D400090E080E0212C312C2101339401151105E4
:103D500009F41BC10B3F110550F15C013AEFA30EB2
:103D6000B11C0A5F110966246394712C681A790AE0
:103D70006A0C7B1C49854093690FAAE6BFE08A154F
:103D80009B05D8F4F401248135818217930738F418
:103D900020813181F901E80FF91F232B21F41092C2
:103DA000080CE8E0FCE020812D930196E8CF580153
:103DB000A80EB91E10E000E0D6CFF090650EF39487
:103DC000F092650EC12CEE24E394EC0C8091680E09
:103DD0008C1508F4F4C080915E0E90915F0EDC01AA
:103DE000ED91FC91008CF18DE02D6F2D0995809166
:103DF0005E0E90915F0EDC01ED91FC91028CF38DD3
:103E0000E02D40E860E009954A85662D89E69FE04F
:103E10000E9487060E947C06BA85BF3F09F4D1C084
:103E2000E1E0EE1598F48091610E9091620EA09100
:103E3000630EB091640E0196A11DB11D8093610EB9
:103E40009093620EA093630EB093640E0E9450098B
:103E500069837A838B839C83C090660ED090670EB3
:103E60000E948549A20191010E94084E9B01AC016C
:103E7000D6010E94274EA20191010E94084E2C0DEE
:103E80003D1DCE2CC901B0E0A0E08D839E83AF83A1
:103E9000B8870E94500929813A814B815C81621B5D
:103EA000730B840B950B2D813E814F8158856217D2
:103EB00073078407950708F086CF80915E0E909176
:103EC0005F0EDC01ED91FC910280F381E02D0995FC
:103ED0008823F9F280915E0E90915F0EDC01ED91E6
:103EE000FC910480F581E02D50E040E070E060E05E
:103EF0000995882371F280915E0E90915F0EDC012E
:103F0000ED91FC9100A0F1A1E02D0995D82E8091B2
:103F10005E0E90915F0EDC01ED91FC91068CF78DA9
:103F2000E02D0995782E80915E0E90915F0EDC0158
:103F3000ED91FC9102A0F3A1E02D0995E82E80916E
:103F40005E0E90915F0EDC01ED91FC9104A0F5A155
:103F5000E02D0995BA85BD1108C09091600E9711AA
:103F600004C087FF02C0FE1461F187FD92CFED2DE2
:103F7000F0E0E25AF14F83858E118BCF4D2D6E2DDF
:103F80008EE59EE00E94BF0B84CF81E02A960FB69B
:103F9000F894DEBF0FBECDBFDF91CF911F910F917F
:103FA000FF90EF90DF90CF90BF90AF909F908F9059
:103FB0007F906F905F904F903F902F90089580E09A
:103FC000E5CFE985E150E987C501C0CE8F929F9288
:103FD000AF92BF92CF92DF92EF92FF920F931F9317
:103FE000CF93DF9300D000D000D0CDB7DEB70E94D2
:103FF000391E64E170E080E090E00E941D0910E04D
:1040000097E0892E9090E209191508F03FC081EBE6
:10401000E82E81E1F82E189D6001112400E0C60110
:10402000805E944F5C01901679F1F5019081F70163
:10403000808198131FC0FE01319681E090E0BF019E
:104040009C0121503109DC01AC0DBD1DA05EB44FB7
:104050004C9150ED540F5A3020F04B3211F04D324C
:1040600071F4419301968730910551F7C701C096CD
:104070000E94D4510F5FF6E7EF0EF11CD4CF260F4C
:10408000371FF9011082F2CF1F5FBCCF26960FB603
:10409000F894DEBF0FBECDBFDF91CF911F910F917E
:1040A000FF90EF90DF90CF90BF90AF909F908F9058
:1040B00008950E94AB510F931F93CF93DF93EC01B0
:1040C00088819981009759F02A813B81261737070B
:1040D00030F081E0DF91CF911F910F9108958B0116
:1040E0006F5F7F4F0E94CA50009759F09983888371
:1040F0001B830A832C813D81232B59F7FC011082FD
:10410000E8CF80E0E7CFEF92FF920F931F93CF931A
:10411000DF936115710541F480E0DF91CF911F912C
:104120000F91FF90EF90089541155105B1F07B017B
:10413000EC010C811D81040F151FB8010E945B204A
:10414000882351F3288139818C819D81B701820FA9
:10415000931F0E94D4511D830C8381E0DECF0F9307
:104160001F93CF93DF9300D000D0CDB7DEB74AE0E6
:104170008E010F5F1F4FB80190E00E94EF49F801D8
:1041800001900020E9F73197AF01401B510BB801B6
:104190008DE891E10E9483200F900F900F900F9077
:1041A000DF91CF911F910F9108950F931F93CF939C
:1041B000DF93CDB7DEB764970FB6F894DEBF0FBEBE
:1041C000CDBF8E010F5F1F4F22E044E00E941B49CC
:1041D000FC0101900020E9F73197AF01481B590B12
:1041E000BC018DE891E10E94832064960FB6F8949B
:1041F000DEBF0FBECDBFDF91CF911F910F9108950C
:10420000CF93DF9300D0CDB7DEB769831A8241E048
:1042100050E0BE016F5F7F4F0E9483200F900F9090
:10422000DF91CF910895FB0101900020E9F73197CC
:10423000AF01461B570B0C948320EF92FF920F9314
:104240001F93CF93DF93EC017B018A01BA010E9497
:104250005B2081110BC0CE010E94631DCE01DF9156
:10426000CF911F910F91FF90EF9008951D830C83C4
:10427000B701888199810E94D451F0CFFC0111824D
:104280001082138212821582148250E040E06EED9B
:1042900071E00C941D21CF93DF9300D000D000D0AB
:1042A000CDB7DEB70E941C1764E670E080E090E0B6
:1042B0000E941D09CE0101960E943E216091E109F4
:1042C000CE0101960E9400216EE472E0CE010196BB
:1042D0000E941321CE0101960E946C176CE271E0DE
:1042E00080E090E00E941D098EE49EE00E9430165E
:1042F000892B29F08EE49EE00E940316F5CF64E13D
:1043000070E080E090E00E941D090E94091764E1BE
:1043100070E080E090E00E941D09CE0101960E94AD
:10432000751D26960FB6F894DEBF0FBECDBFDF9188
:10433000CF910895CF93DF9300D000D000D0CDB7B8
:10434000DEB70E941C1764E670E080E090E00E94F7
:104350001D09CE0101960E943E216091E109CE0126
:1043600001960E94002162E572E0CE0101960E9452
:104370001321CE0101960E946C176CE271E080E07F
:1043800090E00E941D098EE49EE00E943016892B69
:1043900029F08EE49EE00E940316F5CF64E170E000
:1043A00080E090E00E941D090E94091764E170E01E
:1043B00080E090E00E941D09CE0101960E94751DCB
:1043C00026960FB6F894DEBF0FBECDBFDF91CF911A
:1043D0000895FB0101900020E9F73197AF01461BDA
:1043E000570B0C941D210F931F93CF93DF9300D095
:1043F00000D000D0CDB7DEB7182FCE0101960E94B5
:104400003E216EED71E0CE0101960E94E921612FFF
:10441000CE0101960E9400216BE274E0CE0101966C
:104420000E94132103E010E0CE0101960E946C1758
:1044300064E670E080E090E00E941D098EE49EE05A
:104440000E943016181619064CF064E670E080E001
:1044500090E00E941D090150110931F78EE49EE0A1
:104460000E94301602979CF00E94040511E0CE01D4
:1044700001960E94751D812F26960FB6F894DEBF17
:104480000FBECDBFDF91CF911F910F9108950E9474
:10449000040510E0ECCFCF93DF93EC01FB0186170E
:1044A000970749F0608171816115710541F0448180
:1044B00055810E941D21CE01DF91CF9108950E9468
:1044C000631DF9CFCF93DF9300D000D000D0CDB7DC
:1044D000DEB71A8219821C821B821E821D826DE841
:1044E00071E1CE0101960E944B22409197115091AB
:1044F00098116091931170919411CE0101960E94D0
:104500008320811104C0CE0101960E94631DBE016B
:104510006F5F7F4F83E991E10E944B22CE010196AC
:104520000E94751D64E670E080E090E00E941D0925
:1045300083E991E10E943F1962E370E080E090E03E
:104540000E941D0926960FB6F894DEBF0FBECDBFA0
:10455000DF91CF910895CF92DF92EF92FF920F9368
:104560001F93CF93DF93EC017B018A01E881F981EE
:104570000280F381E02D0995D82E882329F1E114DA
:10458000F104D1F001151105B9F0CFB6F8948A8D78
:104590008350990BF8012081281719061CF08A8D89
:1045A00084508083F801408150E0BE01615E7F4FFE
:1045B000C7010E94B051CFBE8FB7F894FE01E65EEE
:1045C000FE4F10821A8E8FBF8D2DDF91CF911F91DC
:1045D0000F91FF90EF90DF90CF900895EF92FF92B0
:1045E0000F931F93CF93DF9300D01F92CDB7DEB709
:1045F0008C010E94A10BE82E81110CC0E12C8E2DA4
:104600000F900F900F90DF91CF911F910F91FF901E
:10461000EF900895F801808D8A3009F47EC08B30C8
:1046200009F47DC022E0F22E823041F740E861E0DB
:10463000C8010E9477096AE070E080E090E00E9483
:104640001D0961E0C8010E94B70A8038B9F660E030
:10465000F801808D0E94B508F801818D8F3F49F4E3
:104660008091300A843050F691E0980F9093300A90
:10467000818FF801818DE82FF0E0EE0FFF1FEF5CD6
:10468000F54F1183008368E97BE0882349F06FE8E8
:104690007BE0813029F0823009F0B0CF66E87BE022
:1046A0008F2D0E94AA0640E06EE0C8010E947709A3
:1046B00040E06FE0C8010E947709C8010E94CF095D
:1046C00043E050E069EB78E0CE0101960E94E649B4
:1046D00049816DE1C8010E9477094A816EE1C801F4
:1046E0000E9477094B8166E2C8010E94770940E089
:1046F00060E2C8010E94770948E061E2C8010E94B7
:10470000770940E050EC64E674E4C8010E94E309D4
:104710006DE0C8010E94A70972CFF12C87CFFF245A
:10472000F39484CFCF92DF92EF92FF921F93CF93B7
:10473000DF93EAE4FAE088ECDF011D928A95E9F75D
:1047400062E370E080E090E00E941D090E94500941
:104750006B017C01B0E1CB0EB7E2DB1EE11CF11C6A
:104760000E9450096C157D058E059F0540F58FE070
:104770009CE00E9429071816190694F764E670E079
:1047800080E090E00E941D098FE09CE00E942907D4
:10479000EC01F82E10E08FE09CE00E9408078D30BD
:1047A00039F08A3029F0E12FF0E0E65BF54F8083A5
:1047B0001F5FF11680F7DD27C65BD54F18828AE4AC
:1047C0009AE0DF91CF911F91FF90EF90DF90CF9013
:1047D0000C94571A0E94391E64E670E080E090E065
:1047E0000E941D09E0E2FBE080E7DF011D928A954F
:1047F000E9F708952F923F924F925F926F927F92C6
:104800008F929F92AF92BF92CF92DF92EF92FF92E0
:104810000F931F93CF93DF93CDB7DEB764970FB697
:10482000F894DEBF0FBECDBFCDB6DEB6DE86CD8638
:104830000E946222E0909711F0909811FC8AEB8A16
:104840002DB73EB72E193F090FB6F8943EBF0FBEE5
:104850002DBF8DB79EB701965C0160919311709149
:104860009411A7010E94B05180914C0E90914D0E71
:1048700006978E159F05C0F586E592E00E94571AAF
:1048800080E591E00E944D1060E087E10E945508AC
:1048900089EB0E94431061E087E10E9455088091F6
:1048A0002E0A81110E942310ED84FE840FB6F89425
:1048B000FEBE0FBEEDBE64960FB6F894DEBF0FBE0F
:1048C000CDBFDF91CF911F910F91FF90EF90DF90BF
:1048D000CF90BF90AF909F908F907F906F905F90A0
:1048E0004F903F902F9008952DB63EB640903E0ECB
:1048F00050903F0E6090400E7090410E9FEF491A0D
:10490000590A690A790AEB88FC88A6E0EA0EF11CCC
:1049100000914A0E10914B0EC701B8010E946D4FD5
:10492000009709F461C10E0D1F1D081B190BEDB78F
:10493000FEB7E01BF10B0FB6F894FEBF0FBEEDBF44
:104940002DB73EB72F5F3F4F4901ADB7BEB71196A8
:104950004D925D926D927C921497F901F582E482FA
:104960008DB79EB707964B895C89B5010E94B051FF
:10497000A8014E195F0970E060E0C4018E0D9F1D13
:104980000E94B9512801712C612C4091360E509132
:10499000370E6091380E7091390EC090460ED0904F
:1049A000470EE090480EF090490ECF86D88AE98AEB
:1049B000FA8AD301C801840F951FA61FB71FE09183
:1049C0002C0EF0912D0EC816D906EA06FB0608F04B
:1049D0000DC15601A41AB50A7801EA18FB08850131
:1049E0009401CF010E94231164EF71E080E090E018
:1049F0000E94741094012A0D3B1D4091420E50916B
:104A0000430E6091440E7091450E870180912C0EEB
:104A100090912D0E0E9423118090360E9090370EAB
:104A2000A090380EB090390E80913E0E90913F0EBE
:104A3000A091400EB091410E0196A11DB11D809331
:104A40003E0E90933F0EA093400EB093410EC301D3
:104A5000B201680D791D8A1D9B1D0E94AC056093F3
:104A6000360E7093370E8093380E9093390E705F28
:104A70008F4F9F4F6627707F99270E94AC052B01AF
:104A80003C010E940B12811128C0C301B2010E9497
:104A9000EC10C301B201705F8F4F9F4F6627707F8C
:104AA00099270E94AC056D837E838F839887AE0122
:104AB0004F5F5F4F61E0CE0105960E94F21288239E
:104AC00061F08D819E81AF81B88580932E0E909389
:104AD0002F0EA093300EB093310E40923A0E5092AA
:104AE0003B0E60923C0E70923D0E8092320E909280
:104AF000330EA092340EB092350E80912E0E90910E
:104B00002F0EA091300EB091310E0097A048B10544
:104B100040F080922E0E90922F0EA092300EB09206
:104B2000310E0FB6F8943EBE0FBE2DBE6091320E10
:104B30007091330E8091340E9091350E0E94BB110E
:104B40007C016091320E7091330E8091340E909101
:104B5000350E0E94BB118C01009769F020914A0E1E
:104B600030914B0EB9010E946D4F009721F0020F5A
:104B7000131F081B190B8BE692E00E94E91C609141
:104B80003E0E70913F0E8091400E9091410E0E941A
:104B90004A1A8BE792E00E94E91C83E991E10E94A6
:104BA0003F1982E892E00E94E91CCB88DC88B601BC
:104BB00090E080E04AE00E946A198EE892E00E944C
:104BC000E91CB70190E080E04AE00E946A198BE995
:104BD00092E00E94E91CB80190E080E04AE00E9467
:104BE0006A190E943B194CCE8701A1CE9401CF01D6
:104BF00011CF8F929F92AF92BF92CF92DF92EF929E
:104C0000FF920F931F93CF93DF93CDB7DEB72E970D
:104C10000FB6F894DEBF0FBECDBF0E94560F609353
:104C2000460A7093470A8093480A9093490A82E1A2
:104C30000E942A18182F81E10E942A18612F782FCC
:104C400077FF02C0615C7F4F86E0759567958A9516
:104C5000E1F7072E000C880B990B0E94B34C20E063
:104C600030E040E85EE30E94124D6093DD097093EE
:104C7000DE098093DF099093E00961E08CE10E94F6
:104C8000B5088E010F5F1F4FB80180E390E00E94CE
:104C9000531E89819A81019679F4BE01625F7F4F2C
:104CA00080E190E00E94671E8E85853409F433C14F
:104CB00088EE93E09A83898361E08CE10E94550835
:104CC00084EE93E00197F1F70E94000F4B015C0125
:104CD00060E08CE10E94550820E030E048EC52E4AE
:104CE000C501B4010E94124D0E94284FCB0164E619
:104CF00070E00E946D4F7C01C501B4010E94284FF5
:104D000044E6469F9001479F300D11242E0D3F1D14
:104D1000A8EEB3E00E943A4E29813A8150E040E08B
:104D20000E94E64D69010E94000F4B015C016EED8F
:104D300071E08DE891E10E94E92164E170E080E09A
:104D400090E00E941D0960E071E08DE891E10E9411
:104D500013216EE78DE891E10E9400216AE17BE07A
:104D60008DE891E10E9413216EE78DE891E10E94A8
:104D700000216091160B7091170B8091180B909188
:104D8000190B2AE0A8010E94094AF80101900020AD
:104D9000E9F73197AF01401B510BB8018DE891E164
:104DA0000E9483206EE78DE891E10E9400216091CE
:104DB000460A7091470A8091480A9091490A0E94D8
:104DC000D5206EE78DE891E10E9400216091DD0918
:104DD0007091DE098091DF099091E0090E94D52051
:104DE0006EE78DE891E10E9400214AE0B801C6011A
:104DF0000E942B4AF80101900020E9F73197AF019A
:104E0000401B510BB8018DE891E10E9483206EE7B1
:104E10008DE891E10E940021C501B4010E94D520D6
:104E20006EE78DE891E10E9400214AE0B80180918F
:104E3000E5099091E6090E94EF49F80101900020F0
:104E4000E9F73197AF01401B510BB8018DE891E1B3
:104E50000E9483206DE28DE891E10E940021809103
:104E6000E8090E94AF206DE28DE891E10E940021E7
:104E70008091E7090E94AF206FE58DE891E10E94E3
:104E800000218091E4090E94AF206AE38DE891E15E
:104E90000E9400211091430A1A3028F460E38DE843
:104EA00091E10E940021812F0E94AF206AE38DE8EA
:104EB00091E10E9400211091E3091A3028F460E387
:104EC0008DE891E10E940021812F0E94AF206DEAC0
:104ED00072E08DE891E10E9413216EE78DE891E187
:104EE0000E94002162E370E080E090E00E941D09D2
:104EF0002E960FB6F894DEBF0FBECDBFDF91CF91D7
:104F00001F910F91FF90EF90DF90CF90BF90AF90E7
:104F10009F908F90089584E690E0CCCE2F923F92A0
:104F20004F925F926F927F928F929F92AF92BF92B9
:104F3000CF92DF92EF92FF920F931F93CF93DF9365
:104F4000CDB7DEB7C95ED1090FB6F894DEBF0FBE8C
:104F5000CDBF2DB73EB7CC51DF4F39832883C45E18
:104F6000D0406EED71E083E991E10E94E9210E9459
:104F70001C1764EF71E080E090E00E941D09C752A9
:104F8000DF4F1882C95DD040AE014F5F5F4F2A01ED
:104F90001E015EEB250E311C6091DA027091DB027E
:104FA0008091DC029091DD02CA51DF4F68837983E2
:104FB0008A839B83C65ED0408091E209C752DF4F4F
:104FC0007881C95DD040781708F04DC5872E912CA7
:104FD000A6E7A89DC001A99D900D1124FC01EF54E6
:104FE000FE4EB081C452DF4FB883CC5DD040709389
:104FF000DC098C01FC01EA52FE4E7F0162EB72E09B
:10500000CF010E94CB51892B09F0B2C081E080937F
:10501000DB0964E670E080E090E00E941D0970907A
:10502000DB090091DC09A02EB12CF6E70F9F80016F
:105030001124772009F484C4C452DF4F2881CC5D49
:10504000D040C853DF4F2883C85CD040C753DF4FE0
:105050001882C95CD04062EB72E0C8018A529E4E51
:105060000E94CB516CEB72E0892B11F460EC72E082
:10507000CE018F529F4F0E94D451BE016F527F4F7D
:10508000CE0188539F4F0E94C051CE0188539F4F3D
:105090000E94071964EF71E080E090E00E941D0912
:1050A0008EE49EE00E943016843008F4BEC34DB7F3
:1050B0005EB7C052DF4F59834883C05ED040C354AF
:1050C000DF4F1882CD5BD0408E0102581F4FF12C6C
:1050D000E12CD12CBE2C8EE49EE00E940316C82E3B
:1050E00068E070E080E090E00E941D09D801CD9258
:1050F0008D01BDE0CB12D2C0EEE7F0E0EC0FFD1F5A
:10510000EE0DFF1D10820E940405DB0C8D2D90E03A
:105110008C01015011094DB75EB7481B590B0FB6F2
:10512000F8945EBF0FBE4DBF6DB77EB76F5F7F4F08
:105130007B01C12CBB24B3948EE7A82ECD1408F0BC
:10514000C9C0EEE7F0E0EC0FFD1FEB0DF11D808113
:10515000F701EC0DF11D8B3209F0B3C0A082B394BE
:1051600065E070E080E090E00E941D09C394E6CF06
:10517000C80185529E4E0E94071964E670E080E0E7
:1051800090E00E941D098EE49EE00E9430161816E1
:1051900019060CF07AC06DB67EB681E08093DB090B
:1051A0008EE49EE00E943016CB52DF4F8883C55DAF
:1051B000D0406C01DD242DB73EB72C193D090FB648
:1051C000F8943EBF0FBE2DBF0DB71EB70F5F1F4F28
:1051D000C952DF4F0883C75DD04058018A2DC9529C
:1051E000DF4F3881C75DD040831BCB52DF4F4881F2
:1051F000C55DD040841740F48EE49EE00E94031603
:10520000D5018D935D01EACF0C0D1D1DF80134977A
:105210008081082E000C990BC097E8EEF3E08E9F7A
:1052200090018F9F300D9E9F300D11243093DA092D
:105230002093D90967EB72E0C7010E94CB51892BFB
:1052400071F426E7289DF001299DF00D1124EF54FB
:10525000FE4E03501109D8018C91805387A70FB6D9
:10526000F8947EBE0FBE6DBE6091D9097091DA09C7
:10527000072E000C880B990B0E941D090E94040543
:1052800062E370E080E090E0C8CEE8EEF3E0F093F7
:10529000DA09E093D9091092DB09E6CFEDE2CE12EC
:1052A00001C0D3946AE070E080E090E00E941D09A4
:1052B000FFEFEF1AFF0A20E4E216F10409F00ACF2B
:1052C00022CF8D3229F4C394A082F701EC0DF11D99
:1052D000808345CFF701E00FF11F10828091DC0938
:1052E000882E912CB6E78B9FD0011124CB52DF4F33
:1052F000B983A883C55DD04064EC72E0CD018A52C9
:105300009E4E0E94CB512091E209E22FE150FF0B0B
:10531000C352DF4FF983E883CD5DD040CB52DF4FDE
:1053200028813981C55DD0402E543E4E5901892BCC
:1053300009F002C24DB75EB7CE51DF4F59834883A3
:10534000C25ED040D3946D2D70E0C952DF4F798397
:105350006883C75DD040CB010197ADB7BEB7A61B30
:10536000B70B0FB6F894BEBF0FBEADBFEDB7FEB71B
:105370003196C652DF4FF983E883CA5DD040DF0122
:105380003E2DF7014EE72E2F231B2D1540F42191C2
:10539000222319F02C931196F6CF4C93FCCFC652D2
:1053A000DF4FE881F981CA5DD040E80FF91F108214
:1053B000C452DF4FF881CC5DD040CD53DF4FF8832E
:1053C000C35CD040CC53DF4F1882C45CD040CA517C
:1053D000DF4F288139814A815B81C65ED040C3534B
:1053E000DF4F288339834A835B83CD5CD040BE0185
:1053F00063537F4FCE018D539F4F0E94C051CE010A
:105400008D539F4F0E94071964EF71E080E090E098
:105410000E941D098EE49EE00E943016482F4150E4
:10542000550B6DB77EB7641B750B0FB6F8947EBF36
:105430000FBE6DBF0DB71EB70F5F1F4F863038F11F
:10544000612C6A01E62CF12CEC14FD0404F58EE4C9
:105450009EE00E9403168D3089F08A3099F0F801A1
:10546000EE0DFF1D8B3281F08D3271F080836FE085
:1054700070E080E090E00E941D0904C0F801EE0D8C
:10548000FF1D10826394DECF7EE77083F0CF6EE75E
:1054900070E0C8010E94EA51801B910B382FF8017F
:1054A000E80FF11D91E02FEF290F931760F482911F
:1054B0008E3749F0832F891BC152DF4F8883CF5D20
:1054C000D0409F5FF0CF822F90E0AC014F5F5F4FE5
:1054D000ADB7BEB7A41BB50B0FB6F894BEBF0FBED9
:1054E000ADBFEDB7FEB731967F01D801C152DF4F96
:1054F000F881CF5DD040AF0FB11D4E2DF7013E2F8B
:10550000341B321718F43D913193F9CFF701E80FAE
:10551000F91F1082C952DF4F28813981C75DD04001
:10552000820F931F4DB75EB7481B590B0FB6F89407
:105530005EBF0FBE4DBF0DB71EB70F5F1F4F62E3BB
:1055400070E080E090E00E941D09C652DF4F688144
:105550007981CA5DD040C8010E94D45162E370E0F5
:1055600080E090E00E941D098EE7D8018C9362E3F1
:1055700070E080E090E00E941D09B701C8010E9420
:10558000C05162E370E080E090E00E941D09C352C8
:10559000DF4FE881F981CD5DD0408E169F0609F47A
:1055A0009EC026E7289DF001299DF00D1124EF549F
:1055B000FE4E80A9882309F472C01F930F93CB522B
:1055C000DF4F88819981C55DD0408F519E4E9F935A
:1055D0008F93BF92AF9249EC52E05F934F935F92EB
:1055E0004F920E940F528DB79EB70A960FB6F8944D
:1055F0009EBF0FBE8DBF62E370E080E090E00E942E
:105600001D09B20183E991E10E94132162E370E078
:1056100080E090E00E941D09CE51DF4F4881598102
:10562000C25ED0400FB6F8945EBF0FBE4DBFC052F1
:10563000DF4F88819981C05ED0400FB6F8949EBF3D
:105640000FBE8DBF62E370E080E090E00E941D0914
:1056500071100BC0B20183E991E10E94132162E352
:1056600070E080E090E00E941D090E94040562E362
:1056700070E080E090E00E941D0964EF71E080E03E
:1056800090E00E941D09C752DF4F9881C95DD0404C
:105690009F5FC752DF4F9883C95DD0408DCC85E0B6
:1056A000EFEDF2E0D10101900D928A95E1F71F93A1
:1056B0000F933F922F92BF92AF92A9ECB2E0BF93AB
:1056C000AF935F924F920E940F522DB73EB7265F65
:1056D0003F4F0FB6F8943EBF0FBE2DBF8CCF36E7BD
:1056E000389DF001399DF00D1124EF54FE4E80A934
:1056F000882389F01F930F93CB52DF4F88819981C4
:10570000C55DD0408F519E4E9F938F93BF92AF92B5
:1057100042ED52E062CF85E0EFEDF2E0D101019081
:105720000D928A95E1F71F930F933F922F92BF92AC
:10573000AF92A2EDB2E0C3CF56E7589DF001599D5C
:10574000F00D1124EF54FE4E80A9C352DF4F688143
:105750007981CD5DD0408616970609F442C0882332
:1057600001F1FF92EF92CB52DF4F88819981C55DA5
:10577000D0408F519E4E9F938F93BF922F9389EC71
:1057800092E09F938F935F924F920E940F52EDB7DA
:10579000FEB73A960FB6F894FEBF0FBEEDBF712C60
:1057A00046CF85E0EFEDF2E0D10101900D928A95B0
:1057B000E1F7FF92EF923F922F92BF922F9329EC45
:1057C00032E03F932F935F924F920E940F526DB73A
:1057D0007EB7665F7F4F0FB6F8947EBF0FBE6DBF7A
:1057E000DECF882389F0FF92EF92CB52DF4F888182
:1057F0009981C55DD0408F519E4E9F938F93BF92EC
:105800002F9382ED92E0BDCF85E0EFEDF2E0D10184
:1058100001900D928A95E1F7FF92EF923F922F92BD
:10582000BF922F9322ED32E0CCCF8DB69EB686E0AC
:10583000EEEDF2E0DE01A258BF4F01900D928A9585
:10584000E1F796E79A9DF0019B9DF00D1124EF542E
:10585000FE4EC7A48C2D880F8C0D880FADB7BEB738
:10586000A81BB1090FB6F894BEBF0FBEADBFEDB710
:10587000FEB731967F01CB52DF4FE883C55DD04044
:105880006F2CBE0162587F4FCF010E94D451F1E0CE
:10589000FC15A8F4712C2C2D2150330B69017C14BC
:1058A0001D046CF4BE0162587F4FCB52DF4F8881DC
:1058B000C55DD040962D0E94C0517394F0CFC801B1
:1058C0008F519E4E0E541E4E2091E2092150330BF3
:1058D0002A153B05E9F0FF92EF929F938F931F9358
:1058E0000F9349EC52E05F934F935F924F920E9467
:1058F0000F528DB79EB70A960FB6F8949EBF0FBE93
:105900008DBF0FB6F8949EBE0FBE8DBE712C9ACE81
:10591000FF92EF929F938F931F930F93A2EDB2E0AC
:10592000BF93AF935F924F920E940F522DB73EB735
:10593000265F3F4F0FB6F8943EBF0FBE2DBFE1CF9D
:105940008DB69EB686E0EEEDF2E0DE01A258BF4FC6
:1059500001900D928A95E1F736E73A9DF0013B9D63
:10596000F00D1124EF54FE4EC7A48C2D880F8C0D22
:10597000880F4DB75EB7481B51090FB6F8945EBF4C
:105980000FBE4DBF6DB77EB76F5F7F4F7B01CB52B0
:10599000DF4F6883C55DD040C952DF4FF882C75DD5
:1059A000D040BE0162587F4FC7010E94D45171E0C0
:1059B0007C15C8F4612C8C2D8150990B6C016C14F2
:1059C0001D048CF4BE0162587F4FCB52DF4F88819B
:1059D000C55DD040C952DF4F9881C75DD0400E945D
:1059E000C0516394ECCFC8018F519E4E0E541E4E91
:1059F0002091E2092150330B2A153B05E9F0FF9273
:105A0000EF929F938F931F930F93A9ECB2E0BF93F4
:105A1000AF935F924F920E940F522DB73EB7265F11
:105A20003F4F0FB6F8943EBF0FBE2DBF0FB6F89490
:105A30009EBE0FBE8DBE06CEFF92EF929F938F93B8
:105A40001F930F9342ED52E05F934F935F924F92FB
:105A50000E940F528DB79EB70A960FB6F8949EBF5C
:105A60000FBE8DBFE3CF0E94091762E370E080E0B4
:105A700090E00E941D09CC51DF4FA881B981C45E1E
:105A8000D0400FB6F894BEBF0FBEADBFC751DF4FB9
:105A90000FB6F894DEBF0FBECDBFDF91CF911F913F
:105AA0000F91FF90EF90DF90CF90BF90AF909F90BD
:105AB0008F907F906F905F904F903F902F900895C0
:105AC0002F923F924F925F926F927F928F929F920E
:105AD000AF92BF92CF92DF92EF92FF920F931F93FC
