:100000000C94D7040C94473E0C941C3E0C94F13D88
:100010000C94C6400C9401050C9401050C94E2402C
:100020000C9401050C9401050C9401050C94010538
:100030000C9401050C94723E0C9401050C9401057E
:100040000C9401050C9401050C94A73D0C9401053A
:100050000C94723D0C94483D0C9401050C940105E0
:100060000C9401050C9401050C94A23F0C9401051D
:100070000C9401050C9401050C9401050C940105E8
:100080000C9401050C9401050C94010500407A10B4
:10009000F35A00A0724E18090010A5D4E80000E839
:1000A0007648170000E40B54020000CA9A3B000097
:1000B00000E1F505000080969800000040420F0026
:1000C0000000A08601000000102700000000E803E7
:1000D000000000006400000000000A0000000000B2
:1000E0000100000000002C76D888DC674F0823DF71
:1000F000C1DFAE59E1B1B796E5E3E453C63AE65144
:10010000997696E8E6C28426EB898C9B62ED407C6A
:100110006FFCEFBC9C9F40F2BAA56FA5F490055A06
:100120002AF75C936B6CF9676DC11BFCE0E40D472B
:10013000FEF520E6B500D0ED902E0300943577054E
:100140000080841E080000204E0A000000C80C3306
:100150003333330F986E12831141EF8D2114893B95
:10016000E65516CFFEE6DB18D1844B381BF77C1D15
:10017000901DA4BBE424203284725E228100C9F168
:1001800024ECA1E53D276364696E6F707375785840
:100190005B00446F6E65005363616E6E696E67202D
:1001A000666F72205344492D31322073656E736F30
:1001B00072732E2E2E002020696E707574206D696A
:1001C0006E7574653A20002020696E707574206821
:1001D0006F75723A20002020696E70757420796501
:1001E00061723A20002020696E7075742064617914
:1001F0003A20002020696E707574206D6F6E7468EF
:100200003A2000456E7465722074686520646174DC
:100210006520616E642074696D6520696E20436F8E
:100220006F7264696E6174656420556E697665727B
:1002300073616C2054696D652028555443293A2018
:100240000020202020456E74657220476174657718
:10025000617920726164696F2049443A20004172DB
:100260006520796F75207573696E6720612047611D
:1002700074657761793F20456E7465722027792710
:1002800020666F72207965732C20276E2720666F99
:1002900072206E6F3A200044656661756C7420723E
:1002A0006164696F204944206163636570746564AB
:1002B00000526164696F20494420757064617465FF
:1002C000640020456E746572206E657720726164EB
:1002D000696F2049443A2000576F756C6420796F2C
:1002E00075206C696B6520746F206368616E67654B
:1002F0002074686520726164696F204944206672C9
:100300006F6D207468652064656661756C74207615
:10031000616C75653F2028792F6E293A2000456E63
:10032000746572206E6577206D6561737572656D99
:10033000656E7420696E74657276616C2865766589
:1003400072792031302C2031352C2032302C203362
:10035000302C206F72203630206D696E73293A2060
:10036000004552524F523A206D696E696D756D208D
:100370003135206D696E75746520696E74657276AD
:10038000616C207265717569726564207769746843
:100390002052482073656E736F722E00496E76612D
:1003A0006C696420696E74657276616C2E20456E8E
:1003B000746572206D6561737572656D656E74200C
:1003C000696E74657276616C202865766572792035
:1003D00031302C2031352C2032302C2033302C2061
:1003E0006F72203630206D696E73293A2000456E99
:1003F000746572206D6561737572656D656E7420CC
:10040000696E74657276616C2028657665727920F4
:1004100031302C2031352C2032302C2033302C2020
:100420006F72203630206D696E73293A2000537543
:1004300063636573730041646472657373206368FA
:10044000616E6765206661696C65640043757272F0
:10045000656E7420616464726573733A20002020B5
:10046000456E74657220612050726F6A65637420F6
:1004700049442028757020746F20352063686172AC
:100480006163746572732C2065783A20505341295A
:100490003A2000457869740041726520796F7520B3
:1004A0007375726520796F752077616E7420746F33
:1004B00020657261736520616C6C206461746120D9
:1004C00073746F72656420696E206D656D6F7279EB
:1004D0003F2028792F6E293A2000496E76616C6999
:1004E0006420696E7075742E2052657475726E6921
:1004F0006E6720746F206D656E752E00456E746595
:10050000722063686F6963653A2000202074202D93
:100510002D3E205072696E74206C61746573742076
:100520006C6F677300202061202D2D3E2050726972
:100530006E7420616C6C2074686520646174610065
:100540005072696E74206461746120746F207363EB
:100550007265656E3A200054657374206D65617331
:100560007572656D656E74733A00456E74657220C0
:1005700073656E736F7220646570746820696E2095
:10058000636D2E2055736520272B27206F7220273F
:100590002D2720746F20696E646963617465206122
:1005A000626F7665206F722062656C6F7720736F63
:1005B000696C20737572666163653A00456E746597
:1005C0007220636F6E66696775726174696F6E2001
:1005D000737472696E673A200052454D494E444526
:1005E000523A2055736520272B27206F7220272D24
:1005F0002720746F20696E6469636174652061628D
:100600006F7665206F722062656C6F7720736F69FB
:100610006C207375726661636520666F7220646515
:10062000707468732100456E7465722063686F6929
:1006300063653A20002020207820203C2D2D2020AA
:1006400045786974206D656E750020202065202036
:100650003C2D2D2020457261736520616C6C2064F7
:10066000617461002020207020203C2D2D2020501E
:1006700072696E74206461746120746F2073637298
:1006800065656E002020207420203C2D2D202054F4
:100690006573742073656E736F7273002020206120
:1006A00020203C2D2D20204368616E676520534437
:1006B000492D31322073656E736F722061646472EC
:1006C000657373002020206E20203C2D2D202053A8
:1006D00063616E20666F722064657669636573205E
:1006E0006F6E205344492D313220627573002020F3
:1006F000206D20203C2D2D2020536574206D6561D8
:10070000737572656D656E7420696E74657276615D
:100710006C002020207220203C2D2D202043686179
:100720006E6765204E6F646520726164696F204951
:1007300044002020206720203C2D2D2020456E7471
:100740006572204761746577617920726164696FB1
:10075000204944002020206920203C2D2D202045C8
:100760006E7465722070726F6A656374204944000C
:100770002020206320203C2D2D20205365742063F1
:100780006C6F636B002020206420203C2D2D2020E6
:10079000456E7465722073656E736F722064657048
:1007A000746873002020203020203C2D2D2020450F
:1007B0006E74657220636F6E6669677572617469C5
:1007C0006F6E20737472696E67004D656E75206F71
:1007D0007074696F6E733A200043757272656E743F
:1007E000206261747465727920766F6C74616765DC
:1007F0003A20200043757272656E742064617465DE
:1008000020262074696D653A20004D65617375720C
:10081000656D656E7420496E74657276616C3A2000
:10082000004761746577617920526164696F20497E
:10083000443A2000526164696F2049443A200050D4
:10084000726F6A6563742049443A20004C6F5261AC
:1008500020526164696F204672657120284D487A84
:10086000293A200053657269616C204E756D62658E
:10087000723A200056657273696F6E2000536F697B
:100880006C2057617465722044617461204E6574F8
:10089000776F726B202D20576972656C65737320BA
:1008A0005344492D313220446174616C6F67676530
:1008B00072204E6F64650072740092740048940058
:1008C00078C40000002100240027002A0000002234
:1008D00000250028002B000000200023002600290E
:1008E00000020202020202020204040404040404DC
:1008F00004030303030303030301010101010101D5
:100900000101020408102040800102040810204068
:1009100080010204081020408001020408102040D9
:1009200080000000010200090A0000000004030822
:1009300007000000000000000000000000000000B0
:10094000004552524F523A204D697373696E6720C9
:100950002B2F2D206265666F726520646570746848
:1009600021004552524F523A20496E76616C6964BB
:1009700020696E74657276616C202865766572797F
:100980002031302C2031352C2032302C2033302CAB
:10099000206F72203630206D696E73290070726F7F
:1009A0006A65637449443A2000009A410148112461
:1009B0001FBECFEFD0E4DEBFCDBF17E0A0E0B1E0B7
:1009C000EAE7FEEA00E00BBF02C007900D92A434F4
:1009D000B107D9F729E1A4E4B7E001C01D92AE3018
:1009E000B207E1F714E0C6EDD4E004C02197FE01A0
:1009F0000E949B4EC53DD107C9F70E94A4420C94AA
:100A000030570C94000010920B0C10920A0C1092AC
:100A1000580E089508950895982F2091010C81E0B3
:100A2000213208F043C08091000C8111FCCF8091ED
:100A3000F90B32E03093000C9093FF0B9FEF9093F3
:100A4000D70B1092D60B2093D50BA9EDBBE0E5EBAD
:100A5000FBE090E0291331C01092B40B9091B40BDD
:100A6000880F892B8093B40B8091FE0B813049F560
:100A70001092FE0B8091B40B8093BB008091BC0060
:100A800083FDF8CF85EC8093BC008091000C823010
:100A9000E1F38091D70B8F3FB1F08091D70B80327B
:100AA000A1F08091D70B803391F084E01092020C7A
:100AB0001092010C1092D80B08953D9131939F5FD5
:100AC000C9CF85EEE0CF80E0F1CF82E0EFCF83E0C9
:100AD000EDCF9091000C9111FCCF91E09093000C20
:100AE0009093FF0B2FEF2093D70B1092D60B260F6E
:100AF0002093D50B9093B40B9091B40B880F892B56
:100B00008093B40B8091FE0B8130F9F41092FE0BB0
:100B10008091B40B8093BB008091BC0083FDF8CF23
:100B200085EC8093BC008091000C8130E1F38091D2
:100B3000D60B861710F46091D60BA5EBBBE0E4E969
:100B4000FBE080E0861303C0089585EEEACF9D9117
:100B500091938F5FF7CF4F925F926F927F928F92B8
:100B60009F92AF92BF92CF92DF92EF92FF920F933C
:100B70001F930091430E1091440E2091450E309129
:100B8000460EC0903F0ED090400EE090410EF09087
:100B9000420E480159018C189D08AE08BF08260175
:100BA0003701401A510A620A730A601771078207F7
:100BB000930728F0640D751D861D971DF6CF6C15E3
:100BC0007D058E059F0528F4680D791D8A1D9B1DE6
:100BD000ECCF1F910F91FF90EF90DF90CF90BF90DF
:100BE000AF909F908F907F906F905F904F900895FF
:100BF000BF92CF92DF92EF92FF920F931F93CF930A
:100C0000DF93EC01B62EC880D980EA80FB8000918A
:100C1000470E1091480E980150E040E0C701B60120
:100C20000E94EC4C662391F0862F90E09801369557
:100C300027958217930700F1081B190BC00ED11ED0
:100C4000E11CF11CC882D982EA82FB826881798129
:100C50008A819B81BB20A9F00E94AB0568837983C0
:100C60008A839B83DF91CF911F910F91FF90EF902B
:100C7000DF90CF90BF900895C61AD108E108F1081F
:100C8000E1CF0091430E1091440E2091450E30911A
:100C9000460E061717072807390720F70883198318
:100CA0002A833B83DFCFECE0FCE0A089B18982E0BE
:100CB0008C93A485B5851C92A685B78580E18C931D
:100CC000108EA489B58986E08C93A289B3898C9112
:100CD00080618C93A289B3898C9188608C93A2895E
:100CE000B3898C9180688C930288F389E02D808190
:100CF0008F7D8083089580915B0E90915C0EDC0166
:100D0000ED91FC910484F585E02D0994FF920F93F9
:100D10001F93CF93DF938C01F62ECBE5DEE0888125
:100D20009981DC01ED91FC910488F589E02D642F17
:100D3000099588819981DC01ED91FC910680F7810C
:100D4000E02D4F2DB801DF91CF911F910F91FF90B2
:100D50000994E82FF0E0EE0FFF1FE35FFE4F718371
:100D60006083813049F0823071F080916900836046
:100D700080936900E89A0895809169008C6080935F
:100D80006900E99A08958091690080638093690001
:100D9000EA9A0895AF92BF92CF92DF92EF92FF92BC
:100DA0000F931F93CF93DF936C017B018B01040F93
:100DB000151FEB015E01AE18BF08C017D10759F02F
:100DC0006991D601ED91FC910190F081E02DC60171
:100DD0000995892B79F7C501DF91CF911F910F916B
:100DE000FF90EF90DF90CF90BF90AF900895FC01FF
:100DF000538D448D252F30E0842F90E0821B930B80
:100E0000541718F081509F4F089501970895FC01E1
:100E1000918D828D981759F0A28DAE0FBF2FB11D05
:100E20005D968C91928D9F5F928F90E008958FEFE9
:100E30009FEF0895FC01918D828D981731F0828D7E
:100E4000E80FF11D858D90E008958FEF9FEF0895D5
:100E5000FC01918D828D981B892F90E008958CE084
:100E60009CE00E94280721E0892B09F420E0822FD2
:100E70000895FC01A48DA80FB92FB11DA35EBE4F2C
:100E80009C91848D8F5F848FA689B7899C93A0895C
:100E9000B1898C91837080648C93938D848D981329
:100EA00006C00288F389E02D80818F7D80830895BC
:100EB0000F931F93CF93DF93EC0181E0888F9B8D7D
:100EC0008C8D981318C0E889F989808185FF13C03B
:100ED0009FB7F894EE89FF896083E889F98980815A
:100EE0008370806480839FBF81E090E0DF91CF9129
:100EF0001F910F910895062F1B8D1F5F8C8D8113FD
:100F00000CC00FB607FCFACFE889F989808185FF0C
:100F1000F5CFCE010E943907F1CFEB8DEC0FFD2FFD
:100F2000F11DE35EFE4F00839FB7F8941B8FEA89A3
:100F3000FB8980818062D6CF682F8CE09CE00C9486
:100F400058070F931F93CF93DF938C01D0E0C0E03D
:100F5000F801EC0FFD1F6491662341F08CE09CE0EA
:100F60000E945807892B11F02196F2CFCE01DF9114
:100F7000CF911F910F910895CF93DF93EC01888D4E
:100F80008823B9F0AA89BB89E889F9898C9185FD04
:100F900003C0808186FD0DC00FB607FCF7CF8C9192
:100FA00085FFF2CF808185FFEDCFCE010E9439070A
:100FB000E9CFDF91CF91089580E090E0892B29F06F
:100FC0000E942F0781110E94000080E090E0892B91
:100FD00049F080E090E0892B29F00E940000811107
:100FE0000C940000089581508A3080F5E82FF0E0DD
:100FF000E450F84F0C949B4E1008140806080C0897
:101000002608260817081D08210827088091800057
:101010008F77809380000895809180008F7DF9CF35
:1010200084B58F7784BD089584B58F7DFBCF809183
:10103000B0008F778093B00008958091B0008F7DCD
:10104000F9CF809190008F778093900008958091E0
:1010500090008F7DF9CFCF93DF93282F30E0F901F7
:10106000EF5DF64F8491F901EF5FF64FD491F901EE
:10107000EF51F74FC491CC23A1F081110E94F307E7
:10108000EC2FF0E0EE0FFF1FE952F74FA591B4915E
:10109000EC91ED2381E090E009F480E0DF91CF91C5
:1010A000089580E090E0FACF1F93CF93DF93282F2D
:1010B00030E0F901EF5DF64F8491F901EF5FF64FF3
:1010C000D491F901EF51F74FC491CC23A9F0162F19
:1010D00081110E94F307EC2FF0E0EE0FFF1FE353A6
:1010E000F74FA591B4918FB7F894EC91111108C006
:1010F000D095DE23DC938FBFDF91CF911F910895B0
:10110000DE2BF8CF1092040C1092030C1092020CFC
:101110001092010C1092000C81E08093FF0B109252
:10112000FE0B61E081E10E94540861E080E10E94D1
:101130005408E9EBF0E080818E7F808380818D7F91
:10114000808380E28093B80085E48093BC008AE0CD
:1011500095E09093FD0B8093FC0B8BE095E09093D2
:10116000FB0B8093FA0B0895CF93DF9390E0FC0183
:10117000EF5FF64F24918F51974FFC0184918823A4
:10118000D1F090E0880F991FFC01ED53F74FA59126
:10119000B491FC01E353F74FC591D49161110EC096
:1011A0009FB7F8948C91E22FE0958E238C93288141
:1011B000E223E8839FBFDF91CF9108958FB7F89422
:1011C000EC91E22BEC938FBFF6CF88518064809333
:1011D0007C0080917A00806480937A0080917A000C
:1011E00086FDFCCF809178009091790008953FB7FB
:1011F000F8948091390A90913A0AA0913B0AB091F3
:101200003C0A26B5A89B05C02F3F19F00196A11DE9
:10121000B11D3FBFBA2FA92F982F8827BC01CD0140
:10122000620F711D811D911D43E0660F771F881F9E
:10123000991F4A95D1F708958F929F92AF92BF92CE
:10124000CF92DF92EF92FF926B017C010E94F70830
:101250004B015C01C114D104E104F104B9F00E9416
:10126000F708681979098A099B09683E7340810566
:10127000910580F321E0C21AD108E108F10888EE57
:10128000880E83E0981EA11CB11CE4CFFF90EF9064
:10129000DF90CF90BF90AF909F908F9008952FB721
:1012A000F8946091350A7091360A8091370A9091CE
:1012B000380A2FBF089508958BEF0895CF93DF93D9
:1012C000FC01228133812230310569F0EC01638D0C
:1012D000818D0E94540860E0888D0E94540882E04D
:1012E00090E09B838A83DF91CF910895FF920F93C3
:1012F0001F93CF93DF93EC01162FF42E0FB7F894C2
:1013000060E08F890E9454088D899E89612F6068F2
:10131000DC01ED91FC910190F081E02D0995182FF1
:101320008D899E89DC01ED91FC910190F081E02D89
:101330006F2D099561E08F890E9454080FBF812F9E
:10134000DF91CF911F910F91FF9008950F931F93FD
:10135000CF938C01C62F44E06DE40E9476094BEFD9
:101360004C0F406869E0C801CF911F910F910C9418
:101370007609CF93DF93FC0122813381213031053F
:1013800049F0EC0140E061E00E94760981E090E0E4
:101390009B838A8381E0DF91CF910895CF93DF9380
:1013A000FC01228133812230310549F0EC0141E01A
:1013B00061E00E94760982E090E09B838A83DF915E
:1013C000CF910895CF92DF92EF92FF92CF93DF9368
:1013D000EC01CB01BA0120E034E244E759E40E9479
:1013E000184C20E034E244E752E40E94BC4D0E94D5
:1013F0002E4E6B017C01A7016627772766E0CE01A0
:101400000E94760977276F2D5E2D4D2D67E0CE0166
:101410000E9476094C2D68E0CE010E94760981E099
:10142000DF91CF91FF90EF90DF90CF900895CF9212
:10143000DF92EF92FF920F931F93CF93DF934C3F76
:1014400008F067C0142F072FF62EEC01E881F98110
:101450000484F585E02D0995CE010E94CE0940E077
:101460006DE0CE010E9476094A8560E0CE010E94BF
:1014700076094B8560E0CE010E9476094C8560E0DC
:10148000CE010E9476094D8560E0CE010E9476096A
:10149000EFB6F89460E08F890E9454088D899E8988
:1014A000DC01ED91FC910190F081E02D60E809955F
:1014B000CF2CD02E012F015068F08D899E89F60126
:1014C00061916F01DC01ED91FC910190F081E02DC3
:1014D0000995F1CF61E08F890E945408EFBE44E086
:1014E000410F62E2CE010E9476098A819B810397B7
:1014F00071F043E061E0CE010E94760940E460E4CF
:10150000CE010E94760983E090E09B838A8381E08C
:1015100001C080E0DF91CF911F910F91FF90EF907C
:10152000DF90CF900895CF93DF93FC012281338128
:1015300023303105C9F0EC0182819381049771F069
:1015400045E061E0CF010E94760940E060E4CE0111
:101550000E94760984E090E09B838A83C65EDE4F1A
:101560008881DF91CF91089580E0FBCF0F931F9387
:10157000CF93DF93EC01162F0FB7F89460E08F89BB
:101580000E9454088D899E89DC01ED91FC910190A7
:10159000F081E02D612F09958D899E89DC01ED9107
:1015A000FC910190F081E02D60E00995182F61E039
:1015B0008F890E9454080FBF812FDF91CF911F9117
:1015C0000F910895DF92EF92FF920F931F93CF93A5
:1015D000DF93EC0162E10E94B60A2A813B8124304C
:1015E0003105A1F4982F907A89F08F85988901961A
:1015F000988B8F874FEF62E1CE01DF91CF911F91E2
:101600000F91FF90EF90DF900C9476092A813B8137
:101610002430310511F486FD0DC02A813B81233031
:10162000310541F783FFE6CF8B899C8901969C8B1E
:101630008B8B67C063E1CE010E94B60A082F60E180
:10164000CE010E94B60A482F6DE0CE010E947609B5
:10165000DFB6F89460E08F890E9454088D899E89D6
:10166000DC01ED91FC910190F081E02D60E00995A5
:101670007E01BBE1EB0EF11C102F115070F08D8933
:101680009E89DC01ED91FC910190F081E02D60E0FC
:101690000995F70181937F01F0CF61E08F890E9466
:1016A0005408DFBE0A8F4FEF62E1CE010E94760937
:1016B0006AE1CE010E94B60A89588E878A8DFE01A2
:1016C000E65EFE4F8430C8F08B8D8E838C8D8F83C9
:1016D0008D8D88878E8D89878D81811107C09E8130
:1016E0008C81981719F08E818F3F39F489899A89F6
:1016F00001969A8B898B81E080838081882309F40D
:1017000079CFCE010E94CE0975CF8091320A909197
:10171000330A009711F00C94E20A08958091300A80
:101720009091310A009711F00C94E20A089580918B
:101730002E0A90912F0A009711F00C94E20A089556
:10174000CF93DF93EC018D899E89DC01ED91FC91B3
:101750000680F781E02D099561E08F890E94B40829
:1017600061E08F890E94540864E670E080E090E0B8
:101770000E941C0981E0DF91CF910895FF920F93A1
:101780001F93CF93DF931F92CDB7DEB7F42E0BE5F7
:101790001EE0D8018D919C91DC01ED91FC91008CB3
:1017A000F18DE02D0995F80180819181DC01ED91A9
:1017B000FC91028CF38DE02D40E060E8099581E218
:1017C00089834F2D61E0CE0101960E9486060E941A
:1017D0007B060F90DF91CF911F910F91FF9008959D
:1017E0002F923F924F925F926F927F928F929F9231
:1017F000AF92BF92CF92DF92EF92FF920F931F931F
:10180000CF93DF938C015B016A0119010E944F099C
:101810002B013C01F12CE12C0E944F096419750940
:10182000860997096C157D058E059F0508F078C01F
:1018300080915B0E90915C0EDC01ED91FC91028039
:10184000F381E02D0995882339F380915B0E909107
:101850005C0EDC01ED91FC910480F581E02DA50189
:10186000B8010995C82F8823B9F280915B0E909139
:101870005C0EDC01ED91FC9100A0F1A1E02D099539
:10188000D82F80915B0E90915C0EDC01ED91FC9164
:10189000068CF78DE02D0995882E80915B0E909136
:1018A0005C0EDC01ED91FC9102A0F3A1E02D099505
:1018B000982E80915B0E90915C0EDC01ED91FC9175
:1018C00004A0F5A1E02D099587FDA6CFBFEF8B16EB
:1018D00031F04D2F692D8BE59EE00E94BE0BED2F60
:1018E000F0E0E55AF14FDF011B968385891509F475
:1018F00093CFF101D0839C928C2FDF91CF911F91D8
:101900000F91FF90EF90DF90CF90BF90AF909F909E
:101910008F907F906F905F904F903F902F900895A1
:10192000C0E0EACF9FB7F89480912C0A882319F081
:10193000815080932C0A80912C0A811105C08CB5AE
:101940008F7B8CBD10922B0A9FBF08958CB58F772B
:101950008CBD08958CB580688CBD0895FC0173839F
:1019600062830895FC01778366830895FC01758383
:1019700064830895089580E00895FC0181850895A9
:10198000FC0180850895FC0187810895FC01868112
:1019900008954095FC0125854223642B65870895B1
:1019A000FC0164870895FC0163870895FC01628748
:1019B0000895FC0164830895FC01658308958F9266
:1019C0009F92AF92BF92CF92DF92EF92FF92CF930E
:1019D000DF93EC016B010E944F094B015C01F12C7C
:1019E000E12C0E944F09681979098A099B096C1535
:1019F0007D058E059F0580F48A819B81039789F37D
:101A000081E0DF91CF91FF90EF90DF90CF90BF907A
:101A1000AF909F908F90089580E0F3CFFC012281DA
:101A2000338123303105D1F381E008958F929F9265
:101A3000AF92BF92CF92DF92EF92FF92CF93DF935C
:101A4000EC016B010E944F094B015C01F12CE12C70
:101A50000E944F09681979098A099B096C157D054F
:101A60008E059F05A0F4E881F9810280F381E02DC5
:101A7000CE010995882361F3DF91CF91FF90EF901C
:101A8000DF90CF90BF90AF909F908F90089580E0AF
:101A9000F3CFCF93DF93EC01E881F9810280F381EA
:101AA000E02DCE0109958823B9F3DF91CF910895F8
:101AB00081E008951F93CF93DF93EC01162F888167
:101AC0009981DC01ED91FC910288F389E02D099563
:101AD00088819981DC01ED91FC910688F789E02DE0
:101AE000612F09951A83DF91CF911F910895CF92AD
:101AF000DF92EF92FF920F931F93CF936B017C01C4
:101B0000142F80915B0E90915C0EDC01ED91FC91A5
:101B10000190F081E02D0995C82F882309F160918B
:101B20005D0E8BE59EE00E945A0D88E790E0909351
:101B3000640E8093630E83E08093650E612F8BE5C6
:101B40009EE00E945A0D00915B0E10915C0EB70151
:101B5000A601C8010E94E20961E1C8010E94A6092C
:101B60008C2FCF911F910F91FF90EF90DF90CF902E
:101B7000089585ED8093BC008091BC0084FDFCCF6E
:101B80001092000C08952091080A260F3327331F66
:101B900021323105ECF42091000CFC0190E080E052
:101BA000243069F082E00895A091080A2191AC01E7
:101BB0004851564FA40FB52FB11D2C93019686178F
:101BC00098F38091080A680F6093080A80E00895EE
:101BD00081E008950895E091040C8091030CE817CA
:101BE00030F4F0E0EC56F44F808190E008958FEFF0
:101BF0009FEF08959091040C8091030C2FEF3FEF1D
:101C0000981748F4E92FF0E0EC56F44F208130E0CB
:101C10009F5F9093040CC90108958091030C9091EB
:101C2000040C891B990B0895CF92DF92EF92FF92DB
:101C30000F931F93CF93DF937C01CB018A012091F7
:101C4000D80B222389F0EB016B01C40ED51ECC15F5
:101C5000DD0569F06991D701ED91FC910190F0816A
:101C6000E02DC7010995F3CF642F0E94C30DC80171
:101C7000DF91CF911F910F91FF90EF90DF90CF9068
:101C80000895CF93DF931F92CDB7DEB7698320917C
:101C9000D80B2223F9F02091010C203258F021E0DA
:101CA00030E0FC013383228390E080E00F90DF91ED
:101CB000CF9108958091020CE82FF0E0E752F44FA5
:101CC000998190838F5F8093020C8093010C81E057
:101CD00090E0ECCF61E0CE0101960E94C30DF7CFFA
:101CE000CF93C62F91E09093D80B98E69093F90B81
:101CF0001092020C1092010C682F8EEF98E10E9456
:101D0000410E6C2F8EEF98E10E94410E81E0CF9141
:101D10000C940C05CF93CFB7F89480912C0A8111C5
:101D200027C0E5EEF8E08491E5E0F9E09491E82F32
:101D3000F0E0EE0FFF1FED53F74FA591B491EC913A
:101D4000E92321F461E084E00E94540861E084E02A
:101D50000E94B4088CB580618CBD8CB580648CBD4C
:101D600061E087E00E94B40861E085E00E94B40869
:101D700080912C0A8F5F80932C0ACFBFCF9108955A
:101D8000FC01268137812115310591F12130310582
:101D900059F12230310551F12330310549F52CE05C
:101DA0009CB5937F922B9CBD84819581019711F501
:101DB0008CB580628CBD82819381019784309105BE
:101DC000E0F4805C9E4FFC0190818CB58C7F292FC4
:101DD0002370822B8CBD8DB592FB992790F98E7F55
:101DE000892B8DBD0C948A0E24E0DACF28E0D8CF61
:101DF00020E0D6CF8CB58F7DDDCF95E0E6CFCF92BA
:101E0000DF92EF92FF92CF93DF9360E08DE10E942B
:101E1000B4088DE10E94E508B0E0A0E0BC01CD016E
:101E2000660F771F881F991F0E94B74B23E333E388
:101E300043E550E40E94184C20E030E048EC52E4C6
:101E40000E94184C20E030E84FEF53E40E94504DC0
:101E500020E030EC4FE754E40E94BC4D0E942E4E2F
:101E6000CB0164E670E00E94734EEB01BC0190E090
:101E700080E00E94B74B20E030E048EC52E40E9442
:101E8000BC4D6B017C01BE0190E080E00E94B74B2D
:101E90009B01AC01C701B6010E94504DDF91CF916B
:101EA000FF90EF90DF90CF900895CF92DF92EF9266
:101EB000FF92CF93DF9361E08EE00E94B40860E070
:101EC00088E10E94B40861E08EE00E94540884EE2C
:101ED00093E00197F1F788E10E94E508EC0160E0EA
:101EE0008EE00E945408BE0190E080E022E0660F80
:101EF000771F881F991F2A95D1F70E94B74B23E3BC
:101F000033E343E550E40E94184C20E030E048EC15
:101F100052E40E94184C20E030EC4FEB54E40E9455
:101F2000504D20E030ED4FE355E40E94BC4D0E943F
:101F30002E4ECB0164E670E00E94734EEB01BC01B3
:101F400090E080E00E94B74B20E030E048EC52E4A3
:101F50000E94BC4D6B017C01BE0190E080E00E94BC
:101F6000B74B9B01AC01C701B6010E94504DDF91F8
:101F7000CF91FF90EF90DF90CF9008958CE09CE0A0
:101F80000E94BC07ECE0FCE0A289B3898C918F7EB3
:101F90008C93A289B3898C91877F8C93A289B38912
:101FA0008C918F778C93A289B3898C918F7D8C9340
:101FB000828D818F60E08FE00E94540860E080E0B5
:101FC0000E94540860E081E00E9454088FE690E18E
:101FD0000E94B90980B78F7780BFEAE7F0E080817F
:101FE0008F778083F89485B7806885BF85B78068D0
:101FF00085BF789483B7817F846083BF83B7816016
:1020000083BF7894ABE6B0E08C9184608C93A8E6B3
:10201000B0E08C9181608C9383B7816083BF889599
:1020200083B78E7F83BF8081806880830E94530640
:102030000E948A0E61E080E00E94540861E081E025
:102040000C9454089FB7F89420912B0A809189072B
:10205000213019F48DBB9FBF08958FBF0895CF9392
:10206000DF93EC0161E088810E94540880912B0A83
:1020700081110E9422108B818CBD8C818DBDDF91DE
:10208000CF9108958EBD00000DB407FEFDCF8EB533
:102090000895862F0C94421020912B0A222361F080
:1020A0002FB7F89430912B0A313049F43DB3309377
:1020B00089073DB33DBB2FBF8CBD9DBD08952093C7
:1020C0008907FACFCF93DF93EC018CB58B838DB565
:1020D0008C838D819E810E944C1060E08881DF910D
:1020E000CF910C9454088F929F92AF92BF92CF924F
:1020F000DF92EF92FF920F931F93CF93DF934B01E9
:102100005C0128E833E140E050E00E94EC4C2A31C9
:10211000310510F029E130E06901F12CE12CC50115
:10212000B401A7010E94EC4C8901D0E0C0E0C017C7
:10213000D107C8F4A090290EB0902A0EC5010E94C4
:10214000621085E00E94421080E00E944210982EAA
:10215000C5010E942F1090FE14C0C701B6010E9455
:102160001C092196E4CF80E0DF91CF911F910F9160
:10217000FF90EF90DF90CF90BF90AF909F908F90A7
:10218000089581E0F1CF0F931F93CF93DF93EC017C
:10219000162F442339F040E066E00E94C310CE01C0
:1021A0000E942F10CE010E94621085E00E94421012
:1021B00080E00E944210082FCE010E942F1000FDE7
:1021C000F1CFCE010E946210812FDF91CF911F913C
:1021D0000F910C944210FF920F931F93CF93DF93B4
:1021E000162F072FF82E68EE73E080E090E00E9433
:1021F0007310882301F1C091290ED0912A0E41E07D
:1022000060E2CE010E94C3108F2D0E944210802FE9
:102210000E944210812F0E944210CE010E942F1076
:1022200068EE73E080E090E0DF91CF911F910F9115
:10223000FF900C94731080E0DF91CF911F910F916C
:10224000FF9008952F923F924F925F926F927F92EC
:102250008F929F92AF92BF92CF92DF92EF92FF92B6
:102260000F931F93CF93DF936C012A013B01190158
:102270009A01332780E091E0821B930B912C812CF3
:102280000115110581F1E8018017910708F4EC01AF
:1022900041E062E0C6010E94C310862D0E944210F8
:1022A000852D0E944210842D0E9442105101A80CDD
:1022B000B91C7501F70181917F010E944210C7018D
:1022C0008A199B098C179D07A8F3C6010E942F103D
:1022D0004C0E5D1E611C711C8C0E9D1E0C1B1D0B7B
:1022E00080E091E0CDCFDF91CF911F910F91FF90D2
:1022F000EF90DF90CF90BF90AF909F908F907F90A6
:102300006F905F904F903F902F900895BF92CF9223
:10231000DF92EF92FF920F931F93CF93DF937C0195
:10232000EA01B62E690140E06BE00E94C3108B2DDC
:102330000E9442108D2F0E9442108C2F0E9442104A
:1023400080E00E944210E6010C0D1D1DC017D10750
:1023500029F080E00E9442108993F8CFC701DF91F5
:10236000CF911F910F91FF90EF90DF90CF90BF9092
:102370000C942F100F931F93CF93DF9300D0CDB702
:10238000DEB7AB01BC014C5F5F4F6F4F7F4F02E088
:1023900010E09E012F5F3F4F8091290E90912A0EF1
:1023A0000E9486112091490E30914A0E89819A81AE
:1023B0002817390710F41A82198289819A810F909F
:1023C0000F90DF91CF911F910F910895CF92DF92DF
:1023D000EF92FF926B017C010E94BA119C01009761
:1023E00069F0E091470EF091480EBF010E94734ED4
:1023F000009721F02E0F3F1F281B390BC701B60194
:10240000620F731F811D911DFF90EF90DF90CF90A1
:102410000C94AB050F931F93CF93DF93CDB7DEB72B
:1024200060970FB6F894DEBF0FBECDBFAB01BC0105
:1024300000E110E09E012F5F3F4F8091290E9091A7
:102440002A0E0E948611FE013196CE0141962191FD
:102450002F3F79F4E817F907D1F781E060960FB6BE
:10246000F894DEBF0FBECDBFDF91CF911F910F91CA
:10247000089580E0F3CF4F925F926F927F92AF9278
:10248000BF92CF92DF92EF92FF920F931F93CF9361
:10249000DF93CDB7DEB72C970FB6F894DEBF0FBE33
:1024A000CDBF6B017C015A01FA01108211821282A8
:1024B000138204E010E09A01BC01A6018091290E6C
:1024C00090912A0E0E948611F50180819181A2814E
:1024D000B3818F3F9F4FAF4FBF4F79F019861A8658
:1024E0001B861C86C701B6010E94E6112B013C0128
:1024F000C414D504E604F70411F480E054C004E0E9
:1025000010E09E01275F3F4FBC01A2018091290E80
:1025100090912A0E0E94861149855A856B857C858B
:10252000F50180819181A281B3810196A11DB11D28
:1025300084179507A607B70709F451C04F3F5F4FAF
:102540006F4F7F4FD1F6C301B2010E940A12882358
:10255000A1F28091470E9091480EC81AD90AE1085D
:10256000F108CD82DE82EF82F886AE014F5F5F4FC9
:102570006FEFCE0105960E94F112882349F149813F
:102580005A816B817C814F5F5F4F6F4F7F4F81E03E
:10259000F501C080D180E280F3804C155D056E05A9
:1025A0007F0509F0AACF2C960FB6F894DEBF0FBEB8
:1025B000CDBFDF91CF911F910F91FF90EF90DF90F2
:1025C000CF90BF90AF907F906F905F904F900895A5
:1025D0006D817E818F8198850E940A12E4CF81E00F
:1025E000E2CFCF92DF92EF92FF920F931F93CF93A0
:1025F000DF93EC01D62E7A01688179818A819B81F3
:102600000E940A12CC24C39410E000E0882391F0C9
:102610008FEF9FEFDC01F70180839183A283B38367
:1026200080E0DF91CF911F910F91FF90EF90DF90AD
:10263000CF900895688179818A819B81A7010E944A
:102640003B128111EECFCC20D9F061E0CE010E9487
:10265000F805688179818A819B810E940A12C82EBF
:102660008111D6CF8091490E90914A0E6091470E0C
:102670007091480E0E94734E60177107D8F6C8CF4C
:1026800088819981AA81BB814091470E5091480E63
:1026900070E060E01D14ACF0841B950BA60BB70B2B
:1026A00088839983AA83BB83688179818A819B818E
:1026B0000E94AB05688379838A839B830F5F1F4FDA
:1026C000C8CF840F951FA61FB71FEACF2F923F9246
:1026D0004F925F926F927F928F929F92AF92BF9232
:1026E000CF92DF92EF92FF920F931F93CF93DF93DE
:1026F000CDB7DEB72E970FB6F894DEBF0FBECDBFB5
:102700008C016D87FC0160817181828193810E94BF
:102710000A128823C9F0F80180809180A280B380DA
:10272000FD85F13009F4F5C080913F0E9091400E87
:10273000A091410EB091420E75016401C81AD90AE8
:10274000EA0AFB0A7D84F3C02091470E3091480EBF
:102750008091430E9091440EA091450EB091460E8B
:10276000821B930BA109B109F80180839183A28395
:10277000B383AE01475F5F4F6FEFC8010E94F11254
:1027800081110BC0F80160817181828193810E9467
:102790000A128111C0CF612C22C180913F0E90910D
:1027A000400EA091410EB091420EF80180839183BA
:1027B000A283B383AE014B5F5F4F61E0C8010E940B
:1027C000F112F8016081718122819381811102C02F
:1027D000822FDDCF4D805E806F8078846B01E22E8A
:1027E000F92E8090430E9090440EA090450EB0902C
:1027F000460E8C189D08AE08BF0822E9222E33240D
:1028000033948091470E9091480EB0E0A0E0881577
:102810009905AA05BB0520F4B694A79497948794CC
:10282000FFEF3F1252C0C814D904EA04FB0408F0B9
:102830004CC08091430E9091440EA091450EB091F2
:10284000460E40913F0E5091400E6091410E7091A6
:10285000420E841B950BA60BB70B8C0D9D1DAE1D58
:10286000BF1D6C017D01C818D908EA08FB08F801F2
:10287000C082D182E282F38260E0C8010E94F80542
:10288000F80160817181828193810E940A12811115
:1028900042CFAE014F5F5F4F632DC8010E94F1121E
:1028A000882341F189819A81AB81BC81F1E03F129B
:1028B00019C0481659066A067B0640F52A9422205C
:1028C00009F469CF2C013D019CCFA32D032C000CF2
:1028D000BB0BA50194010E94384DC60ED71EE81E01
:1028E000F91EC5CF84159505A605B70538F3332421
:1028F0003394E4CFF80160817181828193810E94D9
:102900000A12811108CFD301C201D8CF33243A94DF
:10291000D5CFC090430ED090440EE090450EF0907D
:10292000460EC818D908EA08FB0877247394F2E920
:10293000FE87F80160817181828193810E940A1271
:102940008111C7C0F8012080318042805380C201CC
:10295000B1016627707F99277051810991090E9402
:10296000AB050E940A12682E8823E9F0C201B1016A
:102970000E940A12811117C0FD85F130A1F4F801FF
:1029800080819181A281B3818827907FBB2780833A
:102990009183A283B383AE014F5F5F4F61E0C801B3
:1029A0000E94F1121CC0AE014B5F5F4F672DC80142
:1029B0000E94F112F8014081518162817381882364
:1029C00009F47EC0FD85FF3F21F5CB01BA010E94CD
:1029D000E6110E940A12682E882309F47EC0862D13
:1029E0002E960FB6F894DEBF0FBECDBFDF91CF910C
:1029F0001F910F91FF90EF90DF90CF90BF90AF901D
:102A00009F908F907F906F905F904F903F902F900E
:102A100008958091470E9091480E2A013B01481A73
:102A2000590A61087108C301B2010E940A12682E96
:102A30008111B1CF77247A948091470E9091480EFE
:102A4000B0E0A0E08C159D05AE05BF0520F4F6941E
:102A5000E794D794C7948FEF781242C08C149D04EA
:102A6000AE04BF04E8F58091430E9091440EA0910E
:102A7000450EB091460E40913F0E5091400E609130
:102A8000410E7091420E841B950BA60BB70B880D5F
:102A9000991DAA1DBB1D4C015D018C189D08AE0837
:102AA000BF08F80180829182A282B38260E0C801EF
:102AB0000E94F805FE85F150FE87F1113ACF6BCEEA
:102AC000CB01BA010E940A12882309F4B5CF719490
:102AD000B3CF2D852F3F09F4ADCF77247394ACCFBE
:102AE000A72D072C000CBB0BA70196010E94384DA7
:102AF000860E971EA81EB91ED4CFCF93DF9300D0A9
:102B000000D0CDB7DEB7AE014F5F5F4F0E943B12E2
:102B1000882359F069817A818B819C810F900F9075
:102B20000F900F90DF91CF9108956FEF7FEFCB0162
:102B3000F5CF282F30E094E0359527959A95E1F769
:102B4000922F990F990F291B220F820F0895EF9250
:102B5000FF920F931F93CF93DF938C01C62FF894AE
:102B6000F090B20061E0FC0184850E9454089C2F23
:102B700080E031E0992329F083272FEF290F92235A
:102B8000F9CFF0E88F9FC0011124C82B80E8D9E06D
:102B9000982F9C2319F0D1508695FACF8091B200DE
:102BA0008F198A31D8F3F090B200EE24E394F80143
:102BB0008485ED1678F460E0C0FF61E00E9454085F
:102BC0008091B2008F198A31D8F3F090B200C69587
:102BD000E394EDCF60E00E94540878948AE090E09E
:102BE0008D1B91099AE1899F802D11249091B2004B
:102BF0009F199817D8F3DF91CF911F910F91FF90F4
:102C0000EF900895FC01158690910A0C80910B0CB1
:102C1000981789F0E0910A0CF0E0EC5BF84F8081A6
:102C200020910A0C30E02F5F3F4F2F733327209302
:102C30000A0C90E008958FEF9FEF089590910A0C91
:102C400080910B0C981741F0E0910A0CF0E0EC5BDE
:102C5000F84F808190E008958FEF9FEF0895FC0179
:102C6000858581110EC080910B0C20910A0C90E09B
:102C7000805C9F4F821B910960E470E00E94874E48
:102C800008958FEF9FEF089590E080E00895DC01B4
:102C90001C969C911C97ECE6F0E0983050F0E3E72E
:102CA000F0E0903130F0EBE6F0E0983110F4EDE632
:102CB000F0E08081977021E030E001C0220F9A950A
:102CC000EAF72095282320831C968C91ECE6F0E00F
:102CD000883050F0E3E7F0E0803130F0EBE6F0E0F0
:102CE000883110F4EDE6F0E09081911110C0F0E031
:102CF000E0E0803210F4E8E6F0E09081883040F0C7
:102D0000803140F0883140F08EEF89238083089530
:102D10008DEFFBCF87EFF9CF8BEFF7CFCF93DF931B
:102D2000EC016330710521F164307105E1F162302D
:102D3000710509F05FC060E083E00E94B40861E0C3
:102D400083E00E94B40861E083E00E94540860E0E0
:102D50008C850E94B40861E08C850E94B40860E014
:102D60008C850E945408CE01DF91CF910C944716B8
:102D700060E083E00E94B40861E083E00E94B40850
:102D800061E083E00E94540862E070E080E090E03F
:102D90000E941C0960E08C850E94B40861E08C856B
:102DA0000E94B408E0CF61E083E00E94B40860E0D4
:102DB00083E00E94540862E070E080E090E00E94AE
:102DC0001C0960E08C850E94540860E08C850E949C
:102DD000B40878948091680088608093680080913E
:102DE00073008460809373008FEF80938807DF9176
:102DF000CF91089561E083E00E94B40861E083E030
:102E00000E94540860E08C850E94540860E0C7CF9F
:102E100070E060E08BE49EE00E948E161092090C38
:102E20001092080C8091070C8093B0008091060CE2
:102E30008093B10008958091080C9091090C8B54F7
:102E40009E4061F062E070E08BE49EE00E948E168E
:102E50008BE49EE09093090C8093080C86E990E047
:102E6000A0E0B0E080934F0E9093500EA093510ECF
:102E7000B093520E81EF98ED90935A0E8093590EB5
:102E80008091B0008093070C8091B1008093060C74
:102E90001092B00086E08093B1000895CF93DF9345
:102EA00063E070E08BE49EE00E948E16CBE4DEE0EF
:102EB00061E08C850E9454088CE895E60197F1F753
:102EC00060E08C850E9454088CE496E40197F1F749
:102ED000DF91CF9108950F931F93CF93DF938C01D0
:102EE0000E944E17D0E0C0E0D80114968D919C91BD
:102EF0001597C817D90790F4ED91FC91309759F4C4
:102F00001092050CE5E0FCE060818BE49EE00E94FD
:102F1000A7152196E9CFEC0FFD1FF6CF64E070E016
:102F20008BE49EE0DF91CF911F910F910C948E1650
:102F30001F93CF93DF93EC01162F63E070E00E94A4
:102F40008E16612FCE010E94A71564E070E0CE01BD
:102F50000E948E1681E090E0DF91CF911F9108953D
:102F600081E08093D80B88E68093F90B1092020CD5
:102F70001092010C60E08EEF98E10E94410E81E01A
:102F80000E940C05811142C067E088E60E94690535
:102F90001092040C8093030C8EEF98E10E94FA0DBE
:102FA0008F770E94991580938D0B8EEF98E10E9488
:102FB000FA0D0E94991580938E0B8EEF98E10E9476
:102FC000FA0D8F7B0E94991580938F0B8EEF98E1FD
:102FD0000E94FA0D8093900B8EEF98E10E94FA0DFB
:102FE0000E9499158093910B8EEF98E10E94FA0D43
:102FF0008F770E9499158093920B8EEF98E10E9433
:10300000FA0D0E949915825E8093930B80918D0B2F
:103010008093E00980918E0B8093400A80918F0B02
:103020008093E1098091910B8093E4098091920B48
:103030008093E5098091930B90E08E54984F909384
:10304000E3098093E20962E370E080E090E00C9491
:103050001C09CF9391E09093D80B98E69093F90BCD
:103060001092020C1092010C682F8EEF98E10E94D2
:10307000410E81E00E940C0581110DC061E088E6DF
:103080000E9469051092040C8093030C8EEF98E166
:103090000E94FA0DC82F8C2FCF9108951F93CF93C4
:1030A000DF9381E08093D80B88E68093F90B109230
:1030B000020C1092010C60E08EEF98E10E94410E2C
:1030C000CDE8DBE028811AE0822F612F0E94674E55
:1030D000682F660F680F660F620F8EEF98E10E94EF
:1030E000410E2981822F612F0E94674E682F660F43
:1030F000680F660F620F8EEF98E10E94410E2A81E1
:10310000822F612F0E94674E682F660F680F660F2F
:10311000620F8EEF98E10E94410E6B818EEF98E175
:103120000E94410E2C81822F612F0E94674E682FD2
:10313000660F680F660F620F8EEF98E10E94410ED6
:103140002D81822F612F0E94674E682F660F680FB6
:10315000660F620F8EEF98E10E94410E2E812E5174
:10316000822F612F0E94674E682F660F680F660FCF
:10317000620F8EEF98E10E94410E81E00E940C05E3
:10318000C82F8FE00E942918682F6F778FE00E9468
:10319000700E8C2FDF91CF911F910895CF93DF9305
:1031A000C82FD62F8EE00E9429184C2F4150550B66
:1031B00061E070E001C0660F4A95EAF7DD2331F067
:1031C000682B8EE0DF91CF910C94700E6095682390
:1031D000F8CFCF93DF93C82F8FE00E942918C150FA
:1031E000DD0B21E030E001C0220FCA95EAF7982FED
:1031F000922351F02095622F68238FE00E94700E79
:1032000081E0DF91CF91089580E0FBCF0F931F9372
:10321000CF93DF93EC010E944E178E01FE010190C7
:103220000020E9F73197EC1BFD0BC8018C1B9D0BAF
:103230008E179F0740F4F80161918F018BE49EE0A7
:103240000E94A715EBCF64E070E08BE49EE0DF9175
:10325000CF911F910F910C948E16FC0101900020CC
:10326000E9F73197AF01481B590BBC018CE09CE09A
:103270000C94CA0680ED91E00C942D19CF93DF9346
:10328000FC0144815581608171818CE09CE00E9449
:10329000CA06EC010E943A198C0F9D1FDF91CF9155
:1032A0000895CF93DF930E94A107EC010E943A1981
:1032B0008C0F9D1FDF91CF910895CF93DF930E94D4
:1032C0009C07EC010E943A198C0F9D1FDF91CF9152
:1032D00008958F929F92AF92BF920F931F93CF93B7
:1032E000DF93CDB7DEB7A1970FB6F894DEBF0FBE60
:1032F000CDBF19A2423008F44AE08E010F5D1F4F86
:10330000842E912CB12CA12CA50194010E94EC4C8F
:10331000E62FB901CA01EA30F4F4E05DD801EE937A
:103320008D01232B242B252B79F790E080E010973B
:1033300019F0CD010E942D19A1960FB6F894DEBFA9
:103340000FBECDBFDF91CF911F910F91BF90AF9076
:103350009F908F900895E95CE1CF682F70E090E036
:1033600080E04AE00C946919CF93DF930E94AD1975
:10337000EC010E943A198C0F9D1FDF91CF910895A7
:10338000CF92DF92EF92FF92CF93DF9397FF19C016
:103390006B017C018DE20E949C07EC016627772778
:1033A000CB016C197D098E099F094AE00E946919B9
:1033B0008C0F9D1FDF91CF91FF90EF90DF90CF900A
:1033C00008954AE0DF91CF91FF90EF90DF90CF908A
:1033D0000C946919CF92DF92EF92FF920F931F9393
:1033E000CF93DF930E944F096B017C0120E1C20E55
:1033F00027E2D21EE11CF11C1092E7091092E609A7
:103400000E944F096C157D058E059F05A0F58CE087
:103410009CE00E9428071816190694F764E670E0ED
:1034200080E090E00E941C098CE09CE00E9428074C
:10343000F82E11E00AE0C091E609D091E709F116F3
:1034400090F08CE09CE00E9407070C9F90010D9F7C
:10345000300D1124C097280F391F3093E7092093AE
:10346000E6091F5FE8CFBE01DD0F880B990B0E94B4
:10347000C0190E943A196AE070E080E090E0DF91A4
:10348000CF911F910F91FF90EF90DF90CF900C9410
:103490001C09CF93DF934AE00E946919EC010E9456
:1034A0003A198C0F9D1FDF91CF910895CF93DF9331
:1034B000D0E0C0E0009719F00E942D19EC010E94A5
:1034C0003A198C0F9D1FDF91CF9108958F929F9293
:1034D000AF92BF92CF92DF92EF92FF921F93CF9362
:1034E000DF93CDB7DEB764970FB6F894DEBF0FBE9B
:1034F000CDBF6B017C0149015A0168E873E180E0AE
:1035000090E00E947310182F882309F410C2C09213
:103510003F0ED092400EE092410EF092420E809209
:10352000430E9092440EA092450EB092460E80E259
:1035300090E09093480E8093470E80E090E1909346
:103540004A0E8093490EF8948FEF9FEFDC01809331
:103550002B0E90932C0EA0932D0EB0932E0E8093D5
:103560002F0E9093300EA093310EB093320E8093B5
:10357000330E9093340EA093350EB093360E809395
:10358000370E9093380EA093390EB0933A0E609197
:103590003F0E7091400E8091410E9091420E0E941C
:1035A0000A12882309F4C0C080903F0E9090400E0C
:1035B000A090410EB090420E6091430E7091440E67
:1035C0008091450E9091460E681979098A099B09E8
:1035D0009695879577956795680D791D8A1D9B1D32
:1035E0000E940A12882309F49FC080913F0E909197
:1035F000400EA091410EB091420E898B9A8BAB8BFD
:10360000BC8B8D879E87AF87B88B69897A898B89B8
:103610009C8960932F0E7093300E8093310E90939F
:10362000320ECD84DE84EF84F888C0922B0ED092C7
:103630002C0EE0922D0EF0922E0E0E94E611609359
:10364000330E7093340E8093350E9093360E6B01CB
:103650007C01CC2420EFD222FF246C157D058E0541
:103660009F0509F0A6C16093370E7093380E8093C2
:10367000390E90933A0E6091370E7091380E80910A
:10368000390E90913A0E0E94AB056093370E7093FD
:10369000380E8093390E90933A0E80912F0E9091B0
:1036A000300EA091310EB091320E0097A048B105B6
:1036B00008F486C110923B0E10923C0E10923D0E03
:1036C00010923E0E789483ED91E00E94561A0E946B
:1036D0003A1960912B0E70912C0E80912D0E9091C5
:1036E0002E0E0E947D1560912F0E7091300E8091EC
:1036F000310E9091320E0E947D158CE09CE00E946C
:10370000BC07812F64960FB6F894DEBF0FBECDBF05
:10371000DF91CF911F91FF90EF90DF90CF90BF90FE
:10372000AF909F908F90089580913F0E9091400EA2
:10373000A091410EB091420E898B9A8BAB8BBC8BC2
:10374000AE014B5F5F4F6FEFCE0141960E94F112C9
:1037500081111DC080913F0E9091400EA091410EAD
:10376000B091420E898B9A8BAB8BBC8BAE014B5FB9
:103770005F4F61E0CE0141960E94F112811107C0B6
:103780008FEF9FEFDC018D839E83AF83B8872091FD
:10379000470E3091480E8091430E9091440EA091B7
:1037A000450EB091460E821B930BA109B109898B7E
:1037B0009A8BAB8BBC8BAE01475F5F4F6FEFCE0137
:1037C00041960E94F112811107C08FEF9FEFDC013B
:1037D00089879A87AB87BC8789849A84AB84BC84A9
:1037E00080913F0E9091400EA091410EB091420EFB
:1037F0004D815E816F8178854F3F5F4F6F4F7F4F67
:1038000009F18B208A208920809409F096C08D8749
:103810009E87AF87B88BAE014F5F5F4F61E0CE01EF
:103820000D960E94F1128823E1F12091470E30910C
:10383000480E8091430E9091440EA091450EB09198
:10384000460E9AC02091470E3091480E4091430E8B
:103850005091440E6091450E7091460E421B530BE1
:10386000610971098B208A208920809409F48DC018
:10387000498B5A8B6B8B7C8B8D879E87AF87B88BE0
:10388000AE014F5F5F4F6FEFCE0141960E94F11284
:10389000882339F061E0CE010D960E9466138111F4
:1038A000B4CE89899A89AB89BC89C816D906EA063B
:1038B000FB06E1F58D859E85AF85B889C816D906CA
:1038C000EA06FB0699F580E090E0A0E8B0E080937E
:1038D0002F0E9093300EA093310EB093320E809342
:1038E0002B0E90932C0EA0932D0EB0932E0EC09203
:1038F000330ED092340EE092350EF092360E80E107
:10390000D80EE11CF11CC092370ED092380EE09216
:10391000390EF0923A0E8FEF9FEFDC0180933B0E51
:1039200090933C0EA0933D0EB0933E0E78948AEE99
:1039300091E00E94561A10E0E4CE19861A861B8682
:103940001C864FEF5FEFBA014D835E836F837887EC
:103950008D879E87AF87B88B61E0CE010D960E9460
:103960006613882309F49DCF2091470E3091480EAD
:103970008D859E85AF85B889821B930BA109B109FE
:10398000898B9A8BAB8BBC8B10C08D879E87AF8742
:10399000B88B498B5A8B6B8B7C8B61E0CE010D967B
:1039A0000E946613882309F47CCF6FEFCE01419605
:1039B00074CF705F8F4F9F4F6627707F992753CECC
:1039C0004BE35EE061E08FE29EE00E94F1127ACE6E
:1039D0000C942D190E94B01765E38BE00E94700EC5
:1039E00068E18CE00E94700E60E88DE00E94700E2D
:1039F00088E092E00E94E81C82E10E94AD1986EC0A
:103A000095E00E94E81C83E20E94B41962E370E032
:103A100080E090E00C941C09CF93DF93482F5091E5
:103A2000400A852F90E0E091110BE4133BC0CE2FAC
:103A3000D0E08C0F9D1F6CE370E00E94874EBE01AA
:103A40000E94874EE69FE02D1124E093CA09209141
:103A5000CA09822F6AE00E94674EC82FCC0FC80F98
:103A6000CC0FC20F60E087E00E94700E6C2F88E0E0
:103A70000E94700E60E889E00E94700E60E88AE0A3
:103A80000E94700E8AE192E00E94E81C8091CA09AF
:103A90000E94B41962E370E080E090E0DF91CF9182
:103AA0000C941C09840F911D8C3391053CF06CE340
:103AB00070E00E94874E8093CA09C9CF450F40939A
:103AC000CA09C5CFCF93DF93EC0188819981009714
:103AD00011F00E94474F198218821D821C821B829E
:103AE0001A82DF91CF910895FC01808191810C941D
:103AF000474F2F923F924F925F927F928F929F9269
:103B0000AF92BF92CF92DF92EF92FF920F931F93EB
:103B1000CF93DF9300D000D000D0CDB7DEB74B01FC
:103B20005C01AE014F5F5F4F0E943B12782E811106
:103B30001DC08AE292E00E94561A872D26960FB683
:103B4000F894DEBF0FBECDBFDF91CF911F910F91D3
:103B5000FF90EF90DF90CF90BF90AF909F908F90AD
:103B60007F905F904F903F902F90089506E010E077
:103B70009E012F5F3F4FB501A4018091290E9091C6
:103B80002A0E0E9486114D805E80620186E0C81A6E
:103B9000D108C20105970E94AB4E7C010091430EF3
:103BA0001091440E2091450E3091460EB501A401AE
:103BB0004A5F5F4F6F4F7F4FD501C401840D951D44
:103BC000A11DB11D1C012D018091290E90912A0E7D
:103BD000021513052405350560F506501109580135
:103BE000A818B908850197010E94861186010A1953
:103BF0001B0997012A0D3B1D40913F0E5091400E2D
:103C00006091410E7091420E8091290E90912A0E82
:103C10000E948611F701EC0DFD1D1082C7010E9464
:103C2000561A8CE09CE00E94BC07C7010E94474FD7
:103C300084CF86019701ECCFEF92FF920F931F93F1
:103C4000CF93DF937C018C01CAE0D0E0CE010E94CB
:103C5000D64CF80181938F012196CE30D105B1F772
:103C6000C701DF91CF911F910F91FF90EF900895C1
:103C70000F931F93CF93DF930DE11BE0C8E0DBE0D0
:103C8000CE010E94D64CF80181938F012196C8374E
:103C9000FBE0DF07A9F78DE19BE0DF91CF911F915A
:103CA0000F9108950F931F93CF93DF938C01EB0136
:103CB0000E94D64C8883C80101960E94D64C898305
:103CC000CE01DF91CF911F910F910895CF93DF9394
:103CD000EB010E94D64C8883CE01DF91CF910895ED
:103CE0000C94D64C2F923F924F925F926F927F929C
:103CF0008F929F92AF92BF92CF92DF92EF92FF92FC
:103D00000F931F93CF93DF93CDB7DEB72A970FB6EC
:103D1000F894DEBF0FBECDBFFC016983048115811D
:103D2000C80187509F4F6AEF70E00E94734E662370
:103D300009F42AC129812A874F016150698790E0DF
:103D400080E0212C312C210133940115110509F457
:103D50001BC10B3F110550F15C013AEFA30EB11CE2
:103D60000A5F110966246394712C681A790A6A0C37
:103D70007B1C49854093660FA7E6BFE08A159B052B
:103D8000D8F4F401248135818217930738F4208117
:103D90003181F901E80FF91F232B21F41092050C52
:103DA000E5E0FCE020812D930196E8CF5801A80EB4
:103DB000B91E10E000E0D6CFF090620EF394F092BE
:103DC000620EC12CEE24E394EC0C8091650E8C15F0
:103DD00008F4F4C080915B0E90915C0EDC01ED91D3
:103DE000FC91008CF18DE02D6F2D099580915B0E7B
:103DF00090915C0EDC01ED91FC91028CF38DE02D35
:103E000040E860E009954A85662D86E69FE00E94BD
:103E100086060E947B06BA85BF3F09F4D1C0E1E067
:103E2000EE1598F480915E0E90915F0EA091600E59
:103E3000B091610E0196A11DB11D80935E0E90930D
:103E40005F0EA093600EB093610E0E944F096983CC
:103E50007A838B839C83C090630ED090640E0E9403
:103E60008B48A20191010E940E4D9B01AC01D6012D
:103E70000E942D4DA20191010E940E4D2C0D3D1D61
:103E8000CE2CC901B0E0A0E08D839E83AF83B887BC
:103E90000E944F0929813A814B815C81621B730B1F
:103EA000840B950B2D813E814F81588562177307D6
:103EB0008407950708F086CF80915B0E90915C0E89
:103EC000DC01ED91FC910280F381E02D09958823BE
:103ED000F9F280915B0E90915C0EDC01ED91FC910A
:103EE0000480F581E02D50E040E070E060E009954D
:103EF000882371F280915B0E90915C0EDC01ED9154
:103F0000FC9100A0F1A1E02D0995D82E80915B0EC7
:103F100090915C0EDC01ED91FC91068CF78DE02D0B
:103F20000995782E80915B0E90915C0EDC01ED91ED
:103F3000FC9102A0F3A1E02D0995E82E80915B0E83
:103F400090915C0EDC01ED91FC9104A0F5A1E02DB7
:103F50000995BA85BD1108C090915D0E971104C0F6
:103F600087FF02C0FE1461F187FD92CFED2DF0E0D6
:103F7000E55AF14F83858E118BCF4D2D6E2D8BE53C
:103F80009EE00E94BE0B84CF81E02A960FB6F89483
:103F9000DEBF0FBECDBFDF91CF911F910F91FF907C
:103FA000EF90DF90CF90BF90AF909F908F907F90D9
:103FB0006F905F904F903F902F90089580E0E5CFF5
:103FC000E985E150E987C501C0CE8F929F92AF92FB
:103FD000BF92CF92DF92EF92FF920F931F93CF93F6
:103FE000DF9300D000D000D0CDB7DEB70E94381EDE
:103FF00064E170E080E090E00E941C0910E097E02E
:10400000892E9090DF09191508F03FC08EEAE82E3E
:1040100081E1F82E189D6001112400E0C601835E45
:10402000944F5C01901679F1F5019081F701808140
:1040300098131FC0FE01319681E090E0BF019C0102
:1040400021503109DC01AC0DBD1DA35EB44F4C9174
:1040500050ED540F5A3020F04B3211F04D3271F4C4
:10406000419301968730910551F7C7018F960E94C1
:10407000DA500F5FF5E7EF0EF11CD4CF260F371F94
:10408000F9011082F2CF1F5FBCCF26960FB6F894CD
:10409000DEBF0FBECDBFDF91CF911F910F91FF907B
:1040A000EF90DF90CF90BF90AF909F908F9008954A
:1040B0000E94B1500F931F93CF93DF93EC0188813F
:1040C0009981009759F02A813B812617370730F0F4
:1040D00081E0DF91CF911F910F9108958B016F5F68
:1040E0007F4F0E94D04F009759F0998388831B839C
:1040F0000A832C813D81232B59F7FC011082E8CFE4
:1041000080E0E7CFEF92FF920F931F93CF93DF935F
:104110006115710541F480E0DF91CF911F910F91FE
:10412000FF90EF90089541155105B1F07B01EC012E
:104130000C811D81040F151FB8010E945A2088238D
:1041400051F3288139818C819D81B701820F931FA2
:104150000E94DA501D830C8381E0DECF0F931F9302
:10416000CF93DF9300D000D0CDB7DEB74AE08E0109
:104170000F5F1F4FB80190E00E94F548F8010190D1
:104180000020E9F73197AF01401B510BB8018AE8D5
:1041900091E10E9482200F900F900F900F90DF917D
:1041A000CF911F910F9108950F931F93CF93DF939A
:1041B000CDB7DEB764970FB6F894DEBF0FBECDBFA4
:1041C0008E010F5F1F4F22E044E00E942148FC0156
:1041D00001900020E9F73197AF01481B590BBC0152
:1041E0008AE891E10E94822064960FB6F894DEBFBF
:1041F0000FBECDBFDF91CF911F910F910895CF9347
:10420000DF9300D0CDB7DEB769831A8241E050E07A
:10421000BE016F5F7F4F0E9482200F900F90DF9151
:10422000CF910895FB0101900020E9F73197AF018C
:10423000461B570B0C948220EF92FF920F931F9313
:10424000CF93DF93EC017B018A01BA010E945A20CF
:1042500081110BC0CE010E94621DCE01DF91CF9172
:104260001F910F91FF90EF9008951D830C83B7016C
:10427000888199810E94DA50F0CFFC01118210826E
:10428000138212821582148250E040E062ED71E0E8
:104290000C941C21CF93DF9300D000D000D0CDB779
:1042A000DEB70E941B1764E670E080E090E00E9499
:1042B0001C09CE0101960E943D216091DE09CE01CC
:1042C00001960E94FF2062E472E0CE0101960E94F6
:1042D0001221CE0101960E946B176CE271E080E022
:1042E00090E00E941C098BE49EE00E942F16892B0F
:1042F00029F08BE49EE00E940216F5CF64E170E0A5
:1043000080E090E00E941C090E94081764E170E0C0
:1043100080E090E00E941C09CE0101960E94741D6D
:1043200026960FB6F894DEBF0FBECDBFDF91CF91BA
:104330000895CF93DF9300D000D000D0CDB7DEB783
:104340000E941B1764E670E080E090E00E941C0968
:10435000CE0101960E943D216091DE09CE010196B9
:104360000E94FF2066E472E0CE0101960E941221B5
:10437000CE0101960E946B176CE271E080E090E044
:104380000E941C098BE49EE00E942F16892B29F0C5
:104390008BE49EE00E940216F5CF64E170E080E0BD
:1043A00090E00E941C090E94081764E170E080E020
:1043B00090E00E941C09CE0101960E94741D269671
:1043C0000FB6F894DEBF0FBECDBFDF91CF91089539
:1043D000FB0101900020E9F73197AF01461B570B15
:1043E0000C941C210F931F93CF93DF9300D000D028
:1043F00000D0CDB7DEB7182FCE0101960E943D2127
:1044000062ED71E0CE0101960E94E821612FCE019C
:1044100001960E94FF2062E374E0CE0101960E94A3
:10442000122103E010E0CE0101960E946B1764E6B2
:1044300070E080E090E00E941C098BE49EE00E9406
:104440002F16181619064CF064E670E080E090E034
:104450000E941C090150110931F78BE49EE00E9473
:104460002F1602979CF00E94030511E0CE010196E1
:104470000E94741D812F26960FB6F894DEBF0FBEE2
:10448000CDBFDF91CF911F910F9108950E94030539
:1044900010E0ECCFCF93DF93EC01FB018617970779
:1044A00049F0608171816115710541F04481558148
:1044B0000E941C21CE01DF91CF9108950E94621DC0
:1044C000F9CFCF93DF9300D000D000D0CDB7DEB7C7
:1044D0001A8219821C821B821E821D826AE871E187
:1044E000CE0101960E944A2240919411509195115B
:1044F0006091901170919111CE0101960E948220DD
:10450000811104C0CE0101960E94621DBE016F5F41
:104510007F4F80E991E10E944A22CE0101960E94DC
:10452000741D64E670E080E090E00E941C0926960D
:104530000FB6F894DEBF0FBECDBFDF91CF910895C7
:10454000CF92DF92EF92FF920F931F93CF93DF935F
:10455000EC017B018A01E881F9810280F381E02D81
:104560000995D82E882329F1E114F104D1F0011521
:104570001105B9F0CFB6F8948A8D8350990BF801E4
:104580002081281719061CF08A8D84508083F80139
:10459000408150E0BE01615E7F4FC7010E94B6506E
:1045A000CFBE8FB7F894FE01E65EFE4F10821A8EE2
:1045B0008FBF8D2DDF91CF911F910F91FF90EF90C5
:1045C000DF90CF900895EF92FF920F931F93CF93B8
:1045D000DF9300D01F92CDB7DEB78C010E94A00BF5
:1045E000E82E81110CC0E12C8E2D0F900F900F90B2
:1045F000DF91CF911F910F91FF90EF900895F801F7
:10460000808D8A3009F47EC08B3009F47DC022E0B1
:10461000F22E823041F740E861E0C8010E9476093D
:104620006AE070E080E090E00E941C0961E0C8014F
:104630000E94B60A8038B9F660E0F801808D0E94C9
:10464000B408F801818D8F3F49F480912D0A8430A0
:1046500050F691E0980F90932D0A818FF801818D8B
:10466000E82FF0E0EE0FFF1FE25DF54F11830083AE
:1046700067E97BE0882349F06EE87BE0813029F030
:10468000823009F0B0CF65E87BE08F2D0E94A9064B
:1046900040E06EE0C8010E94760940E06FE0C8018A
:1046A0000E947609C8010E94CE0943E050E067EB02
:1046B00078E0CE0101960E94EC4849816DE1C80185
:1046C0000E9476094A816EE1C8010E9476094B81F9
:1046D00066E2C8010E94760940E060E2C8010E94DB
:1046E000760948E061E2C8010E94760940E050EC9A
:1046F00064E674E4C8010E94E2096DE0C8010E940A
:10470000A60972CFF12C87CFFF24F39484CFCF92E8
:10471000DF92EF92FF921F93CF93DF93E7E4FAE0EB
:1047200088ECDF011D928A95E9F762E370E080E092
:1047300090E00E941C090E944F096B017C01B0E1CE
:10474000CB0EB7E2DB1EE11CF11C0E944F096C1579
:104750007D058E059F0540F58CE09CE00E942807B2
:104760001816190694F764E670E080E090E00E9465
:104770001C098CE09CE00E942807EC01F82E10E058
:104780008CE09CE00E9407078D3039F08A3029F0D8
:10479000E12FF0E0E95BF54F80831F5FF11680F7B2
:1047A000DD27C95BD54F188287E49AE0DF91CF916E
:1047B0001F91FF90EF90DF90CF900C94561A0E94BB
:1047C000381E64E670E080E090E00E941C09EDE194
:1047D000FBE080E7DF011D928A95E9F708952F92AB
:1047E0003F924F925F926F927F928F929F92AF9281
:1047F000BF92CF92DF92EF92FF920F931F93CF93CE
:10480000DF93CDB7DEB764970FB6F894DEBF0FBE67
:10481000CDBFCDB6DEB6DE86CD860E946122E090A9
:104820009411F0909511FC8AEB8A2DB73EB72E19A2
:104830003F090FB6F8943EBF0FBE2DBF8DB79EB790
:1048400001965C016091901170919111A7010E94F5
:10485000B6508091490E90914A0E06978E159F058D
:10486000C0F58AE492E00E94561A80E591E00E9429
:104870004C1060E087E10E94540889EB0E944210CE
:1048800061E087E10E94540880912B0A81110E9407
:104890002210ED84FE840FB6F894FEBE0FBEEDBE6E
:1048A00064960FB6F894DEBF0FBECDBFDF91CF91F7
:1048B0001F910F91FF90EF90DF90CF90BF90AF903E
:1048C0009F908F907F906F905F904F903F902F9030
:1048D00008952DB63EB640903B0E50903C0E609031
:1048E0003D0E70903E0E9FEF491A590A690A790AE7
:1048F000EB88FC88A6E0EA0EF11C0091470E1091AF
:10490000480EC701B8010E94734E009709F461C1B7
:104910000E0D1F1D081B190BEDB7FEB7E01BF10BA9
:104920000FB6F894FEBF0FBEEDBF2DB73EB72F5F99
:104930003F4F4901ADB7BEB711964D925D926D9252
:104940007C921497F901F582E4828DB79EB70796A1
:104950004B895C89B5010E94B650A8014E195F09C8
:1049600070E060E0C4018E0D9F1D0E94BF502801C1
:10497000712C612C4091330E5091340E6091350EA4
:104980007091360EC090430ED090440EE090450ECC
:10499000F090460ECF86D88AE98AFA8AD301C801F8
:1049A000840F951FA61FB71FE091290EF0912A0EC4
:1049B000C816D906EA06FB0608F00DC15601A41A6E
:1049C000B50A7801EA18FB0885019401CF010E941D
:1049D000221164EF71E080E090E00E947310940176
:1049E0002A0D3B1D40913F0E5091400E6091410EAB
:1049F0007091420E87018091290E90912A0E0E949B
:104A000022118090330E9090340EA090350EB0900D
:104A1000360E80913B0E90913C0EA0913D0EB091D0
:104A20003E0E0196A11DB11D80933B0E90933C0E4E
:104A3000A0933D0EB0933E0EC301B201680D791DE7
:104A40008A1D9B1D0E94AB056093330E7093340E3C
:104A50008093350E9093360E705F8F4F9F4F662771
:104A6000707F99270E94AB052B013C010E940A121E
:104A7000811128C0C301B2010E94EB10C301B20131
:104A8000705F8F4F9F4F6627707F99270E94AB05FD
:104A90006D837E838F839887AE014F5F5F4F61E0A8
:104AA000CE0105960E94F112882361F08D819E81CE
:104AB000AF81B88580932B0E90932C0EA0932D0E72
:104AC000B0932E0E4092370E5092380E6092390EEF
:104AD00070923A0E80922F0E9092300EA092310E6C
:104AE000B092320E80912B0E90912C0EA0912D0E33
:104AF000B0912E0E0097A048B10540F080922B0E89
:104B000090922C0EA0922D0EB0922E0E0FB6F8940D
:104B10003EBE0FBE2DBE60912F0E7091300E809163
:104B2000310E9091320E0E94BA117C0160912F0ECD
:104B30007091300E8091310E9091320E0E94BA1118
:104B40008C01009769F02091470E3091480EB90111
:104B50000E94734E009721F0020F131F081B190BC0
:104B60008FE592E00E94E81C60913B0E70913C0E34
:104B700080913D0E90913E0E0E94491A8FE692E080
:104B80000E94E81C80E991E10E943E1986E792E0CC
:104B90000E94E81CCB88DC88B60190E080E04AE007
:104BA0000E94691982E892E00E94E81CB70190E037
:104BB00080E04AE00E9469198FE892E00E94E81CB8
:104BC000B80190E080E04AE00E9469190E943A1919
:104BD0004CCE8701A1CE9401CF0111CF8F929F922D
:104BE000AF92BF92CF92DF92EF92FF920F931F93FB
:104BF000CF93DF93CDB7DEB72E970FB6F894DEBF15
:104C00000FBECDBF0E94550F6093430A7093440AB4
:104C10008093450A9093460A82E10E942918182F32
:104C200081E10E942918612F782F77FF02C0615C13
:104C30007F4F86E0759567958A95E1F7072E000C02
:104C4000880B990B0E94B94B20E030E040E85EE30E
:104C50000E94184C6093DA097093DB098093DC0999
:104C60009093DD0961E08CE10E94B4088E010F5F32
:104C70001F4FB80180E390E00E94521E89819A8103
:104C8000019679F4BE01625F7F4F80E190E00E945F
:104C9000661E8E85853409F433C188EE93E09A83CD
:104CA000898361E08CE10E94540884EE93E00197CF
:104CB000F1F70E94FF0E4B015C0160E08CE10E9465
:104CC000540820E030E048EC52E4C501B4010E94F1
:104CD000184C0E942E4ECB0164E670E00E94734E89
:104CE0007C01C501B4010E942E4E44E6469F90010E
:104CF000479F300D11242E0D3F1DA8EEB3E00E94FA
:104D0000404D29813A8150E040E00E94EC4C69011D
:104D10000E94FF0E4B015C0162ED71E08AE891E1B7
:104D20000E94E82164E170E080E090E00E941C09AC
:104D300060E071E08AE891E10E9412216EE78AE862
:104D400091E10E94FF2067E17BE08AE891E10E9407
:104D500012216EE78AE891E10E94FF206091130B17
:104D60007091140B8091150B9091160B2AE0A801FD
:104D70000E940F49F80101900020E9F73197AF0137
:104D8000401B510BB8018AE891E10E9482206EE736
:104D90008AE891E10E94FF206091430A7091440AE1
:104DA0008091450A9091460A0E94D4206EE78AE8D5
:104DB00091E10E94FF206091DA097091DB098091F6
:104DC000DC099091DD090E94D4206EE78AE891E128
:104DD0000E94FF204AE0B801C6010E943149F80153
:104DE00001900020E9F73197AF01401B510BB8014A
:104DF0008AE891E10E9482206EE78AE891E10E94B0
:104E0000FF20C501B4010E94D4206EE78AE891E139
:104E10000E94FF204AE0B8018091E2099091E309E5
:104E20000E94F548F80101900020E9F73197AF01A1
:104E3000401B510BB8018AE891E10E9482206DE28B
:104E40008AE891E10E94FF208091E5090E94AE204E
:104E50006DE28AE891E10E94FF208091E4090E94BE
:104E6000AE206FE58AE891E10E94FF208091E10980
:104E70000E94AE206AE38AE891E10E94FF2010912F
:104E8000400A1A3028F460E38AE891E10E94FF208A
:104E9000812F0E94AE206AE38AE891E10E94FF2000
:104EA0001091E0091A3028F460E38AE891E10E9449
:104EB000FF20812F0E94AE2061EA72E08AE891E132
:104EC0000E9412216EE78AE891E10E94FF2062E3CE
:104ED00070E080E090E00E941C092E960FB6F894D6
:104EE000DEBF0FBECDBFDF91CF911F910F91FF901D
:104EF000EF90DF90CF90BF90AF909F908F900895EC
:104F000084E690E0CCCE2F923F924F925F926F92C8
:104F10007F928F929F92AF92BF92CF92DF92EF9249
:104F2000FF920F931F93CF93DF93CDB7DEB7C85E89
:104F3000D1090FB6F894DEBF0FBECDBF2DB73EB777
:104F4000CD51DF4F39832883C35ED04062ED71E0DD
:104F500080E991E10E94E8210E941B1764EF71E053
:104F600080E090E00E941C09CB52DF4F1882C55DA3
:104F7000D040AE014F5F5F4F3A012E015EEB450E10
:104F8000511C6091DC027091DD028091DE029091F3
:104F9000DF02CB51DF4F688379838A839B83C55EB1
:104FA000D0408091DF09CB52DF4F7881C55DD04082
:104FB000781708F093C405E7079FC0011124FC018E
:104FC000E255FE4EA081C852DF4FA883C85DD04095
:104FD0007093D9098C0166EA72E08D529E4E0E9450
:104FE000D150892B09F0AFC08EE08093D80981E0C1
:104FF0008093D70964E670E080E090E00E941C098D
:10500000D090D709DD2009F4E5C2C852DF4FF881FE
:10501000C85DD040C853DF4FF883C85CD040C75349
:10502000DF4F1882C95CD0400091D909802E912CA5
:1050300025E7029F8001112466EA72E0C8018D52C3
:105040009E4E0E94D1506BEA72E0892B11F46FEAF8
:1050500072E0CE018F529F4F0E94DA50BE016F5214
:105060007F4FCE0188539F4F0E94C650CE01885378
:105070009F4F0E94061964EF71E080E090E00E946B
:105080001C098BE49EE00E942F16843008F4A3C311
:105090004DB75EB7C152DF4F59834883CF5DD040D3
:1050A000C354DF4F1882CD5BD040BE0162587F4FA2
:1050B0007B0110E000E0C12CB02E8BE49EE00E944A
:1050C0000216D7018D937D018D3009F0B4C0EEE753
:1050D000F0E0EC0FFD1FE00FF11F10820E940305AE
:1050E000CB0C8C2D90E07C01B1E0EB1AF108EDB710
:1050F000FEB7E81BF90B0FB6F894FEBF0FBEEDBF6D
:105100000DB71EB70F5F1F4FB12CAA24A3949EE7C3
:10511000992EBC1408F0A8C0EEE7F0E0EC0FFD1FDC
:10512000EA0DF11D8081F801EB0DF11D8B3209F0C4
:1051300092C09082A39465E070E080E090E00E94CD
:105140001C09B394E6CFC80188529E4E0E940619EE
:1051500064E670E080E090E00E941C098BE49EE031
:105160000E942F16181619060CF05CC0ADB6BEB61C
:1051700081E08093D7098BE49EE00E942F16982E41
:105180008C011127EDB7FEB7E01BF10B0FB6F894B9
:10519000FEBF0FBEEDBF2DB73EB72F5F3F4F69017A
:1051A000822E79018E2D8819891540F48BE49EE0BA
:1051B0000E940216D7018D937D01F4CF0C0D1D1DA9
:1051C000F80134972081022E000C330B2053310953
:1051D000E8EEF3E02E9FC0012F9F900D3E9F900DB3
:1051E00011249093D6098093D50903501109D80151
:1051F0008C9180538093D8090FB6F894BEBE0FBE31
:10520000ADBE6091D5097091D609072E000C880BB0
:10521000990B0E941C090E94030562E370E080E084
:1052200090E0ECCEE8EEF3E0F093D609E093D509F8
:105230001092D709E6CF8D3209F4C3946AE070E08A
:1052400080E090E00E941C090F5F1F4F00341105A1
:1052500009F032CF43CF8D3229F4B3949082F80114
:10526000EB0DF11D808366CFF801EE0DFF1D10825E
:105270002090D909A22CB12C85E7F82E2F9C100183
:10528000112463EB72E0C1018D529E4E0E94D150F9
:105290002091DF09422F4150550BC452DF4F5983F3
:1052A0004883CC5DD040B10161557E4E4B01892BC6
:1052B00009F014C28DB79EB7CF51DF4F9983888311
:1052C000C15ED040C394AC2DB0E0CA52DF4FB98369
:1052D000A883C65DD040CD010197EDB7FEB7EA1BAC
:1052E000FB0B0FB6F894FEBF0FBEEDBF2DB73EB758
:1052F0002F5F3F4FC652DF4F39832883CA5DD040AE
:10530000D901302FF8014EE72E2F231B2C1540F426
:105310002191222319F02C931196F6CF4C93FCCFB8
:10532000C652DF4FE881F981CA5DD040E80FF91F0E
:105330001082C852DF4F3881C85DD040CD53DF4F57
:105340003883C35CD040CC53DF4F1882C45CD0405C
:10535000CB51DF4F488159816A817B81C55ED04046
:10536000C353DF4F488359836A837B83CD5CD0402E
:10537000BE0163537F4FCE018D539F4F0E94C65095
:10538000CE018D539F4F0E94061964EF71E080E0BB
:1053900090E00E941C098BE49EE00E942F16682F6B
:1053A0006150770BADB7BEB7A61BB70B0FB6F8941D
:1053B000BEBF0FBEADBF0DB71EB70F5F1F4F86300C
:1053C00090F1C12CC852DF4F79836883C85DD0400B
:1053D000EC2CF12CC852DF4FE881F981C85DD04038
:1053E000EE16FF0604F58BE49EE00E9402168D3057
:1053F00089F08A3099F0F801EE0DFF1D8B3281F0B3
:105400008D3271F080836FE070E080E090E00E9468
:105410001C0904C0F801EE0DFF1D1082C394D8CF03
:105420002EE72083F0CF6EE770E0C8010E94F050B5
:10543000801B910B382FF801E80FF11D91E02FEF41
:10544000290F931760F482918E3749F0432F491B3F
:10545000C252DF4F4883CE5DD0409F5FF0CF822F96
:1054600090E0AC014F5F5F4F6DB77EB7641B750B6B
:105470000FB6F8947EBF0FBE6DBFADB7BEB7119625
:105480007D01D801C252DF4FE881CE5DD040AE0F22
:10549000B11D4E2DF7013E2F341B321718F43D91EC
:1054A0003193F9CFF701E80FF91F1082CA52DF4F8D
:1054B00028813981C65DD040820F931F4DB75EB7FA
:1054C000481B590B0FB6F8945EBF0FBE4DBF0DB70A
:1054D0001EB70F5F1F4F62E370E080E090E00E9414
:1054E0001C09C652DF4F68817981CA5DD040C8016E
:1054F0000E94DA5062E370E080E090E00E941C09B4
:105500008EE7D8018C9362E370E080E090E00E9427
:105510001C09B701C8010E94C65062E370E080E038
:1055200090E00E941C09C452DF4FE881F981CC5DF4
:10553000D04085E7AE16BF0609F499C08A9DF001F8
:105540008B9DF00D1124E255FE4E87A5882309F4AA
:105550006EC01F930F93C10183529E4E9F938F93F2
:105560009F928F9288EB92E09F938F937F926F929E
:105570000E9415512DB73EB7265F3F4F0FB6F894E6
:105580003EBF0FBE2DBF62E370E080E090E00E945E
:105590001C09B30180E991E10E94122162E370E0ED
:1055A00080E090E00E941C09CF51DF4F6881798133
:1055B000C15ED0400FB6F8947EBF0FBE6DBFC15222
:1055C000DF4F48815981CF5DD0400FB6F8945EBF60
:1055D0000FBE4DBF62E370E080E090E00E941C09C6
:1055E000D1100BC0B30180E991E10E94122162E366
:1055F00070E080E090E00E941C090E94030562E3D5
:1056000070E080E090E00E941C0964EF71E080E0AF
:1056100090E00E941C09CB52DF4FB881C55DD0409D
:10562000BF5FCB52DF4FB883C55DD040BACC85E0B9
:10563000E1EEF2E0D20101900D928A95E1F71F931D
:105640000F935F924F929F928F9288EB92E09F937D
:105650008F937F926F920E9415514DB75EB7465F50
:105660005F4F0FB6F8945EBF0FBE4DBF8CCF8A9DC3
:10567000F0018B9DF00D1124E255FE4E87A5882385
:10568000D1F01F930F93C10183529E4E9F938F932E
:105690009F928F9261EC72E07F936F937F926F92F3
:1056A0000E941551ADB7BEB71A960FB6F894BEBF9B
:1056B0000FBEADBF68CF85E0E1EEF2E0D201019010
:1056C0000D928A95E1F71F930F935F924F929F92ED
:1056D0008F92E1ECF2E0FF93EF93BBCFFA9CF001E5
:1056E000FB9CF00D1124E255FE4E87A5C452DF4FFE
:1056F000A881B981CC5DD040AA16BB06E9F1882308
:10570000D9F01F930F93C10183529E4E9F938F93A5
:105710009F926F9388EB92E09F938F937F926F920B
:105720000E941551EDB7FEB73A960FB6F894FEBF3A
:105730000FBEEDBFD12C43CF85E0E1EEF2E0D20108
:1057400001900D928A95E1F71F930F935F924F920C
:105750009F926F9388EB92E09F938F937F926F92CB
:105760000E9415512DB73EB7265F3F4F0FB6F894F4
:105770003EBF0FBE2DBFDECF8823D1F01F930F9306
:10578000C10183529E4E9F938F939F926F9341ECE2
:1057900052E05F934F937F926F920E9415518DB7A5
:1057A0009EB70A960FB6F8949EBF0FBE8DBFC2CFAC
:1057B00085E0E1EEF2E0D20101900D928A95E1F7E9
:1057C0001F930F935F924F929F926F93A1ECB2E061
:1057D000BF93AF93C3CFADB6BEB686E0E0EEF2E0C6
:1057E000DE01A258BF4F01900D928A95E1F7C0905B
:1057F000D8098C2D880F8C0D880F6DB77EB7681B6C
:1058000071090FB6F8947EBF0FBE6DBF8DB79EB7FE
:1058100001967C01282ECA52DF4FF882C65DD04027
:10582000BE0162587F4F0E94DA5091E09C15A8F4A7
:10583000312CAC2DA150BB0B6D013C141D046CF43C
:10584000BE0162587F4F822DCA52DF4F9881C65DDC
:10585000D0400E94C6503394F0CFC80183529E4E70
:1058600001551E4E2091DF092150330B82169306FD
:10587000F1F0FF92EF929F938F931F930F93E9ECB8
:10588000F2E0FF93EF937F926F920E9415514DB714
:105890005EB7465F5F4F0FB6F8945EBF0FBE4DBF59
:1058A0000FB6F894BEBE0FBEADBED12C93CEFF9204
:1058B000EF929F938F931F930F9363ED72E07F930B
:1058C0006F937F926F920E941551ADB7BEB71A9633
:1058D0000FB6F894BEBF0FBEADBFE2CF0E9408174F
:1058E00062E370E080E090E00E941C09CD51DF4F40
:1058F000E881F981C35ED0400FB6F894FEBF0FBEB9
:10590000EDBFC851DF4F0FB6F894DEBF0FBECDBF5D
:10591000DF91CF911F910F91FF90EF90DF90CF908B
:10592000BF90AF909F908F907F906F905F904F90BF
:105930003F902F9008952F923F924F925F926F92D7
:105940007F928F929F92AF92BF92CF92DF92EF920F
:10595000FF920F931F93CF93DF93CDB7DEB7A89736
:105960000FB6F894DEBF0FBECDBF0E948A0E68EC62
:1059700070E080E090E00E941C0960913E0A709106
:105980003F0A90E080E00E94B74B409166100E9471
:10599000770D811104C086EE92E00E94561A84E1D0
:1059A00089A31092D40983EF92E00E94561A0E94B4
:1059B0004F091B012C0180910C01882309F4B9C007
:1059C000C090D009D090D109E090D209F090D309CD
:1059D00020E8C20E2CE2D21E20E8E21EF11C8091CB
:1059E000CC099091CD09A091CE09B091CF09C81AE8
:1059F000D90AEA0AFB0A8AE093E00E94E81CC70180
:105A0000B6010E94C0190E943A198E010F5F1F4F04
:105A10003E0135E1630E711C4E0187E1880E911C39
:105A20009E01275E3F4F3CA32BA3CE014B969EA326
:105A30008DA32C5F3F4F38A72FA35E013FE1A30E3C
:105A4000B11C8091D4098111B2C00E944F09621922
:105A50007309840995096C157D058E059F0508F06D
:105A600086C00E94B0179E012E5D3F4F40ED57E06B
:105A7000BE016F5D7F4FC8010E94F00B882309F3C0
:105A800089A18823F1F27F926F929F928F928CA1CD
:105A90008F939BA19F932EA12F933DA13F9388A508
:105AA0008F939FA19F93BF92AF9228E133E03F93E2
:105AB0002F931F930F930E9445510FB6F894DEBFAA
:105AC0000FBECDBF892B09F4BCCF8F8D98A1813D2E
:105AD00037E093070CF4B5CF825B8093930B8D8DE9
