:100000000C9460040C94273A0C94FC390C94D1396C
:100010000C94A63C0C948A040C948A040C94C23C64
:100020000C948A040C948A040C948A040C948A0418
:100030000C948A040C94523A0C948A040C948A040A
:100040000C948A040C948A040C9487390C948A04C6
:100050000C9451390C9427390C948A040C948A041A
:100060000C948A040C948A040C94823B0C948A04A9
:100070000C948A040C948A040C948A040C948A04C8
:100080000C948A040C948A040C948A0400407A101C
:10009000F35A00A0724E18090010A5D4E80000E839
:1000A0007648170000E40B54020000CA9A3B000097
:1000B00000E1F505000080969800000040420F0026
:1000C0000000A08601000000102700000000E803E7
:1000D000000000006400000000000A0000000000B2
:1000E0000100000000002C76D888DC674F0823DF71
:1000F000C1DFAE59E1B1B796E5E3E453C63AE65144
:10010000997696E8E6C28426EB898C9B62ED407C6A
:100110006FFCEFBC9C9F40F2BAA56FA5F490055A06
:100120002AF75C936B6CF9676DC11BFCE0E40D472B
:10013000FEF520E6B500D0ED902E0300943577054E
:100140000080841E080000204E0A000000C80C3306
:100150003333330F986E12831141EF8D2114893B95
:10016000E65516CFFEE6DB18D1844B381BF77C1D15
:10017000901DA4BBE424203284725E228100C9F168
:1001800024ECA1E53D276364696E6F707375785840
:100190005B00446F6E65005363616E6E696E67202D
:1001A000666F72205344492D31322073656E736F30
:1001B00072732E2E2E004552524F523A20496E76BF
:1001C000616C696420696E74657276616C20286563
:1001D000766572792031352C2032302C2033302C4A
:1001E000206F72203630206D696E73290070726F37
:1001F0006A65637449443A20002020696E70757402
:10020000206D696E7574653A20002020696E7075E6
:100210007420686F75723A202020002020696E706B
:10022000757420796561723A202020002020696E63
:10023000707574206461793A2020202000202069A4
:100240006E707574206D6F6E74683A202000456E74
:1002500074657220746865206461746520616E64E1
:100260002074696D6520696E20436F6F7264696EDA
:100270006174656420556E6976657273616C205493
:10028000696D652028555443293A200020202020FC
:10029000456E74657220476174657761792072617B
:1002A00064696F2049443A200041726520796F7576
:1002B000207573696E672061204761746577617985
:1002C0003F20456E7465722027792720666F722063
:1002D0007965732C20276E2720666F72206E6F3A27
:1002E000200044656661756C7420726164696F20DA
:1002F0004944206163636570746564005261646998
:100300006F20494420757064617465640020456EF7
:10031000746572206E657720726164696F2049444C
:100320003A200020456E7465722027792720666F79
:1003300072207965732C20276E2720666F72206EDD
:100340006F3A2000576F756C6420796F75206C6967
:100350006B6520746F206368616E676520746865E3
:1003600020726164696F2049442066726F6D207449
:1003700068652064656661756C742076616C75656E
:100380003F00496E76616C696420696E74657276AF
:10039000616C2E20456E746572206D656173757297
:1003A000656D656E7420696E74657276616C202867
:1003B00065766572792031352C2032302C2033302F
:1003C0002C206F72203630206D696E73293A200020
:1003D000456E746572206D6561737572656D656ECD
:1003E0007420696E74657276616C2028657665721A
:1003F000792031352C2032302C2033302C206F7274
:10040000203630206D696E73293A20002020456E19
:1004100074657220612050726F6A6563742049446C
:100420002028757020746F203520636861726163C5
:10043000746572732C2065783A20505341293A2014
:10044000004578697400456E74657220277927200D
:10045000666F7220796573206F7220276E27206681
:100460006F72206E6F3A200041726520796F75209F
:100470007375726520796F752077616E7420746F63
:1004800020657261736520616C6C20646174612009
:1004900073746F72656420696E206D656D6F72791B
:1004A0003F005072696E7420616C6C2064617461ED
:1004B00020746F2073637265656E3A200054657313
:1004C00074206D6561737572656D656E74733A0045
:1004D00057616974696E6720666F722074696D6513
:1004E0002066726F6D20476174657761792E2E2EBC
:1004F00000456E7465722073656E736F722064655B
:1005000070746820696E20636D2E205573652027F6
:100510002B27206F7220272D2720746F20696E648F
:1005200069636174652061626F7665206F72206215
:10053000656C6F7720736F696C2073757266616389
:10054000653A00456E74657220636F6E6669677503
:10055000726174696F6E20737472696E673A2000FD
:10056000456E7465722063686F6963653A20002088
:1005700020207820203C2D2D202045786974206D86
:10058000656E75002020206520203C2D2D20204503
:100590007261736520616C6C20646174610020205D
:1005A000207020203C2D2D20205072696E74206414
:1005B00061746120746F2073637265656E00202022
:1005C000205320203C2D2D202053796E6368726FBC
:1005D0006E697A6520476174657761792026204EBF
:1005E0006F646520636C6F636B7300202020742040
:1005F000203C2D2D2020546573742073656E736F1D
:100600007273002020206120203C2D2D2020436883
:10061000616E6765205344492D31322073656E73D6
:100620006F722061646472657373002020206E20F5
:10063000203C2D2D20205363616E20666F72206454
:10064000657669636573206F6E205344492D31329E
:1006500020627573002020206D20203C2D2D20204D
:10066000536574206D6561737572656D656E742078
:10067000696E74657276616C002020207220203CC7
:100680002D2D20204368616E6765204E6F646520C4
:10069000726164696F204944002020206720203C5B
:1006A0002D2D2020456E7465722047617465776139
:1006B0007920726164696F204944002020206920FC
:1006C000203C2D2D2020456E7465722070726F6A5B
:1006D000656374204944002020206320203C2D2D98
:1006E000202053657420636C6F636B0020202064AE
:1006F00020203C2D2D2020456E7465722073656E80
:10070000736F72206465707468730020202030203D
:10071000203C2D2D2020456E74657220636F6E661F
:10072000696775726174696F6E20737472696E6740
:10073000004D656E75206F7074696F6E733A20009E
:1007400043757272656E742062617474657279208B
:10075000766F6C746167653A20200043757272652C
:100760006E74206461746520262074696D653A207A
:1007700020004D6561737572656D656E7420496EFC
:1007800074657276616C3A200047617465776179AF
:1007900020526164696F2049443A200052616469C3
:1007A0006F2049443A200050726F6A656374204993
:1007B000443A20004C6F526120526164696F2046B8
:1007C00072657120284D487A293A20005365726974
:1007D000616C204E756D6265723A200056657273C9
:1007E000696F6E2000536F696C20576174657220C9
:1007F00044617461204E6574776F726B202D2057B1
:100800006972656C657373205344492D31322044FD
:100810006174616C6F67676572204E6F6465004339
:10082000757272656E7420616464726573733A20C8
:100830000072740092740048940078C40000002193
:1008400000240027002A0000002200250028002B99
:1008500000000020002300260029000202020202FC
:100860000202020404040404040404030303030353
:100870000303030101010101010101010204081048
:10088000204080010204081020408001020408106A
:100890002040800102040810204080000000010276
:1008A00000090A000000000403080700000000001F
:1008B0000000000000000000000000007A3DA1439D
:1008C00011241FBECFEFD0E4DEBFCDBF17E0A0E004
:1008D000B1E0E8ECFFE900E00BBF02C007900D9229
:1008E000A231B107D9F720E1A2E1B7E001C01D9222
:1008F000AF35B207E1F714E0CFE5D4E004C02197AB
:10090000FE010E94434ACE35D107C9F70E944C3EF2
:100910000C94D74F0C9400004F925F926F927F928D
:100920008F929F92AF92BF92CF92DF92EF92FF92FF
:100930000F931F930091E40C1091E50C2091E60CAD
:100940003091E70CC090E00CD090E10CE090E20C0C
:10095000F090E30C480159018C189D08AE08BF08BF
:1009600026013701401A510A620A730A601771079B
:100970008207930728F0640D751D861D971DF6CF1D
:100980006C157D058E059F0528F4680D791D8A1D5F
:100990009B1DECCF1F910F91FF90EF90DF90CF90B8
:1009A000BF90AF909F908F907F906F905F904F908F
:1009B0000895BF92CF92DF92EF92FF920F931F9311
:1009C000CF93DF93EC01B62EC880D980EA80FB80FC
:1009D0000091E80C1091E90C980150E040E0C7014B
:1009E000B6010E949448662391F0862F90E098010A
:1009F000369527958217930700F1081B190BC00E37
:100A0000D11EE11CF11CC882D982EA82FB82688176
:100A100079818A819B81BB20A9F00E948C04688324
:100A200079838A839B83DF91CF911F910F91FF90F0
:100A3000EF90DF90CF90BF900895C61AD108E108DB
:100A4000F108E1CF0091E40C1091E50C2091E60C47
:100A50003091E70C061717072807390720F7088396
:100A600019832A833B83DFCFE1E2FCE0A089B189CF
:100A700082E08C93A485B5851C92A685B78580E11C
:100A80008C93108EA489B58986E08C93A289B38952
:100A90008C9180618C93A289B3898C9188608C93AE
:100AA000A289B3898C9180688C930288F389E02DA8
:100AB00080818F7D80830895982F2091750B81E030
:100AC000213208F043C08091510B8111FCCF8091FD
:100AD000740B32E03093510B9093500B9FEF909337
:100AE0004F0B10924E0B20934D0BA4E5BBE0EDE2B3
:100AF000FBE090E0291331C010922C0B90912C0B4D
:100B0000880F892B80932C0B80912B0B813049F51A
:100B100010922B0B80912C0B8093BB008091BC001A
:100B200083FDF8CF85EC8093BC008091510B82301F
:100B3000E1F380914F0B8F3FB1F080914F0B8032EA
:100B4000A1F080914F0B803391F084E01092530B11
:100B50001092750B1092520B08953D9131939F5F47
:100B6000C9CF85EEE0CF80E0F1CF82E0EFCF83E028
:100B7000EDCF9091510B9111FCCF91E09093510BDF
:100B80009093500B2FEF20934F0B10924E0B260F8C
:100B900020934D0B90932C0B90912C0B880F892B4D
:100BA00080932C0B80912B0B8130F9F410922B0B3E
:100BB00080912C0B8093BB008091BC0083FDF8CF0B
:100BC00085EC8093BC008091510B8130E1F38091E2
:100BD0004E0B861710F460914E0BADE2BBE0EBE0DC
:100BE000FBE080E0861303C0089585EEEACF9D9177
:100BF00091938F5FF7CF8091FC0C9091FD0CDC01FD
:100C0000ED91FC910484F585E02D0994FF920F93FA
:100C10001F93CF93DF938C01F62ECCEFDCE088811D
:100C20009981DC01ED91FC910488F589E02D642F18
:100C3000099588819981DC01ED91FC910680F7810D
:100C4000E02D4F2DB801DF91CF911F910F91FF90B3
:100C5000099408950895E82FF0E0EE0FFF1FED5E70
:100C6000FE4F71836083813049F0823071F0809152
:100C70006900836080936900E89A08958091690013
:100C80008C6080936900E99A08958091690080637F
:100C900080936900EA9A08950895AF92BF92CF9227
:100CA000DF92EF92FF920F931F93CF93DF936C012C
:100CB0007B018B01040F151FEB015E01AE18BF080D
:100CC000C017D10759F06991D601ED91FC910190BF
:100CD000F081E02DC6010995892B79F7C501DF91D7
:100CE000CF911F910F91FF90EF90DF90CF90BF9029
:100CF000AF900895FC01538D448D252F30E0842F53
:100D000090E0821B930B541710F0CF960895019733
:100D10000895FC01918D828D981761F0A28DAE0F20
:100D2000BF2FB11D5D968C91928D9F5F9F73928FA7
:100D300090E008958FEF9FEF0895FC01918D828DD3
:100D4000981731F0828DE80FF11D858D90E00895A0
:100D50008FEF9FEF0895FC01918D228D892F90E0F8
:100D6000805C9F4F821B91098F739927089581E2C0
:100D70009CE00E94AB0621E0892B09F420E0822F41
:100D80000895FC01A48DA80FB92FB11DA35ABF4F20
:100D90002C91848D90E001968F739927848FA6897A
:100DA000B7892C93A089B1898C91837080648C93CE
:100DB000938D848D981306C00288F389E02D80817D
:100DC0008F7D80830895EF92FF920F931F93CF93AF
:100DD000DF93EC0181E0888F9B8D8C8D98131AC076
:100DE000E889F989808185FF15C09FB7F894EE895D
:100DF000FF896083E889F9898081837080648083BA
:100E00009FBF81E090E0DF91CF911F910F91FF9004
:100E1000EF900895F62E0B8D10E00F5F1F4F0F73AC
:100E20001127E02E8C8D8E110CC00FB607FCFACF67
:100E3000E889F989808185FFF5CFCE010E94C1063E
:100E4000F1CFEB8DEC0FFD2FF11DE35AFF4FF08238
:100E50009FB7F8940B8FEA89FB8980818062CFCF9E
:100E6000682F81E29CE00C94E3060F931F93CF93CD
:100E7000DF938C01D0E0C0E0F801EC0FFD1F64911E
:100E8000662341F081E29CE00E94E306892B11F089
:100E90002196F2CFCE01DF91CF911F910F9108954E
:100EA000CF93DF93EC01888D8823B9F0AA89BB89A1
:100EB000E889F9898C9185FD03C0808186FD0DC08C
:100EC0000FB607FCF7CF8C9185FFF2CF808185FFAD
:100ED000EDCFCE010E94C106E9CFDF91CF910895F9
:100EE00080E090E0892B29F00E94B70681110E94D2
:100EF000000080E090E0892B49F080E090E0892BB1
:100F000029F00E94000081110C9400000895815086
:100F10008A3080F5E82FF0E0E057F84F0C94434A10
:100F2000A407A8079A07A007BA07BA07AB07B10733
:100F3000B507BB07809180008F778093800008956C
:100F4000809180008F7DF9CF84B58F7784BD08951F
:100F500084B58F7DFBCF8091B0008F778093B000F8
:100F600008958091B0008F7DF9CF809190008F77A8
:100F7000809390000895809190008F7DF9CFCF935A
:100F8000DF93282F30E0F901E556F74F8491F901FE
:100F9000E558F74FD491F901E55AF74FC491CC23A6
:100FA000A1F081110E948707EC2FF0E0EE0FFF1FE8
:100FB000EF5AF74FA591B491EC91ED2381E090E0C9
:100FC00009F480E0DF91CF91089580E090E0FACFBE
:100FD0001F93CF93DF93282F30E0F901E556F74FA9
:100FE0008491F901E558F74FD491F901E55AF74F8B
:100FF000C491CC23A9F0162F81110E948707EC2FF2
:10100000F0E0EE0FFF1FE95BF74FA591B4918FB7AA
:10101000F894EC91111108C0D095DE23DC938FBFBA
:10102000DF91CF911F910895DE2BF8CF10920A0B1C
:101030001092090B1092530B1092750B1092510BDA
:1010400081E08093500B10922B0B61E081E10E94B4
:10105000E80761E080E10E94E807E9EBF0E08081C9
:101060008E7F808380818D7F808380E28093B80033
:1010700085E48093BC0089E296E09093010B809315
:10108000000B8AE296E09093FF0A8093FE0A08958F
:10109000CF93DF9390E0FC01E558F74F2491855AF8
:1010A000974FFC0184918823D1F090E0880F991F1D
:1010B000FC01E35CF74FA591B491FC01E95BF74FAC
:1010C000C591D49161110EC09FB7F8948C91E22F15
:1010D000E0958E238C932881E223E8839FBFDF91E4
:1010E000CF9108958FB7F894EC91E22BEC938FBFDA
:1010F000F6CF8851806480937C0080917A00806470
:1011000080937A0080917A0086FDFCCF80917800F0
:101110009091790008953FB7F8948091E70A9091F3
:10112000E80AA091E90AB091EA0A26B5A89B05C091
:101130002F3F19F00196A11DB11D3FBFBA2FA92F56
:10114000982F8827BC01CD01620F711D811D911D53
:1011500043E0660F771F881F991F4A95D1F70895BE
:101160008F929F92AF92BF92CF92DF92EF92FF92B7
:101170006B017C010E948B084B015C01C114D104FE
:10118000E104F104B9F00E948B08681979098A0911
:101190009B09683E73408105910580F321E0C21AE6
:1011A000D108E108F10888EE880E83E0981EA11CA2
:1011B000B11CE4CFFF90EF90DF90CF90BF90AF9045
:1011C0009F908F9008952FB7F8946091E30A7091E3
:1011D000E40A8091E50A9091E60A2FBF08950895E8
:1011E0008BEF0895CF93DF93FC012281338122306E
:1011F000310569F0EC01638D818D0E94E80760E0A4
:10120000888D0E94E80782E090E09B838A83DF91CB
:10121000CF910895FF920F931F93CF93DF93EC012B
:10122000162FF42E0FB7F89460E08F890E94E8071C
:101230008D899E89612F6068DC01ED91FC910190A0
:10124000F081E02D0995182F8D899E89DC01ED91A3
:10125000FC910190F081E02D6F2D099561E08F895F
:101260000E94E8070FBF812FDF91CF911F910F914F
:10127000FF9008950F931F93CF938C01C62F44E0E6
:101280006DE40E940A094BEF4C0F406869E0C80109
:10129000CF911F910F910C940A09CF93DF93FC011A
:1012A000228133812130310549F0EC0140E061E0D9
:1012B0000E940A0981E090E09B838A8381E0DF91AC
:1012C000CF910895CF93DF93FC01228133812230A7
:1012D000310549F0EC0141E061E00E940A0982E039
:1012E00090E09B838A83DF91CF910895CF92DF9224
:1012F000EF92FF92CF93DF93EC01CB01BA0120E094
:1013000034E244E759E40E94C04720E034E244E775
:1013100052E40E9464490E94D6496B017C01A701F6
:101320006627772766E0CE010E940A0977276F2D8E
:101330005E2D4D2D67E0CE010E940A094C2D68E01C
:10134000CE010E940A0981E0DF91CF91FF90EF90DA
:10135000DF90CF900895CF92DF92EF92FF920F939C
:101360001F93CF93DF934C3F08F067C0142F072FD4
:10137000F62EEC01E881F9810484F585E02D0995CC
:10138000CE010E94620940E06DE0CE010E940A0990
:101390004A8560E0CE010E940A094B8560E0CE01DB
:1013A0000E940A094C8560E0CE010E940A094D8521
:1013B00060E0CE010E940A09EFB6F89460E08F89E0
:1013C0000E94E8078D899E89DC01ED91FC910190D6
:1013D000F081E02D60E80995CF2CD02E012F01502F
:1013E00068F08D899E89F60161916F01DC01ED91B4
:1013F000FC910190F081E02D0995F1CF61E08F899A
:101400000E94E807EFBE44E0410F62E2CE010E9475
:101410000A098A819B81039771F043E061E0CE0164
:101420000E940A0940E460E4CE010E940A0983E0B8
:1014300090E09B838A8381E001C080E0DF91CF91BF
:101440001F910F91FF90EF90DF90CF900895CF9371
:10145000DF93FC012281338123303105C9F0EC0197
:1014600082819381049771F045E061E0CF010E9491
:101470000A0940E060E4CE010E940A0984E090E09D
:101480009B838A83C65EDE4F8881DF91CF9108956A
:1014900080E0FBCF0F931F93CF93DF93EC01162FC8
:1014A0000FB7F89460E08F890E94E8078D899E89C4
:1014B000DC01ED91FC910190F081E02D612F099507
:1014C0008D899E89DC01ED91FC910190F081E02DE8
:1014D00060E00995182F61E08F890E94E8070FBF2F
:1014E000812FDF91CF911F910F910895DF92EF929D
:1014F000FF920F931F93CF93DF93EC0162E10E9461
:101500004A0A2A813B8124303105A1F4982F907A30
:1015100089F08F8598890196988B8F874FEF62E1CC
:10152000CE01DF91CF911F910F91FF90EF90DF904F
:101530000C940A092A813B812430310511F486FD7F
:101540000DC02A813B812330310541F783FFE6CF6F
:101550008B899C8901969C8B8B8B67C063E1CE0144
:101560000E944A0A082F60E1CE010E944A0A482FD1
:101570006DE0CE010E940A09DFB6F89460E08F8921
:101580000E94E8078D899E89DC01ED91FC91019014
:10159000F081E02D60E009957E01BBE1EB0EF11CCE
:1015A000102F115070F08D899E89DC01ED91FC9116
:1015B0000190F081E02D60E00995F70181937F01B2
:1015C000F0CF61E08F890E94E807DFBE0A8F4FEFFE
:1015D00062E1CE010E940A096AE1CE010E944A0A34
:1015E00089588E878A8DFE01E65EFE4F8430C8F0F2
:1015F0008B8D8E838C8D8F838D8D88878E8D898743
:101600008D81811107C09E818C81981719F08E8180
:101610008F3F39F489899A8901969A8B898B81E069
:1016200080838081882309F479CFCE010E946209EA
:1016300075CF8091E00A9091E10A009711F00C9427
:10164000760A08958091DE0A9091DF0A009711F0E2
:101650000C94760A08958091DC0A9091DD0A009737
:1016600011F00C94760A0895CF93DF93EC018D89E5
:101670009E89DC01ED91FC910680F781E02D0995B2
:1016800061E08F890E94480861E08F890E94E80725
:1016900064E670E080E090E00E94B00881E0DF91B5
:1016A000CF910895FF920F931F93CF93DF931F92D3
:1016B000CDB7DEB7F42E0CEF1CE0D8018D919C91D4
:1016C000DC01ED91FC91008CF18DE02D0995F80184
:1016D00080819181DC01ED91FC91028CF38DE02DF4
:1016E00040E060E8099581E289834F2D61E0CE01F9
:1016F00001960E9406060E94FB050F90DF91CF9194
:101700001F910F91FF9008952F923F924F925F92F9
:101710006F927F928F929F92AF92BF92CF92DF9201
:10172000EF92FF920F931F93CF93DF938C015B0196
:101730006A0119010E94E3082B013C01F12CE12C04
:101740000E94E30864197509860997096C157D05DF
:101750008E059F0508F078C08091FC0C9091FD0CDF
:10176000DC01ED91FC910280F381E02D0995882345
:1017700039F38091FC0C9091FD0CDC01ED91FC9112
:101780000480F581E02DA501B8010995C82F8823B3
:10179000B9F28091FC0C9091FD0CDC01ED91FC9173
:1017A00000A0F1A1E02D0995D82F8091FC0C90911B
:1017B000FD0CDC01ED91FC91068CF78DE02D099577
:1017C000882E8091FC0C9091FD0CDC01ED91FC9138
:1017D00002A0F3A1E02D0995982E8091FC0C909128
:1017E000FD0CDC01ED91FC9104A0F5A1E02D099523
:1017F00087FDA6CFBFEF8B1631F04D2F692D8CEFF3
:101800009CE00E94520BED2FF0E0E450F34FDF011B
:101810001B968385891509F493CFF101D0839C929F
:101820008C2FDF91CF911F910F91FF90EF90DF9060
:10183000CF90BF90AF909F908F907F906F905F9070
:101840004F903F902F900895C0E0EACF9FB7F89453
:101850008091DA0A882319F081508093DA0A809106
:10186000DA0A811105C08CB58F7B8CBD1092D90A24
:101870009FBF08958CB58F778CBD08958CB5806817
:101880008CBD0895FC01738362830895FC01778306
:1018900066830895FC0175836483089580E008954C
:1018A000FC0181850895FC0180850895FC018781F4
:1018B0000895FC01868108954095FC012585422309
:1018C000642B65870895FC0164870895FC01638794
:1018D0000895FC0162870895FC0164830895FC016A
:1018E000658308958F929F92AF92BF92CF92DF92BD
:1018F000EF92FF92CF93DF93EC016B010E94E3081C
:101900004B015C01F12CE12C0E94E3086819790974
:101910008A099B096C157D058E059F0580F48A81D7
:101920009B81039789F381E0DF91CF91FF90EF9046
:10193000DF90CF90BF90AF909F908F90089580E000
:10194000F3CFFC012281338123303105D1F381E0D3
:1019500008958F929F92AF92BF92CF92DF92EF92B3
:10196000FF92CF93DF93EC016B010E94E3084B01E0
:101970005C01F12CE12C0E94E308681979098A09BD
:101980009B096C157D058E059F05A0F4E881F98102
:101990000280F381E02DCE010995882361F3DF9168
:1019A000CF91FF90EF90DF90CF90BF90AF909F903E
:1019B0008F90089580E0F3CFCF93DF93EC01E8811F
:1019C000F9810280F381E02DCE0109958823B9F3D6
:1019D000DF91CF91089581E008951F93CF93DF9316
:1019E000EC01162F88819981DC01ED91FC91028830
:1019F000F389E02D099588819981DC01ED91FC91B5
:101A00000688F789E02D612F09951A83DF91CF9120
:101A10001F910895CF92DF92EF92FF920F931F9341
:101A2000CF936B017C01142F8091FC0C9091FD0CE5
:101A3000DC01ED91FC910190F081E02D0995C82F1A
:101A4000882309F16091FE0C8CEF9CE00E94ED0C64
:101A500088E790E09093050D8093040D83E08093D8
:101A6000060D612F8CEF9CE00E94ED0C0091FC0CA8
:101A70001091FD0CB701A601C8010E94760964E12E
:101A8000C8010E943A098C2FCF911F910F91FF90AE
:101A9000EF90DF90CF900895282F30E094E03595B7
:101AA00027959A95E1F7922F990F990F291B220FED
:101AB000820F089585ED8093BC008091BC0084FD69
:101AC000FCCF1092510B08952091B60A260F3327B0
:101AD000331F21323105ECF42091510BFC0190E0D1
:101AE00080E0243069F082E00895A091B60A219147
:101AF000AC014A56554FA40FB52FB11D2C9301963A
:101B0000861798F38091B60A680F6093B60A80E052
:101B1000089581E008950895E0910A0B8091090BE2
:101B2000E81730F4F0E0E55FF44F808190E008952D
:101B30008FEF9FEF089590910A0B8091090B2FEF83
:101B40003FEF981748F4E92FF0E0E55FF44F20816C
:101B500030E09F5F90930A0BC90108958091090BB3
:101B600090910A0B891B990B0895CF92DF92EF9207
:101B7000FF920F931F93CF93DF937C01CB018A01D8
:101B80002091520B222389F0EB016B01C40ED51E6C
:101B9000CC15DD0569F06991D701ED91FC910190BB
:101BA000F081E02DC7010995F3CF642F0E94640DE9
:101BB000C801DF91CF911F910F91FF90EF90DF90BF
:101BC000CF900895CF93DF931F92CDB7DEB769838F
:101BD0002091520B2223F9F02091750B203258F0FE
:101BE00021E030E0FC013383228390E080E00F901D
:101BF000DF91CF9108958091530BE82FF0E0EC5ADC
:101C0000F44F998190838F5F8093530B8093750B72
:101C100081E090E0ECCF61E0CE0101960E94640D7E
:101C2000F7CFCF93C62F91E09093520B98E6909305
:101C3000740B1092530B1092750B682F8EEB9CE077
:101C40000E94E20D6C2F8EEB9CE00E94E20D81E081
:101C5000CF910C945C05CF93CFB7F8948091DA0ABA
:101C6000811127C0EFE5F8E08491EFE7F8E0949167
:101C7000E82FF0E0EE0FFF1FE35CF74FA591B49162
:101C8000EC91E92321F461E084E00E94E80761E03F
:101C900084E00E9448088CB580618CBD8CB580645E
:101CA0008CBD61E087E00E94480861E085E00E9409
:101CB00048088091DA0A8F5F8093DA0ACFBFCF910C
:101CC0000895FC01268137812115310591F12130DC
:101CD000310559F12230310551F12330310549F5F3
:101CE0002CE09CB5937F922B9CBD848195810197BC
:101CF00011F58CB580628CBD82819381019784300F
:101D00009105E0F48F5C9E4FFC0190818CB58C7F37
:101D1000292F2370822B8CBD8DB592FB992790F9CA
:101D20008E7F892B8DBD0C942B0E24E0DACF28E01A
:101D3000D8CF20E0D6CF8CB58F7DDDCF95E0E6CF34
:101D4000CF93DF9380B7806880BF61E08EE00E9410
:101D5000E80762E370E080E090E00E94B00888E16C
:101D60000E947908EC0160E08EE00E94E807BE0165
:101D7000DD0F880B990B0E94614723EA36E043E5AB
:101D80005BE30E94C04723E939EA4AEA5FE30E9425
:101D9000C047DF91CF91089581E29CE00E945007F7
:101DA000E1E2FCE0A289B3898C918F7E8C93A289B9
:101DB000B3898C91877F8C93A289B3898C918F771B
:101DC0008C93A289B3898C918F7D8C93828D818F26
:101DD00060E08FE00E94E80760E080E00E94E80792
:101DE00060E081E00E94E80780E19FE00E944D09E9
:101DF00080B78F7780BFEAE7F0E080818F778083BC
:101E0000F89485B7806885BF85B7806885BF78946A
:101E100083B7817F846083BF83B7816083BF7894F9
:101E2000ABE6B0E08C9184608C93A8E6B0E08C9136
:101E300081608C9383B7816083BF889583B78E7FE1
:101E400083BF8081806880830E9434050E942B0EAE
:101E500061E080E00E94E80761E081E00C94E8071F
:101E60000F931F93CF93DF93FB014081FC019C01F3
:101E70002C5D3F4F80E08B010C5F1F4F91919413BD
:101E80000BC0DB011196EF0199918D9198130CC055
:101E9000A017B107C9F781E0E217F30779F7DF91DF
:101EA000CF911F910F91089580E0F6CFECE5F7E018
:101EB0009191981731F097E0ED36F907C9F780E076
:101EC000089581E00895ECE5F7E030E020E091919D
:101ED000911105C0245A384FF901808308952F5F6E
:101EE0003F4F2131310599F708958091D90A882310
:101EF00061F09FB7F8942091D90A8091570721305B
:101F000019F48DBB9FBF08958FBF0895CF93DF93C2
:101F1000EC0161E088810E94E8070E94750F8B81C7
:101F20008CBD8C818DBDDF91CF9108958EBD000059
:101F30000DB407FEFDCF8EB50895862F0C94960F35
:101F40002091D90A222361F02FB7F8943091D90A51
:101F5000313049F43DB3309357073DB33DBB2FBFFC
:101F60008CBD9DBD089520935707FACF80E591E081
:101F70000E94A00F60E087E10E94E80789EB0E94C1
:101F8000960F61E087E10E94E8070C94750FCF93EC
:101F9000DF93EC018CB58B838DB58C838D819E8115
:101FA0000E94A00F60E08881DF91CF910C94E80738
:101FB0008F929F92AF92BF92CF92DF92EF92FF9259
:101FC0000F931F93CF93DF934B015C0128E833E11C
:101FD00040E050E00E9494482A31310510F029E198
:101FE00030E06901F12CE12CC501B401A7010E9488
:101FF00094488901D0E0C0E0C017D107C8F4A09090
:10200000CA0CB090CB0CC5010E94C70F85E00E949E
:10201000960F80E00E94960F982EC5010E94860FB1
:1020200090FE14C0C701B6010E94B0082196E4CF0B
:1020300080E0DF91CF911F910F91FF90EF90DF90A3
:10204000CF90BF90AF909F908F90089581E0F1CF97
:102050000F931F93CF93DF93EC01162F442339F096
:1020600040E066E00E942810CE010E94860FCE015B
:102070000E94C70F85E00E94960F80E00E94960F95
:10208000082FCE010E94860F00FDF1CFCE010E94E5
:10209000C70F812FDF91CF911F910F910C94960F55
:1020A000CF92DF92EF92FF92CF93DF936B017C018F
:1020B000C42F68EE73E080E090E00E94D80F882380
:1020C000E9F18091E00C9091E10CA091E20CB091CB
:1020D000E30CC816D906EA06FB0678F08091E40CFA
:1020E0009091E50CA091E60CB091E70CC816D906CA
:1020F000EA06FB0610F4CC2309F1C091CA0CD0917A
:10210000CB0C41E060E2CE010E9428108E2D0E948F
:10211000960F8D2D0E94960F8C2D0E94960FCE014A
:102120000E94860F68EE73E080E090E0DF91CF912F
:10213000FF90EF90DF90CF900C94D80F80E0DF916C
:10214000CF91FF90EF90DF90CF9008952F923F9224
:102150004F925F926F927F928F929F92AF92BF92B7
:10216000CF92DF92EF92FF920F931F93CF93DF9363
:102170006C012A013B0119019A01332780E091E0AB
:10218000821B930B912C812C0115110581F1E80123
:102190008017910708F4EC0141E062E0C6010E945B
:1021A0002810862D0E94960F852D0E94960F842D53
:1021B0000E94960F5101A80CB91C7501F70181917D
:1021C0007F010E94960FC7018A199B098C179D07F2
:1021D000A8F3C6010E94860F4C0E5D1E611C711C87
:1021E0008C0E9D1E0C1B1D0B80E091E0CDCFDF916E
:1021F000CF911F910F91FF90EF90DF90CF90BF9004
:10220000AF909F908F907F906F905F904F903F9096
:102210002F900895BF92CF92DF92EF92FF920F938B
:102220001F93CF93DF937C01EA01B62E690140E052
:102230006BE00E9428108B2D0E94960F8D2F0E941C
:10224000960F8C2F0E94960F80E00E94960FE60159
:102250000C0D1D1DC017D10729F080E00E94960FBC
:102260008993F8CFC701DF91CF911F910F91FF9014
:10227000EF90DF90CF90BF900C94860F0F931F9339
:10228000CF93DF9300D0CDB7DEB7AB01BC014C5F7D
:102290005F4F6F4F7F4F02E010E09E012F5F3F4F77
:1022A0008091CA0C9091CB0C0E940A112091EA0CEB
:1022B0003091EB0C89819A812817390710F41A8222
:1022C000198289819A810F900F90DF91CF911F9190
:1022D0000F910895CF92DF92EF92FF926B017C01F4
:1022E0000E943E119C01009769F0E091E80CF0918A
:1022F000E90CBF010E941B4A009721F02E0F3F1FDF
:10230000281B390BC701B601620F731F811D911D78
:10231000FF90EF90DF90CF900C948C040F931F935D
:10232000CF93DF93CDB7DEB760970FB6F894DEBFDB
:102330000FBECDBFAB01BC0100E110E09E012F5FDD
:102340003F4F8091CA0C9091CB0C0E940A11FE0164
:102350003196CE01419621912F3F79F4E817F90784
:10236000D1F781E060960FB6F894DEBF0FBECDBF07
:10237000DF91CF911F910F91089580E0F3CF4F929D
:102380005F926F927F92AF92BF92CF92DF92EF9265
:10239000FF920F931F93CF93DF93CDB7DEB72C97A8
:1023A0000FB6F894DEBF0FBECDBF6B017C015A01A2
:1023B000FA01108211821282138204E010E09A0165
:1023C000BC01A6018091CA0C9091CB0C0E940A110D
:1023D000F50180819181A281B3818F3F9F4FAF4FE3
:1023E000BF4F79F019861A861B861C86C701B60175
:1023F0000E946A112B013C01C414D504E604F704C1
:1024000011F480E054C004E010E09E01275F3F4FCC
:10241000BC01A2018091CA0C9091CB0C0E940A11C0
:1024200049855A856B857C85F50180819181A281E2
:10243000B3810196A11DB11D84179507A607B707A3
:1024400009F451C04F3F5F4F6F4F7F4FD1F6C3012B
:10245000B2010E948E118823A1F28091E80C909124
:10246000E90CC81AD90AE108F108CD82DE82EF82B0
:10247000F886AE014F5F5F4F6FEFCE0105960E9469
:102480007512882349F149815A816B817C814F5FA4
:102490005F4F6F4F7F4F81E0F501C080D180E280B8
:1024A000F3804C155D056E057F0509F0AACF2C96CB
:1024B0000FB6F894DEBF0FBECDBFDF91CF911F9155
:1024C0000F91FF90EF90DF90CF90BF90AF907F90F3
:1024D0006F905F904F9008956D817E818F81988578
:1024E0000E948E11E4CF81E0E2CFCF92DF92EF9293
:1024F000FF920F931F93CF93DF93EC01D62E7A01B7
:10250000688179818A819B810E948E11CC24C39439
:1025100010E000E0882391F08FEF9FEFDC01F701DE
:1025200080839183A283B38380E0DF91CF911F9159
:102530000F91FF90EF90DF90CF900895688179819F
:102540008A819B81A7010E94BF118111EECFCC200F
:10255000D9F061E0CE010E94D904688179818A8135
:102560009B810E948E11C82E8111D6CF8091EA0CDA
:102570009091EB0C6091E80C7091E90C0E941B4A61
:1025800060177107D8F6C8CF88819981AA81BB816D
:102590004091E80C5091E90C70E060E01D14ACF043
:1025A000841B950BA60BB70B88839983AA83BB83E7
:1025B000688179818A819B810E948C0468837983F8
:1025C0008A839B830F5F1F4FC8CF840F951FA61F61
:1025D000B71FEACF2F923F924F925F926F927F92F6
:1025E0008F929F92AF92BF92CF92DF92EF92FF9223
:1025F0000F931F93CF93DF93CDB7DEB72E970FB610
:10260000F894DEBF0FBECDBF8C016D87FC016081E9
:102610007181828193810E948E118823C9F0F80113
:1026200080809180A280B380FD85F13009F4F5C0EF
:102630008091E00C9091E10CA091E20CB091E30C40
:1026400075016401C81AD90AEA0AFB0A7D84F3C03D
:102650002091E80C3091E90C8091E40C9091E50C0C
:10266000A091E60CB091E70C821B930BA109B10974
:10267000F80180839183A283B383AE01475F5F4FEC
:102680006FEFC8010E94751281110BC0F8016081C3
:102690007181828193810E948E118111C0CF612C42
:1026A00022C18091E00C9091E10CA091E20CB091DC
:1026B000E30CF80180839183A283B383AE014B5F67
:1026C0005F4F61E0C8010E947512F801608171815D
:1026D00022819381811102C0822FDDCF4D805E80E7
:1026E0006F8078846B01E22EF92E8090E40C90903C
:1026F000E50CA090E60CB090E70C8C189D08AE0895
:10270000BF0822E9222E332433948091E80C909163
:10271000E90CB0E0A0E088159905AA05BB0520F4F6
:10272000B694A79497948794FFEF3F1252C0C814B1
:10273000D904EA04FB0408F04CC08091E40C9091A9
:10274000E50CA091E60CB091E70C4091E00C5091A3
:10275000E10C6091E20C7091E30C841B950BA60BCD
:10276000B70B8C0D9D1DAE1DBF1D6C017D01C818E2
:10277000D908EA08FB08F801C082D182E282F3821C
:1027800060E0C8010E94D904F801608171818281F2
:1027900093810E948E11811142CFAE014F5F5F4F36
:1027A000632DC8010E947512882341F189819A81A5
:1027B000AB81BC81F1E03F1219C0481659066A0688
:1027C0007B0640F52A94222009F469CF2C013D01B3
:1027D0009CCFA32D032C000CBB0BA50194010E94E0
:1027E000E048C60ED71EE81EF91EC5CF8415950514
:1027F000A605B70538F333243394E4CFF80160819C
:102800007181828193810E948E11811108CFD30141
:10281000C201D8CF33243A94D5CFC090E40CD090E5
:10282000E50CE090E60CF090E70CC818D908EA082F
:10283000FB0877247394F2E9FE87F80160817181C7
:10284000828193810E948E118111C7C0F80120807E
:10285000318042805380C201B1016627707F992781
:102860007051810991090E948C040E948E11682E7A
:102870008823E9F0C201B1010E948E11811117C0B5
:10288000FD85F130A1F4F80180819181A281B381AD
:102890008827907FBB2780839183A283B383AE0177
:1028A0004F5F5F4F61E0C8010E9475121CC0AE010E
:1028B0004B5F5F4F672DC8010E947512F801408180
:1028C000518162817381882309F47EC0FD85FF3FB9
:1028D00021F5CB01BA010E946A110E948E11682E67
:1028E000882309F47EC0862D2E960FB6F894DEBF9D
:1028F0000FBECDBFDF91CF911F910F91FF90EF9051
:10290000DF90CF90BF90AF909F908F907F906F900F
:102910005F904F903F902F9008958091E80C909198
:10292000E90C2A013B01481A590A61087108C301E0
:10293000B2010E948E11682E8111B1CF77247A9452
:102940008091E80C9091E90CB0E0A0E08C159D0519
:10295000AE05BF0520F4F694E794D794C7948FEFA3
:10296000781242C08C149D04AE04BF04E8F5809137
:10297000E40C9091E50CA091E60CB091E70C40912D
:10298000E00C5091E10C6091E20C7091E30C841B1F
:10299000950BA60BB70B880D991DAA1DBB1D4C01ED
:1029A0005D018C189D08AE08BF08F80180829182F5
:1029B000A282B38260E0C8010E94D904FE85F15072
:1029C000FE87F1113ACF6BCECB01BA010E948E1176
:1029D000882309F4B5CF7194B3CF2D852F3F09F427
:1029E000ADCF77247394ACCFA72D072C000CBB0B75
:1029F000A70196010E94E048860E971EA81EB91EE8
:102A0000D4CFCF93DF9300D000D0CDB7DEB7AE01E7
:102A10004F5F5F4F0E94BF11882359F069817A810F
:102A20008B819C810F900F900F900F90DF91CF9131
:102A300008956FEF7FEFCB01F5CFEF92FF920F93E9
:102A40001F93CF93DF938C01C62FF894F090B200C0
:102A500061E0FC0184850E94E8079C2F80E031E062
:102A6000992329F083272FEF290F9223F9CFF0E83C
:102A70008F9FC0011124C82B80E8D9E0982F9C2398
:102A800019F0D1508695FACF8091B2008F198A3112
:102A9000D8F3F090B200EE24E394F8018485ED16AB
:102AA00078F460E0C0FF61E00E94E8078091B20026
:102AB0008F198A31D8F3F090B200C695E394EDCF28
:102AC00060E00E94E80778948AE090E08D1B91090D
:102AD0009AE1899F802D11249091B2009F19981737
:102AE000D8F3DF91CF911F910F91FF90EF90089550
:102AF000FC0115869091790780917A07981789F0E3
:102B0000E0917907F0E0EE5EF84F8081209179073F
:102B100030E02F5F3F4F2F7333272093790790E0EA
:102B200008958FEF9FEF08959091790780917A072C
:102B3000981741F0E0917907F0E0EE5EF84F808160
:102B400090E008958FEF9FEF0895FC018585811136
:102B50000EC080917A072091790790E0805C9F4FAA
:102B6000821B910960E470E00E942F4A08958FEF64
:102B70009FEF089590E080E00895DC011C969C9101
:102B80001C97ECE6F0E0983050F0E3E7F0E090318D
:102B900030F0EBE6F0E0983110F4EDE6F0E0808103
:102BA000977021E030E001C0220F9A95EAF7209556
:102BB000282320831C968C91ECE6F0E0883050F0BE
:102BC000E3E7F0E0803130F0EBE6F0E0883110F43C
:102BD000EDE6F0E09081911110C0F0E0E0E080328D
:102BE00010F4E8E6F0E09081883040F0803140F069
:102BF000883140F08EEF8923808308958DEFFBCFDD
:102C000087EFF9CF8BEFF7CFCF93DF93EC016330F2
:102C1000710521F164307105E1F16230710509F04F
:102C20005FC060E083E00E94480861E083E00E94AA
:102C3000480861E083E00E94E80760E08C850E941C
:102C4000480861E08C850E94480860E08C850E94FD
:102C5000E807CE01DF91CF910C94BD1560E083E0D1
:102C60000E94480861E083E00E94480861E083E038
:102C70000E94E80762E070E080E090E00E94B00807
:102C800060E08C850E94480861E08C850E944808BD
:102C9000E0CF61E083E00E94480860E083E00E94AA
:102CA000E80762E070E080E090E00E94B00860E039
:102CB0008C850E94E80760E08C850E944808789423
:102CC00080916800886080936800809173008460C0
:102CD000809373008FEF80935607DF91CF91089513
:102CE00061E083E00E94480861E083E00E94E80719
:102CF00060E08C850E94E80760E0C7CF70E060E08C
:102D00008CEE9CE00E9404161092200C10921F0C76
:102D100080911E0C8093B00080911D0C8093B100B7
:102D2000089580911F0C9091200C8C5E9C4061F066
:102D300062E070E08CEE9CE00E9404168CEE9CE059
:102D40009093200C80931F0C86E990E0A0E0B0E007
:102D50008093F00C9093F10CA093F20CB093F30CD1
:102D600081EF98ED9093FB0C8093FA0C8091B0006A
:102D700080931E0C8091B10080931D0C1092B000C6
:102D800086E08093B10008950F931F93CF93DF9354
:102D90008C0163E070E08CEE9CE00E94041661E020
:102DA0008091F80C0E94E8078CE895E60197F1F70E
:102DB00060E08091F80C0E94E8078CE496E40197AB
:102DC000F1F7D0E0C0E0D80114968D919C91159751
:102DD000C817D90790F4ED91FC91309759F41092EF
:102DE0001C0CECE1FCE060818CEE9CE00E941D1567
:102DF0002196E9CFEC0FFD1FF6CF64E070E08CEE7A
:102E00009CE0DF91CF911F910F910C9404161F93BA
:102E1000CF93DF93EC01162F63E070E00E9404165D
:102E2000612FCE010E941D1564E070E0CE010E946A
:102E3000041681E090E0DF91CF911F91089581E029
:102E40008093520B88E68093740B1092530B109270
:102E5000750B60E08EEB9CE00E94E20D81E00E9429
:102E60005C05811142C067E088E60E94B9051092B6
:102E70000A0B8093090B8EEB9CE00E949B0D8F77D1
:102E80000E944C0D8093020B8EEB9CE00E949B0DE8
:102E90000E944C0D8093030B8EEB9CE00E949B0DD7
:102EA0008F7B0E944C0D8093040B8EEB9CE00E9464
:102EB0009B0D8093050B8EEB9CE00E949B0D0E9466
:102EC0004C0D8093060B8EEB9CE00E949B0D8F7740
:102ED0000E944C0D8093070B8EEB9CE00E949B0D93
:102EE0000E944C0D825E8093080B8091020B8093B0
:102EF000C5098091030B8093F50A8091040B8093A0
:102F0000C6098091060B8093C9098091070B8093B5
:102F1000CA098091080B90E08E54984F9093C8098D
:102F20008093C70962E370E080E090E00C94B00801
:102F3000CF9391E09093520B98E69093740B10927C
:102F4000530B1092750B682F8EEB9CE00E94E20DE4
:102F500081E00E945C0581110DC061E088E60E945D
:102F6000B90510920A0B8093090B8EEB9CE00E942E
:102F70009B0DC82F8C2FCF9108951F93CF93DF9374
:102F800081E08093520B88E68093740B1092530B70
:102F90001092750B60E08EEB9CE00E94E20DC2E0A7
:102FA000DBE028811AE0822F612F0E940F4A682FF0
:102FB000660F680F660F620F8EEB9CE00E94E20DB9
:102FC0002981822F612F0E940F4A682F660F680F98
:102FD000660F620F8EEB9CE00E94E20D2A81822F29
:102FE000612F0E940F4A682F660F680F660F620FED
:102FF0008EEB9CE00E94E20D6B818EEB9CE00E94C8
:10300000E20D2C81822F612F0E940F4A682F660FDC
:10301000680F660F620F8EEB9CE00E94E20D2D811F
:10302000822F612F0E940F4A682F660F680F660F6C
:10303000620F8EEB9CE00E94E20D2E812E51822FBA
:10304000612F0E940F4A682F660F680F660F620F8C
:103050008EEB9CE00E94E20D81E00E945C05C82F8F
:103060008FE00E949817682F6F778FE00E94110EF3
:103070008C2FDF91CF911F910895CF93DF93C82FAD
:103080008FE00E949817C150DD0B21E030E001C0B5
:10309000220FCA95EAF7982F922351F02095622FBC
:1030A00068238FE00E94110E81E0DF91CF91089597
:1030B00080E0FBCFFC0101900020E9F73197AF01E0
:1030C000481B590BBC0181E29CE00C944D0681EC3D
:1030D00091E00C945A18CF93DF93FC014481558101
:1030E0006081718181E29CE00E944D06EC010E94AA
:1030F00067188C0F9D1FDF91CF910895CF93DF93B9
:103100000E943507EC010E9467188C0F9D1FDF910C
:10311000CF910895CF93DF930E943007EC010E9476
:1031200067188C0F9D1FDF91CF9108958F929F920A
:10313000AF92BF920F931F93CF93DF93CDB7DEB7BC
:10314000A1970FB6F894DEBF0FBECDBF19A24230D3
:1031500008F44AE08E010F5D1F4F842E912CB12C94
:10316000A12CA50194010E949448E62FB901CA013F
:10317000EA30F4F4E05DD801EE938D01232B242B8B
:10318000252B79F790E080E0109719F0CD010E948F
:103190005A18A1960FB6F894DEBF0FBECDBFDF91CF
:1031A000CF911F910F91BF90AF909F908F900895F6
:1031B000E95CE1CF682F70E090E080E04AE00C9499
:1031C0009618CF93DF930E94DA18EC010E946718DB
:1031D0008C0F9D1FDF91CF910895CF92DF92EF92D8
:1031E000FF92CF93DF9397FF19C06B017C018DE2B3
:1031F0000E943007EC0166277727CB016C197D0907
:103200008E099F094AE00E9496188C0F9D1FDF913E
:10321000CF91FF90EF90DF90CF9008954AE0DF913B
:10322000CF91FF90EF90DF90CF900C949618CF92B3
:10323000DF92EF92FF92CF93DF930E94E3086B013E
:103240007C0120E1C20E27E2D21EE11CF11C10928B
:10325000CD091092CC090E94E3086C157D058E05FE
:103260009F0560F581E29CE00E94AB0618161906E6
:1032700094F764E670E080E090E00E94B00881E29C
:103280009CE00E94AB06D82EC1E0DAE0E090CC09C9
:10329000F090CD09DC1690F081E29CE00E94890656
:1032A000DE9D9001DF9D300D1124C097280F391F3E
:1032B0003093CD092093CC09CF5FE8CF6091CC0942
:1032C0007091CD09072E000C880B990B0E94ED1808
:1032D0000E9467186AE070E080E090E0DF91CF9193
:1032E000FF90EF90DF90CF900C94B008CF93DF93D6
:1032F0004AE00E949618EC010E9467188C0F9D1FEF
:10330000DF91CF910895CF93DF93D0E0C0E0009795
:1033100019F00E945A18EC010E9467188C0F9D1F2B
:10332000DF91CF9108958F929F92AF92BF92CF92EB
:10333000DF92EF92FF921F93CF93DF93CDB7DEB76B
:1033400064970FB6F894DEBF0FBECDBF6B017C0152
:1033500049015A0168E873E180E090E00E94D80FCB
:10336000182F882309F410C2C092E00CD092E10C0F
:10337000E092E20CF092E30C8092E40C9092E50C67
:10338000A092E60CB092E70C80E290E09093E90CFA
:103390008093E80C80E090E19093EB0C8093EA0C32
:1033A000F8948FEF9FEFDC018093CC0C9093CD0CC1
:1033B000A093CE0CB093CF0C8093D00C9093D10CF3
:1033C000A093D20CB093D30C8093D40C9093D50CD3
:1033D000A093D60CB093D70C8093D80C9093D90CB3
:1033E000A093DA0CB093DB0C6091E00C7091E10CCF
:1033F0008091E20C9091E30C0E948E11882309F4D5
:10340000C0C08090E00C9090E10CA090E20CB090D5
:10341000E30C6091E40C7091E50C8091E60C9091C6
:10342000E70C681979098A099B099695879577951C
:103430006795680D791D8A1D9B1D0E948E1188233A
:1034400009F49FC08091E00C9091E10CA091E20CF6
:10345000B091E30C898B9A8BAB8BBC8B8D879E874D
:10346000AF87B88B69897A898B899C896093D00CE6
:103470007093D10C8093D20C9093D30CCD84DE84C6
:10348000EF84F888C092CC0CD092CD0CE092CE0C98
:10349000F092CF0C0E946A116093D40C7093D50CFB
:1034A0008093D60C9093D70C6B017C01CC2420EF39
:1034B000D222FF246C157D058E059F0509F0A6C15B
:1034C0006093D80C7093D90C8093DA0C9093DB0C3A
:1034D0006091D80C7091D90C8091DA0C9091DB0C32
:1034E0000E948C046093D80C7093D90C8093DA0CF2
:1034F0009093DB0C8091D00C9091D10CA091D20CC8
:10350000B091D30C0097A048B10508F486C1109281
:10351000DC0C1092DD0C1092DE0C1092DF0C789413
:1035200084EC91E00E9483190E9467186091CC0C92
:103530007091CD0C8091CE0C9091CF0C0E94011512
:103540006091D00C7091D10C8091D20C9091D30CE1
:103550000E94011581E29CE00E945007812F649631
:103560000FB6F894DEBF0FBECDBFDF91CF911F9194
:10357000FF90EF90DF90CF90BF90AF909F908F9093
:1035800008958091E00C9091E10CA091E20CB09133
:10359000E30C898B9A8BAB8BBC8BAE014B5F5F4F7F
:1035A0006FEFCE0141960E94751281111DC080916E
:1035B000E00C9091E10CA091E20CB091E30C898BAE
:1035C0009A8BAB8BBC8BAE014B5F5F4F61E0CE0142
:1035D00041960E947512811107C08FEF9FEFDC01A9
:1035E0008D839E83AF83B8872091E80C3091E90CDE
:1035F0008091E40C9091E50CA091E60CB091E70C61
:10360000821B930BA109B109898B9A8BAB8BBC8B65
:10361000AE01475F5F4F6FEFCE0141960E9475127A
:10362000811107C08FEF9FEFDC0189879A87AB87F5
:10363000BC8789849A84AB84BC848091E00C90918F
:10364000E10CA091E20CB091E30C4D815E816F81A1
:1036500078854F3F5F4F6F4F7F4F09F18B208A2056
:103660008920809409F096C08D879E87AF87B88B9C
:10367000AE014F5F5F4F61E0CE010D960E94751263
:103680008823E1F12091E80C3091E90C8091E40C61
:103690009091E50CA091E60CB091E70C9AC02091B6
:1036A000E80C3091E90C4091E40C5091E50C6091EC
:1036B000E60C7091E70C421B530B610971098B20DA
:1036C0008A208920809409F48DC0498B5A8B6B8B9A
:1036D0007C8B8D879E87AF87B88BAE014F5F5F4F26
:1036E0006FEFCE0141960E947512882339F061E098
:1036F000CE010D960E94EA128111B4CE89899A8971
:10370000AB89BC89C816D906EA06FB06E1F58D85AA
:103710009E85AF85B889C816D906EA06FB0699F5D5
:1037200080E090E0A0E8B0E08093D00C9093D10CC2
:10373000A093D20CB093D30C8093CC0C9093CD0C6F
:10374000A093CE0CB093CF0CC092D40CD092D50CD9
:10375000E092D60CF092D70C80E1D80EE11CF11C5F
:10376000C092D80CD092D90CE092DA0CF092DB0C1B
:103770008FEF9FEFDC018093DC0C9093DD0CA09326
:10378000DE0CB093DF0C78948BED91E00E948319EE
:1037900010E0E4CE19861A861B861C864FEF5FEF79
:1037A000BA014D835E836F8378878D879E87AF874D
:1037B000B88B61E0CE010D960E94EA12882309F4CD
:1037C0009DCF2091E80C3091E90C8D859E85AF85C9
:1037D000B889821B930BA109B109898B9A8BAB8B9A
:1037E000BC8B10C08D879E87AF87B88B498B5A8B57
:1037F0006B8B7C8B61E0CE010D960E94EA128823D0
:1038000009F47CCF6FEFCE01419674CF705F8F4F7C
:103810009F4F6627707F992753CE4CED5CE061E0A7
:1038200080ED9CE00E9475127ACECF92DF92EF92EB
:10383000FF921F93CF93DF930E94E3086B017C01FB
:1038400020E1C20E27E2D21EE11CF11C0E94E30817
:103850006C157D058E059F0540F581E29CE00E9478
:10386000AB061816190694F764E670E080E090E065
:103870000E94B00881E29CE00E94AB06EC01F82EA9
:1038800010E081E29CE00E9489068D3039F08A3098
:1038900029F0E12FF0E0E253F64F80831F5FF1162D
:1038A00080F7DD27C253D64F18828EEC99E0DF9166
:1038B000CF911F91FF90EF90DF90CF900C948319E0
:1038C0000C945A180E941F1765E38BE00E94110E9A
:1038D00068E18CE00E94110E60E88DE00E94110EFC
:1038E00089EF91E00E94601C82E10E94DA1880EB6F
:1038F00095E00E94601C83E20E94E11862E370E0A0
:1039000080E090E00C94B008CF93DF93482F509163
:10391000F50A852F90E0E091F80AE4133BC0CE2F22
:10392000D0E08C0F9D1F6CE370E00E942F4ABE0117
:103930000E942F4AE69FE02D1124E0936D0720910D
:103940006D07822F6AE00E940F4AC82FCC0FC80F64
:10395000CC0FC20F60E087E00E94110E6C2F88E050
:103960000E94110E60E889E00E94110E60E88AE072
:103970000E94110E8BE092E00E94601C80916D0706
:103980000E94E11862E370E080E090E0DF91CF9167
:103990000C94B008840F911D8C3391053CF06CE3BE
:1039A00070E00E942F4A80936D07C9CF450F409366
:1039B0006D07C5CFEF92FF920F931F93CF93DF93C5
:1039C0007C018C01CAE0D0E0CE010E947E48F80163
:1039D00081938F012196CE30D105B1F7C701DF91D8
:1039E000CF911F910F91FF90EF9008950F931F9328
:1039F000CF93DF930CE71BE0C8E0DBE0CE010E9431
:103A00007E48F80181938F012196C83AFBE0DF07D9
:103A1000A9F78CE79BE0DF91CF911F910F9108955B
:103A2000CF93DF93EB010E947E488883CE01DF9124
:103A3000CF9108950C947E480F931F93CF93DF93FB
:103A4000FC01048115810115110539F4FB01108277
:103A5000DF91CF911F910F91089541505109401767
:103A6000510708F48A01EB01FC0160817181A80112
:103A7000CE010E94794CC00FD11F1882E9CFCF939D
:103A8000DF93DC011496ED91FC916E177F0728F50A
:103A90004115510511F19F01261B370B42175307A2
:103AA00008F49A01DB01EC0188819981E21BF30B98
:103AB000FD83EC83AF01461B570B260F371FBC015C
:103AC000620F731F8A0F9B1F0E94794CE881F98156
:103AD0008C819D81E80FF91F1082DF91CF910895AD
:103AE000DF92EF92FF920F931F93CF93DF93FC012E
:103AF000E480F580E114F10451F48FEF9FEFDF9142
:103B0000CF911F910F91FF90EF90DF900895EC01FE
:103B10000190F081E02DEE0DFF1DD0801082088114
:103B200019816EE770E0C8010E94884C0E0D1F1DC0
:103B3000F801D082009709F328813981821B930B09
:103B4000DECFCF93DF93EC0188819981009711F04C
:103B50000E94E84A198218821D821C821B821A82E6
:103B6000DF91CF910895FC01808191810C94E84A06
:103B70000E94524C0F931F93CF93DF93EC018881E7
:103B80009981009759F02A813B812617370730F039
:103B900081E0DF91CF911F910F9108958B016F5FAD
:103BA0007F4F0E94714B009759F0998388831B8344
:103BB0000A832C813D81232B59F7FC011082E8CF29
:103BC00080E0E7CFEF92FF920F931F93CF93DF93A5
:103BD0006115710541F480E0DF91CF911F910F9144
:103BE000FF90EF90089541155105B1F07B01EC0174
:103BF0000C811D81040F151FB8010E94BA1D882376
:103C000051F3288139818C819D81B701820F931FE7
:103C10000E94724C1D830C8381E0DECF0F931F93B3
:103C2000CF93DF9300D000D0CDB7DEB74AE08E014E
:103C30000F5F1F4FB80190E00E949D44F801019072
:103C40000020E9F73197AF01401B510BB8018BE21F
:103C500090E10E94E21D0F900F900F900F90DF9166
:103C6000CF911F910F9108950F931F93CF93DF93DF
:103C7000CDB7DEB764970FB6F894DEBF0FBECDBFE9
:103C80008E010F5F1F4F22E044E00E94C943FC01F8
:103C900001900020E9F73197AF01481B590BBC0197
:103CA0008BE290E10E94E21D64960FB6F894DEBFAD
:103CB0000FBECDBFDF91CF911F910F910895CF938C
:103CC000DF9300D0CDB7DEB769831A8241E050E0C0
:103CD000BE016F5F7F4F0E94E21D0F900F90DF913A
:103CE000CF910895FB0101900020E9F73197AF01D2
:103CF000461B570B0C94E21DEF92FF920F931F93FC
:103D0000CF93DF93EC017B018A01BA010E94BA1DB7
:103D100081110BC0CE010E94A11DCE01DF91CF9178
:103D20001F910F91FF90EF9008951D830C83B701B1
:103D3000888199810E94724CF0CFFB010190002094
:103D4000E9F73197AF01461B570B0C947C1ECF93BC
:103D5000DF93EC01FB018617970749F060817181C1
:103D60006115710541F0448155810E947C1ECE0190
:103D7000DF91CF9108950E94A11DF9CFCF93DF93DA
:103D800000D000D000D0CDB7DEB71A8219821C82D5
:103D90001B821E821D826BE270E1CE0101960E94A1
:103DA000A71E4091351050913610609131107091DE
:103DB0003210CE0101960E94E21D811104C0CE0195
:103DC00001960E94A11DBE016F5F7F4F81E390E1CC
:103DD0000E94A71ECE0101960E94B31D64E670E00A
:103DE00080E090E00E94B00881E390E10E946B18AF
:103DF00062E370E080E090E00E94B00826960FB683
:103E0000F894DEBF0FBECDBFDF91CF910895FC01C6
:103E1000118210821382128215821482FB0101909A
:103E20000020E9F73197AF01461B570B0C947C1E1D
:103E30001F93CF93DF9300D000D000D0CDB7DEB773
:103E400063EC71E0CE0101960E94071F8FE198E0BC
:103E50000E943507809110010E948A188BE192E040
:103E60000E94601C81E29CE00E94AB06892BD1F38A
:103E700081E29CE00E948906182F80ED810F8A3034
:103E800090F0812F8F7D81548A3168F01A3021F0B3
:103E90008FE292E00E94831981E29CE00E94AB06CF
:103EA000892BD1F3E5CF812F0E948A188FE692E00B
:103EB0000E94831963EC71E0CE0101960E949D1E61
:103EC00060911001CE0101960E945F1E64E872E0CD
:103ED000CE0101960E94721E612FCE0101960E94B2
:103EE0005F1E65EA74E0CE0101960E94721ECE014B
:103EF00001960E94C4166CE271E080E090E00E949E
:103F0000B0088CEE9CE00E94A515892BA1F08CEEE8
:103F10009CE00E94A515892B51F08CEE9CE00E943C
:103F20007815682F81E29CE00E94E306F0CF86E8D6
:103F300092E00E948319CE0101960E94B31D26963D
:103F40000FB6F894DEBF0FBECDBFDF91CF911F91AA
:103F50000895CF93DF9300D000D000D0CDB7DEB767
:103F60000E94911664E670E080E090E00E94B00844
:103F700063EC71E0CE0101960E94071F60918307F8
:103F8000CE0101960E945F1E6FE872E0CE0101969D
:103F90000E94721ECE0101960E94C4166CE271E06E
:103FA00080E090E00E94B0088CEE9CE00E94A51595
:103FB000892B29F08CEE9CE00E947815F5CF64E106
:103FC00070E080E090E00E94B0080E947E1664E1FC
:103FD00070E080E090E00E94B008CE0101960E945F
:103FE000B31D26960FB6F894DEBF0FBECDBFDF918E
:103FF000CF910895CF93DF9300D000D000D0CDB7FC
:10400000DEB70E94911664E670E080E090E00E94C6
:10401000B00863EC71E0CE0101960E94071F609129
:104020008307CE0101960E945F1E63E972E0CE0114
:1040300001960E94721ECE0101960E94C4166CE287
:1040400071E080E090E00E94B0088CEE9CE00E945D
:10405000A515892B29F08CEE9CE00E947815F5CFF0
:1040600064E170E080E090E00E94B0080E947E165B
:1040700064E170E080E090E00E94B008CE0101961B
:104080000E94B31D26960FB6F894DEBF0FBECDBFBB
:10409000DF91CF910895AF92BF92CF92DF92EF92CE
:1040A000FF920F931F93CF93DF93CDB7DEB7E997BE
:1040B0000FB6F894DEBF0FBECDBF082F10927A075F
:1040C000109279071092F90C63EC71E0CE0185969D
:1040D0000E94071F602FCE0185960E945F1E67E930
:1040E00072E0CE0185960E94721ECE0185960E94D6
:1040F000C41665E372E080E090E00E94B0088CEEA8
:104100009CE00E94A515B82EF12CE12C84E2A82E8B
:104110001091C409C12ED12CEB1440F58CEE9CE01B
:104120000E947815182F682F8DE390E10E945F1E82
:1041300068E070E080E090E00E94B0081A3091F0F2
:104140001D3081F0AC9CF001AD9CF00D1124EC57BA
:10415000F84FEE0DFF1D108368E070E080E090E006
:104160000E94B0082FEFE21AF20AD2CF85E0EAE906
:10417000F2E0DE019B9601900D928A95E1F785E0D1
:10418000EFE9F2E0DE01D09601900D928A95E1F719
:1041900085E0E4EAF2E0DE01D59601900D928A9581
:1041A000E1F734E2139FC00111249C012C57384FD2
:1041B0007901BE01655D7F4FC9010E94300F8823E0
:1041C00009F181E08093F60A009383071F5F109343
:1041D000C40981E29CE00E945007CE0185960E94AE
:1041E000B31DE9960FB6F894DEBF0FBECDBFDF91C9
:1041F000CF911F910F91FF90EF90DF90CF90BF90E4
:10420000AF900895BE01605D7F4FC7010E94300FDF
:10421000882319F000937C07D9CFBE016B5C7F4FD8
:10422000CE0101960E94300F882381F200937B0714
:10423000CDCF0F931F93CF93DF9300D000D000D04A
:10424000CDB7DEB7182F63EC71E0CE0101960E9466
:10425000071F63EC71E0CE0101960E949D1E612F45
:10426000CE0101960E945F1E65EA74E0CE010196C0
:104270000E94721E03E010E0CE0101960E94C41657
:1042800064E670E080E090E00E94B0088CEE9CE074
:104290000E94A515181619064CF064E670E080E03F
:1042A00090E00E94B0080150110931F78CEE9CE0BB
:1042B0000E94A51510927A07109279071092F90CB6
:1042C00011E002970CF410E0CE0101960E94B31D9C
:1042D000812F26960FB6F894DEBF0FBECDBFDF91BB
:1042E000CF911F910F910895CF92DF92EF92FF929D
:1042F0000F931F93CF93DF93EC017B018A01E88139
:10430000F9810280F381E02D0995D82E882329F1C7
:10431000E114F104D1F001151105B9F0CFB6F8940C
:104320008A8D8350990BF8012081281719061CF0FB
:104330008A8D84508083F801408150E0BE01615E27
:104340007F4FC7010E94574CCFBE8FB7F894FE0134
:10435000E65EFE4F10821A8E8FBF8D2DDF91CF91BA
:104360001F910F91FF90EF90DF90CF900895EF9203
:10437000FF920F931F93CF93DF9300D01F92CDB77F
:10438000DEB78C010E94340BE82E81110CC0E12CA9
:104390008E2D0F900F900F90DF91CF911F910F9165
:1043A000FF90EF900895F801808D8A3009F47EC067
:1043B0008B3009F47DC022E0F22E823041F740E8D4
:1043C00061E0C8010E940A096AE070E080E090E0C4
:1043D0000E94B00861E0C8010E944A0A8038B9F61C
:1043E00060E0F801808D0E944808F801818D8F3FC0
:1043F00049F48091DB0A843050F691E0980F909355
:10440000DB0A818FF801818DE82FF0E0EE0FFF1FAE
:10441000E452F54F118300836BE27BE0882349F07F
:1044200062E27BE0813029F0823009F0B0CF69E1AF
:104430007BE08F2D0E942B0640E06EE0C8010E94B9
:104440000A0940E06FE0C8010E940A09C8010E9401
:10445000620943E050E061E378E0CE0101960E94FA
:10446000944449816DE1C8010E940A094A816EE1C4
:10447000C8010E940A094B8166E2C8010E940A092C
:1044800040E060E2C8010E940A0948E061E2C80118
:104490000E940A0940E050EC64E674E4C8010E94FE
:1044A00076096DE0C8010E943A0972CFF12C87CFDE
:1044B000FF24F39484CF2F923F924F925F926F929A
:1044C0007F928F929F92AF92BF92CF92DF92EF92A4
:1044D000FF920F931F93CF93DF9300D000D000D0B3
:1044E0001F92CDB7DEB79F838E837C836B834D8312
:1044F0002983DC0117968C91179722242394280E88
:1045000017962C92312CC12CD12C7601D394772480
:104510007394730CEE81FF818285831508F4E3C0E8
:104520008091FC0C9091FD0CDC01ED91FC91008CD4
:10453000F18DE02D622D09958091FC0C9091FD0C80
:10454000DC01ED91FC91028CF38DE02D40E860E000
:10455000099549816D818B819C810E9406060E948C
:10456000FB05B981BF3FD1F481E027960FB6F894DF
:10457000DEBF0FBECDBFDF91CF911F910F91FF9096
:10458000EF90DF90CF90BF90AF909F908F907F90F3
:104590006F905F904F903F902F900895E1E0E71566
:1045A00068F4EE81FF8183819481A581B6810196B3
:1045B000A11DB11D83839483A583B6830E94E30864
:1045C0004B015C01AE81BF8118960D911C910E9438
:1045D0003344A70196010E94B6489B01AC01D80163
:1045E0000E94D548A70196010E94B648200F311FAE
:1045F000372C2901712C612C0E94E3086819790974
:104600008A099B09641575058605970508F07FCF13
:104610008091FC0C9091FD0CDC01ED91FC910280ED
:10462000F381E02D0995882339F38091FC0C90915A
:10463000FD0CDC01ED91FC910480F581E02D50E052
:1046400040E070E060E009958823B1F28091FC0CB5
:104650009091FD0CDC01ED91FC9100A0F1A1E02D09
:104660000995182F8091FC0C9091FD0CDC01ED91C7
:10467000FC91068CF78DE02D09958A838091FC0CC6
:104680009091FD0CDC01ED91FC9102A0F3A1E02DD5
:104690000995082F8091FC0C9091FD0CDC01ED91A7
:1046A000FC9104A0F5A1E02D0995B981B1130BC0CF
:1046B000EE81FF819281FA819F1305C087FF03C0BD
:1046C000201609F451CF87FD97CFEE81FF81E10FCE
:1046D000F11D8385801390CF412F602F8E819F81A4
:1046E0000E94520B89CF80E040CFAF92BF92CF9211
:1046F000DF92EF92FF920F931F93CF93DF93FC0112
:10470000D62F04811581C80187509F4F6AEF70E052
:104710000E941B4A662309F448C0C62F7F01C1507E
:1047200030E020E0AA24A394B12C01151105E9F191
:104730000B3F110540F169018AEFC80ED11C0A5FD9
:104740001109A501421B530B4C0D5D1DC093070EB3
:10475000A8E0BEE02C153D05E0F4F70184819581C9
:104760002817390738F480819181FC01E20FF31F8B
:10477000892B21F410921C0CECE1FCE080818D93DC
:104780002F5F3F4FE7CF6801C20ED31E10E000E05D
:10479000D8CF2D2F67E07EE08CEF9CE00E945B225B
:1047A000882321F0C1509601C0CF81E0DF91CF91E5
:1047B0001F910F91FF90EF90DF90CF90BF90AF903F
:1047C00008950E94F61C64E670E080E090E00E948C
:1047D000B008ECE7FBE080EADF011D928A95E9F77B
:1047E00008952F923F924F925F926F927F928F9295
:1047F0009F92AF92BF92CF92DF92EF92FF920F9370
:104800001F93CF93DF93CDB7DEB764970FB6F894BD
:10481000DEBF0FBECDBFCDB6DEB6DE86CD860E9432
:10482000BE1EE0903510F0903610FC8AEB8A2DB752
:104830003EB72E193F090FB6F8943EBF0FBE2DBFED
:104840008DB79EB701965C01609131107091321066
:10485000A7010E94574C8091EA0C9091EB0C0697AF
:104860008E159F0530F589EA92E00E9483190E9417
:10487000B60FED84FE840FB6F894FEBE0FBEEDBEFB
:1048800064960FB6F894DEBF0FBECDBFDF91CF9117
:104890001F910F91FF90EF90DF90CF90BF90AF905E
:1048A0009F908F907F906F905F904F903F902F9050
:1048B00008952DB63EB64090DC0C5090DD0C609013
:1048C000DE0C7090DF0C9FEF491A590A690A790AC9
:1048D000EB88FC88A6E0EA0EF11C0091E80C109130
:1048E000E90CC701B8010E941B4A009709F462C194
:1048F0000E0D1F1D081B190BEDB7FEB7E01BF10BCA
:104900000FB6F894FEBF0FBEEDBF2DB73EB72F5FB9
:104910003F4F4901ADB7BEB711964D925D926D9272
:104920007C921497F901F582E4828DB79EB70796C1
:104930004B895C89B5010E94574CA8014E195F094B
:1049400070E060E0C4018E0D9F1D0E94604C280144
:10495000712C612C4091D40C5091D50C6091D60CE7
:104960007091D70CC090E40CD090E50CE090E60C70
:10497000F090E70CCF86D88AE98AFA8AD301C80179
:10498000840F951FA61FB71FE091CA0CF091CB0CA6
:10499000C816D906EA06FB0608F00EC15601A41A8D
:1049A000B50A7801EA18FB0885019401CF010E943D
:1049B000A61064EF71E080E090E00E94D80F9401AF
:1049C0002A0D3B1D4091E00C5091E10C6091E20CEE
:1049D0007091E30C87018091CA0C9091CB0C0E94DE
:1049E000A6108090D40C9090D50CA090D60CB090CE
:1049F000D70C8091DC0C9091DD0CA091DE0CB09175
:104A0000DF0C0196A11DB11D8093DC0C9093DD0C91
:104A1000A093DE0CB093DF0CC301B201680D791DC9
:104A20008A1D9B1D0E948C046093D40C7093D50C3E
:104A30008093D60C9093D70C705F8F4F9F4F662753
:104A4000707F99270E948C042B013C010E948E11DB
:104A5000811129C041E0C301B2010E945010C3017D
:104A6000B201705F8F4F9F4F6627707F99270E941A
:104A70008C046D837E838F839887AE014F5F5F4F79
:104A800061E0CE0105960E947512882361F08D8148
:104A90009E81AF81B8858093CC0C9093CD0CA09370
:104AA000CE0CB093CF0C4092D80C5092D90C60929F
:104AB000DA0C7092DB0C8092D00C9092D10CA09208
:104AC000D20CB092D30C8091CC0C9091CD0CA091D3
:104AD000CE0CB091CF0C0097A048B10540F0809269
:104AE000CC0C9092CD0CA092CE0CB092CF0C0FB605
:104AF000F8943EBE0FBE2DBE6091D00C7091D10CCB
:104B00008091D20C9091D30C0E943E117C01609157
:104B1000D00C7091D10C8091D20C9091D30C0E944A
:104B20003E118C01009769F02091E80C3091E90C5E
:104B3000B9010E941B4A009721F0020F131F081BA6
:104B4000190B8EEB92E00E94601C6091DC0C70915E
:104B5000DD0C8091DE0C9091DF0C0E9476198EECBA
:104B600092E00E94601C81E390E10E946B1885ED49
:104B700092E00E94601CCB88DC88B60190E080E067
:104B80004AE00E94961881EE92E00E94601CB701F4
:104B900090E080E04AE00E9496188EEE92E00E943B
:104BA000601CB80190E080E04AE00E9496180E94E4
:104BB00067185DCE8701A0CE9401CF0110CF2F9250
:104BC0003F924F925F926F927F928F929F92AF929D
:104BD000BF92CF92DF92EF92FF920F931F93CF93EA
:104BE000DF93CDB7DEB7A7970FB6F894DEBF0FBE41
:104BF000CDBF2DB73EB73EA32DA30E94F61C64E1A6
:104C000070E080E090E00E94B0080E94911664EF8E
:104C100071E080E090E00E94B00863EC71E081E315
:104C200090E10E949D1E81E390E10E946B1800E0DC
:104C300088EE882E83E0982EC090C4090C1508F0E9
:104C4000F2C234E2309FC0011124DC01AC57B84FEE
:104C50007D011C9100937E0763EC71E087E390E196
:104C60000E949D1E64E170E080E090E00E94B00828
:104C7000B70187E390E10E94721EECE7FBE080E061
:104C8000D12CC81649F09081191303C08AA3DD24E2
:104C9000D3948F5F3A96F5CFFE013196BAA12AE000
:104CA000B29FA001112481E090E07F019C0121507E
:104CB0003109DA01A80FB91FA458B44F6C916623CB
:104CC00009F45CC0619301968A30910579F76EE72B
:104CD00087E390E10E945F1EB701D11002C060E23D
:104CE00073E087E390E10E94721E63EC71E0CE01F5
:104CF0004C960E94071F612FCE014C960E945F1EAA
:104D000060E073E0CE014C960E94721ECE014C967C
:104D10000E94C41664E670E080E090E00E94B00853
:104D20008CEE9CE00E94A515181619060CF005C122
:104D3000ADB6BEB6B1E0B0937D078CEE9CE00E94AC
:104D4000A515782EEDB7FEB7E81BF1090FB6F8945C
:104D5000FEBF0FBEEDBF2DB73EB72F5F3F4F6901BE
:104D6000622E79018E2D8619871568F48CEE9CE0F1
:104D70000E947815D7018D937D01F4CF2E0D3F1D34
:104D8000D9011C92A4CFF6018381082E000C990B47
:104D9000C097889D9001899D300D989D300D1124FC
:104DA00030937807209377070FB6F894BEBE0FBEF6
:104DB000ADBE6091770770917807072E000C880BC5
:104DC000990B0E94B00810927A07109279071092FE
:104DD000F90C62E370E080E090E00E94B0088091FE
:104DE0007D07882309F406C22DB73EB73CA32BA349
:104DF00063EC71E0CE0146960E94071F612FCE0141
:104E000046960E945F1E63E073E0CE0146960E94C4
:104E1000721ECE0146960E94C41664EF71E080E0D7
:104E200090E00E94B0088CEE9CE00E94A515782EC0
:104E30007C01FF24270131E0431A51088DB79EB74A
:104E40008E199F090FB6F8949EBF0FBE8DBFADB7E8
:104E5000BEB711966D01B5E0B71508F0B2C12DB619
:104E60003EB66C2C56018CEE9CE00E947815F50144
:104E700081935F016FE070E080E090E00E94B008F5
:104E80008A2D8619871578F32DB73EB72E193F095D
:104E90000FB6F8943EBF0FBE2DBF8DB79EB70196DB
:104EA0005C0160907C0780918307181711F0161140
:104EB0004BC09FEFC91AD90AAFA27501D6018D91D7
:104EC0006D01F70181937F016FE070E080E090E079
:104ED0000E94B0088E2DFFA18F1B871578F3DA2C66
:104EE00075018E2D8D19841508F059C0F701C190F8
:104EF0007F0185ED8C0D8035A0F7FBE2CF1619F010
:104F00002DE2C21242C06EE787E390E10E945F1E6D
:104F100064E170E080E090E00E94B0083DE2C312DE
:104F2000E0CF6DE287E390E10E945F1E64E170E0F4
:104F300080E090E00E94B008D4CF909278078092F1
:104F4000770710927D0735CF712C22E0E21AF10825
:104F5000872D90E08E159F058CF4F501E80FF91F61
:104F60008C0D9D1DDC0111968C91808364E170E0B5
:104F700080E090E00E94B0087394EACF64E170E0B2
:104F800080E090E00E94B008AACF6C2D87E390E10A
:104F90000E945F1E69E170E080E090E0CBCF1615C3
:104FA00009F4B2C080918307181709F4ADC080914D
:104FB0007B07181709F4A8C04DB65EB663EC71E024
:104FC000CE0140960E94071F612FCE0140960E949D
:104FD0005F1E67E073E0CE0140960E94721ECE0114
:104FE00040960E94C41664EF71E080E090E00E9459
:104FF000B0088CEE9CE00E94A5157C01FF2467019F
:10500000A2E0CA1AD108EDB7FEB7EC19FD090FB638
:10501000F894FEBF0FBEEDBF2DB73EB72F5F3F4FD9
:1050200059018630E8F010E031E0E31AF108612E12
:10503000712C6E147F04A4F48CEE9CE00E94781511
:105040008D3061F08A3051F0F501E60DF71D808357
:105050006FE070E080E090E00E94B0081F5FE7CF53
:1050600063EC71E0CE010A960E94071F11E0812FC8
:1050700090E08C159D05A4F48A0D9B1DDC016C91BC
:105080006B3261F0CE010A960E945F1E64E170E00F
:1050900080E090E00E94B0081F5FE9CF6EE7F2CF9A
:1050A000CE010A960E94701D4E85481B50E0BC013F
:1050B0007727CE010A960E943F1DCE010A960E94D4
:1050C000701DAC01552770E060E0CE010A960E9489
:1050D0003F1D4E855F856A857B8587E390E10E9451
:1050E000E21D64E170E080E090E00E94B008CE0133
:1050F0000A960E94B31DCE0140960E94B31D0FB6C2
:10510000F8945EBE0FBE4DBE0FB6F8943EBE0FBE05
:105110002DBECE0146960E94B31DEBA1FCA10FB699
:10512000F894FEBF0FBEEDBF6CE271E080E090E04E
:105130000E94B00810927A07109279071092F90C29
:1051400062E370E080E090E00E94B00810927A077D
:10515000109279071092F90C62E370E080E090E021
:105160000E94B0081B861A861D861C861F861E8616
:1051700067E370E1CE010A960E94A71E6EE7CE019A
:105180000A960E945F1E811104C0CE010A960E94F9
:10519000A11D4E855F856A857B8581E390E10E9434
:1051A000E21DCE010A960E94B31D64E670E080E025
:1051B00090E00E94B008CE014C960E94B31D0F5F94
:1051C0003BCD80917B0765E173E0181771F080910A
:1051D0007C076FE173E0181741F0809183076AE163
:1051E00073E0181711F06BE073E087E390E10E9421
:1051F000721E8FCF80917B0765E173E0181771F005
:1052000080917C076FE173E0181741F0809183076C
:105210006AE173E0181711F06BE073E087E390E147
:105220000E94721E81CF80913510909136102DB75B
:105230003EB7281B390B0FB6F8943EBF0FBE2DBFEB
:105240000DB71EB70F5F1F4F62E370E080E090E084
:105250000E94B0084091351050913610411551050B
:1052600029F0B80181E390E10E941C1D62E370E027
:1052700080E090E00E94B008E0913510F091361087
:10528000E00FF11F108262E370E080E090E00E9486
:10529000B008B801CE0101960E94071F809131101D
:1052A00090913210009709F454C069817A81611598
:1052B000710509F44CC040913310509134102D8188
:1052C0003E814217530708F442C00E94724C8D8100
:1052D0009E8190933610809335101E821D82CE01E0
:1052E00001960E94B31D62E370E080E090E00E94AE
:1052F000B0080E947E1662E370E080E090E00E94B9
:10530000B00862E370E080E090E00E94B0088DA1F8
:105310009EA10FB6F8949EBF0FBE8DBFA7960FB685
:10532000F894DEBF0FBECDBFDF91CF911F910F91DB
:10533000FF90EF90DF90CF90BF90AF909F908F90B5
:105340007F906F905F904F903F902F9008950E94B4
:10535000E84A89819A8190933210809331108B8131
:105360009C8190933410809333108D819E81909313
:105370003610809335101A8219821C821B82ADCFA1
:105380003F924F925F926F927F928F929F92AF92D5
:10539000BF92CF92DF92EF92FF920F931F93CF9322
:1053A000DF93CDB7DEB7ADB6BEB60E94911664E608
:1053B00070E080E090E00E94B00887E991E00E94F0
:1053C0007E180E946718ECE5F7E085E697E01192F9
:1053D0008E179F07E1F762E370E080E090E00E94A3
:1053E000B00810E3812F0E941921882319F0812F22
:1053F0000E94630F1F5F1A33A9F711E6812F0E94E5
:105400001921882319F0812F0E94630F1F5F1B371A
:10541000A9F711E4812F0E941921882319F0812F07
:105420000E94630F1F5F1B35A9F764E170E080E005
:1054300090E00E94B00810E3812F0E94560F88234D
:1054400019F0812F0E944B201F5F1A33A9F711E634
:10545000812F0E94560F882319F0812F0E944B2024
:105460001F5F1B37A9F711E4812F0E94560F882375
:1054700019F0812F0E944B201F5F1B35A9F78DB6B5
:105480009EB680E591E00E94A00F60E087E10E9457
:10549000E807000061E087E10E94E8070E94750FBD
:1054A00062E370E080E090E00E94B00840E060E0DD
:1054B00070E180E090E00E94501062E370E080E0D4
:1054C00090E00E94B008C0904110D09042108DB77B
:1054D0009EB78C199D090FB6F8949EBF0FBE8DBF65
:1054E00001967C01C114D10431F0A601BC018DE309
:1054F00090E10E941C1D8091E00C9091E10CA09124
:10550000E20CB091E30C81309041A105B10568F443
:105510008091E40C9091E50CA091E60CB091E70C21
:1055200081309041A105B10560F48601970140E00A
:1055300050E160E070E08091CA0C9091CB0C0E9429
:10554000A6106CE271E080E090E00E94B0080D2CA3
:10555000000CEE08FF0880E1D80EE11CF11CC0929F
:105560005807D0925907E0925A07F0925B076AE019
:1055700070E080E090E00E94B008412C80E1582E5D
:10558000612C712C4C145D046E047F0440F5009175
:10559000CA0C1091CB0C40E063E0C8010E942810B7
:1055A000862D0E94960F852D0E94960F842D0E94B5
:1055B000960F80E00E94960F382EC8010E94860F39
:1055C000832D0E94300768E070E080E090E00E9448
:1055D000B0089FEF491A590A690A790AD3CF64E1E2
:1055E00070E080E090E00E94B0080E94B60F0FB615
:1055F000F8949EBE0FBE8DBE62E370E080E090E046
:105600000E94B0080E9467180E94671882E991E022
:105610000E947E1862E370E080E090E00E94B00893
:105620000E947E161092EB0A0FB6F894BEBE0FBE13
:10563000ADBEDF91CF911F910F91FF90EF90DF9062
:10564000CF90BF90AF909F908F907F906F905F9022
:105650004F903F900895CF92DF92EF92FF920F9379
:105660001F93CF93DF93CDB7DEB72D970FB6F89486
:10567000DEBF0FBECDBF0E94A00E6093FA0A7093EA
:10568000FB0A8093FC0A9093FD0A82E10E9498171E
:10569000182F81E10E949817612F782F77FF02C0A1
:1056A000615C7F4F86E0759567958A95E1F7072ED7
:1056B000000C880B990B0E94614720E030E040E825
:1056C0005EE30E94C04760937F07709380078093DA
:1056D00081079093820761E08CE10E94E80766E908
:1056E00070E080E090E00E94B0088DE10E947908AF
:1056F0006C0160E08CE10E94E8078DE10E9479086E
:105700007C0163EC71E08BE290E10E949D1E64E1FC
:1057100070E080E090E00E94B00864E071E08BE20D
:1057200090E10E94721E6EE78BE290E10E945F1E84
:1057300066E77BE08BE290E10E94721E6EE78BE2EF
:1057400090E10E945F1E6091F10A7091F20A8091CF
:10575000F30A9091F40A2AE08E010F5F1F4FA8010F
:105760000E94B744F80101900020E9F73197AF019A
:10577000401B510BB8018BE290E10E94E21D6EE7E5
:105780008BE290E10E945F1E6091FA0A7091FB0A21
:105790008091FC0A9091FD0A0E94341E6EE78BE214
:1057A00090E10E945F1E60917F0770918007809159
:1057B0008107909182070E94341E6EE78BE290E190
:1057C0000E945F1EB60190E080E00E945F4723E3E5
:1057D00033E343E550E40E94C04720E030E040E876
:1057E0005AE30E94C0479B01AC010E94F84820E0A8
:1057F00030E04AE754E40E94C0470E94D649CB01FA
:105800004AE0B8010E94D944F80101900020E9F76C
:105810003197AF01401B510BB8018BE290E10E9420
:10582000E21D6EE78BE290E10E945F1EB70190E0FF
:1058300080E00E945F4723E333E343E550E40E94A6
:10584000C04720E030E040E85AE30E94C0479B0197
:10585000AC010E94F8480E94341E6EE78BE290E192
:105860000E945F1E4AE0B8018091C7099091C80963
:105870000E949D44F80101900020E9F73197AF01A3
:10588000401B510BB8018BE290E10E94E21D6DE2DA
:105890008BE290E10E945F1E8091CA090E940E1E59
:1058A0006DE28BE290E10E945F1E8091C9090E9427
:1058B0000E1E6FE58BE290E10E945F1E8091C6098B
:1058C0000E940E1E6AE38BE290E10E945F1E10911F
:1058D000F50A1A3028F460E38BE290E10E945F1E23
:1058E000812F0E940E1E6AE38BE290E10E945F1EF0
:1058F0001091C5091A3028F460E38BE290E10E9410
:105900005F1E812F0E940E1E6FE58BE290E10E94C8
:105910005F1E60E071E08BE290E10E94721E6EE714
:105920008BE290E10E945F1E62E370E080E090E015
:105930000E94B0082D960FB6F894DEBF0FBECDBF03
:10594000DF91CF911F910F91FF90EF90DF90CF905B
:1059500008952F923F924F925F926F927F928F9213
:105960009F92AF92BF92CF92DF92EF92FF920F93EE
:105970001F93CF93DF93CDB7DEB7A8970FB6F894F8
:10598000DEBF0FBECDBF0E942B0E68EC70E080E042
:1059900090E00E94B0086091EC0A7091ED0A90E0EE
:1059A00080E00E945F474091070F0E940A0D81111D
:1059B00004C085E293E00E94831984E189A31092D8
:1059C000760782E393E00E9483190E94E3081B019B
:1059D0002C0180911101882309F4B9C0C09072078D
:1059E000D0907307E0907407F090750720E8C20E1E
:1059F0002CE2D21E20E8E21EF11C80916E079091ED
:105A00006F07A0917007B0917107C81AD90AEA0A06
:105A1000FB0A89E493E00E94601CC701B6010E9462
:105A2000ED180E9467188E010F5F1F4F3E0135E190
:105A3000630E711C4E0187E1880E911C9E01275E4A
:105A40003F4F3CA32BA3CE014B969EA38DA32C5F6F
:105A50003F4F38A72FA35E013FE1A30EB11C8091F9
:105A6000760781118CC00E94E308621973098409CA
:105A700095096C157D058E059F0508F06FC00E9485
:105A80001F179E012E5D3F4F40ED57E0BE016F5D39
:105A90007F4FC8010E94840B882309F389A18823C2
:105AA000F1F27F926F929F928F928CA18F939BA124
:105AB0009F932EA12F933DA13F9388A58F939FA1E4
:105AC0009F93BF92AF9227E533E03F932F931F93AD
:105AD0000F930E94934C0FB6F894DEBF0FBECDBF5C
