:100000000C947E040C94B03A0C94853A0C945A3AB1
:100010000C942F3D0C94A8040C94A8040C944B3D14
:100020000C94A8040C94A8040C94A8040C94A804A0
:100030000C94A8040C94DB3A0C94A8040C94A80427
:100040000C94A8040C94A8040C94103A0C94A804E2
:100050000C94DB390C94B1390C94A8040C94A804CA
:100060000C94A8040C94A8040C940B3C0C94A804C5
:100070000C94A8040C94A8040C94A8040C94A80450
:100080000C94A8040C94A8040C94A80400407A10C2
:10009000F35A00A0724E18090010A5D4E80000E839
:1000A0007648170000E40B54020000CA9A3B000097
:1000B00000E1F505000080969800000040420F0026
:1000C0000000A08601000000102700000000E803E7
:1000D000000000006400000000000A0000000000B2
:1000E0000100000000002C76D888DC674F0823DF71
:1000F000C1DFAE59E1B1B796E5E3E453C63AE65144
:10010000997696E8E6C28426EB898C9B62ED407C6A
:100110006FFCEFBC9C9F40F2BAA56FA5F490055A06
:100120002AF75C936B6CF9676DC11BFCE0E40D472B
:10013000FEF520E6B500D0ED902E0300943577054E
:100140000080841E080000204E0A000000C80C3306
:100150003333330F986E12831141EF8D2114893B95
:10016000E65516CFFEE6DB18D1844B381BF77C1D15
:10017000901DA4BBE424203284725E228100C9F168
:1001800024ECA1E53D276364696E6F707375785840
:100190005B00446F6E65005363616E6E696E67202D
:1001A000666F72205344492D31322073656E736F30
:1001B00072732E2E2E004552524F523A20496E76BF
:1001C000616C696420696E74657276616C20286563
:1001D000766572792031302C2031352C2032302C4C
:1001E0002033302C206F72203630206D696E7329D9
:1001F0000070726F6A65637449443A200020206978
:100200006E707574206D696E7574653A20002020DB
:10021000696E70757420686F75723A202020002016
:1002200020696E70757420796561723A2020200013
:100230002020696E707574206461793A2020202036
:10024000002020696E707574206D6F6E74683A209E
:100250002000456E74657220746865206461746561
:1002600020616E642074696D6520696E20436F6F34
:100270007264696E6174656420556E697665727327
:10028000616C2054696D652028555443293A20003B
:1002900020202020456E7465722047617465776167
:1002A0007920726164696F2049443A200041726587
:1002B00020796F75207573696E67206120476174BE
:1002C000657761793F20456E746572202779272014
:1002D000666F72207965732C20276E2720666F72F7
:1002E000206E6F3A200044656661756C74207261FF
:1002F00064696F20494420616363657074656400BC
:10030000526164696F20494420757064617465644A
:100310000020456E746572206E6577207261646995
:100320006F2049443A200020456E74657220277979
:100330002720666F72207965732C20276E27206630
:100340006F72206E6F3A2000576F756C6420796F62
:1003500075206C696B6520746F206368616E6765DA
:100360002074686520726164696F20494420667258
:100370006F6D207468652064656661756C742076A5
:10038000616C75653F00456E746572206E657720FF
:100390006D6561737572656D656E7420696E7465E7
:1003A0007276616C2865766572792031302C203147
:1003B000352C2032302C2033302C206F72203630F8
:1003C000206D696E73293A20004552524F523A20EF
:1003D0006D696E696D756D203135206D696E75744E
:1003E0006520696E74657276616C207265717569DD
:1003F00072656420776974682052482073656E7353
:100400006F722E00496E76616C696420696E746546
:100410007276616C2E20456E746572206D65617315
:100420007572656D656E7420696E74657276616C47
:10043000202865766572792031302C2031352C20CA
:1004400032302C2033302C206F72203630206D69F2
:100450006E73293A2000456E746572206D65617374
:100460007572656D656E7420696E74657276616C07
:10047000202865766572792031302C2031352C208A
:1004800032302C2033302C206F72203630206D69B2
:100490006E73293A20002020456E74657220612019
:1004A00050726F6A65637420494420287570207407
:1004B0006F203520636861726163746572732C20EC
:1004C00065783A20505341293A20004578697400F4
:1004D000456E7465722027792720666F72207965D2
:1004E00073206F7220276E2720666F72206E6F3A1E
:1004F000200041726520796F7520737572652079CF
:100500006F752077616E7420746F206572617365FA
:1005100020616C6C20646174612073746F72656417
:1005200020696E206D656D6F72793F005072696E43
:100530007420616C6C206461746120746F2073633B
:100540007265656E3A200054657374206D65617341
:100550007572656D656E74733A00456E74657220D0
:1005600073656E736F7220646570746820696E20A5
:10057000636D2E2055736520272B27206F7220274F
:100580002D2720746F20696E646963617465206132
:10059000626F7665206F722062656C6F7720736F73
:1005A000696C20737572666163653A00456E7465A7
:1005B0007220636F6E66696775726174696F6E2011
:1005C000737472696E673A2000456E7465722063B9
:1005D000686F6963653A20002020207820203C2D38
:1005E0002D202045786974206D656E7500202020CF
:1005F0006520203C2D2D2020457261736520616CA3
:100600006C2064617461002020207020203C2D2D1E
:1006100020205072696E74206461746120746F20B0
:1006200073637265656E002020207420203C2D2DA0
:100630002020546573742073656E736F727300208D
:1006400020206120203C2D2D20204368616E6765AD
:10065000205344492D31322073656E736F722061CF
:10066000646472657373002020206E20203C2D2D61
:1006700020205363616E20666F7220646576696323
:100680006573206F6E205344492D3132206275739B
:10069000002020206D20203C2D2D2020536574202B
:1006A0006D6561737572656D656E7420696E7465D4
:1006B0007276616C002020207220203C2D2D20209D
:1006C0004368616E6765204E6F646520726164697E
:1006D0006F204944002020206720203C2D2D202021
:1006E000456E746572204761746577617920726127
:1006F00064696F204944002020206920203C2D2D72
:100700002020456E7465722070726F6A6563742074
:100710004944002020206320203C2D2D20205365BB
:100720007420636C6F636B002020206420203C2DBC
:100730002D2020456E7465722073656E736F722074
:10074000646570746873002020203020203C2D2DBB
:100750002020456E74657220636F6E6669677572DE
:100760006174696F6E20737472696E67004D656E97
:1007700075206F7074696F6E733A200043757272E2
:10078000656E74206261747465727920766F6C7422
:100790006167653A20200043757272656E7420644B
:1007A00061746520262074696D653A2020004D65CE
:1007B00061737572656D656E7420496E74657276CD
:1007C000616C3A20004761746577617920526164F9
:1007D000696F2049443A2000526164696F2049449E
:1007E0003A200050726F6A6563742049443A2000D1
:1007F0004C6F526120526164696F204672657120AE
:10080000284D487A293A200053657269616C204E60
:10081000756D6265723A200056657273696F6E205D
:1008200000536F696C205761746572204461746174
:10083000204E6574776F726B202D20576972656C3E
:10084000657373205344492D313220446174616CC7
:100850006F67676572204E6F6465004375727265DD
:100860006E7420616464726573733A200072740060
:1008700092740048940078C40000002100240027EE
:10088000002A0000002200250028002B0000002084
:1008900000230026002900020202020202020204D2
:1008A0000404040404040403030303030303030113
:1008B0000101010101010101020408102040800131
:1008C000020408102040800102040810204080012A
:1008D00002040810204080000000010200090A0004
:1008E00000000004030807000000000000000000F2
:1008F0000000000000000000033E2B4411241FBE36
:10090000CFEFD0E4DEBFCDBF17E0A0E0B1E0ECED6B
:10091000F0EA00E00BBF02C007900D92AE30B107C5
:10092000D9F721E1AEE0B7E001C01D92AB3DB207BF
:10093000E1F714E0CDE7D4E004C02197FE010E9466
:10094000CD4ACC37D107C9F70E94D53E0C946150EF
:100950000C9400004F925F926F927F928F929F92C1
:10096000AF92BF92CF92DF92EF92FF920F931F93BD
:100970000091600E1091610E2091620E3091630E15
:10098000C0905C0ED0905D0EE0905E0EF0905F0E19
:10099000480159018C189D08AE08BF08260137018F
:1009A000401A510A620A730A601771078207930797
:1009B00028F0640D751D861D971DF6CF6C157D05FD
:1009C0008E059F0528F4680D791D8A1D9B1DECCFAF
:1009D0001F910F91FF90EF90DF90CF90BF90AF905D
:1009E0009F908F907F906F905F904F900895BF92EF
:1009F000CF92DF92EF92FF920F931F93CF93DF93EB
:100A0000EC01B62EC880D980EA80FB800091640E8C
:100A10001091650E980150E040E0C701B6010E94B8
:100A20001E49662391F0862F90E098013695279510
:100A30008217930700F1081B190BC00ED11EE11C91
:100A4000F11CC882D982EA82FB82688179818A811D
:100A50009B81BB20A9F00E94AA04688379838A83C2
:100A60009B83DF91CF911F910F91FF90EF90DF90CB
:100A7000CF90BF900895C61AD108E108F108E1CFE0
:100A80000091600E1091610E2091620E3091630E04
:100A9000061717072807390720F7088319832A83C1
:100AA0003B83DFCFEDE1FCE0A089B18982E08C934C
:100AB000A485B5851C92A685B78580E18C93108EA0
:100AC000A489B58986E08C93A289B3898C918061D1
:100AD0008C93A289B3898C9188608C93A289B38905
:100AE0008C9180688C930288F389E02D80818F7DC2
:100AF00080830895982F2091710B81E0213208F0B6
:100B000043C080914D0B8111FCCF8091700B32E07E
:100B100030934D0B90934C0B9FEF90934B0B109297
:100B20004A0B2093490BA0E5BBE0E9E2FBE090E033
:100B3000291331C01092280B9091280B880F892B14
:100B40008093280B8091270B813049F51092270B59
:100B50008091280B8093BB008091BC0083FDF8CF6F
:100B600085EC8093BC0080914D0B8230E1F3809145
:100B70004B0B8F3FB1F080914B0B8032A1F08091F5
:100B80004B0B803391F084E010924F0B1092710B5D
:100B900010924E0B08953D9131939F5FC9CF85EE22
:100BA000E0CF80E0F1CF82E0EFCF83E0EDCF909116
:100BB0004D0B9111FCCF91E090934D0B90934C0B0A
:100BC0002FEF20934B0B10924A0B260F2093490BCB
:100BD0009093280B9091280B880F892B8093280BDA
:100BE0008091270B8130F9F41092270B8091280B0C
:100BF0008093BB008091BC0083FDF8CF85EC80938F
:100C0000BC0080914D0B8130E1F380914A0B861737
:100C100010F460914A0BA9E2BBE0E7E0FBE080E062
:100C2000861303C0089585EEEACF9D9191938F5F5F
:100C3000F7CF8091780E9091790EDC01ED91FC91C7
:100C40000484F585E02D0994FF920F931F93CF93B1
:100C5000DF938C01F62EC8E7DEE088819981DC0104
:100C6000ED91FC910488F589E02D642F0995888128
:100C70009981DC01ED91FC910680F781E02D4F2DEB
:100C8000B801DF91CF911F910F91FF9009940895C2
:100C90000895E82FF0E0EE0FFF1FED5EFE4F718329
:100CA0006083813049F0823071F080916900836007
:100CB00080936900E89A0895809169008C60809320
:100CC0006900E99A089580916900806380936900C2
:100CD000EA9A08950895AF92BF92CF92DF92EF9271
:100CE000FF920F931F93CF93DF936C017B018B01D6
:100CF000040F151FEB015E01AE18BF08C017D10726
:100D000059F06991D601ED91FC910190F081E02DAF
:100D1000C6010995892B79F7C501DF91CF911F9104
:100D20000F91FF90EF90DF90CF90BF90AF9008951C
:100D3000FC01538D448D252F30E0842F90E0821BE1
:100D4000930B541718F081509F4F08950197089501
:100D5000FC01918D828D981759F0A28DAE0FBF2F97
:100D6000B11D5D968C91928D9F5F928F90E008955A
:100D70008FEF9FEF0895FC01918D828D981731F0D0
:100D8000828DE80FF11D858D90E008958FEF9FEF24
:100D90000895FC01918D828D981B892F90E0089514
:100DA0008DE19CE00E94C90621E0892B09F420E036
:100DB000822F0895FC01A48DA80FB92FB11DA35E49
:100DC000BE4F9C91848D8F5F848FA689B7899C9339
:100DD000A089B1898C91837080648C93938D848D6C
:100DE000981306C00288F389E02D80818F7D80836F
:100DF00008950F931F93CF93DF93EC0181E0888FC9
:100E00009B8D8C8D981318C0E889F989808185FFA6
:100E100013C09FB7F894EE89FF896083E889F98948
:100E200080818370806480839FBF81E090E0DF9148
:100E3000CF911F910F910895062F1B8D1F5F8C8DF1
:100E400081130CC00FB607FCFACFE889F9898081BD
:100E500085FFF5CFCE010E94DA06F1CFEB8DEC0FC6
:100E6000FD2FF11DE35EFE4F00839FB7F8941B8FAB
:100E7000EA89FB8980818062D6CF682F8DE19CE072
:100E80000C94F9060F931F93CF93DF938C01D0E05E
:100E9000C0E0F801EC0FFD1F6491662341F08DE185
:100EA0009CE00E94F906892B11F02196F2CFCE0129
:100EB000DF91CF911F910F910895CF93DF93EC01B4
:100EC000888D8823B9F0AA89BB89E889F9898C9132
:100ED00085FD03C0808186FD0DC00FB607FCF7CFEE
:100EE0008C9185FFF2CF808185FFEDCFCE010E94EE
:100EF000DA06E9CFDF91CF91089580E090E0892B69
:100F000029F00E94D00681110E94000080E090E04C
:100F1000892B49F080E090E0892B29F00E940000A5
:100F200081110C940000089581508A3080F5E82FDB
:100F3000F0E0E356F84F0C94CD4AB107B507A70788
:100F4000AD07C707C707B807BE07C207C807809124
:100F500080008F77809380000895809180008F7D3E
:100F6000F9CF84B58F7784BD089584B58F7DFBCF8D
:100F70008091B0008F778093B00008958091B00089
:100F80008F7DF9CF809190008F77809390000895A6
:100F9000809190008F7DF9CFCF93DF93282F30E0A1
:100FA000F901E952F74F8491F901E954F74FD491CF
:100FB000F901E956F74FC491CC23A1F081110E94A9
:100FC0009407EC2FF0E0EE0FFF1FE357F74FA591CA
:100FD000B491EC91ED2381E090E009F480E0DF91A1
:100FE000CF91089580E090E0FACF1F93CF93DF93E5
:100FF000282F30E0F901E952F74F8491F901E954C3
:10100000F74FD491F901E956F74FC491CC23A9F0D9
:10101000162F81110E949407EC2FF0E0EE0FFF1FB6
:10102000ED57F74FA591B4918FB7F894EC9111114A
:1010300008C0D095DE23DC938FBFDF91CF911F9145
:101040000895DE2BF8CF1092060B1092050B10922C
:101050004F0B1092710B10924D0B81E080934C0B53
:101060001092270B61E081E10E94F50761E080E1C9
:101070000E94F507E9EBF0E080818E7F808380811C
:101080008D7F808380E28093B80085E48093BC00EC
:1010900087E496E09093FD0A8093FC0A88E496E04A
:1010A0009093FB0A8093FA0A0895CF93DF9390E020
:1010B000FC01E954F74F24918956974FFC01849124
:1010C0008823D1F090E0880F991FFC01E758F74F73
:1010D000A591B491FC01ED57F74FC591D4916111E1
:1010E0000EC09FB7F8948C91E22FE0958E238C93DD
:1010F0002881E223E8839FBFDF91CF9108958FB7C6
:10110000F894EC91E22BEC938FBFF6CF885180647A
:1011100080937C0080917A00806480937A00809133
:101120007A0086FDFCCF8091780090917900089537
:101130003FB7F8948091E30A9091E40AA091E50A00
:10114000B091E60A26B5A89B05C02F3F19F001967D
:10115000A11DB11D3FBFBA2FA92F982F8827BC0111
:10116000CD01620F711D811D911D43E0660F771F38
:10117000881F991F4A95D1F708958F929F92AF9239
:10118000BF92CF92DF92EF92FF926B017C010E949F
:1011900098084B015C01C114D104E104F104B9F0D9
:1011A0000E949808681979098A099B09683E73406A
:1011B0008105910580F321E0C21AD108E108F10808
:1011C00088EE880E83E0981EA11CB11CE4CFFF902E
:1011D000EF90DF90CF90BF90AF909F908F90089549
:1011E0002FB7F8946091DF0A7091E00A8091E10ACC
:1011F0009091E20A2FBF089508958BEF0895CF9341
:10120000DF93FC01228133812230310569F0EC014A
:10121000638D818D0E94F50760E0888D0E94F5073F
:1012200082E090E09B838A83DF91CF910895FF92C3
:101230000F931F93CF93DF93EC01162FF42E0FB76C
:10124000F89460E08F890E94F5078D899E89612F4F
:101250006068DC01ED91FC910190F081E02D099531
:10126000182F8D899E89DC01ED91FC910190F08110
:10127000E02D6F2D099561E08F890E94F5070FBF62
:10128000812FDF91CF911F910F91FF9008950F93C0
:101290001F93CF938C01C62F44E06DE40E94170981
:1012A0004BEF4C0F406869E0C801CF911F910F913F
:1012B0000C941709CF93DF93FC01228133812130F5
:1012C000310549F0EC0140E061E00E94170981E03E
:1012D00090E09B838A8381E0DF91CF910895CF9343
:1012E000DF93FC01228133812230310549F0EC018A
:1012F00041E061E00E94170982E090E09B838A83CD
:10130000DF91CF910895CF92DF92EF92FF92CF932A
:10131000DF93EC01CB01BA0120E034E244E759E469
:101320000E944A4820E034E244E752E40E94EE4939
:101330000E94604A6B017C01A7016627772766E05F
:10134000CE010E94170977276F2D5E2D4D2D67E086
:10135000CE010E9417094C2D68E0CE010E941709AA
:1013600081E0DF91CF91FF90EF90DF90CF900895D3
:10137000CF92DF92EF92FF920F931F93CF93DF9361
:101380004C3F08F067C0142F072FF62EEC01E881C0
:10139000F9810484F585E02D0995CE010E946F093D
:1013A00040E06DE0CE010E9417094A8560E0CE0161
:1013B0000E9417094B8560E0CE010E9417094C85F9
:1013C00060E0CE010E9417094D8560E0CE010E94C9
:1013D0001709EFB6F89460E08F890E94F5078D89B0
:1013E0009E89DC01ED91FC910190F081E02D60E897
:1013F0000995CF2CD02E012F015068F08D899E8940
:10140000F60161916F01DC01ED91FC910190F08199
:10141000E02D0995F1CF61E08F890E94F507EFBEBD
:1014200044E0410F62E2CE010E9417098A819B814C
:10143000039771F043E061E0CE010E94170940E498
:1014400060E4CE010E94170983E090E09B838A83C9
:1014500081E001C080E0DF91CF911F910F91FF905B
:10146000EF90DF90CF900895CF93DF93FC0122811E
:10147000338123303105C9F0EC01828193810497D7
:1014800071F045E061E0CF010E94170940E060E49F
:10149000CE010E94170984E090E09B838A83C65E98
:1014A000DE4F8881DF91CF91089580E0FBCF0F93CD
:1014B0001F93CF93DF93EC01162F0FB7F89460E0E2
:1014C0008F890E94F5078D899E89DC01ED91FC9141
:1014D0000190F081E02D612F09958D899E89DC01B5
:1014E000ED91FC910190F081E02D60E00995182FBD
:1014F00061E08F890E94F5070FBF812FDF91CF91A7
:101500001F910F910895DF92EF92FF920F931F9317
:10151000CF93DF93EC0162E10E94570A2A813B815D
:1015200024303105A1F4982F907A89F08F8598891D
:101530000196988B8F874FEF62E1CE01DF91CF91BB
:101540001F910F91FF90EF90DF900C9417092A8163
:101550003B812430310511F486FD0DC02A813B8189
:101560002330310541F783FFE6CF8B899C890196B3
:101570009C8B8B8B67C063E1CE010E94570A082FBA
:1015800060E1CE010E94570A482F6DE0CE010E9413
:101590001709DFB6F89460E08F890E94F5078D89FE
:1015A0009E89DC01ED91FC910190F081E02D60E0DD
:1015B00009957E01BBE1EB0EF11C102F115070F06C
:1015C0008D899E89DC01ED91FC910190F081E02DE7
:1015D00060E00995F70181937F01F0CF61E08F8989
:1015E0000E94F507DFBE0A8F4FEF62E1CE010E9435
:1015F00017096AE1CE010E94570A89588E878A8DA1
:10160000FE01E65EFE4F8430C8F08B8D8E838C8D9C
:101610008F838D8D88878E8D89878D81811107C0FD
:101620009E818C81981719F08E818F3F39F48989BA
:101630009A8901969A8B898B81E0808380818823A7
:1016400009F479CFCE010E946F0975CF8091DC0A31
:101650009091DD0A009711F00C94830A089580910F
:10166000DA0A9091DB0A009711F00C94830A08952E
:101670008091D80A9091D90A009711F00C94830AAE
:101680000895CF93DF93EC018D899E89DC01ED9164
:10169000FC910680F781E02D099561E08F890E9419
:1016A000550861E08F890E94F50764E670E080E0EC
:1016B00090E00E94BD0881E0DF91CF910895FF92F4
:1016C0000F931F93CF93DF931F92CDB7DEB7F42E06
:1016D00008E71EE0D8018D919C91DC01ED91FC9111
:1016E000008CF18DE02D0995F80180819181DC015C
:1016F000ED91FC91028CF38DE02D40E060E80995BE
:1017000081E289834F2D61E0CE0101960E9424067B
:101710000E9419060F90DF91CF911F910F91FF90BA
:1017200008952F923F924F925F926F927F928F9285
:101730009F92AF92BF92CF92DF92EF92FF920F9360
:101740001F93CF93DF938C015B016A0119010E9403
:10175000F0082B013C01F12CE12C0E94F0086419E7
:101760007509860997096C157D058E059F0508F09A
:1017700078C08091780E9091790EDC01ED91FC910A
:101780000280F381E02D0995882339F38091780E4A
:101790009091790EDC01ED91FC910480F581E02DB2
:1017A000A501B8010995C82F8823B9F28091780E58
:1017B0009091790EDC01ED91FC9100A0F1A1E02D5A
:1017C0000995D82F8091780E9091790EDC01ED91DA
:1017D000FC91068CF78DE02D0995882E8091780E6E
:1017E0009091790EDC01ED91FC9102A0F3A1E02D26
:1017F0000995982E8091780E9091790EDC01ED91EB
:10180000FC9104A0F5A1E02D099587FDA6CFBFEFBF
:101810008B1631F04D2F692D88E79EE00E945F0BFB
:10182000ED2FF0E0E858F14FDF011B968385891515
:1018300009F493CFF101D0839C928C2FDF91CF914B
:101840001F910F91FF90EF90DF90CF90BF90AF90DE
:101850009F908F907F906F905F904F903F902F90D0
:101860000895C0E0EACF9FB7F8948091D60A882304
:1018700019F081508093D60A8091D60A811105C053
:101880008CB58F7B8CBD1092D50A9FBF08958CB507
:101890008F778CBD08958CB580688CBD0895FC0150
:1018A000738362830895FC01778366830895FC0146
:1018B00075836483089580E00895FC01818508950F
:1018C000FC0180850895FC0187810895FC018681D3
:1018D00008954095FC0125854223642B6587089572
:1018E000FC0164870895FC0163870895FC01628709
:1018F0000895FC0164830895FC01658308958F9227
:101900009F92AF92BF92CF92DF92EF92FF92CF93CE
:10191000DF93EC016B010E94F0084B015C01F12C9C
:10192000E12C0E94F008681979098A099B096C1555
:101930007D058E059F0580F48A819B81039789F33D
:1019400081E0DF91CF91FF90EF90DF90CF90BF903B
:10195000AF909F908F90089580E0F3CFFC0122819B
:10196000338123303105D1F381E008958F929F9226
:10197000AF92BF92CF92DF92EF92FF92CF93DF931D
:10198000EC016B010E94F0084B015C01F12CE12C91
:101990000E94F008681979098A099B096C157D0570
:1019A0008E059F05A0F4E881F9810280F381E02D86
:1019B000CE010995882361F3DF91CF91FF90EF90DD
:1019C000DF90CF90BF90AF909F908F90089580E070
:1019D000F3CFCF93DF93EC01E881F9810280F381AB
:1019E000E02DCE0109958823B9F3DF91CF910895B9
:1019F00081E008951F93CF93DF93EC01162F888128
:101A00009981DC01ED91FC910288F389E02D099523
:101A100088819981DC01ED91FC910688F789E02DA0
:101A2000612F09951A83DF91CF911F910895CF926D
:101A3000DF92EF92FF920F931F93CF936B017C0184
:101A4000142F8091780E9091790EDC01ED91FC912C
:101A50000190F081E02D0995C82F882309F160914C
:101A60007A0E88E79EE00E94FA0C88E790E0909357
:101A7000810E8093800E83E08093820E612F88E731
:101A80009EE00E94FA0C0091780E1091790EB70139
:101A9000A601C8010E94830964E1C8010E944709A8
:101AA0008C2FCF911F910F91FF90EF90DF90CF90EF
:101AB0000895282F30E094E0359527959A95E1F721
:101AC000922F990F990F291B220F820F089585EDF0
:101AD0008093BC008091BC0084FDFCCF10924D0B24
:101AE00008952091B20A260F3327331F2132310582
:101AF000ECF420914D0BFC0190E080E0243069F083
:101B000082E00895A091B20A2191AC014E56554F42
:101B1000A40FB52FB11D2C930196861798F38091D1
:101B2000B20A680F6093B20A80E0089581E00895D8
:101B30000895E091060B8091050BE81730F4F0E072
:101B4000E95FF44F808190E008958FEF9FEF089553
:101B50009091060B8091050B2FEF3FEF981748F4FB
:101B6000E92FF0E0E95FF44F208130E09F5F909330
:101B7000060BC90108958091050B9091060B891BF6
:101B8000990B0895CF92DF92EF92FF920F931F93DC
:101B9000CF93DF937C01CB018A0120914E0B22234E
:101BA00089F0EB016B01C40ED51ECC15DD0569F083
:101BB0006991D701ED91FC910190F081E02DC70171
:101BC0000995F3CF642F0E94710DC801DF91CF9169
:101BD0001F910F91FF90EF90DF90CF900895CF93DA
:101BE000DF931F92CDB7DEB7698320914E0B22237E
:101BF000F9F02091710B203258F021E030E0FC0127
:101C00003383228390E080E00F90DF91CF9108959D
:101C100080914F0BE82FF0E0E05BF44F99819083C7
:101C20008F5F80934F0B8093710B81E090E0ECCF3E
:101C300061E0CE0101960E94710DF7CFCF93C62FC0
:101C400091E090934E0B98E69093700B10924F0B8F
:101C50001092710B682F8AE39EE00E94EF0D6C2FAB
:101C60008AE39EE00E94EF0D81E0CF910C947A050B
:101C7000CF93CFB7F8948091D60A811127C0EBE9B2
:101C8000F8E08491EBEBF8E09491E82FF0E0EE0FB0
:101C9000FF1FE758F74FA591B491EC91E92321F488
:101CA00061E084E00E94F50761E084E00E9455084D
:101CB0008CB580618CBD8CB580648CBD61E087E0A3
:101CC0000E94550861E085E00E9455088091D60A7F
:101CD0008F5F8093D60ACFBFCF910895FC012681F4
:101CE00037812115310591F12130310559F122302B
:101CF000310551F12330310549F52CE09CB5937F36
:101D0000922B9CBD84819581019711F58CB58062E1
:101D10008CBD82819381019784309105E0F4835DCD
:101D20009E4FFC0190818CB58C7F292F2370822BD4
:101D30008CBD8DB592FB992790F98E7F892B8DBD37
:101D40000C94380E24E0DACF28E0D8CF20E0D6CFAC
:101D50008CB58F7DDDCF95E0E6CFCF92DF92EF920D
:101D6000FF92CF93DF9360E08DE10E9455088DE1F3
:101D70000E948608B0E0A0E0BC01CD01660F771F8D
:101D8000881F991F0E94E94723E333E343E550E4AA
:101D90000E944A4820E030E048EC52E40E944A4861
:101DA00020E030E84FEF53E40E94824920E030EC1D
:101DB0004FE754E40E94EE490E94604ACB0164E67A
:101DC00070E00E94A54AEB01BC0190E080E00E9417
:101DD000E94720E030E048EC52E40E94EE496B0114
:101DE0007C01BE0190E080E00E94E9479B01AC01CC
:101DF000C701B6010E948249DF91CF91FF90EF9019
:101E0000DF90CF9008958DE19CE00E945D07EDE1A9
:101E1000FCE0A289B3898C918F7E8C93A289B389CF
:101E20008C91877F8C93A289B3898C918F778C93C7
:101E3000A289B3898C918F7D8C93828D818F60E094
:101E40008FE00E94F50760E080E00E94F50760E007
:101E500081E00E94F5078CE890E10E945A0980B762
:101E60008F7780BFEAE7F0E080818F778083F894F6
:101E700085B7806885BF85B7806885BF789483B74C
:101E8000817F846083BF83B7816083BF7894ABE632
:101E9000B0E08C9184608C93A8E6B0E08C91816076
:101EA0008C9383B7816083BF889583B78E7F83BF10
:101EB0008081806880830E9452050E94380E61E014
:101EC00080E00E94F50761E081E00C94F5070F9334
:101ED0001F93CF93DF93FB014081FC019C012C5D9C
:101EE0003F4F80E08B010C5F1F4F919194130BC00B
:101EF000DB011196EF0199918D9198130CC0A017F9
:101F0000B107C9F781E0E217F30779F7DF91CF91C5
:101F10001F910F91089580E0F6CFE8E5F7E09191E9
:101F2000981731F097E0E936F907C9F780E008958E
:101F300081E00895E8E5F7E030E020E0919191112B
:101F400005C0285A384FF901808308952F5F3F4F0D
:101F50002131310599F708958091D50A882361F0E0
:101F60009FB7F8942091D50A80915307213019F436
:101F70008DBB9FBF08958FBF0895CF93DF93EC0172
:101F800061E088810E94F5070E94AC0F8B818CBDB7
:101F90008C818DBDDF91CF9108958EBD00000DB471
:101FA00007FEFDCF8EB50895862F0C94CD0F20919E
:101FB000D50A222361F02FB7F8943091D50A313039
:101FC00049F43DB3309353073DB33DBB2FBF8CBDA8
:101FD0009DBD089520935307FACF80E591E00E94BC
:101FE000D70F60E087E10E94F50789EB0E94CD0FD3
:101FF00061E087E10E94F5070C94AC0FCF93DF936B
:10200000EC018CB58B838DB58C838D819E810E9474
:10201000D70F60E08881DF91CF910C94F5078F9204
:102020009F92AF92BF92CF92DF92EF92FF920F9367
:102030001F93CF93DF934B015C0128E833E140E02D
:1020400050E00E941E492A31310510F029E130E0AC
:102050006901F12CE12CC501B401A7010E941E49C0
:102060008901D0E0C0E0C017D107C8F4A090460EA7
:10207000B090470EC5010E94FE0F85E00E94CD0F73
:1020800080E00E94CD0F982EC5010E94BD0F90FEEA
:1020900014C0C701B6010E94BD082196E4CF80E0BC
:1020A000DF91CF911F910F91FF90EF90DF90CF9034
:1020B000BF90AF909F908F90089581E0F1CF0F93E4
:1020C0001F93CF93DF93EC01162F442339F040E0A8
:1020D00066E00E945F10CE010E94BD0FCE010E94FB
:1020E000FE0F85E00E94CD0F80E00E94CD0F082FEB
:1020F000CE010E94BD0F00FDF1CFCE010E94FE0F68
:10210000812FDF91CF911F910F910C94CD0FCF9222
:10211000DF92EF92FF92CF93DF936B017C01C42F8C
:1021200068EE73E080E090E00E940F108823E9F1F0
:1021300080915C0E90915D0EA0915E0EB0915F0E4D
:10214000C816D906EA06FB0678F08091600E9091D9
:10215000610EA091620EB091630EC816D906EA0610
:10216000FB0610F4CC2309F1C091460ED091470E26
:1021700041E060E2CE010E945F108E2D0E94CD0FE3
:102180008D2D0E94CD0F8C2D0E94CD0FCE010E946F
:10219000BD0F68EE73E080E090E0DF91CF91FF909B
:1021A000EF90DF90CF900C940F1080E0DF91CF91F3
:1021B000FF90EF90DF90CF9008952F923F924F9233
:1021C0005F926F927F928F929F92AF92BF92CF92C7
:1021D000DF92EF92FF920F931F93CF93DF936C01E7
:1021E0002A013B0119019A01332780E091E0821B0B
:1021F000930B912C812C0115110581F1E8018017B9
:10220000910708F4EC0141E062E0C6010E945F1012
:10221000862D0E94CD0F852D0E94CD0F842D0E940A
:10222000CD0F5101A80CB91C7501F70181917F01F7
:102230000E94CD0FC7018A199B098C179D07A8F32F
:10224000C6010E94BD0F4C0E5D1E611C711C8C0EE0
:102250009D1E0C1B1D0B80E091E0CDCFDF91CF9137
:102260001F910F91FF90EF90DF90CF90BF90AF90B4
:102270009F908F907F906F905F904F903F902F90A6
:102280000895BF92CF92DF92EF92FF920F931F9328
:10229000CF93DF937C01EA01B62E690140E06BE049
:1022A0000E945F108B2D0E94CD0F8D2F0E94CD0FAD
:1022B0008C2F0E94CD0F80E00E94CD0FE6010C0D07
:1022C0001D1DC017D10729F080E00E94CD0F899312
:1022D000F8CFC701DF91CF911F910F91FF90EF9041
:1022E000DF90CF90BF900C94BD0F0F931F93CF93AF
:1022F000DF9300D0CDB7DEB7AB01BC014C5F5F4FC1
:102300006F4F7F4F02E010E09E012F5F3F4F8091A3
:10231000460E9091470E0E9441112091660E309119
:10232000670E89819A812817390710F41A82198259
:1023300089819A810F900F90DF91CF911F910F911A
:102340000895CF92DF92EF92FF926B017C010E9481
:1023500075119C01009769F0E091640EF091650E93
:10236000BF010E94A54A009721F02E0F3F1F281B96
:10237000390BC701B601620F731F811D911DFF90BC
:10238000EF90DF90CF900C94AA040F931F93CF93FC
:10239000DF93CDB7DEB760970FB6F894DEBF0FBE00
:1023A000CDBFAB01BC0100E110E09E012F5F3F4FAC
:1023B0008091460E9091470E0E944111FE01319688
:1023C000CE01419621912F3F79F4E817F907D1F713
:1023D00081E060960FB6F894DEBF0FBECDBFDF91EF
:1023E000CF911F910F91089580E0F3CF4F925F92AC
:1023F0006F927F92AF92BF92CF92DF92EF92FF9255
:102400000F931F93CF93DF93CDB7DEB72C970FB603
:10241000F894DEBF0FBECDBF6B017C015A01FA01FB
:10242000108211821282138204E010E09A01BC0132
:10243000A6018091460E9091470E0E944111F50130
:1024400080819181A281B3818F3F9F4FAF4FBF4F5A
:1024500079F019861A861B861C86C701B6010E9470
:10246000A1112B013C01C414D504E604F70411F4B6
:1024700080E054C004E010E09E01275F3F4FBC01A4
:10248000A2018091460E9091470E0E94411149850C
:102490005A856B857C85F50180819181A281B3810C
:1024A0000196A11DB11D84179507A607B70709F46A
:1024B00051C04F3F5F4F6F4F7F4FD1F6C301B20105
:1024C0000E94C5118823A1F28091640E9091650E3F
:1024D000C81AD90AE108F108CD82DE82EF82F886B7
:1024E000AE014F5F5F4F6FEFCE0105960E94AC12B9
:1024F000882349F149815A816B817C814F5F5F4F0D
:102500006F4F7F4F81E0F501C080D180E280F38082
:102510004C155D056E057F0509F0AACF2C960FB608
:10252000F894DEBF0FBECDBFDF91CF911F910F9109
:10253000FF90EF90DF90CF90BF90AF907F906F9023
:102540005F904F9008956D817E818F8198850E9464
:10255000C511E4CF81E0E2CFCF92DF92EF92FF92FC
:102560000F931F93CF93DF93EC01D62E7A016881EE
:1025700079818A819B810E94C511CC24C39410E08B
:1025800000E0882391F08FEF9FEFDC01F70180835B
:102590009183A283B38380E0DF91CF911F910F914C
:1025A000FF90EF90DF90CF900895688179818A81C4
:1025B0009B81A7010E94F6118111EECFCC20D9F0AA
:1025C00061E0CE010E94F704688179818A819B8154
:1025D0000E94C511C82E8111D6CF8091660E9091B0
:1025E000670E6091640E7091650E0E94A54A601797
:1025F0007107D8F6C8CF88819981AA81BB814091A3
:10260000640E5091650E70E060E01D14ACF0841B08
:10261000950BA60BB70B88839983AA83BB8368812C
:1026200079818A819B810E94AA04688379838A8345
:102630009B830F5F1F4FC8CF840F951FA61FB71F27
:10264000EACF2F923F924F925F926F927F928F923A
:102650009F92AF92BF92CF92DF92EF92FF920F9331
:102660001F93CF93DF93CDB7DEB72E970FB6F894B5
:10267000DEBF0FBECDBF8C016D87FC016081718113
:10268000828193810E94C5118823C9F0F80180805E
:102690009180A280B380FD85F13009F4F5C080916E
:1026A0005C0E90915D0EA0915E0EB0915F0E750173
:1026B0006401C81AD90AEA0AFB0A7D84F3C0209192
:1026C000640E3091650E8091600E9091610EA09124
:1026D000620EB091630E821B930BA109B109F80140
:1026E00080839183A283B383AE01475F5F4F6FEF17
:1026F000C8010E94AC1281110BC0F8016081718188
:10270000828193810E94C5118111C0CF612C22C1A9
:1027100080915C0E90915D0EA0915E0EB0915F0E67
:10272000F80180839183A283B383AE014B5F5F4F37
:1027300061E0C8010E94AC12F801608171812281C0
:102740009381811102C0822FDDCF4D805E806F802A
:1027500078846B01E22EF92E8090600E9090610ECD
:10276000A090620EB090630E8C189D08AE08BF0852
:1027700022E9222E332433948091640E9091650EC9
:10278000B0E0A0E088159905AA05BB0520F4B69431
:10279000A79497948794FFEF3F1252C0C814D904AE
:1027A000EA04FB0408F04CC08091600E9091610E29
:1027B000A091620EB091630E40915C0E50915D0E3F
:1027C00060915E0E70915F0E841B950BA60BB70B8C
:1027D0008C0D9D1DAE1DBF1D6C017D01C818D90853
:1027E000EA08FB08F801C082D182E282F38260E04D
:1027F000C8010E94F704F801608171818281938190
:102800000E94C511811142CFAE014F5F5F4F632D12
:10281000C8010E94AC12882341F189819A81AB8161
:10282000BC81F1E03F1219C0481659066A067B06C2
:1028300040F52A94222009F469CF2C013D019CCF58
:10284000A32D032C000CBB0BA50194010E946A4927
:10285000C60ED71EE81EF91EC5CF84159505A60520
:10286000B70538F333243394E4CFF80160817181E4
:10287000828193810E94C511811108CFD301C201C9
:10288000D8CF33243A94D5CFC090600ED090610E4B
:10289000E090620EF090630EC818D908EA08FB08B1
:1028A00077247394F2E9FE87F80160817181828157
:1028B00093810E94C5118111C7C0F8012080318029
:1028C00042805380C201B1016627707F9927705101
:1028D000810991090E94AA040E94C511682E8823CB
:1028E000E9F0C201B1010E94C511811117C0FD8537
:1028F000F130A1F4F80180819181A281B381882710
:10290000907FBB2780839183A283B383AE014F5F07
:102910005F4F61E0C8010E94AC121CC0AE014B5F6A
:102920005F4F672DC8010E94AC12F80140815181B0
:1029300062817381882309F47EC0FD85FF3F21F504
:10294000CB01BA010E94A1110E94C511682E8823F3
:1029500009F47EC0862D2E960FB6F894DEBF0FBE0A
:10296000CDBFDF91CF911F910F91FF90EF90DF903E
:10297000CF90BF90AF909F908F907F906F905F901F
:102980004F903F902F9008958091640E9091650E26
:102990002A013B01481A590A61087108C301B201B2
:1029A0000E94C511682E8111B1CF77247A9480914D
:1029B000640E9091650EB0E0A0E08C159D05AE050B
:1029C000BF0520F4F694E794D794C7948FEF78125C
:1029D00042C08C149D04AE04BF04E8F58091600EE3
:1029E0009091610EA091620EB091630E40915C0EC9
:1029F00050915D0E60915E0E70915F0E841B950B81
:102A0000A60BB70B880D991DAA1DBB1D4C015D01BE
:102A10008C189D08AE08BF08F80180829182A282BE
:102A2000B38260E0C8010E94F704FE85F150FE8782
:102A3000F1113ACF6BCECB01BA010E94C5118823A8
:102A400009F4B5CF7194B3CF2D852F3F09F4ADCFE5
:102A500077247394ACCFA72D072C000CBB0BA701D8
:102A600096010E946A49860E971EA81EB91ED4CFF1
:102A7000CF93DF9300D000D0CDB7DEB7AE014F5F6C
:102A80005F4F0E94F611882359F069817A818B810A
:102A90009C810F900F900F900F90DF91CF91089530
:102AA0006FEF7FEFCB01F5CFEF92FF920F931F9364
:102AB000CF93DF938C01C62FF894F090B20061E0C1
:102AC000FC0184850E94F5079C2F80E031E099236A
:102AD00029F083272FEF290F9223F9CFF0E88F9F5A
:102AE000C0011124C82B80E8D9E0982F9C2319F04D
:102AF000D1508695FACF8091B2008F198A31D8F3E0
:102B0000F090B200EE24E394F8018485ED1678F499
:102B100060E0C0FF61E00E94F5078091B2008F196C
:102B20008A31D8F3F090B200C695E394EDCF60E01F
:102B30000E94F50778948AE090E08D1B91099AE154
:102B4000899F802D11249091B2009F199817D8F376
:102B5000DF91CF911F910F91FF90EF900895FC01AD
:102B600015869091750780917607981789F0E09106
:102B70007507F0E0E25FF84F80812091750730E043
:102B80002F5F3F4F2F7333272093750790E00895F1
:102B90008FEF9FEF089590917507809176079817B2
:102BA00041F0E0917507F0E0E25FF84F808190E03E
:102BB00008958FEF9FEF0895FC01858581110EC068
:102BC000809176072091750790E0805C9F4F821B73
:102BD000910960E470E00E94B94A08958FEF9FEF79
:102BE000089590E080E00895DC011C969C911C976C
:102BF000ECE6F0E0983050F0E3E7F0E0903130F0B0
:102C0000EBE6F0E0983110F4EDE6F0E080819770AB
:102C100021E030E001C0220F9A95EAF720952823A1
:102C200020831C968C91ECE6F0E0883050F0E3E7CE
:102C3000F0E0803130F0EBE6F0E0883110F4EDE6C2
:102C4000F0E09081911110C0F0E0E0E0803210F4EB
:102C5000E8E6F0E09081883040F0803140F0883143
:102C600040F08EEF8923808308958DEFFBCF87EFAF
:102C7000F9CF8BEFF7CFCF93DF93EC016330710582
:102C800021F164307105E1F16230710509F05FC036
:102C900060E083E00E94550861E083E00E945508EF
:102CA00061E083E00E94F50760E08C850E94550892
:102CB00061E08C850E94550860E08C850E94F507D4
:102CC000CE01DF91CF910C94F41560E083E00E9477
:102CD000550861E083E00E94550861E083E00E94AE
:102CE000F50762E070E080E090E00E94BD0860E0DF
:102CF0008C850E94550861E08C850E945508E0CFC4
:102D000061E083E00E94550860E083E00E94F507DF
:102D100062E070E080E090E00E94BD0860E08C8599
:102D20000E94F50760E08C850E9455087894809198
:102D3000680088608093680080917300846080934D
:102D400073008FEF80935207DF91CF91089561E078
:102D500083E00E94550861E083E00E94F50760E08F
:102D60008C850E94F50760E0C7CF70E060E088E6E0
:102D70009EE00E943B1610921C0C10921B0C80913E
:102D80001A0C8093B0008091190C8093B1000895C3
:102D900080911B0C90911C0C88569E4061F062E063
:102DA00070E088E69EE00E943B1688E69EE09093E5
:102DB0001C0C80931B0C86E990E0A0E0B0E08093AF
:102DC0006C0E90936D0EA0936E0EB0936F0E81EF0C
:102DD00098ED9093770E8093760E8091B00080935B
:102DE0001A0C8091B1008093190C1092B00086E00B
:102DF0008093B10008950F931F93CF93DF938C01BD
:102E000063E070E088E69EE00E943B1661E08091FE
:102E1000740E0E94F5078CE895E60197F1F760E0E3
:102E20008091740E0E94F5078CE496E40197F1F707
:102E3000D0E0C0E0D80114968D919C911597C817E9
:102E4000D90790F4ED91FC91309759F41092180C39
:102E5000E8E1FCE0608188E69EE00E94541521963E
:102E6000E9CFEC0FFD1FF6CF64E070E088E69EE04E
:102E7000DF91CF911F910F910C943B161F93CF932D
:102E8000DF93EC01162F63E070E00E943B16612F88
:102E9000CE010E94541564E070E0CE010E943B1602
:102EA00081E090E0DF91CF911F91089581E08093C0
:102EB0004E0B88E68093700B10924F0B1092710BA3
:102EC00060E08AE39EE00E94EF0D81E00E947A05B7
:102ED000811142C067E088E60E94D7051092060B78
:102EE0008093050B8AE39EE00E94A80D8F770E94D5
:102EF000590D8093FE0A8AE39EE00E94A80D0E946D
:102F0000590D8093FF0A8AE39EE00E94A80D8F7BF3
:102F10000E94590D8093000B8AE39EE00E94A80D49
:102F20008093010B8AE39EE00E94A80D0E94590D38
:102F30008093020B8AE39EE00E94A80D8F770E9487
:102F4000590D8093030B8AE39EE00E94A80D0E9416
:102F5000590D825E8093040B8091FE0A8093C10913
:102F60008091FF0A8093F10A8091000B8093C2093F
:102F70008091020B8093C5098091030B8093C60951
:102F80008091040B90E08E54984F9093C4098093E5
:102F9000C30962E370E080E090E00C94BD08CF9339
:102FA00091E090934E0B98E69093700B10924F0B1C
:102FB0001092710B682F8AE39EE00E94EF0D81E072
:102FC0000E947A0581110DC061E088E60E94D70554
:102FD0001092060B8093050B8AE39EE00E94A80DD9
:102FE000C82F8C2FCF9108951F93CF93DF9381E04B
:102FF00080934E0B88E68093700B10924F0B1092CB
:10300000710B60E08AE39EE00E94EF0DCEEFDAE004
:1030100028811AE0822F612F0E94994A682F660F3B
:10302000680F660F620F8AE39EE00E94EF0D298110
:10303000822F612F0E94994A682F660F680F660FD2
:10304000620F8AE39EE00E94EF0D2A81822F612F9A
:103050000E94994A682F660F680F660F620F8AE315
:103060009EE00E94EF0D6B818AE39EE00E94EF0DCF
:103070002C81822F612F0E94994A682F660F680F5A
:10308000660F620F8AE39EE00E94EF0D2D81822F72
:10309000612F0E94994A682F660F680F660F620FB2
:1030A0008AE39EE00E94EF0D2E812E51822F612F28
:1030B0000E94994A682F660F680F660F620F8AE3B5
:1030C0009EE00E94EF0D81E00E947A05C82F8FE0FC
:1030D0000E94CF17682F6F778FE00E941E0E8C2FF3
:1030E000DF91CF911F910895CF93DF93C82F8FE089
:1030F0000E94CF17C150DD0B21E030E001C0220F4C
:10310000CA95EAF7982F922351F02095622F6823F1
:103110008FE00E941E0E81E0DF91CF91089580E044
:10312000FBCFFC0101900020E9F73197AF01481B6C
:10313000590BBC018DE19CE00C946B068DEB91E08A
:103140000C949118CF93DF93FC01448155816081E9
:1031500071818DE19CE00E946B06EC010E949E183B
:103160008C0F9D1FDF91CF910895CF93DF930E9425
:103170004207EC010E949E188C0F9D1FDF91CF919A
:103180000895CF93DF930E943D07EC010E949E18A3
:103190008C0F9D1FDF91CF9108958F929F92AF92D8
:1031A000BF920F931F93CF93DF93CDB7DEB7A19755
:1031B0000FB6F894DEBF0FBECDBF19A2423008F49F
:1031C0004AE08E010F5D1F4F842E912CB12CA12C53
:1031D000A50194010E941E49E62FB901CA01EA30F7
:1031E000F4F4E05DD801EE938D01232B242B252BE5
:1031F00079F790E080E0109719F0CD010E949118C6
:10320000A1960FB6F894DEBF0FBECDBFDF91CF9170
:103210001F910F91BF90AF909F908F900895E95CA0
:10322000E1CF682F70E090E080E04AE00C94CD1888
:10323000CF93DF930E941119EC010E949E188C0F0E
:103240009D1FDF91CF910895CF92DF92EF92FF9271
:10325000CF93DF9397FF19C06B017C018DE20E9431
:103260003D07EC0166277727CB016C197D098E0994
:103270009F094AE00E94CD188C0F9D1FDF91CF91CE
:10328000FF90EF90DF90CF9008954AE0DF91CF91CB
:10329000FF90EF90DF90CF900C94CD18CF92DF92FB
:1032A000EF92FF92CF93DF930E94F0086B017C01B5
:1032B00020E1C20E27E2D21EE11CF11C1092C909C6
:1032C0001092C8090E94F0086C157D058E059F05B7
:1032D00060F58DE19CE00E94C9061816190694F766
:1032E00064E670E080E090E00E94BD088DE19CE023
:1032F0000E94C906D82EC1E0DAE0E090C809F0903B
:10330000C909DC1690F08DE19CE00E94A806DE9DC4
:103310009001DF9D300D1124C097280F391F309385
:10332000C9092093C809CF5FE8CF6091C80970919F
:10333000C909072E000C880B990B0E9424190E94C2
:103340009E186AE070E080E090E0DF91CF91FF90FE
:10335000EF90DF90CF900C94BD08CF93DF93BC012A
:1033600090E080E04AE00E94CD18EC010E949E1897
:103370008C0F9D1FDF91CF910895CF92DF92EF9236
:10338000FF92CF93DF9361E08EE00E94550860E0EA
:1033900088E10E94550861E08EE00E94F50784EE06
:1033A00093E00197F1F788E10E948608EC0160E064
:1033B0008EE00E94F507BE0190E080E022E0660FFB
:1033C000771F881F991F2A95D1F70E94E94723E3A9
:1033D00033E343E550E40E944A4820E030E048EC03
:1033E00052E40E944A4820E030EC4FEB54E40E9443
:1033F000824920E030ED4FE355E40E94EE490E94FF
:10340000604AEB01CB010E94AD19CE0164E670E089
:103410000E94A54AEB01BC0190E080E00E94E947D0
:1034200020E030E048EC52E40E94EE496B017C0160
:10343000BE0190E080E00E94E9479B01AC01C7011A
:10344000B6010E948249DF91CF91FF90EF90DF900B
:10345000CF900895CF93DF934AE00E94CD18EC01FE
:103460000E949E188C0F9D1FDF91CF910895CF93DE
:10347000DF93D0E0C0E0009719F00E949118EC01B2
:103480000E949E188C0F9D1FDF91CF9108958F92FF
:103490009F92AF92BF92CF92DF92EF92FF921F93D3
:1034A000CF93DF93CDB7DEB764970FB6F894DEBF46
:1034B0000FBECDBF6B017C0149015A0168E873E181
:1034C00080E090E00E940F10182F882309F410C2AA
:1034D000C0925C0ED0925D0EE0925E0EF0925F0E96
:1034E0008092600E9092610EA092620EB092630E76
:1034F00080E290E09093650E8093640E80E090E10E
:103500009093670E8093660EF8948FEF9FEFDC0127
:103510008093480E9093490EA0934A0EB0934B0EA1
:1035200080934C0E90934D0EA0934E0EB0934F0E81
:103530008093500E9093510EA093520EB093530E61
:103540008093540E9093550EA093560EB093570E41
:1035500060915C0E70915D0E80915E0E90915F0E99
:103560000E94C511882309F4C0C080905C0E909021
:103570005D0EA0905E0EB0905F0E6091600E709137
:10358000610E8091620E9091630E681979098A0923
:103590009B099695879577956795680D791D8A1D86
:1035A0009B1D0E94C511882309F49FC080915C0E69
:1035B00090915D0EA0915E0EB0915F0E898B9A8BFB
:1035C000AB8BBC8B8D879E87AF87B88B69897A89D7
:1035D0008B899C8960934C0E70934D0E80934E0E98
:1035E00090934F0ECD84DE84EF84F888C092480E0D
:1035F000D092490EE0924A0EF0924B0E0E94A11119
:103600006093500E7093510E8093520E9093530E10
:103610006B017C01CC2420EFD222FF246C157D05A8
:103620008E059F0509F0A6C16093540E7093550E48
:103630008093560E9093570E6091540E7091550ED4
:103640008091560E9091570E0E94AA046093540EDA
:103650007093550E8093560E9093570E80914C0E9A
:1036600090914D0EA0914E0EB0914F0E0097A04834
:10367000B10508F486C11092580E1092590E10929E
:103680005A0E10925B0E789480EC91E00E94371AEB
:103690000E949E186091480E7091490E80914A0ECA
:1036A00090914B0E0E94381560914C0E70914D0E0A
:1036B00080914E0E90914F0E0E9438158DE19CE046
:1036C0000E945D07812F64960FB6F894DEBF0FBE8F
:1036D000CDBFDF91CF911F91FF90EF90DF90CF9002
:1036E000BF90AF909F908F90089580915C0E9091C5
:1036F0005D0EA0915E0EB0915F0E898B9A8BAB8BA5
:10370000BC8BAE014B5F5F4F6FEFCE0141960E94C5
:10371000AC1281111DC080915C0E90915D0EA09144
:103720005E0EB0915F0E898B9A8BAB8BBC8BAE011A
:103730004B5F5F4F61E0CE0141960E94AC12811158
:1037400007C08FEF9FEFDC018D839E83AF83B88727
:103750002091640E3091650E8091600E9091610E03
:10376000A091620EB091630E821B930BA109B10967
:10377000898B9A8BAB8BBC8BAE01475F5F4F6FEF32
:10378000CE0141960E94AC12811107C08FEF9FEFCE
:10379000DC0189879A87AB87BC8789849A84AB844C
:1037A000BC8480915C0E90915D0EA0915E0EB091F4
:1037B0005F0E4D815E816F8178854F3F5F4F6F4F08
:1037C0007F4F09F18B208A208920809409F096C0D0
:1037D0008D879E87AF87B88BAE014F5F5F4F61E0EB
:1037E000CE010D960E94AC128823E1F12091640E67
:1037F0003091650E8091600E9091610EA091620EE5
:10380000B091630E9AC02091640E3091650E409184
:10381000600E5091610E6091620E7091630E421BBA
:10382000530B610971098B208A208920809409F447
:103830008DC0498B5A8B6B8B7C8B8D879E87AF8716
:10384000B88BAE014F5F5F4F6FEFCE0141960E9484
:10385000AC12882339F061E0CE010D960E9421134D
:103860008111B4CE89899A89AB89BC89C816D906D9
:10387000EA06FB06E1F58D859E85AF85B889C816F9
:10388000D906EA06FB0699F580E090E0A0E8B0E0F2
:1038900080934C0E90934D0EA0934E0EB0934F0E0E
:1038A0008093480E9093490EA0934A0EB0934B0E0E
:1038B000C092500ED092510EE092520EF092530EE2
:1038C00080E1D80EE11CF11CC092540ED092550E2E
:1038D000E092560EF092570E8FEF9FEFDC0180932F
:1038E000580E9093590EA0935A0EB0935B0E789495
:1038F00087ED91E00E94371A10E0E4CE19861A860F
:103900001B861C864FEF5FEFBA014D835E836F838A
:1039100078878D879E87AF87B88B61E0CE010D9643
:103920000E942113882309F49DCF2091640E3091C9
:10393000650E8D859E85AF85B889821B930BA10985
:10394000B109898B9A8BAB8BBC8B10C08D879E87FE
:10395000AF87B88B498B5A8B6B8B7C8B61E0CE0128
:103960000D960E942113882309F47CCF6FEFCE01BE
:10397000419674CF705F8F4F9F4F6627707F992756
:1039800053CE48E55EE061E08CE49EE00E94AC121C
:103990007ACECF92DF92EF92FF921F93CF93DF9375
:1039A0000E94F0086B017C0120E1C20E27E2D21ECA
:1039B000E11CF11C0E94F0086C157D058E059F0529
:1039C00040F58DE19CE00E94C9061816190694F78F
:1039D00064E670E080E090E00E94BD088DE19CE02C
:1039E0000E94C906EC01F82E10E08DE19CE00E94D7
:1039F000A8068D3039F08A3029F0E12FF0E0E65347
:103A0000F64F80831F5FF11680F7DD27C653D64F30
:103A100018828AEC99E0DF91CF911F91FF90EF908F
:103A2000DF90CF900C94371A0C9491180E9456177F
:103A300065E38BE00E941E0E68E18CE00E941E0E82
:103A400060E88DE00E941E0E85EF91E00E94141D3B
:103A500082E10E9411198CEA95E00E94141D83E214
:103A60000E94181962E370E080E090E00C94BD08B9
:103A7000CF93DF93482F5091F10A852F90E0E0918A
:103A8000F40AE4133BC0CE2FD0E08C0F9D1F6CE3F3
:103A900070E00E94B94ABE010E94B94AE69FE02D3B
:103AA0001124E093690720916907822F6AE00E9440
:103AB000994AC82FCC0FC80FCC0FC20F60E087E027
:103AC0000E941E0E6C2F88E00E941E0E60E889E0A6
:103AD0000E941E0E60E88AE00E941E0E87E092E0BF
:103AE0000E94141D809169070E94181962E370E01A
:103AF00080E090E0DF91CF910C94BD08840F911D80
:103B00008C3391053CF06CE370E00E94B94A8093DD
:103B10006907C9CF450F40936907C5CFEF92FF9260
:103B20000F931F93CF93DF937C018C01CAE0D0E009
:103B3000CE010E940849F80181938F012196CE3071
:103B4000D105B1F7C701DF91CF911F910F91FF9080
:103B5000EF9008950F931F93CF93DF9308E71BE037
:103B6000C8E0DBE0CE010E940849F80181938F0193
:103B70002196C83AFBE0DF07A9F788E79BE0DF91D1
:103B8000CF911F910F9108950F931F93CF93DF93C0
:103B90008C01EB010E9408498883C80101960E94AC
:103BA00008498983CE01DF91CF911F910F9108952C
:103BB000CF93DF93EB010E9408498883CE01DF9108
:103BC000CF9108950C9408490F931F93CF93DF93DF
:103BD000FC01048115810115110539F4FB011082E6
:103BE000DF91CF911F910F910895415051094017D6
:103BF000510708F48A01EB01FC0160817181A80181
:103C0000CE010E94034DC00FD11F1882E9CFCF9380
:103C1000DF93DC011496ED91FC916E177F0728F578
:103C20004115510511F19F01261B370B4217530710
:103C300008F49A01DB01EC0188819981E21BF30B06
:103C4000FD83EC83AF01461B570B260F371FBC01CA
:103C5000620F731F8A0F9B1F0E94034DE881F98139
:103C60008C819D81E80FF91F1082DF91CF9108951B
:103C70002F923F924F925F926F927F928F929F927C
:103C8000AF92BF92CF92DF92EF92FF920F931F936A
:103C9000CF93DF93CDB7DEB72A970FB6F894DEBF88
:103CA0000FBECDBFFC01698304811581C801875017
:103CB0009F4F6AEF70E00E94A54A662309F42AC16B
:103CC00029812A874F016150698790E080E0212C8B
:103CD000312C210133940115110509F41BC10B3F4F
:103CE000110550F15C013AEFA30EB11C0A5F1109F6
:103CF00066246394712C681A790A6A0C7B1C4985C6
:103D00004093830FA4E8BFE08A159B05D8F4F40123
:103D1000248135818217930738F420813181F9019C
:103D2000E80FF91F232B21F41092180CE8E1FCE0B6
:103D300020812D930196E8CF5801A80EB91E10E0FE
:103D400000E0D6CFF0907F0EF394F0927F0EC12C5E
:103D5000EE24E394EC0C8091820E8C1508F4F4C0F0
:103D60008091780E9091790EDC01ED91FC91008CA0
:103D7000F18DE02D6F2D09958091780E9091790E3F
:103D8000DC01ED91FC91028CF38DE02D40E860E0C8
:103D900009954A85662D83E89FE00E9424060E94CB
:103DA0001906BA85BF3F09F4D1C0E1E0EE1598F4D9
:103DB00080917B0E90917C0EA0917D0EB0917E0E35
:103DC0000196A11DB11D80937B0E90937C0EA09354
:103DD0007D0EB0937E0E0E94F00869837A838B83F8
:103DE0009C83C090800ED090810E0E94BD44A201A1
:103DF00091010E9440499B01AC01D6010E945F499C
:103E0000A20191010E9440492C0D3D1DCE2CC901FB
:103E1000B0E0A0E08D839E83AF83B8870E94F00856
:103E200029813A814B815C81621B730B840B950B5A
:103E30002D813E814F81588562177307840795074E
:103E400008F086CF8091780E9091790EDC01ED918B
:103E5000FC910280F381E02D09958823F9F280918D
:103E6000780E9091790EDC01ED91FC910480F58142
:103E7000E02D50E040E070E060E00995882371F2A9
:103E80008091780E9091790EDC01ED91FC9100A06B
:103E9000F1A1E02D0995D82E8091780E9091790EA0
:103EA000DC01ED91FC91068CF78DE02D0995782EC3
:103EB0008091780E9091790EDC01ED91FC9102A039
:103EC000F3A1E02D0995E82E8091780E9091790E5E
:103ED000DC01ED91FC9104A0F5A1E02D0995BA85D6
:103EE000BD1108C090917A0E971104C087FF02C0DF
:103EF000FE1461F187FD92CFED2DF0E0E858F14F0F
:103F000083858E118BCF4D2D6E2D88E79EE00E940C
:103F10005F0B84CF81E02A960FB6F894DEBF0FBE08
:103F2000CDBFDF91CF911F910F91FF90EF90DF9068
:103F3000CF90BF90AF909F908F907F906F905F9049
:103F40004F903F902F90089580E0E5CFE985E150B4
:103F5000E987C501C0CEDF92EF92FF920F931F93C6
:103F6000CF93DF93FC01E480F580E114F10451F478
:103F70008FEF9FEFDF91CF911F910F91FF90EF9007
:103F8000DF900895EC010190F081E02DEE0DFF1D12
:103F9000D0801082088119816EE770E0C8010E940C
:103FA000124D0E0D1F1DF801D082009709F32881D4
:103FB0003981821B930BDECFCF93DF93EC01888195
:103FC0009981009711F00E94724B198218821D820C
:103FD0001C821B821A82DF91CF910895FC0180819F
:103FE00091810C94724B0E94DC4C0F931F93CF93E2
:103FF000DF93EC0188819981009759F02A813B81F8
:104000002617370730F081E0DF91CF911F910F9194
:1040100008958B016F5F7F4F0E94FB4B009759F013
:10402000998388831B830A832C813D81232B59F735
:10403000FC011082E8CF80E0E7CFEF92FF920F9370
:104040001F93CF93DF936115710541F480E0DF91F9
:10405000CF911F910F91FF90EF9008954115510559
:10406000B1F07B01EC010C811D81040F151FB8011B
:104070000E94F51F882351F3288139818C819D810D
:10408000B701820F931F0E94FC4C1D830C8381E0BB
:10409000DECF0F931F93CF93DF9300D000D0CDB727
:1040A000DEB74AE08E010F5F1F4FB80190E00E941B
:1040B0002745F80101900020E9F73197AF01401B37
:1040C000510BB80187EA91E10E941D200F900F90DB
:1040D0000F900F90DF91CF911F910F9108950F9343
:1040E0001F93CF93DF93CDB7DEB764970FB6F894E5
:1040F000DEBF0FBECDBF8E010F5F1F4F22E044E039
:104100000E945344FC0101900020E9F73197AF0170
:10411000481B590BBC0187EA91E10E941D2064965F
:104120000FB6F894DEBF0FBECDBFDF91CF911F91C8
:104130000F910895CF93DF9300D0CDB7DEB7698399
:104140001A8241E050E0BE016F5F7F4F0E941D2048
:104150000F900F90DF91CF910895FB010190002007
:10416000E9F73197AF01461B570B0C941D20EF92D6
:10417000FF920F931F93CF93DF93EC017B018A0192
:10418000BA010E94F51F81110BC0CE010E94DC1FF5
:10419000CE01DF91CF911F910F91FF90EF90089585
:1041A0001D830C83B701888199810E94FC4CF0CF5C
:1041B000FB0101900020E9F73197AF01461B570B37
:1041C0000C94B720CF93DF93EC01FB018617970780
:1041D00049F0608171816115710541F0448155811B
:1041E0000E94B720CE01DF91CF9108950E94DC1F7D
:1041F000F9CFCF93DF9300D000D000D0CDB7DEB79A
:104200001A8219821C821B821E821D8267EA71E15A
:10421000CE0101960E94E2204091B1115091B2115D
:104220006091AD117091AE11CE0101960E941D20DA
:10423000811104C0CE0101960E94DC1FBE016F5F98
:104240007F4F8DEA91E10E94E220CE0101960E940B
:10425000EE1F64E670E080E090E00E94BD088DEA09
:1042600091E10E94A21862E370E080E090E00E9479
:10427000BD0826960FB6F894DEBF0FBECDBFDF9106
:10428000CF910895FC01118210821382128215824F
:104290001482FB0101900020E9F73197AF01461B22
:1042A000570B0C94B7201F93CF93DF9300D000D00F
:1042B00000D0CDB7DEB76FEB71E0CE0101960E9462
:1042C00042218BE598E00E944207809110010E94F4
:1042D000C11887E192E00E94141D8DE19CE00E94CC
:1042E000C906892BD1F38DE19CE00E94A806182F06
:1042F00080ED810F8A3090F0812F8F7D81548A313B
:1043000068F01A3021F08BE292E00E94371A8DE1BA
:104310009CE00E94C906892BD1F3E5CF812F0E9432
:10432000C1188BE692E00E94371A6FEB71E0CE0164
:1043300001960E94D82060911001CE0101960E9442
:104340009A2060E872E0CE0101960E94AD20612FB4
:10435000CE0101960E949A2061EA74E0CE01019696
:104360000E94AD20CE0101960E94FB166CE271E026
:1043700080E090E00E94BD0888E69EE00E94DC1587
:10438000892BA1F088E69EE00E94DC15892B51F074
:1043900088E69EE00E94AF15682F8DE19CE00E94A8
:1043A000F906F0CF82E892E00E94371ACE0101961A
:1043B0000E94EE1F26960FB6F894DEBF0FBECDBF4B
:1043C000DF91CF911F910895CF93DF9300D000D05C
:1043D00000D0CDB7DEB70E94C81664E670E080E07A
:1043E00090E00E94BD086FEB71E0CE0101960E9443
:1043F000422160917F07CE0101960E949A206BE8CE
:1044000072E0CE0101960E94AD20CE0101960E947D
:10441000FB166CE271E080E090E00E94BD0888E647
:104420009EE00E94DC15892B29F088E69EE00E9420
:10443000AF15F5CF64E170E080E090E00E94BD0828
:104440000E94B51664E170E080E090E00E94BD0833
:10445000CE0101960E94EE1F26960FB6F894DEBF9D
:104460000FBECDBFDF91CF910895CF93DF9300D0E2
:1044700000D000D0CDB7DEB70E94C81664E670E069
:1044800080E090E00E94BD086FEB71E0CE010196E4
:104490000E94422160917F07CE0101960E949A20DE
:1044A0006FE872E0CE0101960E94AD20CE01019628
:1044B0000E94FB166CE271E080E090E00E94BD0873
:1044C00088E69EE00E94DC15892B29F088E69EE0B4
:1044D0000E94AF15F5CF64E170E080E090E00E94AB
:1044E000BD080E94B51664E170E080E090E00E9493
:1044F000BD08CE0101960E94EE1F26960FB6F894D5
:10450000DEBF0FBECDBFDF91CF910895AF92BF92B6
:10451000CF92DF92EF92FF920F931F93CF93DF938F
:10452000CDB7DEB7E9970FB6F894DEBF0FBECDBFAB
:10453000082F10927607109275071092750E6FEB88
:1045400071E0CE0185960E944221602FCE018596B2
:104550000E949A2063E972E0CE0185960E94AD2008
:10456000CE0185960E94FB1665E372E080E090E044
:104570000E94BD0888E69EE00E94DC15B82EF12C52
:10458000E12C84E2A82E1091C009C12ED12CEB148D
:1045900040F588E69EE00E94AF15182F682F89EB42
:1045A00091E10E949A2068E070E080E090E00E9433
:1045B000BD081A3091F01D3081F0AC9CF001AD9C2B
:1045C000F00D1124E058F84FEE0DFF1D108368E048
:1045D00070E080E090E00E94BD082FEFE21AF20A3E
:1045E000D2CF85E0E6E9F2E0DE019B9601900D92E4
:1045F0008A95E1F785E0EBE9F2E0DE01D0960190E3
:104600000D928A95E1F785E0E0EAF2E0DE01D596C9
:1046100001900D928A95E1F734E2139FC0011124B5
:104620009C012058384F7901BE01655D7F4FC9015B
:104630000E94670F882309F181E08093F20A0093BA
:104640007F071F5F1093C0098DE19CE00E945D070A
:10465000CE0185960E94EE1FE9960FB6F894DEBF54
:104660000FBECDBFDF91CF911F910F91FF90EF90C3
:10467000DF90CF90BF90AF900895BE01605D7F4FF7
:10468000C7010E94670F882319F000937807D9CFDC
:10469000BE016B5C7F4FCE0101960E94670F88239D
:1046A00081F200937707CDCF0F931F93CF93DF93C2
:1046B00000D000D000D0CDB7DEB7182F6FEB71E07F
:1046C000CE0101960E9442216FEB71E0CE0101966E
:1046D0000E94D820612FCE0101960E949A2061EAA3
:1046E00074E0CE0101960E94AD2003E010E0CE01FF
:1046F00001960E94FB1664E670E080E090E00E9464
:10470000BD0888E69EE00E94DC15181619064CF0DC
:1047100064E670E080E090E00E94BD08015011095D
:1047200031F788E69EE00E94DC1510927607109221
:1047300075071092750E11E002970CF410E0CE018F
:1047400001960E94EE1F812F26960FB6F894DEBFC9
:104750000FBECDBFDF91CF911F910F910895CF92E2
:10476000DF92EF92FF920F931F93CF93DF93EC01B1
:104770007B018A01E881F9810280F381E02D0995AE
:10478000D82E882329F1E114F104D1F00115110587
:10479000B9F0CFB6F8948A8D8350990BF801208137
:1047A000281719061CF08A8D84508083F8014081F7
:1047B00050E0BE01615E7F4FC7010E94E14CCFBE59
:1047C0008FB7F894FE01E65EFE4F10821A8E8FBFFF
:1047D0008D2DDF91CF911F910F91FF90EF90DF9082
:1047E000CF900895EF92FF920F931F93CF93DF9393
:1047F00000D01F92CDB7DEB78C010E94410BE82E8E
:1048000081110CC0E12C8E2D0F900F900F90DF9135
:10481000CF911F910F91FF90EF900895F801808D37
:104820008A3009F47EC08B3009F47DC022E0F22E7C
:10483000823041F740E861E0C8010E9417096AE050
:1048400070E080E090E00E94BD0861E0C8010E9435
:10485000570A8038B9F660E0F801808D0E9455084B
:10486000F801818D8F3F49F48091D70A843050F64A
:1048700091E0980F9093D70A818FF801818DE82FEE
:10488000F0E0EE0FFF1FE852F54F1183008368E35D
:104890007BE0882349F06FE27BE0813029F08230B1
:1048A00009F0B0CF66E27BE08F2D0E94490640E020
:1048B0006EE0C8010E94170940E06FE0C8010E9445
:1048C0001709C8010E946F0943E050E06DE678E0E7
:1048D000CE0101960E941E4549816DE1C8010E94EA
:1048E00017094A816EE1C8010E9417094B8166E2EF
:1048F000C8010E94170940E060E2C8010E94170940
:1049000048E061E2C8010E94170940E050EC64E60B
:1049100074E4C8010E9483096DE0C8010E94470940
:1049200072CFF12C87CFFF24F39484CF0E94AA1D6D
:1049300064E670E080E090E00E94BD08E8E7FBE0FC
:1049400080EADF011D928A95E9F708952F923F9240
:104950004F925F926F927F928F929F92AF92BF928F
:10496000CF92DF92EF92FF920F931F93CF93DF933B
:10497000CDB7DEB764970FB6F894DEBF0FBECDBFDC
:10498000CDB6DEB6DE86CD860E94F920E090B1116C
:10499000F090B211FC8AEB8A2DB73EB72E193F0971
:1049A0000FB6F8943EBF0FBE2DBF8DB79EB70196D0
:1049B0005C016091AD117091AE11A7010E94E14CB4
:1049C0008091660E9091670E06978E159F0530F5C3
:1049D00085EA92E00E94371A0E94ED0FED84FE8472
:1049E0000FB6F894FEBE0FBEEDBE64960FB6F894F7
:1049F000DEBF0FBECDBFDF91CF911F910F91FF9012
:104A0000EF90DF90CF90BF90AF909F908F907F906E
:104A10006F905F904F903F902F9008952DB63EB6C7
:104A20004090580E5090590E60905A0E70905B0E48
:104A30009FEF491A590A690A790AEB88FC88A6E0AF
:104A4000EA0EF11C0091640E1091650EC701B801C9
:104A50000E94A54A009709F45DC10E0D1F1D081B99
:104A6000190BEDB7FEB7E01BF10B0FB6F894FEBFC4
:104A70000FBEEDBF2DB73EB72F5F3F4F4901ADB71A
:104A8000BEB711964D925D926D927C921497F9018A
:104A9000F582E4828DB79EB707964B895C89B50194
:104AA0000E94E14CA8014E195F0970E060E0C4016A
:104AB0008E0D9F1D0E94EA4C2801712C612C4091A3
:104AC000500E5091510E6091520E7091530EC09045
:104AD000600ED090610EE090620EF090630ECF8673
:104AE000D88AE98AFA8AD301C801840F951FA61FC4
:104AF000B71FE091460EF091470EC816D906EA0698
:104B0000FB0608F009C15601A41AB50A7801EA1893
:104B1000FB0885019401CF010E94DD1064EF71E074
:104B200080E090E00E940F1094012A0D3B1D4091FF
:104B30005C0E50915D0E60915E0E70915F0E87016C
:104B40008091460E9091470E0E94DD108090500E8D
:104B50009090510EA090520EB090530E8091580E2E
:104B60009091590EA0915A0EB0915B0E0196A11D25
:104B7000B11D8093580E9093590EA0935A0EB09386
:104B80005B0EC301B201680D791D8A1D9B1D0E9439
:104B9000AA046093500E7093510E8093520E90931E
:104BA000530E705F8F4F9F4F6627707F99270E942B
:104BB000AA042B013C010E94C511811129C041E0CA
:104BC000C301B2010E948710C301B201705F8F4F11
:104BD0009F4F6627707F99270E94AA046D837E836A
:104BE0008F839887AE014F5F5F4F61E0CE010596DE
:104BF0000E94AC12882361F08D819E81AF81B885BF
:104C00008093480E9093490EA0934A0EB0934B0E9A
:104C10004092540E5092550E6092560E7092570E5E
:104C200080924C0E90924D0EA0924E0EB0924F0E6E
:104C30008091480E9091490EA0914A0EB0914B0E72
:104C40000097A048B10540F08092480E9092490E1E
:104C5000A0924A0EB0924B0E0FB6F8943EBE0FBE15
:104C60002DBE60914C0E70914D0E80914E0E909124
:104C70004F0E0E9475117C0160914C0E70914D0E8B
:104C800080914E0E90914F0E0E9475118C010097ED
:104C900069F02091640E3091650EB9010E94A54A19
:104CA000009721F0020F131F081B190B8AEB92E0EB
:104CB0000E94141D6091580E7091590E80915A0EE9
:104CC00090915B0E0E942A1A8AEC92E00E94141DB9
:104CD0008DEA91E10E94A21881ED92E00E94141DDC
:104CE000CB88DC88B60190E080E04AE00E94CD18D5
:104CF0008DED92E00E94141DB70190E080E04AE043
:104D00000E94CD188AEE92E00E94141DC8010E94F4
:104D1000AD1962CE8701A5CE9401CF0115CF2F9298
:104D20003F924F925F926F927F928F929F92AF923B
:104D3000BF92CF92DF92EF92FF920F931F93CF9388
:104D4000DF93CDB7DEB7A7970FB6F894DEBF0FBEDF
:104D5000CDBF2DB73EB73EA32DA30E94AA1D64E18F
:104D600070E080E090E00E94BD080E94C81664EFE9
:104D700071E080E090E00E94BD086FEB71E08DEA89
:104D800091E10E94D82000E088EE882E83E0982EE2
:104D9000C090C0090C1508F0F2C234E2309FC00187
:104DA0001124DC01A058B84F7D011C9100937A07B3
:104DB0006FEB71E083EB91E10E94D82064E170E039
:104DC00080E090E00E94BD08B70183EB91E10E9472
:104DD000AD20E8E7FBE080E0D12CC81649F09081D7
:104DE000191303C08AA3DD24D3948F5F3A96F5CFBD
:104DF000FE013196BAA12AE0B29FA001112481E000
:104E000090E07F019C0121503109DA01A80FB91F00
:104E1000A858B44F6C91662309F45CC06193019665
:104E20008A30910579F76EE783EB91E10E949A2031
:104E3000B701D11002C06CE173E083EB91E10E94F5
:104E4000AD206FEB71E0CE014C960E944221612FA4
:104E5000CE014C960E949A206CEF72E0CE014C96E7
:104E60000E94AD20CE014C960E94FB1664E670E0D5
:104E700080E090E00E94BD0888E69EE00E94DC157C
:104E8000181619060CF005C1ADB6BEB6B1E0B09368
:104E9000790788E69EE00E94DC15782EEDB7FEB714
:104EA000E81BF1090FB6F894FEBF0FBEEDBF2DB79A
:104EB0003EB72F5F3F4F6901622E79018E2D861913
:104EC000871568F488E69EE00E94AF15D7018D93A0
:104ED0007D01F4CF2E0D3F1DD9011C92A4CFF60108
:104EE0008381082E000C990BC097889D9001899DA5
:104EF000300D989D300D1124309374072093730763
:104F00000FB6F894BEBE0FBEADBE60917307709130
:104F10007407072E000C880B990B0E94BD08109295
:104F20007607109275071092750E62E370E080E0CC
:104F300090E00E94BD0880917907882309F406C299
:104F40002DB73EB73CA32BA36FEB71E0CE01469685
:104F50000E944221612FCE0146960E949A206FEF57
:104F600072E0CE0146960E94AD20CE0146960E9488
:104F7000FB1664EF71E080E090E00E94BD0888E6D7
:104F80009EE00E94DC15782E7C01FF24270131E091
:104F9000431A51088DB79EB78E199F090FB6F89422
:104FA0009EBF0FBE8DBFADB7BEB711966D01B5E008
:104FB000B71508F0B2C12DB63EB66C2C560188E686
:104FC0009EE00E94AF15F50181935F016FE070E0F4
:104FD00080E090E00E94BD088A2D8619871578F33D
:104FE0002DB73EB72E193F090FB6F8943EBF0FBE3E
:104FF0002DBF8DB79EB701965C01609078078091B8
:105000007F07181711F016114BC09FEFC91AD90A64
:10501000AFA27501D6018D916D01F70181937F01DA
:105020006FE070E080E090E00E94BD088E2DFFA14F
:105030008F1B871578F3DA2C75018E2D8D19841549
:1050400008F059C0F701C1907F0185ED8C0D8035C6
:10505000A0F7FBE2CF1619F02DE2C21242C06EE7B4
:1050600083EB91E10E949A2064E170E080E090E09F
:105070000E94BD083DE2C312E0CF6DE283EB91E1F7
:105080000E949A2064E170E080E090E00E94BD08F8
:10509000D4CF90927407809273071092790735CF1E
:1050A000712C22E0E21AF108872D90E08E159F0501
:1050B0008CF4F501E80FF91F8C0D9D1DDC01119694
:1050C0008C91808364E170E080E090E00E94BD08F4
:1050D0007394EACF64E170E080E090E00E94BD0844
:1050E000AACF6C2D83EB91E10E949A2069E170E0D8
:1050F00080E090E0CBCF161509F4B2C080917F0715
:10510000181709F4ADC080917707181709F4A8C0E3
:105110004DB65EB66FEB71E0CE0140960E94422123
:10512000612FCE0140960E949A2063E073E0CE0189
:1051300040960E94AD20CE0140960E94FB1664EF7F
:1051400071E080E090E00E94BD0888E69EE00E9449
:10515000DC157C01FF246701A2E0CA1AD108EDB773
:10516000FEB7EC19FD090FB6F894FEBF0FBEEDBFF8
:105170002DB73EB72F5F3F4F59018630E8F010E062
:1051800031E0E31AF108612E712C6E147F04A4F44F
:1051900088E69EE00E94AF158D3061F08A3051F0B4
:1051A000F501E60DF71D80836FE070E080E090E090
:1051B0000E94BD081F5FE7CF6FEB71E0CE010A963A
:1051C0000E94422111E0812F90E08C159D05A4F4EE
:1051D0008A0D9B1DDC016C916B3261F0CE010A9649
:1051E0000E949A2064E170E080E090E00E94BD0897
:1051F0001F5FE9CF6EE7F2CFCE010A960E94AB1F88
:105200004E85481B50E0BC017727CE010A960E94CC
:10521000071ECE010A960E94AB1FAC01552770E015
:1052200060E0CE010A960E94071E4E855F856A8562
:105230007B8583EB91E10E941D2064E170E080E0BA
:1052400090E00E94BD08CE010A960E94EE1FCE019A
:1052500040960E94EE1F0FB6F8945EBE0FBE4DBE84
:105260000FB6F8943EBE0FBE2DBECE0146960E94EC
:10527000EE1FEBA1FCA10FB6F894FEBF0FBEEDBF71
:105280006CE271E080E090E00E94BD081092760729
:10529000109275071092750E62E370E080E090E066
:1052A0000E94BD0810927607109275071092750E35
:1052B00062E370E080E090E00E94BD081B861A86E1
:1052C0001D861C861F861E8663EB71E1CE010A9641
:1052D0000E94E2206EE7CE010A960E949A20811178
:1052E00004C0CE010A960E94DC1F4E855F856A8548
:1052F0007B858DEA91E10E941D20CE010A960E94D5
:10530000EE1F64E670E080E090E00E94BD08CE01F0
:105310004C960E94EE1F0F5F3BCD8091770761E1B5
:1053200073E0181771F0809178076BE173E018173C
:1053300041F080917F0766E173E0181711F067E094
:1053400073E083EB91E10E94AD208FCF80917707CE
:1053500061E173E0181771F0809178076BE173E0F9
:10536000181741F080917F0766E173E0181711F07C
:1053700067E073E083EB91E10E94AD2081CF8091E3
:10538000B1119091B2112DB73EB7281B390B0FB652
:10539000F8943EBF0FBE2DBF0DB71EB70F5F1F4F56
:1053A00062E370E080E090E00E94BD084091B1119E
:1053B0005091B2114115510529F0B8018DEA91E1E2
:1053C0000E94E41D62E370E080E090E00E94BD086E
:1053D000E091B111F091B211E00FF11F108262E380
:1053E00070E080E090E00E94BD08B801CE01019617
:1053F0000E9442218091AD119091AE11009709F465
:105400004DC069817A816115710509F445C04091EB
:10541000AF115091B0112D813E8142175307E0F139
:105420000E94FC4C8D819E819093B2118093B111AA
:105430001E821D82CE0101960E94EE1F62E370E083
:1054400080E090E00E94BD080E94B51662E370E023
:1054500080E090E00E94BD088DA19EA10FB6F89457
:105460009EBF0FBE8DBFA7960FB6F894DEBF0FBECE
:10547000CDBFDF91CF911F910F91FF90EF90DF9003
:10548000CF90BF90AF909F908F907F906F905F90E4
:105490004F903F902F9008950E94724B89819A817E
:1054A0009093AE118093AD118B819C819093B0113C
:1054B0008093AF118D819E819093B2118093B11131
:1054C0001A8219821C821B82B3CF3F924F925F9245
:1054D0006F927F928F929F92AF92BF92CF92DF9204
:1054E000EF92FF920F931F93CF93DF93CDB7DEB769
:1054F000ADB6BEB60E94C81664E670E080E090E0EB
:105500000E94BD0887E991E00E94B5180E949E188C
:10551000E8E5F7E081E697E011928E179F07E1F743
:1055200062E370E080E090E00E94BD0810E3812F0C
:105530000E945423882319F0812F0E949A0F1F5F25
:105540001A33A9F711E6812F0E945423882319F0FA
:10555000812F0E949A0F1F5F1B37A9F711E4812F3B
:105560000E945423882319F0812F0E949A0F1F5FF5
:105570001B35A9F764E170E080E090E00E94BD086F
:1055800010E3812F0E948D0F882319F0812F0E9434
:1055900086221F5F1A33A9F711E6812F0E948D0F13
:1055A000882319F0812F0E9486221F5F1B37A9F7DD
:1055B00011E4812F0E948D0F882319F0812F0E9402
:1055C00086221F5F1B35A9F78DB69EB680E591E058
:1055D0000E94D70F60E087E10E94F507000061E0BC
:1055E00087E10E94F5070E94AC0F62E370E080E063
:1055F00090E00E94BD0840E060E070E180E090E053
:105600000E94871062E370E080E090E00E94BD0895
:10561000C090BD11D090BE118DB79EB78C199D0959
:105620000FB6F8949EBF0FBE8DBF01967C01C114CA
:10563000D10431F0A601BC0189EB91E10E94E41D87
:1056400080915C0E90915D0EA0915E0EB0915F0E08
:1056500081309041A105B10568F48091600E909170
:10566000610EA091620EB091630E81309041A10550
:10567000B10560F48601970140E050E160E070E020
:105680008091460E9091470E0E94DD106CE271E011
:1056900080E090E00E94BD080D2C000CEE08FF0891
:1056A00080E1D80EE11CF11CC0925407D09255073E
:1056B000E0925607F09257076AE070E080E090E0D1
:1056C0000E94BD08412C80E1582E612C712C4C1495
:1056D0005D046E047F0440F50091460E1091470E64
:1056E00040E063E0C8010E945F10862D0E94CD0F4C
:1056F000852D0E94CD0F842D0E94CD0F80E00E9449
:10570000CD0F382EC8010E94BD0F832D0E943D078A
:1057100068E070E080E090E00E94BD089FEF491AC9
:10572000590A690A790AD3CF64E170E080E090E019
:105730000E94BD080E94ED0F0FB6F8949EBE0FBEEA
:105740008DBE62E370E080E090E00E94BD080E94A0
:105750009E180E949E1882E991E00E94B51862E3AB
:1057600070E080E090E00E94BD080E94B5161092A3
:10577000E70A0FB6F894BEBE0FBEADBEDF91CF9163
:105780001F910F91FF90EF90DF90CF90BF90AF905F
:105790009F908F907F906F905F904F903F90089573
:1057A0008F929F92AF92BF92CF92DF92EF92FF9231
:1057B0000F931F93CF93DF93CDB7DEB72E970FB61E
:1057C000F894DEBF0FBECDBF0E94BD196093F60AEC
:1057D0007093F70A8093F80A9093F90A82E10E9485
:1057E000CF17182F81E10E94CF17612F782F77FFF5
:1057F00002C0615C7F4F86E0759567958A95E1F7F9
:10580000072E000C880B990B0E94EB4720E030E03C
:1058100040E85EE30E944A4860937B0770937C07F0
:1058200080937D0790937E0761E08CE10E9455088C
:105830008E010F5F1F4FB80180E390E00E94C41DEE
:1058400089819A81019679F4BE01625F7F4F80E180
:1058500090E00E94D81D8E85853409F438C188EE09
:1058600093E09A83898361E08CE10E94F50784EEDE
:1058700093E00197F1F70E94AD0E4B015C0160E0EF
:105880008CE10E94F50720E030E048EC52E4C501CD
:10589000B4010E944A480E94604ACB0164E670E06D
:1058A0000E94A54A7C01C501B4010E94604A44E6F9
:1058B000469F9001479F300D11242E0D3F1DA8EEED
:1058C000B3E00E94724929813A8150E040E00E9491
:1058D0001E4969010E94AD0E4B015C016FEB71E046
:1058E00087EA91E10E94D82064E170E080E090E0D6
:1058F0000E94BD0864E071E087EA91E10E94AD205A
:105900006EE787EA91E10E949A2062E77BE087EAEE
:1059100091E10E94AD206EE787EA91E10E949A2012
:105920006091ED0A7091EE0A8091EF0A9091F00A71
:105930002AE0A8010E944145F80101900020E9F702
:105940003197AF01401B510BB80187EA91E10E94EA
:105950001D206EE787EA91E10E949A206091F60A85
:105960007091F70A8091F80A9091F90A0E946F20CD
:105970006EE787EA91E10E949A2060917B0770911F
:105980007C0780917D0790917E070E946F206EE7D3
:1059900087EA91E10E949A204AE0B801C6010E947C
:1059A0006345F80101900020E9F73197AF01401BF2
:1059B000510BB80187EA91E10E941D206EE787EA4A
:1059C00091E10E949A20C501B4010E946F206EE708
:1059D00087EA91E10E949A204AE0B8018091C309C8
:1059E0009091C4090E942745F80101900020E9F731
:1059F0003197AF01401B510BB80187EA91E10E943A
:105A00001D206DE287EA91E10E949A208091C609EB
:105A10000E9449206DE287EA91E10E949A208091DC
:105A2000C5090E9449206FE587EA91E10E949A200A
:105A30008091C2090E9449206AE387EA91E10E94AD
:105A40009A201091F10A1A3028F460E387EA91E174
:105A50000E949A20812F0E9449206AE387EA91E1FF
:105A60000E949A201091C1091A3028F460E387EA55
:105A700091E10E949A20812F0E9449206FE587EAD8
:105A800091E10E949A2060E071E087EA91E10E9432
:105A9000AD206EE787EA91E10E949A2062E370E010
:105AA00080E090E00E94BD082E960FB6F894DEBF0D
:105AB0000FBECDBFDF91CF911F910F91FF90EF905F
:105AC000DF90CF90BF90AF909F908F90089584E625
:105AD00090E0C7CE2F923F924F925F926F927F924B
