:100000000C9448050C9473400C9448400C941D408B
:100010000C94F2420C9472050C9472050C940E43ED
:100020000C9472050C9472050C9472050C94720574
:100030000C9472050C949E400C9472050C947205FD
:100040000C9472050C9472050C94D33F0C947205B9
:100050000C949E3F0C94743F0C9472050C947205A2
:100060000C9472050C9472050C94CE410C9472059C
:100070000C9472050C9472050C9472050C94720524
:100080000C9472050C9472050C94720500407A1061
:10009000F35A00A0724E18090010A5D4E80000E839
:1000A0007648170000E40B54020000CA9A3B000097
:1000B00000E1F505000080969800000040420F0026
:1000C0000000A08601000000102700000000E803E7
:1000D000000000006400000000000A0000000000B2
:1000E0000100000000002C76D888DC674F0823DF71
:1000F000C1DFAE59E1B1B796E5E3E453C63AE65144
:10010000997696E8E6C28426EB898C9B62ED407C6A
:100110006FFCEFBC9C9F40F2BAA56FA5F490055A06
:100120002AF75C936B6CF9676DC11BFCE0E40D472B
:10013000FEF520E6B500D0ED902E0300943577054E
:100140000080841E080000204E0A000000C80C3306
:100150003333330F986E12831141EF8D2114893B95
:10016000E65516CFFEE6DB18D1844B381BF77C1D15
:10017000901DA4BBE424203284725E228100C9F168
:1001800024ECA1E53D276364696E6F707375785840
:100190005B00446F6E65005363616E6E696E67202D
:1001A000666F72205344492D31322073656E736F30
:1001B00072732E2E2E002020696E707574206D696A
:1001C0006E7574653A20002020696E707574206821
:1001D0006F75723A20002020696E70757420796501
:1001E00061723A20002020696E7075742064617914
:1001F0003A20002020696E707574206D6F6E7468EF
:100200003A2000456E7465722074686520646174DC
:100210006520616E642074696D6520696E20436F8E
:100220006F7264696E6174656420556E697665727B
:1002300073616C2054696D652028555443293A2018
:100240000044617461206C6F6767696E67206F6E30
:100250006C79206D6F64650020202020456E7465E8
:1002600072204761746577617920726164696F20DB
:1002700049443A200041726520796F752075736991
:100280006E67206120476174657761793F20287926
:100290002F6E293A200044656661756C7420726186
:1002A00064696F204944206163636570746564000C
:1002B000526164696F20494420757064617465649B
:1002C0000020456E746572206E65772072616469E6
:1002D0006F2049443A2000576F756C6420796F7520
:1002E000206C696B6520746F206368616E676520A0
:1002F00074686520726164696F2049442066726F7A
:100300006D207468652064656661756C7420766123
:100310006C75653F2028792F6E293A2000456E7450
:100320006572206E6577206D6561737572656D65A8
:100330006E7420696E74657276616C28657665727C
:10034000792031302C2031352C2032302C203330A4
:100350002C206F72203630206D696E73293A200090
:100360004552524F523A206D696E696D756D20315C
:1003700035206D696E75746520696E74657276617D
:100380006C20726571756972656420776974682084
:1003900052482073656E736F722E00496E76616CE1
:1003A000696420696E74657276616C2E20456E7486
:1003B0006572206D6561737572656D656E74206917
:1003C0006E74657276616C2028657665727920316D
:1003D000302C2031352C2032302C2033302C206F23
:1003E00072203630206D696E73293A2000456E7494
:1003F0006572206D6561737572656D656E742069D7
:100400006E74657276616C2028657665727920312C
:10041000302C2031352C2032302C2033302C206FE2
:1004200072203630206D696E73293A20005375634F
:1004300063657373004164647265737320636861FC
:100440006E6765206661696C6564004375727265EC
:100450006E7420616464726573733A2000202045D5
:100460006E74657220612050726F6A6563742049F2
:10047000442028757020746F203520636861726194
:1004800063746572732C2065783A20505341293A81
:100490002000457869740044656275672073746153
:1004A00074656D656E7473206F6666004465627571
:1004B000672073746174656D656E7473206F6E0070
:1004C0005475726E2064656275672073746174651B
:1004D0006D656E7473206F6E3F2028792F6E293AF8
:1004E000200044656275672073746174656D656E84
:1004F0007473206F6E004465627567207374617455
:10050000656D656E7473206F6666005475726E203B
:1005100064656275672073746174656D656E74736C
:10052000206F66663F2028792F6E293A200041729D
:100530006520796F75207375726520796F752077E6
:10054000616E7420746F20657261736520616C6CDC
:1005500020646174612073746F72656420696E2019
:100560006D656D6F72793F2028792F6E293A2000D2
:10057000496E76616C696420696E7075742E2052C4
:10058000657475726E696E6720746F206D656E7527
:100590002E00456E7465722063686F6963653A204A
:1005A00000202074202D2D3E205072696E74206C26
:1005B0006174657374206C6F677300202061202D57
:1005C0002D3E205072696E7420616C6C20746865D9
:1005D0002064617461005072696E7420646174619A
:1005E00020746F2073637265656E3A2000546573E2
:1005F00074206D6561737572656D656E74733A0014
:10060000456E7465722073656E736F7220646570D9
:10061000746820696E20636D2E2055736520272B2A
:1006200027206F7220272D2720746F20696E646940
:10063000636174652061626F7665206F7220626508
:100640006C6F7720736F696C207375726661636578
:100650003A00456E74657220636F6E6669677572E5
:100660006174696F6E20737472696E673A2000520C
:10067000454D494E4445523A2055736520272B2756
:10068000206F7220272D2720746F20696E646963A4
:100690006174652061626F7665206F722062656C9F
:1006A0006F7720736F696C20737572666163652064
:1006B000666F72206465707468732100456E74659E
:1006C000722063686F6963653A20002020207820DB
:1006D000203C2D2D202045786974206D656E7500B5
:1006E0002020206220203C2D2D20205475726E2069
:1006F00064656275672073746174656D656E74738B
:10070000206F6E2F6F6666002020206520203C2D14
:100710002D2020457261736520616C6C20646174CA
:1007200061002020207020203C2D2D202050726957
:100730006E74206461746120746F207363726565E8
:100740006E002020207420203C2D2D202054657325
:10075000742073656E736F727300202020612020F7
:100760003C2D2D20204368616E6765205344492D40
:1007700031322073656E736F7220616464726573C9
:10078000736573002020206E20203C2D2D202053E7
:1007900063616E20666F722064657669636573209D
:1007A0006F6E205344492D31322062757300202032
:1007B000206D20203C2D2D2020536574206D656117
:1007C000737572656D656E7420696E74657276619D
:1007D0006C002020207220203C2D2D2020436861B9
:1007E0006E6765204E6F646520726164696F204991
:1007F00044002020206720203C2D2D2020456E74B1
:100800006572204761746577617920726164696FF0
:10081000204944002020206920203C2D2D20204507
:100820006E7465722070726F6A656374204944004B
:100830002020206320203C2D2D2020536574206330
:100840006C6F636B002020206420203C2D2D202025
:10085000456E7465722073656E736F722064657087
:10086000746873002020203020203C2D2D2020454E
:100870006E74657220636F6E666967757261746904
:100880006F6E20737472696E67004D656E75206FB0
:100890007074696F6E733A200043757272656E747E
:1008A000206261747465727920766F6C746167651B
:1008B0003A20200043757272656E7420646174651D
:1008C00020262074696D653A20004D65617375724C
:1008D000656D656E7420496E74657276616C3A2040
:1008E000004761746577617920526164696F2049BE
:1008F000443A2000526164696F2049443A20005014
:10090000726F6A6563742049443A20004C6F5261EB
:1009100020526164696F204672657120284D487AC3
:10092000293A200053657269616C204E756D6265CD
:10093000723A200056657273696F6E2000536F69BA
:100940006C2057617465722044617461204E657437
:10095000776F726B202D20576972656C65737320F9
:100960005344492D313220446174616C6F6767656F
:1009700072204E6F646500496E76616C6964207206
:100980006573706F6E7365004E6F207573657220AE
:10099000726573706F6E73650072740092740048B4
:1009A000940078C40000002100240027002A0000E1
:1009B000002200250028002B000000200023002634
:1009C00000290002020202020202020404040404DA
:1009D00004040403030303030303030101010101EE
:1009E00001010101020408102040800102040810E6
:1009F00020408001020408102040800102040810F9
:100A0000204080000000010200090A0000000004EC
:100A100003080700000000000000000000000000C4
:100A20000000004552524F523A204D697373696E6F
:100A300067202B2F2D206265666F726520646570BC
:100A4000746821004552524F523A20496E76616CCB
:100A5000696420696E74657276616C2028657665BC
:100A600072792031302C2031352C2032302C20333B
:100A7000302C206F72203630206D696E7329007023
:100A8000726F6A65637449443A200000C643734A32
:100A900011241FBECFEFD0E4DEBFCDBF17E0A0E032
:100AA000B1E0EEE5F3EB00E00BBF02C007900D9262
:100AB000A039B107D9F729E1A0E9B7E001C01D923B
:100AC000AB36B207E1F715E0C7E4D5E004C02197E3
:100AD000FE010E940D51C634D107C9F70E94D044CF
:100AE0000C94A2590C9400001092580C1092570CC0
:100AF0001092A50E089508950895982F20914E0CF8
:100B000081E0213208F043C080914D0C8111FCCF6F
:100B10008091460C32E030934D0C90934C0C9FEF3B
:100B20009093240C1092230C2093220CA6E2BCE09C
:100B3000E2E0FCE090E0291331C01092010C9091AA
:100B4000010C880F892B8093010C80914B0C813014
:100B500049F510924B0C8091010C8093BB00809161
:100B6000BC0083FDF8CF85EC8093BC0080914D0CD8
:100B70008230E1F38091240C8F3FB1F08091240CFE
:100B80008032A1F08091240C803391F084E01092A7
:100B90004F0C10924E0C1092250C08953D913193FC
:100BA0009F5FC9CF85EEE0CF80E0F1CF82E0EFCF4D
:100BB00083E0EDCF90914D0C9111FCCF91E090939B
:100BC0004D0C90934C0C2FEF2093240C1092230C7F
:100BD000260F2093220C9093010C9091010C880F0A
:100BE000892B8093010C80914B0C8130F9F4109289
:100BF0004B0C8091010C8093BB008091BC0083FD65
:100C0000F8CF85EC8093BC0080914D0C8130E1F3EE
:100C10008091230C861710F46091230CA2E0BCE0B5
:100C2000E1EEFBE080E0861303C0089585EEEACF95
:100C30009D9191938F5FF7CF4F925F926F927F92CA
:100C40008F929F92AF92BF92CF92DF92EF92FF92DC
:100C50000F931F930091900E1091910E2091920E80
:100C60003091930EC0908C0ED0908D0EE0908E0E31
:100C7000F0908F0E480159018C189D08AE08BF08EE
:100C800026013701401A510A620A730A6017710778
:100C90008207930728F0640D751D861D971DF6CFFA
:100CA0006C157D058E059F0528F4680D791D8A1D3C
:100CB0009B1DECCF1F910F91FF90EF90DF90CF9095
:100CC000BF90AF909F908F907F906F905F904F906C
:100CD0000895BF92CF92DF92EF92FF920F931F93EE
:100CE000CF93DF93EC01B62EC880D980EA80FB80D9
:100CF0000091940E1091950E980150E040E0C701CC
:100D0000B6010E945E4F662391F0862F90E0980115
:100D1000369527958217930700F1081B190BC00E13
:100D2000D11EE11CF11CC882D982EA82FB82688153
:100D300079818A819B81BB20A9F00E941C0668836F
:100D400079838A839B83DF91CF911F910F91FF90CD
:100D5000EF90DF90CF90BF900895C61AD108E108B8
:100D6000F108E1CF0091900E1091910E2091920E1A
:100D70003091930E061717072807390720F70883C5
:100D800019832A833B83DFCFE9E5FCE0A089B189A1
:100D900082E08C93A485B5851C92A685B78580E1F9
:100DA0008C93108EA489B58986E08C93A289B3892F
:100DB0008C9180618C93A289B3898C9188608C938B
:100DC000A289B3898C9180688C930288F389E02D85
:100DD00080818F7D808308958091A80E9091A90EC7
:100DE000DC01ED91FC910484F585E02D0994FF92DE
:100DF0000F931F93CF93DF938C01F62EC8EADEE0AA
:100E000088819981DC01ED91FC910488F589E02DC0
:100E1000642F099588819981DC01ED91FC91068010
:100E2000F781E02D4F2DB801DF91CF911F910F91E8
:100E3000FF900994E82FF0E0EE0FFF1FE35FFE4FF5
:100E400071836083813049F0823071F08091690054
:100E5000836080936900E89A0895809169008C60AE
:100E600080936900E99A0895809169008063809376
:100E70006900EA9A0895AF92BF92CF92DF92EF9203
:100E8000FF920F931F93CF93DF936C017B018B0134
:100E9000040F151FEB015E01AE18BF08C017D10784
:100EA00059F06991D601ED91FC910190F081E02D0E
:100EB000C6010995892B79F7C501DF91CF911F9163
:100EC0000F91FF90EF90DF90CF90BF90AF9008957B
:100ED000FC01538D448D252F30E0842F90E0821B40
:100EE000930B541718F081509F4F08950197089560
:100EF000FC01918D828D981759F0A28DAE0FBF2FF6
:100F0000B11D5D968C91928D9F5F928F90E00895B8
:100F10008FEF9FEF0895FC01918D828D981731F02E
:100F2000828DE80FF11D858D90E008958FEF9FEF82
:100F30000895FC01918D828D981B892F90E0089572
:100F400089E59CE00E94990721E0892B09F420E0C3
:100F5000822F0895FC01A48DA80FB92FB11DA35EA7
:100F6000BE4F9C91848D8F5F848FA689B7899C9397
:100F7000A089B1898C91837080648C93938D848DCA
:100F8000981306C00288F389E02D80818F7D8083CD
:100F900008950F931F93CF93DF93EC0181E0888F27
:100FA0009B8D8C8D981318C0E889F989808185FF05
:100FB00013C09FB7F894EE89FF896083E889F989A7
:100FC00080818370806480839FBF81E090E0DF91A7
:100FD000CF911F910F910895062F1B8D1F5F8C8D50
:100FE00081130CC00FB607FCFACFE889F98980811C
:100FF00085FFF5CFCE010E94AA07F1CFEB8DEC0F54
:10100000FD2FF11DE35EFE4F00839FB7F8941B8F09
:10101000EA89FB8980818062D6CF0F931F93CF939B
:10102000DF938C01D0E0C0E0F801EC0FFD1F64916C
:10103000662341F089E59CE00E94C907892B11F0E5
:101040002196F2CFCE01DF91CF911F910F9108959C
:10105000682F89E59CE00C94C907CF93DF93EC01DE
:10106000888D8823B9F0AA89BB89E889F9898C9190
:1010700085FD03C0808186FD0DC00FB607FCF7CF4C
:101080008C9185FFF2CF808185FFEDCFCE010E944C
:10109000AA07E9CFDF91CF91089580E090E0892BF6
:1010A00029F00E94A00781110E94000080E090E0DA
:1010B000892B49F080E090E0892B29F00E94000004
:1010C00081110C940000089581508A3080F5E82F3A
:1010D000F0E0E359F74F0C940D518108850877082B
:1010E0007D089708970888088E08920898088091CC
:1010F00080008F77809380000895809180008F7D9D
:10110000F9CF84B58F7784BD089584B58F7DFBCFEB
:101110008091B0008F778093B00008958091B000E7
:101120008F7DF9CF809190008F7780939000089504
:10113000809190008F7DF9CFCF93DF93282F30E0FF
:10114000F901ED5FF54F8491F901ED51F64FD4911E
:10115000F901ED53F64FC491CC23A1F081110E9407
:101160006408EC2FF0E0EE0FFF1FE754F64FA59157
:10117000B491EC91ED2381E090E009F480E0DF91FF
:10118000CF91089580E090E0FACF1F93CF93DF9343
:10119000282F30E0F901ED5FF54F8491F901ED5111
:1011A000F64FD491F901ED53F64FC491CC23A9F039
:1011B000162F81110E946408EC2FF0E0EE0FFF1F44
:1011C000E155F64FA591B4918FB7F894EC911111B8
:1011D00008C0D095DE23DC938FBFDF91CF911F91A4
:1011E0000895DE2BF8CF1092510C1092500C1092F3
:1011F0004F0C10924E0C10924D0C81E080934C0CD1
:1012000010924B0C61E081E10E94C50861E080E131
:101210000E94C508E9EBF0E080818E7F80838081A9
:101220008D7F808380E28093B80085E48093BC004A
:101230008BE795E090934A0C8093490C8CE795E0FE
:101240009093480C8093470C0895CF93DF9390E0E0
:10125000FC01ED51F64F24918D53964FFC01849182
:101260008823D1F090E0880F991FFC01EB55F64FD1
:10127000A591B491FC01E155F64FC591D49161114E
:101280000EC09FB7F8948C91E22FE0958E238C933B
:101290002881E223E8839FBFDF91CF9108958FB724
:1012A000F894EC91E22BEC938FBFF6CF88518064D9
:1012B00080937C0080917A00806480937A00809192
:1012C0007A0086FDFCCF8091780090917900089596
:1012D0003FB7F8948091850A9091860AA091870A79
:1012E000B091880A26B5A89B05C02F3F19F001963A
:1012F000A11DB11D3FBFBA2FA92F982F8827BC0170
:10130000CD01620F711D811D911D43E0660F771F96
:10131000881F991F4A95D1F708958F929F92AF9297
:10132000BF92CF92DF92EF92FF926B017C010E94FD
:1013300068094B015C01C114D104E104F104B9F066
:101340000E946809681979098A099B09683E7340F7
:101350008105910580F321E0C21AD108E108F10866
:1013600088EE880E83E0981EA11CB11CE4CFFF908C
:10137000EF90DF90CF90BF90AF909F908F900895A7
:101380002FB7F8946091810A7091820A8091830A44
:101390009091840A2FBF089508958BEF0895CF93FD
:1013A000DF93FC01228133812230310569F0EC01A9
:1013B000638D818D0E94C50860E0888D0E94C508FC
:1013C00082E090E09B838A83DF91CF910895FF9222
:1013D0000F931F93CF93DF93EC01162FF42E0FB7CB
:1013E000F89460E08F890E94C5088D899E89612FDD
:1013F0006068DC01ED91FC910190F081E02D099590
:10140000182F8D899E89DC01ED91FC910190F0816E
:10141000E02D6F2D099561E08F890E94C5080FBFEF
:10142000812FDF91CF911F910F91FF9008950F931E
:101430001F93CF938C01C62F44E06DE40E94E7090F
:101440004BEF4C0F406869E0C801CF911F910F919D
:101450000C94E709CF93DF93FC0122813381213083
:10146000310549F0EC0140E061E00E94E70981E0CC
:1014700090E09B838A8381E0DF91CF910895CF93A1
:10148000DF93FC01228133812230310549F0EC01E8
:1014900041E061E00E94E70982E090E09B838A835B
:1014A000DF91CF910895CF92DF92EF92FF92CF9389
:1014B000DF93EC01CB01BA0120E034E244E759E4C8
:1014C0000E948A4E20E034E244E752E40E942E500B
:1014D0000E94A0506B017C01A7016627772766E078
:1014E000CE010E94E70977276F2D5E2D4D2D67E015
:1014F000CE010E94E7094C2D68E0CE010E94E70969
:1015000081E0DF91CF91FF90EF90DF90CF90089531
:10151000CF92DF92EF92FF920F931F93CF93DF93BF
:101520004C3F08F067C0142F072FF62EEC01E8811E
:10153000F9810484F585E02D0995CE010E943F0ACA
:1015400040E06DE0CE010E94E7094A8560E0CE01EF
:101550000E94E7094B8560E0CE010E94E7094C85B7
:1015600060E0CE010E94E7094D8560E0CE010E9457
:10157000E709EFB6F89460E08F890E94C5088D896D
:101580009E89DC01ED91FC910190F081E02D60E8F5
:101590000995CF2CD02E012F015068F08D899E899E
:1015A000F60161916F01DC01ED91FC910190F081F8
:1015B000E02D0995F1CF61E08F890E94C508EFBE4B
:1015C00044E0410F62E2CE010E94E7098A819B81DB
:1015D000039771F043E061E0CE010E94E70940E427
:1015E00060E4CE010E94E70983E090E09B838A8358
:1015F00081E001C080E0DF91CF911F910F91FF90BA
:10160000EF90DF90CF900895CF93DF93FC0122817C
:10161000338123303105C9F0EC0182819381049735
:1016200071F045E061E0CF010E94E70940E060E42D
:10163000CE010E94E70984E090E09B838A83C65E26
:10164000DE4F8881DF91CF91089580E0FBCF0F932B
:101650001F93CF93DF93EC01162F0FB7F89460E040
:101660008F890E94C5088D899E89DC01ED91FC91CE
:101670000190F081E02D612F09958D899E89DC0113
:10168000ED91FC910190F081E02D60E00995182F1B
:1016900061E08F890E94C5080FBF812FDF91CF9134
:1016A0001F910F910895DF92EF92FF920F931F9376
:1016B000CF93DF93EC0162E10E94270B2A813B81EB
:1016C00024303105A1F4982F907A89F08F8598897C
:1016D0000196988B8F874FEF62E1CE01DF91CF911A
:1016E0001F910F91FF90EF90DF900C94E7092A81F2
:1016F0003B812430310511F486FD0DC02A813B81E8
:101700002330310541F783FFE6CF8B899C89019611
:101710009C8B8B8B67C063E1CE010E94270B082F47
:1017200060E1CE010E94270B482F6DE0CE010E94A0
:10173000E709DFB6F89460E08F890E94C5088D89BB
:101740009E89DC01ED91FC910190F081E02D60E03B
:1017500009957E01BBE1EB0EF11C102F115070F0CA
:101760008D899E89DC01ED91FC910190F081E02D45
:1017700060E00995F70181937F01F0CF61E08F89E7
:101780000E94C508DFBE0A8F4FEF62E1CE010E94C2
:10179000E7096AE1CE010E94270B89588E878A8D5E
:1017A000FE01E65EFE4F8430C8F08B8D8E838C8DFB
:1017B0008F838D8D88878E8D89878D81811107C05C
:1017C0009E818C81981719F08E818F3F39F4898919
:1017D0009A8901969A8B898B81E080838081882306
:1017E00009F479CFCE010E943F0A75CF80917E0A1D
:1017F00090917F0A009711F00C94530B08958091FB
:101800007C0A90917D0A009711F00C94530B089577
:1018100080917A0A90917B0A009711F00C94530BF7
:101820000895CF93DF93EC018D899E89DC01ED91C2
:10183000FC910680F781E02D099561E08F890E9477
:10184000250961E08F890E94C50864E670E080E0A8
:1018500090E00E948D0981E0DF91CF910895FF9281
:101860000F931F93CF93DF931F92CDB7DEB7F42E64
:1018700008EA1EE0D8018D919C91DC01ED91FC916C
:10188000008CF18DE02D0995F80180819181DC01BA
:10189000ED91FC91028CF38DE02D40E060E809951C
:1018A00081E289834F2D61E0CE0101960E94F70607
:1018B0000E94EC060F90DF91CF911F910F91FF9046
:1018C00008952F923F924F925F926F927F928F92E4
:1018D0009F92AF92BF92CF92DF92EF92FF920F93BF
:1018E0001F93CF93DF938C015B016A0119010E9462
:1018F000C0092B013C01F12CE12C0E94C0096419A4
:101900007509860997096C157D058E059F0508F0F8
:1019100078C08091A80E9091A90EDC01ED91FC9108
:101920000280F381E02D0995882339F38091A80E78
:101930009091A90EDC01ED91FC910480F581E02DE0
:10194000A501B8010995C82F8823B9F28091A80E86
:101950009091A90EDC01ED91FC9100A0F1A1E02D88
:101960000995D82F8091A80E9091A90EDC01ED91D8
:10197000FC91068CF78DE02D0995882E8091A80E9C
:101980009091A90EDC01ED91FC9102A0F3A1E02D54
:101990000995982E8091A80E9091A90EDC01ED91E9
:1019A000FC9104A0F5A1E02D099587FDA6CFBFEF1E
:1019B0008B1631F04D2F692D88EA9EE00E942F0C86
:1019C000ED2FF0E0E855F14FDF011B968385891577
:1019D00009F493CFF101D0839C928C2FDF91CF91AA
:1019E0001F910F91FF90EF90DF90CF90BF90AF903D
:1019F0009F908F907F906F905F904F903F902F902F
:101A00000895C0E0EACF9FB7F8948091780A8823C0
:101A100019F081508093780A8091780A811105C06D
:101A20008CB58F7B8CBD1092770A9FBF08958CB5C3
:101A30008F778CBD08958CB580688CBD0895FC01AE
:101A4000738362830895FC01778366830895FC01A4
:101A5000758364830895089580E00895FC0181856D
:101A60000895FC0180850895FC0187810895FC019B
:101A7000868108954095FC0125854223642B658766
:101A80000895FC0164870895FC0163870895FC01B3
:101A900062870895FC0164830895FC0165830895BD
:101AA0008F929F92AF92BF92CF92DF92EF92FF926E
:101AB000CF93DF93EC016B010E94C0094B015C01E5
:101AC000F12CE12C0E94C009681979098A099B0947
:101AD0006C157D058E059F0580F48A819B81039797
:101AE00089F381E0DF91CF91FF90EF90DF90CF906D
:101AF000BF90AF909F908F90089580E0F3CFFC014E
:101B00002281338123303105D1F381E008958F9212
:101B10009F92AF92BF92CF92DF92EF92FF92CF93BC
:101B2000DF93EC016B010E94C0094B015C01F12CB9
:101B3000E12C0E94C009681979098A099B096C1572
:101B40007D058E059F05A0F4E881F9810280F3816F
:101B5000E02DCE010995882361F3DF91CF91FF90AD
:101B6000EF90DF90CF90BF90AF909F908F900895AF
:101B700080E0F3CFCF93DF93EC01E881F98102801D
:101B8000F381E02DCE0109958823B9F3DF91CF9140
:101B9000089581E008951F93CF93DF93EC01162FF2
:101BA00088819981DC01ED91FC910288F389E02D17
:101BB000099588819981DC01ED91FC910688F7896E
:101BC000E02D612F09951A83DF91CF911F91089520
:101BD000CF92DF92EF92FF920F931F93CF936B01FF
:101BE0007C01142F8091A80E9091A90EDC01ED913B
:101BF000FC910190F081E02D0995C82F882309F10F
:101C00006091AA0E88EA9EE00E94CB0D8CE291E0E2
:101C10009093B10E8093B00E83E08093B20E612F4B
:101C200088EA9EE00E94CB0D0091A80E1091A90EAB
:101C3000B701A601C8010E94530A61E1C8010E94D0
:101C4000170A8C2FCF911F910F91FF90EF90DF908B
:101C5000CF90089585ED8093BC008091BC0084FDF9
:101C6000FCCF10924D0C08952091540A260F332773
:101C7000331F21323105ECF420914D0CFC0190E032
:101C800080E0243069F082E00895A091540A219107
:101C9000AC014C5C554FA40FB52FB11D2C93019690
:101CA000861798F38091540A680F6093540A80E075
:101CB000089581E008950895E091510C8091500CB1
:101CC000E81730F4F0E0EF51F44F808190E0089590
:101CD0008FEF9FEF08959091510C8091500C2FEF52
:101CE0003FEF981748F4E92FF0E0EF51F44F2081CF
:101CF00030E09F5F9093510CC90108958091500C82
:101D00009091510C891B990B0895CF92DF92EF921D
:101D1000FF920F931F93CF93DF937C01CB018A0136
:101D20002091250C222389F0EB016B01C40ED51EF6
:101D3000CC15DD0569F06991D701ED91FC91019019
:101D4000F081E02DC7010995F3CF642F0E94340E76
:101D5000C801DF91CF911F910F91FF90EF90DF901D
:101D6000CF900895CF93DF931F92CDB7DEB76983ED
:101D70002091250C2223F9F020914E0C203258F0AE
:101D800021E030E0FC013383228390E080E00F907B
:101D9000DF91CF91089580914F0CE82FF0E0EA5D3C
:101DA000F34F998190838F5F80934F0C80934E0CFB
:101DB00081E090E0ECCF61E0CE0101960E94340E0C
:101DC000F7CFCF93C62F91E09093250C98E6909390
:101DD000460C10924F0C10924E0C682F8BE599E137
:101DE0000E94B20E6C2F8BE599E10E94B20E81E049
:101DF000CF910C947D05CF93CFB7F8948091780A5A
:101E0000811127C0E7ECF9E08491E7EEF9E09491C5
:101E1000E82FF0E0EE0FFF1FEB55F64FA591B491C0
:101E2000EC91E92321F461E084E00E94C50861E0BF
:101E300084E00E9425098CB580618CBD8CB58064DE
:101E40008CBD61E087E00E94250961E085E00E9489
:101E500025098091780A8F5F8093780ACFBFCF9150
:101E60000895FC01268137812115310591F121303A
:101E7000310559F12230310551F12330310549F551
:101E80002CE09CB5937F922B9CBD8481958101971A
:101E900011F58CB580628CBD82819381019784306D
:101EA0009105E0F4845B9E4FFC0190818CB58C7FA2
:101EB000292F2370822B8CBD8DB592FB992790F929
:101EC0008E7F892B8DBD0C94FB0E24E0DACF28E0A9
:101ED000D8CF20E0D6CF8CB58F7DDDCF95E0E6CF93
:101EE000CF92DF92EF92FF92CF93DF9360E08DE18C
:101EF0000E9425098DE10E945609B0E0A0E0BC01D6
:101F0000CD01660F771F881F991F0E94294E23E37A
:101F100033E343E550E40E948A4E20E030E048EC91
:101F200052E40E948A4E20E030E84FEF53E40E94D2
:101F3000C24F20E030EC4FE754E40E942E500E9444
:101F4000A050CB0164E670E00E94E550EB01BC01BB
:101F500090E080E00E94294E20E030E048EC52E41E
:101F60000E942E506B017C01BE0190E080E00E9437
:101F7000294E9B01AC01C701B6010E94C24FDF91FF
:101F8000CF91FF90EF90DF90CF900895CF92DF92A6
:101F9000EF92FF92CF93DF9361E08EE00E942509DC
:101FA00060E088E10E94250961E08EE00E94C5089A
:101FB00084EE93E00197F1F788E10E945609EC0165
:101FC00060E08EE00E94C508BE0190E080E022E063
:101FD000660F771F881F991F2A95D1F70E94294EF7
:101FE00023E333E343E550E40E948A4E20E030E0EF
:101FF00048EC52E40E948A4E20E030EC4FEB54E46F
:102000000E94C24F20E030ED4FE355E40E942E5075
:102010000E94A050CB0164E670E00E94E550EB0105
:10202000BC0190E080E00E94294E20E030E048ECC6
:1020300052E40E942E506B017C01BE0190E080E0D2
:102040000E94294E9B01AC01C701B6010E94C24FFC
:10205000DF91CF91FF90EF90DF90CF90089589E5C9
:102060009CE00E942D08E9E5FCE0A289B3898C91EF
:102070008F7E8C93A289B3898C91877F8C93A28960
:10208000B3898C918F778C93A289B3898C918F7D42
:102090008C93828D818F60E08FE00E94C50860E0A4
:1020A00080E00E94C50860E081E00E94C5088CEBDA
:1020B00090E10E942A0A80B78F7780BFEAE7F0E0BC
:1020C00080818F778083F89485B7806885BF85B7D6
:1020D000806885BF789483B7817F846083BF83B72E
:1020E000816083BF7894ABE6B0E08C9184608C9380
:1020F000A8E6B0E08C9181608C9383B7816083BF48
:10210000889583B78E7F83BF8081806880830E949B
:10211000C4060E94FB0E61E080E00E94C50861E0F9
:1021200081E00C94C5089FB7F8942091770A8091BC
:10213000D507213019F48DBB9FBF08958FBF089537
:10214000CF93DF93EC0161E088810E94C508809104
:10215000770A81110E9493108B818CBD8C818DBD7B
:10216000DF91CF9108958EBD00000DB407FEFDCF25
:102170008EB50895862F0C94B3102091770A2223F0
:1021800061F02FB7F8943091770A313049F43DB3BC
:102190003093D5073DB33DBB2FBF8CBD9DBD08958A
:1021A0002093D507FACFCF93DF93EC018CB58B83C7
:1021B0008DB58C838D819E810E94BD1060E08881E9
:1021C000DF91CF910C94C5088F929F92AF92BF92EE
:1021D000CF92DF92EF92FF920F931F93CF93DF93F3
:1021E0004B015C0128E833E140E050E00E945E4F83
:1021F0002A31310510F029E130E06901F12CE12CA0
:10220000C501B401A7010E945E4F8901D0E0C0E082
:10221000C017D107C8F4A090760EB090770EC50114
:102220000E94D31085E00E94B31080E00E94B3109A
:10223000982EC5010E94A01090FE14C0C701B601DF
:102240000E948D092196E4CF80E0DF91CF911F910C
:102250000F91FF90EF90DF90CF90BF90AF909F9045
:102260008F90089581E0F1CF0F931F93CF93DF9369
:10227000EC01162F442339F040E066E00E9434114F
:10228000CE010E94A010CE010E94D31085E00E94D2
:10229000B31080E00E94B310082FCE010E94A0105E
:1022A00000FDF1CFCE010E94D310812FDF91CF919D
:1022B0001F910F910C94B310FF920F931F93CF9324
:1022C000DF93162F072FF82E68EE73E080E090E082
:1022D0000E94E410882301F1C091760ED091770E10
:1022E00041E060E2CE010E9434118F2D0E94B310B4
:1022F000802F0E94B310812F0E94B310CE010E9444
:10230000A01068EE73E080E090E0DF91CF911F9124
:102310000F91FF900C94E41080E0DF91CF911F911A
:102320000F91FF9008952F923F924F925F926F927C
:102330007F928F929F92AF92BF92CF92DF92EF9255
:10234000FF920F931F93CF93DF936C012A013B0100
:1023500019019A01332780E091E0821B930B912CA5
:10236000812C0115110581F1E8018017910708F40E
:10237000EC0141E062E0C6010E943411862D0E940A
:10238000B310852D0E94B310842D0E94B31051010B
:10239000A80CB91C7501F70181917F010E94B3104F
:1023A000C7018A199B098C179D07A8F3C6010E94D3
:1023B000A0104C0E5D1E611C711C8C0E9D1E0C1B12
:1023C0001D0B80E091E0CDCFDF91CF911F910F9158
:1023D000FF90EF90DF90CF90BF90AF909F908F9045
:1023E0007F906F905F904F903F902F900895BF9295
:1023F000CF92DF92EF92FF920F931F93CF93DF93D1
:102400007C01EA01B62E690140E06BE00E943411C4
:102410008B2D0E94B3108D2F0E94B3108C2F0E9421
:10242000B31080E00E94B310E6010C0D1D1DC01713
:10243000D10729F080E00E94B3108993F8CFC7013B
:10244000DF91CF911F910F91FF90EF90DF90CF9090
:10245000BF900C94A0100F931F93CF93DF9300D0E5
:10246000CDB7DEB7AB01BC014C5F5F4F6F4F7F4F05
:1024700002E010E09E012F5F3F4F8091760E909119
:10248000770E0E94F7112091960E3091970E898158
:102490009A812817390710F41A82198289819A8142
:1024A0000F900F90DF91CF911F910F910895CF92D0
:1024B000DF92EF92FF926B017C010E942B129C0134
:1024C000009769F0E091940EF091950EBF010E9483
:1024D000E550009721F02E0F3F1F281B390BC70135
:1024E000B601620F731F811D911DFF90EF90DF9069
:1024F000CF900C941C060F931F93CF93DF93CDB70F
:10250000DEB760970FB6F894DEBF0FBECDBFAB014C
:10251000BC0100E110E09E012F5F3F4F8091760EDD
:102520009091770E0E94F711FE013196CE014196EF
:1025300021912F3F79F4E817F907D1F781E06096F0
:102540000FB6F894DEBF0FBECDBFDF91CF911F91C4
:102550000F91089580E0F3CF4F925F926F927F9238
:10256000AF92BF92CF92DF92EF92FF920F931F93A1
:10257000CF93DF93CDB7DEB72C970FB6F894DEBFBD
:102580000FBECDBF6B017C015A01FA01108211828E
:102590001282138204E010E09A01BC01A60180912E
:1025A000760E9091770E0E94F711F501808191814E
:1025B000A281B3818F3F9F4FAF4FBF4F79F01986F4
:1025C0001A861B861C86C701B6010E9457122B0172
:1025D0003C01C414D504E604F70411F480E054C0AF
:1025E00004E010E09E01275F3F4FBC01A2018091F3
:1025F000760E9091770E0E94F71149855A856B856A
:102600007C85F50180819181A281B3810196A11D14
:10261000B11D84179507A607B70709F451C04F3FAE
:102620005F4F6F4F7F4FD1F6C301B2010E947B1203
:102630008823A1F28091940E9091950EC81AD90A20
:10264000E108F108CD82DE82EF82F886AE014F5FAD
:102650005F4F6FEFCE0105960E946213882349F108
:1026600049815A816B817C814F5F5F4F6F4F7F4FF4
:1026700081E0F501C080D180E280F3804C155D05DA
:102680006E057F0509F0AACF2C960FB6F894DEBF31
:102690000FBECDBFDF91CF911F910F91FF90EF90B3
:1026A000DF90CF90BF90AF907F906F905F904F90F2
:1026B00008956D817E818F8198850E947B12E4CF81
:1026C00081E0E2CFCF92DF92EF92FF920F931F93C0
:1026D000CF93DF93EC01D62E7A01688179818A81CC
:1026E0009B810E947B12CC24C39410E000E08823DD
:1026F00091F08FEF9FEFDC01F70180839183A2833C
:10270000B38380E0DF91CF911F910F91FF90EF9005
:10271000DF90CF900895688179818A819B81A7019C
:102720000E94AC128111EECFCC20D9F061E0CE0135
:102730000E946906688179818A819B810E947B124F
:10274000C82E8111D6CF8091960E9091970E6091F0
:10275000940E7091950E0E94E55060177107D8F69F
:10276000C8CF88819981AA81BB814091940E5091F4
:10277000950E70E060E01D14ACF0841B950BA60B69
:10278000B70B88839983AA83BB83688179818A8107
:102790009B810E941C06688379838A839B830F5FD9
:1027A0001F4FC8CF840F951FA61FB71FEACF2F92C8
:1027B0003F924F925F926F927F928F929F92AF92D1
:1027C000BF92CF92DF92EF92FF920F931F93CF931E
:1027D000DF93CDB7DEB72E970FB6F894DEBF0FBEEE
:1027E000CDBF8C016D87FC016081718182819381F5
:1027F0000E947B128823C9F0F80180809180A2801A
:10280000B380FD85F13009F4F5C080918C0E909174
:102810008D0EA0918E0EB0918F0E75016401C81AB5
:10282000D90AEA0AFB0A7D84F3C02091940E309104
:10283000950E8091900E9091910EA091920EB09174
:10284000930E821B930BA109B109F8018083918338
:10285000A283B383AE01475F5F4F6FEFC8010E9451
:10286000621381110BC0F8016081718182819381B3
:102870000E947B128111C0CF612C22C180918C0EED
:1028800090918D0EA0918E0EB0918F0EF8018083E5
:102890009183A283B383AE014B5F5F4F61E0C801B8
:1028A0000E946213F80160817181228193818111FC
:1028B00002C0822FDDCF4D805E806F8078846B01F7
:1028C000E22EF92E8090900E9090910EA090920E94
:1028D000B090930E8C189D08AE08BF0822E9222EF6
:1028E000332433948091940E9091950EB0E0A0E043
:1028F00088159905AA05BB0520F4B694A79497946A
:102900008794FFEF3F1252C0C814D904EA04FB04B5
:1029100008F04CC08091900E9091910EA091920E73
:10292000B091930E40918C0E50918D0E60918E0E51
:1029300070918F0E841B950BA60BB70B8C0D9D1DF4
:10294000AE1DBF1D6C017D01C818D908EA08FB083F
:10295000F801C082D182E282F38260E0C8010E9465
:102960006906F80160817181828193810E947B12E6
:10297000811142CFAE014F5F5F4F632DC8010E94AE
:102980006213882341F189819A81AB81BC81F1E096
:102990003F1219C0481659066A067B0640F52A946C
:1029A000222009F469CF2C013D019CCFA32D032CDB
:1029B000000CBB0BA50194010E94AA4FC60ED71EA6
:1029C000E81EF91EC5CF84159505A605B70538F391
:1029D00033243394E4CFF801608171818281938143
:1029E0000E947B12811108CFD301C201D8CF3324BA
:1029F0003A94D5CFC090900ED090910EE090920E68
:102A0000F090930EC818D908EA08FB08772473944D
:102A1000F2E9FE87F80160817181828193810E94D1
:102A20007B128111C7C0F801208031804280538021
:102A3000C201B1016627707F992770518109910900
:102A40000E941C060E947B12682E8823E9F0C201B6
:102A5000B1010E947B12811117C0FD85F130A1F4F4
:102A6000F80180819181A281B3818827907FBB2763
:102A700080839183A283B383AE014F5F5F4F61E098
:102A8000C8010E9462131CC0AE014B5F5F4F672DEF
:102A9000C8010E946213F8014081518162817381F3
:102AA000882309F47EC0FD85FF3F21F5CB01BA01E3
:102AB0000E9457120E947B12682E882309F47EC060
:102AC000862D2E960FB6F894DEBF0FBECDBFDF91D8
:102AD000CF911F910F91FF90EF90DF90CF90BF901B
:102AE000AF909F908F907F906F905F904F903F90AE
:102AF0002F9008958091940E9091950E2A013B019C
:102B0000481A590A61087108C301B2010E947B1278
:102B1000682E8111B1CF77247A948091940E909190
:102B2000950EB0E0A0E08C159D05AE05BF0520F424
:102B3000F694E794D794C7948FEF781242C08C1420
:102B40009D04AE04BF04E8F58091900E9091910E23
:102B5000A091920EB091930E40918C0E50918D0EDB
:102B600060918E0E70918F0E841B950BA60BB70B88
:102B7000880D991DAA1DBB1D4C015D018C189D0877
:102B8000AE08BF08F80180829182A282B38260E021
:102B9000C8010E946906FE85F150FE87F1113ACF07
:102BA0006BCECB01BA010E947B12882309F4B5CF0A
:102BB0007194B3CF2D852F3F09F4ADCF7724739453
:102BC000ACCFA72D072C000CBB0BA70196010E94D0
:102BD000AA4F860E971EA81EB91ED4CFCF93DF939F
:102BE00000D000D0CDB7DEB7AE014F5F5F4F0E947F
:102BF000AC12882359F069817A818B819C810F9076
:102C00000F900F900F90DF91CF9108956FEF7FEFAE
:102C1000CB01F5CF282F30E094E0359527959A9594
:102C2000E1F7922F990F990F291B220F820F089518
:102C3000EF92FF920F931F93CF93DF938C01C62FD8
:102C4000F894F090B20061E0FC0184850E94C50810
:102C50009C2F80E031E0992329F083272FEF290F63
:102C60009223F9CFF0E88F9FC0011124C82B80E890
:102C7000D9E0982F9C2319F0D1508695FACF8091F6
:102C8000B2008F198A31D8F3F090B200EE24E394A9
:102C9000F8018485ED1678F460E0C0FF61E00E94E1
:102CA000C5088091B2008F198A31D8F3F090B20034
:102CB000C695E394EDCF60E00E94C50878948AE061
:102CC00090E08D1B91099AE1899F802D11249091AC
:102CD000B2009F199817D8F3DF91CF911F910F91F0
:102CE000FF90EF900895FC0115869091570C80910C
:102CF000580C981789F0E091570CF0E0E057F84F26
:102D000080812091570C30E02F5F3F4F2F73332786
:102D10002093570C90E008958FEF9FEF08959091C6
:102D2000570C8091580C981741F0E091570CF0E047
:102D3000E057F84F808190E008958FEF9FEF08955E
:102D4000FC01858581110EC08091580C2091570C93
:102D500090E0805C9F4F821B910960E470E00E94CC
:102D6000F95008958FEF9FEF089590E080E0089567
:102D7000DC011C969C911C97ECE6F0E0983050F03A
:102D8000E3E7F0E0903130F0EBE6F0E0983110F45A
:102D9000EDE6F0E08081977021E030E001C0220F85
:102DA0009A95EAF72095282320831C968C91ECE6CF
:102DB000F0E0883050F0E3E7F0E0803130F0EBE60F
:102DC000F0E0883110F4EDE6F0E09081911110C050
:102DD000F0E0E0E0803210F4E8E6F0E09081883046
:102DE00040F0803140F0883140F08EEF89238083BD
:102DF00008958DEFFBCF87EFF9CF8BEFF7CFCF9310
:102E0000DF93EC016330710521F164307105E1F16C
:102E10006230710509F05FC060E083E00E9425091F
:102E200061E083E00E94250961E083E00E94C5081B
:102E300060E08C850E94250961E08C850E9425094F
:102E400060E08C850E94C508CE01DF91CF910C9483
:102E5000B81660E083E00E94250961E083E00E94EB
:102E6000250961E083E00E94C50862E070E080E02F
:102E700090E00E948D0960E08C850E94250961E048
:102E80008C850E942509E0CF61E083E00E9425093E
:102E900060E083E00E94C50862E070E080E090E0BE
:102EA0000E948D0960E08C850E94C50860E08C85D9
:102EB0000E9425097894809168008860809368005A
:102EC000809173008460809373008FEF8093D407A8
:102ED000DF91CF91089561E083E00E94250961E0D0
:102EE00083E00E94C50860E08C850E94C50860E010
:102EF000C7CF70E060E088E99EE00E94FF16109264
:102F0000560C1092550C8091540C8093B000809117
:102F1000530C8093B10008958091550C9091560CFC
:102F200088599E4061F062E070E088E99EE00E946E
:102F3000FF1688E99EE09093560C8093550C86E925
:102F400090E0A0E0B0E080939C0E90939D0EA09343
:102F50009E0EB0939F0E81EF98ED9093A70E8093F5
:102F6000A60E8091B0008093540C8091B1008093A4
:102F7000530C1092B00086E08093B1000895CF9377
:102F8000DF9363E070E088E99EE00E94FF16C8E9E5
:102F9000DEE061E08C850E94C5088CE895E601972B
:102FA000F1F760E08C850E94C5088CE496E40197F7
:102FB000F1F7DF91CF9108950F931F93CF93DF9394
:102FC0008C010E94BF17D0E0C0E0D80114968D910B
:102FD0009C911597C817D90790F4ED91FC91309703
:102FE00059F41092520CE2E5FCE0608188E99EE021
:102FF0000E9418162196E9CFEC0FFD1FF6CF64E072
:1030000070E088E99EE0DF91CF911F910F910C94C1
:10301000FF161F93CF93DF93EC01162F63E070E050
:103020000E94FF16612FCE010E94181664E070E026
:10303000CE010E94FF1681E090E0DF91CF911F91B9
:10304000089581E08093250C88E68093460C1092C9
:103050004F0C10924E0C60E08BE599E10E94B20E8D
:1030600081E00E947D05811142C067E088E60E94F0
:10307000DA051092510C8093500C8BE599E10E9477
:103080006B0E8F770E940A168093DA0B8BE599E11D
:103090000E946B0E0E940A168093DB0B8BE599E170
:1030A0000E946B0E8F7B0E940A168093DC0B8BE5CF
:1030B00099E10E946B0E8093DD0B8BE599E10E94F4
:1030C0006B0E0E940A168093DE0B8BE599E10E943D
:1030D0006B0E8F770E940A168093DF0B8BE599E1C8
:1030E0000E946B0E0E940A16825E8093E00B809114
:1030F000DA0B80932C0A8091DB0B80938C0A8091F1
:10310000DC0B80932D0A8091DE0B8093300A809136
:10311000DF0B8093310A8091E00B90E08E54984F42
:1031200090932F0A80932E0A62E370E080E090E093
:103130000C948D09CF9391E09093250C98E6909391
:10314000460C10924F0C10924E0C682F8BE599E1B3
:103150000E94B20E81E00E947D0581110DC061E0E8
:1031600088E60E94DA051092510C8093500C8BE592
:1031700099E10E946B0EC82F8C2FCF9108951F9359
:10318000CF93DF9381E08093250C88E68093460CF3
:1031900010924F0C10924E0C60E08BE599E10E946A
:1031A000B20ECAEDDBE028811AE0822F612F0E9467
:1031B000D950682F660F680F660F620F8BE599E193
:1031C0000E94B20E2981822F612F0E94D950682F50
:1031D000660F680F660F620F8BE599E10E94B20ED1
:1031E0002A81822F612F0E94D950682F660F680FA5
:1031F000660F620F8BE599E10E94B20E6B818BE541
:1032000099E10E94B20E2C81822F612F0E94D95029
:10321000682F660F680F660F620F8BE599E10E94B9
:10322000B20E2D81822F612F0E94D950682F660F18
:10323000680F660F620F8BE599E10E94B20E2E8136
:103240002E51822F612F0E94D950682F660F680F70
:10325000660F620F8BE599E10E94B20E81E00E9439
:103260007D05C82F8FE00E949A18682F6F778FE036
:103270000E94E10E8C2FDF91CF911F910895CF9383
:10328000DF93C82FD62F8EE00E949A184C2F415002
:10329000550B61E070E001C0660F4A95EAF7DD2347
:1032A00031F0682B8EE0DF91CF910C94E10E6095A8
:1032B0006823F8CFCF93DF93C82F8FE00E949A182E
:1032C000C150DD0B21E030E001C0220FCA95EAF7C2
:1032D000982F922351F02095622F68238FE00E944F
:1032E000E10E81E0DF91CF91089580E0FBCF0F9355
:1032F0001F93CF93DF93EC010E94BF178E01FE0155
:1033000001900020E9F73197EC1BFD0BC8018C1BE5
:103310009D0B8E179F0740F4F80161918F0188E99A
:103320009EE00E941816EBCF64E070E088E99EE012
:10333000DF91CF911F910F910C94FF16FC0101902A
:103340000020E9F73197AF01481B590BBC0189E513
:103350009CE00C943B078CED91E00C949E19CF936C
:10336000DF930E940D08EC010E94AB198C0F9D1F8A
:10337000DF91CF910895CF93DF93FC014481558174
:103380006081718189E59CE00E943B07EC010E940D
:10339000AB198C0F9D1FDF91CF910895CF93DF93D1
:1033A0000E942808EC010E94AB198C0F9D1FDF9131
:1033B000CF9108958F929F92AF92BF920F931F93D8
:1033C000CF93DF93CDB7DEB7A1970FB6F894DEBFEA
:1033D0000FBECDBF19A2423008F44AE08E010F5D46
:1033E0001F4F842E912CB12CA12CA50194010E9479
:1033F0005E4FE62FB901CA01EA30F4F4E05DD8016E
:10340000EE938D01232B242B252B79F790E080E080
:10341000109719F0CD010E949E19A1960FB6F8944D
:10342000DEBF0FBECDBFDF91CF911F910F91BF9037
:10343000AF909F908F900895E95CE1CF682F70E086
:1034400090E080E04AE00C94DA19CF93DF930E9479
:103450001E1AEC010E94AB198C0F9D1FDF91CF91BA
:103460000895CF92DF92EF92FF92CF93DF9397FF71
:1034700019C06B017C018DE20E942808EC016627CF
:103480007727CB016C197D098E099F094AE00E94BC
:10349000DA198C0F9D1FDF91CF91FF90EF90DF9095
:1034A000CF9008954AE0DF91CF91FF90EF90DF90A9
:1034B000CF900C94DA19CF92DF92EF92FF920F9394
:1034C0001F93CF93DF930E94C0096B017C0120E121
:1034D000C20E27E2D21EE11CF11C1092330A109298
:1034E000320A0E94C0096C157D058E059F05A0F566
:1034F00089E59CE00E9499071816190694F764E67E
:1035000070E080E090E00E948D0989E59CE00E94D7
:103510009907F82E11E00AE0C091320AD091330ADF
:10352000F11690F089E59CE00E9478070C9F9001CD
:103530000D9F300D1124C097280F391F3093330A87
:103540002093320A1F5FE8CFBE01DD0F880B990B75
:103550000E94311A0E94AB196AE070E080E090E0AE
:10356000DF91CF911F910F91FF90EF90DF90CF905F
:103570000C948D09CF93DF934AE00E94DA19EC0195
:103580000E94AB198C0F9D1FDF91CF910895CF93AF
:10359000DF93D0E0C0E0009719F00E949E19EC0183
:1035A0000E94AB198C0F9D1FDF91CF9108958F92D0
:1035B0009F92AF92BF92CF92DF92EF92FF921F93B2
:1035C000CF93DF93CDB7DEB764970FB6F894DEBF25
:1035D0000FBECDBF6B017C0149015A0168E873E160
:1035E00080E090E00E94E410182F882309F410C2B4
:1035F000C0928C0ED0928D0EE0928E0EF0928F0EB5
:103600008092900E9092910EA092920EB092930E94
:1036100080E290E09093950E8093940E80E090E18C
:103620009093970E8093960EF8948FEF9FEFDC01A6
:103630008093780E9093790EA0937A0EB0937B0EC0
:1036400080937C0E90937D0EA0937E0EB0937F0EA0
:103650008093800E9093810EA093820EB093830E80
:103660008093840E9093850EA093860EB093870E60
:1036700060918C0E70918D0E80918E0E90918F0EB8
:103680000E947B12882309F4C0C080908C0E909019
:103690008D0EA0908E0EB0908F0E6091900E709156
:1036A000910E8091920E9091930E681979098A0972
:1036B0009B099695879577956795680D791D8A1D65
:1036C0009B1D0E947B12882309F49FC080918C0E61
:1036D00090918D0EA0918E0EB0918F0E898B9A8B4A
:1036E000AB8BBC8B8D879E87AF87B88B69897A89B6
:1036F0008B899C8960937C0E70937D0E80937E0EE7
:1037000090937F0ECD84DE84EF84F888C092780E8B
:10371000D092790EE0927A0EF0927B0E0E945712B0
:103720006093800E7093810E8093820E9093830E2F
:103730006B017C01CC2420EFD222FF246C157D0587
:103740008E059F0509F0A6C16093840E7093850EC7
:103750008093860E9093870E6091840E7091850EF3
:103760008091860E9091870E0E941C066093840EB5
:103770007093850E8093860E9093870E80917C0EB9
:1037800090917D0EA0917E0EB0917F0E0097A04883
:10379000B10508F486C11092880E1092890E10921D
:1037A0008A0E10928B0E78948FED91E00E94C71ACA
:1037B0000E94AB196091780E7091790E80917A0E0B
:1037C00090917B0E0E94EE1560917C0E70917D0EA3
:1037D00080917E0E90917F0E0E94EE1589E59CE00F
:1037E0000E942D08812F64960FB6F894DEBF0FBE9D
:1037F000CDBFDF91CF911F91FF90EF90DF90CF90E1
:10380000BF90AF909F908F90089580918C0E909173
:103810008D0EA0918E0EB0918F0E898B9A8BAB8BF3
:10382000BC8BAE014B5F5F4F6FEFCE0141960E94A4
:10383000621381111DC080918C0E90918D0EA0910C
:103840008E0EB0918F0E898B9A8BAB8BBC8BAE0199
:103850004B5F5F4F61E0CE0141960E946213811180
:1038600007C08FEF9FEFDC018D839E83AF83B88706
:103870002091940E3091950E8091900E9091910E22
:10388000A091920EB091930E821B930BA109B109E6
:10389000898B9A8BAB8BBC8BAE01475F5F4F6FEF11
:1038A000CE0141960E946213811107C08FEF9FEFF6
:1038B000DC0189879A87AB87BC8789849A84AB842B
:1038C000BC8480918C0E90918D0EA0918E0EB09143
:1038D0008F0E4D815E816F8178854F3F5F4F6F4FB7
:1038E0007F4F09F18B208A208920809409F096C0AF
:1038F0008D879E87AF87B88BAE014F5F5F4F61E0CA
:10390000CE010D960E9462138823E1F12091940E5E
:103910003091950E8091900E9091910EA091920E03
:10392000B091930E9AC02091940E3091950E4091D3
:10393000900E5091910E6091920E7091930E421BD9
:10394000530B610971098B208A208920809409F426
:103950008DC0498B5A8B6B8B7C8B8D879E87AF87F5
:10396000B88BAE014F5F5F4F6FEFCE0141960E9463
:103970006213882339F061E0CE010D960E94D713BF
:103980008111B4CE89899A89AB89BC89C816D906B8
:10399000EA06FB06E1F58D859E85AF85B889C816D8
:1039A000D906EA06FB0699F580E090E0A0E8B0E0D1
:1039B00080937C0E90937D0EA0937E0EB0937F0E2D
:1039C0008093780E9093790EA0937A0EB0937B0E2D
:1039D000C092800ED092810EE092820EF092830E01
:1039E00080E1D80EE11CF11CC092840ED092850EAD
:1039F000E092860EF092870E8FEF9FEFDC018093AE
:103A0000880E9093890EA0938A0EB0938B0E7894B3
:103A100086EF91E00E94C71A10E0E4CE19861A865C
:103A20001B861C864FEF5FEFBA014D835E836F8369
:103A300078878D879E87AF87B88B61E0CE010D9622
:103A40000E94D713882309F49DCF2091940E3091C2
:103A5000950E8D859E85AF85B889821B930BA10934
:103A6000B109898B9A8BAB8BBC8B10C08D879E87DD
:103A7000AF87B88B498B5A8B6B8B7C8B61E0CE0107
:103A80000D960E94D713882309F47CCF6FEFCE01E7
:103A9000419674CF705F8F4F9F4F6627707F992735
:103AA00053CE48E85EE061E08CE79EE00E9462133E
:103AB0007ACE0C949E1980911301882331F10E94D3
:103AC000211865E38BE00E94E10E68E18CE00E9422
:103AD000E10E60E88DE00E94E10E80912A0A8823C1
:103AE000A1F084E192E00E94591D82E10E941E1A19
:103AF00087E096E00E94591D83E20E94251A62E346
:103B000070E080E090E00C948D090895CF93DF93EE
:103B1000482F50918C0A852F90E0E0915E0BE413C2
:103B20003FC0CE2FD0E08C0F9D1F6CE370E00E9451
:103B3000F950BE010E94F950E69FE02D1124E09358
:103B4000160A2091160A822F6AE00E94D950C82FC7
:103B5000CC0FC80FCC0FC20F60E087E00E94E10ECF
:103B60006C2F88E00E94E10E60E889E00E94E10E7F
:103B700060E88AE00E94E10E80912A0A882341F0E1
:103B800086E292E00E94591D8091160A0E94251A31
:103B900062E370E080E090E0DF91CF910C948D09BA
:103BA000840F911D8C3391053CF06CE370E00E9412
:103BB000F9508093160AC5CF450F4093160AC1CF1E
:103BC000CF93DF93EC0188819981009711F00E94D7
:103BD000B951198218821D821C821B821A82DF91C0
:103BE000CF910895FC01808191810C94B9512F925D
:103BF0003F924F925F927F928F929F92AF92BF922D
:103C0000CF92DF92EF92FF920F931F93CF93DF93A8
:103C100000D000D000D0CDB7DEB74B015C01AE01C3
:103C20004F5F5F4F0E94AC12782E81111DC086E35A
:103C300092E00E94C71A872D26960FB6F894DEBF31
:103C40000FBECDBFDF91CF911F910F91FF90EF90ED
:103C5000DF90CF90BF90AF909F908F907F905F90BC
:103C60004F903F902F90089506E010E09E012F5F47
:103C70003F4FB501A4018091760E9091770E0E947E
:103C8000F7114D805E80620186E0C81AD108C2013A
:103C900005970E941D517C010091900E1091910E8C
:103CA0002091920E3091930EB501A4014A5F5F4FAF
:103CB0006F4F7F4FD501C401840D951DA11DB11D0E
:103CC0001C012D018091760E9091770E021513053F
:103CD0002405350560F5065011095801A818B908E2
:103CE000850197010E94F71186010A191B099701A6
:103CF0002A0D3B1D40918C0E50918D0E60918E0EC1
:103D000070918F0E8091760E9091770E0E94F71130
:103D1000F701EC0DFD1D1082C7010E94C71A89E54D
:103D20009CE00E942D08C7010E94B95184CF8601F2
:103D30009701ECCFEF92FF920F931F93CF93DF93F6
:103D40007C018C01CAE0D0E0CE010E94484FF8010E
:103D500081938F012196CE30D105B1F7C701DF9154
:103D6000CF911F910F91FF90EF9008950F931F93A4
:103D7000CF93DF930AE61BE0C8E0DBE0CE010E94B0
:103D8000484FF80181938F012196C837FBE0DF0788
:103D9000A9F78AE69BE0DF91CF911F910F910895DB
:103DA0000F931F93CF93DF938C01EB010E94484F39
:103DB0008883C80101960E94484F8983CE01DF9114
:103DC000CF911F910F910895CF93DF93EB010E9444
:103DD000484F8883CE01DF91CF9108950C94484FCE
:103DE0002F923F924F925F926F927F928F929F920B
:103DF000AF92BF92CF92DF92EF92FF920F931F93F9
:103E0000CF93DF93CDB7DEB72A970FB6F894DEBF16
:103E10000FBECDBFFC01698304811581C8018750A5
:103E20009F4F6AEF70E00E94E550662309F42AC1B3
:103E300029812A874F016150698790E080E0212C19
:103E4000312C210133940115110509F41BC10B3FDD
:103E5000110550F15C013AEFA30EB11C0A5F110984
:103E600066246394712C681A790A6A0C7B1C498554
:103E70004093B30FA4EBBFE08A159B05D8F4F4017F
:103E8000248135818217930738F420813181F9012B
:103E9000E80FF91F232B21F41092520CE2E5FCE00D
:103EA00020812D930196E8CF5801A80EB91E10E08D
:103EB00000E0D6CFF090AF0EF394F092AF0EC12C8D
:103EC000EE24E394EC0C8091B20E8C1508F4F4C04F
:103ED0008091A80E9091A90EDC01ED91FC91008CCF
:103EE000F18DE02D6F2D09958091A80E9091A90E6E
:103EF000DC01ED91FC91028CF38DE02D40E860E057
:103F000009954A85662D83EB9FE00E94F7060E9483
:103F1000EC06BA85BF3F09F4D1C0E1E0EE1598F494
:103F20008091AB0E9091AC0EA091AD0EB091AE0E03
:103F30000196A11DB11D8093AB0E9093AC0EA09382
:103F4000AD0EB093AE0E0E94C00969837A838B8355
:103F50009C83C090B00ED090B10E0E94FD4AA20189
:103F600091010E94804F9B01AC01D6010E949F4F9E
:103F7000A20191010E94804F2C0D3D1DCE2CC90144
:103F8000B0E0A0E08D839E83AF83B8870E94C00914
:103F900029813A814B815C81621B730B840B950BE9
:103FA0002D813E814F8158856217730784079507DD
:103FB00008F086CF8091A80E9091A90EDC01ED91BA
:103FC000FC910280F381E02D09958823F9F280911C
:103FD000A80E9091A90EDC01ED91FC910480F58171
:103FE000E02D50E040E070E060E00995882371F238
:103FF0008091A80E9091A90EDC01ED91FC9100A09A
:10400000F1A1E02D0995D82E8091A80E9091A90ECE
:10401000DC01ED91FC91068CF78DE02D0995782E51
:104020008091A80E9091A90EDC01ED91FC9102A067
:10403000F3A1E02D0995E82E8091A80E9091A90E8C
:10404000DC01ED91FC9104A0F5A1E02D0995BA8564
:10405000BD1108C09091AA0E971104C087FF02C03D
:10406000FE1461F187FD92CFED2DF0E0E855F14FA0
:1040700083858E118BCF4D2D6E2D88EA9EE00E9498
:104080002F0C84CF81E02A960FB6F894DEBF0FBEC6
:10409000CDBFDF91CF911F910F91FF90EF90DF90F7
:1040A000CF90BF90AF909F908F907F906F905F90D8
:1040B0004F903F902F90089580E0E5CFE985E15043
:1040C000E987C501C0CE8F929F92AF92BF92CF92E7
:1040D000DF92EF92FF920F931F93CF93DF9300D065
:1040E00000D000D0CDB7DEB70E94B61E64E170E00C
:1040F00080E090E00E948D0910E097E0892E90907A
:104100002B0A191508F03FC08BEFE82E81E1F82E3D
:10411000189D6001112400E0C6018659944F5C018E
:10412000901679F1F5019081F701808198131FC0F5
:10413000FE01319681E090E0BF019C0121503109E0
:10414000DC01AC0DBD1DA659B44F4C9150ED540F80
:104150005A3020F04B3211F04D3271F441930196F8
:104160008730910551F7C701C0960E944C530F5FED
:10417000F6E7EF0EF11CD4CF260F371FF90110829E
:10418000F2CF1F5FBCCF26960FB6F894DEBF0FBEEE
:10419000CDBFDF91CF911F910F91FF90EF90DF90F6
:1041A000CF90BF90AF909F908F9008950E9423531F
:1041B0000F931F93CF93DF93EC0188819981009730
:1041C00059F02A813B812617370730F081E0DF91D3
:1041D000CF911F910F9108958B016F5F7F4F0E94C8
:1041E0004252009759F0998388831B830A832C815C
:1041F0003D81232B59F7FC011082E8CF80E0E7CF07
:10420000EF92FF920F931F93CF93DF936115710588
:1042100041F480E0DF91CF911F910F91FF90EF90DB
:10422000089541155105B1F07B01EC010C811D8110
:10423000040F151FB8010E94D820882351F328814C
:1042400039818C819D81B701820F931F0E944C534D
:104250001D830C8381E0DECF0F931F93CF93DF93F9
:1042600000D000D0CDB7DEB74AE08E010F5F1F4F00
:10427000B80190E00E94674BF80101900020E9F737
:104280003197AF01401B510BB80187ED91E10E94BE
:1042900000210F900F900F900F90DF91CF911F9101
:1042A0000F9108950F931F93CF93DF93CDB7DEB790
:1042B00064970FB6F894DEBF0FBECDBF8E010F5FBF
:1042C0001F4F22E044E00E94934AFC01019000202D
:1042D000E9F73197AF01481B590BBC0187ED91E11C
:1042E0000E94002164960FB6F894DEBF0FBECDBFCA
:1042F000DF91CF911F910F910895CF93DF9300D05D
:10430000CDB7DEB769831A8241E050E0BE016F5F2E
:104310007F4F0E9400210F900F90DF91CF91089561
:10432000FB0101900020E9F73197AF01461B570BC5
:104330000C940021EF92FF920F931F93CF93DF9382
:10434000EC017B018A01BA010E94D82081110BC0C7
:10435000CE010E94E01DCE01DF91CF911F910F9100
:10436000FF90EF9008951D830C83B7018881998198
:104370000E944C53F0CFFC011182108213821282F2
:104380001582148250E040E06EED71E00C949A21A9
:10439000CF93DF9300D000D000D0CDB7DEB70E941E
:1043A0008C1764E670E080E090E00E948D09CE01F9
:1043B00001960E94BB216091290ACE0101960E94BC
:1043C0007D216EE472E0CE0101960E949021CE0123
:1043D00001960E94DC176CE271E080E090E00E94A0
:1043E0008D0988E99EE00E94A016892B29F088E9B2
:1043F0009EE00E947316F5CF64E170E080E090E0EB
:104400000E948D090E94791764E170E080E090E0DD
:104410000E948D09CE0101960E94F21D26960FB6CC
:10442000F894DEBF0FBECDBFDF91CF910895CF933B
:10443000DF9300D000D000D0CDB7DEB70E948C173C
:1044400064E670E080E090E00E948D09CE01019664
:104450000E94BB216091290ACE0101960E947D2114
:1044600062E572E0CE0101960E949021CE01019694
:104470000E94DC176CE271E080E090E00E948D0900
:1044800088E99EE00E94A016892B29F088E99EE029
:104490000E947316F5CF64E170E080E090E00E9426
:1044A0008D090E94791764E170E080E090E00E943D
:1044B0008D09CE0101960E94F21D26960FB6F89442
:1044C000DEBF0FBECDBFDF91CF910895FB010190FC
:1044D0000020E9F73197AF01461B570B0C949A2146
:1044E0000F931F93CF93DF9300D000D000D0CDB7B0
:1044F000DEB7182FCE0101960E94BB216EED71E050
:10450000CE0101960E946622612FCE0101960E9483
:104510007D2163E774E0CE0101960E94902103E0C3
:1045200010E0CE0101960E94DC1764E670E080E0A6
:1045300090E00E948D0988E99EE00E94A01618165E
:1045400019064CF064E670E080E090E00E948D096E
:104550000150110931F788E99EE00E94A0160297E8
:104560009CF00E94740511E0CE0101960E94F21D9C
:10457000812F26960FB6F894DEBF0FBECDBFDF9118
:10458000CF911F910F9108950E94740510E0ECCF18
:10459000CF93DF93EC01FB018617970749F0608109
:1045A00071816115710541F0448155810E949A2104
:1045B000CE01DF91CF9108950E94E01DF9CFCF93F6
:1045C000DF9300D000D000D0CDB7DEB71A821982B9
:1045D0001C821B821E821D8267ED71E1CE01019655
:1045E0000E94C8224091E1115091E2116091DD11C9
:1045F0007091DE11CE0101960E940021811104C04C
:10460000CE0101960E94E01DBE016F5F7F4F8DEDD0
:1046100091E10E94C822CE0101960E94F21D64E63B
:1046200070E080E090E00E948D098DED91E10E94A4
:10463000BB1962E370E080E090E00E948D0926964D
:104640000FB6F894DEBF0FBECDBFDF91CF910895B6
:10465000CF92DF92EF92FF920F931F93CF93DF934E
:10466000EC017B018A01E881F9810280F381E02D70
:104670000995D82E882329F1E114F104D1F0011510
:104680001105B9F0CFB6F8948A8D8350990BF801D3
:104690002081281719061CF08A8D84508083F80128
:1046A000408150E0BE01615E7F4FC7010E942853E8
:1046B000CFBE8FB7F894FE01E65EFE4F10821A8ED1
:1046C0008FBF8D2DDF91CF911F910F91FF90EF90B4
:1046D000DF90CF900895EF92FF920F931F93CF93A7
:1046E000DF9300D01F92CDB7DEB78C010E94110C72
:1046F000E82E81110CC0E12C8E2D0F900F900F90A1
:10470000DF91CF911F910F91FF90EF900895F801E5
:10471000808D8A3009F47EC08B3009F47DC022E0A0
:10472000F22E823041F740E861E0C8010E94E709BB
:104730006AE070E080E090E00E948D0961E0C801CD
:104740000E94270B8038B9F660E0F801808D0E9446
:104750002509F801818D8F3F49F48091790A8430D1
:1047600050F691E0980F9093790A818FF801818D2E
:10477000E82FF0E0EE0FFF1FE658F54F118300839E
:1047800068E07CE0882349F06FEF7BE0813029F01E
:10479000823009F0B0CF66EF7BE08F2D0E941A07C0
:1047A00040E06EE0C8010E94E70940E06FE0C80108
:1047B0000E94E709C8010E943F0A43E050E069E90E
:1047C00079E0CE0101960E945E4B49816DE1C801FE
:1047D0000E94E7094A816EE1C8010E94E7094B8106
:1047E00066E2C8010E94E70940E060E2C8010E9459
:1047F000E70948E061E2C8010E94E70940E050ECA7
:1048000064E674E4C8010E94530A6DE0C8010E9486
:10481000170A72CFF12C87CFFF24F39484CFCF9265
:10482000DF92EF92FF921F93CF93DF93E4E9FAE0D8
:1048300088ECDF011D928A95E9F762E370E080E081
:1048400090E00E948D090E94C0096B017C01B0E1DB
:10485000CB0EB7E2DB1EE11CF11C0E94C0096C15F7
:104860007D058E059F0540F589E59CE00E9499072E
:104870001816190694F764E670E080E090E00E9454
:104880008D0989E59CE00E949907EC01F82E10E063
:1048900089E59CE00E9478078D3039F08A3029F054
:1048A000E12FF0E0EC56F54F80831F5FF11680F7A3
:1048B000DD27CC56D54F188284E99AE0DF91CF915D
:1048C0001F91FF90EF90DF90CF900C94C71A0E9439
:1048D0000F248091940A882359F08F7D893559F0EF
:1048E0008E3459F087E799E00E94AF1983E008956C
:1048F00088E899E0F9CF81E0089582E008950E9468
:10490000B61E64E670E080E090E00E948D09EAE661
:10491000FBE080E7DF011D928A95E9F708952F9269
:104920003F924F925F926F927F928F929F92AF923F
:10493000BF92CF92DF92EF92FF920F931F93CF938C
:10494000DF93CDB7DEB764970FB6F894DEBF0FBE26
:10495000CDBFCDB6DEB6DE86CD860E94DF22E090EA
:10496000E111F090E211FC8AEB8A2DB73EB72E19C7
:104970003F090FB6F8943EBF0FBE2DBF8DB79EB74F
:1049800001965C016091DD117091DE11A7010E941A
:1049900028538091960E9091970E06978E159F053D
:1049A000C0F586E592E00E94C71A80E591E00E947A
:1049B000BD1060E087E10E94C50889EB0E94B3103A
:1049C00061E087E10E94C5088091770A81110E9409
:1049D0009310ED84FE840FB6F894FEBE0FBEEDBEBC
:1049E00064960FB6F894DEBF0FBECDBFDF91CF91B6
:1049F0001F910F91FF90EF90DF90CF90BF90AF90FD
:104A00009F908F907F906F905F904F903F902F90EE
:104A100008952DB63EB64090880E5090890E609055
:104A20008A0E70908B0E9FEF491A590A690A790A0B
:104A3000EB88FC88A6E0EA0EF11C0091940E109120
:104A4000950EC701B8010E94E550009709F466C1B0
:104A50000E0D1F1D081B190BEDB7FEB7E01BF10B68
:104A60000FB6F894FEBF0FBEEDBF2DB73EB72F5F58
:104A70003F4F4901ADB7BEB711964D925D926D9211
:104A80007C921497F901F582E4828DB79EB7079660
:104A90004B895C89B5010E942853A8014E195F0912
:104AA00070E060E0C4018E0D9F1D0E94315328010B
:104AB000712C612C4091800E5091810E6091820E7C
:104AC0007091830EC090900ED090910EE090920E57
:104AD000F090930ECF86D88AE98AFA8AD301C8016A
:104AE000840F951FA61FB71FE091760EF091770EE9
:104AF000C816D906EA06FB0608F012C15601A41A28
:104B0000B50A7801EA18FB0885019401CF010E94DB
:104B1000931164EF71E080E090E00E94E410940152
:104B20002A0D3B1D40918C0E50918D0E60918E0E82
:104B300070918F0E87018091760E9091770E0E9472
:104B400093118090800E9090810EA090820EB09074
:104B5000830E8091880E9091890EA0918A0EB0915B
:104B60008B0E0196A11DB11D8093880E9093890E26
:104B7000A0938A0EB0938B0EC301B201680D791D0C
:104B80008A1D9B1D0E941C066093800E7093810EEF
:104B90008093820E9093830E705F8F4F9F4F662796
:104BA000707F99270E941C062B013C010E947B12FA
:104BB000811128C0C301B2010E945C11C301B2017E
:104BC000705F8F4F9F4F6627707F99270E941C064A
:104BD0006D837E838F839887AE014F5F5F4F61E067
:104BE000CE0105960E946213882361F08D819E811B
:104BF000AF81B8858093780E9093790EA0937A0E4A
:104C0000B0937B0E4092840E5092850E6092860E79
:104C10007092870E80927C0E90927D0EA0927E0EF6
:104C2000B0927F0E8091780E9091790EA0917A0EBD
:104C3000B0917B0E0097A048B10540F08092780EAD
:104C40009092790EA0927A0EB0927B0E0FB6F894E5
:104C50003EBE0FBE2DBE80912A0A882309F4A5CE40
:104C600060917C0E70917D0E80917E0E90917F0EF2
:104C70000E942B127C0160917C0E70917D0E8091C0
:104C80007E0E90917F0E0E942B128C01009769F08E
:104C90002091940E3091950EB9010E94E550009735
:104CA00021F0020F131F081B190B8BE692E00E94E4
:104CB000591D6091880E7091890E80918A0E909195
:104CC0008B0E0E94BA1A8BE792E00E94591D8DED5F
:104CD00091E10E94BB1982E892E00E94591DCB88A5
:104CE000DC88B60190E080E04AE00E94DA198EE8A4
:104CF00092E00E94591DB70190E080E04AE00E94D6
:104D0000DA198BE992E00E94591DB80190E080E029
:104D10004AE00E94DA190E94AB1947CE87019CCE67
:104D20009401CF010CCF8F929F92AF92BF92CF92FE
:104D3000DF92EF92FF920F931F93CF93DF93CDB744
:104D4000DEB72E970FB6F894DEBF0FBECDBF0E9420
:104D5000C60F6093900A7093910A8093920A909381
:104D6000930A82E10E949A18182F81E10E949A18F2
:104D7000612F782F77FF02C0615C7F4F86E07595C9
:104D800067958A95E1F7072E000C880B990B0E9416
:104D90002B4E20E030E040E85EE30E948A4E6093B4
:104DA000250A7093260A8093270A9093280A61E0C7
:104DB0008CE10E9425098E010F5F1F4FB80180E32F
:104DC00090E00E94D01E89819A81019679F4BE01FB
:104DD000625F7F4F80E190E00E94E41E8E85853403
:104DE00009F433C188EE93E09A83898361E08CE112
:104DF0000E94C50884EE93E00197F1F70E94700FBE
:104E00004B015C0160E08CE10E94C50820E030E0CD
:104E100048EC52E4C501B4010E948A4E0E94A050A1
:104E2000CB0164E670E00E94E5507C01C501B4014D
:104E30000E94A05044E6469F9001479F300D1124E8
:104E40002E0D3F1DA8EEB3E00E94B24F29813A819A
:104E500050E040E00E945E4F69010E94700F4B01DC
:104E60005C016EED71E087ED91E10E94662264E1E4
:104E700070E080E090E00E948D0960E071E087EDD5
:104E800091E10E9490216EE787ED91E10E947D21E2
:104E900064E67BE087ED91E10E9490216EE787ED6B
:104EA00091E10E947D216091600B7091610B809176
:104EB000620B9091630B2AE0A8010E94814BF801DC
:104EC00001900020E9F73197AF01401B510BB80169
:104ED00087ED91E10E9400216EE787ED91E10E944C
:104EE0007D216091900A7091910A8091920A90912F
:104EF000930A0E9452216EE787ED91E10E947D2185
:104F00006091250A7091260A8091270A9091280ABB
:104F10000E9452216EE787ED91E10E947D214AE0D7
:104F2000B801C6010E94A34BF80101900020E9F7E7
:104F30003197AF01401B510BB80187ED91E10E9401
:104F400000216EE787ED91E10E947D21C501B4014A
:104F50000E9452216EE787ED91E10E947D214AE097
:104F6000B80180912E0A90912F0A0E94674BF80198
:104F700001900020E9F73197AF01401B510BB801B8
:104F800087ED91E10E9400216DE287ED91E10E94A1
:104F90007D218091310A0E942C216DE287ED91E103
:104FA0000E947D218091300A0E942C216FE587EDBF
:104FB00091E10E947D2180912D0A0E942C216AE3BB
:104FC00087ED91E10E947D2110918C0A1A3028F41E
:104FD00060E387ED91E10E947D21812F0E942C21C9
:104FE0006AE387ED91E10E947D2110912C0A1A302D
:104FF00028F460E387ED91E10E947D21812F0E94DA
:105000002C216DEA72E087ED91E10E9490216EE71C
:1050100087ED91E10E947D2162E370E080E090E005
:105020000E948D092E960FB6F894DEBF0FBECDBF3D
:10503000DF91CF911F910F91FF90EF90DF90CF9074
:10504000BF90AF909F908F90089584E690E0CCCE73
:105050002F923F924F925F926F927F928F929F9288
:10506000AF92BF92CF92DF92EF92FF920F931F9376
:10507000CF93DF93CDB7DEB7C85ED1090FB6F894F2
:10508000DEBF0FBECDBF2DB73EB7CD51DF4F398349
:105090002883C35ED0406EED71E08DED91E10E94FA
:1050A00066220E948C1764EF71E080E090E00E941D
:1050B0008D09412C96E7592EAE014F5F5F4F3A01A3
:1050C0001E015EEB250E311C8091290390912A036D
:1050D000A0912B03B0912C03CB51DF4F8883998390
:1050E000AA83BB83C55ED04080912B0A481608F086
:1050F000CFC5842C912C589CC001599C900D112433
:10510000FC01E550FE4EA081C352DF4FA883CD5D68
:10511000D0404092240A8C01FC01E05EFD4E7F01EC
:1051200062EB72E0CF010E944353892B09F0B0C0BB
:1051300081E08093230A64E670E080E090E00E94C2
:105140008D09F090230A8091240A082F10E0FF2097
:1051500009F40FC5C352DF4F3881CD5DD040C8532D
:10516000DF4F3883C85CD040C753DF4F1882C95C1B
:10517000D040859DC001112462EB72E0805E9D4E9F
:105180000E9443536CEB72E0892B11F460EC72E0E7
:10519000CE018F529F4F0E944C53BE016F527F4FE2
:1051A000CE0188539F4F0E943853CE0188539F4FA2
:1051B0000E94771964EF71E080E090E00E948D0911
:1051C00088E99EE00E94A016843008F441C44DB7DF
:1051D0005EB7C152DF4F59834883CF5DD040C3547F
:1051E000DF4F1882CD5BD0408E0102581F4FD12C6B
:1051F000C12CE12CAC2C88E99EE00E947316B82EDD
:1052000068E070E080E090E00E948D09D801BD92D6
:105210008D01BDE0BB12DDC0EEE7F0E0EC0FFD1F3D
:10522000EC0DFD1D10820E947405EA0C8E2D90E09D
:105230006C0131E0C31AD1084DB75EB7481B590B5A
:105240000FB6F8945EBF0FBE4DBF0DB71EB70F5F10
:105250001F4FB12CAA24A3948EE7982EBE1408F0F9
:10526000D4C0EEE7F0E0EC0FFD1FEA0DF11D8081E8
:10527000F801EB0DF11D8B3209F0BEC09082A394B2
:1052800065E070E080E090E00E948D09B394E6CF85
:10529000C8018B5D9D4E0E94771964E670E080E046
:1052A00090E00E948D0988E99EE00E94A0161816E1
:1052B00019060CF085C02DB73EB7CB52DF4F3983AE
:1052C0002883C55DD04081E08093230A88E99EE071
:1052D0000E94A016C952DF4F8883C75DD0406C0181
:1052E000DD244DB75EB74C195D090FB6F8945EBF6B
:1052F0000FBE4DBF0DB71EB70F5F1F4FC752DF4F19
:105300000883C95DD04058018A2DC752DF4F5881AC
:10531000C95DD040851BC952DF4F9881C75DD04021
:10532000891740F488E99EE00E947316D5018D9399
:105330005D01EACF0C0D1D1DF80134978081082E08
:10534000000C990BC097E8EEF3E08E9F90018F9FC1
:10535000300D9E9F300D11243093220A2093210A94
:1053600067EB72E0C7010E944353892B69F4589C94
:10537000F001599CF00D1124E550FE4E0350110927
:10538000D8018C91805387A7CB52DF4FE881F981F8
:10539000C55DD0400FB6F894FEBF0FBEEDBF609163
:1053A000210A7091220A072E000C880B990B0E948B
:1053B0008D090E94740562E370E080E090E0BFCE4A
:1053C00028EE33E03093220A2093210A1092230A18
:1053D000E6CFEDE2BE1201C0E3946AE070E080E047
:1053E00090E00E948D09FFEFCF1ADF0A20E4C21679
:1053F000D10409F0FFCE17CF8D3229F4B3949082F7
:10540000F801EB0DF11D80833ACFF801EC0DFD1D85
:10541000108280912A0A882349F00E94AB1984ECFB
:1054200092E00E94591DC8010E94C71A8091240A67
:10543000A82FB0E0C952DF4FB983A883C75DD04021
:10544000859DF0011124CB52DF4FF983E883C55DC0
:10545000D04069ED72E0CF01805E9D4E0E944353C3
:10546000CB52DF4F28813981C55DD04024503E4E5C
:105470004901892B09F04EC24DB75EB7CF51DF4FBE
:1054800059834883C15ED040E3948E2D90E0C7528B
:10549000DF4F99838883C95DD0400197ADB7BEB710
:1054A000C752DF4FE881F981C95DD040AE1BBF0B09
:1054B0000FB6F894BEBF0FBEADBF2DB73EB72F5F7E
:1054C0003F4FC552DF4F39832883CB5DD040D90190
:1054D000302FF8014EE72E2F231B2E1540F421917B
:1054E000222319F02C931196F6CF4C93FCCFC55282
:1054F000DF4FE881F981CB5DD040E80FF91F1082C2
:10550000C352DF4F3881CD5DD040CD53DF4F38835C
:10551000C35CD040CC53DF4F1882C45CD040CB5129
:10552000DF4F88819981AA81BB81C55ED040C3537A
:10553000DF4F88839983AA83BB83CD5CD040BE01B3
:1055400063537F4FCE018D539F4F0E943853CE013E
:105550008D539F4F0E94771964EF71E080E090E0D7
:105560000E948D0988E99EE00E94A016A82FA150F4
:10557000BB0B5D01EDB7FEB7EA1BFB0B0FB6F89452
:10558000FEBF0FBEEDBF0DB71EB70F5F1F4F8630BA
:1055900030F1E12CCE2CD12CCA14DB0404F588E9BF
:1055A0009EE00E9473168D3089F08A3099F0F801E0
:1055B000EC0DFD1D8B3281F08D3271F080836FE038
:1055C00070E080E090E00E948D0904C0F801EC0DCD
:1055D000FD1D1082E394DECF2EE72083F0CF809173
:1055E0002A0A882339F08EED92E00E94591DC801E5
:1055F0000E94C71A6EE770E0C8010E946253801BC8
:10560000910B282FF801E80FF11D91E08FEF890F22
:10561000921760F432913E3749F0322F391BC25253
:10562000DF4F3883CE5DD0409F5FF0CFA82EB12CE6
:1056300095012F5F3F4F4DB75EB7421B530B0FB61F
:10564000F8945EBF0FBE4DBFADB7BEB711966D01EA
:10565000D801C252DF4FE881CE5DD040AE0FB11D00
:105660002C2DF6019E2F921B981718F49D91919363
:10567000F9CFF601EA0DFB1D108264E670E080E0D0
:1056800090E00E948D0980912A0A882369F081EFB9
:1056900092E00E94591DC6010E94C71A64E170E0A1
:1056A00080E090E00E948D09C752DF4F2881398148
:1056B000C95DD040A20EB31E4DB75EB74A195B0953
:1056C0000FB6F8945EBF0FBE4DBF0DB71EB70F5F8C
:1056D0001F4F62E370E080E090E00E948D09C552A8
:1056E000DF4F68817981CB5DD040C8010E944C5367
:1056F00062E370E080E090E00E948D098EE7D801BF
:105700008C9362E370E080E090E00E948D09B60126
:10571000C8010E94385362E370E080E090E00E948C
:105720008D0980912A0A882339F08FEF92E00E9438
:10573000591DC8010E94C71AC952DF4F28813981FB
:10574000C75DD040529EF001539EF00D1124E550EC
:10575000FE4E20A980912B0A8150990BC952DF4F30
:1057600048815981C75DD0404817590709F491C055
:10577000222309F46FC01F930F93CB52DF4F888110
:105780009981C55DD040855D9D4E9F938F939F927B
:105790008F9289E093E09F938F937F926F920E9404
:1057A0008753EDB7FEB73A960FB6F894FEBF0FBE1B
:1057B000EDBF80912A0A882319F0C3010E94C71AFD
:1057C00064E670E080E090E00E948D09B3018DED09
:1057D00091E10E94902162E370E080E090E00E94FD
:1057E0008D09CF51DF4FE881F981C15ED0400FB6FE
:1057F000F894FEBF0FBEEDBFC152DF4FE881F981C3
:10580000CF5DD0400FB6F894FEBF0FBEEDBF62E390
:1058100070E080E090E00E948D09F1100BC0B301B0
:105820008DED91E10E94902162E370E080E090E0D4
:105830000E948D090E94740562E370E080E090E0B0
:105840000E948D0964EF71E080E090E00E948D0974
:1058500043944ACC85E0EEE2F3E0D10101900D9251
:105860008A95E1F71F930F933F922F929F928F9209
:1058700029E033E03F932F937F926F920E948753EA
:105880008DB79EB70A960FB6F8949EBF0FBE8DBF18
:1058900090CF222301F11F930F93CB52DF4F8881CA
:1058A0009981C55DD040855D9D4E9F938F939F925A
:1058B0008F92A2E1B3E0BF93AF937F926F920E9469
:1058C00087532DB73EB7265F3F4F0FB6F8943EBFC4
:1058D0000FBE2DBF6ECF85E0EEE2F3E0D101019067
:1058E0000D928A95E1F71F930F933F922F929F920B
:1058F0008F9242E153E05F934F937F926F920E94A9
:105900008753ADB7BEB71A960FB6F894BEBF0FBE99
:10591000ADBF4FCFC952DF4F28813981C75DD0401D
:10592000529EF001539EF00D1124E550FE4E20A929
:1059300080912B0A8150990BC952DF4F48815981C0
:10594000C75DD0404817590709F441C0222301F12F
:105950001F930F93CB52DF4F88819981C55DD04053
:10596000855D9D4E9F938F939F928F9289E093E0E8
:105970009F938F937F926F920E948753EDB7FEB7EC
:105980003A960FB6F894FEBF0FBEEDBFF12C34CFA0
:1059900085E0EEE2F3E0D10101900D928A95E1F706
:1059A0001F930F933F922F929F928F9229E033E0A3
:1059B0003F932F937F926F920E9487538DB79EB72C
:1059C0000A960FB6F8949EBF0FBE8DBFDFCF22237D
:1059D00001F11F930F93CB52DF4F88819981C55DF1
:1059E000D040855D9D4E9F938F939F928F92A2E1B1
:1059F000B3E0BF93AF937F926F920E9487532DB70E
:105A00003EB7265F3F4F0FB6F8943EBF0FBE2DBF87
:105A1000BDCF85E0EEE2F3E0D10101900D928A95D1
:105A2000E1F71F930F933F922F929F928F9242E143
:105A300053E05F934F937F926F920E948753ADB76D
:105A4000BEB71A960FB6F894BEBF0FBEADBF9ECFBD
:105A5000EDB6FEB686E0EDE2F3E0DE01A258BF4F00
:105A600001900D928A95E1F7509EF001519EF00D44
:105A70001124E550FE4EC7A48C2D880F8C0D880F85
:105A80002DB73EB7281B31090FB6F8943EBF0FBEA5
:105A90002DBF0DB71EB70F5F1F4F902EA12EBE0159
:105AA00062587F4FC8010E944C5331E03C1588F486
:105AB000B12C4C2D4150550B6A01BC141D044CF403
:105AC000BE0162587F4F892D9A2D0E943853B3949E
:105AD000F4CF80912A0A882339F08AE193E00E946A
