:100000000C94DB040C945E3E0C94333E0C94083E3E
:100010000C94DD400C9405050C9405050C94F940F6
:100020000C9405050C9405050C9405050C94050528
:100030000C9405050C94893E0C9405050C9405055B
:100040000C9405050C9405050C94BE3D0C94050517
:100050000C94893D0C945F3D0C9405050C940505AA
:100060000C9405050C9405050C94B93F0C940505FA
:100070000C9405050C9405050C9405050C940505D8
:100080000C9405050C9405050C94050500407A10A8
:10009000F35A00A0724E18090010A5D4E80000E839
:1000A0007648170000E40B54020000CA9A3B000097
:1000B00000E1F505000080969800000040420F0026
:1000C0000000A08601000000102700000000E803E7
:1000D000000000006400000000000A0000000000B2
:1000E0000100000000002C76D888DC674F0823DF71
:1000F000C1DFAE59E1B1B796E5E3E453C63AE65144
:10010000997696E8E6C28426EB898C9B62ED407C6A
:100110006FFCEFBC9C9F40F2BAA56FA5F490055A06
:100120002AF75C936B6CF9676DC11BFCE0E40D472B
:10013000FEF520E6B500D0ED902E0300943577054E
:100140000080841E080000204E0A000000C80C3306
:100150003333330F986E12831141EF8D2114893B95
:10016000E65516CFFEE6DB18D1844B381BF77C1D15
:10017000901DA4BBE424203284725E228100C9F168
:1001800024ECA1E53D276364696E6F707375785840
:100190005B00446F6E65005363616E6E696E67202D
:1001A000666F72205344492D31322073656E736F30
:1001B00072732E2E2E002020696E707574206D696A
:1001C0006E7574653A20002020696E707574206821
:1001D0006F75723A202020002020696E707574209F
:1001E000796561723A202020002020696E70757454
:1001F000206461793A20202020002020696E7075EB
:1002000074206D6F6E74683A202000456E746572BC
:1002100020746865206461746520616E642074696F
:100220006D6520696E20436F6F7264696E617465DD
:100230006420556E6976657273616C2054696D65D2
:100240002028555443293A200020202020456E7450
:100250006572204761746577617920726164696FA6
:100260002049443A200041726520796F75207573EA
:10027000696E67206120476174657761793F204529
:100280006E7465722027792720666F7220796573F6
:100290002C20276E2720666F72206E6F3A20004454
:1002A000656661756C7420726164696F20494420D1
:1002B000616363657074656400526164696F2049AD
:1002C0004420757064617465640020456E746572C5
:1002D000206E657720726164696F2049443A20007E
:1002E000576F756C6420796F75206C696B6520742D
:1002F0006F206368616E6765207468652072616451
:10030000696F2049442066726F6D207468652064AF
:10031000656661756C742076616C75653F2028791F
:100320002F6E293A2000456E746572206E65772025
:100330006D6561737572656D656E7420696E746547
:100340007276616C2865766572792031302C2031A7
:10035000352C2032302C2033302C206F7220363058
:10036000206D696E73293A20004552524F523A204F
:100370006D696E696D756D203135206D696E7574AE
:100380006520696E74657276616C2072657175693D
:1003900072656420776974682052482073656E73B3
:1003A0006F722E00496E76616C696420696E7465A7
:1003B0007276616C2E20456E746572206D65617376
:1003C0007572656D656E7420696E74657276616CA8
:1003D000202865766572792031302C2031352C202B
:1003E00032302C2033302C206F72203630206D6953
:1003F0006E73293A2000456E746572206D656173D5
:100400007572656D656E7420696E74657276616C67
:10041000202865766572792031302C2031352C20EA
:1004200032302C2033302C206F72203630206D6912
:100430006E73293A200053756363657373004164DA
:100440006472657373206368616E676520666169B5
:100450006C65640043757272656E742061646472C9
:100460006573733A20002020456E74657220612008
:1004700050726F6A65637420494420287570207437
:100480006F203520636861726163746572732C201C
:1004900065783A20505341293A2000457869740024
:1004A00041726520796F75207375726520796F755B
:1004B0002077616E7420746F2065726173652061AE
:1004C0006C6C20646174612073746F726564206960
:1004D0006E206D656D6F72793F2028792F6E293AF5
:1004E0002000496E76616C696420696E7075742EA7
:1004F0002052657475726E696E6720746F206D6529
:100500006E752E00456E7465722063686F69636551
:100510003A2000202074202D2D3E205072696E74E8
:10052000206C6174657374206C6F677300202061A8
:10053000202D2D3E205072696E7420616C6C2074E9
:1005400068652064617461005072696E7420646132
:10055000746120746F2073637265656E3A20005475
:10056000657374206D6561737572656D656E747306
:100570003A00456E7465722073656E736F72206405
:100580006570746820696E20636D2E205573652038
:10059000272B27206F7220272D2720746F20696E4C
:1005A0006469636174652061626F7665206F722093
:1005B00062656C6F7720736F696C2073757266610A
:1005C00063653A00456E74657220636F6E66696795
:1005D00075726174696F6E20737472696E673A2008
:1005E0000052454D494E4445523A205573652027E7
:1005F0002B27206F7220272D2720746F20696E64AF
:1006000069636174652061626F7665206F72206234
:10061000656C6F7720736F696C20737572666163A8
:100620006520666F72206465707468732100456E82
:100630007465722063686F6963653A20002020202A
:100640007820203C2D2D202045786974206D656E22
:1006500075002020206520203C2D2D202045726132
:10066000736520616C6C20646174610020202070CF
:1006700020203C2D2D20205072696E7420646174FE
:100680006120746F2073637265656E002020207492
:1006900020203C2D2D2020546573742073656E73CB
:1006A0006F7273002020206120203C2D2D202043DC
:1006B00068616E6765205344492D31322073656E41
:1006C000736F722061646472657373002020206E02
:1006D00020203C2D2D20205363616E20666F7220F8
:1006E00064657669636573206F6E205344492D31CC
:1006F0003220627573002020206D20203C2D2D209B
:1007000020536574206D6561737572656D656E74D7
:1007100020696E74657276616C0020202072202042
:100720003C2D2D20204368616E6765204E6F646507
:1007300020726164696F20494400202020672020D6
:100740003C2D2D2020456E746572204761746577BD
:10075000617920726164696F20494400202020691A
:1007600020203C2D2D2020456E7465722070726F04
:100770006A656374204944002020206320203C2DBA
:100780002D202053657420636C6F636B0020202044
:100790006420203C2D2D2020456E746572207365E9
:1007A0006E736F722064657074687300202020304F
:1007B00020203C2D2D2020456E74657220636F6EC5
:1007C00066696775726174696F6E20737472696EA1
:1007D00067004D656E75206F7074696F6E733A2097
:1007E0000043757272656E7420626174746572790B
:1007F00020766F6C746167653A20200043757272D1
:10080000656E74206461746520262074696D653A94
:1008100020004D6561737572656D656E7420496E5B
:1008200074657276616C3A2000476174657761790E
:1008300020526164696F2049443A20005261646922
:100840006F2049443A200050726F6A6563742049F2
:10085000443A20004C6F526120526164696F204617
:1008600072657120284D487A293A200053657269D3
:10087000616C204E756D6265723A20005665727328
:10088000696F6E2000536F696C2057617465722028
:1008900044617461204E6574776F726B202D205710
:1008A0006972656C657373205344492D313220445D
:1008B0006174616C6F67676572204E6F646500726A
:1008C000740092740048940078C400000021002451
:1008D0000027002A0000002200250028002B00002D
:1008E0000020002300260029000202020202020268
:1008F00002040404040404040403030303030303C1
:10090000030101010101010101010204081020405D
:1009100080010204081020408001020408102040D9
:10092000800102040810204080000000010200093C
:100930000A00000000040308070000000000000097
:100940000000000000000000004552524F523A20C3
:100950004D697373696E67202B2F2D206265666F5A
:10096000726520646570746821004552524F523A96
:1009700020496E76616C696420696E746572766177
:100980006C202865766572792031302C2031352C29
:100990002032302C2033302C206F72203630206DE6
:1009A000696E73290070726F6A65637449443A20F6
:1009B0000000B141184811241FBECFEFD0E4DEBFC4
:1009C000CDBF17E0A0E0B1E0E8EAFEEA00E00BBF2F
:1009D00002C007900D92AC33B107D9F729E1ACE31F
:1009E000B7E001C01D92A630B207E1F714E0CAEDEE
:1009F000D4E004C02197FE010E94B24EC93DD10748
:100A0000C9F70E94BB420C9447570C940000109207
:100A1000030C1092020C1092500E08950895089540
:100A2000982F2091F90B81E0213208F043C080918A
:100A3000F80B8111FCCF8091F10B32E03093F80B71
:100A40009093F70B9FEF9093CF0B1092CE0B2093C8
:100A5000CD0BA1EDBBE0EDEAFBE090E0291331C046
:100A60001092AC0B9091AC0B880F892B8093AC0B40
:100A70008091F60B813049F51092F60B8091AC0B0A
:100A80008093BB008091BC0083FDF8CF85EC809300
:100A9000BC008091F80B8230E1F38091CF0B8F3F47
:100AA000B1F08091CF0B8032A1F08091CF0B8033D9
:100AB00091F084E01092FA0B1092F90B1092D00B87
:100AC00008953D9131939F5FC9CF85EEE0CF80E0DF
:100AD000F1CF82E0EFCF83E0EDCF9091F80B911151
:100AE000FCCF91E09093F80B9093F70B2FEF2093AE
:100AF000CF0B1092CE0B260F2093CD0B9093AC0B07
:100B00009091AC0B880F892B8093AC0B8091F60BE6
:100B10008130F9F41092F60B8091AC0B8093BB00FE
:100B20008091BC0083FDF8CF85EC8093BC00809160
:100B3000F80B8130E1F38091CE0B861710F46091B1
:100B4000CE0BADEABBE0ECE8FBE080E0861303C02F
:100B5000089585EEEACF9D9191938F5FF7CF4F92E5
:100B60005F926F927F928F929F92AF92BF92CF923D
:100B7000DF92EF92FF920F931F9300913B0E109123
:100B80003C0E20913D0E30913E0EC090370ED0901D
:100B9000380EE090390EF0903A0E480159018C1849
:100BA0009D08AE08BF0826013701401A510A620AA3
:100BB000730A601771078207930728F0640D751D8B
:100BC000861D971DF6CF6C157D058E059F0528F4B3
:100BD000680D791D8A1D9B1DECCF1F910F91FF9011
:100BE000EF90DF90CF90BF90AF909F908F907F90CD
:100BF0006F905F904F900895BF92CF92DF92EF92E7
:100C0000FF920F931F93CF93DF93EC01B62EC88012
:100C1000D980EA80FB8000913F0E1091400E980130
:100C200050E040E0C701B6010E94034D662391F0F9
:100C3000862F90E09801369527958217930700F14B
:100C4000081B190BC00ED11EE11CF11CC882D982F1
:100C5000EA82FB82688179818A819B81BB20A9F02D
:100C60000E94AF05688379838A839B83DF91CF914C
:100C70001F910F91FF90EF90DF90CF90BF9008955C
:100C8000C61AD108E108F108E1CF00913B0E10919E
:100C90003C0E20913D0E30913E0E06171707280797
:100CA000390720F7088319832A833B83DFCFE4E0E9
:100CB000FCE0A089B18982E08C93A485B5851C9263
:100CC000A685B78580E18C93108EA489B58986E0CE
:100CD0008C93A289B3898C9180618C93A289B3890A
:100CE0008C9188608C93A289B3898C9180688C9355
:100CF0000288F389E02D80818F7D80830895809123
:100D0000530E9091540EDC01ED91FC910484F58515
:100D1000E02D0994FF920F931F93CF93DF938C01E3
:100D2000F62EC3E5DEE088819981DC01ED91FC912E
:100D30000488F589E02D642F099588819981DC016B
:100D4000ED91FC910680F781E02D4F2DB801DF91E8
:100D5000CF911F910F91FF900994E82FF0E0EE0FD3
:100D6000FF1FE35FFE4F71836083813049F0823063
:100D700071F080916900836080936900E89A08951A
:100D8000809169008C6080936900E99A0895809150
:100D90006900806380936900EA9A0895AF92BF92D8
:100DA000CF92DF92EF92FF920F931F93CF93DF9337
:100DB0006C017B018B01040F151FEB015E01AE1866
:100DC000BF08C017D10759F06991D601ED91FC9188
:100DD0000190F081E02DC6010995892B79F7C501B5
:100DE000DF91CF911F910F91FF90EF90DF90CF9007
:100DF000BF90AF900895FC01538D448D252F30E0B6
:100E0000842F90E0821B930B541718F081509F4F52
:100E1000089501970895FC01918D828D981759F0DE
:100E2000A28DAE0FBF2FB11D5D968C91928D9F5FED
:100E3000928F90E008958FEF9FEF0895FC01918DC0
:100E4000828D981731F0828DE80FF11D858D90E02D
:100E500008958FEF9FEF0895FC01918D828D981B6F
:100E6000892F90E0089584E09CE00E942C0721E007
:100E7000892B09F420E0822F0895FC01A48DA80F8E
:100E8000B92FB11DA35EBE4F9C91848D8F5F848F5F
:100E9000A689B7899C93A089B1898C91837080645D
:100EA0008C93938D848D981306C00288F389E02D6E
:100EB00080818F7D808308950F931F93CF93DF935D
:100EC000EC0181E0888F9B8D8C8D981318C0E88988
:100ED000F989808185FF13C09FB7F894EE89FF8957
:100EE0006083E889F98980818370806480839FBFF3
:100EF00081E090E0DF91CF911F910F910895062F2F
:100F00001B8D1F5F8C8D81130CC00FB607FCFACFB1
:100F1000E889F989808185FFF5CFCE010E943D07E0
:100F2000F1CFEB8DEC0FFD2FF11DE35EFE4F008343
:100F30009FB7F8941B8FEA89FB8980818062D6CFA6
:100F4000682F84E09CE00C945C070F931F93CF9371
:100F5000DF938C01D0E0C0E0F801EC0FFD1F64913D
:100F6000662341F084E09CE00E945C07892B11F02D
:100F70002196F2CFCE01DF91CF911F910F9108956D
:100F8000CF93DF93EC01888D8823B9F0AA89BB89C0
:100F9000E889F9898C9185FD03C0808186FD0DC0AB
:100FA0000FB607FCF7CF8C9185FFF2CF808185FFCC
:100FB000EDCFCE010E943D07E9CFDF91CF9108959B
:100FC00080E090E0892B29F00E94330781110E9474
:100FD000000080E090E0892B49F080E090E0892BD0
:100FE00029F00E94000081110C94000008958150A6
:100FF0008A3080F5E82FF0E0E050F84F0C94B24EC4
:10100000140818080A0810082A082A081B082108CA
:1010100025082B08809180008F77809380000895A9
:10102000809180008F7DF9CF84B58F7784BD08953E
:1010300084B58F7DFBCF8091B0008F778093B00017
:1010400008958091B0008F7DF9CF809190008F77C7
:10105000809390000895809190008F7DF9CFCF9379
:10106000DF93282F30E0F901E75DF64F8491F90115
:10107000E75FF64FD491F901E751F74FC491CC23C4
:10108000A1F081110E94F707EC2FF0E0EE0FFF1F97
:10109000E152F74FA591B491EC91ED2381E090E0FE
:1010A00009F480E0DF91CF91089580E090E0FACFDD
:1010B0001F93CF93DF93282F30E0F901E75DF64FC0
:1010C0008491F901E75FF64FD491F901E751F74FA9
:1010D000C491CC23A9F0162F81110E94F707EC2FA1
:1010E000F0E0EE0FFF1FEB52F74FA591B4918FB7D1
:1010F000F894EC91111108C0D095DE23DC938FBFDA
:10110000DF91CF911F910895DE2BF8CF1092FC0B49
:101110001092FB0B1092FA0B1092F90B1092F80B35
:1011200081E08093F70B1092F60B61E081E10E9461
:10113000580861E080E10E945808E9EBF0E0808106
:101140008E7F808380818D7F808380E28093B80052
:1011500085E48093BC008EE095E09093F50B80933E
:10116000F40B8FE095E09093F30B8093F20B0895CE
:10117000CF93DF9390E0FC01E75FF64F2491875116
:10118000974FFC0184918823D1F090E0880F991F3C
:10119000FC01E553F74FA591B491FC01EB52F74FD9
:1011A000C591D49161110EC09FB7F8948C91E22F34
:1011B000E0958E238C932881E223E8839FBFDF9103
:1011C000CF9108958FB7F894EC91E22BEC938FBFF9
:1011D000F6CF8851806480937C0080917A0080648F
:1011E00080937A0080917A0086FDFCCF8091780010
:1011F0009091790008953FB7F8948091310A9091C9
:10120000320AA091330AB091340A26B5A89B05C0D2
:101210002F3F19F00196A11DB11D3FBFBA2FA92F75
:10122000982F8827BC01CD01620F711D811D911D72
:1012300043E0660F771F881F991F4A95D1F70895DD
:101240008F929F92AF92BF92CF92DF92EF92FF92D6
:101250006B017C010E94FB084B015C01C114D104AD
:10126000E104F104B9F00E94FB08681979098A09C0
:101270009B09683E73408105910580F321E0C21A05
:10128000D108E108F10888EE880E83E0981EA11CC1
:10129000B11CE4CFFF90EF90DF90CF90BF90AF9064
:1012A0009F908F9008952FB7F89460912D0A7091B8
:1012B0002E0A80912F0A9091300A2FBF0895089529
:1012C0008BEF0895CF93DF93FC012281338122308D
:1012D000310569F0EC01638D818D0E94580860E052
:1012E000888D0E94580882E090E09B838A83DF917A
:1012F000CF910895FF920F931F93CF93DF93EC014B
:10130000162FF42E0FB7F89460E08F890E945808CA
:101310008D899E89612F6068DC01ED91FC910190BF
:10132000F081E02D0995182F8D899E89DC01ED91C2
:10133000FC910190F081E02D6F2D099561E08F897E
:101340000E9458080FBF812FDF91CF911F910F91FD
:10135000FF9008950F931F93CF938C01C62F44E005
:101360006DE40E947A094BEF4C0F406869E0C801B8
:10137000CF911F910F910C947A09CF93DF93FC01C9
:10138000228133812130310549F0EC0140E061E0F8
:101390000E947A0981E090E09B838A8381E0DF915B
:1013A000CF910895CF93DF93FC01228133812230C6
:1013B000310549F0EC0141E061E00E947A0982E0E8
:1013C00090E09B838A83DF91CF910895CF92DF9243
:1013D000EF92FF92CF93DF93EC01CB01BA0120E0B3
:1013E00034E244E759E40E942F4C20E034E244E721
:1013F00052E40E94D34D0E94454E6B017C01A7012F
:101400006627772766E0CE010E947A0977276F2D3D
:101410005E2D4D2D67E0CE010E947A094C2D68E0CB
:10142000CE010E947A0981E0DF91CF91FF90EF9089
:10143000DF90CF900895CF92DF92EF92FF920F93BB
:101440001F93CF93DF934C3F08F067C0142F072FF3
:10145000F62EEC01E881F9810484F585E02D0995EB
:10146000CE010E94D20940E06DE0CE010E947A09CF
:101470004A8560E0CE010E947A094B8560E0CE018A
:101480000E947A094C8560E0CE010E947A094D8560
:1014900060E0CE010E947A09EFB6F89460E08F898F
:1014A0000E9458088D899E89DC01ED91FC91019084
:1014B000F081E02D60E80995CF2CD02E012F01504E
:1014C00068F08D899E89F60161916F01DC01ED91D3
:1014D000FC910190F081E02D0995F1CF61E08F89B9
:1014E0000E945808EFBE44E0410F62E2CE010E9424
:1014F0007A098A819B81039771F043E061E0CE0114
:101500000E947A0940E460E4CE010E947A0983E0F7
:1015100090E09B838A8381E001C080E0DF91CF91DE
:101520001F910F91FF90EF90DF90CF900895CF9390
:10153000DF93FC012281338123303105C9F0EC01B6
:1015400082819381049771F045E061E0CF010E94B0
:101550007A0940E060E4CE010E947A0984E090E0DC
:101560009B838A83C65EDE4F8881DF91CF91089589
:1015700080E0FBCF0F931F93CF93DF93EC01162FE7
:101580000FB7F89460E08F890E9458088D899E8972
:10159000DC01ED91FC910190F081E02D612F099526
:1015A0008D899E89DC01ED91FC910190F081E02D07
:1015B00060E00995182F61E08F890E9458080FBFDD
:1015C000812FDF91CF911F910F910895DF92EF92BC
:1015D000FF920F931F93CF93DF93EC0162E10E9480
:1015E000BA0A2A813B8124303105A1F4982F907AE0
:1015F00089F08F8598890196988B8F874FEF62E1EC
:10160000CE01DF91CF911F910F91FF90EF90DF906E
:101610000C947A092A813B812430310511F486FD2E
:101620000DC02A813B812330310541F783FFE6CF8E
:101630008B899C8901969C8B8B8B67C063E1CE0163
:101640000E94BA0A082F60E1CE010E94BA0A482F10
:101650006DE0CE010E947A09DFB6F89460E08F89D0
:101660000E9458088D899E89DC01ED91FC910190C2
:10167000F081E02D60E009957E01BBE1EB0EF11CED
:10168000102F115070F08D899E89DC01ED91FC9135
:101690000190F081E02D60E00995F70181937F01D1
:1016A000F0CF61E08F890E945808DFBE0A8F4FEFAC
:1016B00062E1CE010E947A096AE1CE010E94BA0A73
:1016C00089588E878A8DFE01E65EFE4F8430C8F011
:1016D0008B8D8E838C8D8F838D8D88878E8D898762
:1016E0008D81811107C09E818C81981719F08E81A0
:1016F0008F3F39F489899A8901969A8B898B81E089
:1017000080838081882309F479CFCE010E94D20999
:1017100075CF80912A0A90912B0A009711F00C94B2
:10172000E60A08958091280A9091290A009711F0FD
:101730000C94E60A08958091260A9091270A009752
:1017400011F00C94E60A0895CF93DF93EC018D8994
:101750009E89DC01ED91FC910680F781E02D0995D1
:1017600061E08F890E94B80861E08F890E94580863
:1017700064E670E080E090E00E94200981E0DF9163
:10178000CF910895FF920F931F93CF93DF931F92F2
:10179000CDB7DEB7F42E03E51EE0D8018D919C9104
:1017A000DC01ED91FC91008CF18DE02D0995F801A3
:1017B00080819181DC01ED91FC91028CF38DE02D13
:1017C00040E060E8099581E289834F2D61E0CE0118
:1017D00001960E948A060E947F060F90DF91CF91AA
:1017E0001F910F91FF9008952F923F924F925F9219
:1017F0006F927F928F929F92AF92BF92CF92DF9221
:10180000EF92FF920F931F93CF93DF938C015B01B5
:101810006A0119010E9453092B013C01F12CE12CB2
:101820000E94530964197509860997096C157D058D
:101830008E059F0508F078C08091530E9091540E4C
:10184000DC01ED91FC910280F381E02D0995882364
:1018500039F38091530E9091540EDC01ED91FC917F
:101860000480F581E02DA501B8010995C82F8823D2
:10187000B9F28091530E9091540EDC01ED91FC91E0
:1018800000A0F1A1E02D0995D82F8091530E9091E1
:10189000540EDC01ED91FC91068CF78DE02D09953D
:1018A000882E8091530E9091540EDC01ED91FC91A5
:1018B00002A0F3A1E02D0995982E8091530E9091EE
:1018C000540EDC01ED91FC9104A0F5A1E02D0995E9
:1018D00087FDA6CFBFEF8B1631F04D2F692D83E525
:1018E0009EE00E94C20BED2FF0E0ED5AF14FDF01B8
:1018F0001B968385891509F493CFF101D0839C92BF
:101900008C2FDF91CF911F910F91FF90EF90DF907F
:10191000CF90BF90AF909F908F907F906F905F908F
:101920004F903F902F900895C0E0EACF9FB7F89472
:101930008091240A882319F081508093240A809191
:10194000240A811105C08CB58F7B8CBD1092230AAF
:101950009FBF08958CB58F778CBD08958CB5806836
:101960008CBD0895FC01738362830895FC01778325
:1019700066830895FC01758364830895089580E06B
:101980000895FC0181850895FC0180850895FC017E
:1019900087810895FC01868108954095FC01258585
:1019A0004223642B65870895FC0164870895FC0138
:1019B00063870895FC0162870895FC01648308959C
:1019C000FC01658308958F929F92AF92BF92CF9250
:1019D000DF92EF92FF92CF93DF93EC016B010E94B5
:1019E00053094B015C01F12CE12C0E945309681949
:1019F00079098A099B096C157D058E059F0580F480
:101A00008A819B81039789F381E0DF91CF91FF90D9
:101A1000EF90DF90CF90BF90AF909F908F90089500
:101A200080E0F3CFFC012281338123303105D1F3F3
:101A300081E008958F929F92AF92BF92CF92DF92F2
:101A4000EF92FF92CF93DF93EC016B010E94530959
:101A50004B015C01F12CE12C0E94530968197909B2
:101A60008A099B096C157D058E059F05A0F4E88108
:101A7000F9810280F381E02DCE010995882361F37D
:101A8000DF91CF91FF90EF90DF90CF90BF90AF901C
:101A90009F908F90089580E0F3CFCF93DF93EC0178
:101AA000E881F9810280F381E02DCE010995882338
:101AB000B9F3DF91CF91089581E008951F93CF93FB
:101AC000DF93EC01162F88819981DC01ED91FC9167
:101AD0000288F389E02D099588819981DC01ED91D7
:101AE000FC910688F789E02D612F09951A83DF9113
:101AF000CF911F910895CF92DF92EF92FF920F93B3
:101B00001F93CF936B017C01142F8091530E909102
:101B1000540EDC01ED91FC910190F081E02D0995CE
:101B2000C82F882309F16091550E83E59EE00E943D
:101B30005E0D88E790E090935C0E80935B0E83E0EF
:101B400080935D0E612F83E59EE00E945E0D009103
:101B5000530E1091540EB701A601C8010E94E60968
:101B600061E1C8010E94AA098C2FCF911F910F91AA
:101B7000FF90EF90DF90CF90089585ED8093BC00AB
:101B80008091BC0084FDFCCF1092F80B0895209149
:101B9000000A260F3327331F21323105ECF4209140
:101BA000F80BFC0190E080E0243069F082E00895B9
:101BB000A091000A2191AC014052564FA40FB52FBD
:101BC000B11D2C930196861798F38091000A680F37
:101BD0006093000A80E0089581E008950895E091FF
:101BE000FC0B8091FB0BE81730F4F0E0E457F44F66
:101BF000808190E008958FEF9FEF08959091FC0B06
:101C00008091FB0B2FEF3FEF981748F4E92FF0E09E
:101C1000E457F44F208130E09F5F9093FC0BC901A3
:101C200008958091FB0B9091FC0B891B990B0895F3
:101C3000CF92DF92EF92FF920F931F93CF93DF9398
:101C40007C01CB018A012091D00B222389F0EB018A
:101C50006B01C40ED51ECC15DD0569F06991D70165
:101C6000ED91FC910190F081E02DC7010995F3CF32
:101C7000642F0E94C70DC801DF91CF911F910F9172
:101C8000FF90EF90DF90CF900895CF93DF931F9256
:101C9000CDB7DEB769832091D00B2223F9F02091D4
:101CA000F90B203258F021E030E0FC01338322832D
:101CB00090E080E00F90DF91CF9108958091FA0B32
:101CC000E82FF0E0EF52F44F998190838F5F80937B
:101CD000FA0B8093F90B81E090E0ECCF61E0CE014C
:101CE00001960E94C70DF7CFCF93C62F91E0909336
:101CF000D00B98E69093F10B1092FA0B1092F90B1F
:101D0000682F86EF98E10E94450E6C2F86EF98E1D0
:101D10000E94450E81E0CF910C941005CF93CFB770
:101D2000F8948091240A811127C0EDEEF8E08491A7
:101D3000EDE0F9E09491E82FF0E0EE0FFF1FE5539E
:101D4000F74FA591B491EC91E92321F461E084E08F
:101D50000E94580861E084E00E94B8088CB5806158
:101D60008CBD8CB580648CBD61E087E00E94B808B2
:101D700061E085E00E94B8088091240A8F5F80931B
:101D8000240ACFBFCF910895FC0126813781211508
:101D9000310591F12130310559F12230310551F1F0
:101DA0002330310549F52CE09CB5937F922B9CBDE7
:101DB00084819581019711F58CB580628CBD8281FB
:101DC0009381019784309105E0F4805C9E4FFC0183
:101DD00090818CB58C7F292F2370822B8CBD8DB583
:101DE00092FB992790F98E7F892B8DBD0C948E0ED6
:101DF00024E0DACF28E0D8CF20E0D6CF8CB58F7D95
:101E0000DDCF95E0E6CFCF92DF92EF92FF92CF93B6
:101E1000DF9360E08DE10E94B8088DE10E94E9083F
:101E2000B0E0A0E0BC01CD01660F771F881F991FAD
:101E30000E94CE4B23E333E343E550E40E942F4C52
:101E400020E030E048EC52E40E942F4C20E030E8E3
:101E50004FEF53E40E94674D20E030EC4FE754E42D
:101E60000E94D34D0E94454ECB0164E670E00E9473
:101E70008A4EEB01BC0190E080E00E94CE4B20E056
:101E800030E048EC52E40E94D34D6B017C01BE016E
:101E900090E080E00E94CE4B9B01AC01C701B601EF
:101EA0000E94674DDF91CF91FF90EF90DF90CF9030
:101EB0000895CF92DF92EF92FF92CF93DF9361E08C
:101EC0008EE00E94B80860E088E10E94B80861E0F6
:101ED0008EE00E94580884EE93E00197F1F788E1C4
:101EE0000E94E908EC0160E08EE00E945808BE0103
:101EF00090E080E022E0660F771F881F991F2A95E7
:101F0000D1F70E94CE4B23E333E343E550E40E9434
:101F10002F4C20E030E048EC52E40E942F4C20E0AF
:101F200030EC4FEB54E40E94674D20E030ED4FE37E
:101F300055E40E94D34D0E94454ECB0164E670E00B
:101F40000E948A4EEB01BC0190E080E00E94CE4BE3
:101F500020E030E048EC52E40E94D34D6B017C015C
:101F6000BE0190E080E00E94CE4B9B01AC01C70116
:101F7000B6010E94674DDF91CF91FF90EF90DF9007
:101F8000CF90089584E09CE00E94C007E4E0FCE06C
:101F9000A289B3898C918F7E8C93A289B3898C910D
:101FA000877F8C93A289B3898C918F778C93A28938
:101FB000B3898C918F7D8C93828D818F60E08FE0CF
:101FC0000E94580860E080E00E94580860E081E0CC
:101FD0000E94580887E690E10E94BD0980B78F777C
:101FE00080BFEAE7F0E080818F778083F89485B73F
:101FF000806885BF85B7806885BF789483B7817F07
:10200000846083BF83B7816083BF7894ABE6B0E020
:102010008C9184608C93A8E6B0E08C9181608C9365
:1020200083B7816083BF889583B78E7F83BF8081AC
:10203000806880830E9457060E948E0E61E080E0D7
:102040000E94580861E081E00C9458089FB7F8940A
:102050002091230A80918107213019F48DBB9FBF05
:1020600008958FBF0895CF93DF93EC0161E08881DD
:102070000E9458088091230A81110E9426108B81AA
:102080008CBD8C818DBDDF91CF9108958EBD0000F8
:102090000DB407FEFDCF8EB50895862F0C94461023
:1020A0002091230A222361F02FB7F8943091230A5C
:1020B000313049F43DB3309381073DB33DBB2FBF71
:1020C0008CBD9DBD089520938107FACFCF93DF93F8
:1020D000EC018CB58B838DB58C838D819E810E94A4
:1020E000501060E08881DF91CF910C9458088F9256
:1020F0009F92AF92BF92CF92DF92EF92FF920F9397
:102100001F93CF93DF934B015C0128E833E140E05C
:1021100050E00E94034D2A31310510F029E130E0F2
:102120006901F12CE12CC501B401A7010E94034D06
:102130008901D0E0C0E0C017D107C8F4A090210EFB
:10214000B090220EC5010E94661085E00E944610E4
:1021500080E00E944610982EC5010E94331090FE28
:1021600014C0C701B6010E9420092196E4CF80E087
:10217000DF91CF911F910F91FF90EF90DF90CF9063
:10218000BF90AF909F908F90089581E0F1CF0F9313
:102190001F93CF93DF93EC01162F442339F040E0D7
:1021A00066E00E94C710CE010E943310CE010E944B
:1021B000661085E00E94461080E00E944610082FBD
:1021C000CE010E94331000FDF1CFCE010E946610B7
:1021D000812FDF91CF911F910F910C944610FF92A8
:1021E0000F931F93CF93DF93162F072FF82E68EED0
:1021F00073E080E090E00E947710882301F1C091A5
:10220000210ED091220E41E060E2CE010E94C71063
:102210008F2D0E944610802F0E944610812F0E9411
:102220004610CE010E94331068EE73E080E090E02B
:10223000DF91CF911F910F91FF900C94771080E068
:10224000DF91CF911F910F91FF9008952F923F92B0
:102250004F925F926F927F928F929F92AF92BF92B6
:10226000CF92DF92EF92FF920F931F93CF93DF9362
:102270006C012A013B0119019A01332780E091E0AA
:10228000821B930B912C812C0115110581F1E80122
:102290008017910708F4EC0141E062E0C6010E945A
:1022A000C710862D0E944610852D0E944610842D51
:1022B0000E9446105101A80CB91C7501F7018191CB
:1022C0007F010E944610C7018A199B098C179D0740
:1022D000A8F3C6010E9433104C0E5D1E611C711CD8
:1022E0008C0E9D1E0C1B1D0B80E091E0CDCFDF916D
:1022F000CF911F910F91FF90EF90DF90CF90BF9003
:10230000AF909F908F907F906F905F904F903F9095
:102310002F900895BF92CF92DF92EF92FF920F938A
:102320001F93CF93DF937C01EA01B62E690140E051
:102330006BE00E94C7108B2D0E9446108D2F0E94CB
:1023400046108C2F0E94461080E00E944610E60145
:102350000C0D1D1DC017D10729F080E00E9446100A
:102360008993F8CFC701DF91CF911F910F91FF9013
:10237000EF90DF90CF90BF900C9433100F931F938A
:10238000CF93DF9300D0CDB7DEB7AB01BC014C5F7C
:102390005F4F6F4F7F4F02E010E09E012F5F3F4F76
:1023A0008091210E9091220E0E948A112091410E5F
:1023B0003091420E89819A812817390710F41A82C8
:1023C000198289819A810F900F90DF91CF911F918F
:1023D0000F910895CF92DF92EF92FF926B017C01F3
:1023E0000E94BE119C01009769F0E0913F0EF091B0
:1023F000400EBF010E948A4E009721F02E0F3F1F12
:10240000281B390BC701B601620F731F811D911D77
:10241000FF90EF90DF90CF900C94AF050F931F9338
:10242000CF93DF93CDB7DEB760970FB6F894DEBFDA
:102430000FBECDBFAB01BC0100E110E09E012F5FDC
:102440003F4F8091210E9091220E0E948A11FE0131
:102450003196CE01419621912F3F79F4E817F90783
:10246000D1F781E060960FB6F894DEBF0FBECDBF06
:10247000DF91CF911F910F91089580E0F3CF4F929C
:102480005F926F927F92AF92BF92CF92DF92EF9264
:10249000FF920F931F93CF93DF93CDB7DEB72C97A7
:1024A0000FB6F894DEBF0FBECDBF6B017C015A01A1
:1024B000FA01108211821282138204E010E09A0164
:1024C000BC01A6018091210E9091220E0E948A11DA
:1024D000F50180819181A281B3818F3F9F4FAF4FE2
:1024E000BF4F79F019861A861B861C86C701B60174
:1024F0000E94EA112B013C01C414D504E604F70440
:1025000011F480E054C004E010E09E01275F3F4FCB
:10251000BC01A2018091210E9091220E0E948A118D
:1025200049855A856B857C85F50180819181A281E1
:10253000B3810196A11DB11D84179507A607B707A2
:1025400009F451C04F3F5F4F6F4F7F4FD1F6C3012A
:10255000B2010E940E128823A1F280913F0E909149
:10256000400EC81AD90AE108F108CD82DE82EF8256
:10257000F886AE014F5F5F4F6FEFCE0105960E9468
:10258000F512882349F149815A816B817C814F5F23
:102590005F4F6F4F7F4F81E0F501C080D180E280B7
:1025A000F3804C155D056E057F0509F0AACF2C96CA
:1025B0000FB6F894DEBF0FBECDBFDF91CF911F9154
:1025C0000F91FF90EF90DF90CF90BF90AF907F90F2
:1025D0006F905F904F9008956D817E818F81988577
:1025E0000E940E12E4CF81E0E2CFCF92DF92EF9211
:1025F000FF920F931F93CF93DF93EC01D62E7A01B6
:10260000688179818A819B810E940E12CC24C394B7
:1026100010E000E0882391F08FEF9FEFDC01F701DD
:1026200080839183A283B38380E0DF91CF911F9158
:102630000F91FF90EF90DF90CF900895688179819E
:102640008A819B81A7010E943F128111EECFCC208D
:10265000D9F061E0CE010E94FC05688179818A8110
:102660009B810E940E12C82E8111D6CF8091410EFF
:102670009091420E60913F0E7091400E0E948A4EE2
:1026800060177107D8F6C8CF88819981AA81BB816C
:1026900040913F0E5091400E70E060E01D14ACF090
:1026A000841B950BA60BB70B88839983AA83BB83E6
:1026B000688179818A819B810E94AF0568837983D3
:1026C0008A839B830F5F1F4FC8CF840F951FA61F60
:1026D000B71FEACF2F923F924F925F926F927F92F5
:1026E0008F929F92AF92BF92CF92DF92EF92FF9222
:1026F0000F931F93CF93DF93CDB7DEB72E970FB60F
:10270000F894DEBF0FBECDBF8C016D87FC016081E8
:102710007181828193810E940E128823C9F0F80191
:1027200080809180A280B380FD85F13009F4F5C0EE
:102730008091370E9091380EA091390EB0913A0EDB
:1027400075016401C81AD90AEA0AFB0A7D84F3C03C
:1027500020913F0E3091400E80913B0E90913C0EA7
:10276000A0913D0EB0913E0E821B930BA109B109C1
:10277000F80180839183A283B383AE01475F5F4FEB
:102780006FEFC8010E94F51281110BC0F801608142
:102790007181828193810E940E128111C0CF612CC0
:1027A00022C18091370E9091380EA091390EB091D0
:1027B0003A0EF80180839183A283B383AE014B5F0D
:1027C0005F4F61E0C8010E94F512F80160817181DC
:1027D00022819381811102C0822FDDCF4D805E80E6
:1027E0006F8078846B01E22EF92E80903B0E9090E2
:1027F0003C0EA0903D0EB0903E0E8C189D08AE0889
:10280000BF0822E9222E3324339480913F0E909109
:10281000400EB0E0A0E088159905AA05BB0520F49C
:10282000B694A79497948794FFEF3F1252C0C814B0
:10283000D904EA04FB0408F04CC080913B0E90914F
:102840003C0EA0913D0EB0913E0E4091370E50913E
:10285000380E6091390E70913A0E841B950BA60BC1
:10286000B70B8C0D9D1DAE1DBF1D6C017D01C818E1
:10287000D908EA08FB08F801C082D182E282F3821B
:1028800060E0C8010E94FC05F801608171818281CD
:1028900093810E940E12811142CFAE014F5F5F4FB4
:1028A000632DC8010E94F512882341F189819A8124
:1028B000AB81BC81F1E03F1219C0481659066A0687
:1028C0007B0640F52A94222009F469CF2C013D01B2
:1028D0009CCFA32D032C000CBB0BA50194010E94DF
:1028E0004F4DC60ED71EE81EF91EC5CF841595059F
:1028F000A605B70538F333243394E4CFF80160819B
:102900007181828193810E940E12811108CFD301BF
:10291000C201D8CF33243A94D5CFC0903B0ED0908B
:102920003C0EE0903D0EF0903E0EC818D908EA0823
:10293000FB0877247394F2E9FE87F80160817181C6
:10294000828193810E940E128111C7C0F8012080FC
:10295000318042805380C201B1016627707F992780
:102960007051810991090E94AF050E940E12682ED4
:102970008823E9F0C201B1010E940E12811117C033
:10298000FD85F130A1F4F80180819181A281B381AC
:102990008827907FBB2780839183A283B383AE0176
:1029A0004F5F5F4F61E0C8010E94F5121CC0AE018D
:1029B0004B5F5F4F672DC8010E94F512F8014081FF
:1029C000518162817381882309F47EC0FD85FF3FB8
:1029D00021F5CB01BA010E94EA110E940E12682E65
:1029E000882309F47EC0862D2E960FB6F894DEBF9C
:1029F0000FBECDBFDF91CF911F910F91FF90EF9050
:102A0000DF90CF90BF90AF909F908F907F906F900E
:102A10005F904F903F902F90089580913F0E90913E
:102A2000400E2A013B01481A590A61087108C30186
:102A3000B2010E940E12682E8111B1CF77247A94D0
:102A400080913F0E9091400EB0E0A0E08C159D0566
:102A5000AE05BF0520F4F694E794D794C7948FEFA2
:102A6000781242C08C149D04AE04BF04E8F5809136
:102A70003B0E90913C0EA0913D0EB0913E0E4091C8
:102A8000370E5091380E6091390E70913A0E841BBA
:102A9000950BA60BB70B880D991DAA1DBB1D4C01EC
:102AA0005D018C189D08AE08BF08F80180829182F4
:102AB000A282B38260E0C8010E94FC05FE85F1504D
:102AC000FE87F1113ACF6BCECB01BA010E940E12F4
:102AD000882309F4B5CF7194B3CF2D852F3F09F426
:102AE000ADCF77247394ACCFA72D072C000CBB0B74
:102AF000A70196010E944F4D860E971EA81EB91E73
:102B0000D4CFCF93DF9300D000D0CDB7DEB7AE01E6
:102B10004F5F5F4F0E943F12882359F069817A818D
:102B20008B819C810F900F900F900F90DF91CF9130
:102B300008956FEF7FEFCB01F5CF282F30E094E0C1
:102B4000359527959A95E1F7922F990F990F291BA3
:102B5000220F820F0895EF92FF920F931F93CF934E
:102B6000DF938C01C62FF894F090B20061E0FC0175
:102B700084850E9458089C2F80E031E0992329F039
:102B800083272FEF290F9223F9CFF0E88F9FC00101
:102B90001124C82B80E8D9E0982F9C2319F0D1503C
:102BA0008695FACF8091B2008F198A31D8F3F090D0
:102BB000B200EE24E394F8018485ED1678F460E029
:102BC000C0FF61E00E9458088091B2008F198A31DD
:102BD000D8F3F090B200C695E394EDCF60E00E9488
:102BE000580878948AE090E08D1B91099AE1899FBA
:102BF000802D11249091B2009F199817D8F3DF917E
:102C0000CF911F910F91FF90EF900895FC011586D1
:102C10009091020C8091030C981789F0E091020CBE
:102C2000F0E0E45CF84F80812091020C30E02F5FEF
:102C30003F4F2F7333272093020C90E008958FEFBE
:102C40009FEF08959091020C8091030C981741F02A
:102C5000E091020CF0E0E45CF84F808190E0089590
:102C60008FEF9FEF0895FC01858581110EC0809143
:102C7000030C2091020C90E0805C9F4F821B910915
:102C800060E470E00E949E4E08958FEF9FEF0895DC
:102C900090E080E00895DC011C969C911C97ECE686
:102CA000F0E0983050F0E3E7F0E0903130F0EBE600
:102CB000F0E0983110F4EDE6F0E08081977021E0CB
:102CC00030E001C0220F9A95EAF72095282320834F
:102CD0001C968C91ECE6F0E0883050F0E3E7F0E0F1
:102CE000803130F0EBE6F0E0883110F4EDE6F0E012
:102CF0009081911110C0F0E0E0E0803210F4E8E63D
:102D0000F0E09081883040F0803140F0883140F030
:102D10008EEF8923808308958DEFFBCF87EFF9CF66
:102D20008BEFF7CFCF93DF93EC016330710521F187
:102D300064307105E1F16230710509F05FC060E057
:102D400083E00E94B80861E083E00E94B80861E077
:102D500083E00E94580860E08C850E94B80861E01A
:102D60008C850E94B80860E08C850E945808CE01CE
:102D7000DF91CF910C944B1660E083E00E94B8087D
:102D800061E083E00E94B80861E083E00E94580897
:102D900062E070E080E090E00E94200960E08C85B5
:102DA0000E94B80861E08C850E94B808E0CF61E01D
:102DB00083E00E94B80860E083E00E94580862E067
:102DC00070E080E090E00E94200960E08C850E9425
:102DD000580860E08C850E94B8087894809168005B
:102DE0008860809368008091730084608093730092
:102DF0008FEF80938007DF91CF91089561E083E0AA
:102E00000E94B80861E083E00E94580860E08C8569
:102E10000E94580860E0C7CF70E060E083E49EE065
:102E20000E9492161092010C1092000C8091FF0BE0
:102E30008093B0008091FE0B8093B1000895809143
:102E4000000C9091010C83549E4061F062E070E0B0
:102E500083E49EE00E94921683E49EE09093010C2E
:102E60008093000C86E990E0A0E0B0E08093470EEC
:102E70009093480EA093490EB0934A0E81EF98EDBF
:102E80009093520E8093510E8091B0008093FF0B6F
:102E90008091B1008093FE0B1092B00086E0809389
:102EA000B1000895CF93DF9363E070E083E49EE088
:102EB0000E949216C3E4DEE061E08C850E9458080F
:102EC0008CE895E60197F1F760E08C850E94580840
:102ED0008CE496E40197F1F7DF91CF9108950F9379
:102EE0001F93CF93DF938C010E945217D0E0C0E074
:102EF000D80114968D919C911597C817D90790F415
:102F0000ED91FC91309759F41092FD0BEDEFFBE041
:102F1000608183E49EE00E94AB152196E9CFEC0F1F
:102F2000FD1FF6CF64E070E083E49EE0DF91CF9177
:102F30001F910F910C9492161F93CF93DF93EC0186
:102F4000162F63E070E00E949216612FCE010E945E
:102F5000AB1564E070E0CE010E94921681E090E033
:102F6000DF91CF911F91089581E08093D00B88E687
:102F70008093F10B1092FA0B1092F90B60E086EF40
:102F800098E10E94450E81E00E941005811142C027
:102F900067E088E60E946D051092FC0B8093FB0BA6
:102FA00086EF98E10E94FE0D8F770E949D15809319
:102FB000850B86EF98E10E94FE0D0E949D1580937F
:102FC000860B86EF98E10E94FE0D8F7B0E949D1577
:102FD0008093870B86EF98E10E94FE0D8093880B0B
:102FE00086EF98E10E94FE0D0E949D158093890B4B
:102FF00086EF98E10E94FE0D8F770E949D158093C9
:103000008A0B86EF98E10E94FE0D0E949D15825E5C
:1030100080938B0B8091850B8093D8098091860BD0
:103020008093380A8091870B8093D9098091890B0E
:103030008093DC0980918A0B8093DD0980918B0B52
:1030400090E08E54984F9093DB098093DA0962E305
:1030500070E080E090E00C942009CF9391E0909391
:10306000D00B98E69093F10B1092FA0B1092F90B9B
:10307000682F86EF98E10E94450E81E00E941005BE
:1030800081110DC061E088E60E946D051092FC0B75
:103090008093FB0B86EF98E10E94FE0DC82F8C2FCA
:1030A000CF9108951F93CF93DF9381E08093D00B4E
:1030B00088E68093F10B1092FA0B1092F90B60E006
:1030C00086EF98E10E94450EC5E8DBE028811AE012
:1030D000822F612F0E947E4E682F660F680F660F49
:1030E000620F86EF98E10E94450E2981822F612FA1
:1030F0000E947E4E682F660F680F660F620F86EF84
:1031000098E10E94450E2A81822F612F0E947E4EF7
:10311000682F660F680F660F620F86EF98E10E94B6
:10312000450E6B8186EF98E10E94450E2C81822F1F
:10313000612F0E947E4E682F660F680F660F620F28
:1031400086EF98E10E94450E2D81822F612F0E940B
:103150007E4E682F660F680F660F620F86EF98E14C
:103160000E94450E2E812E51822F612F0E947E4E8D
:10317000682F660F680F660F620F86EF98E10E9456
:10318000450E81E00E941005C82F8FE00E942D1887
:10319000682F6F778FE00E94740E8C2FDF91CF9194
:1031A0001F910895CF93DF93C82FD62F8EE00E94F2
:1031B0002D184C2F4150550B61E070E001C0660F97
:1031C0004A95EAF7DD2331F0682B8EE0DF91CF914D
:1031D0000C94740E60956823F8CFCF93DF93C82FBB
:1031E0008FE00E942D18C150DD0B21E030E001C0BE
:1031F000220FCA95EAF7982F922351F02095622F5B
:1032000068238FE00E94740E81E0DF91CF910895D2
:1032100080E0FBCF0F931F93CF93DF93EC010E94CD
:1032200052178E01FE0101900020E9F73197EC1B47
:10323000FD0BC8018C1B9D0B8E179F0740F4F801F6
:1032400061918F0183E49EE00E94AB15EBCF64E0B7
:1032500070E083E49EE0DF91CF911F910F910C9479
:103260009216FC0101900020E9F73197AF01481B4D
:10327000590BBC0184E09CE00C94CE0680ED91E0FB
:103280000C943119CF93DF93FC0144815581608107
:10329000718184E09CE00E94CE06EC010E943E1900
:1032A0008C0F9D1FDF91CF910895CF93DF930E94E4
:1032B000A507EC010E943E198C0F9D1FDF91CF9155
:1032C0000895CF93DF930E94A007EC010E943E195E
:1032D0008C0F9D1FDF91CF9108958F929F92AF9297
:1032E000BF920F931F93CF93DF93CDB7DEB7A19714
:1032F0000FB6F894DEBF0FBECDBF19A2423008F45E
:103300004AE08E010F5D1F4F842E912CB12CA12C11
:10331000A50194010E94034DE62FB901CA01EA30CC
:10332000F4F4E05DD801EE938D01232B242B252BA3
:1033300079F790E080E0109719F0CD010E943119E3
:10334000A1960FB6F894DEBF0FBECDBFDF91CF912F
:103350001F910F91BF90AF909F908F900895E95C5F
:10336000E1CF682F70E090E080E04AE00C946D19A6
:10337000CF93DF930E94B119EC010E943E198C0F8C
:103380009D1FDF91CF910895CF92DF92EF92FF9230
:10339000CF93DF9397FF19C06B017C018DE20E94F0
:1033A000A007EC0166277727CB016C197D098E09F0
:1033B0009F094AE00E946D198C0F9D1FDF91CF91EC
:1033C000FF90EF90DF90CF9008954AE0DF91CF918A
:1033D000FF90EF90DF90CF900C946D19CF92DF9219
:1033E000EF92FF920F931F93CF93DF930E945309A5
:1033F0006B017C0120E1C20E27E2D21EE11CF11C10
:103400001092DF091092DE090E9453096C157D05A8
:103410008E059F05A0F584E09CE00E942C071816FD
:10342000190694F764E670E080E090E00E942009BD
:1034300084E09CE00E942C07F82E11E00AE0C09185
:10344000DE09D091DF09F11690F084E09CE00E9443
:103450000B070C9F90010D9F300D1124C097280F72
:10346000391F3093DF092093DE091F5FE8CFBE01CB
:10347000DD0F880B990B0E94C4190E943E196AE067
:1034800070E080E090E0DF91CF911F910F91FF906D
:10349000EF90DF90CF900C942009CF93DF934AE018
:1034A0000E946D19EC010E943E198C0F9D1FDF9147
:1034B000CF910895CF93DF93D0E0C0E0009719F04B
:1034C0000E943119EC010E943E198C0F9D1FDF9163
:1034D000CF9108958F929F92AF92BF92CF92DF9239
:1034E000EF92FF921F93CF93DF93CDB7DEB7649730
:1034F0000FB6F894DEBF0FBECDBF6B017C01490152
:103500005A0168E873E180E090E00E947710182F7C
:10351000882309F410C2C092370ED092380EE09280
:10352000390EF0923A0E80923B0E90923C0EA09291
:103530003D0EB0923E0E80E290E09093400E80935C
:103540003F0E80E090E19093420E8093410EF894FC
:103550008FEF9FEFDC018093230E9093240EA093B6
:10356000250EB093260E8093270E9093280EA093DD
:10357000290EB0932A0E80932B0E90932C0EA093BD
:103580002D0EB0932E0E80932F0E9093300EA0939D
:10359000310EB093320E6091370E7091380E8091DB
:1035A000390E90913A0E0E940E12882309F4C0C081
:1035B0008090370E9090380EA090390EB0903A0E51
:1035C00060913B0E70913C0E80913D0E90913E0EAD
:1035D000681979098A099B09969587957795679562
:1035E000680D791D8A1D9B1D0E940E12882309F407
:1035F0009FC08091370E9091380EA091390EB091F6
:103600003A0E898B9A8BAB8BBC8B8D879E87AF874D
:10361000B88B69897A898B899C896093270E70930E
:10362000280E8093290E90932A0ECD84DE84EF8499
:10363000F888C092230ED092240EE092250EF092CC
:10364000260E0E94EA1160932B0E70932C0E80932D
:103650002D0E90932E0E6B017C01CC2420EFD222F4
:10366000FF246C157D058E059F0509F0A6C16093AA
:103670002F0E7093300E8093310E9093320E609126
:103680002F0E7091300E8091310E9091320E0E946B
:10369000AF0560932F0E7093300E8093310E909390
:1036A000320E8091270E9091280EA091290EB09194
:1036B0002A0E0097A048B10508F486C11092330E77
:1036C0001092340E1092350E1092360E789483EDCF
:1036D00091E00E945A1A0E943E196091230E709147
:1036E000240E8091250E9091260E0E9481156091E6
:1036F000270E7091280E8091290E90912A0E0E941B
:10370000811584E09CE00E94C007812F64960FB66B
:10371000F894DEBF0FBECDBFDF91CF911F91FF9018
:10372000EF90DF90CF90BF90AF909F908F900895D3
:103730008091370E9091380EA091390EB0913A0ECB
:10374000898B9A8BAB8BBC8BAE014B5F5F4F6FEF5E
:10375000CE0141960E94F51281111DC08091370E55
:103760009091380EA091390EB0913A0E898B9A8BB8
:10377000AB8BBC8BAE014B5F5F4F61E0CE014196DE
:103780000E94F512811107C08FEF9FEFDC018D833E
:103790009E83AF83B88720913F0E3091400E809179
:1037A0003B0E90913C0EA0913D0EB0913E0E821BBF
:1037B000930BA109B109898B9A8BAB8BBC8BAE01A2
:1037C000475F5F4F6FEFCE0141960E94F512811166
:1037D00007C08FEF9FEFDC0189879A87AB87BC8793
:1037E00089849A84AB84BC848091370E9091380E82
:1037F000A091390EB0913A0E4D815E816F8178852E
:103800004F3F5F4F6F4F7F4F09F18B208A208920F8
:10381000809409F096C08D879E87AF87B88BAE01E4
:103820004F5F5F4F61E0CE010D960E94F512882335
:10383000E1F120913F0E3091400E80913B0E90912E
:103840003C0EA0913D0EB0913E0E9AC020913F0ECD
:103850003091400E40913B0E50913C0E60913D0ED8
:1038600070913E0E421B530B610971098B208A2017
:103870008920809409F48DC0498B5A8B6B8B7C8B8B
:103880008D879E87AF87B88BAE014F5F5F4F6FEF1D
:10389000CE0141960E94F512882339F061E0CE01F5
:1038A0000D960E946A138111B4CE89899A89AB89D9
:1038B000BC89C816D906EA06FB06E1F58D859E850A
:1038C000AF85B889C816D906EA06FB0699F580E0E7
:1038D00090E0A0E8B0E08093270E9093280EA0938C
:1038E000290EB0932A0E8093230E9093240EA0935A
:1038F000250EB093260EC0922B0ED0922C0EE09285
:103900002D0EF0922E0E80E1D80EE11CF11CC0921B
:103910002F0ED092300EE092310EF092320E8FEFD9
:103920009FEFDC018093330E9093340EA093350EFD
:10393000B093360E78948AEE91E00E945A1A10E005
:10394000E4CE19861A861B861C864FEF5FEFBA01FC
:103950004D835E836F8378878D879E87AF87B88B13
:1039600061E0CE010D960E946A13882309F49DCF71
:1039700020913F0E3091400E8D859E85AF85B88990
:10398000821B930BA109B109898B9A8BAB8BBC8BE2
:1039900010C08D879E87AF87B88B498B5A8B6B8BF6
:1039A0007C8B61E0CE010D960E946A13882309F496
:1039B0007CCF6FEFCE01419674CF705F8F4F9F4FDA
:1039C0006627707F992753CE43E35EE061E087E28C
:1039D0009EE00E94F5127ACE0C9431190E94B41721
:1039E00065E38BE00E94740E68E18CE00E94740E27
:1039F00060E88DE00E94740E88E092E00E94EC1C6A
:103A000082E10E94B1198FEB95E00E94EC1C83E2E9
:103A10000E94B81962E370E080E090E00C94200905
:103A2000CF93DF93482F5091380A852F90E0E09193
:103A3000090BE4133BC0CE2FD0E08C0F9D1F6CE32D
:103A400070E00E949E4EBE010E949E4EE69FE02DB9
:103A50001124E093C2092091C209822F6AE00E94DA
:103A60007E4EC82FCC0FC80FCC0FC20F60E087E08E
:103A70000E94740E6C2F88E00E94740E60E889E04A
:103A80000E94740E60E88AE00E94740E8AE192E05F
:103A90000E94EC1C8091C2090E94B81962E370E098
:103AA00080E090E0DF91CF910C942009840F911D6C
:103AB0008C3391053CF06CE370E00E949E4E809345
:103AC000C209C9CF450F4093C209C5CFCF93DF9339
:103AD000EC0188819981009711F00E945E4F198254
:103AE00018821D821C821B821A82DF91CF91089559
:103AF000FC01808191810C945E4F2F923F924F92F6
:103B00005F927F928F929F92AF92BF92CF92DF92FD
:103B1000EF92FF920F931F93CF93DF9300D000D0CB
:103B200000D0CDB7DEB74B015C01AE014F5F5F4FF8
:103B30000E943F12782E81111DC08AE292E00E94FD
:103B40005A1A872D26960FB6F894DEBF0FBECDBF4A
:103B5000DF91CF911F910F91FF90EF90DF90CF9069
:103B6000BF90AF909F908F907F905F904F903F90CD
:103B70002F90089506E010E09E012F5F3F4FB501A2
:103B8000A4018091210E9091220E0E948A114D80F5
:103B90005E80620186E0C81AD108C20105970E94C2
:103BA000C24E7C0100913B0E10913C0E20913D0EC7
:103BB00030913E0EB501A4014A5F5F4F6F4F7F4FBA
:103BC000D501C401840D951DA11DB11D1C012D0140
:103BD0008091210E9091220E0215130524053505C2
:103BE00060F5065011095801A818B9088501970118
:103BF0000E948A1186010A191B0997012A0D3B1D93
:103C00004091370E5091380E6091390E70913A0EF6
:103C10008091210E9091220E0E948A11F701EC0DE5
:103C2000FD1D1082C7010E945A1A84E09CE00E9488
:103C3000C007C7010E945E4F84CF86019701ECCF79
:103C4000EF92FF920F931F93CF93DF937C018C0130
:103C5000CAE0D0E0CE010E94ED4CF80181938F01C3
:103C60002196CE30D105B1F7C701DF91CF911F91D9
:103C70000F91FF90EF9008950F931F93CF93DF93D1
:103C800005E11BE0C8E0DBE0CE010E94ED4CF8014D
:103C900081938F012196C837FBE0DF07A9F785E103
:103CA0009BE0DF91CF911F910F9108950F931F9388
:103CB000CF93DF938C01EB010E94ED4C8883C80108
:103CC00001960E94ED4C8983CE01DF91CF911F9127
:103CD0000F910895CF93DF93EB010E94ED4C888301
:103CE000CE01DF91CF9108950C94ED4C2F923F922D
:103CF0004F925F926F927F928F929F92AF92BF92FC
:103D0000CF92DF92EF92FF920F931F93CF93DF93A7
:103D1000CDB7DEB72A970FB6F894DEBF0FBECDBF82
:103D2000FC01698304811581C80187509F4F6AEFA8
:103D300070E00E948A4E662309F42AC129812A87ED
:103D40004F016150698790E080E0212C312C2101E6
:103D500033940115110509F41BC10B3F110550F1F6
:103D60005C013AEFA30EB11C0A5F1109662463944B
:103D7000712C681A790A6A0C7B1C498540935E0F86
:103D8000AFE5BFE08A159B05D8F4F40124813581A5
:103D90008217930738F420813181F901E80FF91F68
:103DA000232B21F41092FD0BEDEFFBE020812D93EE
:103DB0000196E8CF5801A80EB91E10E000E0D6CF5A
:103DC000F0905A0EF394F0925A0EC12CEE24E39424
:103DD000EC0C80915D0E8C1508F4F4C08091530EAC
:103DE0009091540EDC01ED91FC91008CF18DE02D51
:103DF0006F2D09958091530E9091540EDC01ED9139
:103E0000FC91028CF38DE02D40E860E009954A8535
:103E1000662D8EE59FE00E948A060E947F06BA8585
:103E2000BF3F09F4D1C0E1E0EE1598F48091560E41
:103E30009091570EA091580EB091590E0196A11D68
:103E4000B11D8093560E9093570EA093580EB093C9
:103E5000590E0E94530969837A838B839C83C09097
:103E60005B0ED0905C0E0E94A248A20191010E94BC
:103E7000254D9B01AC01D6010E94444DA201910148
:103E80000E94254D2C0D3D1DCE2CC901B0E0A0E0B7
:103E90008D839E83AF83B8870E94530929813A811D
:103EA0004B815C81621B730B840B950B2D813E81D2
:103EB0004F815885621773078407950708F086CFEE
:103EC0008091530E9091540EDC01ED91FC91028093
:103ED000F381E02D09958823F9F28091530E90919A
:103EE000540EDC01ED91FC910480F581E02D50E051
:103EF00040E070E060E00995882371F28091530EF4
:103F00009091540EDC01ED91FC9100A0F1A1E02D07
:103F10000995D82E8091530E9091540EDC01ED91AD
:103F2000FC91068CF78DE02D0995782E8091530E2B
:103F30009091540EDC01ED91FC9102A0F3A1E02DD3
:103F40000995E82E8091530E9091540EDC01ED916D
:103F5000FC9104A0F5A1E02D0995BA85BD1108C01A
:103F60009091550E971104C087FF02C0FE1461F1B5
:103F700087FD92CFED2DF0E0ED5AF14F83858E1144
:103F80008BCF4D2D6E2D83E59EE00E94C20B84CF1A
:103F900081E02A960FB6F894DEBF0FBECDBFDF9149
:103FA000CF911F910F91FF90EF90DF90CF90BF9036
:103FB000AF909F908F907F906F905F904F903F90C9
:103FC0002F90089580E0E5CFE985E150E987C501AC
:103FD000C0CE8F929F92AF92BF92CF92DF92EF921C
:103FE000FF920F931F93CF93DF9300D000D000D0A8
:103FF000CDB7DEB70E943C1E64E170E080E090E047
:104000000E94200910E097E0892E9090D709191599
:1040100008F03FC086EAE82E81E1F82E189D600185
:10402000112400E0C6018B5E944F5C01901679F17B
:10403000F5019081F701808198131FC0FE01319630
:1040400081E090E0BF019C0121503109DC01AC0D01
:10405000BD1DAB5EB44F4C9150ED540F5A3020F063
:104060004B3211F04D3271F4419301968730910536
:1040700051F7C7018F960E94F1500F5FF5E7EF0EE1
:10408000F11CD4CF260F371FF9011082F2CF1F5F2A
:10409000BCCF26960FB6F894DEBF0FBECDBFDF9122
:1040A000CF911F910F91FF90EF90DF90CF90BF9035
:1040B000AF909F908F9008950E94C8500F931F93C8
:1040C000CF93DF93EC0188819981009759F02A8181
:1040D0003B812617370730F081E0DF91CF911F91A8
:1040E0000F9108958B016F5F7F4F0E94E74F0097FC
:1040F00059F0998388831B830A832C813D81232B6C
:1041000059F7FC011082E8CF80E0E7CFEF92FF92F1
:104110000F931F93CF93DF936115710541F480E0F6
:10412000DF91CF911F910F91FF90EF90089541156E
:104130005105B1F07B01EC010C811D81040F151FAD
:10414000B8010E945E20882351F3288139818C8137
:104150009D81B701820F931F0E94F1501D830C8334
:1041600081E0DECF0F931F93CF93DF9300D000D079
:10417000CDB7DEB74AE08E010F5F1F4FB80190E068
:104180000E940C49F80101900020E9F73197AF0136
:10419000401B510BB80182E891E10E9486200F90EC
:1041A0000F900F900F90DF91CF911F910F91089575
:1041B0000F931F93CF93DF93CDB7DEB764970FB6FE
:1041C000F894DEBF0FBECDBF8E010F5F1F4F22E000
:1041D00044E00E943848FC0101900020E9F7319743
:1041E000AF01481B590BBC0182E891E10E94862077
:1041F00064960FB6F894DEBF0FBECDBFDF91CF91AE
:104200001F910F910895CF93DF9300D0CDB7DEB704
:1042100069831A8241E050E0BE016F5F7F4F0E94C8
:1042200086200F900F90DF91CF910895FB010190B0
:104230000020E9F73197AF01461B570B0C948620FD
:10424000EF92FF920F931F93CF93DF93EC017B01CB
:104250008A01BA010E945E2081110BC0CE010E942A
:10426000661DCE01DF91CF911F910F91FF90EF90CE
:1042700008951D830C83B701888199810E94F150B4
:10428000F0CFFC01118210821382128215821482F7
:1042900050E040E062ED71E00C942021CF93DF9379
:1042A00000D000D000D0CDB7DEB70E941F1764E663
:1042B00070E080E090E00E942009CE0101960E940B
:1042C00041216091D609CE0101960E94032162E44A
:1042D00072E0CE0101960E941621CE0101960E9445
:1042E0006F176CE271E080E090E00E94200983E4A7
:1042F0009EE00E943316892B29F083E49EE00E9401
:104300000616F5CF64E170E080E090E00E9420099D
:104310000E940C1764E170E080E090E00E942009A8
:10432000CE0101960E94781D26960FB6F894DEBF46
:104330000FBECDBFDF91CF910895CF93DF9300D013
:1043400000D000D0CDB7DEB70E941F1764E670E042
:1043500080E090E00E942009CE0101960E94412158
:104360006091D609CE0101960E94032166E472E0B5
:10437000CE0101960E941621CE0101960E946F1770
:104380006CE271E080E090E00E94200983E49EE00E
:104390000E943316892B29F083E49EE00E940616C2
:1043A000F5CF64E170E080E090E00E9420090E9477
:1043B0000C1764E170E080E090E00E942009CE01DB
:1043C00001960E94781D26960FB6F894DEBF0FBEA8
:1043D000CDBFDF91CF910895FB0101900020E9F757
:1043E0003197AF01461B570B0C9420210F931F935D
:1043F000CF93DF9300D000D000D0CDB7DEB7182F19
:10440000CE0101960E94412162ED71E0CE0101963C
:104410000E94EC21612FCE0101960E9403216BE2E4
:1044200074E0CE0101960E94162103E010E0CE0157
:1044300001960E946F1764E670E080E090E00E94B1
:10444000200983E49EE00E943316181619064CF0EA
:1044500064E670E080E090E00E94200901501109BC
:1044600031F783E49EE00E94331602979CF00E948D
:10447000070511E0CE0101960E94781D812F269636
:104480000FB6F894DEBF0FBECDBFDF91CF911F9165
:104490000F9108950E94070510E0ECCFCF93DF93B2
:1044A000EC01FB018617970749F060817181611566
:1044B000710541F0448155810E942021CE01DF9198
:1044C000CF9108950E94661DF9CFCF93DF9300D05E
:1044D00000D000D0CDB7DEB71A8219821C821B82B1
:1044E0001E821D8262E871E1CE0101960E944E2279
:1044F00040918C1150918D116091881170918911AA
:10450000CE0101960E948620811104C0CE01019641
:104510000E94661DBE016F5F7F4F88E891E10E9497
:104520004E22CE0101960E94781D64E670E080E084
:1045300090E00E94200988E891E10E94421962E31C
:1045400070E080E090E00E94200926960FB6F89473
:10455000DEBF0FBECDBFDF91CF910895CF92DF9226
:10456000EF92FF920F931F93CF93DF93EC017B01A8
:104570008A01E881F9810280F381E02D0995D82E26
:10458000882329F1E114F104D1F001151105B9F0E6
:10459000CFB6F8948A8D8350990BF80120812817A3
:1045A00019061CF08A8D84508083F801408150E008
:1045B000BE01615E7F4FC7010E94CD50CFBE8FB755
:1045C000F894FE01E65EFE4F10821A8E8FBF8D2D8D
:1045D000DF91CF911F910F91FF90EF90DF90CF90DF
:1045E0000895EF92FF920F931F93CF93DF9300D024
:1045F0001F92CDB7DEB78C010E94A40BE82E81116B
:104600000CC0E12C8E2D0F900F900F90DF91CF9169
:104610001F910F91FF90EF900895F801808D8A30DF
:1046200009F47EC08B3009F47DC022E0F22E823086
:1046300041F740E861E0C8010E947A096AE070E051
:1046400080E090E00E94200961E0C8010E94BA0A5F
:104650008038B9F660E0F801808D0E94B808F80152
:10466000818D8F3F49F48091250A843050F691E086
:10467000980F9093250A818FF801818DE82FF0E043
:10468000EE0FFF1FEA5DF54F118300836BE97BE0BE
:10469000882349F062E97BE0813029F0823009F01B
:1046A000B0CF69E87BE08F2D0E94AD0640E06EE060
:1046B000C8010E947A0940E06FE0C8010E947A09AF
:1046C000C8010E94D20943E050E06FEB78E0CE01D0
:1046D00001960E94034949816DE1C8010E947A094F
:1046E0004A816EE1C8010E947A094B8166E2C801E5
:1046F0000E947A0940E060E2C8010E947A0948E01D
:1047000061E2C8010E947A0940E050EC64E674E47A
:10471000C8010E94E6096DE0C8010E94AA0972CF93
:10472000F12C87CFFF24F39484CFCF92DF92EF92C6
:10473000FF921F93CF93DF93EFE3FAE088ECDF0162
:104740001D928A95E9F762E370E080E090E00E94B4
:1047500020090E9453096B017C01B0E1CB0EB7E246
:10476000DB1EE11CF11C0E9453096C157D058E05B2
:104770009F0540F584E09CE00E942C07181619065E
:1047800094F764E670E080E090E00E94200984E005
:104790009CE00E942C07EC01F82E10E084E09CE0E5
:1047A0000E940B078D3039F08A3029F0E12FF0E0BC
:1047B000E15CF54F80831F5FF11680F7DD27C15C58
:1047C000D54F18828FE39AE0DF91CF911F91FF9030
:1047D000EF90DF90CF900C945A1A0E943C1E64E632
:1047E00070E080E090E00E942009E5E1FBE080E7D6
:1047F000DF011D928A95E9F708952F923F924F921B
:104800005F926F927F928F929F92AF92BF92CF9260
:10481000DF92EF92FF920F931F93CF93DF93CDB769
:10482000DEB764970FB6F894DEBF0FBECDBFCDB62E
:10483000DEB6DE86CD860E946522E0908C11F09077
:104840008D11FC8AEB8A2DB73EB72E193F090FB6A2
:10485000F8943EBF0FBE2DBF8DB79EB701965C0189
:104860006091881170918911A7010E94CD508091AB
:10487000410E9091420E06978E159F05C0F58AE471
:1048800092E00E945A1A80E591E00E94501060E088
:1048900087E10E94580889EB0E94461061E087E199
:1048A0000E9458088091230A81110E942610ED84ED
:1048B000FE840FB6F894FEBE0FBEEDBE64960FB632
:1048C000F894DEBF0FBECDBFDF91CF911F910F9146
:1048D000FF90EF90DF90CF90BF90AF909F908F9020
:1048E0007F906F905F904F903F902F9008952DB6DE
:1048F0003EB64090330E5090340E6090350E70905E
:10490000360E9FEF491A590A690A790AEB88FC8822
:10491000A6E0EA0EF11C00913F0E1091400EC70177
:10492000B8010E948A4E009709F461C10E0D1F1D47
:10493000081B190BEDB7FEB7E01BF10B0FB6F8948F
:10494000FEBF0FBEEDBF2DB73EB72F5F3F4F4901F2
:10495000ADB7BEB711964D925D926D927C92149751
:10496000F901F582E4828DB79EB707964B895C8981
:10497000B5010E94CD50A8014E195F0970E060E0BA
:10498000C4018E0D9F1D0E94D6502801712C612CF0
:1049900040912B0E50912C0E60912D0E70912E0E89
:1049A000C0903B0ED0903C0EE0903D0EF0903E0E3D
:1049B000CF86D88AE98AFA8AD301C801840F951F65
:1049C000A61FB71FE091210EF091220EC816D9063E
:1049D000EA06FB0608F00DC15601A41AB50A7801D3
:1049E000EA18FB0885019401CF010E94261164EFAB
:1049F00071E080E090E00E94771094012A0D3B1D49
:104A00004091370E5091380E6091390E70913A0EE8
:104A100087018091210E9091220E0E942611809094
:104A20002B0E90902C0EA0902D0EB0902E0E8091FB
:104A3000330E9091340EA091350EB091360E019642
:104A4000A11DB11D8093330E9093340EA093350EAB
:104A5000B093360EC301B201680D791D8A1D9B1DEE
:104A60000E94AF0560932B0E70932C0E80932D0E39
:104A700090932E0E705F8F4F9F4F6627707F992700
:104A80000E94AF052B013C010E940E12811128C02B
:104A9000C301B2010E94EF10C301B201705F8F4FDA
:104AA0009F4F6627707F99270E94AF056D837E8395
:104AB0008F839887AE014F5F5F4F61E0CE0105960F
:104AC0000E94F512882361F08D819E81AF81B885A7
:104AD0008093230E9093240EA093250EB093260E60
:104AE00040922F0E5092300E6092310E7092320E24
:104AF0008092270E9092280EA092290EB0922A0E34
:104B00008091230E9091240EA091250EB091260E37
:104B10000097A048B10540F08092230E9092240E99
:104B2000A092250EB092260E0FB6F8943EBE0FBE90
:104B30002DBE6091270E7091280E8091290E9091C4
:104B40002A0E0E94BE117C016091270E7091280EE2
:104B50008091290E90912A0E0E94BE118C0100971F
:104B600069F020913F0E3091400EB9010E948A4EAB
:104B7000009721F0020F131F081B190B8FE592E01D
:104B80000E94EC1C6091330E7091340E8091350EB2
:104B90009091360E0E944D1A8FE692E00E94EC1C16
:104BA00088E891E10E94421986E792E00E94EC1C9D
:104BB000CB88DC88B60190E080E04AE00E946D1965
:104BC00082E892E00E94EC1CB70190E080E04AE0AD
:104BD0000E946D198FE892E00E94EC1CB80190E0F1
:104BE00080E04AE00E946D190E943E194CCE870178
:104BF000A1CE9401CF0111CF8F929F92AF92BF921D
:104C0000CF92DF92EF92FF920F931F93CF93DF9398
:104C1000CDB7DEB72E970FB6F894DEBF0FBECDBF6F
:104C20000E94590F60933B0A70933C0A80933D0A9F
:104C300090933E0A82E10E942D18182F81E10E9474
:104C40002D18612F782F77FF02C0615C7F4F86E0BF
:104C5000759567958A95E1F7072E000C880B990BDF
:104C60000E94D04B20E030E040E85EE30E942F4CF1
:104C70006093D2097093D3098093D4099093D50996
:104C800061E08CE10E94B8088E010F5F1F4FB801F0
:104C900080E390E00E94561E89819A81019679F402
:104CA000BE01625F7F4F80E190E00E946A1E8E85A8
:104CB000853409F433C188EE93E09A83898361E0F7
:104CC0008CE10E94580884EE93E00197F1F70E946E
:104CD000030F4B015C0160E08CE10E94580820E06A
:104CE00030E048EC52E4C501B4010E942F4C0E9410
:104CF000454ECB0164E670E00E948A4E7C01C501FE
:104D0000B4010E94454E44E6469F9001479F300DF6
:104D100011242E0D3F1DA8EEB3E00E94574D2981AE
:104D20003A8150E040E00E94034D69010E94030F68
:104D30004B015C0162ED71E082E891E10E94EC219F
:104D400064E170E080E090E00E94200960E071E0A2
:104D500082E891E10E9416216EE782E891E10E94CB
:104D600003216FE07BE082E891E10E9416216EE76B
:104D700082E891E10E94032160910B0B70910C0B72
:104D800080910D0B90910E0B2AE0A8010E942649FC
:104D9000F80101900020E9F73197AF01401B510B5A
:104DA000B80182E891E10E9486206EE782E891E1F5
:104DB0000E94032160913B0A70913C0A80913D0A58
:104DC00090913E0A0E94D8206EE782E891E10E940D
:104DD00003216091D2097091D3098091D4099091F7
:104DE000D5090E94D8206EE782E891E10E94032154
:104DF0004AE0B801C6010E944849F801019000202C
:104E0000E9F73197AF01401B510BB80182E891E1FE
:104E10000E9486206EE782E891E10E940321C5018D
:104E2000B4010E94D8206EE782E891E10E9403213C
:104E30004AE0B8018091DA099091DB090E940C499F
:104E4000F80101900020E9F73197AF01401B510BA9
:104E5000B80182E891E10E9486206DE282E891E14A
:104E60000E9403218091DD090E94B2206DE282E858
:104E700091E10E9403218091DC090E94B2206FE53C
:104E800082E891E10E9403218091D9090E94B22019
:104E90006AE382E891E10E9403211091380A1A30F6
:104EA00028F460E382E891E10E940321812F0E94AF
:104EB000B2206AE382E891E10E9403211091D809AF
:104EC0001A3028F460E382E891E10E940321812FE7
:104ED0000E94B22061EA72E082E891E10E9416210C
:104EE0006EE782E891E10E94032162E370E080E0D6
:104EF00090E00E9420092E960FB6F894DEBF0FBEF8
:104F0000CDBFDF91CF911F910F91FF90EF90DF9078
:104F1000CF90BF90AF909F908F90089584E690E0DF
:104F2000CCCE2F923F924F925F926F927F928F9250
:104F30009F92AF92BF92CF92DF92EF92FF920F9328
:104F40001F93CF93DF93CDB7DEB7C95ED1090FB6FC
:104F5000F894DEBF0FBECDBF2DB73EB7CC51DF4FAB
:104F600039832883C45ED04062ED71E088E891E126
:104F70000E94EC210E941F1764EF71E080E090E036
:104F80000E942009CA52DF4F1882C65DD040AE0190
:104F90004F5F5F4F3A011E015EEB250E311C6091A1
:104FA000DC027091DD028091DE029091DF02CA5135
:104FB000DF4F688379838A839B83C65ED04080916C
:104FC000D709CA52DF4F7881C65DD040781708F004
:104FD000C0C405E7079FC0011124FC01EA55FE4E3D
:104FE000A081CB52DF4FA883C55DD0407093D1091B
:104FF0008C0166EA72E085539E4E0E94E850892B30
:1050000009F0AFC08EE08093D00981E08093CF0992
:1050100064E670E080E090E00E942009B090CF0943
:10502000BB2009F402C3CB52DF4FF881C55DD040ED
:10503000C853DF4FF883C85CD040C753DF4F188296
:10504000C95CD0400091D109802E912C25E7029FA8
:105050008001112466EA72E0C80185539E4E0E94C9
:10506000E8506BEA72E0892B11F46FEA72E0CE012E
:105070008F529F4F0E94F150BE016F527F4FCE0161
:1050800088539F4F0E94DD50CE0188539F4F0E944E
:105090000A1964EF71E080E090E00E94200983E447
:1050A0009EE00E943316843008F4D0C34DB75EB73B
:1050B000C052DF4F59834883C05ED040C354DF4F96
:1050C0001882CD5BD040BE0162587F4F7B0110E05B
:1050D00000E0D12CC02E83E49EE00E940616D7018A
:1050E0008D937D018D3009F0B4C0EEE7F0E0EC0F58
:1050F000FD1FE00FF11F10820E940705DC0C8D2DB3
:1051000090E08C0101501109EDB7FEB7E81BF90BD7
:105110000FB6F894FEBF0FBEEDBF2DB73EB72F5FA1
:105120003F4F7901C12CAA24A3942EE7922ECD14CF
:1051300008F0A8C0EEE7F0E0EC0FFD1FEA0DF11D4E
:105140008081F701EC0DF11D8B3209F092C0908245
:10515000A39465E070E080E090E00E942009C39491
:10516000E6CFC80180539E4E0E940A1964E670E0A3
:1051700080E090E00E94200983E49EE00E943316C4
:10518000181619060CF05CC0ADB6BEB681E080936F
:10519000CF0983E49EE00E943316982E8C011127DC
:1051A000EDB7FEB7E01BF10B0FB6F894FEBF0FBED4
:1051B000EDBF2DB73EB72F5F3F4F6901822E7901BA
:1051C0008E2D8819891540F483E49EE00E9406160E
:1051D000D7018D937D01F4CF0C0D1D1DF80134977F
:1051E0002081022E000C330B20533109E8EEF3E04E
:1051F0002E9FC0012F9F900D3E9F900D11249093E4
:10520000CE098093CD0903501109D8018C918053A8
:105210008093D0090FB6F894BEBE0FBEADBE6091AC
:10522000CD097091CE09072E000C880B990B0E94B6
:1052300020090E94070562E370E080E090E0ECCE78
:10524000E8EEF3E0F093CE09E093CD091092CF0998
:10525000E6CF8D3209F4D3946AE070E080E090E00C
:105260000E9420090F5F1F4F0034110509F032CF53
:1052700043CF8D3229F4C3949082F701EC0DF11DD8
:10528000808366CFF701E00FF11F10828091D10972
:10529000482E512C95E7C92E8C9DA0011124C9528E
:1052A000DF4F59834883C75DD04063EB72E0CA018A
:1052B00085539E4E0E94E8502091D709622F61507D
:1052C000770BC352DF4F79836883CD5DD040C952DD
:1052D000DF4F08811981C75DD04009551E4E892BCB
:1052E00009F02CC28DB79EB7CE51DF4F99838883CA
:1052F000C25ED040D394AD2DB0E0C752DF4FB9832A
:10530000A883C95DD040CD010197EDB7FEB7EA1B78
:10531000FB0B0FB6F894FEBF0FBEEDBF2DB73EB727
:105320002F5F3F4FC552DF4F39832883CB5DD0407D
:10533000D9013E2DF7014EE72E2F231B2D1540F4EA
:105340002191222319F02C931196F6CF4C93FCCF88
:10535000C552DF4FE881F981CB5DD040E80FF91FDE
:105360001082CB52DF4F3881C55DD040CD53DF4F27
:105370003883C35CD040CC53DF4F1882C45CD0402C
:10538000CA51DF4F488159816A817B81C65ED04016
:10539000C353DF4F488359836A837B83CD5CD040FE
:1053A000BE0163537F4FCE018D539F4F0E94DD504E
:1053B000CE018D539F4F0E940A1964EF71E080E087
:1053C00090E00E94200983E49EE00E9433164C0185
:1053D00099249401225031096DB77EB7621B730B7B
:1053E0000FB6F8947EBF0FBE6DBFADB7BEB71196B6
:1053F0007D01863008F445C0A12CB1E08B1A9108DC
:10540000CA2CD12CC814D904E4F583E49EE00E9490
:1054100006168D30C1F08A3059F1CB52DF4FE8814A
:10542000C55DD040E817A9F08B32E1F08D32D1F0A4
:10543000F701EC0DFD1D80836FE070E080E090E0EF
:105440000E94200904C0F701EC0DFD1D1082A394F9
:10545000D7CFCB52DF4FF881C55DD040FB3211F082
:10546000FD3269F4F701EC0DFD1D2EE72083E4CF3A
:10547000CB52DF4F3881C55DD0403A3041F7AA9416
:10548000E6CF6EE770E0C7010E9407518E199F09B1
:10549000382FF701E80FF11D91E02FEF290F931737
:1054A00060F482918E3749F0432F491BC152DF4F80
:1054B0004883CF5DD0409F5FF0CF822F90E0AC015A
:1054C0004F5F5F4F6DB77EB7641B750B0FB6F894D7
:1054D0007EBF0FBE6DBFADB7BEB711966D01D701D0
:1054E000C152DF4FE881CF5DD040AE0FB11D4C2DD2
:1054F000F6013E2F341B321718F43D913193F9CF4A
:10550000F601E80FF91F1082C752DF4F2881398159
:10551000C95DD040820F931F01964DB75EB7481BFF
:10552000590B0FB6F8945EBF0FBE4DBF6DB77EB777
:105530006F5F7F4F7B018EE7ADB7BEB711968C933F
:10554000C552DF4F68817981CB5DD040C7010E9491
:10555000F15064E170E080E090E00E942009B60123
:10556000C7010E94DD5064E170E080E090E00E949D
:105570002009C352DF4FE881F981CD5DD04085E736
:105580004E165F0609F49EC0849DF001859DF00DC6
:105590001124EA55FE4E87A5882309F473C0FF92B3
:1055A000EF92C952DF4F88819981C75DD0408B52FD
:1055B0009E4E9F938F931F930F9388EB92E09F9340
:1055C0008F937F926F920E942C512DB73EB7265F2A
:1055D0003F4F0FB6F8943EBF0FBE2DBF62E370E0A1
:1055E00080E090E00E942009B30188E891E10E94E8
:1055F000162162E370E080E090E00E942009CE5125
:10560000DF4F68817981C25ED0400FB6F8947EBFCB
:105610000FBE6DBFC052DF4F48815981C05ED04080
:105620000FB6F8945EBF0FBE4DBF62E370E080E03E
:1056300090E00E942009B1100BC0B30188E891E10D
:105640000E94162162E370E080E090E00E94200951
:105650000E94070562E370E080E090E00E9420096C
:1056600064EF71E080E090E00E942009CA52DF4FB1
:10567000B881C65DD040BF5FCA52DF4FB883C65DF8
:10568000D0409DCC85E0E1EEF2E0D10101900D9299
:105690008A95E1F7FF92EF923F922F921F930F931B
:1056A00088EB92E09F938F937F926F920E942C5190
:1056B0004DB75EB7465F5F4F0FB6F8945EBF0FBE43
:1056C0004DBF8CCF849DF001859DF00D1124EA55CE
:1056D000FE4E87A58823F9F0FF92EF92C952DF4F63
:1056E00088819981C75DD0408B529E4E9F938F9346
:1056F0001F930F9361EC72E07F936F937F926F9291
:105700000E942C51ADB7BEB71A960FB6F894BEBF23
:105710000FBEADBF63CF85E0E1EEF2E0D1010190B5
:105720000D928A95E1F7FF92EF923F922F921F938D
:105730000F93E1ECF2E0FF93EF93B6CFC49CF0013E
:10574000C59CF00D1124EA55FE4E87A5C352DF4FCC
:10575000A881B981CD5DD0404A165B0609F442C0EC
:10576000882301F1FF92EF92C952DF4F888199811E
:10577000C75DD0408B529E4E9F938F931F930F9384
:1057800088EB92E09F938F937F926F920E942C51AF
:10579000EDB7FEB73A960FB6F894FEBF0FBEEDBF59
:1057A000B12C38CF85E0E1EEF2E0D10101900D920D
:1057B0008A95E1F7FF92EF923F922F921F930F93FA
:1057C00088EB92E09F938F937F926F920E942C516F
:1057D0002DB73EB7265F3F4F0FB6F8943EBF0FBEC2
:1057E0002DBFDECF8823F9F0FF92EF92C952DF4F31
:1057F00088819981C75DD0408B529E4E9F938F9335
:105800001F930F9341EC52E05F934F937F926F92FF
:105810000E942C518DB79EB70A960FB6F8949EBF82
:105820000FBE8DBFBDCF85E0E1EEF2E0D10101906A
:105830000D928A95E1F7FF92EF923F922F921F937C
:105840000F93A1ECB2E0BF93AF93BECFADB6BEB69F
:1058500086E0E0EEF2E0DE01A258BF4F01900D922B
:105860008A95E1F7C090D0098C2D880F8C0D880F98
:105870006DB77EB7681B71090FB6F8947EBF0FBE77
:105880006DBF8DB79EB701967C01CB52DF4F8883E9
:10589000C55DD0405F2CBE0162587F4F0E94F15021
:1058A00091E09C15A8F4412CAC2DA150BB0B6D01CF
:1058B0004C141D046CF4BE0162587F4FCB52DF4F75
:1058C0008881C55DD040952D0E94DD504394F0CF76
:1058D000C8018B529E4E09551E4E2091D70921506A
:1058E000330B82169306F1F0FF92EF929F938F9302
:1058F0001F930F93E9ECF2E0FF93EF937F926F9287
:105900000E942C514DB75EB7465F5F4F0FB6F894BB
:105910005EBF0FBE4DBF0FB6F894BEBE0FBEADBE8C
:10592000B12C83CEFF92EF929F938F931F930F938F
:1059300063ED72E07F936F937F926F920E942C5180
:10594000ADB7BEB71A960FB6F894BEBF0FBEADBFC7
:10595000E2CF0E940C1762E370E080E090E00E94CA
:105960002009CC51DF4FE881F981C45ED0400FB6E9
:10597000F894FEBF0FBEEDBFC751DF4F0FB6F894CE
:10598000DEBF0FBECDBFDF91CF911F910F91FF9072
:10599000EF90DF90CF90BF90AF909F908F907F90CF
:1059A0006F905F904F903F902F9008952F923F926D
:1059B0004F925F926F927F928F929F92AF92BF921F
:1059C000CF92DF92EF92FF920F931F93CF93DF93CB
:1059D000CDB7DEB7A8970FB6F894DEBF0FBECDBF28
:1059E0000E948E0E68EC70E080E090E00E9420093A
:1059F0006091360A7091370A90E080E00E94CE4BA9
:105A000040915E100E947B0D811104C086EE92E0F1
:105A10000E945A1A84E189A31092CC0983EF92E084
:105A20000E945A1A0E9453091B012C0180910C01FB
:105A3000882309F4B9C0C090C809D090C909E09082
:105A4000CA09F090CB0920E8C20E2CE2D21E20E851
:105A5000E21EF11C8091C4099091C509A091C6096C
:105A6000B091C709C81AD90AEA0AFB0A8AE093E08A
:105A70000E94EC1CC701B6010E94C4190E943E1985
:105A80008E010F5F1F4F3E0135E1630E711C4E0109
:105A900087E1880E911C9E01275E3F4F3CA32BA3FC
:105AA000CE014B969EA38DA32C5F3F4F38A72FA30B
:105AB0005E013FE1A30EB11C8091CC098111B2C0FF
:105AC0000E94530962197309840995096C157D05B3
:105AD0008E059F0508F086C00E94B4179E012E5DBA
