:100000000C947E040C949F3A0C94743A0C94493AE4
:100010000C941E3D0C94A8040C94A8040C943A3D36
:100020000C94A8040C94A8040C94A8040C94A804A0
:100030000C94A8040C94CA3A0C94A8040C94A80438
:100040000C94A8040C94A8040C94FF390C94A804F4
:100050000C94CA390C94A0390C94A8040C94A804EC
:100060000C94A8040C94A8040C94FA3B0C94A804D7
:100070000C94A8040C94A8040C94A8040C94A80450
:100080000C94A8040C94A8040C94A80400407A10C2
:10009000F35A00A0724E18090010A5D4E80000E839
:1000A0007648170000E40B54020000CA9A3B000097
:1000B00000E1F505000080969800000040420F0026
:1000C0000000A08601000000102700000000E803E7
:1000D000000000006400000000000A0000000000B2
:1000E0000100000000002C76D888DC674F0823DF71
:1000F000C1DFAE59E1B1B796E5E3E453C63AE65144
:10010000997696E8E6C28426EB898C9B62ED407C6A
:100110006FFCEFBC9C9F40F2BAA56FA5F490055A06
:100120002AF75C936B6CF9676DC11BFCE0E40D472B
:10013000FEF520E6B500D0ED902E0300943577054E
:100140000080841E080000204E0A000000C80C3306
:100150003333330F986E12831141EF8D2114893B95
:10016000E65516CFFEE6DB18D1844B381BF77C1D15
:10017000901DA4BBE424203284725E228100C9F168
:1001800024ECA1E53D276364696E6F707375785840
:100190005B00446F6E65005363616E6E696E67202D
:1001A000666F72205344492D31322073656E736F30
:1001B00072732E2E2E004552524F523A20496E76BF
:1001C000616C696420696E74657276616C20286563
:1001D000766572792031302C2031352C2032302C4C
:1001E0002033302C206F72203630206D696E7329D9
:1001F0000070726F6A65637449443A200020206978
:100200006E707574206D696E7574653A20002020DB
:10021000696E70757420686F75723A202020002016
:1002200020696E70757420796561723A2020200013
:100230002020696E707574206461793A2020202036
:10024000002020696E707574206D6F6E74683A209E
:100250002000456E74657220746865206461746561
:1002600020616E642074696D6520696E20436F6F34
:100270007264696E6174656420556E697665727327
:10028000616C2054696D652028555443293A20003B
:1002900020202020456E7465722047617465776167
:1002A0007920726164696F2049443A200041726587
:1002B00020796F75207573696E67206120476174BE
:1002C000657761793F20456E746572202779272014
:1002D000666F72207965732C20276E2720666F72F7
:1002E000206E6F3A200044656661756C74207261FF
:1002F00064696F20494420616363657074656400BC
:10030000526164696F20494420757064617465644A
:100310000020456E746572206E6577207261646995
:100320006F2049443A200020456E74657220277979
:100330002720666F72207965732C20276E27206630
:100340006F72206E6F3A2000576F756C6420796F62
:1003500075206C696B6520746F206368616E6765DA
:100360002074686520726164696F20494420667258
:100370006F6D207468652064656661756C742076A5
:10038000616C75653F00456E746572206E657720FF
:100390006D6561737572656D656E7420696E7465E7
:1003A0007276616C2865766572792031302C203147
:1003B000352C2032302C2033302C206F72203630F8
:1003C000206D696E73293A20004552524F523A20EF
:1003D0006D696E696D756D203135206D696E75744E
:1003E0006520696E74657276616C207265717569DD
:1003F00072656420776974682052482073656E7353
:100400006F722E00496E76616C696420696E746546
:100410007276616C2E20456E746572206D65617315
:100420007572656D656E7420696E74657276616C47
:10043000202865766572792031302C2031352C20CA
:1004400032302C2033302C206F72203630206D69F2
:100450006E73293A2000456E746572206D65617374
:100460007572656D656E7420696E74657276616C07
:10047000202865766572792031302C2031352C208A
:1004800032302C2033302C206F72203630206D69B2
:100490006E73293A20002020456E74657220612019
:1004A00050726F6A65637420494420287570207407
:1004B0006F203520636861726163746572732C20EC
:1004C00065783A20505341293A20004578697400F4
:1004D000456E7465722027792720666F72207965D2
:1004E00073206F7220276E2720666F72206E6F3A1E
:1004F000200041726520796F7520737572652079CF
:100500006F752077616E7420746F206572617365FA
:1005100020616C6C20646174612073746F72656417
:1005200020696E206D656D6F72793F005072696E43
:100530007420616C6C206461746120746F2073633B
:100540007265656E3A200054657374206D65617341
:100550007572656D656E74733A00456E74657220D0
:1005600073656E736F7220646570746820696E20A5
:10057000636D2E2055736520272B27206F7220274F
:100580002D2720746F20696E646963617465206132
:10059000626F7665206F722062656C6F7720736F73
:1005A000696C20737572666163653A00456E7465A7
:1005B0007220636F6E66696775726174696F6E2011
:1005C000737472696E673A2000456E7465722063B9
:1005D000686F6963653A20002020207820203C2D38
:1005E0002D202045786974206D656E7500202020CF
:1005F0006520203C2D2D2020457261736520616CA3
:100600006C2064617461002020207020203C2D2D1E
:1006100020205072696E74206461746120746F20B0
:1006200073637265656E002020207420203C2D2DA0
:100630002020546573742073656E736F727300208D
:1006400020206120203C2D2D20204368616E6765AD
:10065000205344492D31322073656E736F722061CF
:10066000646472657373002020206E20203C2D2D61
:1006700020205363616E20666F7220646576696323
:100680006573206F6E205344492D3132206275739B
:10069000002020206D20203C2D2D2020536574202B
:1006A0006D6561737572656D656E7420696E7465D4
:1006B0007276616C002020207220203C2D2D20209D
:1006C0004368616E6765204E6F646520726164697E
:1006D0006F204944002020206720203C2D2D202021
:1006E000456E746572204761746577617920726127
:1006F00064696F204944002020206920203C2D2D72
:100700002020456E7465722070726F6A6563742074
:100710004944002020206320203C2D2D20205365BB
:100720007420636C6F636B002020206420203C2DBC
:100730002D2020456E7465722073656E736F722074
:10074000646570746873002020203020203C2D2DBB
:100750002020456E74657220636F6E6669677572DE
:100760006174696F6E20737472696E67004D656E97
:1007700075206F7074696F6E733A200043757272E2
:10078000656E74206261747465727920766F6C7422
:100790006167653A20200043757272656E7420644B
:1007A00061746520262074696D653A2020004D65CE
:1007B00061737572656D656E7420496E74657276CD
:1007C000616C3A20004761746577617920526164F9
:1007D000696F2049443A2000526164696F2049449E
:1007E0003A200050726F6A6563742049443A2000D1
:1007F0004C6F526120526164696F204672657120AE
:10080000284D487A293A200053657269616C204E60
:10081000756D6265723A200056657273696F6E205D
:1008200000536F696C205761746572204461746174
:10083000204E6574776F726B202D20576972656C3E
:10084000657373205344492D313220446174616CC7
:100850006F67676572204E6F6465004375727265DD
:100860006E7420616464726573733A200072740060
:1008700092740048940078C40000002100240027EE
:10088000002A0000002200250028002B0000002084
:1008900000230026002900020202020202020204D2
:1008A0000404040404040403030303030303030113
:1008B0000101010101010101020408102040800131
:1008C000020408102040800102040810204080012A
:1008D00002040810204080000000010200090A0004
:1008E00000000004030807000000000000000000F2
:1008F0000000000000000000F23D0F4411241FBE64
:10090000CFEFD0E4DEBFCDBF17E0A0E0B1E0E4EA76
:10091000F0EA00E00BBF02C007900D92A230B107D1
:10092000D9F721E1A2E0B7E001C01D92AE3CB207C9
:10093000E1F714E0CDE7D4E004C02197FE010E9466
:10094000B14ACC37D107C9F70E94C43E0C94455038
:100950000C9400004F925F926F927F928F929F92C1
:10096000AF92BF92CF92DF92EF92FF920F931F93BD
:100970000091530E1091540E2091550E3091560E49
:10098000C0904F0ED090500EE090510EF090520E4D
:10099000480159018C189D08AE08BF08260137018F
:1009A000401A510A620A730A601771078207930797
:1009B00028F0640D751D861D971DF6CF6C157D05FD
:1009C0008E059F0528F4680D791D8A1D9B1DECCFAF
:1009D0001F910F91FF90EF90DF90CF90BF90AF905D
:1009E0009F908F907F906F905F904F900895BF92EF
:1009F000CF92DF92EF92FF920F931F93CF93DF93EB
:100A0000EC01B62EC880D980EA80FB800091570E99
:100A10001091580E980150E040E0C701B6010E94C5
:100A20000249662391F0862F90E09801369527952C
:100A30008217930700F1081B190BC00ED11EE11C91
:100A4000F11CC882D982EA82FB82688179818A811D
:100A50009B81BB20A9F00E94AA04688379838A83C2
:100A60009B83DF91CF911F910F91FF90EF90DF90CB
:100A7000CF90BF900895C61AD108E108F108E1CFE0
:100A80000091530E1091540E2091550E3091560E38
:100A9000061717072807390720F7088319832A83C1
:100AA0003B83DFCFE0E1FCE0A089B18982E08C9359
:100AB000A485B5851C92A685B78580E18C93108EA0
:100AC000A489B58986E08C93A289B3898C918061D1
:100AD0008C93A289B3898C9188608C93A289B38905
:100AE0008C9180688C930288F389E02D80818F7DC2
:100AF00080830895982F2091640B81E0213208F0C3
:100B000043C08091400B8111FCCF8091630B32E098
:100B10003093400B90933F0B9FEF90933E0B1092BE
:100B20003D0B20933C0BA3E4BBE0ECE1FBE090E049
:100B3000291331C010921B0B90911B0B880F892B2E
:100B400080931B0B80911A0B813049F510921A0B80
:100B500080911B0B8093BB008091BC0083FDF8CF7C
:100B600085EC8093BC008091400B8230E1F3809152
:100B70003E0B8F3FB1F080913E0B8032A1F080910F
:100B80003E0B803391F084E01092420B1092640B84
:100B90001092410B08953D9131939F5FC9CF85EE2F
:100BA000E0CF80E0F1CF82E0EFCF83E0EDCF909116
:100BB000400B9111FCCF91E09093400B90933F0B31
:100BC0002FEF20933E0B10923D0B260F20933C0BF2
:100BD00090931B0B90911B0B880F892B80931B0B01
:100BE00080911A0B8130F9F410921A0B80911B0B33
:100BF0008093BB008091BC0083FDF8CF85EC80938F
:100C0000BC008091400B8130E1F380913D0B861751
:100C100010F460913D0BACE1BBE0EAEFFAE080E05C
:100C2000861303C0089585EEEACF9D9191938F5F5F
:100C3000F7CF80916B0E90916C0EDC01ED91FC91E1
:100C40000484F585E02D0994FF920F931F93CF93B1
:100C5000DF938C01F62ECBE6DEE088819981DC0102
:100C6000ED91FC910488F589E02D642F0995888128
:100C70009981DC01ED91FC910680F781E02D4F2DEB
:100C8000B801DF91CF911F910F91FF9009940895C2
:100C90000895E82FF0E0EE0FFF1FED5EFE4F718329
:100CA0006083813049F0823071F080916900836007
:100CB00080936900E89A0895809169008C60809320
:100CC0006900E99A089580916900806380936900C2
:100CD000EA9A08950895AF92BF92CF92DF92EF9271
:100CE000FF920F931F93CF93DF936C017B018B01D6
:100CF000040F151FEB015E01AE18BF08C017D10726
:100D000059F06991D601ED91FC910190F081E02DAF
:100D1000C6010995892B79F7C501DF91CF911F9104
:100D20000F91FF90EF90DF90CF90BF90AF9008951C
:100D3000FC01538D448D252F30E0842F90E0821BE1
:100D4000930B541718F081509F4F08950197089501
:100D5000FC01918D828D981759F0A28DAE0FBF2F97
:100D6000B11D5D968C91928D9F5F928F90E008955A
:100D70008FEF9FEF0895FC01918D828D981731F0D0
:100D8000828DE80FF11D858D90E008958FEF9FEF24
:100D90000895FC01918D828D981B892F90E0089514
:100DA00080E19CE00E94C90621E0892B09F420E043
:100DB000822F0895FC01A48DA80FB92FB11DA35E49
:100DC000BE4F9C91848D8F5F848FA689B7899C9339
:100DD000A089B1898C91837080648C93938D848D6C
:100DE000981306C00288F389E02D80818F7D80836F
:100DF00008950F931F93CF93DF93EC0181E0888FC9
:100E00009B8D8C8D981318C0E889F989808185FFA6
:100E100013C09FB7F894EE89FF896083E889F98948
:100E200080818370806480839FBF81E090E0DF9148
:100E3000CF911F910F910895062F1B8D1F5F8C8DF1
:100E400081130CC00FB607FCFACFE889F9898081BD
:100E500085FFF5CFCE010E94DA06F1CFEB8DEC0FC6
:100E6000FD2FF11DE35EFE4F00839FB7F8941B8FAB
:100E7000EA89FB8980818062D6CF682F80E19CE07F
:100E80000C94F9060F931F93CF93DF938C01D0E05E
:100E9000C0E0F801EC0FFD1F6491662341F080E192
:100EA0009CE00E94F906892B11F02196F2CFCE0129
:100EB000DF91CF911F910F910895CF93DF93EC01B4
:100EC000888D8823B9F0AA89BB89E889F9898C9132
:100ED00085FD03C0808186FD0DC00FB607FCF7CFEE
:100EE0008C9185FFF2CF808185FFEDCFCE010E94EE
:100EF000DA06E9CFDF91CF91089580E090E0892B69
:100F000029F00E94D00681110E94000080E090E04C
:100F1000892B49F080E090E0892B29F00E940000A5
:100F200081110C940000089581508A3080F5E82FDB
:100F3000F0E0E356F84F0C94B14AB107B507A707A4
:100F4000AD07C707C707B807BE07C207C807809124
:100F500080008F77809380000895809180008F7D3E
:100F6000F9CF84B58F7784BD089584B58F7DFBCF8D
:100F70008091B0008F778093B00008958091B00089
:100F80008F7DF9CF809190008F77809390000895A6
:100F9000809190008F7DF9CFCF93DF93282F30E0A1
:100FA000F901E952F74F8491F901E954F74FD491CF
:100FB000F901E956F74FC491CC23A1F081110E94A9
:100FC0009407EC2FF0E0EE0FFF1FE357F74FA591CA
:100FD000B491EC91ED2381E090E009F480E0DF91A1
:100FE000CF91089580E090E0FACF1F93CF93DF93E5
:100FF000282F30E0F901E952F74F8491F901E954C3
:10100000F74FD491F901E956F74FC491CC23A9F0D9
:10101000162F81110E949407EC2FF0E0EE0FFF1FB6
:10102000ED57F74FA591B4918FB7F894EC9111114A
:1010300008C0D095DE23DC938FBFDF91CF911F9145
:101040000895DE2BF8CF1092F90A1092F80A109248
:10105000420B1092640B1092400B81E080933F0B87
:1010600010921A0B61E081E10E94F50761E080E1D6
:101070000E94F507E9EBF0E080818E7F808380811C
:101080008D7F808380E28093B80085E48093BC00EC
:1010900087E496E09093F00A8093EF0A88E496E064
:1010A0009093EE0A8093ED0A0895CF93DF9390E03A
:1010B000FC01E954F74F24918956974FFC01849124
:1010C0008823D1F090E0880F991FFC01E758F74F73
:1010D000A591B491FC01ED57F74FC591D4916111E1
:1010E0000EC09FB7F8948C91E22FE0958E238C93DD
:1010F0002881E223E8839FBFDF91CF9108958FB7C6
:10110000F894EC91E22BEC938FBFF6CF885180647A
:1011100080937C0080917A00806480937A00809133
:101120007A0086FDFCCF8091780090917900089537
:101130003FB7F8948091D70A9091D80AA091D90A24
:10114000B091DA0A26B5A89B05C02F3F19F0019689
:10115000A11DB11D3FBFBA2FA92F982F8827BC0111
:10116000CD01620F711D811D911D43E0660F771F38
:10117000881F991F4A95D1F708958F929F92AF9239
:10118000BF92CF92DF92EF92FF926B017C010E949F
:1011900098084B015C01C114D104E104F104B9F0D9
:1011A0000E949808681979098A099B09683E73406A
:1011B0008105910580F321E0C21AD108E108F10808
:1011C00088EE880E83E0981EA11CB11CE4CFFF902E
:1011D000EF90DF90CF90BF90AF909F908F90089549
:1011E0002FB7F8946091D30A7091D40A8091D50AF0
:1011F0009091D60A2FBF089508958BEF0895CF934D
:10120000DF93FC01228133812230310569F0EC014A
:10121000638D818D0E94F50760E0888D0E94F5073F
:1012200082E090E09B838A83DF91CF910895FF92C3
:101230000F931F93CF93DF93EC01162FF42E0FB76C
:10124000F89460E08F890E94F5078D899E89612F4F
:101250006068DC01ED91FC910190F081E02D099531
:10126000182F8D899E89DC01ED91FC910190F08110
:10127000E02D6F2D099561E08F890E94F5070FBF62
:10128000812FDF91CF911F910F91FF9008950F93C0
:101290001F93CF938C01C62F44E06DE40E94170981
:1012A0004BEF4C0F406869E0C801CF911F910F913F
:1012B0000C941709CF93DF93FC01228133812130F5
:1012C000310549F0EC0140E061E00E94170981E03E
:1012D00090E09B838A8381E0DF91CF910895CF9343
:1012E000DF93FC01228133812230310549F0EC018A
:1012F00041E061E00E94170982E090E09B838A83CD
:10130000DF91CF910895CF92DF92EF92FF92CF932A
:10131000DF93EC01CB01BA0120E034E244E759E469
:101320000E942E4820E034E244E752E40E94D24971
:101330000E94444A6B017C01A7016627772766E07B
:10134000CE010E94170977276F2D5E2D4D2D67E086
:10135000CE010E9417094C2D68E0CE010E941709AA
:1013600081E0DF91CF91FF90EF90DF90CF900895D3
:10137000CF92DF92EF92FF920F931F93CF93DF9361
:101380004C3F08F067C0142F072FF62EEC01E881C0
:10139000F9810484F585E02D0995CE010E946F093D
:1013A00040E06DE0CE010E9417094A8560E0CE0161
:1013B0000E9417094B8560E0CE010E9417094C85F9
:1013C00060E0CE010E9417094D8560E0CE010E94C9
:1013D0001709EFB6F89460E08F890E94F5078D89B0
:1013E0009E89DC01ED91FC910190F081E02D60E897
:1013F0000995CF2CD02E012F015068F08D899E8940
:10140000F60161916F01DC01ED91FC910190F08199
:10141000E02D0995F1CF61E08F890E94F507EFBEBD
:1014200044E0410F62E2CE010E9417098A819B814C
:10143000039771F043E061E0CE010E94170940E498
:1014400060E4CE010E94170983E090E09B838A83C9
:1014500081E001C080E0DF91CF911F910F91FF905B
:10146000EF90DF90CF900895CF93DF93FC0122811E
:10147000338123303105C9F0EC01828193810497D7
:1014800071F045E061E0CF010E94170940E060E49F
:10149000CE010E94170984E090E09B838A83C65E98
:1014A000DE4F8881DF91CF91089580E0FBCF0F93CD
:1014B0001F93CF93DF93EC01162F0FB7F89460E0E2
:1014C0008F890E94F5078D899E89DC01ED91FC9141
:1014D0000190F081E02D612F09958D899E89DC01B5
:1014E000ED91FC910190F081E02D60E00995182FBD
:1014F00061E08F890E94F5070FBF812FDF91CF91A7
:101500001F910F910895DF92EF92FF920F931F9317
:10151000CF93DF93EC0162E10E94570A2A813B815D
:1015200024303105A1F4982F907A89F08F8598891D
:101530000196988B8F874FEF62E1CE01DF91CF91BB
:101540001F910F91FF90EF90DF900C9417092A8163
:101550003B812430310511F486FD0DC02A813B8189
:101560002330310541F783FFE6CF8B899C890196B3
:101570009C8B8B8B67C063E1CE010E94570A082FBA
:1015800060E1CE010E94570A482F6DE0CE010E9413
:101590001709DFB6F89460E08F890E94F5078D89FE
:1015A0009E89DC01ED91FC910190F081E02D60E0DD
:1015B00009957E01BBE1EB0EF11C102F115070F06C
:1015C0008D899E89DC01ED91FC910190F081E02DE7
:1015D00060E00995F70181937F01F0CF61E08F8989
:1015E0000E94F507DFBE0A8F4FEF62E1CE010E9435
:1015F00017096AE1CE010E94570A89588E878A8DA1
:10160000FE01E65EFE4F8430C8F08B8D8E838C8D9C
:101610008F838D8D88878E8D89878D81811107C0FD
:101620009E818C81981719F08E818F3F39F48989BA
:101630009A8901969A8B898B81E0808380818823A7
:1016400009F479CFCE010E946F0975CF8091D00A3D
:101650009091D10A009711F00C94830A089580911B
:10166000CE0A9091CF0A009711F00C94830A089546
:101670008091CC0A9091CD0A009711F00C94830AC6
:101680000895CF93DF93EC018D899E89DC01ED9164
:10169000FC910680F781E02D099561E08F890E9419
:1016A000550861E08F890E94F50764E670E080E0EC
:1016B00090E00E94BD0881E0DF91CF910895FF92F4
:1016C0000F931F93CF93DF931F92CDB7DEB7F42E06
:1016D0000BE61EE0D8018D919C91DC01ED91FC910F
:1016E000008CF18DE02D0995F80180819181DC015C
:1016F000ED91FC91028CF38DE02D40E060E80995BE
:1017000081E289834F2D61E0CE0101960E9424067B
:101710000E9419060F90DF91CF911F910F91FF90BA
:1017200008952F923F924F925F926F927F928F9285
:101730009F92AF92BF92CF92DF92EF92FF920F9360
:101740001F93CF93DF938C015B016A0119010E9403
:10175000F0082B013C01F12CE12C0E94F0086419E7
:101760007509860997096C157D058E059F0508F09A
:1017700078C080916B0E90916C0EDC01ED91FC9124
:101780000280F381E02D0995882339F380916B0E57
:1017900090916C0EDC01ED91FC910480F581E02DBF
:1017A000A501B8010995C82F8823B9F280916B0E65
:1017B00090916C0EDC01ED91FC9100A0F1A1E02D67
:1017C0000995D82F80916B0E90916C0EDC01ED91F4
:1017D000FC91068CF78DE02D0995882E80916B0E7B
:1017E00090916C0EDC01ED91FC9102A0F3A1E02D33
:1017F0000995982E80916B0E90916C0EDC01ED9105
:10180000FC9104A0F5A1E02D099587FDA6CFBFEFBF
:101810008B1631F04D2F692D8BE69EE00E945F0BF9
:10182000ED2FF0E0E559F14FDF011B968385891517
:1018300009F493CFF101D0839C928C2FDF91CF914B
:101840001F910F91FF90EF90DF90CF90BF90AF90DE
:101850009F908F907F906F905F904F903F902F90D0
:101860000895C0E0EACF9FB7F8948091CA0A882310
:1018700019F081508093CA0A8091CA0A811105C06B
:101880008CB58F7B8CBD1092C90A9FBF08958CB513
:101890008F778CBD08958CB580688CBD0895FC0150
:1018A000738362830895FC01778366830895FC0146
:1018B00075836483089580E00895FC01818508950F
:1018C000FC0180850895FC0187810895FC018681D3
:1018D00008954095FC0125854223642B6587089572
:1018E000FC0164870895FC0163870895FC01628709
:1018F0000895FC0164830895FC01658308958F9227
:101900009F92AF92BF92CF92DF92EF92FF92CF93CE
:10191000DF93EC016B010E94F0084B015C01F12C9C
:10192000E12C0E94F008681979098A099B096C1555
:101930007D058E059F0580F48A819B81039789F33D
:1019400081E0DF91CF91FF90EF90DF90CF90BF903B
:10195000AF909F908F90089580E0F3CFFC0122819B
:10196000338123303105D1F381E008958F929F9226
:10197000AF92BF92CF92DF92EF92FF92CF93DF931D
:10198000EC016B010E94F0084B015C01F12CE12C91
:101990000E94F008681979098A099B096C157D0570
:1019A0008E059F05A0F4E881F9810280F381E02D86
:1019B000CE010995882361F3DF91CF91FF90EF90DD
:1019C000DF90CF90BF90AF909F908F90089580E070
:1019D000F3CFCF93DF93EC01E881F9810280F381AB
:1019E000E02DCE0109958823B9F3DF91CF910895B9
:1019F00081E008951F93CF93DF93EC01162F888128
:101A00009981DC01ED91FC910288F389E02D099523
:101A100088819981DC01ED91FC910688F789E02DA0
:101A2000612F09951A83DF91CF911F910895CF926D
:101A3000DF92EF92FF920F931F93CF936B017C0184
:101A4000142F80916B0E90916C0EDC01ED91FC9146
:101A50000190F081E02D0995C82F882309F160914C
:101A60006D0E8BE69EE00E94FA0C88E790E0909362
:101A7000740E8093730E83E08093750E612F8BE656
:101A80009EE00E94FA0C00916B0E10916C0EB70153
:101A9000A601C8010E94830961E1C8010E944709AB
:101AA0008C2FCF911F910F91FF90EF90DF90CF90EF
:101AB0000895282F30E094E0359527959A95E1F721
:101AC000922F990F990F291B220F820F089585EDF0
:101AD0008093BC008091BC0084FDFCCF1092400B31
:101AE00008952091A60A260F3327331F213231058E
:101AF000ECF42091400BFC0190E080E0243069F090
:101B000082E00895A091A60A2191AC014A57554F51
:101B1000A40FB52FB11D2C930196861798F38091D1
:101B2000A60A680F6093A60A80E0089581E00895F0
:101B30000895E091F90A8091F80AE81730F4F0E08E
:101B4000E650F54F808190E008958FEF9FEF089564
:101B50009091F90A8091F80A2FEF3FEF981748F417
:101B6000E92FF0E0E650F54F208130E09F5F909341
:101B7000F90AC90108958091F80A9091F90A891B20
:101B8000990B0895CF92DF92EF92FF920F931F93DC
:101B9000CF93DF937C01CB018A012091410B22235B
:101BA00089F0EB016B01C40ED51ECC15DD0569F083
:101BB0006991D701ED91FC910190F081E02DC70171
:101BC0000995F3CF642F0E94710DC801DF91CF9169
:101BD0001F910F91FF90EF90DF90CF900895CF93DA
:101BE000DF931F92CDB7DEB769832091410B22238B
:101BF000F9F02091640B203258F021E030E0FC0134
:101C00003383228390E080E00F90DF91CF9108959D
:101C10008091420BE82FF0E0ED5BF44F99819083C7
:101C20008F5F8093420B8093640B81E090E0ECCF58
:101C300061E0CE0101960E94710DF7CFCF93C62FC0
:101C400091E09093410B98E69093630B1092420BB6
:101C50001092640B682F8DE29EE00E94EF0D6C2FB6
:101C60008DE29EE00E94EF0D81E0CF910C947A0509
:101C7000CF93CFB7F8948091CA0A811127C0EBE9BE
:101C8000F8E08491EBEBF8E09491E82FF0E0EE0FB0
:101C9000FF1FE758F74FA591B491EC91E92321F488
:101CA00061E084E00E94F50761E084E00E9455084D
:101CB0008CB580618CBD8CB580648CBD61E087E0A3
:101CC0000E94550861E085E00E9455088091CA0A8B
:101CD0008F5F8093CA0ACFBFCF910895FC01268100
:101CE00037812115310591F12130310559F122302B
:101CF000310551F12330310549F52CE09CB5937F36
:101D0000922B9CBD84819581019711F58CB58062E1
:101D10008CBD82819381019784309105E0F4835DCD
:101D20009E4FFC0190818CB58C7F292F2370822BD4
:101D30008CBD8DB592FB992790F98E7F892B8DBD37
:101D40000C94380E24E0DACF28E0D8CF20E0D6CFAC
:101D50008CB58F7DDDCF95E0E6CFCF92DF92EF920D
:101D6000FF92CF93DF9360E08DE10E9455088DE1F3
:101D70000E948608B0E0A0E0BC01CD01660F771F8D
:101D8000881F991F0E94CD4723E333E343E550E4C6
:101D90000E942E4820E030E048EC52E40E942E4899
:101DA00020E030E84FEF53E40E94664920E030EC39
:101DB0004FE754E40E94D2490E94444ACB0164E6B2
:101DC00070E00E94894AEB01BC0190E080E00E9433
:101DD000CD4720E030E048EC52E40E94D2496B014C
:101DE0007C01BE0190E080E00E94CD479B01AC01E8
:101DF000C701B6010E946649DF91CF91FF90EF9035
:101E0000DF90CF900895CF92DF92EF92FF92CF9321
:101E1000DF9361E08EE00E94550860E088E10E9457
:101E2000550861E08EE00E94F50784EE93E001978B
:101E3000F1F788E10E948608EC0160E08EE00E94E4
:101E4000F507BE0190E080E022E0660F771F881F53
:101E5000991F2A95D1F70E94CD4723E333E343E549
:101E600050E40E942E4820E030E048EC52E40E940A
:101E70002E4820E030EC4FEB54E40E94664920E00D
:101E800030ED4FE355E40E94D2490E94444ACB0111
:101E900064E670E00E94894AEB01BC0190E080E0BA
:101EA0000E94CD4720E030E048EC52E40E94D24945
:101EB0006B017C01BE0190E080E00E94CD479B0158
:101EC000AC01C701B6010E946649DF91CF91FF9036
:101ED000EF90DF90CF90089580E19CE00E945D0735
:101EE000E0E1FCE0A289B3898C918F7E8C93A2897A
:101EF000B3898C91877F8C93A289B3898C918F77DA
:101F00008C93A289B3898C918F7D8C93828D818FE4
:101F100060E08FE00E94F50760E080E00E94F50736
:101F200060E081E00E94F5078FE790E10E945A0986
:101F300080B78F7780BFEAE7F0E080818F7780837A
:101F4000F89485B7806885BF85B7806885BF789429
:101F500083B7817F846083BF83B7816083BF7894B8
:101F6000ABE6B0E08C9184608C93A8E6B0E08C91F5
:101F700081608C9383B7816083BF889583B78E7FA0
:101F800083BF8081806880830E9452050E94380E42
:101F900061E080E00E94F50761E081E00C94F507C4
:101FA0000F931F93CF93DF93FB014081FC019C01B2
:101FB0002C5D3F4F80E08B010C5F1F4F919194137C
:101FC0000BC0DB011196EF0199918D9198130CC014
:101FD000A017B107C9F781E0E217F30779F7DF919E
:101FE000CF911F910F91089580E0F6CFECE4F7E0D8
:101FF0009191981731F097E0ED35F907C9F780E036
:10200000089581E00895ECE4F7E030E020E091915C
:10201000911105C0245B384FF901808308952F5F2B
:102020003F4F2131310599F708958091C90A8823DE
:1020300061F09FB7F8942091C90A80914707213039
:1020400019F48DBB9FBF08958FBF0895CF93DF9381
:10205000EC0161E088810E94F5070E9415108B81D8
:102060008CBD8C818DBDDF91CF9108958EBD000018
:102070000DB407FEFDCF8EB50895862F0C94361053
:102080002091C90A222361F02FB7F8943091C90A30
:10209000313049F43DB3309347073DB33DBB2FBFCB
:1020A0008CBD9DBD089520934707FACF80E591E050
:1020B0000E94401060E087E10E94F50789EB0E94D2
:1020C000361061E087E10E94F5070C941510CF935C
:1020D000DF93EC018CB58B838DB58C838D819E81D4
:1020E0000E94401060E08881DF91CF910C94F50749
:1020F0008F929F92AF92BF92CF92DF92EF92FF9218
:102100000F931F93CF93DF934B015C0128E833E1DA
:1021100040E050E00E9402492A31310510F029E1E7
:1021200030E06901F12CE12CC501B401A7010E9446
:1021300002498901D0E0C0E0C017D107C8F4A090DF
:10214000390EB0903A0EC5010E94671085E00E94DA
:10215000361080E00E943610982EC5010E9426108D
:1021600090FE14C0C701B6010E94BD082196E4CFBD
:1021700080E0DF91CF911F910F91FF90EF90DF9062
:10218000CF90BF90AF909F908F90089581E0F1CF56
:102190000F931F93CF93DF93EC01162F442339F055
:1021A00040E066E00E94C810CE010E942610CE01D9
:1021B0000E94671085E00E94361080E00E94361071
:1021C000082FCE010E94261000FDF1CFCE010E9403
:1021D0006710812FDF91CF911F910F910C943610D2
:1021E000CF92DF92EF92FF92CF93DF936B017C014E
:1021F000C42F68EE73E080E090E00E94781088239E
:10220000E9F180914F0E9091500EA091510EB09136
:10221000520EC816D906EA06FB0678F08091530ED6
:102220009091540EA091550EB091560EC816D90635
:10223000EA06FB0610F4CC2309F1C091390ED091C7
:102240003A0E41E060E2CE010E94C8108E2D0E943D
:1022500036108D2D0E9436108C2D0E943610CE0126
:102260000E94261068EE73E080E090E0DF91CF914D
:10227000FF90EF90DF90CF900C94781080E0DF918A
:10228000CF91FF90EF90DF90CF9008952F923F92E3
:102290004F925F926F927F928F929F92AF92BF9276
:1022A000CF92DF92EF92FF920F931F93CF93DF9322
:1022B0006C012A013B0119019A01332780E091E06A
:1022C000821B930B912C812C0115110581F1E801E2
:1022D0008017910708F4EC0141E062E0C6010E941A
:1022E000C810862D0E943610852D0E943610842D30
:1022F0000E9436105101A80CB91C7501F70181919B
:102300007F010E943610C7018A199B098C179D070F
:10231000A8F3C6010E9426104C0E5D1E611C711CA4
:102320008C0E9D1E0C1B1D0B80E091E0CDCFDF912C
:10233000CF911F910F91FF90EF90DF90CF90BF90C2
:10234000AF909F908F907F906F905F904F903F9055
:102350002F900895BF92CF92DF92EF92FF920F934A
:102360001F93CF93DF937C01EA01B62E690140E011
:102370006BE00E94C8108B2D0E9436108D2F0E949A
:1023800036108C2F0E94361080E00E943610E60135
:102390000C0D1D1DC017D10729F080E00E943610DA
:1023A0008993F8CFC701DF91CF911F910F91FF90D3
:1023B000EF90DF90CF90BF900C9426100F931F9357
:1023C000CF93DF9300D0CDB7DEB7AB01BC014C5F3C
:1023D0005F4F6F4F7F4F02E010E09E012F5F3F4F36
:1023E0008091390E90913A0E0E94AA112091590EB7
:1023F00030915A0E89819A812817390710F41A8270
:10240000198289819A810F900F90DF91CF911F914E
:102410000F910895CF92DF92EF92FF926B017C01B2
:102420000E94DE119C01009769F0E091570EF09137
:10243000580EBF010E94894A009721F02E0F3F1FBE
:10244000281B390BC701B601620F731F811D911D37
:10245000FF90EF90DF90CF900C94AA040F931F93FE
:10246000CF93DF93CDB7DEB760970FB6F894DEBF9A
:102470000FBECDBFAB01BC0100E110E09E012F5F9C
:102480003F4F8091390E90913A0E0E94AA11FE01A1
:102490003196CE01419621912F3F79F4E817F90743
:1024A000D1F781E060960FB6F894DEBF0FBECDBFC6
:1024B000DF91CF911F910F91089580E0F3CF4F925C
:1024C0005F926F927F92AF92BF92CF92DF92EF9224
:1024D000FF920F931F93CF93DF93CDB7DEB72C9767
:1024E0000FB6F894DEBF0FBECDBF6B017C015A0161
:1024F000FA01108211821282138204E010E09A0124
:10250000BC01A6018091390E90913A0E0E94AA1149
:10251000F50180819181A281B3818F3F9F4FAF4FA1
:10252000BF4F79F019861A861B861C86C701B60133
:102530000E940A122B013C01C414D504E604F704DE
:1025400011F480E054C004E010E09E01275F3F4F8B
:10255000BC01A2018091390E90913A0E0E94AA11FD
:1025600049855A856B857C85F50180819181A281A1
:10257000B3810196A11DB11D84179507A607B70762
:1025800009F451C04F3F5F4F6F4F7F4FD1F6C301EA
:10259000B2010E942E128823A1F28091570E9091D1
:1025A000580EC81AD90AE108F108CD82DE82EF82FE
:1025B000F886AE014F5F5F4F6FEFCE0105960E9428
:1025C0001513882349F149815A816B817C814F5FC2
:1025D0005F4F6F4F7F4F81E0F501C080D180E28077
:1025E000F3804C155D056E057F0509F0AACF2C968A
:1025F0000FB6F894DEBF0FBECDBFDF91CF911F9114
:102600000F91FF90EF90DF90CF90BF90AF907F90B1
:102610006F905F904F9008956D817E818F81988536
:102620000E942E12E4CF81E0E2CFCF92DF92EF92B0
:10263000FF920F931F93CF93DF93EC01D62E7A0175
:10264000688179818A819B810E942E12CC24C39457
:1026500010E000E0882391F08FEF9FEFDC01F7019D
:1026600080839183A283B38380E0DF91CF911F9118
:102670000F91FF90EF90DF90CF900895688179815E
:102680008A819B81A7010E945F128111EECFCC202D
:10269000D9F061E0CE010E94F704688179818A81D6
:1026A0009B810E942E12C82E8111D6CF8091590E87
:1026B00090915A0E6091570E7091580E0E94894A5F
:1026C00060177107D8F6C8CF88819981AA81BB812C
:1026D0004091570E5091580E70E060E01D14ACF020
:1026E000841B950BA60BB70B88839983AA83BB83A6
:1026F000688179818A819B810E94AA046883798399
:102700008A839B830F5F1F4FC8CF840F951FA61F1F
:10271000B71FEACF2F923F924F925F926F927F92B4
:102720008F929F92AF92BF92CF92DF92EF92FF92E1
:102730000F931F93CF93DF93CDB7DEB72E970FB6CE
:10274000F894DEBF0FBECDBF8C016D87FC016081A8
:102750007181828193810E942E128823C9F0F80131
:1027600080809180A280B380FD85F13009F4F5C0AE
:1027700080914F0E9091500EA091510EB091520E3B
:1027800075016401C81AD90AEA0AFB0A7D84F3C0FC
:102790002091570E3091580E8091530E9091540E07
:1027A000A091550EB091560E821B930BA109B10951
:1027B000F80180839183A283B383AE01475F5F4FAB
:1027C0006FEFC8010E94151381110BC0F8016081E1
:1027D0007181828193810E942E128111C0CF612C60
:1027E00022C180914F0E9091500EA091510EB09148
:1027F000520EF80180839183A283B383AE014B5FB5
:102800005F4F61E0C8010E941513F801608171817A
:1028100022819381811102C0822FDDCF4D805E80A5
:102820006F8078846B01E22EF92E8090530E909089
:10283000540EA090550EB090560E8C189D08AE0800
:10284000BF0822E9222E332433948091570E9091B1
:10285000580EB0E0A0E088159905AA05BB0520F444
:10286000B694A79497948794FFEF3F1252C0C81470
:10287000D904EA04FB0408F04CC08091530E9091F7
:10288000540EA091550EB091560E40914F0E50919E
:10289000500E6091510E7091520E841B950BA60B39
:1028A000B70B8C0D9D1DAE1DBF1D6C017D01C818A1
:1028B000D908EA08FB08F801C082D182E282F382DB
:1028C00060E0C8010E94F704F80160817181828193
:1028D00093810E942E12811142CFAE014F5F5F4F54
:1028E000632DC8010E941513882341F189819A81C3
:1028F000AB81BC81F1E03F1219C0481659066A0647
:102900007B0640F52A94222009F469CF2C013D0171
:102910009CCFA32D032C000CBB0BA50194010E949E
:102920004E49C60ED71EE81EF91EC5CF8415950563
:10293000A605B70538F333243394E4CFF80160815A
:102940007181828193810E942E12811108CFD3015F
:10295000C201D8CF33243A94D5CFC090530ED09033
:10296000540EE090550EF090560EC818D908EA089B
:10297000FB0877247394F2E9FE87F8016081718186
:10298000828193810E942E128111C7C0F80120809C
:10299000318042805380C201B1016627707F992740
:1029A0007051810991090E94AA040E942E12682E7A
:1029B0008823E9F0C201B1010E942E12811117C0D3
:1029C000FD85F130A1F4F80180819181A281B3816C
:1029D0008827907FBB2780839183A283B383AE0136
:1029E0004F5F5F4F61E0C8010E9415131CC0AE012C
:1029F0004B5F5F4F672DC8010E941513F80140819E
:102A0000518162817381882309F47EC0FD85FF3F77
:102A100021F5CB01BA010E940A120E942E12682EE3
:102A2000882309F47EC0862D2E960FB6F894DEBF5B
:102A30000FBECDBFDF91CF911F910F91FF90EF900F
:102A4000DF90CF90BF90AF909F908F907F906F90CE
:102A50005F904F903F902F9008958091570E9091E6
:102A6000580E2A013B01481A590A61087108C3012E
:102A7000B2010E942E12682E8111B1CF77247A9470
:102A80008091570E9091580EB0E0A0E08C159D05F6
:102A9000AE05BF0520F4F694E794D794C7948FEF62
:102AA000781242C08C149D04AE04BF04E8F58091F6
:102AB000530E9091540EA091550EB091560E409128
:102AC0004F0E5091500E6091510E7091520E841B1A
:102AD000950BA60BB70B880D991DAA1DBB1D4C01AC
:102AE0005D018C189D08AE08BF08F80180829182B4
:102AF000A282B38260E0C8010E94F704FE85F15013
:102B0000FE87F1113ACF6BCECB01BA010E942E1293
:102B1000882309F4B5CF7194B3CF2D852F3F09F4E5
:102B2000ADCF77247394ACCFA72D072C000CBB0B33
:102B3000A70196010E944E49860E971EA81EB91E37
:102B4000D4CFCF93DF9300D000D0CDB7DEB7AE01A6
:102B50004F5F5F4F0E945F12882359F069817A812D
:102B60008B819C810F900F900F900F90DF91CF91F0
:102B700008956FEF7FEFCB01F5CFEF92FF920F93A8
:102B80001F93CF93DF938C01C62FF894F090B2007F
:102B900061E0FC0184850E94F5079C2F80E031E014
:102BA000992329F083272FEF290F9223F9CFF0E8FB
:102BB0008F9FC0011124C82B80E8D9E0982F9C2357
:102BC00019F0D1508695FACF8091B2008F198A31D1
:102BD000D8F3F090B200EE24E394F8018485ED166A
:102BE00078F460E0C0FF61E00E94F5078091B200D8
:102BF0008F198A31D8F3F090B200C695E394EDCFE7
:102C000060E00E94F50778948AE090E08D1B9109BE
:102C10009AE1899F802D11249091B2009F199817F5
:102C2000D8F3DF91CF911F910F91FF90EF9008950E
:102C3000FC0115869091690780916A07981789F0C1
:102C4000E0916907F0E0EE5FF84F8081209169071D
:102C500030E02F5F3F4F2F7333272093690790E0B9
:102C600008958FEF9FEF08959091690780916A070B
:102C7000981741F0E0916907F0E0EE5FF84F80812E
:102C800090E008958FEF9FEF0895FC0185858111F5
:102C90000EC080916A072091690790E0805C9F4F89
:102CA000821B910960E470E00E949D4A08958FEFB5
:102CB0009FEF089590E080E00895DC011C969C91C0
:102CC0001C97ECE6F0E0983050F0E3E7F0E090314C
:102CD00030F0EBE6F0E0983110F4EDE6F0E08081C2
:102CE000977021E030E001C0220F9A95EAF7209515
:102CF000282320831C968C91ECE6F0E0883050F07D
:102D0000E3E7F0E0803130F0EBE6F0E0883110F4FA
:102D1000EDE6F0E09081911110C0F0E0E0E080324B
:102D200010F4E8E6F0E09081883040F0803140F027
:102D3000883140F08EEF8923808308958DEFFBCF9B
:102D400087EFF9CF8BEFF7CFCF93DF93EC016330B1
:102D5000710521F164307105E1F16230710509F00E
:102D60005FC060E083E00E94550861E083E00E945C
:102D7000550861E083E00E94F50760E08C850E94C1
:102D8000550861E08C850E94550860E08C850E94A2
:102D9000F507CE01DF91CF910C945D1660E083E0E2
:102DA0000E94550861E083E00E94550861E083E0DD
:102DB0000E94F50762E070E080E090E00E94BD08AC
:102DC00060E08C850E94550861E08C850E94550862
:102DD000E0CF61E083E00E94550860E083E00E945C
:102DE000F50762E070E080E090E00E94BD0860E0DE
:102DF0008C850E94F50760E08C850E9455087894C8
:102E0000809168008860809368008091730084607E
:102E1000809373008FEF80934607DF91CF910895E1
:102E200061E083E00E94550861E083E00E94F507BD
:102E300060E08C850E94F50760E0C7CF70E060E03D
:102E40008BE59EE00E94A41610920F0C10920E0CBF
:102E500080910D0C8093B00080910C0C8093B10098
:102E6000089580910E0C90910F0C8B559E4061F04F
:102E700062E070E08BE59EE00E94A4168BE59EE088
:102E800090930F0C80930E0C86E990E0A0E0B0E0E8
:102E900080935F0E9093600EA093610EB093620ECC
:102EA00081EF98ED90936A0E8093690E8091B00047
:102EB00080930D0C8091B10080930C0C1092B000A7
:102EC00086E08093B10008950F931F93CF93DF9313
:102ED0008C0163E070E08BE59EE00E94A41661E047
:102EE0008091670E0E94F5078CE895E60197F1F74F
:102EF00060E08091670E0E94F5078CE496E40197EC
:102F0000F1F7D0E0C0E0D80114968D919C9115970F
:102F1000C817D90790F4ED91FC91309759F41092AD
:102F20000B0CEBE0FCE060818BE59EE00E94BD15A0
:102F30002196E9CFEC0FFD1FF6CF64E070E08BE542
:102F40009EE0DF91CF911F910F910C94A4161F93D7
:102F5000CF93DF93EC01162F63E070E00E94A4167C
:102F6000612FCE010E94BD1564E070E0CE010E9489
:102F7000A41681E090E0DF91CF911F91089581E048
:102F80008093410B88E68093630B1092420B109262
:102F9000640B60E08DE29EE00E94EF0D81E00E94F4
:102FA0007A05811142C067E088E60E94D705109239
:102FB000F90A8093F80A8DE29EE00E94A80D8F77AF
:102FC0000E94590D8093F10A8DE29EE00E94A80DA7
:102FD0000E94590D8093F20A8DE29EE00E94A80D96
:102FE0008F7B0E94590D8093F30A8DE29EE00E9430
:102FF000A80D8093F40A8DE29EE00E94A80D0E9425
:10300000590D8093F50A8DE29EE00E94A80D8F77FE
:103010000E94590D8093F60A8DE29EE00E94A80D51
:103020000E94590D825E8093F70A8091F10A809385
:10303000B5098091F20A8093E50A8091F30A8093A2
:10304000B6098091F50A8093B9098091F60A8093B8
:10305000BA098091F70A90E08E54984F9093B8097E
:103060008093B70962E370E080E090E00C94BD08C3
:10307000CF9391E09093410B98E69093630B10925D
:10308000420B1092640B682F8DE29EE00E94EF0DC0
:1030900081E00E947A0581110DC061E088E60E94FE
:1030A000D7051092F90A8093F80A8DE29EE00E94FB
:1030B000A80DC82F8C2FCF9108951F93CF93DF9326
:1030C00081E08093410B88E68093630B1092420B62
:1030D0001092640B60E08DE29EE00E94EF0DC1EF64
:1030E000DAE028811AE0822F612F0E947D4A682F42
:1030F000660F680F660F620F8DE29EE00E94EF0D73
:103100002981822F612F0E947D4A682F660F680FE8
:10311000660F620F8DE29EE00E94EF0D2A81822FE2
:10312000612F0E947D4A682F660F680F660F620F3D
:103130008DE29EE00E94EF0D6B818DE29EE00E9489
:10314000EF0D2C81822F612F0E947D4A682F660F20
:10315000680F660F620F8DE29EE00E94EF0D2D81D9
:10316000822F612F0E947D4A682F660F680F660FBD
:10317000620F8DE29EE00E94EF0D2E812E51822F74
:10318000612F0E947D4A682F660F680F660F620FDD
:103190008DE29EE00E94EF0D81E00E947A05C82F2B
:1031A0008FE00E943818682F6F778FE00E941E0E04
:1031B0008C2FDF91CF911F910895CF93DF93C82F6C
:1031C0008FE00E943818C150DD0B21E030E001C0D3
:1031D000220FCA95EAF7982F922351F02095622F7B
:1031E00068238FE00E941E0E81E0DF91CF91089549
:1031F00080E0FBCFFC0101900020E9F73197AF019F
:10320000481B590BBC0180E19CE00C946B068DEBD4
:1032100091E00C94FA18CF93DF93FC01448155811F
:103220006081718180E19CE00E946B06EC010E944C
:1032300007198C0F9D1FDF91CF910895CF93DF93D6
:103240000E944207EC010E9407198C0F9D1FDF911D
:10325000CF910895CF93DF930E943D07EC010E9428
:1032600007198C0F9D1FDF91CF9108958F929F9228
:10327000AF92BF920F931F93CF93DF93CDB7DEB77B
:10328000A1970FB6F894DEBF0FBECDBF19A2423092
:1032900008F44AE08E010F5D1F4F842E912CB12C53
:1032A000A12CA50194010E940249E62FB901CA018F
:1032B000EA30F4F4E05DD801EE938D01232B242B4A
:1032C000252B79F790E080E0109719F0CD010E944E
:1032D000FA18A1960FB6F894DEBF0FBECDBFDF91EE
:1032E000CF911F910F91BF90AF909F908F900895B5
:1032F000E95CE1CF682F70E090E080E04AE00C9458
:103300003619CF93DF930E947A19EC010E940719B6
:103310008C0F9D1FDF91CF910895CF92DF92EF9296
:10332000FF92CF93DF9397FF19C06B017C018DE271
:103330000E943D07EC0166277727CB016C197D09B8
:103340008E099F094AE00E9436198C0F9D1FDF915C
:10335000CF91FF90EF90DF90CF9008954AE0DF91FA
:10336000CF91FF90EF90DF90CF900C943619CF92D1
:10337000DF92EF92FF92CF93DF930E94F0086B01F0
:103380007C0120E1C20E27E2D21EE11CF11C10924A
:10339000BD091092BC090E94F0086C157D058E05D0
:1033A0009F0560F580E19CE00E94C9061816190689
:1033B00094F764E670E080E090E00E94BD0880E150
:1033C0009CE00E94C906D82EC1E0DAE0E090BC097A
:1033D000F090BD09DC1690F080E19CE00E94A80608
:1033E000DE9D9001DF9D300D1124C097280F391FFD
:1033F0003093BD092093BC09CF5FE8CF6091BC0931
:103400007091BD09072E000C880B990B0E948D1935
:103410000E9407196AE070E080E090E0DF91CF91B0
:10342000FF90EF90DF90CF900C94BD08CF93DF9387
:103430004AE00E943619EC010E9407198C0F9D1F6B
:10344000DF91CF910895CF93DF93D0E0C0E0009754
:1034500019F00E94FA18EC010E9407198C0F9D1FA9
:10346000DF91CF9108958F929F92AF92BF92CF92AA
:10347000DF92EF92FF921F93CF93DF93CDB7DEB72A
:1034800064970FB6F894DEBF0FBECDBF6B017C0111
:1034900049015A0168E873E180E090E00E947810E9
:1034A000182F882309F410C2C0924F0ED092500EEC
:1034B000E092510EF092520E8092530E9092540E62
:1034C000A092550EB092560E80E290E09093580E66
:1034D0008093570E80E090E190935A0E8093590E9E
:1034E000F8948FEF9FEFDC0180933B0E90933C0E9E
:1034F000A0933D0EB0933E0E80933F0E9093400EEE
:10350000A093410EB093420E8093430E9093440ECD
:10351000A093450EB093460E8093470E9093480EAD
:10352000A093490EB0934A0E60914F0E7091500EC9
:103530008091510E9091520E0E942E12882309F410
:10354000C0C080904F0E9090500EA090510EB09041
:10355000520E6091530E7091540E8091550E9091C1
:10356000560E681979098A099B099695879577956A
:103570006795680D791D8A1D9B1D0E942E12882358
:1035800009F49FC080914F0E9091500EA091510E62
:10359000B091520E898B9A8BAB8BBC8B8D879E879B
:1035A000AF87B88B69897A898B899C8960933F0E34
:1035B0007093400E8093410E9093420ECD84DE8432
:1035C000EF84F888C0923B0ED0923C0EE0923D0E04
:1035D000F0923E0E0E940A126093430E7093440EC6
:1035E0008093450E9093460E6B017C01CC2420EF16
:1035F000D222FF246C157D058E059F0509F0A6C11A
:103600006093470E7093480E8093490E90934A0E34
:103610006091470E7091480E8091490E90914A0E2C
:103620000E94AA046093470E7093480E8093490E3F
:1036300090934A0E80913F0E9091400EA091410EC2
:10364000B091420E0097A048B10508F486C11092CF
:103650004B0E10924C0E10924D0E10924E0E78940E
:1036600080EC91E00E94231A0E94071960913B0EA2
:1036700070913C0E80913D0E90913E0E0E94A115DE
:1036800060913F0E7091400E8091410E9091420EDC
:103690000E94A11580E19CE00E945D07812F649645
:1036A0000FB6F894DEBF0FBECDBFDF91CF911F9153
:1036B000FF90EF90DF90CF90BF90AF909F908F9052
:1036C000089580914F0E9091500EA091510EB0919F
:1036D000520E898B9A8BAB8BBC8BAE014B5F5F4FCD
:1036E0006FEFCE0141960E94151381111DC080918C
:1036F0004F0E9091500EA091510EB091520E898BA9
:103700009A8BAB8BBC8BAE014B5F5F4F61E0CE0100
:1037100041960E941513811107C08FEF9FEFDC01C6
:103720008D839E83AF83B8872091570E3091580EBA
:103730008091530E9091540EA091550EB091560E5B
:10374000821B930BA109B109898B9A8BAB8BBC8B24
:10375000AE01475F5F4F6FEFCE0141960E94151398
:10376000811107C08FEF9FEFDC0189879A87AB87B4
:10377000BC8789849A84AB84BC8480914F0E9091DD
:10378000500EA091510EB091520E4D815E816F810D
:1037900078854F3F5F4F6F4F7F4F09F18B208A2015
:1037A0008920809409F096C08D879E87AF87B88B5B
:1037B000AE014F5F5F4F61E0CE010D960E94151381
:1037C0008823E1F12091570E3091580E8091530ECD
:1037D0009091540EA091550EB091560E9AC0209122
:1037E000570E3091580E4091530E5091540E6091E7
:1037F000550E7091560E421B530B610971098B20B7
:103800008A208920809409F48DC0498B5A8B6B8B58
:103810007C8B8D879E87AF87B88BAE014F5F5F4FE4
:103820006FEFCE0141960E941513882339F061E0B5
:10383000CE010D960E948A138111B4CE89899A898E
:10384000AB89BC89C816D906EA06FB06E1F58D8569
:103850009E85AF85B889C816D906EA06FB0699F594
:1038600080E090E0A0E8B0E080933F0E9093400E9F
:10387000A093410EB093420E80933B0E90933C0E6A
:10388000A0933D0EB0933E0EC092430ED092440ED4
:10389000E092450EF092460E80E1D80EE11CF11C3C
:1038A000C092470ED092480EE092490EF0924A0E16
:1038B0008FEF9FEFDC0180934B0E90934C0EA09303
:1038C0004D0EB0934E0E789487ED91E00E94231A2E
:1038D00010E0E4CE19861A861B861C864FEF5FEF38
:1038E000BA014D835E836F8378878D879E87AF870C
:1038F000B88B61E0CE010D960E948A13882309F4EB
:103900009DCF2091570E3091580E8D859E85AF85A5
:10391000B889821B930BA109B109898B9A8BAB8B58
:10392000BC8B10C08D879E87AF87B88B498B5A8B15
:103930006B8B7C8B61E0CE010D960E948A138823ED
:1039400009F47CCF6FEFCE01419674CF705F8F4F3B
:103950009F4F6627707F992753CE4BE45EE061E06E
:103960008FE39EE00E9415137ACECF92DF92EF9202
:10397000FF921F93CF93DF930E94F0086B017C01AD
:1039800020E1C20E27E2D21EE11CF11C0E94F008C9
:103990006C157D058E059F0540F580E19CE00E9439
:1039A000C9061816190694F764E670E080E090E006
:1039B0000E94BD0880E19CE00E94C906EC01F82E3F
:1039C00010E080E19CE00E94A8068D3039F08A303A
:1039D00029F0E12FF0E0E254F64F80831F5FF116EB
:1039E00080F7DD27C254D64F18828EEB99E0DF9125
:1039F000CF911F91FF90EF90DF90CF900C94231AFE
:103A00000C94FA180E94BF1765E38BE00E941E0E0B
:103A100068E18CE00E941E0E60E88DE00E941E0EA0
:103A200085EF91E00E94001D82E10E947A1980EAF0
:103A300095E00E94001D83E20E94811962E370E01C
:103A400080E090E00C94BD08CF93DF93482F509115
:103A5000E50A852F90E0E091E80AE4133BC0CE2F01
:103A6000D0E08C0F9D1F6CE370E00E949D4ABE0168
:103A70000E949D4AE69FE02D1124E0935D0720916E
:103A80005D07822F6AE00E947D4AC82FCC0FC80FC5
:103A9000CC0FC20F60E087E00E941E0E6C2F88E002
:103AA0000E941E0E60E889E00E941E0E60E88AE017
:103AB0000E941E0E87E092E00E94001D80915D072B
:103AC0000E94811962E370E080E090E0DF91CF9185
:103AD0000C94BD08840F911D8C3391053CF06CE370
:103AE00070E00E949D4A80935D07C9CF450F4093C7
:103AF0005D07C5CFEF92FF920F931F93CF93DF9394
:103B00007C018C01CAE0D0E0CE010E94EC48F801B3
:103B100081938F012196CE30D105B1F7C701DF9196
:103B2000CF911F910F91FF90EF9008950F931F93E6
:103B3000CF93DF930BE61BE0C8E0DBE0CE010E94F1
:103B4000EC48F80181938F012196C83AFBE0DF072A
:103B5000A9F78BE69BE0DF91CF911F910F9108951C
:103B60000F931F93CF93DF938C01EB010E94EC48DE
:103B70008883C80101960E94EC488983CE01DF91B9
:103B8000CF911F910F910895CF93DF93EB010E9486
:103B9000EC488883CE01DF91CF9108950C94EC48D6
:103BA0000F931F93CF93DF93FC01048115810115BF
:103BB000110539F4FB011082DF91CF911F910F9114
:103BC0000895415051094017510708F48A01EB014B
:103BD000FC0160817181A801CE010E94E74CC00FF9
:103BE000D11F1882E9CFCF93DF93DC011496ED91BA
:103BF000FC916E177F0728F54115510511F19F01C2
:103C0000261B370B4217530708F49A01DB01EC011E
:103C100088819981E21BF30BFD83EC83AF01461B86
:103C2000570B260F371FBC01620F731F8A0F9B1F94
:103C30000E94E74CE881F9818C819D81E80FF91F92
:103C40001082DF91CF9108952F923F924F925F9211
:103C50006F927F928F929F92AF92BF92CF92DF929C
:103C6000EF92FF920F931F93CF93DF93CDB7DEB701
:103C70002A970FB6F894DEBF0FBECDBFFC01698353
:103C800004811581C80187509F4F6AEF70E00E9440
:103C9000894A662309F42AC129812A874F01615084
:103CA000698790E080E0212C312C210133940115AB
:103CB000110509F41BC10B3F110550F15C013AEFEE
:103CC000A30EB11C0A5F110966246394712C681A53
:103CD000790A6A0C7B1C49854093760FA7E7BFE001
:103CE0008A159B05D8F4F401248135818217930746
:103CF00038F420813181F901E80FF91F232B21F4D9
:103D000010920B0CEBE0FCE020812D930196E8CFA4
:103D10005801A80EB91E10E000E0D6CFF090720E48
:103D2000F394F092720EC12CEE24E394EC0C80918B
:103D3000750E8C1508F4F4C080916B0E90916C0E8A
:103D4000DC01ED91FC91008CF18DE02D6F2D09953A
:103D500080916B0E90916C0EDC01ED91FC91028CC8
:103D6000F38DE02D40E860E009954A85662D86E7F1
:103D70009FE00E9424060E941906BA85BF3F09F4FD
:103D8000D1C0E1E0EE1598F480916E0E90916F0E27
:103D9000A091700EB091710E0196A11DB11D80937E
:103DA0006E0E90936F0EA093700EB093710E0E94E2
:103DB000F00869837A838B839C83C090730ED090C4
:103DC000740E0E94A144A20191010E9424499B010A
:103DD000AC01D6010E944349A20191010E942449ED
:103DE0002C0D3D1DCE2CC901B0E0A0E08D839E833B
:103DF000AF83B8870E94F00829813A814B815C81AA
:103E0000621B730B840B950B2D813E814F8158856E
:103E1000621773078407950708F086CF80916B0EB1
:103E200090916C0EDC01ED91FC910280F381E02D0C
:103E300009958823F9F280916B0E90916C0EDC014C
:103E4000ED91FC910480F581E02D50E040E070E0C0
:103E500060E00995882371F280916B0E90916C0E51
:103E6000DC01ED91FC9100A0F1A1E02D0995D82E87
:103E700080916B0E90916C0EDC01ED91FC91068CA3
:103E8000F78DE02D0995782E80916B0E90916C0E38
:103E9000DC01ED91FC9102A0F3A1E02D0995E82E43
:103EA00080916B0E90916C0EDC01ED91FC9104A061
:103EB000F5A1E02D0995BA85BD1108C090916D0E50
:103EC000971104C087FF02C0FE1461F187FD92CFF5
:103ED000ED2DF0E0E559F14F83858E118BCF4D2DFF
:103EE0006E2D8BE69EE00E945F0B84CF81E02A96C8
:103EF0000FB6F894DEBF0FBECDBFDF91CF911F91FB
:103F00000F91FF90EF90DF90CF90BF90AF909F9078
:103F10008F907F906F905F904F903F902F9008957B
:103F200080E0E5CFE985E150E987C501C0CEDF92A9
:103F3000EF92FF920F931F93CF93DF93FC01E480E6
:103F4000F580E114F10451F48FEF9FEFDF91CF91F1
:103F50001F910F91FF90EF90DF900895EC01019079
:103F6000F081E02DEE0DFF1DD080108208811981B7
:103F70006EE770E0C8010E94F64C0E0D1F1DF8019F
:103F8000D082009709F328813981821B930BDECF01
:103F9000CF93DF93EC0188819981009711F00E9403
:103FA000564B198218821D821C821B821A82DF9155
:103FB000CF910895FC01808191810C94564B0E9411
:103FC000C04C0F931F93CF93DF93EC0188819981AD
:103FD000009759F02A813B812617370730F081E09E
:103FE000DF91CF911F910F9108958B016F5F7F4FEC
:103FF0000E94DF4B009759F0998388831B830A83C3
:104000002C813D81232B59F7FC011082E8CF80E001
:10401000E7CFEF92FF920F931F93CF93DF9361153A
:10402000710541F480E0DF91CF911F910F91FF90D6
:10403000EF90089541155105B1F07B01EC010C8121
:104040001D81040F151FB8010E94E11F882351F341
:10405000288139818C819D81B701820F931F0E9435
:10406000E04C1D830C8381E0DECF0F931F93CF9331
:10407000DF9300D000D0CDB7DEB74AE08E010F5FEE
:104080001F4FB80190E00E940B45F80101900020FD
:10409000E9F73197AF01401B510BB8018AE991E173
:1040A0000E9409200F900F900F900F90DF91CF91F9
:1040B0001F910F9108950F931F93CF93DF93CDB767
:1040C000DEB764970FB6F894DEBF0FBECDBF8E018A
:1040D0000F5F1F4F22E044E00E943744FC01019033
:1040E0000020E9F73197AF01481B590BBC018AE961
:1040F00091E10E94092064960FB6F894DEBF0FBECE
:10410000CDBFDF91CF911F910F910895CF93DF9392
:1041100000D0CDB7DEB769831A8241E050E0BE011E
:104120006F5F7F4F0E9409200F900F90DF91CF911A
:104130000895FB0101900020E9F73197AF01461B7C
:10414000570B0C940920EF92FF920F931F93CF937C
:10415000DF93EC017B018A01BA010E94E11F81110A
:104160000BC0CE010E94C81FCE01DF91CF911F91DD
:104170000F91FF90EF9008951D830C83B701888104
:1041800099810E94E04CF0CFFB0101900020E9F7FB
:104190003197AF01461B570B0C94A320CF93DF93AD
:1041A000EC01FB018617970749F060817181611569
:1041B000710541F0448155810E94A320CE01DF9119
:1041C000CF9108950E94C81FF9CFCF93DF9300D0FD
:1041D00000D000D0CDB7DEB71A8219821C821B82B4
:1041E0001E821D826AE971E1CE0101960E94CE20F5
:1041F0004091A4115091A5116091A0117091A1114D
:10420000CE0101960E940920811104C0CE010196C1
:104210000E94C81FBE016F5F7F4F80EA91E10E943C
:10422000CE20CE0101960E94DA1F64E670E080E0A5
:1042300090E00E94BD0880EA91E10E940B1962E3C0
:1042400070E080E090E00E94BD0826960FB6F894DA
:10425000DEBF0FBECDBFDF91CF910895FC0111826B
:1042600010821382128215821482FB0101900020B9
:10427000E9F73197AF01461B570B0C94A3201F930E
:10428000CF93DF9300D000D000D0CDB7DEB76FEB77
:1042900071E0CE0101960E942E218BE598E00E94EC
:1042A0004207809110010E942A1987E192E00E9442
:1042B000001D80E19CE00E94C906892BD1F380E1BA
:1042C0009CE00E94A806182F80ED810F8A3090F0A4
:1042D000812F8F7D81548A3168F01A3021F08BE272
:1042E00092E00E94231A80E19CE00E94C906892B7B
:1042F000D1F3E5CF812F0E942A198BE692E00E942C
:10430000231A6FEB71E0CE0101960E94C4206091E8
:104310001001CE0101960E94862060E872E0CE0175
:1043200001960E949920612FCE0101960E9486205D
:1043300065E974E0CE0101960E949920CE010196B4
:104340000E9464176CE271E080E090E00E94BD087A
:104350008BE59EE00E944516892BA1F08BE59EE03F
:104360000E944516892B51F08BE59EE00E9418169D
:10437000682F80E19CE00E94F906F0CF82E892E08D
:104380000E94231ACE0101960E94DA1F26960FB6CC
:10439000F894DEBF0FBECDBFDF91CF911F9108957E
:1043A000CF93DF9300D000D000D0CDB7DEB70E940E
:1043B000311764E670E080E090E00E94BD086FEB8A
:1043C00071E0CE0101960E942E2160917307CE010B
:1043D00001960E9486206BE872E0CE0101960E9451
:1043E0009920CE0101960E9464176CE271E080E092
:1043F00090E00E94BD088BE59EE00E944516892B47
:1044000029F08BE59EE00E941816F5CF64E170E07C
:1044100080E090E00E94BD080E941E1764E170E0F9
:1044200080E090E00E94BD08CE0101960E94DA1F54
:1044300026960FB6F894DEBF0FBECDBFDF91CF91A9
:104440000895CF93DF9300D000D000D0CDB7DEB772
:104450000E94311764E670E080E090E00E94BD08A1
:104460006FEB71E0CE0101960E942E2160917307DF
:10447000CE0101960E9486206FE872E0CE0101967F
:104480000E949920CE0101960E9464176CE271E0AF
:1044900080E090E00E94BD088BE59EE00E944516FA
:1044A000892B29F08BE59EE00E941816F5CF64E178
:1044B00070E080E090E00E94BD080E941E1764E159
:1044C00070E080E090E00E94BD08CE0101960E945D
:1044D000DA1F26960FB6F894DEBF0FBECDBFDF9170
:1044E000CF910895AF92BF92CF92DF92EF92FF9259
:1044F0000F931F93CF93DF93CDB7DEB7E9970FB636
:10450000F894DEBF0FBECDBF082F10926A0710923D
:1045100069071092680E6FEB71E0CE0185960E94DC
:104520002E21602FCE0185960E94862063E972E0DD
:10453000CE0185960E949920CE0185960E9464172F
:1045400065E372E080E090E00E94BD088BE59EE0AC
:104550000E944516B82EF12CE12C84E2A82E109171
:10456000B409C12ED12CEB1440F58BE59EE00E94DE
:104570001816182F682F8CEA91E10E94862068E0B7
:1045800070E080E090E00E94BD081A3091F01D308C
:1045900081F0AC9CF001AD9CF00D1124EC58F84F6B
:1045A000EE0DFF1D108368E070E080E090E00E9457
:1045B000BD082FEFE21AF20AD2CF85E0E6E9F2E079
:1045C000DE019B9601900D928A95E1F785E0EBE97B
:1045D000F2E0DE01D09601900D928A95E1F785E038
:1045E000E0EAF2E0DE01D59601900D928A95E1F7BE
:1045F00034E2139FC00111249C012C58384F7901DB
:10460000BE01655D7F4FC9010E94D00F882309F16B
:1046100081E08093E60A009373071F5F1093B4094B
:1046200080E19CE00E945D07CE0185960E94DA1F22
:10463000E9960FB6F894DEBF0FBECDBFDF91CF91E4
:104640001F910F91FF90EF90DF90CF90BF90AF90B0
:104650000895BE01605D7F4FC7010E94D00F88237F
:1046600019F000936C07D9CFBE016B5C7F4FCE0170
:1046700001960E94D00F882381F200936B07CDCF63
:104680000F931F93CF93DF9300D000D000D0CDB70E
:10469000DEB7182F6FEB71E0CE0101960E942E213C
:1046A0006FEB71E0CE0101960E94C420612FCE0114
:1046B00001960E94862065E974E0CE0101960E9471
:1046C000992003E010E0CE0101960E94641764E691
:1046D00070E080E090E00E94BD088BE59EE00E94C3
:1046E0004516181619064CF064E670E080E090E07C
:1046F0000E94BD080150110931F78BE59EE00E9430
:10470000451610926A07109269071092680E11E020
:1047100002970CF410E0CE0101960E94DA1F812F5F
:1047200026960FB6F894DEBF0FBECDBFDF91CF91B6
:104730001F910F910895CF92DF92EF92FF920F9306
:104740001F93CF93DF93EC017B018A01E881F9810C
:104750000280F381E02D0995D82E882329F1E114F8
:10476000F104D1F001151105B9F0CFB6F8948A8D96
:104770008350990BF8012081281719061CF08A8DA7
:1047800084508083F801408150E0BE01615E7F4F1C
:10479000C7010E94C54CCFBE8FB7F894FE01E65EFC
:1047A000FE4F10821A8E8FBF8D2DDF91CF911F91FA
:1047B0000F91FF90EF90DF90CF900895EF92FF92CE
:1047C0000F931F93CF93DF9300D01F92CDB7DEB727
:1047D0008C010E94410BE82E81110CC0E12C8E2D22
:1047E0000F900F900F90DF91CF911F910F91FF903D
:1047F000EF900895F801808D8A3009F47EC08B30E7
:1048000009F47DC022E0F22E823041F740E861E0F9
:10481000C8010E9417096AE070E080E090E00E9401
:10482000BD0861E0C8010E94570A8038B9F660E00F
:10483000F801808D0E945508F801818D8F3F49F461
:104840008091CB0A843050F691E0980F9093CB0A78
:10485000818FF801818DE82FF0E0EE0FFF1FE45308
:10486000F54F1183008368E37BE0882349F06FE212
:104870007BE0813029F0823009F0B0CF66E27BE046
:104880008F2D0E94490640E06EE0C8010E94170982
:1048900040E06FE0C8010E941709C8010E946F093B
:1048A00043E050E06DE678E0CE0101960E940245BB
:1048B00049816DE1C8010E9417094A816EE1C80172
:1048C0000E9417094B8166E2C8010E94170940E067
:1048D00060E2C8010E94170948E061E2C8010E9435
:1048E000170940E050EC64E674E4C8010E948309B3
:1048F0006DE0C8010E94470972CFF12C87CFFF24D9
:10490000F39484CF0E94961D64E670E080E090E00E
:104910000E94BD08EBE6FBE080EADF011D928A956C
:10492000E9F708952F923F924F925F926F927F9294
:104930008F929F92AF92BF92CF92DF92EF92FF92AF
:104940000F931F93CF93DF93CDB7DEB764970FB666
:10495000F894DEBF0FBECDBFCDB6DEB6DE86CD8607
:104960000E94E520E090A411F090A511FC8AEB8A4A
:104970002DB73EB72E193F090FB6F8943EBF0FBEB4
:104980002DBF8DB79EB701965C016091A01170910B
:10499000A111A7010E94C54C8091590E90915A0E09
:1049A00006978E159F0530F585EA92E00E94231A3E
:1049B0000E945610ED84FE840FB6F894FEBE0FBE22
:1049C000EDBE64960FB6F894DEBF0FBECDBFDF918B
:1049D000CF911F910F91FF90EF90DF90CF90BF90FC
:1049E000AF909F908F907F906F905F904F903F908F
:1049F0002F9008952DB63EB640904B0E50904C0E21
:104A000060904D0E70904E0E9FEF491A590A690A38
:104A1000790AEB88FC88A6E0EA0EF11C0091570E9B
:104A20001091580EC701B8010E94894A009709F4F5
:104A300062C10E0D1F1D081B190BEDB7FEB7E01B61
:104A4000F10B0FB6F894FEBF0FBEEDBF2DB73EB70A
:104A50002F5F3F4F4901ADB7BEB711964D925D92A2
:104A60006D927C921497F901F582E4828DB79EB71E
:104A700007964B895C89B5010E94C54CA8014E1967
:104A80005F0970E060E0C4018E0D9F1D0E94CE4C56
:104A90002801712C612C4091430E5091440E60917D
:104AA000450E7091460EC090530ED090540EE0907B
:104AB000550EF090560ECF86D88AE98AFA8AD3012D
:104AC000C801840F951FA61FB71FE091390EF09102
:104AD0003A0EC816D906EA06FB0608F00EC15601C2
:104AE000A41AB50A7801EA18FB0885019401CF01E0
:104AF0000E94461164EF71E080E090E00E9478101F
:104B000094012A0D3B1D40914F0E5091500E609123
:104B1000510E7091520E87018091390E90913A0E8C
:104B20000E9446118090430E9090440EA090450E36
:104B3000B090460E80914B0E90914C0EA0914D0E70
:104B4000B0914E0E0196A11DB11D80934B0E909316
:104B50004C0EA0934D0EB0934E0EC301B201680DE2
:104B6000791D8A1D9B1D0E94AA046093430E7093B9
:104B7000440E8093450E9093460E705F8F4F9F4F6B
:104B80006627707F99270E94AA042B013C010E948E
:104B90002E12811129C041E0C301B2010E94F01020
:104BA000C301B201705F8F4F9F4F6627707F9927B7
:104BB0000E94AA046D837E838F839887AE014F5F26
:104BC0005F4F61E0CE0105960E941513882361F0C6
:104BD0008D819E81AF81B88580933B0E90933C0E72
:104BE000A0933D0EB0933E0E4092470E5092480E59
:104BF0006092490E70924A0E80923F0E9092400E43
:104C0000A092410EB092420E80913B0E90913C0ECC
:104C1000A0913D0EB0913E0E0097A048B10540F026
:104C200080923B0E90923C0EA0923D0EB0923E0EB2
:104C30000FB6F8943EBE0FBE2DBE60913F0E709130
:104C4000400E8091410E9091420E0E94DE117C0137
:104C500060913F0E7091400E8091410E9091420EF6
:104C60000E94DE118C01009769F02091570E30915F
:104C7000580EB9010E94894A009721F0020F131FB4
:104C8000081B190B8AEB92E00E94001D60914B0EED
:104C900070914C0E80914D0E90914E0E0E94161AFE
:104CA0008AEC92E00E94001D80EA91E10E940B19BB
:104CB00081ED92E00E94001DCB88DC88B60190E077
:104CC00080E04AE00E9436198DED92E00E94001DBE
:104CD000B70190E080E04AE00E9436198AEE92E047
:104CE0000E94001DB80190E080E04AE00E94361961
:104CF0000E9407195DCE8701A0CE9401CF0110CF8D
:104D00002F923F924F925F926F927F928F929F92DB
:104D1000AF92BF92CF92DF92EF92FF920F931F93C9
:104D2000CF93DF93CDB7DEB7A7970FB6F894DEBF6A
:104D30000FBECDBF2DB73EB73EA32DA30E94961D3B
:104D400064E170E080E090E00E94BD080E943117AD
:104D500064EF71E080E090E00E94BD086FEB71E0CD
:104D600080EA91E10E94C42000E088EE882E83E072
:104D7000982EC090B4090C1508F006C334E2309F99
:104D8000C0011124DC01AC58B84F7D011C91009387
:104D90006E076FEB71E086EA91E10E94C42064E146
:104DA00070E080E090E00E94BD08B70186EA91E1E2
:104DB0000E9499206EE170E080E090E00E94BD08C2
:104DC000EBE6FBE080E0D12CC81649F09081191386
:104DD00003C08AA3DD24D3948F5F3A96F5CFFE01FA
:104DE0003196BAA12AE0B29FA001112481E090E09F
:104DF0007F019C0121503109DA01A80FB91FA55983
:104E0000B44F6C91662309F45CC0619301968A30BB
:104E1000910579F76EE786EA91E10E948620B70155
:104E2000D11002C06CE173E086EA91E10E94992002
:104E30006FEB71E0CE014C960E942E21612FCE01C6
:104E40004C960E9486206CEF72E0CE014C960E9438
:104E50009920CE014C960E94641764E670E080E0D1
:104E600090E00E94BD088BE59EE00E944516181652
:104E700019060CF005C1ADB6BEB6B1E0B0936D0732
:104E80008BE59EE00E944516782EEDB7FEB7E81B35
:104E9000F1090FB6F894FEBF0FBEEDBF2DB73EB7B8
:104EA0002F5F3F4F6901622E79018E2D861987157C
:104EB00068F48BE59EE00E941816D7018D937D0162
:104EC000F4CF2E0D3F1DD9011C92A4CFF601838192
:104ED000082E000C990BC097889D9001899D300D7C
:104EE000989D300D112430936807209367070FB603
:104EF000F894BEBE0FBEADBE6091670770916807A3
:104F0000072E000C880B990B0E94BD0810926A07AF
:104F1000109269071092680E62E370E080E090E002
:104F20000E94BD0880916D07882309F410C22DB737
:104F30003EB73CA32BA36FEB71E0CE0146960E94D7
:104F40002E21612FCE0146960E9486206FEF72E0DF
:104F5000CE0146960E949920CE0146960E94641783
:104F600064EF71E080E090E00E94BD088BE59EE078
:104F70000E944516782E7C01FF24270131E0431A58
:104F800051088DB79EB78E199F090FB6F8949EBF32
:104F90000FBE8DBFADB7BEB711966D01B5E0B715A9
:104FA00008F0B8C12DB63EB66C2C56018BE59EE0DC
:104FB0000E941816F50181935F016FE070E080E0B8
:104FC00090E00E94BD088A2D8619871578F32DB7C9
:104FD0003EB72E193F090FB6F8943EBF0FBE2DBF46
:104FE0008DB79EB701965C0160906C078091730746
:104FF000181711F016114BC09FEFC91AD90AAFA2AA
:105000007501D6018D916D01F70181937F016FE0EC
:1050100070E080E090E00E94BD088E2DFFA18F1B04
:10502000871578F3DA2C75018E2D8D19841508F00B
:1050300059C0F701C1907F0185ED8C0D8035A0F737
:10504000FBE2CF1619F02DE2C21242C06EE786EAEB
:1050500091E10E94862064E170E080E090E00E948F
:10506000BD083DE2C312E0CF6DE286EA91E10E9405
:10507000862064E170E080E090E00E94BD08D4CF1B
:10508000909268078092670710926D0735CF712C58
:1050900022E0E21AF108872D90E08E159F058CF42E
:1050A000F501E80FF91F8C0D9D1DDC0111968C9107
:1050B000808364E170E080E090E00E94BD0873941A
:1050C000EACF64E170E080E090E00E94BD08AACFE2
:1050D0006C2D86EA91E10E94862069E170E080E013
:1050E00090E0CBCF161509F4B2C080917307181762
:1050F00009F4ADC080916B07181709F4A8C04DB62C
:105100005EB66FEB71E0CE0140960E942E21612FBA
:10511000CE0140960E94862063E073E0CE01409667
:105120000E949920CE0140960E94641764EF71E0BE
:1051300080E090E00E94BD088BE59EE00E9445164D
:105140007C01FF246701A2E0CA1AD108EDB7FEB7BF
:10515000EC19FD090FB6F894FEBF0FBEEDBF2DB7D9
:105160003EB72F5F3F4F59018630E8F010E031E045
:10517000E31AF108612E712C6E147F04A4F48BE500
:105180009EE00E9418168D3061F08A3051F0F501D2
:10519000E60DF71D80836FE070E080E090E00E94F4
:1051A000BD081F5FE7CF6FEB71E0CE010A960E944A
:1051B0002E2111E0812F90E08C159D05A4F48A0D1D
:1051C0009B1DDC016C916B3261F0CE010A960E944E
:1051D000862064E170E080E090E00E94BD081F5FDF
:1051E000E9CF6EE7F2CFCE010A960E94971F4E8557
:1051F000481B50E0BC017727CE010A960E94F31DA0
:10520000CE010A960E94971FAC01552770E060E01E
:10521000CE010A960E94F31D4E855F856A857B85C7
:1052200086EA91E10E94092064E170E080E090E06C
:105230000E94BD08CE010A960E94DA1FCE01409658
:105240000E94DA1F0FB6F8945EBE0FBE4DBE0FB6B9
:10525000F8943EBE0FBE2DBECE0146960E94DA1FC8
:10526000EBA1FCA10FB6F894FEBF0FBEEDBF6CE240
:1052700071E080E090E00E94BD0810926A071092F1
:1052800069071092680E62E370E080E090E00E948F
:10529000BD0810926A07109269071092680E62E3C7
:1052A00070E080E090E00E94BD081B861A861D8693
:1052B0001C861F861E8666EA71E1CE010A960E9450
:1052C000CE206EE7CE010A960E948620811104C08E
:1052D000CE010A960E94C81F4E855F856A857B8530
:1052E00080EA91E10E940920CE010A960E94DA1F0D
:1052F00064E670E080E090E00E94BD08CE014C962C
:105300000E94DA1F6EE170E080E090E00E94BD082C
:105310000F5F2FCD80916B0761E173E0181791F05B
:1053200080916C07181761F08091730766E173E054
:10533000181741F067E073E086EA91E10E94992036
:105340006BE173E086EA91E10E94992085CF80911C
:105350006B0761E173E0181791F080916C071817E3
:1053600061F08091730766E173E0181741F067E020
:1053700073E086EA91E10E9499206BE173E086EA8E
:1053800091E10E94992073CF8091A4119091A51171
:105390002DB73EB7281B390B0FB6F8943EBF0FBE92
:1053A0002DBF0DB71EB70F5F1F4F62E370E080E0A7
:1053B00090E00E94BD084091A4115091A5114115A3
:1053C000510529F0B80180EA91E10E94D01D62E305
:1053D00070E080E090E00E94BD08E091A411F0919F
:1053E000A511E00FF11F108262E370E080E090E011
:1053F0000E94BD08B801CE0101960E942E21809125
:10540000A0119091A111009709F44DC069817A8192
:105410006115710509F445C04091A2115091A31185
:105420002D813E8142175307E0F10E94E04C8D81AF
:105430009E819093A5118093A4111E821D82CE019E
:1054400001960E94DA1F62E370E080E090E00E9423
:10545000BD080E941E1762E370E080E090E00E94A9
:10546000BD088DA19EA10FB6F8949EBF0FBE8DBF43
:10547000A7960FB6F894DEBF0FBECDBFDF91CF91D8
:105480001F910F91FF90EF90DF90CF90BF90AF9062
:105490009F908F907F906F905F904F903F902F9054
:1054A00008950E94564B89819A819093A11180930F
:1054B000A0118B819C819093A3118093A2118D8167
:1054C0009E819093A5118093A4111A8219821C8247
:1054D0001B82B3CF3F924F925F926F927F928F92D7
:1054E0009F92AF92BF92CF92DF92EF92FF920F9373
:1054F0001F93CF93DF93CDB7DEB7ADB6BEB60E9494
:10550000311764E670E080E090E00E94BD0887E912
:1055100091E00E941E190E940719ECE4F7E085E56E
:1055200097E011928E179F07E1F762E370E080E049
:1055300090E00E94BD0810E3812F0E944023882341
:1055400019F0812F0E9403101F5F1A33A9F711E68B
:10555000812F0E944023882319F0812F0E9403107D
:105560001F5F1B37A9F711E4812F0E944023882376
:1055700019F0812F0E9403101F5F1B35A9F764E10A
:1055800070E080E090E00E94BD0810E3812F0E944F
:10559000F60F882319F0812F0E9472221F5F1A33A1
:1055A000A9F711E6812F0E94F60F882319F0812FA9
:1055B0000E9472221F5F1B37A9F711E4812F0E94FE
:1055C000F60F882319F0812F0E9472221F5F1B356E
:1055D000A9F78DB69EB680E591E00E94401060E08C
:1055E00087E10E94F507000061E087E10E94F5076E
:1055F0000E94151062E370E080E090E00E94BD0818
:1056000040E060E070E180E090E00E94F01062E332
:1056100070E080E090E00E94BD08C090B011D09092
:10562000B1118DB79EB78C199D090FB6F8949EBF26
:105630000FBE8DBF01967C01C114D10431F0A601CB
:10564000BC018CEA91E10E94D01D80914F0E909197
:10565000500EA091510EB091520E81309041A10593
:10566000B10568F48091530E9091540EA091550E9F
:10567000B091560E81309041A105B10560F48601CC
:10568000970140E050E160E070E08091390E909128
:105690003A0E0E9446116CE271E080E090E00E94B8
:1056A000BD080D2C000CEE08FF0880E1D80EE11CAF
:1056B000F11CC0924807D0924907E0924A07F09245
:1056C0004B076AE070E080E090E00E94BD08412C4A
:1056D00080E1582E612C712C4C145D046E047F0403
:1056E00040F50091390E10913A0E40E063E0C80198
:1056F0000E94C810862D0E943610852D0E943610FB
:10570000842D0E94361080E00E943610382EC80189
:105710000E942610832D0E943D0768E070E080E023
:1057200090E00E94BD089FEF491A590A690A790A58
:10573000D3CF64E170E080E090E00E94BD080E9459
:1057400056100FB6F8949EBE0FBE8DBE62E370E099
:1057500080E090E00E94BD080E9407190E9407198E
:1057600082E991E00E941E1962E370E080E090E01F
:105770000E94BD080E941E171092DB0A0FB6F89413
:10578000BEBE0FBEADBEDF91CF911F910F91FF90B6
:10579000EF90DF90CF90BF90AF909F908F907F90D1
:1057A0006F905F904F903F9008958F929F92AF922D
:1057B000BF92CF92DF92EF92FF920F931F93CF93FE
:1057C000DF93CDB7DEB72E970FB6F894DEBF0FBECE
:1057D000CDBF0E94030F6093E90A7093EA0A809399
:1057E000EB0A9093EC0A82E10E943818182F81E1AD
:1057F0000E943818612F782F77FF02C0615C7F4FBD
:1058000086E0759567958A95E1F7072E000C880B61
:10581000990B0E94CF4720E030E040E85EE30E9411
:105820002E4860936F077093700780937107909371
:10583000720761E08CE10E9455088E010F5F1F4FD7
:10584000B80180E390E00E94B01D89819A810196A1
:1058500079F4BE01625F7F4F80E190E00E94C41D39
:105860008E85853409F438C188EE93E09A83898364
:1058700061E08CE10E94F50784EE93E00197F1F777
:105880000E94AD0E4B015C0160E08CE10E94F507C7
:1058900020E030E048EC52E4C501B4010E942E48FB
:1058A0000E94444ACB0164E670E00E94894A7C0170
:1058B000C501B4010E94444A44E6469F9001479FB7
:1058C000300D11242E0D3F1DA8EEB3E00E94564965
:1058D00029813A8150E040E00E94024969010E941A
:1058E000AD0E4B015C016FEB71E08AE991E10E9422
:1058F000C42064E170E080E090E00E94BD0864E0B4
:1059000071E08AE991E10E9499206EE78AE991E1CC
:105910000E94862065E67BE08AE991E10E94992059
:105920006EE78AE991E10E9486206091E10A709118
:10593000E20A8091E30A9091E40A2AE0A8010E9419
:105940002545F80101900020E9F73197AF01401B90
:10595000510BB8018AE991E10E9409206EE78AE9BA
:1059600091E10E9486206091E90A7091EA0A809193
:10597000EB0A9091EC0A0E945B206EE78AE991E1C4
:105980000E94862060916F07709170078091710767
:10599000909172070E945B206EE78AE991E10E9474
:1059A00086204AE0B801C6010E944745F8010190EF
:1059B0000020E9F73197AF01401B510BB8018AE98C
:1059C00091E10E9409206EE78AE991E10E94862018
:1059D000C501B4010E945B206EE78AE991E10E9453
:1059E00086204AE0B8018091B7099091B8090E94D9
:1059F0000B45F80101900020E9F73197AF01401BFA
:105A0000510BB8018AE991E10E9409206DE28AE90F
:105A100091E10E9486208091BA090E9435206DE2B2
:105A20008AE991E10E9486208091B9090E9435207F
:105A30006FE58AE991E10E9486208091B6090E9473
:105A400035206AE38AE991E10E9486201091E50AF7
:105A50001A3028F460E38AE991E10E948620812FC0
:105A60000E9435206AE38AE991E10E948620109124
:105A7000B5091A3028F460E38AE991E10E94862092
:105A8000812F0E9435206FE58AE991E10E948620EE
:105A900060E071E08AE991E10E9499206EE78AE96D
:105AA00091E10E94862062E370E080E090E00E9435
:105AB000BD082E960FB6F894DEBF0FBECDBFDF91A6
:105AC000CF911F910F91FF90EF90DF90CF90BF90FB
:105AD000AF909F908F90089584E690E0C7CE2F926C
