:100000000C9483060C94B2560C9487560C945C5650
:100010000C9431590C94AD060C94AD060C94AD06BD
:100020000C94AD060C94AD060C94AD060C94AD0684
:100030000C94AD060C94DD560C94AD060C94AD06F4
:100040000C94AD060C94AD060C9412560C94AD06AF
:100050000C94DD550C94B3550C94AD060C94AD0680
:100060000C94AD060C94AD060C940D580C94AD0692
:100070000C947E550C9454550C94AD060C94AD061E
:100080000C94AD060C94AD060C94AD0641542B4374
:10009000434944002B43474154543A200041542BD8
:1000A00043474154543F002B43475245473A2000B1
:1000B00041542B43475245473F0047505253206F0E
:1000C0006E004552524F523A2047505253206661BB
:1000D000696C656420746F207475726E206F6E0099
:1000E0005265676973746572656420726F616D69CA
:1000F0006E6700556E6B6E6F776E0044656E696556
:1001000064004E6F7420726567697374657265640C
:100110002028736561726368696E6729005265679C
:10012000697374657265642028686F6D6529004E77
:100130006F742072656769737465726564003A2034
:10014000004E6574776F726B2073746174757320E1
:10015000005475726E696E672063656C6C206D6FFC
:1001600064756C65206F66662E2E2E0052535349BF
:10017000202864426D293A202D00456E7465722056
:1001800027782720617420616E792074696D65205D
:10019000746F2073746F70005475726E696E67208F
:1001A00063656C6C206D6F64756C65206F6E2E2EB0
:1001B0002E004552524F523A20496E76616C696466
:1001C0002075706C6F616420696E74657276616C05
:1001D000202865766572792031206F72203420687E
:1001E0006F75727329005265636569766572206D5B
:1001F0006F64653A206E6F2075706C6F6164730078
:100200004552524F523A20496E76616C69642069BA
:100210006E74657276616C2028657665727920311E
:10022000302C2031352C2032302C2033302C206FD4
:1002300072203630206D696E73290070726F6A65A6
:10024000637449443A20002020696E707574206DF3
:10025000696E7574653A20002020696E707574208F
:10026000686F75723A202020002020696E707574C6
:1002700020796561723A202020002020696E707517
:1002800074206461793A20202020002020696E705B
:100290007574206D6F6E74683A20200053796E6318
:1002A00068726F6E697A6174696F6E206661696CDD
:1002B00065642E20506C6561736520656E7465728F
:1002C0002074696D65206D616E75616C6C79206953
:1002D0006E205554433A200053796E6368726F6EF6
:1002E000697A696E6720636C6F636B20746F204E50
:1002F00049535420736572766572202E2E2E20008D
:1003000044656661756C7420726164696F2049444C
:1003100020616363657074656400526164696F2075
:100320004944207570646174656400456E7465723B
:10033000206E657720726164696F2049443A20001D
:10034000576F756C6420796F75206C696B652074CC
:100350006F206368616E67652074686520726164F0
:10036000696F2049442066726F6D2074686520644F
:10037000656661756C742076616C75653F20792FB8
:100380006E3A2000456E7465722074686520486F6F
:100390006C6F6772616D20646576696365206B655B
:1003A0007920666F7220746869732047617465777D
:1003B00061793A2000456E74657220746865207218
:1003C0006164696F20494420666F72204E6F6465D6
:1003D0002000293F00496E76616C6964206E756D5E
:1003E000626572206F66206E6F6465732E202048F0
:1003F0006F77206D616E79206E6F64657320617216
:10040000652061742074686973207369746520289D
:100410006D61782E00486F77206D616E79206E6F68
:10042000646573206172652061742074686973204B
:100430007369746520286D61782E2000496E76619D
:100440006C696420696E74657276616C2E20456EED
:10045000746572206D6561737572656D656E74206B
:10046000696E74657276616C202831302C203135CC
:100470002C2032302C2033302C206F722036302943
:100480003A2000456E746572206D65617375726502
:100490006D656E7420696E74657276616C202831AA
:1004A000302C2031352C2032302C2033302C206F52
:1004B00072203630206D696E73293A2000496E76BD
:1004C000616C696420696E74657276616C2E20457A
:1004D0006E746572206D6561737572656D656E749D
:1004E00020696E74657276616C202831302C203161
:1004F000352C2032302C2033302C206F72203630B7
:10050000293A2000456E746572206D6561737572BD
:10051000656D656E7420696E74657276616C2028F5
:1005200031302C2031352C2032302C2033302C200F
:100530006F72203630206D696E73293A200043684F
:1005400065636B696E672046504C4D4E2E2E2E0013
:10055000457869740020205265636569766572206C
:100560004D6F646520646561637469766174656468
:100570000020205265636569766572204D6F646561
:100580002061637469766174656400576F756C648B
:1005900020796F75206C696B6520746F20757365A9
:1005A000205265636569766572204D6F64653F20F2
:1005B000792F6E3A20004E4F54453A2052656365BC
:1005C00069766572206D6F64652077696C6C206E4A
:1005D0006F742075706C6F61642064617461207445
:1005E0006F20486F6C6F6772616D002020456E74DC
:1005F000657220612050726F6A65637420494420DF
:1006000028757020746F203520636861726163748F
:100610006572732C2065783A20505341293A2000A6
:1006200020204552524F523A2050726F6A656374CF
:1006300020494420657863656564732035206368CC
:10064000617261637465727321002020456E746568
:100650007220612050726F6A6563742049442028BB
:10066000757020746F2035206368617261637465F2
:1006700072732C2065783A20505341293A20004566
:100680007869740041726520796F752073757265A1
:1006900020796F752077616E7420746F20636C65AC
:1006A0006172207468652046504C4D4E3F20792F72
:1006B0006E3A2000212121205553452057495448A6
:1006C0002043415554494F4E2021212100576F7539
:1006D0006C6420796F75206C696B6520746F207471
:1006E00075726E2064656275672073746174656DE0
:1006F000656E7473206F6E3F20792F6E3A2000571D
:100700006F756C6420796F75206C696B6520746FF0
:10071000207475726E2064656275672073746174ED
:10072000656D656E7473206F66663F20792F6E3A33
:100730002000457261736520534420636172643AFE
:1007400020005072696E7420646174612066696C67
:1007500065733A200053617665642066696C657341
:100760003A20004552524F523A2075706C6F6164C6
:1007700020696E74657276616C206D757374206289
:100780006520656E74657265642066697273742E87
:100790002052657475726E696E6720746F206D6586
:1007A0006E752E2E2E00456E74657220636F6E6618
:1007B000696775726174696F6E20737472696E67B0
:1007C0003A2000456E7465722063686F6963653A0C
:1007D000200020207820203C2D2D20204578697491
:1007E000206D656E750020207220203C2D2D20206C
:1007F0005265636569766572204D6F6465206F6E22
:100800002F6F66660020206D20203C2D2D20205368
:100810006574206D6561737572656D656E742069B0
:100820006E74657276616C0020207520203C2D2D41
:10083000202053657420646174612075706C6F6151
:100840006420746F20636C6F756420696E746572C8
:1008500076616C0020206E20203C2D2D2020456EDE
:10086000746572204E6F646520726164696F2049FF
:1008700044730020206420203C2D2D2020456E74E0
:10088000657220486F6C6F6772616D204465766990
:100890006365204B65790020206720203C2D2D20AA
:1008A000204368616E6765204761746577617920D0
:1008B000726164696F2049440020206920203C2D2A
:1008C0002D2020456E7465722070726F6A656374A6
:1008D0002049440020203020203C2D2D2020456E32
:1008E00074657220636F6E66696775726174696F93
:1008F0006E20737472696E6700436F6E6669677508
:10090000726174696F6E204F7074696F6E733A0014
:1009100020203420203C2D2D2020436C6561722046
:10092000666F7262696464656E206E6574776F725B
:100930006B73206C6973740020206F20203C2D2D78
:10094000202044656275672073746174656D656EFF
:100950007473206F6E2F6F66660020206520203C28
:100960002D2D20204572617365206D6963726F5370
:100970004420636172640020206620203C2D2D20DD
:1009800020536565206C697374206F6620736176EF
:1009900065642066696C65730020207020203C2D02
:1009A0002D20205072696E74206E6F646520646122
:1009B000746120746F2073637265656E002020631C
:1009C00020203C2D2D202053657420636C6F636BB9
:1009D0000020203120203C2D2D202043656C6C759B
:1009E0006C6172205369676E616C2053636F75741C
:1009F000696E67204D6F64650055736572204F7096
:100A000074696F6E733A004465627567206F66663D
:100A1000004465627567206F6E0043757272656E83
:100A200074206261747465727920766F6C7461678A
:100A3000653A20200030003A0030003A002D002DA9
:100A40000043757272656E7420646174652026209F
:100A500074696D653A200055706C6F616420696E31
:100A600074657276616C2028687273293A20004D93
:100A70006561737572656D656E7420496E7465721B
:100A800076616C3A2000446174612066696C653A55
:100A900020004E6574776F726B6564204E6F6465DD
:100AA000204944733A200023206F66206E6F6465EE
:100AB000733A2000446576696365206B65793A2056
:100AC000004761746577617920526164696F2049DC
:100AD000443A200050726F6A6563742049443A209A
:100AE000004C6F526120526164696F2046726571DB
:100AF00020284D487A293A200053657269616C209C
:100B00004E756D6265723A200056657273696F6E3C
:100B100020002D2D2D205265636569766572204D6C
:100B20006F6465202D2D2D00536F696C2057617403
:100B300065722044617461204E6574776F726B201A
:100B40002D2043656C6C756C61722047617465770C
:100B5000617900496E76616C696420696E746572B2
:100B600076616C2E20506C6561736520656E7465CE
:100B7000722031206F7220342E00456E7465722011
:100B8000223122206F72202234223A2000536574D1
:100B90002075706C6F616420696E74657276616C2B
:100BA00020746F2031206F72203420686F7572734B
:100BB0002E007C3C3E5E2B3D3F2F5B5D3B2C2A2272
:100BC0005C0072740092740048940078C4000000C5
:100BD0002100240027002A00000022002500280010
:100BE0002B00000020002300260029000202020240
:100BF00002020202040404040404040403030303C1
:100C000003030303010101010101010101020408C1
:100C100010204080010204081020408001020408D6
:100C200010204080010204081020408000000001D4
:100C30000200090A00000000040308070000000089
:100C40000000000000000000000000002B43535192
:100C50003A200041542B435351002B435245473A0D
:100C6000200041542B435245473F0041542B4350F1
:100C70004D533D22534D222C22534D222C22534DB5
:100C8000220053494D383030480053494D434F4DB1
:100C90005F53494D35333230450053494D434F4D35
:100CA0005F53494D35333230410053494D38303070
:100CB000205231330053494D3830382052313300FF
:100CC00053494D383038205231340041542B43566B
:100CD00048553D30004154453000415445300041B5
:100CE00054004154004154004154004154004154C7
:100CF000004F4B00464F4E4100464F4E416E6574CB
:100D000000004D591D5F11241FBECFEFD0E4DEBFA0
:100D1000CDBF1EE0A0E0B1E0EAE4F1ED00E00BBFE2
:100D200002C007900D92A63AB107D9F723E2A6EACE
:100D3000BEE001C01D92A539B207E1F716E0C2E896
:100D4000D6E004C02197FE010E948164C138D1071A
:100D5000C9F70E94235B0C9498680C9400000895D6
:100D60000895982F2091111A81E0213208F043C094
:100D70008091101A8111FCCF8091091A32E03093D2
:100D8000101A90930F1A9FEF9093E7191092E6199B
:100D90002093E519A9EEB9E1E5ECF9E190E029131A
:100DA00031C01092C4199091C419880F892B809377
:100DB000C41980910E1A813049F510920E1A809153
:100DC000C4198093BB008091BC0083FDF8CF85ECF3
:100DD0008093BC008091101A8230E1F38091E71972
:100DE0008F3FB1F08091E7198032A1F08091E7192F
:100DF000803391F084E01092121A1092111A10921E
:100E0000E81908953D9131939F5FC9CF85EEE0CFFA
:100E100080E0F1CF82E0EFCF83E0EDCF9091101A28
:100E20009111FCCF91E09093101A90930F1A2FEF2D
:100E30002093E7191092E619260F2093E519909355
:100E4000C4199091C419880F892B8093C41980917B
:100E50000E1A8130F9F410920E1A8091C419809301
:100E6000BB008091BC0083FDF8CF85EC8093BC0073
:100E70008091101A8130E1F38091E619861710F401
:100E80006091E619A5ECB9E1E4EAF9E180E08613A6
:100E900003C0089585EEEACF9D9191938F5FF7CFC0
:100EA0000F931F93CF93DF93EC019A01AB01E88975
:100EB000F98982E08083EC85FD8510820E851F858F
:100EC00060E874E88EE190E00E94FD6221503109F3
:100ED000410951095695479537952795F801208383
:100EE000188EEC89FD8986E08083EA89FB89808100
:100EF00080618083EA89FB89808188608083EA89B8
:100F0000FB89808180688083EA89FB8980818F7D6D
:100F10008083DF91CF911F910F91089580912020C0
:100F200090912120DC01ED91FC910484F585E02D68
:100F30000994FF920F931F93CF93DF938C01F62EAA
:100F4000C0E2D0E288819981DC01ED91FC910488B6
:100F5000F589E02D642F099588819981DC01ED9157
:100F6000FC910680F781E02D4F2DB801DF91CF91E4
:100F70001F910F91FF900994E82FF0E0EE0FFF1FF3
:100F8000E25DFE4F71836083813049F0823071F001
:100F900080916900836080936900E89A0895809148
:100FA00069008C6080936900E99A089580916900D6
:100FB000806380936900EA9A0895DC01ED91FC91C9
:100FC0000190F081E02D0994EF92FF920F931F930F
:100FD000CF93DF938C017B01D0E0C0E0F701EC0FF1
:100FE000FD1F6491662361F0D801ED91FC910190A1
:100FF000F081E02DC8010995892B11F02196EECFE3
:10100000CE01DF91CF911F910F91FF90EF90089546
:10101000AF92BF92CF92DF92EF92FF920F931F9306
:10102000CF93DF936C017B018B01040F151FEB0144
:101030005E01AE18BF08C017D10759F06991D601FB
:10104000ED91FC910190F081E02DC6010995892B6D
:1010500079F7C501DF91CF911F910F91FF90EF902C
:10106000DF90CF90BF90AF900895FC01538D448DD9
:10107000252F30E0842F90E0821B930B541718F03B
:1010800081509F4F089501970895FC01918D828DA5
:10109000981759F0A28DAE0FBF2FB11D5D968C91A0
:1010A000928D9F5F928F90E008958FEF9FEF08954C
:1010B000FC01918D828D981731F0828DE80FF11D22
:1010C000858D90E008958FEF9FEF0895FC01918D3D
:1010D000828D981B892F90E0089585E19AE10E9406
:1010E000660821E0892B09F420E0822F089582E32D
:1010F0009CE10E94660821E0892B09F420E0822F00
:101100000895CF93DF93EC01E881F9810680F781A0
:10111000E02D0995EA89FB8980818F7E8083EA89A9
:10112000FB898081877F8083EA89FB8980818F7733
:101130008083EA89FB8980818F7D80838A8D898F76
:10114000DF91CF910895FC01A48DA80FB92FB11D97
:10115000A35EBE4F9C91848D8F5F848FA689B789D3
:101160009C93A089B1898C91837080648C93938DBA
:10117000848D981306C00288F389E02D80818F7DCD
:10118000808308950F931F93CF93DF93EC0181E049
:10119000888F9B8D8C8D981318C0E889F989808180
:1011A00085FF13C09FB7F894EE89FF896083E889B3
:1011B000F98980818370806480839FBF81E090E0A3
:1011C000DF91CF911F910F910895062F1B8D1F5F07
:1011D0008C8D81130CC00FB607FCFACFE889F98912
:1011E000808185FFF5CFCE010E94A308F1CFEB8D62
:1011F000EC0FFD2FF11DE35EFE4F00839FB7F894C7
:101200001B8FEA89FB8980818062D6CFCF93DF93E1
:10121000EC01888D8823B9F0AA89BB89E889F9890E
:101220008C9185FD03C0808186FD0DC00FB607FC43
:10123000F7CF8C9185FFF2CF808185FFEDCFCE0176
:101240000E94A308E9CFDF91CF91089580E090E05C
:10125000892B29F00E94770881110E94000080E00C
:1012600090E0892B29F00E946D0881110C940000F8
:10127000089581508A3080F5E82FF0E0EE5BF64F5C
:101280000C94816456095A094C0952096C096C097D
:101290005D09630967096D09809180008F778093EC
:1012A00080000895809180008F7DF9CF84B58F777D
:1012B00084BD089584B58F7DFBCF8091B0008F777A
:1012C0008093B00008958091B0008F7DF9CF809118
:1012D00090008F77809390000895809190008F7D8B
:1012E000F9CFCF93DF93282F30E0F901E45DF34F7E
:1012F0008491F901E45FF34FD491F901E451F44F83
:10130000C491CC23A1F081110E943909EC2FF0E0A7
:10131000EE0FFF1FEE51F44FA591B491EC91ED2328
:1013200081E090E009F480E0DF91CF91089580E0C2
:1013300090E0FACF1F93CF93DF93282F30E0F9018D
:10134000E45DF34F8491F901E45FF34FD491F90127
:10135000E451F44FC491CC23A9F0162F81110E94BF
:101360003909EC2FF0E0EE0FFF1FE852F44FA59182
:10137000B4918FB7F894EC91111108C0D095DE2389
:10138000DC938FBFDF91CF911F910895DE2BF8CFB3
:101390001092141A1092131A1092121A1092111A13
:1013A0001092101A81E080930F1A10920E1A61E0C9
:1013B00081E10E949A0961E080E10E949A09E9EBCB
:1013C000F0E080818E7F808380818D7F808380E2CA
:1013D0008093B80085E48093BC008FEA96E09093F8
:1013E0000D1A80930C1A80EB96E090930B1A809361
:1013F0000A1A0895CF93DF9390E0FC01E45FF34F66
:1014000024918451944FFC0184918823D1F090E081
:10141000880F991FFC01E253F44FA591B491FC0190
:10142000E852F44FC591D49161110EC09FB7F89462
:101430008C91E22FE0958E238C932881E223E88320
:101440009FBFDF91CF9108958FB7F894EC91E22B75
:10145000EC938FBFF6CF883108F088518770806495
:1014600080937C0080917A00806480937A008091E0
:101470007A0086FDFCCF80917800909179000895E4
:101480003FB7F8948091AB0F9091AC0FA091AD0F46
:10149000B091AE0F26B5A89B05C02F3F19F001965D
:1014A000A11DB11D3FBFBA2FA92F982F8827BC01BE
:1014B000CD01620F711D811D911D43E0660F771FE5
:1014C000881F991F4A95D1F708958F929F92AF92E6
:1014D000BF92CF92DF92EF92FF924B015C010E948C
:1014E000400A6B017C010E94400A6C197D098E093B
:1014F0009F09683E734081059105A8F321E0821A97
:101500009108A108B10888EEC80E83E0D81EE11C3E
:10151000F11C81149104A104B10429F7FF90EF900C
:10152000DF90CF90BF90AF909F908F900895FF92E3
:101530000F931F93CF93DF93F82E04EF11E0D0E0C9
:10154000C0E080911E2090911F20DC01ED91FC9164
:101550000084F185E02D0995892BC9F080911E202A
:1015600090911F20DC01ED91FC910284F385E02D28
:1015700009958D3031F38A3021F4209711F3FF2043
:1015800091F0FE01EA5FF04E86872196DACF015096
:10159000110949F061E070E080E090E00E94650A86
:1015A000CE3FD10570F2FE01EA5FF04E16868C2F19
:1015B000DF91CF911F910F91FF9008952FB7F8946D
:1015C0006091A70F7091A80F8091A90F9091AA0F19
:1015D0002FBF08950895885E9E4FDC018D919C91E8
:1015E000DC01ED91FC910680F781E02D0994885E85
:1015F0009E4FDC018D919C91DC01ED91FC91048466
:10160000F585E02D0994885E9E4FDC018D919C91BB
:10161000DC01ED91FC910284F385E02D0994885E54
:101620009E4FDC018D919C91DC01ED91FC9101902C
:10163000F081E02D0994885E9E4FDC018D919C9194
:10164000DC01ED91FC910084F185E02D0994CF93AC
:10165000DF9390E080E0EC0121968897A8F486E083
:101660009FE10E941B0B892B39F086E09FE10E94CD
:10167000030BD0E0C0E0F3CF61E070E080E090E0E9
:101680000E94650ACE01E7CFDF91CF9108958BEFDD
:101690000895CF93DF93FC012281338122303105FD
:1016A00069F0EC01638D818D0E949A0960E0888D5C
:1016B0000E949A0982E090E09B838A83DF91CF9118
:1016C0000895FF920F931F93CF93DF93EC01162F92
:1016D000F42E0FB7F89460E08F890E949A098D89E3
:1016E0009E89612F6068DC01ED91FC910190F08191
:1016F000E02D0995182F8D899E89DC01ED91FC91D3
:101700000190F081E02D6F2D099561E08F890E9495
:101710009A090FBF812FDF91CF911F910F91FF90F9
:1017200008950F931F93CF938C01C62F44E06DE46F
:101730000E94610B4BEF4C0F406869E0C801CF91EC
:101740001F910F910C94610BCF93DF93FC012281C9
:1017500033812130310549F0EC0140E061E00E9425
:10176000610B81E090E09B838A8381E0DF91CF91E0
:101770000895CF93DF93FC0122813381223031051C
:1017800049F0EC0141E061E00E94610B82E090E0F1
:101790009B838A83DF91CF910895CF92DF92EF925E
:1017A000FF92CF93DF93EC01CB01BA0120E034E24A
:1017B00044E759E40E94F76120E034E244E752E450
:1017C0000E949B630E9414646B017C01A701662741
:1017D000772766E0CE010E94610B77276F2D5E2D83
:1017E0004D2D67E0CE010E94610B4C2D68E0CE01CB
:1017F0000E94610B81E0DF91CF91FF90EF90DF902D
:10180000CF900895CF92DF92EF92FF920F931F93A4
:10181000CF93DF934C3F08F067C0142F072FF62EAD
:10182000EC01E881F9810484F585E02D0995CE016C
:101830000E94B90B40E06DE0CE010E94610B4A8529
:1018400060E0CE010E94610B4B8560E0CE010E94FA
:10185000610B4C8560E0CE010E94610B4D8560E01C
:10186000CE010E94610BEFB6F89460E08F890E9470
:101870009A098D899E89DC01ED91FC910190F0819E
:10188000E02D60E80995CF2CD02E012F015068F093
:101890008D899E89F60161916F01DC01ED91FC91CA
:1018A0000190F081E02D0995F1CF61E08F890E94D0
:1018B0009A09EFBE44E0410F62E2CE010E94610B43
:1018C0008A819B81039771F043E061E0CE010E9421
:1018D000610B40E460E4CE010E94610B83E090E084
:1018E0009B838A8381E001C080E0DF91CF911F91CB
:1018F0000F91FF90EF90DF90CF900895CF93DF93FB
:10190000FC012281338123303105C9F0EC01828151
:101910009381049771F045E061E0CF010E94610B73
:1019200040E060E4CE010E94610B84E090E09B8384
:101930008A83C65EDE4F8881DF91CF91089580E073
:10194000FBCF0F931F93CF93DF93EC01162F0FB7AD
:10195000F89460E08F890E949A098D899E89DC0144
:10196000ED91FC910190F081E02D612F09958D8919
:101970009E89DC01ED91FC910190F081E02D60E009
:101980000995182F61E08F890E949A090FBF812F56
:10199000DF91CF911F910F910895DF92EF92FF9207
:1019A0000F931F93CF93DF93EC0162E10E94A10C90
:1019B0002A813B8124303105A1F4982F907A89F057
:1019C0008F8598890196988B8F874FEF62E1CE01C2
:1019D000DF91CF911F910F91FF90EF90DF900C94CA
:1019E000610B2A813B812430310511F486FD0DC045
:1019F0002A813B812330310541F783FFE6CF8B8974
:101A00009C8901969C8B8B8B67C063E1CE010E9401
:101A1000A10C082F60E1CE010E94A10C482F6DE0BF
:101A2000CE010E94610BDFB6F89460E08F890E94BE
:101A30009A098D899E89DC01ED91FC910190F081DC
:101A4000E02D60E009957E01BBE1EB0EF11C102F4B
:101A5000115070F08D899E89DC01ED91FC9101900F
:101A6000F081E02D60E00995F70181937F01F0CFCF
:101A700061E08F890E949A09DFBE0A8F4FEF62E111
:101A8000CE010E94610B6AE1CE010E94A10C89582F
:101A90008E878A8DFE01E65EFE4F8430C8F08B8D06
:101AA0008E838C8D8F838D8D88878E8D89878D8198
:101AB000811107C09E818C81981719F08E818F3F0C
:101AC00039F489899A8901969A8B898B81E0808380
:101AD0008081882309F479CFCE010E94B90B75CF9C
:101AE0008091A40F9091A50F009711F00C94CD0C4C
:101AF00008958091A20F9091A30F009711F00C947C
:101B0000CD0C08958091A00F9091A10F009711F036
:101B10000C94CD0C0895CF93DF93EC018D899E89B1
:101B2000DC01ED91FC910680F781E02D099561E0E3
:101B30008F890E94FA0961E08F890E949A0964E600
:101B400070E080E090E00E94650A81E0DF91CF9133
:101B50000895FF920F931F93CF93DF931F92CDB7FA
:101B6000DEB7F42E00E210E2D8018D919C91DC01E9
:101B7000ED91FC91008CF18DE02D0995F8018081AB
:101B80009181DC01ED91FC91028CF38DE02D40E020
:101B900060E8099581E289834F2D61E0CE010196CD
:101BA0000E9499070E948E070F90DF91CF911F919D
:101BB0000F91FF900895CF92DF92EF92FF920F93D3
:101BC0001F93CF93DF93EC018B017A016901809120
:101BD000202090912120DC01ED91FC910280F38185
:101BE000E02D099581110BC010E0812FDF91CF917D
:101BF0001F910F91FF90EF90DF90CF90089580910B
:101C0000202090912120DC01ED91FC910480F58150
:101C1000E02DA701B8010995182F882329F3809199
:101C2000202090912120DC01ED91FC9100A0F1A1F8
:101C3000E02D0995F82E8091202090912120DC0143
:101C4000ED91FC91068CF78DE02D0995E82E8091A1
:101C5000202090912120DC01ED91FC9102A0F3A1C4
:101C6000E02D0995082F8091202090912120DC0102
:101C7000ED91FC9104A0F5A1E02D099587FDB4CF6D
:101C8000BFEFEB1629F04F2D602FCE010E94A90D5A
:101C9000CF0DD11D8B85801709F4A6CFF601F082F8
:101CA0000B87A3CF9FB7F89480919E0F882319F0DC
:101CB000815080939E0F80919E0F811105C08CB53D
:101CC0008F7B8CBD109291179FBF08958CB58F7735
:101CD0008CBD08958CB580688CBD0895FC0173831C
:101CE00062830895FC01778366830895FC01758300
:101CF00064830895089580E00895FC018185089526
:101D0000FC0180850895FC0187810895FC0186818E
:101D100008954095FC0125854223642B658708952D
:101D2000FC0164870895FC0163870895FC016287C4
:101D30000895FC0164830895FC01658308958F92E2
:101D40009F92AF92BF92CF92DF92EF92FF92CF938A
:101D5000DF93EC016B010E94DE0A4B015C01F12C68
:101D6000E12C0E94DE0A681979098A099B096C1521
:101D70007D058E059F0580F48A819B81039789F3F9
:101D800081E0DF91CF91FF90EF90DF90CF90BF90F7
:101D9000AF909F908F90089580E0F3CFFC01228157
:101DA000338123303105D1F381E008958F929F92E2
:101DB000AF92BF92CF92DF92EF92FF92CF93DF93D9
:101DC000EC016B010E94DE0A4B015C01F12CE12C5D
:101DD0000E94DE0A681979098A099B096C157D053C
:101DE0008E059F05A0F4E881F9810280F381E02D42
:101DF000CE010995882361F3DF91CF91FF90EF9099
:101E0000DF90CF90BF90AF909F908F90089580E02B
:101E1000F3CFCF93DF93EC01E881F9810280F38166
:101E2000E02DCE0109958823B9F3DF91CF91089574
:101E300081E008951F93CF93DF93EC01162F8881E3
:101E40009981DC01ED91FC910288F389E02D0995DF
:101E500088819981DC01ED91FC910688F789E02D5C
:101E6000612F09951A83DF91CF911F910895CF9229
:101E7000DF92EF92FF920F931F93CF936B017C0140
:101E8000142F8091202090912120DC01ED91FC9174
:101E90000190F081E02D0995C82F882309F1609108
:101EA000222080E290E20E941A0F88E790E090934F
:101EB00029208093282083E080932A20612F80E2CC
:101EC00090E20E941A0F0091202010912120B7016A
:101ED000A601C8010E94CD0B61E1C8010E94910BCF
:101EE0008C2FCF911F910F91FF90EF90DF90CF90AB
:101EF000089585ED8093BC008091BC0084FDFCCFEB
:101F00001092101A089520917B0F260F3327331F4C
:101F100021323105ECF42091101AFC0190E080E0B0
:101F2000243069F082E00895A0917B0F2191AC01EB
:101F3000455A504FA40FB52FB11D2C93019686170B
:101F400098F380917B0F680F60937B0F80E008957A
:101F500081E008950895E091141A8091131AE8170A
:101F600030F4F0E0EC55F64E808190E008958FEF6C
:101F70009FEF08959091141A8091131A2FEF3FEF5D
:101F8000981748F4E92FF0E0EC55F64E208130E048
:101F90009F5F9093141AC90108958091131A90912C
:101FA000141A891B990B0895CF92DF92EF92FF923A
:101FB0000F931F93CF93DF937C01CB018A01209174
:101FC000E819222389F0EB016B01C40ED51ECC1554
:101FD000DD0569F06991D701ED91FC910190F081E7
:101FE000E02DC7010995F3CF642F0E94830FC8012C
:101FF000DF91CF911F910F91FF90EF90DF90CF90E5
:102000000895CF93DF931F92CDB7DEB769832091F8
:10201000E8192223F9F02091111A203258F021E01A
:1020200030E0FC013383228390E080E00F90DF9169
:10203000CF9108958091121AE82FF0E0E751F64E03
:10204000998190838F5F8093121A8093111A81E097
:1020500090E0ECCF61E0CE0101960E94830FF7CFB4
:10206000CF93C62F91E09093E81998E69093091AC0
:102070001092121A1092111A682F85E893E20E94AA
:1020800001106C2F85E893E20E94011081E0CF914E
:102090000C94B106CF93CFB7F89480919E0F811125
:1020A00027C0E0EFFBE08491E0E1FCE09491E82FB1
:1020B000F0E0EE0FFF1FE253F44FA591B491EC91C5
:1020C000E92321F461E084E00E949A0961E084E060
:1020D0000E94FA098CB580618CBD8CB580648CBD82
:1020E00061E087E00E94FA0961E085E00E94FA0958
:1020F00080919E0F8F5F80939E0FCFBFCF910895E9
:10210000FC01268137812115310591F121303105FE
:1021100059F12230310551F12330310549F52CE0D8
:102120009CB5937F922B9CBD84819581019711F57D
:102130008CB580628CBD828193810197843091053A
:10214000E0F482599E4FFC0190818CB58C7F292F41
:102150002370822B8CBD8DB592FB992790F98E7FD1
:10216000892B8DBD0C944A1024E0DACF28E0D8CF1B
:1021700020E0D6CF8CB58F7DDDCF95E0E6CF9FB741
:10218000F894209191178091550F213019F48DBB4F
:102190009FBF08958FBF089561E0FC0184810E9474
:1021A0009A098091540F882339F01092540F80912E
:1021B000911781110C94BF1008958EBD00000DB4CD
:1021C00007FEFDCF8EB50895862F0C94DD108FEF9E
:1021D0000C94DD100F931F93CF93DF93EC010E94BB
:1021E000DE0A8B010E94E7108F3F69F00E94DE0A31
:1021F000601B710B6C177D07A8F380E0DF91CF9116
:102200001F910F91089581E0F9CF2091911722231A
:1022100061F02FB7F89430919117313049F43DB304
:102220003093550F3DB33DBB2FBF8CBD9DBD089571
:102230002093550FFACFCF93DF93EC018091540F89
:10224000811109C081E08093540F80914F1E9091BD
:10225000501E0E94051160E08C81DF91CF910C949B
:102260009A098F929F92AF92BF92FF920F931F9302
:10227000CF93DF93EC01F62E49015A018E8188231A
:1022800089F08F8198859C012F5F3F4F38872F837E
:102290008230924018F40E94E710F3CFCE010E94E2
:1022A000CC101E82CE010E941B118CE291E00E9494
:1022B000EA108F2D80640E94DD1008E110E0D50146
:1022C000C401002E04C0B695A795979587950A94EA
:1022D000D2F70E94DD1008501109083F8FEF180750
:1022E00071F785E9FF2021F028E087E8F2128FEFEF
:1022F0000E94DD1010E00E94E7108A8787FF04C06B
:102300001F3F11F01F5FF7CFDF91CF911F910F910A
:10231000FF90BF90AF909F908F900895AF92BF9223
:10232000CF92DF92EF92FF920F931F93CF93DF93A1
:10233000EC016901C801820F931F8130924050F572
:102340008E81882379F088819981AA81BB81841745
:102350009507A607B70731F48F819885C816D90667
:1023600008F042C0488359836A837B838B8583301E
:1023700039F089E0440F551F661F771F8A95D1F702
:102380009A01AB0161E1CE010E943111882389F0ED
:1023900083E08D83CE010E94CC1080E0DF91CF914D
:1023A0001F910F91FF90EF90DF90CF90BF90AF9073
:1023B00008950E94DE0A5B010E94E7108A878F3F22
:1023C00069F40E94DE0A6A197B096D327140A0F33C
:1023D0008FE08D83CE010E94CC10DCCF8E3F89F43C
:1023E00018861F8281E08E838F8198858C159D05CC
:1023F00050F40E94E7108F819885019698878F830B
:10240000F3CF8DE0E6CF6701E00EF11E0E94E710EA
:10241000F60181936F01EE15FF05C1F78F81988555
:10242000080F191F18870F838985882319F0011554
:102430001240A0F08E81882389F08F8198859C01BD
:102440002F5F3F4F38872F838230924018F40E94CD
:10245000E710F3CFCE010E94CC101E8281E09ECF08
:10246000EF92FF920F931F93CF93DF93EC017901CB
:1024700082E1411551056105710599F08B85833025
:1024800039F089E0440F551F661F771F8A95D1F7F1
:102490009A01AB0168E1CE010E943111882319F045
:1024A00084E08D8330C08EEF0E94DD1087018EEFB7
:1024B000F81AF80181918F010E94DD100E151F0599
:1024C000C1F78FEF0E94DD108FEF0E94DD100E9498
:1024D000E7108A878F71853089F488E592E00E9441
:1024E000EA108823A9F020E030E0A9016DE0CE01D8
:1024F0000E943111882371F084E1D3CF81E18D8373
:10250000CE010E94CC10CE010E94CC1080E00AC007
:1025100085E1C7CF0E94E7108111EECFCE010E9466
:10252000CC1081E0DF91CF911F910F91FF90EF9040
:102530000895CF93DF938091560F8823A9F1C0911E
:102540009217D091931740911D0150911E016091F7
:102550001F017091200124E937E1CE010E94301261
:10256000811104C080E0DF91CF9108954091570F11
:102570005091580F6091590F70915A0F41155105A4
:102580006105710579F024E937E1CE010E9430122E
:10259000882341F31092570F1092580F1092590F41
:1025A00010925A0F1092560F81E0DDCF8F929F92BA
:1025B000AF92BF92EF92FF920F931F93CF934B0175
:1025C0005C01C42F80911D0190911E01A0911F01FB
:1025D000B091200188159905AA05BB0549F10E9413
:1025E000991281110BC080E0CF911F910F91FF9044
:1025F000EF90BF90AF909F908F90089584E9E82E60
:1026000087E1F82E00E012E030E020E0B501A401FF
:1026100080919217909193170E948E11882319F33D
:1026200080921D0190921E01A0921F01B092200184
:102630004091560F4C2B4093560F81E0D5CFCF934E
:10264000DF93EC016E857F858889998941E00E943E
:10265000D612882351F08A8920E2829FC00111247A
:102660008C56984EDF91CF91089590E080E0FACF9C
:102670008F929F92AF92BF92CF92DF92EF92FF9292
:10268000CF9321E53EE1309393172093921788234F
:1026900009F46DC040E060E070E0CB010E94D6120A
:1026A00081110BC080E0CF91FF90EF90DF90CF9031
:1026B000BF90AF909F908F900895809152198F771F
:1026C00089F780915E1990915F19A0916019B0917E
:1026D000611984369105A105B10520F3C0905A19FE
:1026E000D0905B19E0905C19F0905D19C114D10491
:1026F000E104F104B9F240E0C701B6010E94D6122C
:10270000882381F280919F179091A01781159240A4
:1027100049F6A091A417AA2329F26091A2177091FB
:10272000A3176115710509F4BDCF2091A1172223CC
:1027300009F4B8CFA0936F1E2093611E90E080E053
:1027400030E0E1E0F0E0C82FAF01082E02C0440FF6
:10275000551F0A94E2F72417350769F041E0480F46
:1027600001968930910579F740936A1E9BCFC12C61
:10277000D12C7601C0CF80936A1E2091AA17309188
:10278000AB1750E040E02115310541F42091B81716
:102790003091B9174091BA175091BB172093621E20
:1027A0003093631E4093641E5093651E460157018B
:1027B000860E971EA11CB11C8092701E9092711EF5
:1027C000A092721EB092731EE091A517F091A61709
:1027D000F093761EE093751EB0E00E94EA62DC0181
:1027E000CB01880D991DAA1DBB1D8093771E909368
:1027F000781EA093791EB0937A1E25E0EE0FFF1F7E
:102800002A95E1F7E150FE4FEF2FFF27E6958E0F57
:102810009F1FA11DB11D80936B1E90936C1EA093F2
:102820006D1EB0936E1E8090A7179090A817B12CC4
:10283000A12C8114910441F48090B4179090B517A5
:10284000A090B617B090B717C81AD90AEA0AFB0ABF
:10285000C80CD91CEA1CFB1C04C0F694E794D7945E
:10286000C794CA95D2F7C092661ED092671EE092B6
:10287000681EF092691E85EFC8168FE0D806E10445
:10288000F10428F48CE08093741E81E00CCF80E189
:1028900025EFC2162FEFD206E104F104A0F38091D8
:1028A000C0179091C117A091C217B091C317809320
:1028B000771E9093781EA093791EB0937A1E80E2C3
:1028C000E2CF4F925F926F927F928F929F92AF92E0
:1028D000BF92CF92DF92EF92FF920F931F93CF930D
:1028E000DF93EC01423051056105710590F480E001
:1028F000DF91CF911F910F91FF90EF90DF90CF90DC
:10290000BF90AF909F908F907F906F905F904F900F
:10291000089589859A85AB85BC850196A11DB11D59
:1029200084179507A607B70710F3CB88DC88ED88D6
:10293000FE888F89803109F042C0BB27A72F962FD0
:10294000852F480159012A013B01C80ED91EEA1EF4
:10295000FB1E80911D0190911E01A0911F01B0915D
:102960002001C816D906EA06FB0699F58F89803141
:10297000C1F5B301A201552766277727440F551FDC
:102980004C56584EFA01918280828091560F816098
:102990008093560F8A89823080F08D819E81AF812D
:1029A000B8858C0D9D1DAE1DBF1D8093570F909354
:1029B000580FA093590FB0935A0F81E099CFDB01C4
:1029C000CA01E7E0B695A79597958795EA95D1F75F
:1029D000B8CF40E0C701B6010E94D6128111C6CF20
:1029E00086CFB301A2014F77552766277727440F7B
:1029F000551F440F551F4C56584EFA018082918244
:102A0000A282B382C2CF8F929F92AF92BF92CF9297
:102A1000DF92EF92FF920F931F93CF93DF93FC010E
:102A200081859285A385B4850196A11DB11D84176A
:102A30009507A607B70770F480E0DF91CF911F914B
:102A40000F91FF90EF90DF90CF90BF90AF909F904D
:102A50008F90089583889488A588B6888789803167
:102A600089F5BB27A72F962F852FE9016A017B01E6
:102A70008F01BC01CD01680D791D8A1D9B1D8090C1
:102A80001D0190901E01A0901F01B090200186169C
:102A90009706A806B90601F5F8018789803111F576
:102AA000DD24EE24FF24F601EE0FFF1FEC56F84E56
:102AB00080819181B0E0A0E088839983AA83BB8361
:102AC00081E0BBCFDB01CA01C7E0B695A79597951A
:102AD0008795CA95D1F7C9CF40E00E94D6128111DF
:102AE000DBCFAACFE894C7F8DD24EE24FF24F6015B
:102AF000EE0FFF1FEE0FFF1FEC56F84E8081918105
:102B0000A281B381BF70D8CF4F925F926F927F92B4
:102B1000AF92BF92CF92DF92EF92FF920F931F93EB
:102B2000CF93DF9300D000D0CDB7DEB78C014983BF
:102B30005A836B837C835901C12CD12C7601412CA3
:102B400082E0582E612C712C49815A816B817C81E5
:102B50009E012F5F3F4FC8010E940315882339F162
:102B6000F8018585A301920104C0220F331F441F81
:102B7000551F8A95D2F7DA01C901C80ED91EEA1E7F
:102B8000FB1E49815A816B817C818789803111F1DB
:102B900088EF9FEFAFEFBFE0481759076A077B0741
:102BA00098F2F501C082D182E282F38281E00F9037
:102BB0000F900F900F90DF91CF911F910F91FF9089
:102BC000EF90DF90CF90BF90AF907F906F905F902D
:102BD0004F90089588EF9FEFA0E0B0E0DDCFCF9356
:102BE000DF93FC012581222321F080E0DF91CF914A
:102BF0000895EC018091741E803159F582E085833F
:102C0000178A108E118E128E8091751E9091761EED
:102C1000B0E0A0E025E0880F991FAA1FBB1F2A95EE
:102C2000D1F7838B948BA58BB68B8DE59EE19C8F22
:102C30008B8F81E08C831E821F82188619861A86EC
:102C40001B861C861D861E861F86188A198A1A8A6C
:102C5000CDCF803251F683E085834091771E50912D
:102C6000781E6091791E70917A1E478B508F618F0C
:102C7000728F9F012D5E3F4F8DE59EE10E9484156E
:102C80008111D3CFB2CF8F929F92AF92BF92CF924A
:102C9000DF92EF92FF920F931F93CF93DF93EC019C
:102CA0008D8181110EC080E0DF91CF911F910F9136
:102CB000FF90EF90DF90CF90BF90AF909F908F905C
:102CC00008950B891C892D893E890417150726074D
:102CD000370748F34A015B01823031F48A869B86CC
:102CE000AC86BD8681E0E0CF81149104A104B104DB
:102CF00049F41E821F82188619861A861B861C8636
:102D00001D86F0CF0A851B852C853D85EB8DFC8DBE
:102D1000858590E00996B901A801415051096109E2
:102D20007109082E04C076956795579547950A94C2
:102D3000D2F775016401E1E0CE1AD108E108F1088B
:102D400004C0F694E794D794C7948A95D2F7C41632
:102D5000D506E606F70620F0012B022B032B11F512
:102D60008F89988DA98DBA8D8E839F83A887B98707
:102D70008E010A5F1F4FC114D104E104F10409F46C
:102D8000ADCF4E815F816885798598018B8D9C8D53
:102D90000E94031591E0C91AD108E108F1088111D8
:102DA000EACF81CFC41AD50AE60AF70AE1CF3F92EB
:102DB0004F925F926F927F928F929F92AF92BF924B
:102DC000CF92DF92EF92FF920F931F93CF93DF93F7
:102DD000CDB7DEB72C970FB6F894DEBF0FBECDBFD0
:102DE0005C01DC015B968D909C905C9716964D90F3
:102DF0005D906D907C9019974114510461047104A9
:102E000009F468C0BFEF4B1A5B0A6B0A7B0A312CCE
:102E1000F40181859285A385B4859C01AD012F5F66
:102E20003F4F4F4F5F4F29873A874B875C8773012E
:102E300062011D821E821F821886F401818592859F
:102E4000A385B4852D813E814F8158852817390788
:102E50004A075B0708F056C089859A85AB85BC8513
:102E60008C159D05AE05BF0550F482E0C82ED12C0F
:102E7000E12CF12C92E0492E512C612C712C9E01F9
:102E80002F5F3F4FB701A601C4010E94031588239D
:102E9000C9F189819A81AB81BC81892B8A2B8B2BCB
:102EA00009F1260137019FEF491A590A690A790A7F
:102EB0002D813E814F8158852F5F3F4F4F4F5F4F90
:102EC0002D833E834F8358873FEFC31AD30AE30A0B
:102ED000F30AB3CFF40140805180628073803324C1
:102EE000339496CFC414D504E604F70409F70FEF22
:102EF0001FEF2FEF3FE0B701A601C4010E9461144C
:102F0000811119C080E02C960FB6F894DEBF0FBE79
:102F1000CDBFDF91CF911F910F91FF90EF90DF9088
:102F2000CF90BF90AF909F908F907F906F905F9069
:102F30004F903F900895F5014681578160857185D6
:102F4000411551056105710539F097018601C401EC
:102F50000E9461148823B1F2D5011696CD92DD92BC
:102F6000ED92FC921997332051F0D701C6010196DA
:102F7000A11DB11DF40180839183A283B383F50168
:102F80008789908DA18DB28D892B8A2B8B2B39F45B
:102F9000C78AD08EE18EF28E84818068848381E03E
:102FA000B2CF2F923F924F925F926F927F928F9209
:102FB0009F92AF92BF92CF92DF92EF92FF920F93C8
:102FC0001F93CF93DF93EC015B012A018D81811167
:102FD00015C08FEF9FEFDF91CF911F910F91FF9061
:102FE000EF90DF90CF90BF90AF909F908F907F90A9
:102FF0006F905F904F903F902F9008958C8180FF4D
:10300000E8CF0B891C892D893E894A855B856C85B3
:103010007D85C201B0E0A0E068017901C41AD50A3B
:10302000E60AF70AC816D906EA06FB0618F42801CC
:10303000441A550A42011E0126E0220E311C811459
:10304000910409F4B3C04A855B856C857D856A016E
:1030500081E0D8228B8D9C8D8A019B01E9E0369519
:10306000279517950795EA95D1F7ED81E230E1F5BF
:10307000FC01628D738D848D958D600F711F821F91
:10308000931F612C22E0722E6C187D088614970421
:1030900008F434012C8126FD04C06114F2E07F069F
:1030A00071F400911D0110911E0120911F013091BA
:1030B0002001061717072807390709F053C040E019
:1030C0000E94D612882309F484CFC6018C56984EEC
:1030D000D5019C01260D371DFC012E173F0709F471
:1030E00060C041914D93F9CFFC0174807A947022B5
:1030F000C114D10471F471100CC0452B462B472B21
:1031000039F58F89988DA98DBA8D8E839F83A88775
:10311000B987EB8DFC8D6E817F81888599856250A2
:10312000710981099109258504C0660F771F881FE1
:10313000991F2A95D2F70685178520893189600F56
:10314000711F821F931F670D711D811D911D99CFE6
:103150004E815F816885798591010E9403158111F7
:10316000D8CF37CF750183019601AB01BC018091A7
:103170009217909193170E948E11882309F429CFFA
:10318000A60CB71C8A859B85AC85BD85860D971DD1
:10319000A11DB11D8A879B87AC87BD8786189708BC
:1031A0004ECF281B390BA20EB31EECCFC20113CF9A
:1031B000CF93DF93EC018D81882329F18C8187FFE8
:1031C0001EC0CE010E941F13FC01892BE1F08D81EE
:1031D000823040F48B899C89AD89BE89848F958F1C
:1031E000A68FB78F8F89988D938F828F8F89988DB7
:1031F000A98DBA8DB58BA48B8C818F778C83DF9151
:10320000CF910C94991280E0DF91CF910895CF93E4
:10321000DF93EC010E94D818882311F01D8281E011
:10322000DF91CF910895CF92DF92EF92FF921F939B
:10323000CF93DF938091801E882321F08BE79EE15E
:103240000E94071910925C1E10925A1E1092571E6F
:103250001092561E83E08093551E0E94DE0AEB01F9
:1032600061E08091551E0E94FA0961E08091551E2F
:103270000E949A090E944A1082E580934F1E81E0C5
:103280008093501E80914F1E9091501E0E940511F8
:103290001AE08FEF0E94DD101150D9F7809191173D
:1032A00081110E94BF1081E59EE10E941B1120E068
:1032B00030E0A90160E081E59EE10E943111182F04
:1032C00080935B1E813081F00E94DE0A6C1B7D0BB7
:1032D000613D774060F381E08093561E81E59EE179
:1032E0000E94CC1090E078C02AEA31E040E050E043
:1032F00068E081E59EE10E94311182FF2AC01093AF
:103300005C1E80915C1EC12CD12C7601823029F488
:10331000C12CD12CE12C80E4F82E20E030E0A90172
:1033200067E381E59EE10E943111A701960169E200
:1033300081E59EE10E94311180935B1E8823C1F0DC
:103340000E94DE0A6C1B7D0B613D774030F388E004
:10335000C3CF14E00E94E71080935B1E1150D1F799
:103360008A3A11F082E0B8CF82E080935C1EC9CF28
:1033700080915C1E8230D1F420E030E0A9016AE344
:1033800081E59EE10E943111882311F086E0A4CFEF
:103390000E94E710807C803C19F483E080935C1EDF
:1033A0000E94E7100E94E7100E94E71081E59EE16D
:1033B0000E94CC1080E580934F1E81E08093501EC8
:1033C0000E943813882389F08BE79EE10E94EF1555
:1033D00091E0882309F486CF892FDF91CF911F9147
:1033E000FF90EF90DF90CF90089580E00E94381317
:1033F000882309F477CFE8CF2F923F924F925F92C4
:103400006F927F928F929F92AF92BF92CF92DF92F4
:10341000EF92FF920F931F93CF93DF9300D000D0D2
:10342000CDB7DEB78C015B011A01DC0115968C91DA
:103430001597813009F0C8C014968C9181FFC4C0E3
:1034400082FDAEC06101D8011A964D915D916D91DA
:103450007C911D97C114D10409F429C15B968D910B
:103460009C915C97FC0174802FEF270D2A013B0192
:1034700039E076946794579447943A95D1F7722E31
:1034800074207A01F1E0FF22711020C0E114F104F0
:10349000E9F416964D915D916D917C9119974115C6
:1034A00051056105710509F098C057968D919D9160
:1034B0000D90BC91A02D0097A105B10509F0AFC0FA
:1034C000C8010E94D716882309F47EC080E092E0EC
:1034D0008E199F0946018C159D0508F44C01D801F1
:1034E0005B964D915C915C9716968D919D910D9098
:1034F000BC91A02D0297A109B109FA01258504C04C
:10350000880F991FAA1FBB1F2A95D2F7468557859A
:1035100060897189840F951FA61FB71F9C01AD019B
:10352000270D311D411D511D29013A01811432E041
:10353000930609F07AC080911D0190911E01A0911F
:103540001F01B091200184159505A605B70559F412
:103550008FEF9FEFDC0180931D0190931E01A093DC
:103560001F01B09320019501B301A2018091921730
:10357000909193170E943012882331F19EEFB91A6F
:10358000C818D908F80182859385A485B585880D6A
:10359000991DA11DB11D82879387A487B58753CF3D
:1035A000F801438954896589768982859385A48544
:1035B000B585481759076A077B0709F443CFC80147
:1035C0000E94431681113ECF81E090E0D80113960E
:1035D0009C938E93129780E007C09E012F5F3F4F10
:1035E0000E940315811102C090E077C089819A8101
:1035F000AB81BC81F801238D348DF901278948EF17
:103600005FEF60E070E0203121F048EF5FEF6FEF97
:103610007FE084179507A607B70708F051CFF80198
:1036200086839783A087B18751CFE114F10491F588
:10363000D8011A964D915D916D917C911D9753968D
:103640008D919D910D90BC91A02D481759076A0747
:103650007B0700F10E949912882309F4B5CF4092AC
:103660001D0150921E0160921F01709220018091F5
:10367000560F81608093560F97012C56384ED50116
:10368000C901880D991DF9018E179F0759F04D91B9
:103690004193FACF41E0C301B2010E94D6128111D9
:1036A000EBCF92CF821B930BA80EB91E69CFF80106
:1036B00083899489A589B68984179507A607B707D2
:1036C00038F48481438B548B658B768B806884833C
:1036D000F801848183FD18C0C1010F900F900F90F5
:1036E0000F90DF91CF911F910F91FF90EF90DF909E
:1036F000CF90BF90AF909F908F907F906F905F9092
:103700004F903F902F900895C8010E94D8188823A9
:1037100009F45ACFE1CFCF93DF931F92CDB7DEB735
:10372000698341E050E0BE016F5F7F4F0E94FC194A
:103730000F90DF91CF910895FC01DB0112968D91DE
:103740009C9113979383828384EC91E0918380838F
:1037500014968C911497848315968C911597858374
:1037600016964D915D916D917C9119974683578383
:10377000608771871A964D915D916D917C911D972F
:1037800042875387648775871E964D915D916D9131
:103790007C91519746875787608B718B52968C919D
:1037A0005297828B53964D915D916D917C91569776
:1037B000438B548B658B768B57964D915D916D91B4
:1037C0007C915A97478B508F618F728F5B968D914A
:1037D0009C91948F838F0895DC015996ED91FC9113
:1037E000309721F081E09581911101C080E008952A
:1037F000FC01818D928D009711F00C94D8180895DA
:10380000DC015996ED91FC913097B9F08389948948
:10381000A589B6894285538564857585841B950B7A
:10382000A60BB70B811520E89207A105B10538F06A
:103830008FEF9FE7A0E0B0E0089590E080E008956A
:10384000CF93DF93EC01E98DFA8D309749F481E055
:1038500090E09B838A8390E080E0DF91CF91089590
:1038600013821282898D9A8D0E94FC19E98DFA8D3E
:1038700022813381232B59F7F0CFCF93DF931F920F
:10388000CDB7DEB76983DC01ED91FC910280F38155
:10389000E02D41E050E0BE016F5F7F4F09950F9032
:1038A000DF91CF910895CF93DF931F92CDB7DEB70D
:1038B00041E050E0BE016F5F7F4F0E94D11701973A
:1038C00031F4898190E00F90DF91CF9108958FEFCF
:1038D0009FEFF9CF1F93CF93DF93FC012581223017
:1038E00030F490E080E0DF91CF911F910895EC01DA
:1038F000428553856485758585E0769567955795EE
:1039000047958A95D1F7142F1F70CF010E94531C41
:1039100097FDE7CF8A859B85AC85BD854F96A11D18
:10392000B11D8A879B87AC87BD87F0E21F9FC001CE
:1039300011248C56984ED7CFFC01818D928D009723
:1039400011F00C94531C8FEF9FEF08950F931F936A
:10395000CF93DF93EC01898D9A8D10E000E0009702
:1039600099F00E94531C8C010F3F100769F0898D5C
:103970009A8DFC01428553856485758541505109B6
:10398000610971090E944316C801DF91CF911F910F
:103990000F910895CF93DF93EC01FB018281938116
:1039A0009B838A8384819581A681B7818C839D8343
:1039B000AE83BF8380859185A285B38588879987EB
:1039C000AA87BB8780ED91E0998388838DE03C9640
:1039D000DE011C9601900D928A95E1F7FB01818D25
:1039E000928D9A8F898FDF91CF910895CF92DF9238
:1039F000EF92FF92CF93DF9360E08DE10E94FA098E
:103A00008DE10E942B0AB0E0A0E0BC01CD01660F61
:103A1000771F881F991F0E94966123E333E343E5D4
:103A200050E40E94F76120E030E048EC52E40E944C
:103A3000F76120E030E84FEF53E40E942F6320E06D
:103A400030EC4FE754E40E949B630E941464CB0166
:103A500064E670E00E945964EB01BC0190E080E0F4
:103A60000E94966120E030E048EC52E40E949B63A3
:103A70006B017C01BE0190E080E00E9496619B0199
:103A8000AC01C701B6010E942F63DF91CF91FF9077
:103A9000EF90DF90CF90089560E080E00E949A0957
:103AA00068EB7BE080E090E00E94650A61E080E0E6
:103AB0000C949A09CF93DF9380B7806880BF61E050
:103AC0008EE00E949A0962E370E080E090E00E943C
:103AD000650A88E10E942B0AEC0160E08EE00E94FA
:103AE0009A09BE01DD0F880B990B0E94986123EAA9
:103AF00036E043E55BE30E94F7612EEB3FE94AEADB
:103B00005FE30E94F761DF91CF910895CF93DF9338
:103B1000FB0122813381DC0113963C932E93129793
:103B2000448155816681778114964D935D936D93A1
:103B30007C931797408551856285738518964D93C0
:103B40005D936D937C931B971C96EF012C969C01C3
:103B5000275E3F4F49914D93A217B307D9F7218DA7
:103B6000328DFC01328F218FDF91CF910895CF9359
:103B7000DF9382E39CE10E94810884E392E20E9449
:103B8000A40B80B78F7780BFCAE7D0E088818F779A
:103B90008883F89485B7806885BF85B7806885BFBE
:103BA000789461E081E00E949A098CB58F7B8CBD8E
:103BB00061E085E00E94FA0960E085E00E949A09D0
:103BC00083B7817F846083BF83B7816083BF78942C
:103BD000EBE6F0E0808184608083E8E6F0E08081BD
:103BE0008160808383B7816083BF889583B78E7F30
:103BF00083BF88818068888360E081E00E949A09A1
:103C00008CB580648CBD40E051EE60E070E082E3F2
:103C10009CE10E94500768EE73E080E090E0DF9145
:103C2000CF910C94650A90E080E00895282F30E051
:103C300094E0359527959A95E1F7922F990F990F72
:103C4000291B220F820F089581E08093E81988E6EE
:103C50008093091A1092121A1092111A60E085E8E6
:103C600093E20E94011081E00E94B106811142C0DE
:103C700067E088E60E940E071092141A8093131AC8
:103C800085E893E20E94BA0F8F770E94161E8093F8
:103C90009D1985E893E20E94BA0F0E94161E809338
:103CA0009E1985E893E20E94BA0F8F7B0E94161E30
:103CB00080939F1985E893E20E94BA0F8093A01920
:103CC00085E893E20E94BA0F0E94161E8093A11904
:103CD00085E893E20E94BA0F8F770E94161E8093A8
:103CE000A21985E893E20E94BA0F0E94161E825E16
:103CF0008093A31980919D198093AD0E80919E1998
:103D000080938B1780919F1980938C178091A119B4
:103D10008093B00E8091A2198093B10E8091A31967
:103D200090E08E54984F9093AF0E8093AE0E62E366
:103D300070E080E090E00C94650ACF9391E090935E
:103D4000E81998E69093091A1092121A1092111A13
:103D5000682F85E893E20E94011081E00E94B1067D
:103D600081110DC061E088E60E940E071092141ABE
:103D70008093131A85E893E20E94BA0FC82F8C2F04
:103D8000CF9108951F93CF93DF9381E08093E8193B
:103D900088E68093091A1092121A1092111A60E0A4
:103DA00085E893E20E940110CDE9D9E128811AE06B
:103DB000822F612F0E944D64682F660F680F660F77
:103DC000620F85E893E20E9401102981822F612F02
:103DD0000E944D64682F660F680F660F620F85E8BA
:103DE00093E20E9401102A81822F612F0E944D646C
:103DF000682F660F680F660F620F85E893E20E94D6
:103E000001106B8185E893E20E9401102C81822FC2
:103E1000612F0E944D64682F660F680F660F620F56
:103E200085E893E20E9401102D81822F612F0E946C
:103E30004D64682F660F680F660F620F85E893E286
:103E40000E9401102E812E51822F612F0E944D64FD
:103E5000682F660F680F660F620F85E893E20E9475
:103E6000011081E00E94B106C82F8FE00E949D1EC4
:103E7000682F6F778FE00E9430108C2FDF91CF91E9
:103E80001F910895CF93DF93C82FD62F8EE00E9405
:103E90009D1E4C2F4150550B61E070E001C0660F34
:103EA0004A95EAF7DD2331F0682B8EE0DF91CF9160
:103EB0000C94301060956823F8CFCF93DF93C82F10
:103EC0008FE00E949D1EC150DD0B21E030E001C05B
:103ED000220FCA95EAF7982F922351F02095622F6E
:103EE00068238FE00E94301081E0DF91CF91089528
:103EF00080E0FBCFCF9382E10E949D1EC82F81E11D
:103F00000E949D1E6C2F782F77FF02C0615C7F4F4F
:103F100086E0759567958A95E1F7072E000C880B6A
:103F2000990B0E94986120E030E040E85EE30E9437
:103F3000F761CF9108958F929F92AF92BF92CF92E7
:103F4000DF92EF92FF920F931F93CF93DF9300D0F6
:103F500000D0CDB7DEB7FC018581813091F080E0E3
:103F60000F900F900F900F90DF91CF911F910F91B5
:103F7000FF90EF90DF90CF90BF90AF909F908F9089
:103F80000895848181FFEBCF83899489A589B689BF
:103F9000892B8A2B8B2B09F45EC07F0140E050E017
:103FA000BA01CF010E9443168823C9F2F701C38CDE
:103FB000D48C8788908CA18CB28C82E090E0A0E0B9
:103FC000B0E0F60180839183A283B3839E012F5FCB
:103FD0003F4FB501A401C6010E940315882309F4CF
:103FE000BECF00E010E09801B501A401C6010E9417
:103FF0006114882309F4B3CF89809A80AB80BC8098
:10400000F6018789803111F188EF9FEFAFEFBFE0B4
:1040100088169906AA06BB06C8F2F701178A108E01
:10402000118E128E138A148A158A168A84818068EA
:104030008483C7010E94D818882309F490CF40E0F8
:1040400050E0BA01C7010E9443168ACF88EF9FEF64
:10405000A0E0B0E0DDCF81E083CFCF93DF93EC0130
:104060000E949B1F882369F0CE010E941F130097B6
:1040700041F025EEFC0120831D82DF91CF910C944D
:10408000991280E0DF91CF910895CF92DF92EF9265
:10409000FF921F93CF93DF93EC0180E2689FF001C2
:1040A0001124EC56F84E9385917161F0842F82743F
:1040B00049F080E0DF91CF911F91FF90EF90DF906A
:1040C000CF900895142F6A8B80911D0190911E014D
:1040D000A0911F01B09120018E879F87A88BB98B7B
:1040E000C488D588F12CE12C7601DD24CC24CF8A3C
:1040F000D88EE98EFA8E828D938DB0E0A0E0AC016F
:10410000BD014C295D296E297F294F8B588F698FFE
:104110007A8F83858871B1F4848D958DA68DB78D46
:104120008B8B9C8BAD8BBE8B81E08D831F701C8332
:104130001E821F82188619861A861B861C861D867B
:1041400081E0B8CF803109F0B4CF9E012D5E3F4FA2
:104150008B8D9C8D0E948415882309F4AACF84E05E
:10416000E4CF2F923F924F925F926F927F928F9205
:104170009F92AF92BF92CF92DF92EF92FF920F93F6
:104180001F93CF93DF9300D000D000D0CDB7DEB720
:104190008C016B8349838091272022242394280E4D
:1041A00020922720312CC12CD12C7601D394772456
:1041B0007394730C80912A20831508F4EFC08091CA
:1041C000202090912120DC01ED91FC91008CF18D5B
:1041D000E02D622D09958091202090912120DC0115
:1041E000ED91FC91028CF38DE02D40E860E00995A3
:1041F00049816B81C8010E9499070E948E07B9818D
:10420000BF3FD1F481E026960FB6F894DEBF0FBE13
:10421000CDBFDF91CF911F910F91FF90EF90DF9075
:10422000CF90BF90AF909F908F907F906F905F9056
:104230004F903F902F90089521E0271598F480919A
:10424000232090912420A0912520B0912620019632
:10425000A11DB11D8093232090932420A09325209D
:10426000B09326200E94DE0A4B015C018091282039
:10427000909129209D838C830E94A960A7019601BB
:104280000E94CB629B01AC01AC81BD810E94EA62BD
:10429000A70196010E94CB62AC81BD812A0F3B1F12
:1042A000372C2901712C612C0E94DE0A68197909CA
:1042B0008A099B09641575058605970508F077CF6F
:1042C0008091202090912120DC01ED91FC910280D1
:1042D000F381E02D0995882339F380912020909176
:1042E0002120DC01ED91FC910480F581E02D50E06E
:1042F00040E070E060E009958823B1F280912020D1
:1043000090912120DC01ED91FC9100A0F1A1E02D24
:1043100009958E838091202090912120DC01ED91E0
:10432000FC91068CF78DE02D09958A8380912020E1
:1043300090912120DC01ED91FC9102A0F3A1E02DF0
:1043400009958C838091202090912120DC01ED91B2
:10435000FC9104A0F5A1E02D0995B9812E81B2133D
:104360000BC090912220AA819A1306C087FF04C037
:10437000BC812B1609F446CF87FD96CF2E81E22F04
:10438000F0E0E05EFF4D83859C8189138DCF422F45
:10439000692F80E290E20E94A90D86CF80E033CFA2
:1043A0000F931F93CF93DF934115510541F0FC010B
:1043B000048115810115110539F4FB011082DF918B
:1043C000CF911F910F910895415051094017510706
:1043D00008F48A01EB01FC0160817181A801CE0122
:1043E0000E949865C00FD11F1882E9CFFB01019090
:1043F0000020E9F73197AF01461B570BDC01ED9127
:10440000FC910280F381E02D09948F929F92AF92EC
:10441000BF92EF92FF920F931F93CF93DF93CDB78D
:10442000DEB7A1970FB6F894DEBF0FBECDBF7C01FB
:10443000FA01CB0119A2223008F42AE08E010F5DA7
:104440001F4F822E912CB12CA12CBF01A5019401EC
:104450000E94FD62F901CA016A300CF5605DD80165
:104460006E938D01232B242B252B79F790E080E090
:10447000109721F0BD01C7010E94F621A1960FB649
:10448000F894DEBF0FBECDBFDF91CF911F910F918A
:10449000FF90EF90BF90AF909F908F900895695CD0
:1044A000DECF482F50E070E060E02AE082E39CE13C
:1044B0000C940522CF92DF92EF92FF920F931F93FD
:1044C000CF93DF9377FF1DC06A017B01EC016DE2A2
:1044D0000E94DD078C0144275527BA014C195D095C
:1044E0006E097F092AE0CE010E940522800F911FEC
:1044F000DF91CF911F910F91FF90EF90DF90CF90C0
:1045000008952AE0DF91CF911F910F91FF90EF90D6
:10451000DF90CF900C9405226CEF74E00C94F621A0
:10452000CF93DF930E945122EC0182E39CE10E9431
:104530008C228C0F9D1FDF91CF910895CF92DF9237
:10454000EF92FF92CF930E94DE0A6B017C0128E973
:10455000C20E2AE3D21EE11CF11CC092D30ED092EF
:10456000D40EE092D50EF092D60E1092EC0E109270
:10457000EB0E1092D20E0E94DE0A6C157D058E05A0
:104580009F0548F582E39CE10E946608181619060B
:1045900094F764E670E080E090E00E94650A82E3B0
:1045A0009CE10E9466086C019093EC0E8093EB0EE8
:1045B000F12CCAE0E090D20EFC141D0464F482E3F6
:1045C0009CE10E944508EC9E800D1124805380934D
:1045D000D20EF394EFCF8091D20ECF91FF90EF9057
:1045E000DF90CF900C949022CF93DF93AB01BC016E
:1045F0002AE082E39CE10E940522EC0182E39CE137
:104600000E948C228C0F9D1FDF91CF9108950F93F4
:104610001F93CF93DF93EC01AB01770F660B770B02
:104620000E945A228C01CE010E948C22800F911F81
:10463000DF91CF911F910F910895CF92DF92EF926A
:10464000FF920F931F93CF93DF930E94DE0A6B01BB
:104650007C0128E9C20E2AE3D21EE11CF11CC092A3
:10466000D30ED092D40EE092D50EF092D60E1092C8
:10467000EC0E1092EB0E1092D10E1092D00E0E9402
:10468000DE0A6C157D058E059F0508F046C082E3A5
:104690009CE10E946608181619068CF764E670E023
:1046A00080E090E00E94650A82E39CE10E94660837
:1046B0008C019093EC0E8093EB0E81E08093CF0EF3
:1046C0003AE0C32ED090CF0ECD2DD0E0E090D00EAA
:1046D000F090D10E0C171D0704F182E39CE10E94BB
:1046E0004508CC0FDD1FCF53D14F998388838D3080
:1046F000910579F08A30910561F0C097CE9C9001C8
:10470000CF9C300D1124820F931F9093D10E809374
:10471000D00ED394D092CF0ED5CF6091D00E7091A1
:10472000D10E82E39CE10E9407236AE070E080E002
:1047300090E0DF91CF911F910F91FF90EF90DF906C
:10474000CF900C94650A0F931F93CF93DF93EC01E6
:104750000E94F6218C01CE010E948C22800F911FB5
:10476000DF91CF911F910F910895CF92DF92EF9239
:10477000FF920F931F93CF93DF930E94DE0A6B018A
:104780007C0128E9C20E2AE3D21EE11CF11C109222
:10479000EC0E1092EB0E0E94DE0A6C157D058E0564
:1047A0009F0568F582E39CE10E94660818161906C9
:1047B00094F764E670E080E090E00E94650A82E38E
:1047C0009CE10E946608EC019093EC0E8093EB0E46
:1047D000F12C0F2D10E0C017D10774F082E39CE19B
:1047E0000E9445088D3031F08A3021F0F801E952FD
:1047F000F14F8083F394EDCFC952D14F188267ED0A
:104800007EE082E39CE1DF91CF911F910F91FF90B9
:10481000EF90DF90CF900C94A3230F931F93CF932F
:10482000DF93EC01FB014481558160817181E88156
:10483000F9810280F381E02D09958C01CE010E945F
:104840008C22800F911FDF91CF911F910F910895BE
:104850000F931F93CF93DF93EC010E94E4078C0129
:10486000CE010E948C22800F911FDF91CF911F916A
:104870000F910895CF93DF93EC010E94270BBE01A7
:1048800080911E2090911F200E94282480E0DF91BB
:10489000CF910C94970ACF93DF93EB010E943A24B7
:1048A000882341F0BE0184E19FE10E94286121E05C
:1048B000892B09F020E0822FDF91CF910895CF93CB
:1048C000DF9390931F2080931E2061E08091121F40
:1048D0000E94FA0961E08091121F0E949A096AE021
:1048E00070E080E090E00E94650A60E08091121F15
:1048F0000E949A0964E670E080E090E00E94650AF8
:1049000061E08091121F0E949A09CEE0D0E0809170
:104910001E2090911F20DC01ED91FC910084F18517
:10492000E02D0995892B61F080911E2090911F2028
:10493000DC01ED91FC910284F385E02D0995E7CF30
:1049400060911C2070911D208EEE9CE00E944B24F3
:10495000811154C080911E2090911F20DC01ED91A7
:10496000FC910084F185E02D0995892B61F08091FF
:104970001E2090911F20DC01ED91FC910284F385B3
:10498000E02D0995E7CF68EE7CE08BEE9CE00E947D
:104990004B24811133C064EF71E080E090E00E940D
:1049A000650A219709F0B3CF60911C2070911D20FA
:1049B00085EE9CE00E944B2464E670E080E090E08D
:1049C0000E94650A60911C2070911D2082EE9CE07F
:1049D0000E944B2464E670E080E090E00E94650A4B
:1049E00060911C2070911D208FED9CE00E944B2453
:1049F00064E670E080E090E00E94650A60911C200F
:104A000070911D208AED9CE00E944B2464E670E0CA
:104A100080E090E00E94650A60911C2070911D204A
:104A200085ED9CE00E944B24C82F882309F448C0E0
:104A300060911C2070911D208BEC9CE00E944B2407
:104A400064E670E080E090E00E94650A0E94270B17
:104A50006CE172E080911E2090911F200E94A323A0
:104A600081E00E94970A60EC7CE084E19FE10E9473
:104A70003A61892B49F183E08093131F8091131FC2
:104A80008130B1F460E272E080911E2090911F208D
:104A90000E94A32381E00E94970A62E87CE084E1FF
:104AA0009FE10E943A61892B19F086E08093131FE1
:104AB00060911C2070911D208BE69CE00E944B248D
:104AC0008C2FDF91CF91089565EB7CE084E19FE12D
:104AD0000E943A61892B11F082E0CECF6AEA7CE035
:104AE00084E19FE10E943A61892B11F081E0C4CFFB
:104AF0006AE97CE084E19FE10E943A61892B11F030
:104B000084E0BACF6AE87CE084E19FE10E943A61E8
:104B1000892B09F4B3CF85E0AFCF61E471E082E384
:104B20009CE10E94E4078091A80E0E9451226EE34E
:104B300071E082E39CE10E94E4078091A80E81115C
:104B400006C06FE271E082E39CE10E94282480911C
:104B5000A80E813031F46DE171E082E39CE10E94A6
:104B600028248091A80E823031F462E071E082E363
:104B70009CE10E9428248091A80E833031F46BEFD1
:104B800070E082E39CE10E9428248091A80E84308A
:104B900031F463EF70E082E39CE10E94282480916D
:104BA000A80E853031F460EE70E082E39CE10E9453
:104BB000282464E670E080E090E00C94650A6115BA
:104BC000710511F00C94F62190E080E008950F93A8
:104BD0001F93CF93DF930E94241E00918917011128
:104BE00068C08091C00E8430A9F440918C17242FA6
:104BF00030E0C90102968231910509F45AC0423170
:104C000031F468E170E00E946D64C82F12C0C901E0
:104C10000496F7CF813071F4C0918C178C2F90E0FF
:104C20000196C23171F780918B17833208F442C02C
:104C3000C3E1D3E02AE08C2F622F0E944D64182F2D
:104C4000110F180F110F1C0F8D2F0E944D64682F2C
:104C5000660F680F660F6D0F8BE00E943010612F9A
:104C60008CE00E94301060E88DE00E94301080914E
:104C70002C018823A1F0011112C067E272E082E3E7
:104C80009CE10E94DF258C2F0E9451226FED76E07F
:104C900082E39CE10E94DF258D2F0E94902262E337
:104CA00070E080E090E0DF91CF911F910F910C9424
:104CB000650AC2E1D3E2BECFCF930E94241E2091A9
:104CC000B20EE22FF0E080918B178E0F9F2F911D77
:104CD0006CE370E00E946D64BF010E946D64269FCA
:104CE000202D11242F5F2093A60E822F6AE00E94B0
:104CF0004D64C82FCC0FC80FCC0FC20F60E087E007
:104D00000E9430106C2F88E00E94301060E889E02B
:104D10000E94301060E88AE00E94301080912C01DF
:104D2000882371F08091891781110AC069E372E0CC
:104D300082E39CE10E94DF258091A60E0E949022D2
:104D400062E370E080E090E0CF910C94650ADF921E
:104D5000EF92FF920F931F93CF93DF938B017A0112
:104D6000D22E0E943A24B80184E19FE10E943A6168
:104D7000EC01892BF9F0C8010E9431618C0F9D1F55
:104D8000DD2039F06CE270E00E948665009791F0BA
:104D900001960E940161F7019183808380E00E9467
:104DA000970A81E0DF91CF911F910F91FF90EF90D3
:104DB000DF90089580E0F6CFCF93DF9300D0CDB79A
:104DC000DEB721E0AE014F5F5F4F6AE57CE082E62F
:104DD0009CE00E94A726882331F089810F900F90D4
:104DE000DF91CF91089580E0F9CFCF93DF9300D08A
:104DF000CDB7DEB720E0AE014F5F5F4F6CE47CE0E3
:104E000083E59CE00E94A726882331F089810F90DA
:104E10000F90DF91CF91089580E0F9CFCF92DF928C
:104E2000EF92FF920F931F93CF93DF93EB017B01E0
:104E300026E0E20EF11C8B016C01C61AD70AC601EE
:104E4000800F911F0E94B562F80181938F01EE15CA
:104E5000FF05A9F7CE01DF91CF911F910F91FF9030
:104E6000EF90DF90CF900895CF93DF93EB010E94F6
:104E7000B5628883CE01DF91CF9108950C94B5621D
:104E8000CF92DF92EF92FF920F931F93CF93DF9316
:104E900000D01F92CDB7DEB761E08CE10E94FA0925
:104EA00080E390E00E94B562898381E390E00E94F4
:104EB000B5628A8389819A81019679F4BE016D5F1A
:104EC0007F4F80E190E00E9434278B81853309F485
:104ED00047C088EE93E09A83898361E08CE10E9469
:104EE0009A0984EE93E00197F1F70E94F61C6B019A
:104EF0007C0160E08CE10E949A0920E030E048ECFF
:104F000052E4C701B6010E94F7610E941464CB010C
:104F100064E670E00E9459648C01C701B6010E94EA
:104F2000146444E6469F9001479F300D1124200FE2
:104F3000311FA8EEB3E00E941F6329813A8150E03F
:104F400040E00E94FD62C9010F900F900F90DF9129
:104F5000CF911F910F91FF90EF90DF90CF90089528
:104F600084E690E0B8CF0E946B650F931F93CF93B8
:104F7000DF93EC0188819981009759F02A813B8168
:104F80002617370730F081E0DF91CF911F910F9105
:104F900008958B016F5F7F4F0E948A64009759F0DC
:104FA000998388831B830A832C813D81232B59F7A6
:104FB000FC011082E8CF80E0E7CFEF92FF920F93E1
:104FC0001F93CF93DF936115710541F480E0DF916A
:104FD000CF911F910F91FF90EF90089541155105CA
:104FE000B1F07B01EC010C811D81040F151FB8018C
:104FF0000E94B527882351F3288139818C819D81B6
:10500000B701820F931F0E9491651D830C8381E07D
:10501000DECFEF92FF920F931F93CF93DF9300D0D9
:1050200000D0CDB7DEB77C01862F4AE08E010F5F3E
:105030001F4FB80190E00E945461F80101900020D8
:10504000E9F73197AF01401B510BB801C7010E942E
:10505000DD270F900F900F900F90DF91CF911F9150
:105060000F91FF90EF900895CF93DF9300D0CDB7CD
:10507000DEB769831A8241E050E0BE016F5F7F4F67
:105080000E94DD270F900F90DF91CF910895FB01D3
:1050900001900020E9F73197AF01461B570B0C94A4
:1050A000DD27FB0144815581608171810C94DD27EE
:1050B000CF93DF93EC0188819981009711F00E94D2
:1050C000D45F198218821D821C821B821A82DF9192
:1050D000CF910895CF93DF93EC016115710539F4F9
:1050E000CE010E945828CE01DF91CF910895FB0197
:1050F00001900020E9F73197AF01461B570B0E9442
:10510000DD27882369F3EFCFCF93DF93EC01FB0119
:1051100044815581608171810E94DD27811103C026
:10512000CE010E945828CE01DF91CF910895EF92D1
:10513000FF920F931F93CF93DF93EC017B018A01C2
:10514000BA010E94B52781110BC0CE010E945828D8
:10515000CE01DF91CF911F910F91FF90EF900895B5
:105160001D830C83B701888199810E949165F0CFDE
:10517000FB0101900020E9F73197AF01461B570B67
:105180000C9497280F931F93CF93DF93CDB7DEB77F
:1051900029970FB6F894DEBF0FBECDBF8C01862FC6
:1051A000F8011182108213821282158214824AE061
:1051B000BE016F5F7F4F90E00E946761BE016F5F2D
:1051C0007F4FC8010E94B82829960FB6F894DEBF19
:1051D0000FBECDBFDF91CF911F910F9108950F9317
:1051E0001F93CF93DF93CDB7DEB762970FB6F894D6
:1051F000DEBF0FBECDBF8C01CB01F8011182108242
:1052000013821282158214824AE0BE016F5F7F4FC3
:105210000E945461BE016F5F7F4FC8010E94B82891
:1052200062960FB6F894DEBF0FBECDBFDF91CF916F
:105230001F910F9108950F931F93CF93DF93CDB7D5
:10524000DEB728970FB6F894DEBF0FBECDBF64E57A
:1052500072E085E593E20E94B8280E94241E4AE08D
:105260008E010F5F1F4FB8018091AE0E9091AF0E6F
:105270000E945461F80101900020E9F73197AF01D5
:10528000401B510BB80185E593E20E94DD276DE2DA
:1052900085E593E20E9434286091B10E85E593E2A2
:1052A0000E9409286DE285E593E20E94342860910E
:1052B000B00E85E593E20E9409286FE585E593E24B
:1052C0000E94342860918C1785E593E20E9409289A
:1052D0006AE385E593E20E94342810918B171A3017
:1052E00028F460E385E593E20E943428612F85E588
:1052F00093E20E9409286AE385E593E20E9434283C
:105300001091AD0E1A3028F460E385E593E20E9417
:105310003428612F85E593E20E9409286BE472E04E
:1053200085E593E20E94472862E370E080E090E028
:105330000E94650A28960FB6F894DEBF0FBECDBF57
:10534000DF91CF911F910F910895CF93DF93C0E02C
:10535000D6E08091BF0EC81758F4CD9FC00111242C
:1053600064E572E08F599C4D0E94B828CF5FF1CF61
:10537000DF91CF910895CF93DF93EC01FB01861766
:10538000970749F0608171816115710541F0448191
:1053900055810E949728CE01DF91CF9108950E94F8
:1053A0005828F9CFFC0111821082138212821582D3
:1053B00014820C94BB29FC01118210821382128288
:1053C00015821482FB0101900020E9F73197AF01AB
:1053D000461B570B0C949728FC01808191810C94FB
:1053E000D45FCF93DF93EC01898D9A8D009741F0C4
:1053F0000E940719898D9A8D0E94D45F1A8E198E8A
:10540000DF91CF910895CF92DF92EF92FF920F93A9
:105410001F93CF93DF93EC017B018A01E881F9812F
:105420000280F381E02D0995D82E882329F1E1141B
:10543000F104D1F001151105B9F0CFB6F8948A8DB9
:105440008350990BF8012081281719061CF08A8DCA
:1054500084508083F801408150E0BE01615E7F4F3F
:10546000C7010E947D65CFBE8FB7F894FE01E65E4E
:10547000FE4F10821A8E8FBF8D2DDF91CF911F911D
:105480000F91FF90EF90DF90CF900895EF92FF92F1
:105490000F931F93CF93DF9300D01F92CDB7DEB74A
:1054A0008C010E948B0DE82E81110CC0E12C8E2DF9
:1054B0000F900F900F90DF91CF911F910F91FF9060
:1054C000EF900895F801808D8A3009F47EC08B300A
:1054D00009F47DC022E0F22E823041F740E861E01D
:1054E000C8010E94610B6AE070E080E090E00E94D9
:1054F000650A61E0C8010E94A10C8038B9F660E03D
:10550000F801808D0E94FA09F801818D8F3F49F4DE
:1055100080919F0F843050F691E0980F90939F0FE9
:10552000818FF801818DE82FF0E0EE0FFF1FE0562C
:10553000F04F1183008362E87DE0882349F069E73A
:105540007DE0813029F0823009F0B0CF60E77DE066
:105550008F2D0E94BC0740E06EE0C8010E94610BE5
:1055600040E06FE0C8010E94610BC8010E94B90BC6
:1055700043E050E062EC7BE0CE0101960E941F61A7
:1055800049816DE1C8010E94610B4A816EE1C80149
:105590000E94610B4B8166E2C8010E94610B40E0F2
:1055A00060E2C8010E94610B48E061E2C8010E940C
:1055B000610B40E050EC64E674E4C8010E94CD0B3E
:1055C0006DE0C8010E94910B72CFF12C87CFFF24B0
:1055D000F39484CF3F924F925F926F927F928F921B
:1055E0009F92AF92BF92CF92DF92EF92FF920F9372
:1055F0001F93CF93DF93CDB7DEB72B970FB6F894F9
:10560000DEBF0FBECDBF7C01DC0115968C918111F0
:1056100015C0FE013196CE010C966F0130E2319338
:105620008E179F07E1F7DA0130E087E09D91B92EF0
:10563000992329F19E3239F48A3011F480E0BEC0FA
:1056400038E08AE0F3CFE2EBFBE04491442321F021
:1056500031969413FACFF2CF831780F34FED490FB1
:105660004E3560F74FE9490F4A3118F440EEB42E39
:10567000B90EF601E30FF11DB0823F5FD7CF8981EC
:105680008032E1F2322E8B01FB01838D948DD701A4
:105690005C969C938E935B97168217821086118678
:1056A0001286138614861586F80182859385A48553
:1056B000B585438954896589768984179507A60736
:1056C000B70790F525E0B695A795979587952A9504
:1056D000D1F7F82FFF70AF2EC8010E946A1C009707
:1056E00009F4ACCFDC012C91222341F0253E09F0D6
:1056F00057C0BB2029F0BB24B394D6CFB1100EC045
:10570000F701A28A40911D0150911E0160911F0175
:105710007091200146875787608B718BFC018081D7
:105720008111E9CFBB24B394832D8271823109F0BA
:1057300085CFBB2009F45AC0C7010E941F130097F0
:1057400009F47CCF20E2FC0111922A95E9F72BE0C5
:10575000F601DC0101900D922A95E1F721E238E291
:10576000DC0151963C932E93509740E058E01F96F1
:105770005C934E931E9753963C932E935297599653
:105780003C932E93589757965C934E9356970E944E
:105790009912882309F452CF432DF70162890BC077
:1057A0004BE050E0BC01C6010E947065892B09F0F6
:1057B0007BCF432D6A2DC7010E9445202B960FB643
:1057C000F894DEBF0FBECDBFDF91CF911F910F9137
:1057D000FF90EF90DF90CF90BF90AF909F908F9011
:1057E0007F906F905F904F903F900895D8011596ED
:1057F0008C91823009F422CFC8010E94D7168823E9
:1058000009F41CCFD8015B96ED91FC915C9716963C
:105810008D909D90AD90BC901997B2E08B1A910835
:10582000A108B108858504C0880C991CAA1CBB1C62
:105830008A95D2F786859785A089B189880E991EA9
:10584000AA1EBB1E848124013501480E511C611C17
:10585000711C84149504A604B70401F1E1E04E1A0A
:105860005108610871080E949912882309F4E6CE54
:10587000E4E9F7E1119284E999E18E179F07D1F7E6
:1058800040921D0150921E0160921F0170922001F2
:105890008091560F81608093560FDBCFD8015B96C5
:1058A000ED91FC91258580E092E0A0E0B0E004C09D
:1058B000880F991FAA1FBB1F2A95D2F7F8014389A9
:1058C000548965897689840F951FA61FB71F838B1E
:1058D000948BA58BB68BD70152961C9284E997E1E5
:1058E00031CF5F926F927F928F929F92AF92BF92D1
:1058F000CF92DF92EF92FF920F931F93CF93DF939C
:10590000CDB7DEB7C754D1090FB6F894DEBF0FBECE
:10591000CDBF5C013B0119A218A284EC91E09F8FDE
:105920008E8F1BA21C821B829A8389831E8210E0A9
:1059300000E06E018EE1C80ED11C8BE7E82E8EE1EF
:10594000F82EF501E00FF11F80818F3211F40F5F07
:105950001F4FD501A00FB11FFE01FB9690E080E024
:105960004F012D912F3249F0222339F00F5F1F4F45
:10597000019621938C309105A1F7880D991DFC01AA
:105980001082F501E00FF11F80818F3211F40F5F5B
:105990001F4FF501E00FF11F508041E0511040E032
:1059A00030E020E0B401C701F3010995811121C065
:1059B000FBE7EF16FEE1FF06C1F480E0C95BDF4FB5
:1059C0000FB6F894DEBF0FBECDBFDF91CF911F9110
:1059D0000F91FF90EF90DF90CF90BF90AF909F908E
:1059E0008F907F906F905F900895C7010E94071974
:1059F000E4CF552091F021E0A401B701C6010E9437
:105A0000EA2A982E8BE7E8168EE1F80681F0C701A6
:105A10000E940719911010C0D0CF9BE7E9169EE1B4
:105A2000F90619F0C7010E94071981E0C7CF992034
:105A300021F2FE0131967F019E2D8F2D7601C92E18
:105A4000D82E7FCFCF93DF93CDB7DEB76D970FB64C
:105A5000F894DEBF0FBECDBF442309F453C0AB01A1
:105A6000BC011C821B8284EC91E09A8389831E8294
:105A700021E0CE0101960E94EA2A882339F08E8126
:105A8000843071F090E081E0911101C080E06D966A
:105A90000FB6F894DEBF0FBECDBFDF91CF91089552
:105AA0001F82188619861A861B861C861D861E86EE
:105AB0004B855C856D857E858C899D89AE89BF8986
:105AC000481759076A077B0790F4CE0101960E9498
:105AD0006A1C0097B9F2FC012081222341F0253E87
