:100000000C94C6050C94CF500C94A4500C947950C9
:100010000C944E530C94F0050C94F0050C94F005E0
:100020000C94F0050C94F0050C94F0050C94F0057C
:100030000C94F0050C94FA500C94F0050C94F00517
:100040000C94F0050C94F0050C942F500C94F005D2
:100050000C94F94F0C94CF4F0C94F0050C94F005D0
:100060000C94F0050C94F0050C942A520C94F005B5
:100070000C94994F0C946F4F0C94F0050C94F00570
:100080000C94F0050C94F0050C94F0052B435245AC
:10009000473A200041542B435245473F0052656781
:1000A0006973746572656420726F616D696E670053
:1000B000556E6B6E6F776E0044656E696564004EB9
:1000C0006F74207265676973746572656420287344
:1000D0006561726368696E67290052656769737448
:1000E000657265642028686F6D6529004E6F742005
:1000F00072656769737465726564003A20004E65C5
:1001000074776F726B20737461747573200047503D
:100110005253206F6E004552524F523A2047505270
:1001200053206661696C656420746F207475726E0B
:10013000206F6E002B4353513A200041542B435300
:1001400051005475726E696E672063656C6C206D2A
:100150006F64756C65206F66662E2E2E00525353A9
:1001600049202864426D293A202D00456E7465723D
:100170002027782720617420616E792074696D656D
:1001800020746F2073746F70005475726E696E679F
:100190002063656C6C206D6F64756C65206F6E2ECE
:1001A0002E2E004552524F523A20496E76616C69AC
:1001B000642075706C6F616420696E74657276611D
:1001C0006C202865766572792031206F722034208A
:1001D000686F75727329004552524F523A20496E2A
:1001E00076616C696420696E74657276616C202832
:1001F00065766572792031352C2032302C203330F1
:100200002C206F72203630206D696E732900707259
:100210006F6A65637449443A20002020696E7075E6
:1002200074206D696E7574653A20002020696E70C7
:10023000757420686F75723A202020002020696E46
:1002400070757420796561723A2020200020206941
:100250006E707574206461793A202020200020207F
:10026000696E707574206D6F6E74683A202000534B
:10027000796E6368726F6E697A6174696F6E2066F9
:1002800061696C65642E20506C6561736520656ED4
:100290007465722074696D65206D616E75616C6C3A
:1002A0007920696E205554433A200053796E636873
:1002B000726F6E697A696E6720636C6F636B20740E
:1002C0006F204E49535420736572766572202E2E2E
:1002D0002E200044656661756C7420726164696FDC
:1002E00020494420616363657074656400526164F1
:1002F000696F204944207570646174656400456EBF
:10030000746572206E657720726164696F2049445C
:100310003A200020456E7465722027792720666F89
:1003200072207965732C20276E2720666F72206EED
:100330006F3A2000576F756C6420796F75206C6977
:100340006B6520746F206368616E676520746865F3
:1003500020726164696F2049442066726F6D207459
:1003600068652064656661756C742076616C75657E
:100370003F00456E7465722074686520486F6C6F2D
:100380006772616D20646576696365206B657920AD
:10039000666F72207468697320476174657761794C
:1003A0003A2000456E74657220746865207261643D
:1003B000696F20494420666F72204E6F646520008B
:1003C000293F00496E76616C6964206E756D6265C7
:1003D00072206F66206E6F6465732E2020486F77E1
:1003E000206D616E79206E6F646573206172652087
:1003F00061742074686973207369746520286D6165
:10040000782E00486F77206D616E79206E6F64657D
:100410007320617265206174207468697320736948
:10042000746520286D61782E2000496E76616C69B4
:100430006420696E74657276616C2E20506C656103
:10044000736520656E7465722031206F7220342EC2
:1004500000456E74657220223122206F7220223492
:10046000223A20005365742075706C6F61642069B6
:100470006E74657276616C20746F2031206F72200B
:100480003420686F7572732E00506C65617365203F
:10049000656E74657220616E6F74686572206D653B
:1004A00061737572656D656E7420696E74657276C0
:1004B000616C3A20004552524F523A206D61786982
:1004C0006D756D2038204E6F646573206174203126
:1004D00035206D696E75746520696E74657276611C
:1004E0006C00496E76616C696420696E7465727621
:1004F000616C2E20456E746572206D656173757236
:10050000656D656E7420696E74657276616C202805
:1005100031352C2032302C2033302C206F72203695
:1005200030293A2000456E746572206D65617375DF
:1005300072656D656E7420696E74657276616C208B
:100540002831352C2032302C2033302C206F722073
:100550003630206D696E73293A2000506C656173E6
:100560006520656E74657220616E6F7468657220B7
:100570006D6561737572656D656E7420696E746505
:100580007276616C3A20004552524F523A206D61AA
:1005900078696D756D2034204E6F646573206174C9
:1005A000203230206D696E75746520696E746572D5
:1005B00076616C00506C6561736520656E74657260
:1005C00020616E6F74686572206D65617375726508
:1005D0006D656E7420696E74657276616C3A200088
:1005E0004552524F523A206D6178696D756D2032D7
:1005F000204E6F646573206174203135206D696E03
:1006000075746520696E74657276616C00496E76EA
:10061000616C696420696E74657276616C2E204528
:100620006E746572206D6561737572656D656E744B
:1006300020696E74657276616C202831352C203209
:10064000302C2033302C206F72203630293A200095
:10065000456E746572206D6561737572656D656E4A
:100660007420696E74657276616C202831352C2097
:1006700032302C2033302C206F72203630206D69C0
:100680006E73293A200045786974002020456E7405
:10069000657220612050726F6A656374204944203E
:1006A00028757020746F20352063686172616374EF
:1006B0006572732C2065783A20505341293A200006
:1006C0004578697400457261736520534420636105
:1006D00072643A20005072696E7420646174612003
:1006E00066696C65733A20005361766564206669BB
:1006F0006C65733A20004552524F523A2075706C27
:100700006F616420696E74657276616C206D7573BB
:100710007420626520656E74657265642066697216
:1007200073742E2052657475726E696E6720746FD3
:10073000206D656E752E2E2E00456E7465722063D9
:100740006F6E66696775726174696F6E207374721B
:10075000696E673A2000456E7465722063686F6940
:1007600063653A20002020207820203C2D2D202079
:1007700045786974206D656E750020202065202005
:100780003C2D2D20204572617365206D6963726F69
:1007900053442063617264002020207020203C2D8F
:1007A0002D20205072696E74206E6F646520646124
:1007B000746120746F2073637265656E0020202061
:1007C0006620203C2D2D2020536565206C697374B4
:1007D000206F662073617665642066696C657300BE
:1007E0002020206D20203C2D2D2020536574206D6D
:1007F0006561737572656D656E7420696E7465727E
:1008000076616C002020207520203C2D2D20205367
:10081000657420646174612075706C6F616420740C
:100820006F20636C6F756420696E74657276616C9D
:10083000002020206E20203C2D2D2020456E746548
:1008400072204E6F646520726164696F2049447341
:10085000002020206420203C2D2D2020456E746532
:100860007220486F6C6F6772616D204465766963B2
:1008700065204B6579002020206720203C2D2D200D
:10088000204368616E6765204761746577617920F0
:10089000726164696F204944002020206920203C57
:1008A0002D2D2020456E7465722070726F6A65630D
:1008B00074204944002020206320203C2D2D20203E
:1008C00053657420636C6F636B20746F204E4953C3
:1008D000542074696D65002020203020203C2D2D8F
:1008E0002020456E74657220636F6E66696775724D
:1008F0006174696F6E20737472696E6700202020C6
:100900003120203C2D2D202043656C6C756C61726C
:10091000205369676E616C2053636F7574696E67ED
:10092000204D6F6465004D656E75206F7074696F42
:100930006E73200043757272656E74206261747408
:1009400065727920766F6C746167653A202000309B
:10095000003A0030003A002D002D00437572726598
:100960006E74206461746520262074696D653A2078
:100970000055706C6F616420696E74657276616C8D
:100980002028687273293A20004D6561737572657D
:100990006D656E7420496E74657276616C3A2000E4
:1009A000446174612066696C653A20004E65747715
:1009B0006F726B6564204E6F6465204944733A2002
:1009C0000023206F66206E6F6465733A20004465D3
:1009D00076696365206B65793A20004761746577B5
:1009E000617920526164696F2049443A2000507255
:1009F0006F6A6563742049443A20004C6F5261204D
:100A0000526164696F204672657120284D487A29C9
:100A10003A200053657269616C204E756D62657293
:100A20003A200056657273696F6E2000536F696CCF
:100A30002057617465722044617461204E6574773B
:100A40006F726B202D2043656C6C756C6172204752
:100A5000617465776179007C3C3E5E2B3D3F2F5B86
:100A60005D3B2C2A225C0072740092740048940052
:100A700078C40000002100240027002A0000002282
:100A800000250028002B000000200023002600295C
:100A9000000202020202020202040404040404042A
:100AA0000403030303030303030101010101010123
:100AB00001010204081020408001020408102040B7
:100AC0008001020408102040800102040810204028
:100AD00080000000010200090A0000000004030871
:100AE00007000000000000000000000000000000FF
:100AF0000041542B43504D533D22534D222C225341
:100B00004D222C22534D220053494D38303048009D
:100B100053494D434F4D5F53494D353332304500B6
:100B200053494D434F4D5F53494D353332304100AA
:100B300053494D383030205231330053494D38300D
:100B400038205231330053494D3830382052313437
:100B50000041542B435648553D3000415445300028
:100B60004154453000415400415400415400415427
:100B7000004154004154004F4B00464F4E41004647
:100B80004F4E416E657400006A53095911241FBE0F
:100B9000CFEFD0E4DEBFCDBF1CE0A0E0B1E0E2E2E9
:100BA000F5EC00E00BBF02C007900D92A43BB1072B
:100BB000D9F72EE1A4EBBCE001C01D92A43AB20724
:100BC000E1F715E0C5ECD5E004C02197FE010E94D5
:100BD000345DC43CD107C9F70E9440550C9484622F
:100BE0000C94000008950895982F2091201881E01A
:100BF000213208F043C080911F188111FCCF8091F1
:100C0000181832E030931F1890931E189FEF90939E
:100C1000F6171092F5172093F417A8EFB7E1E4ED5B
:100C2000F7E190E0291331C01092D3179091D317B8
:100C3000880F892B8093D31780911D18813049F537
:100C400010921D188091D3178093BB008091BC0037
:100C500083FDF8CF85EC8093BC0080911F18823013
:100C6000E1F38091F6178F3FB1F08091F617803253
:100C7000A1F08091F617803391F084E01092211852
:100C8000109220181092F71708953D9131939F5FAD
:100C9000C9CF85EEE0CF80E0F1CF82E0EFCF83E0F7
:100CA000EDCF90911F189111FCCF91E090931F18F8
:100CB00090931E182FEF2093F6171092F517260F1A
:100CC0002093F4179093D3179091D317880F892B03
:100CD0008093D31780911D188130F9F410921D185C
:100CE0008091D3178093BB008091BC0083FDF8CF27
:100CF00085EC8093BC0080911F188130E1F38091D6
:100D0000F517861710F46091F517A4EDB7E1E3EB42
:100D1000F7E180E0861303C0089585EEEACF9D9148
:100D200091938F5FF7CF0F931F93CF93DF93EC01D6
:100D30009A01AB01E889F98982E08083EC85FD8521
:100D400010820E851F8560E874E88EE190E00E94B5
:100D5000C45B215031094109510956954795379592
:100D60002795F8012083188EEC89FD8986E0808321
:100D7000EA89FB89808180618083EA89FB8980819F
:100D800088608083EA89FB89808180688083EA8922
:100D9000FB8980818F7D8083DF91CF911F910F919F
:100DA000089580912F1B9091301BDC01ED91FC91F7
:100DB0000484F585E02D0994FF920F931F93CF9340
:100DC000DF938C01F62ECFE2DBE188819981DC0193
:100DD000ED91FC910488F589E02D642F09958881B7
:100DE0009981DC01ED91FC910680F781E02D4F2D7A
:100DF000B801DF91CF911F910F91FF900994E82FD7
:100E0000F0E0EE0FFF1FE45DFE4F718360838130E1
:100E100049F0823071F080916900836080936900AD
:100E2000E89A0895809169008C6080936900E99A3E
:100E3000089580916900806380936900EA9A08951B
:100E4000EF92FF920F931F93CF93DF938C017B015F
:100E5000D0E0C0E0F701EC0FFD1F6491662361F064
:100E6000D801ED91FC910190F081E02DC801099528
:100E7000892B11F02196EECFCE01DF91CF911F91FA
:100E80000F91FF90EF900895AF92BF92CF92DF92B3
:100E9000EF92FF920F931F93CF93DF936C017B012F
:100EA0008B01040F151FEB015E01AE18BF08C017C0
:100EB000D10759F06991D601ED91FC910190F08133
:100EC000E02DC6010995892B79F7C501DF91CF91F6
:100ED0001F910F91FF90EF90DF90CF90BF90AF9058
:100EE0000895FC01538D448D252F30E0842F90E030
:100EF000821B930B541710F0CF9608950197089515
:100F0000FC01918D828D981761F0A28DAE0FBF2FDD
:100F1000B11D5D968C91928D9F5F9F73928F90E033
:100F200008958FEF9FEF0895FC01918D828D9817A2
:100F300031F0828DE80FF11D858D90E008958FEFDF
:100F40009FEF0895FC01918D228D892F90E0805CA8
:100F50009F4F821B91098F739927089584E298E12E
:100F60000E94A20721E0892B09F420E0822F089536
:100F700081EC98E10E94A20721E0892B09F420E08E
:100F8000822F0895CF93DF93EC01E881F9810680E9
:100F9000F781E02D0995EA89FB8980818F7E808326
:100FA000EA89FB898081877F8083EA89FB89808148
:100FB0008F778083EA89FB8980818F7D80838A8D0A
:100FC000898FDF91CF910895FC01A48DA80FB92FCF
:100FD000B11DA35ABF4F2C91848D90E001968F7361
:100FE0009927848FA689B7892C93A089B1898C9180
:100FF000837080648C93938D848D981306C00288CF
:10100000F389E02D80818F7D80830895EF92FF9298
:101010000F931F93CF93DF93EC0181E0888F9B8D1B
:101020008C8D98131AC0E889F989808185FF15C0D5
:101030009FB7F894EE89FF896083E889F9898081F8
:101040008370806480839FBF81E090E0DF91CF91C7
:101050001F910F91FF90EF900895F62E0B8D10E0E9
:101060000F5F1F4F0F731127E02E8C8D8E110CC058
:101070000FB607FCFACFE889F989808185FFF5CFA3
:10108000CE010E94E407F1CFEB8DEC0FFD2FF11D97
:10109000E35AFF4FF0829FB7F8940B8FEA89FB89E0
:1010A00080818062CFCF682F81EC98E10C94060894
:1010B000CF93DF93EC01888D8823B9F0AA89BB898F
:1010C000E889F9898C9185FD03C0808186FD0DC07A
:1010D0000FB607FCF7CF8C9185FFF2CF808185FF9B
:1010E000EDCFCE010E94E407E9CFDF91CF910895C3
:1010F00080E090E0892B29F00E94B80781110E94BE
:10110000000080E090E0892B29F00E94AE07811159
:101110000C940000089581508A3080F5E82FF0E0AB
:10112000EC56F74F0C94345DA808AC089E08A40850
:10113000BE08BE08AF08B508B908BF088091800096
:101140008F77809380000895809180008F7DF9CF04
:1011500084B58F7784BD089584B58F7DFBCF809152
:10116000B0008F778093B00008958091B0008F7D9C
:10117000F9CF809190008F778093900008958091AF
:1011800090008F7DF9CFCF93DF93282F30E0F901C6
:10119000EF52F54F8491F901EF54F54FD491F901D5
:1011A000EF56F54FC491CC23A1F081110E948B081A
:1011B000EC2FF0E0EE0FFF1FE957F54FA591B4912A
:1011C000EC91ED2381E090E009F480E0DF91CF9194
:1011D000089580E090E0FACF1F93CF93DF93282FFC
:1011E00030E0F901EF52F54F8491F901EF54F54FDA
:1011F000D491F901EF56F54FC491CC23A9F0162FE5
:1012000081110E948B08EC2FF0E0EE0FFF1FE358D6
:10121000F54FA591B4918FB7F894EC91111108C0D6
:10122000D095DE23DC938FBFDF91CF911F9108957E
:10123000DE2BF8CF1092231810922218109221184A
:101240001092201810921F1881E080931E1810929F
:101250001D1861E081E10E94EC0861E080E10E94DC
:10126000EC08E9EBF0E080818E7F808380818D7FC8
:10127000808380E28093B80085E48093BC0082EF95
:1012800095E090931C1880931B1883EF95E0909342
:101290001A18809319180895CF93DF9390E0FC01FA
:1012A000EF54F54F24918F56954FFC01849188237C
:1012B000D1F090E0880F991FFC01ED58F54FA591F2
:1012C000B491FC01E358F54FC591D49161110EC062
:1012D0009FB7F8948C91E22FE0958E238C93288110
:1012E000E223E8839FBFDF91CF9108958FB7F894F1
:1012F000EC91E22BEC938FBFF6CF883108F0885148
:101300008770806480937C0080917A0080648093F1
:101310007A0080917A0086FDFCCF809178009091D0
:10132000790008953FB7F8948091B70D9091B80D6A
:10133000A091B90DB091BA0D26B5A89B05C02F3F5D
:1013400019F00196A11DB11D3FBFBA2FA92F982FEB
:101350008827BC01CD01620F711D811D911D43E0E5
:10136000660F771F881F991F4A95D1F708958F92AE
:101370009F92AF92BF92CF92DF92EF92FF924B017A
:101380005C010E9492096B017C010E9492096C1918
:101390007D098E099F09683E734081059105A8F378
:1013A00021E0821A9108A108B10888EEC80E83E0F6
:1013B000D81EE11CF11C81149104A104B10429F789
:1013C000FF90EF90DF90CF90BF90AF909F908F9065
:1013D0000895FF920F931F93CF93DF93F82E04EF9E
:1013E00011E0D0E0C0E080912D1B90912E1BDC011C
:1013F000ED91FC910084F185E02D0995892BC9F0D0
:1014000080912D1B90912E1BDC01ED91FC910284AB
:10141000F385E02D09958D3031F38A3021F4209742
:1014200011F3FF2091F0FE01EB5EF54E86872196C9
:10143000DACF0150110949F061E070E080E090E0FE
:101440000E94B709CE3FD10570F2FE01EB5EF54E6A
:1014500016868C2FDF91CF911F910F91FF900895E9
:101460002FB7F8946091B30D7091B40D8091B50DC4
:101470009091B60D2FBF08950895885E9E4FDC01B0
:101480008D919C91DC01ED91FC910680F781E02D1E
:101490000994885E9E4FDC018D919C91DC01ED9159
:1014A000FC910484F585E02D0994885E9E4FDC0153
:1014B0008D919C91DC01ED91FC910284F385E02DEE
:1014C0000994885E9E4FDC018D919C91DC01ED9129
:1014D000FC910190F081E02D0994885E9E4FDC0123
:1014E0008D919C91DC01ED91FC910084F185E02DC2
:1014F0000994CF93DF9390E080E0EC0121968897E8
:10150000A8F485E19AE10E946D0A892B39F085E102
:101510009AE10E94550AD0E0C0E0F3CF61E070E0AC
:1015200080E090E00E94B709CE01E7CFDF91CF9134
:1015300008958BEF0895CF93DF93FC0122813381CF
:101540002230310569F0EC01638D818D0E94EC0839
:1015500060E0888D0E94EC0882E090E09B838A83A3
:10156000DF91CF910895FF920F931F93CF93DF9355
:10157000EC01162FF42E0FB7F89460E08F890E94CB
:10158000EC088D899E89612F6068DC01ED91FC91EA
:101590000190F081E02D0995182F8D899E89DC013D
:1015A000ED91FC910190F081E02D6F2D099561E0A6
:1015B0008F890E94EC080FBF812FDF91CF911F917F
:1015C0000F91FF9008950F931F93CF938C01C62F17
:1015D00044E06DE40E94B30A4BEF4C0F406869E0B1
:1015E000C801CF911F910F910C94B30ACF93DF9351
:1015F000FC01228133812130310549F0EC0140E0CA
:1016000061E00E94B30A81E090E09B838A8381E0DD
:10161000DF91CF910895CF93DF93FC012281338135
:101620002230310549F0EC0141E061E00E94B30A4B
:1016300082E090E09B838A83DF91CF910895CF92DF
:10164000DF92EF92FF92CF93DF93EC01CB01BA01CF
:1016500020E034E244E759E40E94BE5A20E034E23C
:1016600044E752E40E94625C0E94DB5C6B017C01F7
:10167000A7016627772766E0CE010E94B30A772785
:101680006F2D5E2D4D2D67E0CE010E94B30A4C2DCB
:1016900068E0CE010E94B30A81E0DF91CF91FF9014
:1016A000EF90DF90CF900895CF92DF92EF92FF926C
:1016B0000F931F93CF93DF934C3F08F067C0142F15
:1016C000072FF62EEC01E881F9810484F585E02DE1
:1016D0000995CE010E940B0B40E06DE0CE010E9407
:1016E000B30A4A8560E0CE010E94B30A4B8560E0F0
:1016F000CE010E94B30A4C8560E0CE010E94B30A7D
:101700004D8560E0CE010E94B30AEFB6F89460E028
:101710008F890E94EC088D899E89DC01ED91FC91F6
:101720000190F081E02D60E80995CF2CD02E012F9B
:10173000015068F08D899E89F60161916F01DC018D
:10174000ED91FC910190F081E02D0995F1CF61E0E0
:101750008F890E94EC08EFBE44E0410F62E2CE01A7
:101760000E94B30A8A819B81039771F043E061E094
:10177000CE010E94B30A40E460E4CE010E94B30AA5
:1017800083E090E09B838A8381E001C080E0DF9169
:10179000CF911F910F91FF90EF90DF90CF90089520
:1017A000CF93DF93FC012281338123303105C9F0CF
:1017B000EC0182819381049771F045E061E0CF01F3
:1017C0000E94B30A40E060E4CE010E94B30A84E0C4
:1017D00090E09B838A83C65EDE4F8881DF91CF9144
:1017E000089580E0FBCF0F931F93CF93DF93EC011D
:1017F000162F0FB7F89460E08F890E94EC088D894E
:101800009E89DC01ED91FC910190F081E02D612F2A
:1018100009958D899E89DC01ED91FC910190F08103
:10182000E02D60E00995182F61E08F890E94EC0897
:101830000FBF812FDF91CF911F910F910895DF92FC
:10184000EF92FF920F931F93CF93DF93EC0162E12E
:101850000E94F30B2A813B8124303105A1F4982F9B
:10186000907A89F08F8598890196988B8F874FEFB2
:1018700062E1CE01DF91CF911F910F91FF90EF9028
:10188000DF900C94B30A2A813B812430310511F496
:1018900086FD0DC02A813B812330310541F783FF4E
:1018A000E6CF8B899C8901969C8B8B8B67C063E10B
:1018B000CE010E94F30B082F60E1CE010E94F30BD2
:1018C000482F6DE0CE010E94B30ADFB6F89460E0C5
:1018D0008F890E94EC088D899E89DC01ED91FC9135
:1018E0000190F081E02D60E009957E01BBE1EB0EF7
:1018F000F11C102F115070F08D899E89DC01ED9143
:10190000FC910190F081E02D60E00995F701819351
:101910007F01F0CF61E08F890E94EC08DFBE0A8F63
:101920004FEF62E1CE010E94B30A6AE1CE010E944C
:10193000F30B89588E878A8DFE01E65EFE4F843058
:10194000C8F08B8D8E838C8D8F838D8D88878E8D47
:1019500089878D81811107C09E818C81981719F02C
:101960008E818F3F39F489899A8901969A8B898B68
:1019700081E080838081882309F479CFCE010E94A1
:101980000B0B75CF8091B00D9091B10D009711F0B8
:101990000C941F0C08958091AE0D9091AF0D00979F
:1019A00011F00C941F0C08958091AC0D9091AD0D29
:1019B000009711F00C941F0C0895CF93DF93EC0166
:1019C0008D899E89DC01ED91FC910680F781E02DE7
:1019D000099561E08F890E944C0961E08F890E941E
:1019E000EC0864E670E080E090E00E94B70981E0D6
:1019F000DF91CF910895FF920F931F93CF93DF93C1
:101A00001F92CDB7DEB7F42E0FE21BE1D8018D9106
:101A10009C91DC01ED91FC91008CF18DE02D0995FC
:101A2000F80180819181DC01ED91FC91028CF38DB4
:101A3000E02D40E060E8099581E289834F2D61E067
:101A4000CE0101960E94DC060E94D1060F90DF9124
:101A5000CF911F910F91FF900895CF92DF92EF9257
:101A6000FF920F931F93CF93DF93EC018B017A01C9
:101A7000690180912F1B9091301BDC01ED91FC914D
:101A80000280F381E02D099581110BC010E0812FB8
:101A9000DF91CF911F910F91FF90EF90DF90CF904A
:101AA000089580912F1B9091301BDC01ED91FC91EA
:101AB0000480F581E02DA701B8010995182F88232E
:101AC00029F380912F1B9091301BDC01ED91FC914B
:101AD00000A0F1A1E02D0995F82E80912F1B909187
:101AE000301BDC01ED91FC91068CF78DE02D099502
:101AF000E82E80912F1B9091301BDC01ED91FC9121
:101B000002A0F3A1E02D0995082F80912F1B909141
:101B1000301BDC01ED91FC9104A0F5A1E02D0995AD
:101B200087FDB4CFBFEFEB1629F04F2D602FCE010C
:101B30000E94FB0CCF0DD11D8B85801709F4A6CF19
:101B4000F601F0820B87A3CF9FB7F8948091AA0D7E
:101B5000882319F081508093AA0D8091AA0D8111DC
:101B600005C08CB58F7B8CBD1092A0159FBF0895CA
:101B70008CB58F778CBD08958CB580688CBD089529
:101B8000FC01738362830895FC0177836683089563
:101B9000FC01758364830895089580E00895FC0135
:101BA00081850895FC0180850895FC018781089551
:101BB000FC01868108954095FC0125854223642B14
:101BC00065870895FC0164870895FC016387089583
:101BD000FC0162870895FC0164830895FC0165831C
:101BE00008958F929F92AF92BF92CF92DF92EF9221
:101BF000FF92CF93DF93EC016B010E94300A4B01FF
:101C00005C01F12CE12C0E94300A681979098A09DB
:101C10009B096C157D058E059F0580F48A819B814B
:101C2000039789F381E0DF91CF91FF90EF90DF90F0
:101C3000CF90BF90AF909F908F90089580E0F3CFAA
:101C4000FC012281338123303105D1F381E00895F5
:101C50008F929F92AF92BF92CF92DF92EF92FF92BC
:101C6000CF93DF93EC016B010E94300A4B015C01C2
:101C7000F12CE12C0E94300A681979098A099B0924
:101C80006C157D058E059F05A0F4E881F981028021
:101C9000F381E02DCE010995882361F3DF91CF9187
:101CA000FF90EF90DF90CF90BF90AF909F908F907C
:101CB000089580E0F3CFCF93DF93EC01E881F981C1
:101CC0000280F381E02DCE0109958823B9F3DF91DD
:101CD000CF91089581E008951F93CF93DF93EC0196
:101CE000162F88819981DC01ED91FC910288F3899E
:101CF000E02D099588819981DC01ED91FC910688A0
:101D0000F789E02D612F09951A83DF91CF911F91FB
:101D10000895CF92DF92EF92FF920F931F93CF938C
:101D20006B017C01142F80912F1B9091301BDC01E3
:101D3000ED91FC910190F081E02D0995C82F882349
:101D400009F16091311B8FE29BE10E946C0E88E7E4
:101D500090E09093381B8093371B83E08093391B6E
:101D6000612F8FE29BE10E946C0E00912F1B10915E
:101D7000301BB701A601C8010E941F0B64E1C80116
:101D80000E94E30A8C2FCF911F910F91FF90EF904B
:101D9000DF90CF90089585ED8093BC008091BC00CA
:101DA00084FDFCCF10921F1808952091870D260FF7
:101DB0003327331F21323105ECF420911F18FC0129
:101DC00090E080E0243069F082E00895A091870DD2
:101DD0002191AC014959524FA40FB52FB11D2C933D
:101DE0000196861798F38091870D680F6093870D91
:101DF00080E0089581E008950895E091231880918E
:101E00002218E81730F4F0E0ED54F84E808190E0AD
:101E100008958FEF9FEF08959091231880912218D5
:101E20002FEF3FEF981748F4E92FF0E0ED54F84E0C
:101E3000208130E09F5F90932318C901089580911D
:101E4000221890912318891B990B0895CF92DF9245
:101E5000EF92FF920F931F93CF93DF937C01CB01FF
:101E60008A012091F717222389F0EB016B01C40E40
:101E7000D51ECC15DD0569F06991D701ED91FC9176
:101E80000190F081E02DC7010995F3CF642F0E94E6
:101E9000D50EC801DF91CF911F910F91FF90EF9068
:101EA000DF90CF900895CF93DF931F92CDB7DEB729
:101EB00069832091F7172223F9F02091201820320E
:101EC00058F021E030E0FC013383228390E080E091
:101ED0000F90DF91CF91089580912118E82FF0E0C5
:101EE000E850F84E998190838F5F809321188093FA
:101EF000201881E090E0ECCF61E0CE0101960E94D5
:101F0000D50EF7CFCF93C62F91E09093F71798E6B1
:101F1000909318181092211810922018682F84E9B5
:101F20009EE10E94530F6C2F84E99EE10E94530FA3
:101F300081E0CF910C94F405CF93CFB7F8948091C2
:101F4000AA0D811127C0E5E9FAE08491E5EBFAE0FA
:101F50009491E82FF0E0EE0FFF1FED58F54FA5919B
:101F6000B491EC91E92321F461E084E00E94EC0853
:101F700061E084E00E944C098CB580618CBD8CB519
:101F800080648CBD61E087E00E944C0961E085E0DF
:101F90000E944C098091AA0D8F5F8093AA0DCFBF3C
:101FA000CF910895FC01268137812115310591F1EA
:101FB0002130310559F12230310551F123303105FD
:101FC00049F52CE09CB5937F922B9CBD8481958133
:101FD000019711F58CB580628CBD82819381019748
:101FE00084309105E0F484599E4FFC0190818CB5BA
:101FF0008C7F292F2370822B8CBD8DB592FB992766
:1020000090F98E7F892B8DBD0C949C0F24E0DACF44
:1020100028E0D8CF20E0D6CF8CB58F7DDDCF95E0FE
:10202000E6CF9FB7F8942091A0158091610D2130E3
:1020300019F48DBB9FBF08958FBF089561E0FC0127
:1020400084810E94EC088091600D882339F0109201
:10205000600D8091A01581110C94111008958EBD12
:1020600000000DB407FEFDCF8EB50895862F0C94A9
:102070002F108FEF0C942F100F931F93CF93DF939C
:10208000EC010E94300A8B010E9439108F3F69F0E9
:102090000E94300A601B710B6C177D07A8F380E06B
:1020A000DF91CF911F910F91089581E0F9CF209199
:1020B000A015222361F02FB7F8943091A01531308C
:1020C00049F43DB33093610D3DB33DBB2FBF8CBD93
:1020D0009DBD08952093610DFACFCF93DF93EC015E
:1020E0008091600D811109C081E08093600D809125
:1020F0005E1990915F190E94571060E08C81DF910A
:10210000CF910C94EC088F929F92AF92BF92FF9266
:102110000F931F93CF93DF93EC01F62E49015A01E1
:102120008E81882389F08F8198859C012F5F3F4F96
:1021300038872F838230924018F40E943910F3CFF1
:10214000CE010E941E101E82CE010E946D108CE2F4
:1021500091E00E943C108F2D80640E942F1008E1B6
:1021600010E0D501C401002E04C0B695A79597953F
:1021700087950A94D2F70E942F1008501109083F42
:102180008FEF180771F785E9FF2021F028E087E835
:10219000F2128FEF0E942F1010E00E9439108A87F0
:1021A00087FF04C01F3F11F01F5FF7CFDF91CF9172
:1021B0001F910F91FF90BF90AF909F908F900895C7
:1021C000AF92BF92CF92DF92EF92FF920F931F9345
:1021D000CF93DF93EC016901C801820F931F813017
:1021E000924050F58E81882379F088819981AA8167
:1021F000BB8184179507A607B70731F48F819885AF
:10220000C816D90608F042C0488359836A837B8385
:102210008B85833039F089E0440F551F661F771F87
:102220008A95D1F79A01AB0161E1CE010E9483103A
:10223000882389F083E08D83CE010E941E1080E008
:10224000DF91CF911F910F91FF90EF90DF90CF9092
:10225000BF90AF9008950E94300A5B010E94391030
:102260008A878F3F69F40E94300A6A197B096D32B0
:102270007140A0F38FE08D83CE010E941E10DCCF51
:102280008E3F89F418861F8281E08E838F81988526
:102290008C159D0550F40E9439108F819885019608
:1022A00098878F83F3CF8DE0E6CF6701E00EF11EB4
:1022B0000E943910F60181936F01EE15FF05C1F7F9
:1022C0008F819885080F191F18870F8389858823A8
:1022D00019F001151240A0F08E81882389F08F81BA
:1022E00098859C012F5F3F4F38872F838230924023
:1022F00018F40E943910F3CFCE010E941E101E82E6
:1023000081E09ECFEF92FF920F931F93CF93DF93C5
:10231000EC01790182E1411551056105710599F0E2
:102320008B85833039F089E0440F551F661F771F76
:102330008A95D1F79A01AB0168E1CE010E94831022
:10234000882319F084E08D8330C08EEF0E942F1017
:1023500087018EEFF81AF80181918F010E942F10EA
:102360000E151F05C1F78FEF0E942F108FEF0E94EF
:102370002F100E9439108A878F71853089F488E583
:1023800092E00E943C108823A9F020E030E0A901EF
:102390006DE0CE010E948310882371F084E1D3CFD9
:1023A00081E18D83CE010E941E10CE010E941E107D
:1023B00080E00AC085E1C7CF0E9439108111EECFBD
:1023C000CE010E941E1081E0DF91CF911F910F91ED
:1023D000FF90EF900895CF93DF938091620D882353
:1023E000A9F1C091A115D091A21540911D01509164
:1023F0001E0160911F017091200123EA35E1CE0199
:102400000E948211811104C080E0DF91CF91089574
:102410004091630D5091640D6091650D7091660D52
:10242000411551056105710579F023EA35E1CE01C9
:102430000E948211882341F31092630D1092640D63
:102440001092650D1092660D1092620D81E0DDCF45
:102450008F929F92AF92BF92EF92FF920F931F9332
:10246000CF934B015C01C42F80911D0190911E01FF
:10247000A0911F01B091200188159905AA05BB05FF
:1024800049F10E94EB1181110BC080E0CF911F91A7
:102490000F91FF90EF90BF90AF909F908F90089515
:1024A00083EAE82E85E1F82E00E012E030E020E03B
:1024B000B501A4018091A1159091A2150E94E01090
:1024C000882319F380921D0190921E01A0921F0192
:1024D000B09220014091620D4C2B4093620D81E03F
:1024E000D5CFCF93DF93EC016E857F85888999895D
:1024F00041E00E942812882351F08A8920E2829FBD
:10250000C00111248D559A4EDF91CF91089590E02E
:1025100080E0FACF8F929F92AF92BF92CF92DF92DC
:10252000EF92FF92CF9320E639E13093A2152093EA
:10253000A115882309F46DC040E060E070E0CB0194
:102540000E94281281110BC080E0CF91FF90EF9084
:10255000DF90CF90BF90AF909F908F900895809123
:1025600061178F7789F780916D1790916E17A09101
:102570006F17B091701784369105A105B10520F34E
:10258000C0906917D0906A17E0906B17F0906C17A5
:10259000C114D104E104F104B9F240E0C701B6016D
:1025A0000E942812882381F28091AE159091AF1578
:1025B0008115924049F6A091B315AA2329F26091A2
:1025C000B1157091B2156115710509F4BDCF209157
:1025D000B015222309F4B8CFA0937E192093701967
:1025E00090E080E030E0E1E0F0E0C82FAF01082E9D
:1025F00002C0440F551F0A94E2F72417350769F00B
:1026000041E0480F01968930910579F74093791997
:102610009BCFC12CD12C7601C0CF8093791920910A
:10262000B9153091BA1550E040E02115310541F45B
:102630002091C7153091C8154091C9155091CA1500
:102640002093711930937219409373195093741930
:1026500046015701860E971EA11CB11C80927F195E
:1026600090928019A0928119B0928219E091B415CC
:10267000F091B515F0938519E0938419B0E00E94AC
:10268000B15BDC01CB01880D991DAA1DBB1D809398
:10269000861990938719A0938819B093891925E01A
:1026A000EE0FFF1F2A95E1F7E150FE4FEF2FFF27B6
:1026B000E6958E0F9F1FA11DB11D80937A199093EF
:1026C0007B19A0937C19B0937D198090B6159090DA
:1026D000B715B12CA12C8114910441F48090C3153D
:1026E0009090C415A090C515B090C615C81AD90A07
:1026F000EA0AFB0AC80CD91CEA1CFB1C04C0F694AD
:10270000E794D794C794CA95D2F7C0927519D0921E
:102710007619E0927719F092781985EFC8168FE054
:10272000D806E104F10428F48CE08093831981E059
:102730000CCF80E125EFC2162FEFD206E104F104A1
:10274000A0F38091CF159091D015A091D115B091A3
:10275000D2158093861990938719A0938819B09306
:10276000891980E2E2CF4F925F926F927F928F92AF
:102770009F92AF92BF92CF92DF92EF92FF920F9310
:102780001F93CF93DF93EC01423051056105710532
:1027900090F480E0DF91CF911F910F91FF90EF9027
:1027A000DF90CF90BF90AF909F908F907F906F9071
:1027B0005F904F90089589859A85AB85BC85019679
:1027C000A11DB11D84179507A607B70710F3CB8885
:1027D000DC88ED88FE888F89803109F042C0BB27F4
:1027E000A72F962F852F480159012A013B01C80EBA
:1027F000D91EEA1EFB1E80911D0190911E01A09121
:102800001F01B0912001C816D906EA06FB0699F50A
:102810008F898031C1F5B301A2015527662777273B
:10282000440F551F4D555A4EFA0191828082809176
:10283000620D81608093620D8A89823080F08D8183
:102840009E81AF81B8858C0D9D1DAE1DBF1D8093EF
:10285000630D9093640DA093650DB093660D81E0B8
:1028600099CFDB01CA01E7E0B695A79597958795C3
:10287000EA95D1F7B8CF40E0C701B6010E9428120F
:102880008111C6CF86CFB301A2014F7755276627A6
:102890007727440F551F440F551F4D555A4EFA01C7
:1028A00080829182A282B382C2CF8F929F92AF9296
:1028B000BF92CF92DF92EF92FF920F931F93CF932D
:1028C000DF93FC0181859285A385B4850196A11DC6
:1028D000B11D84179507A607B70770F480E0DF9154
:1028E000CF911F910F91FF90EF90DF90CF90BF900D
:1028F000AF909F908F90089583889488A588B6881C
:102900008789803189F5BB27A72F962F852FE9016D
:102910006A017B018F01BC01CD01680D791D8A1D03
:102920009B1D80901D0190901E01A0901F01B090F2
:10293000200186169706A806B90601F5F8018789D1
:10294000803111F5DD24EE24FF24F601EE0FFF1F88
:10295000ED55FA4E80819181B0E0A0E088839983A3
:10296000AA83BB8381E0BBCFDB01CA01C7E0B69578
:10297000A79597958795CA95D1F7C9CF40E00E9452
:1029800028128111DBCFAACFE894C7F8DD24EE240A
:10299000FF24F601EE0FFF1FEE0FFF1FED55FA4E5D
:1029A00080819181A281B381BF70D8CF4F925F9215
:1029B0006F927F92AF92BF92CF92DF92EF92FF928F
:1029C0000F931F93CF93DF9300D000D0CDB7DEB726
:1029D0008C0149835A836B837C835901C12CD12C90
:1029E0007601412C82E0582E612C712C49815A814C
:1029F0006B817C819E012F5F3F4FC8010E9455145F
:102A0000882339F1F8018585A301920104C0220FC2
:102A1000331F441F551F8A95D2F7DA01C901C80E2A
:102A2000D91EEA1EFB1E49815A816B817C818789F0
:102A3000803111F188EF9FEFAFEFBFE048175907E2
:102A40006A077B0798F2F501C082D182E282F382A5
:102A500081E00F900F900F900F90DF91CF911F9119
:102A60000F91FF90EF90DF90CF90BF90AF907F904D
:102A70006F905F904F90089588EF9FEFA0E0B0E0D7
:102A8000DDCFCF93DF93FC012581222321F080E06D
:102A9000DF91CF910895EC0180918319803159F530
:102AA00082E08583178A108E118E128E8091841990
:102AB00090918519B0E0A0E025E0880F991FAA1F2A
:102AC000BB1F2A95D1F7838B948BA58BB68B8CE695
:102AD00099E19C8F8B8F81E08C831E821F821886E8
:102AE00019861A861B861C861D861E861F86188AD6
:102AF000198A1A8ACDCF803251F683E085834091BE
:102B00008619509187196091881970918919478B9E
:102B1000508F618F728F9F012D5E3F4F8CE699E140
:102B20000E94D6148111D3CFB2CF8F929F92AF92D1
:102B3000BF92CF92DF92EF92FF920F931F93CF93AA
:102B4000DF93EC018D8181110EC080E0DF91CF9188
:102B50001F910F91FF90EF90DF90CF90BF90AF90BB
:102B60009F908F9008950B891C892D893E890417A9
:102B700015072607370748F34A015B01823031F415
:102B80008A869B86AC86BD8681E0E0CF8114910465
:102B9000A104B10449F41E821F82188619861A8680
:102BA0001B861C861D86F0CF0A851B852C853D85DE
:102BB000EB8DFC8D858590E00996B901A801415007
:102BC000510961097109082E04C0769567955795DA
:102BD00047950A94D2F775016401E1E0CE1AD10855
:102BE000E108F10804C0F694E794D794C7948A9555
:102BF000D2F7C416D506E606F70620F0012B022B05
:102C0000032B11F58F89988DA98DBA8D8E839F83A3
:102C1000A887B9878E010A5F1F4FC114D104E10450
:102C2000F10409F4ADCF4E815F8168857985980103
:102C30008B8D9C8D0E94551491E0C91AD108E10832
:102C4000F1088111EACF81CFC41AD50AE60AF70A42
:102C5000E1CF3F924F925F926F927F928F929F92BD
:102C6000AF92BF92CF92DF92EF92FF920F931F939A
:102C7000CF93DF93CDB7DEB72C970FB6F894DEBFB6
:102C80000FBECDBF5C01DC015B968D909C905C9784
:102C900016964D905D906D907C901997411451045B
:102CA0006104710409F468C0BFEF4B1A5B0A6B0A38
:102CB0007B0A312CF40181859285A385B4859C0122
:102CC000AD012F5F3F4F4F4F5F4F29873A874B87AB
:102CD0005C87730162011D821E821F821886F401C7
:102CE00081859285A385B4852D813E814F8158854C
:102CF000281739074A075B0708F056C089859A8567
:102D0000AB85BC858C159D05AE05BF0550F482E0F2
:102D1000C82ED12CE12CF12C92E0492E512C612CA3
:102D2000712C9E012F5F3F4FB701A601C4010E9485
:102D300055148823C9F189819A81AB81BC81892B83
:102D40008A2B8B2B09F1260137019FEF491A590A6B
:102D5000690A790A2D813E814F8158852F5F3F4F47
:102D60004F4F5F4F2D833E834F8358873FEFC31AEA
:102D7000D30AE30AF30AB3CFF401408051806280A2
:102D800073803324339496CFC414D504E604F70437
:102D900009F70FEF1FEF2FEF3FE0B701A601C401C6
:102DA0000E94B313811119C080E02C960FB6F894DD
:102DB000DEBF0FBECDBFDF91CF911F910F91FF906E
:102DC000EF90DF90CF90BF90AF909F908F907F90CB
:102DD0006F905F904F903F900895F5014681578125
:102DE00060857185411551056105710539F09701BF
:102DF0008601C4010E94B3138823B1F2D50116964F
:102E0000CD92DD92ED92FC921997332051F0D701CB
:102E1000C6010196A11DB11DF40180839183A28397
:102E2000B383F5018789908DA18DB28D892B8A2B73
:102E30008B2B39F4C78AD08EE18EF28E8481806824
:102E4000848381E0B2CF2F923F924F925F926F9234
:102E50007F928F929F92AF92BF92CF92DF92EF922A
:102E6000FF920F931F93CF93DF93EC015B012A0135
:102E70008D81811115C08FEF9FEFDF91CF911F9151
:102E80000F91FF90EF90DF90CF90BF90AF909F9009
:102E90008F907F906F905F904F903F902F9008950C
:102EA0008C8180FFE8CF0B891C892D893E894A855A
:102EB0005B856C857D85C201B0E0A0E06801790189
:102EC000C41AD50AE60AF70AC816D906EA06FB06A6
:102ED00018F42801441A550A42011E0126E0220E68
:102EE000311C8114910409F4B3C04A855B856C855B
:102EF0007D856A0181E0D8228B8D9C8D8A019B01A2
:102F0000E9E03695279517950795EA95D1F7ED8174
:102F1000E230E1F5FC01628D738D848D958D600F3B
:102F2000711F821F931F612C22E0722E6C187D0886
:102F30008614970408F434012C8126FD04C0611422
:102F4000F2E07F0671F400911D0110911E012091A5
:102F50001F0130912001061717072807390709F0CC
:102F600053C040E00E942812882309F484CFC60190
:102F70008D559A4ED5019C01260D371DFC012E174B
:102F80003F0709F460C041914D93F9CFFC01748073
:102F90007A947022C114D10471F471100CC0452BC5
:102FA000462B472B39F58F89988DA98DBA8D8E8345
:102FB0009F83A887B987EB8DFC8D6E817F81888583
:102FC00099856250710981099109258504C0660FB0
:102FD000771F881F991F2A95D2F7068517852089A4
:102FE0003189600F711F821F931F670D711D811D35
:102FF000911D99CF4E815F816885798591010E94ED
:1030000055148111D8CF37CF750183019601AB01DB
:10301000BC018091A1159091A2150E94E010882317
:1030200009F429CFA60CB71C8A859B85AC85BD8584
:10303000860D971DA11DB11D8A879B87AC87BD8713
:10304000861897084ECF281B390BA20EB31EECCF63
:10305000C20113CFCF93DF93EC018D81882329F137
:103060008C8187FF1EC0CE010E947112FC01892B4A
:10307000E1F08D81823040F48B899C89AD89BE89D5
:10308000848F958FA68FB78F8F89988D938F828F1E
:103090008F89988DA98DBA8DB58BA48B8C818F77F4
:1030A0008C83DF91CF910C94EB1180E0DF91CF9175
:1030B0000895CF93DF93EC010E942A18882311F022
:1030C0001D8281E0DF91CF910895CF92DF92EF9240
:1030D000FF921F93CF93DF9380918F19882321F064
:1030E0008AE899E10E94591810926B191092691997
:1030F000109266191092651983E0809364190E94FA
:10310000300AEB0161E0809164190E944C0961E092
:10311000809164190E94EC080E949C0F82E58093C4
:103120005E1981E080935F1980915E1990915F191B
:103130000E9457101AE08FEF0E942F101150D9F7FC
:103140008091A01581110E94111080E699E10E94E2
:103150006D1020E030E0A90160E080E699E10E9476
:103160008310182F80936A19813081F00E94300AF1
:103170006C1B7D0B613D774060F381E080936519A6
:1031800080E699E10E941E1090E078C02AEA31E0C2
:1031900040E050E068E080E699E10E94831082FF01
:1031A0002AC010936B1980916B19C12CD12C760118
:1031B000823029F4C12CD12CE12C80E4F82E20E0BF
:1031C00030E0A90167E380E699E10E948310A7013E
:1031D000960169E280E699E10E94831080936A1962
:1031E0008823C1F00E94300A6C1B7D0B613D774043
:1031F00030F388E0C3CF14E00E94391080936A193D
:103200001150D1F78A3A11F082E0B8CF82E0809372
:103210006B19C9CF80916B198230D1F420E030E076
:10322000A9016AE380E699E10E948310882311F0E6
:1032300086E0A4CF0E943910807C803C19F483E0A2
:1032400080936B190E9439100E9439100E94391026
:1032500080E699E10E941E1080E580935E1981E06E
:1032600080935F190E948A12882389F08AE899E185
:103270000E94411591E0882309F486CF892FDF91C0
:10328000CF911F91FF90EF90DF90CF90089580E055
:103290000E948A12882309F477CFE8CF2F923F92B9
:1032A0004F925F926F927F928F929F92AF92BF9256
:1032B000CF92DF92EF92FF920F931F93CF93DF9302
:1032C00000D000D0CDB7DEB78C015B011A01DC0164
:1032D00015968C911597813009F0C8C014968C9181
:1032E00081FFC4C082FDAEC06101D8011A964D9124
:1032F0005D916D917C911D97C114D10409F429C190
:103300005B968D919C915C97FC0174802FEF270D4B
:103310002A013B0139E076946794579447943A9593
:10332000D1F7722E74207A01F1E0FF22711020C0D3
:10333000E114F104E9F416964D915D916D917C9143
:103340001997411551056105710509F098C0579607
:103350008D919D910D90BC91A02D0097A105B10577
:1033600009F0AFC0C8010E942916882309F47EC065
:1033700080E092E08E199F0946018C159D0508F4A6
:103380004C01D8015B964D915C915C9716968D919E
:103390009D910D90BC91A02D0297A109B109FA0150
:1033A000258504C0880F991FAA1FBB1F2A95D2F735
:1033B0004685578560897189840F951FA61FB71FA1
:1033C0009C01AD01270D311D411D511D29013A01FF
:1033D000811432E0930609F07AC080911D0190912A
:1033E0001E01A0911F01B091200184159505A6052D
:1033F000B70559F48FEF9FEFDC0180931D01909387
:103400001E01A0931F01B09320019501B301A201F9
:103410008091A1159091A2150E948211882331F10B
:103420009EEFB91AC818D908F80182859385A4853A
:10343000B585880D991DA11DB11D82879387A4872D
:10344000B58753CFF8014389548965897689828588
:103450009385A485B585481759076A077B0709F442
:1034600043CFC8010E94951581113ECF81E090E0C5
:10347000D80113969C938E93129780E007C09E010B
:103480002F5F3F4F0E945514811102C090E077C01A
:1034900089819A81AB81BC81F801238D348DF9013A
:1034A000278948EF5FEF60E070E0203121F048EFBE
:1034B0005FEF6FEF7FE084179507A607B70708F067
:1034C00051CFF80186839783A087B18751CFE1144C
:1034D000F10491F5D8011A964D915D916D917C9111
:1034E0001D9753968D919D910D90BC91A02D4817DD
:1034F00059076A077B0700F10E94EB11882309F442
:10350000B5CF40921D0150921E0160921F01709232
:1035100020018091620D81608093620D97012D558D
:103520003A4ED501C901880D991DF9018E179F07E3
:1035300059F04D914193FACF41E0C301B2010E948D
:1035400028128111EBCF92CF821B930BA80EB91ECC
:1035500069CFF80183899489A589B689841795076D
:10356000A607B70738F48481438B548B658B768B21
:1035700080688483F801848183FD18C0C1010F90A5
:103580000F900F900F90DF91CF911F910F91FF90AF
:10359000EF90DF90CF90BF90AF909F908F907F90F3
:1035A0006F905F904F903F902F900895C8010E94B8
:1035B0002A18882309F45ACFE1CFCF93DF931F92C3
:1035C000CDB7DEB7698341E050E0BE016F5F7F4F4A
:1035D0000E944E190F90DF91CF910895FC01DB01FD
:1035E00012968D919C9113979383828382EC91E044
:1035F0009183808314968C911497848315968C9173
:103600001597858316964D915D916D917C911997D3
:1036100046835783608771871A964D915D916D91AE
:103620007C911D9742875387648775871E964D91BD
:103630005D916D917C91519746875787608B718B17
:1036400052968C915297828B53964D915D916D91CC
:103650007C915697438B548B658B768B57964D9107
:103660005D916D917C915A97478B508F618F728FCE
:103670005B968D919C91948F838F0895DC01599670
:10368000ED91FC91309721F081E09581911101C07D
:1036900080E00895FC01818D928D009711F00C94CB
:1036A0002A180895DC015996ED91FC913097B9F0F4
:1036B00083899489A589B6894285538564857585F2
:1036C000841B950BA60BB70B811520E89207A1056B
:1036D000B10538F08FEF9FE7A0E0B0E0089590E0EB
:1036E00080E00895CF93DF93EC01E98DFA8D309758
:1036F00049F481E090E09B838A8390E080E0DF9151
:10370000CF91089513821282898D9A8D0E944E194D
:10371000E98DFA8D22813381232B59F7F0CFCF9396
:10372000DF931F92CDB7DEB76983DC01ED91FC9189
:103730000280F381E02D41E050E0BE016F5F7F4FDA
:1037400009950F90DF91CF910895CF93DF931F924A
:10375000CDB7DEB741E050E0BE016F5F7F4F0E9402
:103760002317019731F4898190E00F90DF91CF9179
:1037700008958FEF9FEFF9CF1F93CF93DF93FC0155
:103780002581223030F490E080E0DF91CF911F91CD
:103790000895EC01428553856485758585E07695AD
:1037A0006795579547958A95D1F7142F1F70CF01CC
:1037B0000E94A51B97FDE7CF8A859B85AC85BD85BB
:1037C0004F96A11DB11D8A879B87AC87BD87F0E20C
:1037D0001F9FC00111248D559A4ED7CFFC01818DBA
:1037E000928D009711F00C94A51B8FEF9FEF089519
:1037F0000F931F93CF93DF93EC01898D9A8D10E087
:1038000000E0009799F00E94A51B8C010F3F100764
:1038100069F0898D9A8DFC01428553856485758593
:1038200041505109610971090E949515C801DF9144
:10383000CF911F910F910895CF93DF93EC01FB017E
:10384000828193819B838A8384819581A681B781BC
:103850008C839D83AE83BF8380859185A285B3854C
:1038600088879987AA87BB878EEC91E099838883A4
:103870008DE03C96DE011C9601900D928A95E1F751
:10388000FB01818D928D9A8F898FDF91CF91089561
:103890008DE10E947D09BC0190E080E00E945D5AAC
:1038A00023E333E343E550E40E94BE5A20E030E0D6
:1038B00040E85AE30E94BE5A9B01AC010E94F65BAD
:1038C0000895CF92DF92EF92FF9261E08CE10E9427
:1038D000EC0866E970E080E090E00E94B7090E9481
:1038E000481C6B017C0160E08CE10E94EC0820E048
:1038F00030E04AE754E4C701B6010E94BE5A0E9474
:10390000DB5CCB01FF90EF90DF90CF90089560E0FB
:1039100080E00E94EC0868EB7BE080E090E00E9491
:10392000B70961E080E00C94EC08CF93DF9380B797
:10393000806880BF61E08EE00E94EC0862E370E086
:1039400080E090E00E94B70988E10E947D09EC01C7
:1039500060E08EE00E94EC08BE01DD0F880B990B41
:103960000E945F5A23EA36E043E55BE30E94BE5AB9
:103970002EEB3FE94AEA5FE30E94BE5ADF91CF9106
:103980000895CF93DF93FB0122813381DC011396ED
:103990003C932E93129744815581668177811496CA
:1039A0004D935D936D937C93179740855185628508
:1039B000738518964D935D936D937C931B971C961E
:1039C000EF012C969C01275E3F4F49914D93A21722
:1039D000B307D9F7218D328DFC01328F218FDF9112
:1039E000CF910895CF93DF9381EC98E10E94C207B5
:1039F00083E49DE10E94F60A80B78F7780BFCAE713
:103A0000D0E088818F778883F89485B7806885BFF8
:103A100085B7806885BF789461E081E00E94EC08FA
:103A20008CB58F7B8CBD61E085E00E944C0960E025
:103A300085E00E94EC0883B7817F846083BF83B7F1
:103A4000816083BF7894EBE6F0E0808184608083BE
:103A5000E8E6F0E080818160808383B7816083BF86
:103A6000889583B78E7F83BF88818068888360E074
:103A700081E00E94EC088CB580648CBD40E051EE82
:103A800060E070E081EC98E10E94930668EE73E0DC
:103A900080E090E0DF91CF910C94B70990E080E056
:103AA0000895282F30E094E0359527959A95E1F711
:103AB000922F990F990F291B220F820F089581E0F1
:103AC0008093F71788E680931818109221181092A7
:103AD000201860E084E99EE10E94530F81E00E947B
:103AE000F405811142C067E088E60E9451061092F9
:103AF00023188093221884E99EE10E940C0F8F778F
:103B00000E94511D8093AC1784E99EE10E940C0F26
:103B10000E94511D8093AD1784E99EE10E940C0F15
:103B20008F7B0E94511D8093AE1784E99EE10E9415
:103B30000C0F8093AF1784E99EE10E940C0F0E9446
:103B4000511D8093B01784E99EE10E940C0F8F777E
:103B50000E94511D8093B11784E99EE10E940C0FD1
:103B60000E94511D825E8093B2178091AC178093A2
:103B70001D0D8091AD1780939A158091AE1780939B
:103B80009B158091B0178093200D8091B117809381
:103B9000210D8091B21790E08E54984F90931F0D95
:103BA00080931E0D62E370E080E090E00C94B70912
:103BB000CF9391E09093F71798E69093181810928E
:103BC000211810922018682F84E99EE10E94530F5B
:103BD00081E00E94F40581110DC061E088E60E9439
:103BE0005106109223188093221884E99EE10E94C6
:103BF0000C0FC82F8C2FCF9108951F93CF93DF9375
:103C000081E08093F71788E68093181810922118A6
:103C10001092201860E084E99EE10E94530FCCEAE4
:103C2000D7E128811AE0822F612F0E94145D682F4E
:103C3000660F680F660F620F84E99EE10E94530FC2
:103C40002981822F612F0E94145D682F660F680FF3
:103C5000660F620F84E99EE10E94530F2A81822F32
:103C6000612F0E94145D682F660F680F660F620F48
:103C700084E99EE10E94530F6B8184E99EE10E94DA
:103C8000530F2C81822F612F0E94145D682F660FC5
:103C9000680F660F620F84E99EE10E94530F2D8129
:103CA000822F612F0E94145D682F660F680F660FC8
:103CB000620F84E99EE10E94530F2E812E51822FC4
:103CC000612F0E94145D682F660F680F660F620FE8
:103CD00084E99EE10E94530F81E00E94F405C82F01
:103CE0008FE00E94D81D682F6F778FE00E94820FAF
:103CF0008C2FDF91CF911F910895CF93DF93C82F21
:103D00008FE00E94D81DC150DD0B21E030E001C0E2
:103D1000220FCA95EAF7982F922351F02095622F2F
:103D200068238FE00E94820F81E0DF91CF91089598
:103D300080E0FBCFCF9382E10E94D81DC82F81E1A4
:103D40000E94D81D6C2F782F77FF02C0615C7F4FD7
:103D500086E0759567958A95E1F7072E000C880B2C
:103D6000990B0E945F5A20E030E040E85EE30E9439
:103D7000BE5ACF9108958F929F92AF92BF92CF92E9
:103D8000DF92EF92FF920F931F93CF93DF9300D0B8
:103D900000D0CDB7DEB7FC018581813091F080E0A5
:103DA0000F900F900F900F90DF91CF911F910F9177
:103DB000FF90EF90DF90CF90BF90AF909F908F904B
:103DC0000895848181FFEBCF83899489A589B68981
:103DD000892B8A2B8B2B09F45EC07F0140E050E0D9
:103DE000BA01CF010E9495158823C9F2F701C38C4F
:103DF000D48C8788908CA18CB28C82E090E0A0E07B
:103E0000B0E0F60180839183A283B3839E012F5F8C
:103E10003F4FB501A401C6010E945514882309F43F
:103E2000BECF00E010E09801B501A401C6010E94D8
:103E3000B313882309F4B3CF89809A80AB80BC8008
:103E4000F6018789803111F188EF9FEFAFEFBFE076
:103E500088169906AA06BB06C8F2F701178A108EC3
:103E6000118E128E138A148A158A168A84818068AC
:103E70008483C7010E942A18882309F490CF40E068
:103E800050E0BA01C7010E9495158ACF88EF9FEFD5
:103E9000A0E0B0E0DDCF81E083CFCF93DF93EC01F2
:103EA0000E94BB1E882369F0CE010E947112009708
:103EB00041F025EEFC0120831D82DF91CF910C940F
:103EC000EB1180E0DF91CF910895CF92DF92EF92D6
:103ED000FF921F93CF93DF93EC0180E2689FF00184
:103EE0001124ED55FA4E9385917161F0842F8274FF
:103EF00049F080E0DF91CF911F91FF90EF90DF902C
:103F0000CF900895142F6A8B80911D0190911E010E
:103F1000A0911F01B09120018E879F87A88BB98B3C
:103F2000C488D588F12CE12C7601DD24CC24CF8AFD
:103F3000D88EE98EFA8E828D938DB0E0A0E0AC0130
:103F4000BD014C295D296E297F294F8B588F698FC0
:103F50007A8F83858871B1F4848D958DA68DB78D08
:103F60008B8B9C8BAD8BBE8B81E08D831F701C83F4
:103F70001E821F82188619861A861B861C861D863D
:103F800081E0B8CF803109F0B4CF9E012D5E3F4F64
:103F90008B8D9C8D0E94D614882309F4AACF84E0CF
:103FA000E4CF2F923F924F925F926F927F928F92C7
:103FB0009F92AF92BF92CF92DF92EF92FF920F93B8
:103FC0001F93CF93DF9300D000D000D0CDB7DEB7E2
:103FD0008C016B8349838091361B22242394280E05
:103FE0002092361B312CC12CD12C7601D39477240E
:103FF0007394730C8091391B831508F4EFC0809182
:104000002F1B9091301BDC01ED91FC91008CF18D08
:10401000E02D622D099580912F1B9091301BDC01C2
:10402000ED91FC91028CF38DE02D40E860E0099564
:1040300049816B81C8010E94DC060E94D106B981CA
:10404000BF3FD1F481E026960FB6F894DEBF0FBED5
:10405000CDBFDF91CF911F910F91FF90EF90DF9037
:10406000CF90BF90AF909F908F907F906F905F9018
:104070004F903F902F90089521E0271598F480915C
:10408000321B9091331BA091341BB091351B0196CC
:10409000A11DB11D8093321B9093331BA093341B41
:1040A000B093351B0E94300A4B015C018091371B95
:1040B0009091381B9D838C830E947059A7019601B3
:1040C0000E94925B9B01AC01AC81BD810E94B15BFF
:1040D000A70196010E94925BAC81BD812A0F3B1F14
:1040E000372C2901712C612C0E94300A681979093A
:1040F0008A099B09641575058605970508F077CF31
:1041000080912F1B9091301BDC01ED91FC9102807E
:10411000F381E02D0995882339F380912F1B90912D
:10412000301BDC01ED91FC910480F581E02D50E025
:1041300040E070E060E009958823B1F280912F1B88
:104140009091301BDC01ED91FC9100A0F1A1E02DDC
:1041500009958E8380912F1B9091301BDC01ED918E
:10416000FC91068CF78DE02D09958A8380912F1B99
:104170009091301BDC01ED91FC9102A0F3A1E02DA8
:1041800009958C8380912F1B9091301BDC01ED9160
:10419000FC9104A0F5A1E02D0995B9812E81B213FF
:1041A0000BC09091311BAA819A1306C087FF04C0EF
:1041B000BC812B1609F446CF87FD96CF2E81E22FC6
:1041C000F0E0E15DF44E83859C8189138DCF422F11
:1041D000692F8FE29BE10E94FB0C86CF80E033CFFA
:1041E0000F931F93CF93DF934115510541F0FC01CD
:1041F000048115810115110539F4FB011082DF914D
:10420000CF911F910F9108954150510940175107C7
:1042100008F48A01EB01FC0160817181A801CE01E3
:104220000E94845FC00FD11F1882E9CFFB0101906B
:104230000020E9F73197AF01461B570BDC01ED91E8
:10424000FC910280F381E02D09948F929F92AF92AE
:10425000BF920F931F93CF93DF93CDB7DEB7A19794
:104260000FB6F894DEBF0FBECDBF19A2423008F4DE
:104270004AE08E010F5D1F4F842E912CB12CA12C92
:10428000A50194010E94C45BE62FB901CA01EA307E
:1042900004F5E05DD801EE938D01232B242B252B13
:1042A00079F790E080E0109729F0BD0181EC98E16A
:1042B0000E941621A1960FB6F894DEBF0FBECDBFA7
:1042C000DF91CF911F910F91BF90AF909F908F90F2
:1042D0000895E95CDFCF682F70E090E080E04AE06D
:1042E0000C942521CF92DF92EF92FF92CF93DF9330
:1042F00097FF19C06B017C018DE20E945308EC010D
:1043000066277727CB016C197D098E099F094AE042
:104310000E9425218C0F9D1FDF91CF91FF90EF9080
:10432000DF90CF9008954AE0DF91CF91FF90EF901A
:10433000DF90CF900C942521009729F0BC0181ECEF
:1043400098E10C94162190E080E008956CE276E00C
:104350000C941621CF93DF930E946B21EC0181EC2A
:1043600098E10E94A6218C0F9D1FDF91CF910895A7
:10437000CF92DF92EF92FF92CF930E94300A6B01AF
:104380007C0128E9C20E2AE3D21EE11CF11CC09276
:10439000450DD092460DE092470DF092480D1092D7
:1043A000440D0E94300A6C157D058E059F0520F591
:1043B00081EC98E10E94A2071816190694F764E6AA
:1043C00070E080E090E00E94B70981EC98E10E94E3
:1043D000A207D82EF12CCAE0E090440DFD1460F441
:1043E00081EC98E10E948007EC9E800D112480539F
:1043F0008093440DF394F0CF8091440DCF91FF90C2
:10440000EF90DF90CF900C94AA211F93CF93DF936E
:104410000E945F1DD0912F0DD43009F048C040910B
:104420009B15242F30E0C90102968231910509F4D1
:1044300054C04231C9F568E170E00E94205DC82F88
:104440002AE08C2F622F0E94145D182F110F180F75
:10445000110F1C0F8D2F0E94145D682F660F680FBF
:10446000660F6D0F8BE00E94820F612F8CE00E941F
:10447000820F60E88DE00E94820F8AE192E00E9444
:104480009C218C2F0E946B2182EB97E00E949C2143
:104490008D2F0E94AA2162E370E080E090E0DF911E
:1044A000CF911F910C94B709C9010496C4CFD130A4
:1044B00039F6C0919B15C23139F480919A15833237
:1044C00068F0C3E1D4E0BCCF8C2F90E0019668E1A6
:1044D00070E00E94205DC82FF5CFC2E1D3E2B0CFDB
:1044E000CF930E945F1D2091220DE22FF0E080917A
:1044F0009A158E0F9F2F911D6CE370E00E94205D36
:10450000BF010E94205D269F202D11242F5F209344
:10451000B40C822F6AE00E94145DC82FCC0FC80F24
:10452000CC0FC20F60E087E00E94820F6C2F88E002
:104530000E94820F60E889E00E94820F60E88AE0B2
:104540000E94820F8CE292E00E949C218091B40C28
:104550000E94AA2162E370E080E090E0CF910C9489
:10456000B709CF93DF93BC01990F880B990B0E9479
:104570007221EC0181EC98E10E94A6218C0F9D1F15
:10458000DF91CF910895CF92DF92EF92FF920F9338
:104590001F93CF93DF930E94300A6B017C0128E9BF
:1045A000C20E2AE3D21EE11CF11CC092450DD0922E
:1045B000460DE092470DF092480D1092430D109277
:1045C000420D0E94300A6C157D058E059F0508F08E
:1045D00046C081EC98E10E94A207181619068CF7D4
:1045E00064E670E080E090E00E94B70981EC98E119
:1045F0000E94A2078C019093410D8093400D81E0B1
:1046000080933F0D3AE0C32ED0903F0DCD2DD0E0EA
:10461000E090420DF090430D0C171D0704F181EC62
:1046200098E10E948007CC0FDD1FCF5CD24F9983A9
:1046300088838D30910579F08A30910561F0C097BB
:10464000CE9C9001CF9C300D1124820F931F90932C
:10465000430D8093420DD394D0923F0DD5CF8091DE
:10466000420D9091430D0E94B1226AE070E080E01B
:1046700090E0DF91CF911F910F91FF90EF90DF902D
:10468000CF900C94B709CF93DF934AE00E94252185
:10469000EC0181EC98E10E94A6218C0F9D1FDF9117
:1046A000CF9108950F931F93CF93DF93EC010E9456
:1046B00016218C01CE010E94A621800F911FDF914F
:1046C000CF911F910F910895CF92DF92EF92FF92B9
:1046D0001F93CF93DF930E94300A6B017C0128E97E
:1046E000C20E2AE3D21EE11CF11C0E94300A6C1596
:1046F0007D058E059F0540F581EC98E10E94A2079B
:104700001816190694F764E670E080E090E00E94C5
:10471000B70981EC98E10E94A207EC01F82E10E0A5
:1047200081EC98E10E9480078D3039F08A3029F0C1
:10473000E12FF0E0E75BF24F80831F5FF11680F717
:10474000DD27C75BD24F188269E47DE081EC98E1F8
:10475000DF91CF911F91FF90EF90DF90CF900C945D
:1047600052230F931F93CF93DF93EC01FB014481FE
:10477000558160817181E881F9810280F381E02DAA
:1047800009958C01CE010E94A621800F911FDF9117
:10479000CF911F910F9108950F931F93CF93DF93A4
:1047A000EC010E9420078C01CE010E94A621800FFF
:1047B000911FDF91CF911F910F910895DF92EF929A
:1047C000FF920F931F93CF93DF938C017B01D42E25
:1047D000BC0183E29AE10E94015AEC01892BE1F0CD
:1047E000C8010E94F8598C0F9D1FDD2039F06CE242
:1047F00070E00E94725F009779F001960E94C8599C
:10480000F7019183808381E0DF91CF911F910F9118
:10481000FF90EF90DF90089580E0F6CF0F931F9305
:10482000CF93DF938C01EB010E94790AB80180914C
:104830002D1B90912E1B0E94CC2380E00E94E90941
:10484000882341F0BE0183E29AE10E94EF5921E002
:10485000892B09F020E0822FDF91CF911F910F91DA
:104860000895CF93DF9390932E1B80932D1B61E0CF
:104870008091211A0E944C0961E08091211A0E94C6
:10488000EC086AE070E080E090E00E94B70960E028
:104890008091211A0E94EC0864E670E080E090E0CC
:1048A0000E94B70961E08091211A0E94EC08CEE0D5
:1048B000D0E080912D1B90912E1BDC01ED91FC919D
:1048C0000084F185E02D0995892B61F080912D1BE5
:1048D00090912E1BDC01ED91FC910284F385E02D7B
:1048E0000995E7CF60912B1B70912C1B84E79BE00F
:1048F0000E940E24811154C080912D1B90912E1B7B
:10490000DC01ED91FC910084F185E02D0995892B66
:1049100061F080912D1B90912E1BDC01ED91FC919B
:104920000284F385E02D0995E7CF6EE67BE081E711
:104930009BE00E940E24811133C064EF71E080E09F
:1049400090E00E94B709219709F0B3CF60912B1B2B
:1049500070912C1B8BE69BE00E940E2464E670E0B5
:1049600080E090E00E94B70960912B1B70912C1B96
:1049700088E69BE00E940E2464E670E080E090E010
:104980000E94B70960912B1B70912C1B85E69BE060
:104990000E940E2464E670E080E090E00E94B70977
:1049A00060912B1B70912C1B80E69BE00E940E24D3
:1049B00064E670E080E090E00E94B70960912B1BF4
:1049C00070912C1B8BE59BE00E940E24C82F88233E
:1049D00009F448C060912B1B70912C1B81E59BE072
:1049E0000E940E2464E670E080E090E00E94B70927
:1049F0000E94790A6EE372E080912D1B90912E1B2C
:104A00000E94522381E00E94E90966E47BE083E290
:104A10009AE10E94015A892B49F183E08093221A7E
:104A20008091221A8130B1F462E472E080912D1BF2
:104A300090912E1B0E94522381E00E94E90968E0B8
:104A40007BE083E29AE10E94015A892B19F086E00B
:104A50008093221A60912B1B70912C1B81EF9AE09E
:104A60000E940E248C2FDF91CF9108956BE37BE0A1
:104A700083E29AE10E94015A892B11F082E0CECFA5
:104A800060E37BE083E29AE10E94015A892B11F0F6
:104A900081E0C4CF60E27BE083E29AE10E94015AA8
:104AA000892B11F084E0BACF60E17BE083E29AE1E8
:104AB0000E94015A892B09F4B3CF85E0AFCFCF9282
:104AC000DF92EF92FF920F931F93CF93DF93EB014F
:104AD0007B0126E0E20EF11C8B016C01C61AD70A9D
:104AE000C601800F911F0E947C5BF80181938F01AA
:104AF000EE15FF05A9F7CE01DF91CF911F910F9120
:104B0000FF90EF90DF90CF9008950C947C5B0E9413
:104B1000575F0F931F93CF93DF93EC0188819981A7
:104B2000009759F02A813B812617370730F081E042
:104B3000DF91CF911F910F9108958B016F5F7F4F90
:104B40000E94765E009759F0998388831B830A83BD
:104B50002C813D81232B59F7FC011082E8CF80E0A6
:104B6000E7CFEF92FF920F931F93CF93DF936115DF
:104B7000710541F480E0DF91CF911F910F91FF907B
:104B8000EF90089541155105B1F07B01EC010C81C6
:104B90001D81040F151FB8010E948925882351F338
:104BA000288139818C819D81B701820F931F0E94DA
:104BB0007D5F1D830C8381E0DECFEF92FF920F9328
:104BC0001F93CF93DF9300D000D0CDB7DEB77C0129
:104BD000862F4AE08E010F5F1F4FB80190E00E94C0
:104BE0001B5AF80101900020E9F73197AF01401BF3
:104BF000510BB801C7010E94B1250F900F900F9083
:104C00000F90DF91CF911F910F91FF90EF9008953A
:104C1000CF93DF9300D0CDB7DEB769831A8241E02E
:104C200050E0BE016F5F7F4F0E94B1250F900F9043
:104C3000DF91CF910895FB0101900020E9F73197B2
:104C4000AF01461B570B0C94B125FB0144815581E4
:104C5000608171810C94B125CF93DF93EC01888141
:104C60009981009711F00E94ED5D198218821D82D2
:104C70001C821B821A82DF91CF910895CF93DF931C
:104C8000EC016115710539F4CE010E942C26CE018C
:104C9000DF91CF910895FB0101900020E9F7319752
:104CA000AF01461B570B0E94B125882369F3EFCF54
:104CB000CF93DF93EC01FB014481558160817181C9
:104CC0000E94B125811103C0CE010E942C26CE0185
:104CD000DF91CF910895EF92FF920F931F93CF939F
:104CE000DF93EC017B018A01BA010E9489258111C1
:104CF0000BC0CE010E942C26CE01DF91CF911F91D7
:104D00000F91FF90EF9008951D830C83B701888168
:104D100099810E947D5FF0CFFB0101900020E9F7AF
:104D20003197AF01461B570B0C946B260F931F93C3
:104D3000CF93DF93CDB7DEB729970FB6F894DEBFD8
:104D40000FBECDBF8C01862FF80111821082138215
:104D50001282158214824AE0BE016F5F7F4F90E09D
:104D60000E942E5ABE016F5F7F4FC8010E948C26A1
:104D700029960FB6F894DEBF0FBECDBFDF91CF915D
:104D80001F910F9108950F931F93CF93DF93CDB78A
:104D9000DEB762970FB6F894DEBF0FBECDBF8C01B1
:104DA000CB01F801118210821382128215821482C3
:104DB0004AE0BE016F5F7F4F0E941B5ABE016F5FCA
:104DC0007F4FC8010E948C2662960FB6F894DEBF12
:104DD0000FBECDBFDF91CF911F910F910895CF935B
:104DE000DF93C0E0D6E08091300DC81758F4CD9F16
:104DF000C001112462E572E08059914E0E948C2618
:104E0000CF5FF1CFDF91CF9108950F931F93CF9391
:104E1000DF93CDB7DEB728970FB6F894DEBF0FBE8D
:104E2000CDBF62E572E084E69EE10E948C260E947E
:104E30005F1D4AE08E010F5F1F4FB80180911E0D6C
:104E400090911F0D0E941B5AF80101900020E9F774
:104E50003197AF01401B510BB80184E69EE10E94DF
:104E6000B1256DE284E69EE10E9408266091210D45
:104E700084E69EE10E94DD256DE284E69EE10E94CB
:104E800008266091200D84E69EE10E94DD256FE5F5
:104E900084E69EE10E94082660919B1584E69EE1CF
:104EA0000E94DD256AE384E69EE10E9408261091B7
:104EB0009A151A3028F460E384E69EE10E940826E1
:104EC000612F84E69EE10E94DD256AE384E69EE18F
:104ED0000E94082610911D0D1A3028F460E384E624
:104EE0009EE10E940826612F84E69EE10E94DD2556
:104EF00069E472E084E69EE10E941B2662E370E0B2
:104F000080E090E00E94B70928960FB6F894DEBFC3
:104F10000FBECDBFDF91CF911F910F910895CF9319
:104F2000DF93EC01FB018617970749F060817181DF
:104F30006115710541F0448155810E946B26CE01B7
:104F4000DF91CF9108950E942C26F9CFFC011182A8
:104F5000108213821282158214820C948F27FC0116
:104F6000118210821382128215821482FB01019039
:104F70000020E9F73197AF01461B570B0C946B26C5
:104F8000FC01808191810C94ED5DCF93DF93EC0166
:104F9000898D9A8D009741F00E945918898D9A8DBC
:104FA0000E94ED5D1A8E198EDF91CF910895CF92F8
:104FB000DF92EF92FF920F931F93CF93DF93EC0159
:104FC0007B018A01E881F9810280F381E02D099556
:104FD000D82E882329F1E114F104D1F0011511052F
:104FE000B9F0CFB6F8948A8D8350990BF8012081DF
:104FF000281719061CF08A8D84508083F80140819F
:1050000050E0BE01615E7F4FC7010E94695FCFBE65
:105010008FB7F894FE01E65EFE4F10821A8E8FBFA6
:105020008D2DDF91CF911F910F91FF90EF90DF9029
:10503000CF900895EF92FF920F931F93CF93DF933A
:1050400000D01F92CDB7DEB78C010E94DD0CE82E98
:1050500081110CC0E12C8E2D0F900F900F90DF91DD
:10506000CF911F910F91FF90EF900895F801808DDF
:105070008A3009F47EC08B3009F47DC022E0F22E24
:10508000823041F740E861E0C8010E94B30A6AE05B
:1050900070E080E090E00E94B70961E0C8010E94E2
:1050A000F30B8038B9F660E0F801808D0E944C095E
:1050B000F801818D8F3F49F48091AB0D843050F61B
:1050C00091E0980F9093AB0D818FF801818DE82FBF
:1050D000F0E0EE0FFF1FE455F24F1183008364ED03
:1050E0007CE0882349F06BEC7CE0813029F0823051
:1050F00009F0B0CF62EC7CE08F2D0E94FF0640E00B
:105100006EE0C8010E94B30A40E06FE0C8010E944F
:10511000B30AC8010E940B0B43E050E067E67AE057
:10512000CE0101960E94E65949816DE1C8010E94B5
:10513000B30A4A816EE1C8010E94B30A4B8166E25C
:10514000C8010E94B30A40E060E2C8010E94B30AAD
:1051500048E061E2C8010E94B30A40E050EC64E616
:1051600074E4C8010E941F0B6DE0C8010E94E30AAD
:1051700072CFF12C87CFFF24F39484CF3F924F92CC
:105180005F926F927F928F929F92AF92BF92CF92D7
:10519000DF92EF92FF920F931F93CF93DF93CDB7E0
:1051A000DEB72B970FB6F894DEBF0FBECDBF7C01E4
:1051B000DC0115968C91811115C0FE013196CE014E
:1051C0000C966F0130E231938E179F07E1F7DA01F9
:1051D00030E087E09D91B92E992329F19E3239F470
:1051E0008A3011F480E0BEC038E08AE0F3CFE7E512
:1051F000FAE04491442321F031969413FACFF2CF90
:10520000831780F34FED490F4E3560F74FE9490F93
:105210004A3118F440EEB42EB90EF601E30FF11D39
:10522000B0823F5FD7CF89818032E1F2322E8B018D
:10523000FB01838D948DD7015C969C938E935B9735
:10524000168217821086118612861386148615869A
:10525000F80182859385A485B5854389548965893C
:10526000768984179507A607B70790F525E0B695C8
:10527000A795979587952A95D1F7F82FFF70AF2EB0
:10528000C8010E94BC1B009709F4ACCFDC012C9133
:10529000222341F0253E09F057C0BB2029F0BB2452
:1052A000B394D6CFB1100EC0F701A28A40911D0170
:1052B00050911E0160911F01709120014687578710
:1052C000608B718BFC0180818111E9CFBB24B39489
:1052D000832D8271823109F085CFBB2009F45AC039
:1052E000C7010E947112009709F47CCF20E2FC01F3
:1052F00011922A95E9F72BE0F601DC0101900D925D
:105300002A95E1F721E238E2DC0151963C932E9395
:10531000509740E058E01F965C934E931E9753962B
:105320003C932E93529759963C932E9358975796A9
:105330005C934E9356970E94EB11882309F452CF49
:10534000432DF70162890BC04BE050E0BC01C60160
:105350000E945C5F892B09F07BCF432D6A2DC7012A
:105360000E94651F2B960FB6F894DEBF0FBECDBF0F
:10537000DF91CF911F910F91FF90EF90DF90CF9031
:10538000BF90AF909F908F907F906F905F904F9065
:105390003F900895D80115968C91823009F422CF60
:1053A000C8010E942916882309F41CCFD8015B96F6
:1053B000ED91FC915C9716968D909D90AD90BC9070
:1053C0001997B2E08B1A9108A108B108858504C02D
:1053D000880C991CAA1CBB1C8A95D2F786859785D8
:1053E000A089B189880E991EAA1EBB1E8481240142
:1053F0003501480E511C611C711C84149504A604CF
:10540000B70401F1E1E04E1A5108610871080E94E9
:10541000EB11882309F4E6CEE3EAF5E1119283EA81
:1054200097E18E179F07D1F740921D0150921E0100
:1054300060921F01709220018091620D81608093C3
:10544000620DDBCFD8015B96ED91FC91258580E064
:1054500092E0A0E0B0E004C0880F991FAA1FBB1F14
:105460002A95D2F7F8014389548965897689840F92
:10547000951FA61FB71F838B948BA58BB68BD70167
:1054800052961C9283EA95E131CF5F926F927F92A0
:105490008F929F92AF92BF92CF92DF92EF92FF9244
:1054A0000F931F93CF93DF93CDB7DEB7C754D109C6
:1054B0000FB6F894DEBF0FBECDBF5C013B0119A251
:1054C00018A282EC91E09F8F8E8F1BA21C821B8200
:1054D0009A8389831E8210E000E06E018EE1C80E7F
:1054E000D11C8AE8E82E89E1F82EF501E00FF11FC2
:1054F00080818F3211F40F5F1F4FD501A00FB11FB4
:10550000FE01FB9690E080E04F012D912F3249F093
:10551000222339F00F5F1F4F019621938C309105A4
:10552000A1F7880D991DFC011082F501E00FF11F14
:1055300080818F3211F40F5F1F4FF501E00FF11FD3
:10554000508041E0511040E030E020E0B401C7015C
:10555000F3010995811121C0FAE8EF16F9E1FF0680
:10556000C1F480E0C95BDF4F0FB6F894DEBF0FBE19
:10557000CDBFDF91CF911F910F91FF90EF90DF9002
:10558000CF90BF90AF909F908F907F906F905F90E3
:105590000895C7010E945918E4CF552091F021E0E9
:1055A000A401B701C6010E94BE28982E8AE8E81619
:1055B00089E1F80681F0C7010E945918911010C0C6
:1055C000D0CF9AE8E91699E1F90619F0C7010E94CF
:1055D000591881E0C7CF992021F2FE0131967F0151
:1055E0009E2D8F2D7601C92ED82E7FCFCF93DF939E
:1055F000CDB7DEB76D970FB6F894DEBF0FBECDBF47
:10560000442309F453C0AB01BC011C821B8282EC11
:1056100091E09A8389831E8221E0CE0101960E9447
:10562000BE28882339F08E81843071F090E081E0CB
:10563000911101C080E06D960FB6F894DEBF0FBEE9
:10564000CDBFDF91CF9108951F82188619861A86E3
:105650001B861C861D861E864B855C856D857E851A
:105660008C899D89AE89BF89481759076A077B07CE
:1056700090F4CE0101960E94BC1B0097B9F2FC0188
:105680002081222341F0253E39F32E3229F38385F0
:1056900083FDE2CFCBCF81E08E838D8182608D83CD
:1056A000CE0101960E944D1F982FC1CF81E0C3CF3C
:1056B000CF93DF93CDB7DEB76D970FB6F894DEBF0B
:1056C0000FBECDBF442311F1AB01BC011C821B8274
:1056D00082EC91E09A8389831E8222E0CE010196BA
:1056E0000E94BE28882321F0CE0101960E944D1F02
:1056F00091E0811101C090E0892F6D960FB6F8946A
:10570000DEBF0FBECDBFDF91CF91089591E0F4CF02
:105710001F93CF93DF93CDB7DEB76D970FB6F89495
:10572000DEBF0FBECDBFAB011C821B8222EC31E07D
:105730003A8329831E8221E0BC01CE0101960E949A
:10574000BE2811E081110CC010E0812F6D960FB6BC
:10575000F894DEBF0FBECDBFDF91CF911F910895AA
:10576000CE0101960E945918F0CFEF92FF920F934D
:105770001F93CF93DF93EC017B018A011B821A8276
:1057800088EE93E0A0E0B0E08C839D83AE83BF837E
:105790008EEC91E0998388838DE190E00E94515DC9
:1057A0009A8F898F009779F02DE1F701DC01019044
:1057B0000D922A95E1F74CE050E0B801CE010C962D
:1057C0000E94845F188EDF91CF911F910F91FF90FF
:1057D000EF900895CF92DF92EF92FF920F931F9375
:1057E000CF93DF93CDB7DEB7C756D1090FB6F89484
:1057F000DEBF0FBECDBF8C017B01DB015996CD9082
:10580000DC90F6018581823008F49AC08285938508
:10581000A485B5858F719927AA27BB27892B8A2B49
:105820008B2B09F08DC040E250E0BE016F5F7F4FCF
:10583000C6010E942317803209F082C08981882323
:1058400009F47EC0853E79F38E3269F38C8583FD41
:10585000EACF22961FAE1EAE229782EC91E09FAF58
:105860008EAF24961FAE2497BE016F5F7F4FE0E09E
:1058700080E02EE2DB019D91BD019032A1F08830E5
:1058800049F44BE550E04C0F5D1F4E0F511DDA01FE
:105890002C93EF5F4BE550E04C0F5D1F4E0F511DF9
:1058A000DA019C93EF5F8F5F8B3021F78BE590E0FF
:1058B0008C0F9D1F8E0F911DFC011082D7015996F0
:1058C0006D917C9121E0AE01455A5F4FCE01CE969D
:1058D0000E94BE28882309F1BE01625C7F4FCE0181
:1058E00081960E94EE1AAE01455A5F4FBE016F5D70
:1058F0007F4FC8010E94B52BC801C959DF4F0FB6B1
:10590000F894DEBF0FBECDBFDF91CF911F910F91F5
:10591000FF90EF90DF90CF900895F80113821282EC
:1059200088EE93E0A0E0B0E084839583A683B783FC
:105930008EEC91E091838083128E118E1486DCCFE1
:10594000D80113961C921E92129788EE93E0A0E065
:10595000B0E0F801E9CFAF92BF92CF92DF92EF9221
:10596000FF921F93CF93DF93CDB7DEB7E6970FB6C5
:10597000F894DEBF0FBECDBF6C017B015B018FEFE2
:10598000A81AB80AB601CE0101960E94EA2BCE01F0
:1059900001960E943E1B8823E9F110E01E151F04AA
:1059A0002CF489E00E9453081F5FF8CFCE010D96BA
:1059B0000E949C21EA8DFB8D3097D1F08581823049
:1059C000B8F06EE472E081EC98E10E945223BE01CF
:1059D0006F5F7F4FCE014C960E941C1CB501CE011B
:1059E0004C960E94AB2CCE0101960E94C527CACFCF
:1059F00080E592E00E949C21EA8DFB8D60E070E0E2
:105A0000CB01309721F063897489858996890E943A
:105A10004323E9CFE6960FB6F894DEBF0FBECDBFA5
:105A2000DF91CF911F91FF90EF90DF90CF90BF90CB
:105A3000AF9008952F923F924F925F926F927F9214
:105A40008F929F92AF92BF92CF92DF92EF92FF928E
:105A50000F931F93CF93DF93CDB7DEB7C756D1090E
:105A60000FB6F894DEBF0FBECDBF5C013B01A6961A
:105A70004FAFA69719A218A282EC91E09F8F8E8F4C
:105A80001BA21C821B829A8389831E824E018EE197
:105A9000880E911CC4010E94411563018E010F5FA5
:105AA0001F4F240118016FE270E0C6010E94725F6F
:105AB000009709F459C0F60120812F3271F4FFEFED
:105AC000CF1ADF0A902F812F8201492E582E942D54
:105AD000852D2801092F182FE6CF8C198D3008F05D
