:100000000C9453010C94A4080C9479080C944E0899
:100010000C94CF080C94CF080C94CF080C94CF0804
:100020000C947D010C947D010C947D010C947D0158
:100030000C947D010C947D010C947D010C947D0148
:100040000C947D010C947D010C9404080C947D01AA
:100050000C94CF070C94A5070C947D010C947D01A2
:100060000C947D010C947D010C947D010C947D0118
:100070000C947D010C947D010C947D010C947D0108
:100080000C947D010C947D010C947D0100002100F5
:10009000240027002A00000000010200090A0000D5
:1000A000000004030807000000000000000000003A
:1000B000000000000000093C2D2D2D2000092D2DF1
:1000C0002D3E200041542B49505245583D0041548B
:1000D0002B47534E00464F4E41206973204F4B0033
:1000E000436F756C646E27742066696E6420464F9A
:1000F0004E4100496E697469616C697A696E672066
:1001000040203438303020626175642E2E2E004637
:100110006972737420747279696E67203131353277
:100120003030206261756400464F4E412073657423
:100130002062617564726174650041542B43504DB7
:10014000533D22534D222C22534D222C22534D221B
:100150000053494D3830304800093C2D2D2D2000EA
:10016000092D2D2D3E200053494D434F4D5F5349DE
:100170004D35333230450053494D434F4D5F534960
:100180004D35333230410053494D383030205231F3
:10019000330053494D383038205231330053494DE4
:1001A0003830382052313400093C2D2D2D200009E3
:1001B0002D2D2D3E200041542B435648553D3000F7
:1001C00041544530004154453000415400415400F1
:1001D00041540054696D656F75743A204E6F2072FA
:1001E0006573706F6E736520746F2041542E2E2ED0
:1001F000206C617374206469746368206174746531
:100200006D70742E004154004154004154004174FB
:1002100074656D7074696E6720746F206F70656EA1
:1002200020636F6D6D2077697468204154730009F5
:100230003C2D2D2D2000092D2D2D3E20004F4B0053
:10024000464F4E4100464F4E416E657400000020FF
:100250000023002600290000002200250028002B92
:100260000002020202020202020404040404040462
:10027000040303030303030303010101010101015B
:1002800001010204081020408001020408102040EF
:100290008001020408102040800102040810204060
:1002A00080004B09830B11241FBECFEFD0E4DEBFCB
:1002B000CDBF24E0A8E5B1E001C01D92AB3FB2077D
:1002C000E1F711E0A0E0B1E0E0EAF8E100E00BBF07
:1002D00002C007900D92A835B107D9F711E0C2E529
:1002E000D1E004C02197FE010E94170CC135D1074F
:1002F000C9F70E94320A0C94430C0C940000EF9250
:10030000FF920F931F93CF93DF938C017B01D0E07B
:10031000C0E0F701EC0FFD1F6491662361F0D80186
:10032000ED91FC910190F081E02DC8010995892B98
:1003300011F02196EECFCE01DF91CF911F910F9159
:10034000FF90EF900895AF92BF92CF92DF92EF921D
:10035000FF920F931F93CF93DF936C017B018B016F
:10036000040F151FEB015E01AE18BF08C017D107BF
:1003700059F06991D601ED91FC910190F081E02D49
:10038000C6010995892B79F7C501DF91CF911F919E
:100390000F91FF90EF90DF90CF90BF90AF900895B6
:1003A000FC01538D448D252F30E0842F90E0821B7B
:1003B000930B541718F081509F4F0895019708959B
:1003C000FC01918D828D981759F0A28DAE0FBF2F31
:1003D000B11D5D968C91928D9F5F928F90E00895F4
:1003E0008FEF9FEF0895FC01918D828D981731F06A
:1003F000828DE80FF11D858D90E008958FEF9FEFBE
:100400000895FC01918D828D981B892F90E00895AD
:1004100085EA91E00E94010221E0892B09F420E0A5
:10042000822F0895FC01A48DA80FB92FB11DA35EE2
:10043000BE4F9C91848D8F5F848FA689B7899C93D2
:10044000A089B1898C91837080648C93938D848D05
:10045000981306C00288F389E02D80818F7D808308
:1004600008950F931F93CF93DF93EC0181E0888F62
:100470009B8D8C8D981318C0E889F989808185FF40
:1004800013C09FB7F894EE89FF896083E889F989E2
:1004900080818370806480839FBF81E090E0DF91E2
:1004A000CF911F910F910895062F1B8D1F5F8C8D8B
:1004B00081130CC00FB607FCFACFE889F989808157
:1004C00085FFF5CFCE010E941202F1CFEB8DEC0F2C
:1004D000FD2FF11DE35EFE4F00839FB7F8941B8F45
:1004E000EA89FB8980818062D6CFCF93DF93EC01CC
:1004F000888D8823B9F0AA89BB89E889F9898C910C
:1005000085FD03C0808186FD0DC00FB607FCF7CFC7
:100510008C9185FFF2CF808185FFEDCFCE010E94C7
:100520001202E9CFDF91CF91089580E090E0892B0E
:1005300029F00E94080281110E94000080E090E0F2
:10054000892B49F080E090E0892B29F00E9400007F
:1005500081110C940000089590E0FC01EA56FF4FD1
:100560002491FC01EF57FD4F34918F599D4FFC01B1
:100570008491882359F12223C1F021502A30A8F414
:10058000E22FF0E0EA53FD4F0C94170CEB02EF0260
:10059000D002E702D502D502F202F802FC02020301
:1005A000909180009F7790938000E82FF0E0EE0F0D
:1005B000FF1FE95AFD4FA591B4918FB7F894EC91C4
:1005C000611124C030953E233C938FBF08959091D4
:1005D00080009F7DE8CF94B59F7794BDE6CF94B51A
:1005E0009F7DFBCF9091B0009F779093B000DDCFBF
:1005F0009091B0009F7DF9CF909190009F7790935C
:100600009000D3CF909190009F7DF9CF3E2BDCCF0F
:10061000CF93DF9390E0FC01EF57FD4F24918F596A
:100620009D4FFC0184918823D1F090E0880F991FA1
:10063000FC01E457FF4FA591B491FC01E95AFD4F2D
:10064000C591D49161110EC09FB7F8948C91E22F9F
:10065000E0958E238C932881E223E8839FBFDF916E
:10066000CF9108958FB7F894EC91E22BEC938FBF64
:10067000F6CF3FB7F8948091A1019091A201A0918B
:10068000A301B091A40126B5A89B05C02F3F19F086
:100690000196A11DB11D3FBFBA2FA92F982F882702
:1006A000BC01CD01620F711D811D911D43E0660FDC
:1006B000771F881F991F4A95D1F708958F929F92AF
:1006C000AF92BF92CF92DF92EF92FF924B015C010B
:1006D0000E9439036B017C010E9439036C197D096A
:1006E0008E099F09683E734081059105A8F321E0BA
:1006F000821A9108A108B10888EEC80E83E0D81EBE
:10070000E11CF11C81149104A104B10429F7FF90AC
:10071000EF90DF90CF90BF90AF909F908F90089513
:10072000FF920F931F93CF93DF93F82E04EF11E006
:10073000D0E0C0E08091DA049091DB04DC01ED911F
:10074000FC910084F185E02D0995892BC9F08091F9
:10075000DA049091DB04DC01ED91FC910284F385D5
:10076000E02D09958D3031F38A3021F4209711F373
:10077000FF2091F0FE01EE53FC4F86872196DACFE1
:100780000150110949F061E070E080E090E00E94C2
:100790005E03CE3FD10570F2FE01EE53FC4F16868C
:1007A0008C2FDF91CF911F910F91FF9008950895A5
:1007B00020919A0130919B012817390771F490918B
:1007C000990180919801981741F0E0919901F0E02A
:1007D000E85AFE4F808190E008958FEF9FEF0895D3
:1007E0000895EF92FF920F931F93CF93DF93DC0155
:1007F0005C96ED90FC905D97E114F10479F481E052
:1008000090E013969C938E93129790E080E0DF9196
:10081000CF911F910F91FF90EF9008955196ED9118
:10082000FC91529750968C915097982F90950FB7B6
:100830005E962C915E97122F127021FD6095F894B0
:100840002081112319F1282B2083E7012197F1F74B
:1008500028E0462F50E0308160FF1AC0382B3083EB
:10086000E7012197F1F7BA0175956795215089F74E
:10087000112381F08081892380830FBF5C968D9145
:100880009C910197F1F781E090E0C1CF2923DCCF63
:100890003923E5CF9081892BEFCF20919A013091B8
:1008A0009B012817390771F48091980120919901D3
:1008B00090E0805C9F4F821B910960E470E00E9491
:1008C000C20B089590E080E0089520919A01309144
:1008D0009B0128173907B9F49091990180919801EB
:1008E000981789F0E0919901F0E0E85AFE4F808175
:1008F0002091990130E02F5F3F4F2F7333272093D2
:10090000990190E008958FEF9FEF0895CF93DF93C3
:10091000EC019A01AB011B8E1A8E198E188E1F8A5C
:100920001E8A60E874E88EE190E00E94F80BC9012D
:1009300003979D8F8C8F6C85603208F047C0C9018A
:10094000969587958431910508F468C043979F8BED
:100950008E8BC9010597998F888FC901880F991FC0
:10096000280F391F36952795369527952C50310934
:100970003B8F2A8F9091680082E0683038F088E0E1
:10098000603120F081E0683108F484E0892B8093A5
:1009900068008C852CE630E0883050F023E730E0AA
:1009A000803130F02BE630E0883110F42DE630E075
:1009B0003C8B2B8B877021E030E001C0220F8A95A1
:1009C000EAF72D8B8C8D9D8D0197F1F78A8D9B8D8C
:1009D000892B09F1E0919A01F0919B01CE17DF0775
:1009E000D1F0309739F0A389B4899C91858980959D
:1009F00089238C938E8D8E7F8E8F1092980110920A
:100A00009901D0939B01C0939A01EB89FC89808165
:100A10009D89892B8083DF91CF91089581E090E0BB
:100A200096CF885E9E4FDC018D919C91DC01ED910B
:100A3000FC910680F781E02D0994885E9E4FDC01D1
:100A40008D919C91DC01ED91FC910484F585E02D64
:100A50000994885E9E4FDC018D919C91DC01ED91A3
:100A6000FC910284F385E02D0994885E9E4FDC01A1
:100A70008D919C91DC01ED91FC910190F081E02D34
:100A80000994885E9E4FDC018D919C91DC01ED9173
:100A9000FC910084F185E02D0994CF93DF9390E0E1
:100AA00080E0EC0121968897A8F482EC93E00E9404
:100AB0004105892B39F082EC93E00E942905D0E0B2
:100AC000C0E0F3CF61E070E080E090E00E945E0360
:100AD000CE01E7CFDF91CF91089590E080E00895B7
:100AE000FB0101900020E9F73197AF01461B570B3E
:100AF000DC01ED91FC910280F381E02D09948F924D
:100B00009F92AF92BF92EF92FF920F931F93CF935A
:100B1000DF93CDB7DEB7A1970FB6F894DEBF0FBE57
:100B2000CDBF7C019A01AB0119A28E010F5D1F4F51
:100B30008AE0882E912CA12CB12CCA01B901A50103
:100B400094010E94D60B605DF80162938F0121151C
:100B500031054105510589F73097E9F0BF01C7011B
:100B60000E9470058C016CE371E0C7010E94700562
:100B7000800F911FA1960FB6F894DEBF0FBECDBFB8
:100B8000DF91CF911F910F91FF90EF90BF90AF90A9
:100B90009F908F90089510E000E0E5CF0F931F9392
:100BA000CF93DF938C01D0E0C0E06115710519F09F
:100BB0000E947005EC016CE371E0C8010E947005B1
:100BC0008C0F9D1FDF91CF911F910F9108950F936F
:100BD0001F93CF93DF93EC010E947F018C016CE3A4
:100BE00071E0CE010E947005800F911FDF91CF91BF
:100BF0001F910F910895CF93DF93EC010E944D0553
:100C000066E372E085EA91E00E947F01BE0185EA19
:100C100091E00E94E705BE018091DA049091DB0427
:100C20000E94E70580E00E949003C82F6FE272E007
:100C300085EA91E00E947F0160ED73E085EA91E032
:100C40000E94CE058C2FDF91CF910895CF93DF9333
:100C5000EB010E94FB05882341F0BE0180ED93E08B
:100C60000E949F0B21E0892B09F020E0822FDF9169
:100C7000CF910895CF93DF939093DB048093DA04B0
:100C800061E08091CE030E94080361E08091CE0371
:100C90000E94AC026AE070E080E090E00E945E0397
:100CA00060E08091CE030E94AC0264E670E080E0D8
:100CB00090E00E945E0361E08091CE030E94AC024E
:100CC0006EE072E085EA91E00E94E705CEE0D0E0B8
:100CD0008091DA049091DB04DC01ED91FC910084B9
:100CE000F185E02D0995892B61F08091DA049091CE
:100CF000DB04DC01ED91FC910284F385E02D099584
:100D0000E7CF6091D8047091D9048BE092E00E9403
:100D1000260681115AC08091DA049091DB04DC012F
:100D2000ED91FC910084F185E02D0995892B61F00E
:100D30008091DA049091DB04DC01ED91FC91028456
:100D4000F385E02D0995E7CF65E072E088E092E059
:100D50000E942606811139C064EF71E080E090E0C6
:100D60000E945E03219709F0B3CF63ED71E085EA3D
:100D700091E00E94E7056091D8047091D90480ED5C
:100D800091E00E94260664E670E080E090E00E9418
:100D90005E036091D8047091D9048DEC91E00E94BB
:100DA000260664E670E080E090E00E945E036091B9
:100DB000D8047091D9048AEC91E00E94260664E67A
:100DC00070E080E090E00E945E036091D804709132
:100DD000D90485EC91E00E94260664E670E080E08C
:100DE00090E00E945E036091D8047091D90480EC79
:100DF00091E00E942606C82F882309F479C06091EB
:100E0000D8047091D90486EB91E00E94260664E62E
:100E100070E080E090E00E945E030E944D056FEA62
:100E200071E085EA91E00E947F016FE371E085EA5D
:100E300091E00E94CE056FE371E08091DA04909119
:100E4000DB040E94CE0581E00E94900368EA71E015
:100E500085EA91E00E947F0160ED73E085EA91E010
:100E60000E94CE056DE971E080ED93E00E94A80B31
:100E7000892B09F441C083E08093CF038091CF0395
:100E8000813071F560E671E085EA91E00E947F01B2
:100E900063E471E085EA91E00E94CE0563E471E0CD
:100EA0008091DA049091DB040E94CE0581E00E94DB
:100EB000900369E571E085EA91E00E947F0160EDB1
:100EC00073E085EA91E00E94CE0561E571E080ED76
:100ED00093E00E94A80B892B19F086E08093CF0342
:100EE0006091D8047091D9048AE391E00E942606AB
:100EF0008C2FDF91CF91089562E971E080ED93E04E
:100F00000E94A80B892B11F082E0B6CF67E871E050
:100F100080ED93E00E94A80B892B11F081E0ACCF0B
:100F200067E771E080ED93E00E94A80B892B11F038
:100F300084E0A2CF67E671E080ED93E00E94A80B09
:100F4000892B09F49BCF85E097CF1F920F920FB6A4
:100F50000F9211240BB60F922F933F934F935F93F1
:100F60006F937F938F939F93AF93BF93EF93FF9371
:100F700085EA91E00E941202FF91EF91BF91AF913B
:100F80009F918F917F916F915F914F913F912F91A1
:100F90000F900BBE0F900FBE0F901F9018951F92D1
:100FA0000F920FB60F9211240BB60F922F938F93BF
:100FB0009F93EF93FF93E091B501F091B60180818B
:100FC000E091BB01F091BC0182FD1CC09081809139
:100FD000BE018F5F2091BF01821741F0E091BE01F9
:100FE000F0E0EB55FE4F958F8093BE01FF91EF919E
:100FF0009F918F912F910F900BBE0F900FBE0F906E
:101000001F9018958081F2CF1F920F920FB60F920A
:1010100011242F933F938F939F93AF93BF9380910E
:101020009D0190919E01A0919F01B091A0013091EE
:101030009C0126E0230F2D3758F50296A11DB11D06
:1010400020939C0180939D0190939E01A0939F010A
:10105000B093A0018091A1019091A201A091A30160
:10106000B091A4010196A11DB11D8093A10190939F
:10107000A201A093A301B093A401BF91AF919F914E
:101080008F913F912F910F900FBE0F901F90189549
:1010900029E8230F0396A11DB11DD2CF1F920F92F5
:1010A0000FB60F9211240BB60F922F933F934F93CD
:1010B0005F936F937F938F939F93AF93BF93EF93C0
:1010C000FF93E0910401F09105010995FF91EF91E3
:1010D000BF91AF919F918F917F916F915F914F9150
:1010E0003F912F910F900BBE0F900FBE0F901F904E
:1010F00018951F920F920FB60F9211240BB60F92F4
:101100002F933F934F935F936F937F938F939F930F
:10111000AF93BF93EF93FF93E0910201F09103012E
:101120000995FF91EF91BF91AF919F918F917F9121
:101130006F915F914F913F912F910F900BBE0F9048
:101140000FBE0F901F9018951F920F920FB60F921F
:1011500011240BB60F922F933F934F935F936F938E
:101160007F938F939F93AF93BF93EF93FF93E09100
:101170000001F09101010995FF91EF91BF91AF91AD
:101180009F918F917F916F915F914F913F912F919F
:101190000F900BBE0F900FBE0F901F9018951F92CF
:1011A0000F920FB60F9211240BB60F922F933F930D
:1011B0004F935F936F937F938F939F93AF93BF935F
:1011C000EF93FF93E0919A01F0919B01309749F0E2
:1011D000A685B7858585968D91FF16C09C9189233C
:1011E000B1F4FF91EF91BF91AF919F918F917F915A
:1011F0006F915F914F913F912F910F900BBE0F9088
:101200000FBE0F901F9018959C91892351F7A389C9
:10121000B4899C918589809589238C938689978947
:101220000197F1F7608D718DA685B785558538E0FA
:1012300020E0CB010197F1F7822F90E095958795FB
:10124000282F4C91452309F02068315091F7868D65
:1012500081FD20958091980190E001968F739927E8
:1012600030919901381799F0A0919801B0E0A85AEF
:10127000BE4F2C9380939801828D938D0197F1F747
:10128000A389B4898C919589892B8C93AACF868D5B
:101290008160868FF1CF1092A8011092A70188EE8D
:1012A00093E0A0E0B0E08093A9019093AA01A093FD
:1012B000AB01B093AC012AE031E03093A60120935A
:1012C000A50125EC30E03093B2012093B10124EC6C
:1012D00030E03093B4012093B30120EC30E0309340
:1012E000B6012093B50121EC30E03093B801209392
:1012F000B70122EC30E03093BA012093B90126EC1B
:1013000030E03093BC012093BB011092BE011092DB
:10131000BF011092C0011092C1011092DF0410921F
:10132000DE048093E0049093E104A093E204B09380
:10133000E3048EE291E09093DD048093DC0410924C
:10134000F3041092F2041092F5041092F404109237
:10135000F7041092F6041092F9041092F8046091C8
:10136000FA046E7F6D7F6093FA046695617081E088
:1013700068278BE00E94AC0261E08BE00E940803CA
:10138000ECE8F2E0E491E093EC04ECE6F2E0E491C6
:10139000F0E0EE0FFF1FE95AFD4F85919491909375
:1013A000EE048093ED0460E08AE00E9408038091DF
:1013B000FA0481FD04C061E08AE00E94AC028AE088
:1013C0008093E804EBE8F2E0E491E093E904EBE6D3
:1013D000F2E0E491F0E0EE0FFF1FE35BFD4F85913B
:1013E00094919093EB048093EA041092C5031092B9
:1013F000C40388EE93E0A0E0B0E08093C60390932E
:10140000C703A093C803B093C9038DE08093CE03B4
:1014100085E492E09093D0048093CF041092D2049C
:101420001092D1041092D4041092D3041092DB04D1
:101430001092DA041092D50480E492E09093D704DD
:101440008093D6048DE392E09093D9048093D804DE
:101450008CE191E09093C3038093C20384E0809376
:10146000CF030895CF93DF93CDB7DEB72F970FB695
:10147000F894DEBF0FBECDBF789484B5826084BD82
:1014800084B5816084BD85B5826085BD85B5816088
:1014900085BD80916E00816080936E001092810006
:1014A00080918100826080938100809181008160C1
:1014B0008093810080918000816080938000809182
:1014C000B10084608093B1008091B000816080930E
:1014D000B000809191008260809391008091910092
:1014E0008160809391008091900081608093900052
:1014F00080917A00846080937A0080917A00826083
:1015000080937A0080917A008E7F80937A00809118
:101510007A00806880937A001092C10061E080E0D8
:101520000E94080361E083E10E94080361E083E117
:101530000E94AC0268EB7BE080E090E00E945E03DA
:1015400061E080E00E94AC0268EB7BE080E090E02C
:101550000E945E0360E080E00E94AC0261E080E0F7
:101560000E94AC02E091B501F091B60182E0808367
:10157000E091B101F091B2011082E091B301F091DC
:10158000B40180E180831092BD01E091B901F09136
:10159000BA0186E08083E091B701F091B8018081C3
:1015A00080618083E091B701F091B801808188600B
:1015B0008083E091B701F091B801808180688083D9
:1015C000E091B701F091B80180818F7D808368E25E
:1015D00071E085EA91E00E94E7056FE071E085EA3D
:1015E00091E00E94E70540E051EE60E070E08CED94
:1015F00094E00E9486048CED94E00E943A060E94DA
:101600004D056DEB70E085EA91E00E947F0164EC8E
:1016100070E085EA91E00E947F0140EC52E160E0D9
:1016200070E085EA91E00E947F0564EC70E08091B3
:10163000DA049091DB040E947F0140EC52E160E00B
:1016400070E08091DA049091DB040E947F0580E0D5
:101650000E94900366EB70E085EA91E00E947F01B2
:1016600060ED73E085EA91E00E94CE0540EC52E126
:1016700060E070E08CED94E00E94860463EF70E01F
:1016800085EA91E00E94E7058CED94E00E943A061D
:10169000811107C060EE70E085EA91E00E94E705E5
:1016A000FFCF65ED70E085EA91E00E94E7058E01CD
:1016B0000F5F1F4F8FE0F80111928A95E9F78EECCA
:1016C00090E00E94FB054FE050E060ED73E0C80140
:1016D0000E94340C188A80E00E949003F801019067
:1016E0000020E9F73197E01759F06AE471E085EAE4
:1016F00091E00E947005B80185EA91E00E94CE0554
:101700000E949502FDCF8EE291E09093DD048093DC
:10171000DC0480919A0190919B018C5D944071F45E
:10172000E091EF04F091F00490818091F1048095B4
:101730008923808310929B0110929A010895FB01E6
:10174000DC018D91059080190110D9F3990B089552
:10175000FB0155915523A9F0BF01DC014D914517BF
:101760004111E1F759F4CD010590002049F04D9168
:1017700040154111C9F3FB014111EFCF81E090E029
:101780000197089597FB072E16F4009407D077FD74
:1017900009D00E94200C07FC05D03EF4909581955D
:1017A0009F4F0895709561957F4F0895A1E21A2E7D
:1017B000AA1BBB1BFD010DC0AA1FBB1FEE1FFF1FF5
:1017C000A217B307E407F50720F0A21BB30BE40B45
:1017D000F50B661F771F881F991F1A9469F760958C
:1017E0007095809590959B01AC01BD01CF01089546
:1017F000052E97FB1EF400940E940F0C57FD07D096
:101800000E94D60B07FC03D04EF40C940F0C50959D
:101810004095309521953F4F4F4F5F4F08959095DC
:101820008095709561957F4F8F4F9F4F0895EE0F74
:10183000FF1F0024001C0BBE0790F691E02D0994B9
:10184000AA1BBB1B51E107C0AA1FBB1FA617B707E6
:1018500010F0A61BB70B881F991F5A95A9F7809502
:101860009095BC01CD010895FB01DC014150504031
:1018700048F001900D920020C9F701C01D9241501F
:101880005040E0F7089511E0C2E5D1E004C0FE0148
:101890000E94170C2196C335D107C9F7F894FFCFE2
:1018A000D703D703D703000000003102A301D00102
:1018B00075020102E001F301000000003505A301FB
:1018C0006D051105410529051D0500000000F10306
:1018D000A3016D05F0034D046504D8030D0A004112
:1018E00054490041542B474D4D004D6F64756C6554
:0818F00020494D45493A200052
:00000001FF
