:100000000C9464060C94A25C0C94775C0C944C5C8D
:100010000C94215F0C948E060C948E060C948E0624
:100020000C948E060C948E060C948E060C948E0600
:100030000C948E060C94CD5C0C948E060C948E065B
:100040000C948E060C948E060C94025C0C948E0616
:100050000C94CD5B0C94A35B0C948E060C948E06D2
:100060000C948E060C948E060C94FD5D0C948E06FA
:100070000C946E5B0C94445B0C948E060C948E0670
:100080000C948E060C948E060C948E0641542B43D1
:10009000434944002B43474154543A200041542BD8
:1000A00043474154543F002B43475245473A2000B1
:1000B00041542B43475245473F0047505253206F0E
:1000C0006E004552524F523A2047505253206661BB
:1000D000696C656420746F207475726E206F6E0099
:1000E0005265676973746572656420726F616D69CA
:1000F0006E6700556E6B6E6F776E0044656E696556
:1001000064004E6F7420726567697374657265640C
:100110002028736561726368696E6729005265679C
:10012000697374657265642028686F6D6529004E77
:100130006F742072656769737465726564003A2034
:10014000004E6574776F726B2073746174757320E1
:10015000005475726E696E672063656C6C206D6FFC
:1001600064756C65206F66662E2E2E0052535349BF
:10017000202864426D293A202D00456E7465722056
:1001800027782720617420616E792074696D65205D
:10019000746F2073746F70005475726E696E67208F
:1001A00063656C6C206D6F64756C65206F6E2E2EB0
:1001B0002E004552524F523A20496E76616C696466
:1001C00020696E74657276616C2028657665727937
:1001D0002031206F72203420686F757273290045BA
:1001E00052524F523A20496E76616C696420696EB2
:1001F00074657276616C202865766572792031307D
:100200002C2031352C2032302C2033302C206F72B2
:10021000203630206D696E73290050726F6A6563F5
:10022000742049443A20002020696E707574206D56
:10023000696E7574653A20002020696E70757420AF
:10024000686F75723A202020002020696E707574E6
:1002500020796561723A202020002020696E707537
:1002600074206461793A20202020002020696E707B
:100270007574206D6F6E74683A20200053796E6338
:1002800068726F6E697A6174696F6E206661696CFD
:1002900065642E20506C6561736520656E746572AF
:1002A0002074696D65206D616E75616C6C79206973
:1002B0006E205554433A200053796E6368726F6E16
:1002C000697A696E6720636C6F636B20746F204E70
:1002D00049535420736572766572202E2E2E2000AD
:1002E00044656661756C7420726164696F2049446D
:1002F00020616363657074656400526164696F2096
:100300004944207570646174656400456E7465725B
:10031000206E657720726164696F2049443A20003D
:10032000576F756C6420796F75206C696B652074EC
:100330006F206368616E6765207468652072616410
:10034000696F2049442066726F6D2074686520646F
:10035000656661756C742076616C75653F20792FD8
:100360006E3A2000456E7465722074686520486F8F
:100370006C6F6772616D20646576696365206B657B
:100380007920666F7220746869732047617465779D
:1003900061793A2000456E74657220746865207238
:1003A0006164696F20494420666F72204E6F6465F6
:1003B0002000293F00496E76616C6964206E756D7E
:1003C000626572206F66206E6F6465732E20204810
:1003D0006F77206D616E79206E6F64657320617236
:1003E00065206174207468697320736974652028BE
:1003F0006D61782E00486F77206D616E79206E6F89
:10040000646573206172652061742074686973206B
:100410007369746520286D61782E2000496E7661BD
:100420006C696420696E74657276616C2E20456E0D
:10043000746572206D6561737572656D656E74208B
:10044000696E74657276616C202831302C203135EC
:100450002C2032302C2033302C206F722036302963
:100460003A2000456E746572206D65617375726522
:100470006D656E7420696E74657276616C202831CA
:10048000302C2031352C2032302C2033302C206F72
:1004900072203630206D696E73293A2000436865FA
:1004A000636B696E672046504C4D4E2E2E2E0045D4
:1004B0007869740020205265636569766572204D05
:1004C0006F64652064656163746976617465640056
:1004D00020205265636569766572204D6F646520E2
:1004E00061637469766174656400576F756C64202C
:1004F000796F75206C696B6520746F20757365204A
:100500005265636569766572204D6F64653F207939
:100510002F6E3A20004E4F54453A2052656365696C
:10052000766572206F6E6C79206D6F6465207769D7
:100530006C6C206E6F742075706C6F6164206461E8
:10054000746120746F20486F6C6F6772616D00205A
:1005500020456E74657220612050726F6A65637405
:100560002049442028757020746F2035206368610D
:10057000726163746572732C2065783A2050534120
:10058000293A200020204552524F523A2050726F93
:100590006A656374204944206578636565647320E7
:1005A0003520636861726163746572732100202075
:1005B000456E74657220612050726F6A65637420A5
:1005C00049442028757020746F203520636861725B
:1005D0006163746572732C2065783A205053412909
:1005E0003A2000457869740041726520796F752062
:1005F0007375726520796F752077616E7420746FE2
:1006000020636C656172207468652046504C4D4EC5
:100610003F20792F6E3A200021212120555345207B
:10062000574954482043415554494F4E20212121D8
:1006300000576F756C6420796F75206C696B65204D
:10064000746F207475726E206465627567207374B0
:100650006174656D656E7473206F6E3F20792F6EC7
:100660003A2000576F756C6420796F75206C696B48
:100670006520746F207475726E20646562756720E2
:1006800073746174656D656E7473206F66663F2068
:10069000792F6E3A200045726173652053442063C0
:1006A0006172643A20005072696E742064617461F2
:1006B0002066696C65733A20005361766564206634
:1006C000696C65733A2000456E74657220636F6EC5
:1006D00066696775726174696F6E20737472696E92
:1006E000673A2000456E7465722063686F696365C0
:1006F0003A200020207820203C2D2D2020457869AC
:1007000074206D656E750020203220203C2D2D2038
:10071000204869646520636F6E66696775726174ED
:10072000696F6E206F7074696F6E73002020652092
:10073000203C2D2D20204572617365206D69637208
:100740006F534420636172640020206320203C2D9D
:100750002D202053657420636C6F636B0020207222
:1007600020203C2D2D20205265636569766572201E
:100770004D6F6465206F6E2F6F66660020206D20C0
:10078000203C2D2D2020536574206D65617375729A
:10079000656D656E7420696E74657276616C00209B
:1007A000207520203C2D2D20205365742067617416
:1007B00065776179206461746120696E7465727611
:1007C000616C0020207520203C2D2D202053657465
:1007D00020646174612075706C6F616420746F2097
:1007E000636C6F756420696E74657276616C00204D
:1007F000206E20203C2D2D2020456E746572204EE9
:100800006F646520726164696F2049447300202021
:100810006420203C2D2D2020456E74657220486F89
:100820006C6F6772616D20446576696365204B6506
:10083000790020206720203C2D2D20204368616E08
:100840006765204761746577617920726164696FBB
:100850002049440020206920203C2D2D2020456E79
:100860007465722070726F6A656374204944002059
:10087000203020203C2D2D2020456E746572206391
:100880006F6E66696775726174696F6E20737472DA
:10089000696E6700436F6E66696775726174696F30
:1008A0006E204F7074696F6E733A002020322020E2
:1008B0003C2D2D202053686F7720636F6E6669672B
:1008C00075726174696F6E206F7074696F6E7300FA
:1008D00020203420203C2D2D2020436C6561722087
:1008E000666F7262696464656E206E6574776F729C
:1008F0006B73206C6973740020206F20203C2D2DB9
:10090000202044656275672073746174656D656E3F
:100910007473206F6E2F6F66660020206620203C67
:100920002D2D2020536565206C697374206F66201F
:1009300073617665642066696C65730020207020A1
:10094000203C2D2D20205072696E74206E6F6465DE
:10095000206461746120746F2073637265656E003A
:1009600020203120203C2D2D202043656C6C756C9F
:100970006172205369676E616C2053636F7574698F
:100980006E67204D6F64650055736572204F7074FB
:10099000696F6E733A004465627567206F66660022
:1009A0004465627567206F6E0043757272656E7480
:1009B000206261747465727920766F6C746167650A
:1009C0003A20200030003A0030003A002D002D007F
:1009D00043757272656E742064617465202620749C
:1009E000696D653A200047617465776179206461BB
:1009F000746120696E74657276616C202868727308
:100A0000293A200055706C6F616420696E746572BC
:100A100076616C2028687273293A20004D656173F5
:100A20007572656D656E7420496E74657276616C61
:100A30003A2000446174612066696C653A20004E7A
:100A40006574776F726B6564204E6F6465204944EE
:100A5000733A200023206F66206E6F6465733A201E
:100A600000446576696365206B65793A20004761CB
:100A7000746577617920526164696F2049443A2036
:100A80000050726F6A6563742049443A20004C6FCD
:100A9000526120526164696F204672657120284D51
:100AA000487A293A200053657269616C204E756D51
:100AB0006265723A200056657273696F6E20002D70
:100AC0002D2D205265636569766572204F6E6C79B5
:100AD000204D6F6465202D2D2D00536F696C2057BC
:100AE000617465722044617461204E6574776F7221
:100AF0006B202D2043656C6C756C617220476174AE
:100B00006577617900496E76616C696420696E74FD
:100B1000657276616C2E20506C6561736520656E20
:100B20007465722031206F7220342E00456E74651A
:100B30007220223122206F72202234223A2000209B
:100B4000696E74657276616C20746F2031206F72EB
:100B5000203420686F7572732E002067617465778A
:100B600061792064617461002075706C6F6164004C
:100B7000536574007C3C3E5E2B3D3F2F5B5D3B2C00
:100B80002A225C0072740092740048940078C400B9
:100B900000002100240027002A0000002200250078
:100BA00028002B000000200023002600290002025C
:100BB0000202020202020404040404040404030303
:100BC0000303030303030101010101010101010208
:100BD0000408102040800102040810204080010217
:100BE000040810204080010204081020408000000A
:100BF00000010200090A00000000040308070000C9
:100C000000000000000000000000000000002B4376
:100C100053513A200041542B435351002B4352452A
:100C2000473A200041542B435245473F0041542B43
:100C300043504D533D22534D222C22534D222C2202
:100C4000534D220053494D383030480053494D43ED
:100C50004F4D5F53494D35333230450053494D4375
:100C60004F4D5F53494D35333230410053494D3874
:100C70003030205231330053494D38303820523112
:100C8000330053494D383038205231340041542B11
:100C9000435648553D30004154453000415445309D
:100CA000004154004154004154004154004154005B
:100CB0004154004F4B00464F4E4100464F4E416E4F
:100CC000657400003D5FBC6311241FBECFEFD0E40C
:100CD000DEBFCDBF1FE0A0E0B1E0E8E8FAED00E044
:100CE0000BBF02C007900D92A032B107D9F724E2E2
:100CF000A0E2BFE001C01D92A632B207E1F716E004
:100D0000C3E6D6E004C02197FE010E942069C236E6
:100D1000D107C9F70E9413610C94376D0C94000041
:100D2000089508950F931F93CF93DF93EC019A01D9
:100D3000AB01E889F98982E08083EC85FD8510822A
:100D40000E851F8560E874E88EE190E00E949C6744
:100D500021503109410951095695479537952795F5
:100D6000F8012083188EEC89FD8986E08083EA896A
:100D7000FB89808180618083EA89FB89808188602A
:100D80008083EA89FB89808180688083EA89FB8986
:100D900080818F7D8083DF91CF911F910F91089586
:100DA0008091A5209091A620DC01ED91FC91048416
:100DB000F585E02D0994FF920F931F93CF93DF9356
:100DC0008C01F62EC5EAD0E288819981DC01ED9193
:100DD000FC910488F589E02D642F0995888199811B
:100DE000DC01ED91FC910680F781E02D4F2DB801DB
:100DF000DF91CF911F910F91FF900994E82FF0E0C0
:100E0000EE0FFF1FE25DFE4F71836083813049F07A
:100E1000823071F080916900836080936900E89A64
:100E20000895809169008C6080936900E99A089523
:100E300080916900806380936900EA9A0895DC01DB
:100E4000ED91FC910190F081E02D0994EF92FF92D9
:100E50000F931F93CF93DF938C017B01D0E0C0E011
:100E6000F701EC0FFD1F6491662361F0D801ED914D
:100E7000FC910190F081E02DC8010995892B11F0BA
:100E80002196EECFCE01DF91CF911F910F91FF9070
:100E9000EF900895AF92BF92CF92DF92EF92FF92C0
:100EA0000F931F93CF93DF936C017B018B01040F92
:100EB000151FEB015E01AE18BF08C017D10759F02E
:100EC0006991D601ED91FC910190F081E02DC60170
:100ED0000995892B79F7C501DF91CF911F910F916A
:100EE000FF90EF90DF90CF90BF90AF900895FC01FE
:100EF000538D448D252F30E0842F90E0821B930B7F
:100F0000541718F081509F4F089501970895FC01E0
:100F1000918D828D981759F0A28DAE0FBF2FB11D04
:100F20005D968C91928D9F5F928F90E008958FEFE8
:100F30009FEF0895FC01918D828D981731F0828D7D
:100F4000E80FF11D858D90E008958FEF9FEF0895D4
:100F5000FC01918D828D981B892F90E008958AE97C
:100F60009AE10E94A80721E0892B09F420E0822F52
:100F7000089587EB9CE10E94A80721E0892B09F4E2
:100F800020E0822F0895CF93DF93EC01E881F9816F
:100F90000680F781E02D0995EA89FB8980818F7EA3
:100FA0008083EA89FB898081877F8083EA89FB8946
:100FB00080818F778083EA89FB8980818F7D808320
:100FC0008A8D898FDF91CF910895FC01A48DA80FA0
:100FD000B92FB11DA35EBE4F9C91848D8F5F848F0E
:100FE000A689B7899C93A089B1898C91837080640C
:100FF0008C93938D848D981306C00288F389E02D1D
:1010000080818F7D808308950F931F93CF93DF930B
:10101000EC0181E0888F9B8D8C8D981318C0E88936
:10102000F989808185FF13C09FB7F894EE89FF8905
:101030006083E889F98980818370806480839FBFA1
:1010400081E090E0DF91CF911F910F910895062FDD
:101050001B8D1F5F8C8D81130CC00FB607FCFACF60
:10106000E889F989808185FFF5CFCE010E94E507E7
:10107000F1CFEB8DEC0FFD2FF11DE35EFE4F0083F2
:101080009FB7F8941B8FEA89FB8980818062D6CF55
:10109000CF93DF93EC01888D8823B9F0AA89BB89AF
:1010A000E889F9898C9185FD03C0808186FD0DC09A
:1010B0000FB607FCF7CF8C9185FFF2CF808185FFBB
:1010C000EDCFCE010E94E507E9CFDF91CF910895E2
:1010D00080E090E0892B29F00E94B90781110E94DD
:1010E000000080E090E0892B29F00E94AF07811179
:1010F0000C940000089581508A3080F5E82FF0E0CC
:10110000EC57F74F0C94206998089C088E089408B7
:10111000AE08AE089F08A508A908AF088091800016
:101120008F77809380000895809180008F7DF9CF24
:1011300084B58F7784BD089584B58F7DFBCF809172
:10114000B0008F778093B00008958091B0008F7DBC
:10115000F9CF809190008F778093900008958091CF
:1011600090008F7DF9CFCF93DF93282F30E0F901E6
:10117000E251F44F8491F901E253F44FD491F90113
:10118000E255F44FC491CC23A1F081110E947B0859
:10119000EC2FF0E0EE0FFF1FEC55F44FA591B4914A
:1011A000EC91ED2381E090E009F480E0DF91CF91B4
:1011B000089580E090E0FACF1F93CF93DF93282F1C
:1011C00030E0F901E251F44F8491F901E253F44F18
:1011D000D491F901E255F44FC491CC23A9F0162F14
:1011E00081110E947B08EC2FF0E0EE0FFF1FE65606
:1011F000F44FA591B4918FB7F894EC91111108C0F8
:10120000D095DE23DC938FBFDF91CF911F9108959E
:10121000DE2BF8CFCF93DF9390E0FC01E253F44F45
:1012200024918255944FFC0184918823D1F090E061
:10123000880F991FFC01E057F44FA591B491FC0170
:10124000E656F44FC591D49161110EC09FB7F89442
:101250008C91E22FE0958E238C932881E223E88302
:101260009FBFDF91CF9108958FB7F894EC91E22B57
:10127000EC938FBFF6CF883108F088518770806477
:1012800080937C0080917A00806480937A008091C2
:101290007A0086FDFCCF80917800909179000895C6
:1012A0003FB7F8948091ED179091EE17A091EF174A
:1012B000B091F01726B5A89B05C02F3F19F00196F5
:1012C000A11DB11D3FBFBA2FA92F982F8827BC01A0
:1012D000CD01620F711D811D911D43E0660F771FC7
:1012E000881F991F4A95D1F708958F929F92AF92C8
:1012F000BF92CF92DF92EF92FF924B015C010E946E
:1013000050096B017C010E9450096C197D098E09FE
:101310009F09683E734081059105A8F321E0821A78
:101320009108A108B10888EEC80E83E0D81EE11C20
:10133000F11C81149104A104B10429F7FF90EF90EE
:10134000DF90CF90BF90AF909F908F900895FF92C5
:101350000F931F93CF93DF93F82E04EF11E0D0E0AB
:10136000C0E08091A3209091A420DC01ED91FC913C
:101370000084F185E02D0995892BC9F08091A32087
:101380009091A420DC01ED91FC910284F385E02D85
:1013900009958D3031F38A3021F4209711F3FF2025
:1013A00091F0FE01E557F04E86872196DACF015085
:1013B000110949F061E070E080E090E00E94750959
:1013C000CE3FD10570F2FE01E557F04E16868C2F08
:1013D000DF91CF911F910F91FF9008952FB7F8944F
:1013E0006091E9177091EA178091EB179091EC17D3
:1013F0002FBF08950895885E9E4FDC018D919C91CA
:10140000DC01ED91FC910680F781E02D0994885E66
:101410009E4FDC018D919C91DC01ED91FC91048447
:10142000F585E02D0994885E9E4FDC018D919C919D
:10143000DC01ED91FC910284F385E02D0994885E36
:101440009E4FDC018D919C91DC01ED91FC9101900E
:10145000F081E02D0994885E9E4FDC018D919C9176
:10146000DC01ED91FC910084F185E02D0994CF938E
:10147000DF9390E080E0EC0121968897A8F48BE858
:101480009FE10E942B0A892B39F08BE89FE10E9493
:10149000130AD0E0C0E0F3CF61E070E080E090E0BC
:1014A0000E947509CE01E7CFDF91CF9108958BEFB0
:1014B0000895CF93DF93FC012281338122303105DF
:1014C00069F0EC01638D818D0E94DC0860E0888DFD
:1014D0000E94DC0882E090E09B838A83DF91CF91B9
:1014E0000895FF920F931F93CF93DF93EC01162F74
:1014F000F42E0FB7F89460E08F890E94DC088D8984
:101500009E89612F6068DC01ED91FC910190F08172
:10151000E02D0995182F8D899E89DC01ED91FC91B4
:101520000190F081E02D6F2D099561E08F890E9477
:10153000DC080FBF812FDF91CF911F910F91FF909A
:1015400008950F931F93CF938C01C62F44E06DE451
:101550000E94710A4BEF4C0F406869E0C801CF91BF
:101560001F910F910C94710ACF93DF93FC0122819C
:1015700033812130310549F0EC0140E061E00E9407
:10158000710A81E090E09B838A8381E0DF91CF91B3
:101590000895CF93DF93FC012281338122303105FE
:1015A00049F0EC0141E061E00E94710A82E090E0C4
:1015B0009B838A83DF91CF910895CF92DF92EF9240
:1015C000FF92CF93DF93EC01CB01BA0120E034E22C
:1015D00044E759E40E94966620E034E244E752E48E
:1015E0000E943A680E94B3686B017C01A7016627DC
:1015F000772766E0CE010E94710A77276F2D5E2D56
:101600004D2D67E0CE010E94710A4C2D68E0CE019D
:101610000E94710A81E0DF91CF91FF90EF90DF90FF
:10162000CF900895CF92DF92EF92FF920F931F9386
:10163000CF93DF934C3F08F067C0142F072FF62E8F
:10164000EC01E881F9810484F585E02D0995CE014E
:101650000E94C90A40E06DE0CE010E94710A4A85ED
:1016600060E0CE010E94710A4B8560E0CE010E94CD
:10167000710A4C8560E0CE010E94710A4D8560E0E0
:10168000CE010E94710AEFB6F89460E08F890E9443
:10169000DC088D899E89DC01ED91FC910190F0813F
:1016A000E02D60E80995CF2CD02E012F015068F075
:1016B0008D899E89F60161916F01DC01ED91FC91AC
:1016C0000190F081E02D0995F1CF61E08F890E94B2
:1016D000DC08EFBE44E0410F62E2CE010E94710AD5
:1016E0008A819B81039771F043E061E0CE010E9403
:1016F000710A40E460E4CE010E94710A83E090E048
:101700009B838A8381E001C080E0DF91CF911F91AC
:101710000F91FF90EF90DF90CF900895CF93DF93DC
:10172000FC012281338123303105C9F0EC01828133
:101730009381049771F045E061E0CF010E94710A46
:1017400040E060E4CE010E94710A84E090E09B8357
:101750008A83C65EDE4F8881DF91CF91089580E055
:10176000FBCF0F931F93CF93DF93EC01162F0FB78F
:10177000F89460E08F890E94DC088D899E89DC01E5
:10178000ED91FC910190F081E02D612F09958D89FB
:101790009E89DC01ED91FC910190F081E02D60E0EB
:1017A0000995182F61E08F890E94DC080FBF812FF7
:1017B000DF91CF911F910F910895DF92EF92FF92E9
:1017C0000F931F93CF93DF93EC0162E10E94B10B63
:1017D0002A813B8124303105A1F4982F907A89F039
:1017E0008F8598890196988B8F874FEF62E1CE01A4
:1017F000DF91CF911F910F91FF90EF90DF900C94AC
:10180000710A2A813B812430310511F486FD0DC017
:101810002A813B812330310541F783FFE6CF8B8955
:101820009C8901969C8B8B8B67C063E1CE010E94E3
:10183000B10B082F60E1CE010E94B10B482F6DE083
:10184000CE010E94710ADFB6F89460E08F890E9491
:10185000DC088D899E89DC01ED91FC910190F0817D
:10186000E02D60E009957E01BBE1EB0EF11C102F2D
:10187000115070F08D899E89DC01ED91FC910190F1
:10188000F081E02D60E00995F70181937F01F0CFB1
:1018900061E08F890E94DC08DFBE0A8F4FEF62E1B2
:1018A000CE010E94710A6AE1CE010E94B10B8958F3
:1018B0008E878A8DFE01E65EFE4F8430C8F08B8DE8
:1018C0008E838C8D8F838D8D88878E8D89878D817A
:1018D000811107C09E818C81981719F08E818F3FEE
:1018E00039F489899A8901969A8B898B81E0808362
:1018F0008081882309F479CFCE010E94C90A75CF6F
:101900008091E6179091E717009711F00C94DD0B8A
:1019100008958091E4179091E517009711F00C94C9
:10192000DD0B08958091E2179091E317009711F075
:101930000C94DD0B0895CF93DF93EC018D899E8984
:10194000DC01ED91FC910680F781E02D099561E0C5
:101950008F890E940A0961E08F890E94DC0864E691
:1019600070E080E090E00E94750981E0DF91CF9106
:101970000895FF920F931F93CF93DF931F92CDB7DC
:10198000DEB7F42E05EA10E2D8018D919C91DC01BE
:10199000ED91FC91008CF18DE02D0995F80180818D
:1019A0009181DC01ED91FC91028CF38DE02D40E002
:1019B00060E8099581E289834F2D61E0CE010196AF
:1019C0000E94DB060E94D0060F90DF91CF911F91FD
:1019D0000F91FF900895CF92DF92EF92FF920F93B5
:1019E0001F93CF93DF93EC018B017A016901809102
:1019F000A5209091A620DC01ED91FC910280F3815D
:101A0000E02D099581110BC010E0812FDF91CF915E
:101A10001F910F91FF90EF90DF90CF9008958091EC
:101A2000A5209091A620DC01ED91FC910480F58128
:101A3000E02DA701B8010995182F882329F380917B
:101A4000A5209091A620DC01ED91FC9100A0F1A1D0
:101A5000E02D0995F82E8091A5209091A620DC011B
:101A6000ED91FC91068CF78DE02D0995E82E809183
:101A7000A5209091A620DC01ED91FC9102A0F3A19C
:101A8000E02D0995082F8091A5209091A620DC01DA
:101A9000ED91FC9104A0F5A1E02D099587FDB4CF4F
:101AA000BFEFEB1629F04F2D602FCE010E94B90C2D
:101AB000CF0DD11D8B85801709F4A6CFF601F082DA
:101AC0000B87A3CF9FB7F8948091E017882319F074
:101AD00081508093E0178091E017811105C08CB58B
:101AE0008F7B8CBD109203189FBF08958CB58F77A4
:101AF0008CBD08958CB580688CBD0895FC017383FE
:101B000062830895FC01778366830895FC017583E1
:101B100064830895089580E00895FC018185089507
:101B2000FC0180850895FC0187810895FC01868170
:101B300008954095FC0125854223642B658708950F
:101B4000FC0164870895FC0163870895FC016287A6
:101B50000895FC0164830895FC01658308958F92C4
:101B60009F92AF92BF92CF92DF92EF92FF92CF936C
:101B7000DF93EC016B010E94EE094B015C01F12C3B
:101B8000E12C0E94EE09681979098A099B096C15F4
:101B90007D058E059F0580F48A819B81039789F3DB
:101BA00081E0DF91CF91FF90EF90DF90CF90BF90D9
:101BB000AF909F908F90089580E0F3CFFC01228139
:101BC000338123303105D1F381E008958F929F92C4
:101BD000AF92BF92CF92DF92EF92FF92CF93DF93BB
:101BE000EC016B010E94EE094B015C01F12CE12C30
:101BF0000E94EE09681979098A099B096C157D050F
:101C00008E059F05A0F4E881F9810280F381E02D23
:101C1000CE010995882361F3DF91CF91FF90EF907A
:101C2000DF90CF90BF90AF909F908F90089580E00D
:101C3000F3CFCF93DF93EC01E881F9810280F38148
:101C4000E02DCE0109958823B9F3DF91CF91089556
:101C500081E008951F93CF93DF93EC01162F8881C5
:101C60009981DC01ED91FC910288F389E02D0995C1
:101C700088819981DC01ED91FC910688F789E02D3E
:101C8000612F09951A83DF91CF911F910895CF920B
:101C9000DF92EF92FF920F931F93CF936B017C0122
:101CA000142F8091A5209091A620DC01ED91FC914C
:101CB0000190F081E02D0995C82F882309F16091EA
:101CC000A72085EA90E20E942A0E8CE291E0909390
:101CD000AE208093AD2083E08093AF20612F85EA12
:101CE00090E20E942A0E0091A5201091A620B70133
:101CF000A601C8010E94DD0A61E1C8010E94A10A93
:101D00008C2FCF911F910F91FF90EF90DF90CF908C
:101D100008952091BD17260F3327331F2132310537
:101D2000ECF420916A1AFC0190E080E0243069F024
:101D300082E00895A091BD172191AC014356584E01
:101D4000A40FB52FB11D2C930196861798F380919F
:101D5000BD17680F6093BD1780E0089581E0089576
:101D600010926A1A81E08093691A1092441A61E015
:101D700081E10E94DC0861E080E10E94DC08E9EB7F
:101D8000F0E080818E7F808380818D7F808380E200
:101D90008093B80085E48093BC0008951092991A4E
:101DA0001092981A1092971A1092961A0E94B00EDA
:101DB00080E996E09093951A8093941A81E996E0D1
:101DC0009093931A8093921A0895CF93DF9391E0A2
:101DD00090939C178823B9F0C091B800D091BA00B5
:101DE0008091BC008A7B8093BC0060E081E10E940E
:101DF000DC0860E080E10E94DC080E94B00ED09315
:101E0000BA00C093B800DF91CF9108958F929F924E
:101E1000AF92BF92CF92DF92EF92FF920F931F93F8
:101E2000CF93DF93D091961AD13208F0D7C0182FF4
:101E3000C091911A0E9450096B017C0180916A1A2D
:101E400081116BC082E080936A1A1093691A8FEF38
:101E50008093681A1092671AD093661AA1E7BAE1C4
:101E6000E6E4FAE180E0D81391C01092451A80911F
:101E7000451ACC0FC82BC093451A8091441A813063
:101E800009F088C01092441A0E9450096B017C012D
:101E90008091451A8093BB0080916C1A90916D1AC5
:101EA000A0916E1AB0916F1A892B8A2B8B2BA1F0FF
:101EB0000E94500900916C1A10916D1A20916E1AAF
:101EC00030916F1A6C197D098E099F090617170743
:101ED0002807390708F442C08091BC0083FDD8CFA1
:101EE00085EC8093BC000E9450096B017C018091BD
:101EF0006A1A823009F450C08091681A8F3F09F441
:101F00006FC08091681A803209F46CC08091681AA1
:101F1000803309F469C084E026C080916C1A9091E6
:101F20006D1AA0916E1AB0916F1A892B8A2B8B2B88
:101F300009F484CF0E94500980906C1A90906D1A19
:101F4000A0906E1AB0906F1A6C197D098E099F09C6
:101F500086169706A806B90608F070CF80916B1A0E
:101F60000E94E50E85E01092971A1092961A109230
:101F7000701ADF91CF911F910F91FF90EF90DF903A
:101F8000CF90BF90AF909F908F9008959D91919327
:101F90008F5F69CF85EEA5CF80916C1A90916D1AF5
:101FA000A0916E1AB0916F1A892B8A2B8B2B09F492
:101FB0009ECF0E94500900916C1A10916D1A2091C9
:101FC0006E1A30916F1A6C197D098E099F090617D8
:101FD00017072807390708F08ACFC0CF81E0C3CFA1
:101FE00080E0C1CF82E0BFCF83E0BDCFCF92DF9250
:101FF000EF92FF920F931F93CF93DF93D82FC62FAB
:10200000613208F098C00E9450096B017C018091F8
:102010006A1A81116BC081E080936A1A8093691AF1
:102020009FEF9093681A1092671A9C0F9093661A0C
:102030008093451A8091451ADD0FD82BD093451A0D
:102040008091441A813009F078C01092441A0E949D
:1020500050096B017C018091451A8093BB008091EF
:102060006C1A90916D1AA0916E1AB0916F1A892B0B
:102070008A2B8B2BA1F00E94500900916C1A1091B1
:102080006D1A20916E1A30916F1A6C197D098E09A4
:102090009F09061717072807390708F448C08091D9
:1020A000BC0083FDD8CF85EC8093BC000E94500912
:1020B0006B017C0180916A1A813009F440C08091E3
:1020C000671A8C1710F4C091671AE6E4FAE1A4E2EB
:1020D000BAE180E08C1355C08C2FDF91CF911F9116
:1020E0000F91FF90EF90DF90CF90089580916C1A40
:1020F00090916D1AA0916E1AB0916F1A892B8A2B4C
:102100008B2B09F484CF0E94500900916C1A109116
:102110006D1A20916E1A30916F1A6C197D098E0913
:102120009F09061717072807390708F070CF809115
:102130006B1A0E94E50EC0E0CFCF85EEB5CF80913F
:102140006C1A90916D1AA0916E1AB0916F1A892B2A
:102150008A2B8B2B09F4AECF0E94500900916C1A88
:1021600010916D1A20916E1A30916F1A6C197D09B9
:102170008E099F09061717072807390708F09ACF15
:10218000D6CF91919D938F5FA5CF0895E091991A35
:102190008091981AE81730F4F0E0EC5DF54E8081FC
:1021A00090E008958FEF9FEF08959091991A809194
:1021B000981A2FEF3FEF981748F4E92FF0E0EC5D05
:1021C000F54E208130E09F5F9093991AC9010895E0
:1021D0008091981A9091991A891B990B0895CF9222
:1021E000DF92EF92FF920F931F93CF93DF937C01C7
:1021F000CB018A012091701A222389F0EB016B0137
:10220000C40ED51ECC15DD0569F06991D701ED919D
:10221000FC910190F081E02DC7010995F3CF642F67
:102220000E94890EC801DF91CF911F910F91FF90FD
:10223000EF90DF90CF900895CF93DF931F92CDB7AB
:10224000DEB769832091701A2223F9F02091961A43
:10225000203258F021E030E0FC013383228390E00B
:1022600080E00F90DF91CF9108958091971AE82F29
:10227000F0E0EF58F54E998190838F5F8093971A25
:102280008093961A81E090E0ECCF61E0CE01019658
:102290000E94890EF7CFCF93C62F91E09093701ACA
:1022A00098E69093911A1092971A1092961A682FA6
:1022B00086E194E20E941C116C2F86E194E20E9458
:1022C0001C1181E0CF910C94060FCF93CFB7F894F7
:1022D0008091E017811127C0E2EBFBE08491E2EDF1
:1022E000FBE09491E82FF0E0EE0FFF1FE057F44F72
:1022F000A591B491EC91E92321F461E084E00E947E
:10230000DC0861E084E00E940A098CB580618CBD24
:102310008CB580648CBD61E087E00E940A0961E0B1
:1023200085E00E940A098091E0178F5F8093E01793
:10233000CFBFCF910895FC0126813781211531054A
:1023400091F12130310559F12230310551F123301D
:10235000310549F52CE09CB5937F922B9CBD84817F
:102360009581019711F58CB580628CBD8281938136
:10237000019784309105E0F482599E4FFC019081D1
:102380008CB58C7F292F2370822B8CBD8DB592FB51
:10239000992790F98E7F892B8DBD0C94651124E0CF
:1023A000DACF28E0D8CF20E0D6CF8CB58F7DDDCF37
:1023B00095E0E6CF9FB7F894209103188091961787
:1023C000213019F48DBB9FBF08958FBF089561E040
:1023D000FC0184810E94DC0880919517882339F0E4
:1023E000109295178091031881110C94DA110895B9
:1023F0008EBD00000DB407FEFDCF8EB50895862F6B
:102400000C94F8118FEF0C94F8110F931F93CF9346
:10241000DF93EC010E94EE098B010E9402128F3FB4
:1024200069F00E94EE09601B710B6C177D07A8F321
:1024300080E0DF91CF911F910F91089581E0F9CF56
:1024400020910318222361F02FB7F89430910318DC
:10245000313049F43DB3309396173DB33DBB2FBFA8
:102460008CBD9DBD089520939617FACFCF93DF932F
:10247000EC0180919517811109C081E08093951737
:102480008091D41E9091D51E0E94201260E08C8114
:10249000DF91CF910C94DC088F929F92AF92BF9204
:1024A000FF920F931F93CF93DF93EC01F62E490118
:1024B0005A018E81882389F08F8198859C012F5F36
:1024C0003F4F38872F838230924018F40E940212C7
:1024D000F3CFCE010E94E7111E82CE010E94361278
:1024E0008CE291E00E9405128F2D80640E94F81109
:1024F00008E110E0D501C401002E04C0B695A795EF
:10250000979587950A94D2F70E94F81108501109FF
:10251000083F8FEF180771F785E9FF2021F028E0C9
:1025200087E8F2128FEF0E94F81110E00E94021269
:102530008A8787FF04C01F3F11F01F5FF7CFDF912D
:10254000CF911F910F91FF90BF90AF909F908F9070
:102550000895AF92BF92CF92DF92EF92FF920F93C6
:102560001F93CF93DF93EC016901C801820F931F82
:102570008130924050F58E81882379F0888199814D
:10258000AA81BB8184179507A607B70731F48F810D
:102590009885C816D90608F042C0488359836A83D3
:1025A0007B838B85833039F089E0440F551F661F8C
:1025B000771F8A95D1F79A01AB0161E1CE010E94A4
:1025C0004C12882389F083E08D83CE010E94E711AD
:1025D00080E0DF91CF911F910F91FF90EF90DF90FE
:1025E000CF90BF90AF9008950E94EE095B010E94CA
:1025F00002128A878F3F69F40E94EE096A197B09EB
:102600006D327140A0F38FE08D83CE010E94E711FF
:10261000DCCF8E3F89F418861F8281E08E838F8104
:1026200098858C159D0550F40E9402128F81988523
:10263000019698878F83F3CF8DE0E6CF6701E00E98
:10264000F11E0E940212F60181936F01EE15FF0543
:10265000C1F78F819885080F191F18870F83898507
:10266000882319F001151240A0F08E81882389F08B
:102670008F8198859C012F5F3F4F38872F83823051
:10268000924018F40E940212F3CFCE010E94E7118B
:102690001E8281E09ECFCF92DF92EF92FF920F9346
:1026A000CF93DF93EC01690182E14115510561058A
:1026B000710599F08B85833039F089E0440F551FFF
:1026C000661F771F8A95D1F79A01AB0168E1CE01A9
:1026D0000E944C12882319F084E08D832DC08EEF68
:1026E0000E94F81176018EEFD81AF70181917F01CF
:1026F0000E94F811EC14FD04C1F78FEF0E94F8114D
:102700008FEF0E94F8110E9402128A878F71853024
:1027100071F4011116C0CE010E94E71181E0DF9132
:10272000CF910F91FF90EF90DF90CF90089581E1CE
:102730008D83CE010E94E711CE010E94E71180E057
:10274000EECF88E592E00E940512811102C085E17A
:10275000C4CF20E030E0A9016DE0CE010E944C1210
:10276000882311F084E1B9CF0E9402128111FACFBF
:10277000D2CF0F93409198175091991760919A1763
:1027800070919B17411551056105710599F0082F4E
:1027900026E038E180910418909105180E944B13AF
:1027A000882349F0109298171092991710929A174F
:1027B00010929B1781E00F9108950F93CF93C82F2C
:1027C00080919717811105C0C1E08C2FCF910F9197
:1027D0000895409126015091270160912801709140
:1027E00029010C2F26E038E18091041890910518FA
:1027F0000E944B13811102C0C0E0E7CFCC2321F32C
:1028000081E00E94B9138823B9F310929717DDCFA6
:102810008F929F92AF92BF92EF92FF920F931F936E
:10282000CF934B015C01C42F809126019091270129
:10283000A0912801B091290188159905AA05BB0529
:1028400051F181E00E94DD1381110BC080E0CF9136
:102850001F910F91FF90EF90BF90AF909F908F903E
:10286000089586E0E82E88E1F82E00E012E030E0DE
:1028700020E0B501A40180910418909105180E94F0
:10288000A912882319F38092260190922701A09221
:102890002801B0922901409197174C2B409397172C
:1028A00081E0D5CFCF93DF93EC016E857F8588895A
:1028B000998941E00E940814882351F08A8920E216
:1028C000829FC00111248A5F974EDF91CF910895B6
:1028D00090E080E0FACF8F929F92AF92BF92CF921A
:1028E000DF92EF92FF92CF9326ED3EE130930518F1
:1028F00020930418882309F46DC040E060E070E084
:10290000CB010E94081481110BC080E0CF91FF9091
:10291000EF90DF90CF90BF90AF909F908F900895F1
:102920008091C4198F7789F78091D0199091D1192E
:10293000A091D219B091D31984369105A105B105A2
:1029400020F3C090CC19D090CD19E090CE19F09022
:10295000CF19C114D104E104F104B9F240E0C70178
:10296000B6010E940814882381F280911118909179
:1029700012188115924049F6A0911618AA2329F23F
:1029800060911418709115186115710509F4BDCF87
:1029900020911318222309F4B8CFA093F41E20939A
:1029A000E61E90E080E030E0E1E0F0E0C82FAF010B
:1029B000082E02C0440F551F0A94E2F7241735076A
:1029C00069F041E0480F01968930910579F740930D
:1029D000EF1E9BCFC12CD12C7601C0CF8093EF1E70
:1029E00020911C1830911D1850E040E02115310550
:1029F00041F420912A1830912B1840912C185091B5
:102A00002D182093E71E3093E81E4093E91E509343
:102A1000EA1E46015701860E971EA11CB11C80922A
:102A2000F51E9092F61EA092F71EB092F81EE0914D
:102A30001718F0911818F093FB1EE093FA1EB0E0FF
:102A40000E948967DC01CB01880D991DAA1DBB1D61
:102A50008093FC1E9093FD1EA093FE1EB093FF1E5C
:102A600025E0EE0FFF1F2A95E1F7E150FE4FEF2F13
:102A7000FF27E6958E0F9F1FA11DB11D8093F01EAD
:102A80009093F11EA093F21EB093F31E809019183C
:102A900090901A18B12CA12C8114910441F48090CB
:102AA000261890902718A0902818B0902918C81AB6
:102AB000D90AEA0AFB0AC80CD91CEA1CFB1C04C090
:102AC000F694E794D794C794CA95D2F7C092EB1EB8
:102AD000D092EC1EE092ED1EF092EE1E85EFC8162D
:102AE0008FE0D806E104F10428F48CE08093F91E0D
:102AF00081E00CCF80E125EFC2162FEFD206E10472
:102B0000F104A0F38091321890913318A0913418F9
:102B1000B09135188093FC1E9093FD1EA093FE1E6D
:102B2000B093FF1E80E2E2CF4F925F926F927F924E
:102B30008F929F92AF92BF92CF92DF92EF92FF92CD
:102B40000F931F93CF93DF93EC0142305105610542
:102B5000710590F480E0DF91CF911F910F91FF906C
:102B6000EF90DF90CF90BF90AF909F908F907F902D
:102B70006F905F904F90089589859A85AB85BC854D
:102B80000196A11DB11D84179507A607B70710F37D
:102B9000CB88DC88ED88FE888F89803109F042C0BF
:102BA000BB27A72F962F852F480159012A013B01EA
:102BB000C80ED91EEA1EFB1E8091260190912701A6
:102BC000A0912801B0912901C816D906EA06FB0692
:102BD00099F58F898031C1F5B301A2015527662788
:102BE0007727440F551F4A5F574EFA019182808222
:102BF000809197178160809397178A89823080F03F
:102C00008D819E81AF81B8858C0D9D1DAE1DBF1D30
:102C10008093981790939917A0939A17B0939B1746
:102C200081E099CFDB01CA01E7E0B695A7959795BA
:102C30008795EA95D1F7B8CF40E0C701B6010E9469
:102C400008148111C6CF86CFB301A2014F77552753
:102C500066277727440F551F440F551F4A5F574E6D
:102C6000FA0180829182A282B382C2CF8F929F9218
:102C7000AF92BF92CF92DF92EF92FF920F931F938A
:102C8000CF93DF93FC0181859285A385B48501965E
:102C9000A11DB11D84179507A607B70770F480E042
:102CA000DF91CF911F910F91FF90EF90DF90CF9028
:102CB000BF90AF909F908F90089583889488A58847
:102CC000B6888789803189F5BB27A72F962F852F56
:102CD000E9016A017B018F01BC01CD01680D791DFD
:102CE0008A1D9B1D8090260190902701A0902801AD
:102CF000B090290186169706A806B90601F5F801D5
:102D00008789803111F5DD24EE24FF24F601EE0FD2
:102D1000FF1FEA5FF74E80819181B0E0A0E08883D9
:102D20009983AA83BB8381E0BBCFDB01CA01C7E0E3
:102D3000B695A79597958795CA95D1F7C9CF40E0E5
:102D40000E9408148111DBCFAACFE894C7F8DD24D4
:102D5000EE24FF24F601EE0FFF1FEE0FFF1FEA5FC8
:102D6000F74E80819181A281B381BF70D8CF4F92FD
:102D70005F926F927F92AF92BF92CF92DF92EF926B
:102D8000FF920F931F93CF93DF9300D000D0CDB766
:102D9000DEB78C0149835A836B837C835901C12C34
:102DA000D12C7601412C82E0582E612C712C498166
:102DB0005A816B817C819E012F5F3F4FC8010E9429
:102DC0003616882339F1F8018585A301920104C0E4
:102DD000220F331F441F551F8A95D2F7DA01C9010C
:102DE000C80ED91EEA1EFB1E49815A816B817C8167
:102DF0008789803111F188EF9FEFAFEFBFE048176F
:102E000059076A077B0798F2F501C082D182E282F6
:102E1000F38281E00F900F900F900F90DF91CF9190
:102E20001F910F91FF90EF90DF90CF90BF90AF90E8
:102E30007F906F905F904F90089588EF9FEFA0E094
:102E4000B0E0DDCFCF93DF93FC012581222321F079
:102E500080E0DF91CF910895EC018091F91E8031DF
:102E600059F582E08583178A108E118E128E80911B
:102E7000FA1E9091FB1EB0E0A0E025E0880F991F9C
:102E8000AA1FBB1F2A95D1F7838B948BA58BB68B7A
:102E900082EE9EE19C8F8B8F81E08C831E821F824D
:102EA000188619861A861B861C861D861E861F8616
:102EB000188A198A1A8ACDCF803251F683E0858329
:102EC0004091FC1E5091FD1E6091FE1E7091FF1EF0
:102ED000478B508F618F728F9F012D5E3F4F82EE27
:102EE0009EE10E94B7168111D3CFB2CF8F929F92ED
:102EF000AF92BF92CF92DF92EF92FF920F931F9308
:102F0000CF93DF93EC018D8181110EC080E0DF91C2
:102F1000CF911F910F91FF90EF90DF90CF90BF90D6
:102F2000AF909F908F9008950B891C892D893E89C1
:102F3000041715072607370748F34A015B0182305B
:102F400031F48A869B86AC86BD8681E0E0CF811411
:102F50009104A104B10449F41E821F8218861986C7
:102F60001A861B861C861D86F0CF0A851B852C853C
:102F70003D85EB8DFC8D858590E00996B901A80112
:102F80004150510961097109082E04C07695679571
:102F9000579547950A94D2F775016401E1E0CE1A7E
:102FA000D108E108F10804C0F694E794D794C794D7
:102FB0008A95D2F7C416D506E606F70620F0012B4F
:102FC000022B032B11F58F89988DA98DBA8D8E83D5
:102FD0009F83A887B9878E010A5F1F4FC114D10450
:102FE000E104F10409F4ADCF4E815F8168857985F4
:102FF00098018B8D9C8D0E94361691E0C91AD108DC
:10300000E108F1088111EACF81CFC41AD50AE60A96
:10301000F70AE1CF3F924F925F926F927F928F9229
:103020009F92AF92BF92CF92DF92EF92FF920F9357
:103030001F93CF93DF93CDB7DEB72C970FB6F894DD
:10304000DEBF0FBECDBF5C01DC015B968D909C9016
:103050005C9716964D905D906D907C9019974114F9
:1030600051046104710409F468C0BFEF4B1A5B0A94
:103070006B0A7B0A312CF40181859285A385B48586
:103080009C01AD012F5F3F4F4F4F5F4F29873A871C
:103090004B875C87730162011D821E821F82188626
:1030A000F40181859285A385B4852D813E814F8170
:1030B0005885281739074A075B0708F056C08985E5
:1030C0009A85AB85BC858C159D05AE05BF0550F472
:1030D00082E0C82ED12CE12CF12C92E0492E512C0B
:1030E000612C712C9E012F5F3F4FB701A601C401D7
:1030F0000E9436168823C9F189819A81AB81BC81EF
:10310000892B8A2B8B2B09F1260137019FEF491A56
:10311000590A690A790A2D813E814F8158852F5FAE
:103120003F4F4F4F5F4F2D833E834F8358873FEF75
:10313000C31AD30AE30AF30AB3CFF40140805180E3
:10314000628073803324339496CFC414D504E6048C
:10315000F70409F70FEF1FEF2FEF3FE0B701A601CC
:10316000C4010E949415811119C080E02C960FB6FD
:10317000F894DEBF0FBECDBFDF91CF911F910F91AD
:10318000FF90EF90DF90CF90BF90AF909F908F9087
:103190007F906F905F904F903F900895D501169665
:1031A0004D915D916D917C91199741155105610586
:1031B000710539F097018601C4010E949415882396
:1031C000A1F2D5011696CD92DD92ED92FC9219975F
:1031D000332051F0D701C6010196A11DB11DF401A4
:1031E00080839183A283B383F5018789908DA18D1C
:1031F000B28D892B8A2B8B2B39F48481C78AD08E90
:10320000E18EF28E80688483F501848180628483FC
:1032100081E0ACCF2F923F924F925F926F927F925C
:103220008F929F92AF92BF92CF92DF92EF92FF92D6
:103230000F931F93CF93DF93EC015B012A018D81E4
:10324000811115C08FEF9FEFDF91CF911F910F91EB
:10325000FF90EF90DF90CF90BF90AF909F908F90B6
:103260007F906F905F904F903F902F9008958C814A
:1032700080FFE8CF0B891C892D893E894A855B85B3
:103280006C857D85C201B0E0A0E068017901C41AB7
:10329000D50AE60AF70AC816D906EA06FB0618F4A4
:1032A0002801441A550A42011E0126E0220E311C53
:1032B0008114910409F4B3C04A855B856C857D85D2
:1032C0006A0181E0D8228B8D9C8D8A019B01E9E007
:1032D0003695279517950795EA95D1F7ED81E23058
:1032E000E1F5FC01628D738D848D958D600F711FEA
:1032F000821F931F612C22E0722E6C187D088614A9
:10330000970408F434012C8126FD04C06114F2E016
:103310007F0671F400912601109127012091280168
:1033200030912901061717072807390709F053C0FC
:1033300040E00E940814882309F484CFC6018A5F04
:10334000974ED5019C01260D371DFC012E173F0716
:1033500009F460C041914D93F9CFFC0174807A94D7
:103360007022C114D10471F471100CC0452B462B8E
:10337000472B39F58F89988DA98DBA8D8E839F83C0
:10338000A887B987EB8DFC8D6E817F8188859985B3
:103390006250710981099109258504C0660F771F64
:1033A000881F991F2A95D2F70685178520893189AC
:1033B000600F711F821F931F670D711D811D911D6D
:1033C00099CF4E815F816885798591010E9436167B
:1033D0008111D8CF37CF750183019601AB01BC01B4
:1033E00080910418909105180E94A912882309F46D
:1033F00029CFA60CB71C8A859B85AC85BD85860D1B
:10340000971DA11DB11D8A879B87AC87BD87861834
:1034100097084ECF281B390BA20EB31EECCFC2016A
:1034200013CF1F93CF93DF93FC012581222371F1EA
:10343000162FEC01848187FF1EC0CF010E94521419
:10344000FC01892B19F18D81823040F48B899C8994
:10345000AD89BE89848F958FA68FB78F8F89988D00
:10346000938F828F8F89988DA98DBA8DB58BA48B00
:103470008C818F778C83111103C08C818F7E8C831C
:10348000812FDF91CF911F910C94DD1380E0DF91AC
:10349000CF911F910895FF920F931F93CF93DF93C6
:1034A000EC018D81813041F090E080E0DF91CF919F
:1034B0001F910F91FF9008958C8181FFF5CF82FDC0
:1034C0001BC00091041810910518C8010E94361203
:1034D0000E940212F82EC8010E94E7118FEFF81225
:1034E000E3CF8C8185FF1BC060E0CE010E94111AE2
:1034F0008C818F7D8C83D8CF4B895C896D897E8947
:103500008A859B85AC85BD8584179507A607B70777
:10351000C1F2CE010E9476178111D3CFC5CF409161
:1035200098175091991760919A1770919B17452B96
:10353000462B472B21F080E00E94B913B5CF806164
:103540008C832A853B85317080E092E0821B930B4F
:10355000ADCFCF93DF93EC0161E00E94111A882375
:1035600011F01D8281E0DF91CF910895CF92DF921B
:10357000EF92FF921F93CF93DF938091051F8823D3
:1035800021F080E09FE10E94A91A1092E11E1092A2
:10359000DF1E1092DC1E1092DB1E83E08093DA1E89
:1035A0000E94EE09EB0161E08091DA1E0E940A0997
:1035B00061E08091DA1E0E94DC080E94651182E5BC
:1035C0008093D41E81E08093D51E8091D41E90916B
:1035D000D51E0E9420121AE08FEF0E94F8111150A0
:1035E000D9F78091031881110E94DA1186ED9EE1CE
:1035F0000E94361220E030E0A90160E086ED9EE1F5
:103600000E944C12182F8093E01E813081F00E949E
:10361000EE096C1B7D0B613D774060F381E0809388
:10362000DB1E86ED9EE10E94E71190E078C02AEA59
:1036300031E040E050E068E086ED9EE10E944C12EF
:1036400082FF2AC01093E11E8091E11EC12CD12C73
:103650007601823029F4C12CD12CE12C80E4F82EA3
:1036600020E030E0A90167E386ED9EE10E944C1264
:10367000A701960169E286ED9EE10E944C128093BB
:10368000E01E8823C1F00E94EE096C1B7D0B613D9A
:10369000774030F388E0C3CF14E00E940212809399
:1036A000E01E1150D1F78A3A11F082E0B8CF82E0E3
:1036B0008093E11EC9CF8091E11E8230D1F420E0D9
:1036C00030E0A9016AE386ED9EE10E944C12882356
:1036D00011F086E0A4CF0E940212807C803C19F495
:1036E00083E08093E11E0E9402120E9402120E9457
:1036F000021286ED9EE10E94E71180E58093D41EC0
:1037000081E08093D51E0E946B14882389F080E0AD
:103710009FE10E94221791E0882309F486CF892F28
:10372000DF91CF911F91FF90EF90DF90CF900895A0
:1037300080E00E946B14882309F477CFE8CF2F92A2
:103740003F924F925F926F927F928F929F92AF9231
:10375000BF92CF92DF92EF92FF920F931F93CF937E
:10376000DF9300D000D01F92CDB7DEB77C015B01A4
:10377000342E5D83DC0115968C911597813009F00C
:10378000CEC014962C9021FECAC022FCB4C0C32C1B
:10379000DD8022947FE027222094B22DB1702B2E61
:1037A000D7011A964D915D916D917C911D97C11431
:1037B000D10409F428C15B968D919C915C97FC0122
:1037C00074807A948A019B0169E036952795179554
:1037D00007956A95D1F770228A011170711020C087
:1037E00001151105E9F416964D915D916D917C914D
:1037F0001997411551056105710509F099C0579652
:103800008D919D910D90BC91A02D0097A105B105C2
:1038100009F0B0C0C7010E940A18882309F47FC0CC
:1038200080E092E0801B910B46018C159D0508F409
:103830004C01D7015B964D915C915C9716968D91EA
:103840009D910D90BC91A02D0297A109B109FA019B
:10385000258504C0880F991FAA1FBB1F2A95D2F780
:103860004685578560897189840F951FA61FB71FEC
:103870009C01AD01270D311D411D511D29013A014A
:10388000811432E0930609F07BC08091260190916B
:103890002701A0912801B091290184159505A6055D
:1038A000B70559F48FEF9FEFDC01809326019093C9
:1038B0002701A0932801B0932901022D9501B3019E
:1038C000A20180910418909105180E944B1388233F
:1038D00031F19EEFB91AC818D908F701828593858E
:1038E000A485B585880D991DA11DB11D828793877B
:1038F000A487B58755CFF7014389548965897689AF
:1039000082859385A485B585481759076A077B0783
:1039100009F43DCFC7010E947617811138CF81E0AD
:1039200090E0D70113969C938E93129780E007C086
:103930009E012F5F3F4F0E943616811102C090E01A
:1039400079C089819A81AB81BC81F701238D348D47
:10395000F901278948EF5FEF60E070E0203121F046
:1039600048EF5FEF6FEF7FE084179507A607B70773
:1039700008F050CFF70186839783A087B18750CF97
:103980000115110599F5D7011A964D915D916D912B
:103990007C911D9753968D919D910D90BC91A02D7A
:1039A000481759076A077B0708F181E00E94DD1379
:1039B000882309F4B4CF40922601509227016092E7
:1039C0002801709229018091971781608093971741
:1039D000C8018A5F974ED5019C01280D391DFC0155
:1039E0002E173F0759F04D914193FACF41E0C301A3
:1039F000B2010E9408148111EBCF91CF281B390B23
:103A0000A20EB31E68CFF70183899489A589B68970
:103A100084179507A607B70738F48481438B548B26
:103A2000658B768B80688483F701848183FD1AC05F
:103A3000832D9D810F900F900F900F900F90DF912D
:103A4000CF911F910F91FF90EF90DF90CF90BF909B
:103A5000AF909F908F907F906F905F904F903F902E
:103A60002F90089561E0C7010E94111A882309F47C
:103A700056CFDECFCF93DF931F92CDB7DEB76983EA
:103A800041E050E0BE016F5F7F4F0E949F1B0F908F
:103A9000DF91CF910895FC01DB0112968D919C91ED
:103AA00013979383828384EC91E0918380831496AF
:103AB0008C911497848315968C911597858316960F
:103AC0004D915D916D917C911997468357836087E5
:103AD00071871A964D915D916D917C911D974287EA
:103AE0005387648775871E964D915D916D917C918A
:103AF000519746875787608B718B52968C9152975E
:103B0000828B53964D915D916D917C915697438B2D
:103B1000548B658B768B57964D915D916D917C9111
:103B20005A97478B508F618F728F5B968D919C91C6
:103B3000948F838F0895DC015996ED91FC91309715
:103B400021F081E09581911101C080E00895FC0190
:103B5000818D928D009719F061E00C94111A0895EF
:103B6000DC015996ED91FC913097B9F083899489E5
:103B7000A589B6894285538564857585841B950B17
:103B8000A60BB70B811520E89207A105B10538F007
:103B90008FEF9FE7A0E0B0E0089590E080E0089507
:103BA000DC0159968D919C91009739F0DC01ED91E3
:103BB000FC910480F581E02D099490E080E0089567
:103BC000CF93DF93EC01E98DFA8D309749F481E0D2
:103BD00090E09B838A8390E080E0DF91CF9108950D
:103BE00013821282898D9A8D0E949F1BE98DFA8D16
:103BF00022813381232B59F7F0CFCF93DF931F928C
:103C0000CDB7DEB76983DC01ED91FC910280F381D1
:103C1000E02D41E050E0BE016F5F7F4F09950F90AE
:103C2000DF91CF910895CF93DF931F92CDB7DEB789
:103C300041E050E0BE016F5F7F4F0E940A1901977B
:103C400031F4898190E00F90DF91CF9108958FEF4B
:103C50009FEFF9CF1F93CF93DF93FC012581223093
:103C600030F490E080E0DF91CF911F910895EC0156
:103C7000428553856485758585E07695679557956A
:103C800047958A95D1F7142F1F70CF010E94131EFC
:103C900097FDE7CF8A859B85AC85BD854F96A11D95
:103CA000B11D8A879B87AC87BD87F0E21F9FC0014B
:103CB00011248A5F974ED7CFFC01818D928D00979A
:103CC00011F00C94131E8FEF9FEF08950F931F9325
:103CD000CF93DF93EC01898D9A8D10E000E000977F
:103CE00099F00E94131E8C010F3F100769F0898D17
:103CF0009A8DFC0142855385648575854150510933
:103D0000610971090E947617C801DF91CF911F9157
:103D10000F910895CF93DF93EC01FB018281938192
:103D20009B838A8384819581A681B7818C839D83BF
:103D3000AE83BF8380859185A285B3858887998767
:103D4000AA87BB8780ED91E0998388838DE03C96BC
:103D5000DE011C9601900D928A95E1F7FB01818DA1
:103D6000928D9A8F898FDF91CF910895CF92DF92B4
:103D7000EF92FF92CF93DF9360E08DE10E940A09FA
:103D80008DE10E943B09B0E0A0E0BC01CD01660FCF
:103D9000771F881F991F0E94356623E333E343E5AD
:103DA00050E40E94966620E030E048EC52E40E9425
:103DB000966620E030E84FEF53E40E94CE6720E0A3
:103DC00030EC4FE754E40E943A680E94B368CB019C
:103DD00064E670E00E94F868EB01BC0190E080E0CE
:103DE0000E94356620E030E048EC52E40E943A68D8
:103DF0006B017C01BE0190E080E00E9435669B0172
:103E0000AC01C701B6010E94CE67DF91CF91FF9050
:103E1000EF90DF90CF90089560E080E00E94DC0892
:103E200068EB7BE080E090E00E94750961E080E053
:103E30000C94DC08CF93DF9380B7806880BF61E08B
:103E40008EE00E94DC0862E370E080E090E00E9477
:103E5000750988E10E943B09EC0160E08EE00E9458
:103E6000DC08BE01DD0F880B990B0E94376623EA40
:103E700036E043E55BE30E9496662EEB3FE94AEAB3
:103E80005FE30E949666DF91CF910895CF93DF9311
:103E9000FB0122813381DC0113963C932E93129710
:103EA000448155816681778114964D935D936D931E
:103EB0007C931797408551856285738518964D933D
:103EC0005D936D937C931B971C96EF012C969C0140
:103ED000275E3F4F49914D93A217B307D9F7218D24
:103EE000328DFC01328F218FDF91CF910895CF93D6
:103EF000DF9387EB9CE10E94C30789EB92E20E946B
:103F0000B40A80B78F7780BFCAE7D0E088818F7707
:103F10008883F89485B7806885BF85B7806885BF3A
:103F2000789461E081E00E94DC088CB58F7B8CBDC9
:103F300061E085E00E940A0960E085E00E94DC08FB
:103F400083B7817F846083BF83B7816083BF7894A8
:103F5000EBE6F0E0808184608083E8E6F0E0808139
:103F60008160808383B7816083BF889583B78E7FAC
:103F700083BF88818068888360E081E00E94DC08DC
:103F80008CB580648CBD40E051EE60E070E087EB62
:103F90009CE10E94920668EE73E080E090E0DF9181
:103FA000CF910C94750990E080E00895282F30E0BF
:103FB00094E0359527959A95E1F7922F990F990FEF
:103FC000291B220F820F089581E08093701A88E6E2
:103FD0008093911A1092971A1092961A60E086E1D7
:103FE00094E20E941C1181E00E94060F811142C0E0
:103FF00067E088E60E94F60F1092991A8093981A4B
:1040000086E194E20E94D5108F770E94D61F80939C
:104010001D1A86E194E20E94D5100E94D61F80935B
:104020001E1A86E194E20E94D5108F7B0E94D61F53
:1040300080931F1A86E194E20E94D5108093201A83
:1040400086E194E20E94D5100E94D61F8093211A27
:1040500086E194E20E94D5108F770E94D61F80934C
:10406000221A86E194E20E94D5100E94D61F825E39
:104070008093231A80911D1A8093101380911E1A29
:104080008093FB1780911F1A8093FC178091211A4F
:10409000809313138091221A809314138091231A12
:1040A00090E08E54984F909312138093111362E313
:1040B00070E080E090E00C947509CF9391E09093CC
:1040C000701A98E69093911A1092971A1092961A75
:1040D000682F86E194E20E941C1181E00E94060F85
:1040E00081110DC061E088E60E94F60F1092991AC6
:1040F0008093981A86E194E20E94D510C82F8C2FE5
:10410000CF9108951F93CF93DF9381E08093701A2E
:1041100088E68093911A1092971A1092961A60E08E
:1041200086E194E20E941C11CDE1DAE128811AE0D7
:10413000822F612F0E94EC68682F660F680F660F50
:10414000620F86E194E20E941C112981822F612F67
:104150000E94EC68682F660F680F660F620F86E199
:1041600094E20E941C112A81822F612F0E94EC6828
:10417000682F660F680F660F620F86E194E20E9457
:104180001C116B8186E194E20E941C112C81822F0C
:10419000612F0E94EC68682F660F680F660F620F30
:1041A00086E194E20E941C112D81822F612F0E94D2
:1041B000EC68682F660F680F660F620F86E194E265
:1041C0000E941C112E812E51822F612F0E94EC68BB
:1041D000682F660F680F660F620F86E194E20E94F7
:1041E0001C1181E00E94060FC82F8FE00E945D2005
:1041F000682F6F778FE00E944B118C2FDF91CF914A
:104200001F910895CF93DF93C82FD62F8EE00E9481
:104210005D204C2F4150550B61E070E001C0660FEE
:104220004A95EAF7DD2331F0682B8EE0DF91CF91DC
:104230000C944B1160956823F8CFCF93DF93C82F70
:104240008FE00E945D20C150DD0B21E030E001C015
:10425000220FCA95EAF7982F922351F02095622FEA
:1042600068238FE00E944B1181E0DF91CF91089588
:1042700080E0FBCFCF9382E10E945D20C82F81E1D7
:104280000E945D202C2F382F37FF02C0215C3F4F4A
:10429000C90126E0959587952A95E1F7CF91089574
:1042A0008F929F92AF92BF92CF92DF92EF92FF9246
:1042B0000F931F93CF93DF9300D000D0CDB7DEB71D
:1042C000FC018581813091F080E00F900F900F907C
:1042D0000F90DF91CF911F910F91FF90EF90DF90A2
:1042E000CF90BF90AF909F908F900895848181FF71
:1042F000EBCF83899489A589B689892B8A2B8B2B4F
:1043000009F45FC07F0140E050E0BA01CF010E9494
:1043100076178823C9F2F701C38CD48C8788908CD8
:10432000A18CB28C82E090E0A0E0B0E0F601808346
:104330009183A283B3839E012F5F3F4FB501A401F8
:10434000C6010E943616882309F4BECF00E010E0B3
:104350009801B501A401C6010E949415882309F4AF
:10436000B3CF89809A80AB80BC80F6018789803189
:1043700019F188EF9FEFAFEFBFE088169906AA0604
:10438000BB06C8F2F701178A108E118E128E138A9F
:10439000148A158A168A84818068848361E0C70143
:1043A0000E94111A882309F48FCF40E050E0BA012F
:1043B000C7010E94761789CF88EF9FEFA0E0B0E099
:1043C000DCCF81E082CFCF93DF93EC010E945021BC
:1043D000882371F0CE010E945214009749F025EE17
:1043E000FC0120831D8281E0DF91CF910C94DD13CD
:1043F00080E0DF91CF910895CF92DF92EF92FF920C
:104400001F93CF93DF93EC0180E2689FF0011124AA
:10441000EA5FF74E9385917161F0842F827449F0C1
:1044200080E0DF91CF911F91FF90EF90DF90CF90D0
:104430000895142F6A8B8091260190912701A091F5
:104440002801B09129018E879F87A88BB98BC488DA
:10445000D588F12CE12C7601DD24CC24CF8AD88EAE
:10446000E98EFA8E828D938DB0E0A0E0AC01BD01A3
:104470004C295D296E297F294F8B588F698F7A8F40
:1044800083858871B1F4848D958DA68DB78D8B8BC6
:104490009C8BAD8BBE8B81E08D831F701C831E8235
:1044A0001F82188619861A861B861C861D8681E047
:1044B000B8CF803109F0B4CF9E012D5E3F4F8B8D78
:1044C0009C8D0E94B716882309F4AACF84E0E4CF1C
:1044D0002F923F924F925F926F927F928F929F9214
:1044E000AF92BF92CF92DF92EF92FF920F931F9302
:1044F000CF93DF9300D000D000D0CDB7DEB78C01D2
:104500006B8349838091AC2022242394280E20922F
:10451000AC20312CC12CD12C7601D3947724739408
:10452000730C8091AF20831508F4EFC08091A52013
:104530009091A620DC01ED91FC91008CF18DE02D95
:10454000622D09958091A5209091A620DC01ED9126
:10455000FC91028CF38DE02D40E860E009954981E3
:104560006B81C8010E94DB060E94D006B981BF3F63
:10457000D1F481E026960FB6F894DEBF0FBECDBF12
:10458000DF91CF911F910F91FF90EF90DF90CF902F
:10459000BF90AF909F908F907F906F905F904F9063
:1045A0003F902F90089521E0271598F48091A8203E
:1045B0009091A920A091AA20B091AB200196A11DB5
:1045C000B11D8093A8209093A920A093AA20B09316
:1045D000AB200E94EE094B015C018091AD209091CF
:1045E000AE209D838C830E944865A70196010E949E
:1045F0006A679B01AC01AC81BD810E948967A701FC
:1046000096010E946A67AC81BD812A0F3B1F372C3F
:104610002901712C612C0E94EE09681979098A0917
:104620009B09641575058605970508F077CF80917D
:10463000A5209091A620DC01ED91FC910280F381F0
:10464000E02D0995882339F38091A5209091A6202B
:10465000DC01ED91FC910480F581E02D50E040E01B
:1046600070E060E009958823B1F28091A5209091D7
:10467000A620DC01ED91FC9100A0F1A1E02D0995AF
:104680008E838091A5209091A620DC01ED91FC9174
:10469000068CF78DE02D09958A838091A520909155
:1046A000A620DC01ED91FC9102A0F3A1E02D09957B
:1046B0008C838091A5209091A620DC01ED91FC9146
:1046C00004A0F5A1E02D0995B9812E81B2130BC08C
:1046D0009091A720AA819A1306C087FF04C0BC81CD
:1046E0002B1609F446CF87FD96CF2E81E22FF0E0FE
:1046F000EB55FF4D83859C8189138DCF422F692F08
:1047000085EA90E20E94B90C86CF80E033CF0F9308
:104710001F93CF93DF934115510541F0FC010481B4
:1047200015810115110539F4FB011082DF91CF913C
:104730001F910F910895415051094017510708F4F6
:104740008A01EB01FC0160817181A801CE010E9408
:10475000376AC00FD11F1882E9CFFB0101900020FA
:10476000E9F73197AF01461B570BDC01ED91FC9146
:104770000280F381E02D09948F929F92AF92BF92B5
:10478000EF92FF920F931F93CF93DF93CDB7DEB7D6
:10479000A1970FB6F894DEBF0FBECDBF7C01FA0122
:1047A000CB0119A2223008F42AE08E010F5D1F4FC1
:1047B000822E912CB12CA12CBF01A50194010E9445
:1047C0009C67F901CA016A300CF5605DD8016E93EF
:1047D0008D01232B242B252B79F790E080E0109777
:1047E00021F0BD01C7010E94AD23A1960FB6F89438
:1047F000DEBF0FBECDBFDF91CF911F910F91FF9014
:10480000EF90BF90AF909F908F900895695CDECF3E
:10481000482F50E070E060E02AE087EB9CE10C94C8
:10482000BC23CF92DF92EF92FF920F931F93CF930F
:10483000DF9377FF1DC06A017B01EC016DE20E94EE
:104840001F078C0144275527BA014C195D096E09D1
:104850007F092AE0CE010E94BC23800F911FDF91C7
:10486000CF911F910F91FF90EF90DF90CF9008951F
:104870002AE0DF91CF911F910F91FF90EF90DF9091
:10488000CF900C94BC2363E678E00C94AD23CF93D7
:10489000DF930E940824EC0187EB9CE10E944324F3
:1048A0008C0F9D1FDF91CF910895CF92DF92EF92F1
:1048B000FF92CF930E94EE096B017C0128E9C20EA2
:1048C0002AE3D21EE11CF11CC0922A13D0922B13B2
:1048D000E0922C13F0922D13109243131092421376
:1048E000109229130E94EE096C157D058E059F0517
:1048F00048F587EB9CE10E94A8071816190694F763
:1049000064E670E080E090E00E94750987EB9CE12E
:104910000E94A8076C019093431380934213F12CDB
:10492000CAE0E0902913FC141D0464F487EB9CE1B9
:104930000E948707EC9E800D1124805380932913D9
:10494000F394EFCF80912913CF91FF90EF90DF90F8
:10495000CF900C944724CF93DF93AB01BC012AE0A6
:1049600087EB9CE10E94BC23EC0187EB9CE10E9459
:1049700043248C0F9D1FDF91CF9108950F931F93B8
:10498000CF93DF93EC01AB01770F660B770B0E949F
:1049900011248C01CE010E944324800F911FDF91CE
:1049A000CF911F910F910895CF92DF92EF92FF92D6
:1049B0000F931F93CF93DF930E94EE096B017C014D
:1049C00028E9C20E2AE3D21EE11CF11CC0922A1370
:1049D000D0922B13E0922C13F0922D1310924313CC
:1049E0001092421310922813109227130E94EE097E
:1049F0006C157D058E059F0508F046C087EB9CE190
:104A00000E94A807181619068CF764E670E080E08B
:104A100090E00E94750987EB9CE10E94A8078C0139
:104A2000909343138093421381E0809326133AE0DE
:104A3000C32ED0902613CD2DD0E0E0902713F09018
:104A400028130C171D0704F187EB9CE10E948707D0
:104A5000CC0FDD1FC85EDC4E998388838D309105B5
:104A600079F08A30910561F0C097CE9C9001CF9C7F
:104A7000300D1124820F931F9093281380932713D6
:104A8000D394D0922613D5CF609127137091281319
:104A900087EB9CE10E94BE246AE070E080E090E039
:104AA000DF91CF911F910F91FF90EF90DF90CF900A
:104AB0000C9475090F931F93CF93DF93EC010E9421
:104AC000AD238C01CE010E944324800F911FDF9102
:104AD000CF911F910F910895CF92DF92EF92FF92A5
:104AE0000F931F93CF93DF930E94EE096B017C011C
:104AF00028E9C20E2AE3D21EE11CF11C10924313D6
:104B0000109242130E94EE096C157D058E059F05DB
:104B100068F587EB9CE10E94A8071816190694F720
:104B200064E670E080E090E00E94750987EB9CE10C
:104B30000E94A807EC019093431380934213F12C39
:104B40000F2D10E0C017D10774F087EB9CE10E9495
:104B500087078D3031F08A3021F0F801E25DFC4E9C
:104B60008083F394EDCFC25DDC4E18826EE273E178
:104B700087EB9CE1DF91CF911F910F91FF90EF9018
:104B8000DF90CF900C945A250F931F93CF93DF9310
:104B9000EC01FB014481558160817181E881F981DB
:104BA0000280F381E02D09958C01CE010E944324FF
:104BB000800F911FDF91CF911F910F9108950F9357
:104BC0001F93CF93DF93EC010E9426078C01CE0147
:104BD0000E944324800F911FDF91CF911F910F916D
:104BE0000895CF93DF93EC010E94370ABE018091B4
:104BF000A3209091A4200E94DF2580E0DF91CF9137
:104C00000C94A709CF93DF93EB010E94F125882331
:104C100041F0BE0189E99FE10E94C76521E0892B2F
:104C200009F020E0822FDF91CF910895CF93DF9399
:104C30009093A4208093A32061E08091971F0E940D
:104C40000A0961E08091971F0E94DC086AE070E029
:104C500080E090E00E94750960E08091971F0E94BB
:104C6000DC0864E670E080E090E00E94750961E095
:104C70008091971F0E94DC08CEE0D0E08091A320B5
:104C80009091A420DC01ED91FC910084F185E02D50
:104C90000995892B61F08091A3209091A420DC01DB
:104CA000ED91FC910284F385E02D0995E7CF6091A9
:104CB000A1207091A22080EB9CE00E94022681112D
:104CC00054C08091A3209091A420DC01ED91FC912F
:104CD0000084F185E02D0995892B61F08091A32056
:104CE0009091A420DC01ED91FC910284F385E02DEC
:104CF0000995E7CF6AEA7CE08DEA9CE00E940226F3
:104D0000811133C064EF71E080E090E00E9475098A
:104D1000219709F0B3CF6091A1207091A22087EA7A
:104D20009CE00E94022664E670E080E090E00E9431
:104D300075096091A1207091A22084EA9CE00E94F4
:104D4000022664E670E080E090E00E9475096091C0
:104D5000A1207091A22081EA9CE00E94022664E6D4
:104D600070E080E090E00E9475096091A120709150
:104D7000A2208CE99CE00E94022664E670E080E0BC
:104D800090E00E9475096091A1207091A22087E9AE
:104D90009CE00E940226C82F882309F448C0609135
:104DA000A1207091A2208DE89CE00E94022664E67A
:104DB00070E080E090E00E9475090E94370A6CE183
:104DC00072E08091A3209091A4200E945A2581E056
:104DD0000E94A70962E87CE089E99FE10E94D96509
:104DE000892B49F183E08093981F8091981F81302F
:104DF000B1F460E272E08091A3209091A4200E941F
:104E00005A2581E00E94A70964E47CE089E99FE1DA
:104E10000E94D965892B19F086E08093981F6091D4
:104E2000A1207091A2208DE29CE00E9402268C2F8E
:104E3000DF91CF91089567E77CE089E99FE10E94C7
:104E4000D965892B11F082E0CECF6CE67CE089E950
:104E50009FE10E94D965892B11F081E0C4CF6CE5F8
:104E60007CE089E99FE10E94D965892B11F084E0FB
:104E7000BACF6CE47CE089E99FE10E94D965892B77
:104E800009F4B3CF85E0AFCF61E471E087EB9CE13B
:104E90000E94260780910A130E9408246EE371E0A5
:104EA00087EB9CE10E94260780910A13811106C0BE
:104EB0006FE271E087EB9CE10E94DF2580910A138D
:104EC000813031F46DE171E087EB9CE10E94DF25D8
:104ED00080910A13823031F462E071E087EB9CE14B
:104EE0000E94DF2580910A13833031F46BEF70E06C
:104EF00087EB9CE10E94DF2580910A13843031F416
:104F000063EF70E087EB9CE10E94DF2580910A133C
:104F1000853031F460EE70E087EB9CE10E94DF2584
:104F200064E670E080E090E00C947509611571050D
:104F300011F00C94AD2390E080E008951F93CF937F
:104F4000DF930E94E41F809117138430A9F44091ED
:104F5000FC17242F30E0C90102968231910509F433
:104F60005BC0423131F468E170E00E940C69C82FE7
:104F700012C0C9010496F7CF813071F4C091FC17BB
:104F80008C2F90E00196C23171F78091FB1783322C
:104F900008F443C0C3E1D3E02AE08C2F622F0E94C3
:104FA000EC68182F110F180F110F1C0F8D2F0E9476
:104FB000EC68682F660F680F660F6D0F8BE00E941C
:104FC0004B11612F8CE00E944B1160E88DE00E9434
:104FD0004B1180912B018823B1F08091F117811141
:104FE00012C067E272E087EB9CE10E9496278C2F4B
:104FF0000E94082463EF79E087EB9CE10E949627EA
:105000008D2F0E94472462E370E080E090E0DF9102
:10501000CF911F910C947509C2E1D3E2BDCFCF931C
:105020000E94E41F20911513E22FF0E08091FB17FE
:105030008E0F9F2F911D6CE370E00E940C69BF01E1
:105040000E940C69269F202D11242F5F20930813A6
:10505000822F6AE00E94EC68C82FCC0FC80FCC0FDB
:10506000C20F60E087E00E944B116C2F88E00E9425
:105070004B1160E889E00E944B1160E88AE00E94D1
:105080004B1180912B01882371F08091F1178111D0
:105090000AC069E372E087EB9CE10E949627809149
:1050A00008130E94472462E370E080E090E0CF9113
:1050B0000C947509DF92EF92FF920F931F93CF9399
:1050C000DF938B017A01D22E0E94F125B80189E984
:1050D0009FE10E94D965EC01892BF9F0C8010E947B
:1050E000D0658C0F9D1FDD2039F06CE270E00E94CE
:1050F000256A009791F001960E94A065F7019183BF
:10510000808380E00E94A70981E0DF91CF911F9109
:105110000F91FF90EF90DF90089580E0F6CFCF934E
:10512000DF9300D0CDB7DEB721E0AE014F5F5F4F18
:105130006CE17CE084E29CE00E945A28882331F0F4
:1051400089810F900F90DF91CF91089580E0F9CF82
:10515000CF93DF9300D0CDB7DEB720E0AE014F5F35
:105160005F4F6EE07CE085E19CE00E945A28882336
:1051700031F089810F900F90DF91CF91089580E0F9
:10518000F9CF0E940A6A0F931F93CF93DF93EC012C
:1051900088819981009759F02A813B81261737072A
:1051A00030F081E0DF91CF911F910F9108958B0135
:1051B0006F5F7F4F0E942969009759F09983888318
:1051C0001B830A832C813D81232B59F7FC0110821C
:1051D000E8CF80E0E7CFEF92FF920F931F93CF933A
:1051E000DF936115710541F480E0DF91CF911F914C
:1051F0000F91FF90EF90089541155105B1F07B019B
:10520000EC010C811D81040F151FB8010E94C328F9
:10521000882351F3288139818C819D81B701820FC8
:10522000931F0E94306A1D830C8381E0DECFEF92D2
:10523000FF920F931F93CF93DF9300D000D0CDB791
:10524000DEB77C01862F4AE08E010F5F1F4FB80149
:1052500090E00E94F365F80101900020E9F7319792
:10526000AF01401B510BB801C7010E94EB280F9002
:105270000F900F900F90DF91CF911F910F91FF90A2
:10528000EF900895CF93DF9300D0CDB7DEB7698359
:105290001A8241E050E0BE016F5F7F4F0E94EB2811
:1052A0000F900F90DF91CF910895FB0101900020A6
:1052B000E9F73197AF01461B570B0C94EB28FB0124
:1052C00044815581608171810C94EB28CF93DF93E9
:1052D000EC0188819981009711F00E947364198212
:1052E00018821D821C821B821A82DF91CF91089541
:1052F000CF93DF93EC016115710539F4CE010E9463
:105300006629CE01DF91CF910895FB010190002025
:10531000E9F73197AF01461B570B0E94EB28882312
:1053200069F3EFCFCF93DF93EC01FB01448155810B
:10533000608171810E94EB28811103C0CE010E941F
:105340006629CE01DF91CF910895EF92FF920F93DE
:105350001F93CF93DF93EC017B018A01BA010E9476
:10536000C32881110BC0CE010E946629CE01DF91B6
:10537000CF911F910F91FF90EF9008951D830C83A3
:10538000B701888199810E94306AF0CFFB010190BA
:105390000020E9F73197AF01461B570B0C94A52964
:1053A0000F931F93CF93DF93CDB7DEB729970FB637
:1053B000F894DEBF0FBECDBF8C01862FF80111829D
:1053C000108213821282158214824AE0BE016F5F3E
:1053D0007F4F90E00E940666BE016F5F7F4FC8015D
:1053E0000E94C62929960FB6F894DEBF0FBECDBF26
:1053F000DF91CF911F910F9108950F931F93CF933A
:10540000DF93CDB7DEB762970FB6F894DEBF0FBE5D
:10541000CDBF8C01CB01F801118210821382128260
:10542000158214824AE0BE016F5F7F4F0E94F365D0
:10543000BE016F5F7F4FC8010E94C62962960FB6FA
:10544000F894DEBF0FBECDBFDF91CF911F910F91BA
:105450000895CF93DF93C0E0D6E080911613C8176C
:1054600058F4CD9FC001112464E572E08A519C4D2F
:105470000E94C629CF5FF1CFDF91CF9108950F939E
:105480001F93CF93DF93CDB7DEB728970FB6F8946D
:10549000DEBF0FBECDBF64E572E08AED93E20E94ED
:1054A000C6290E94E41F4AE08E010F5F1F4FB8011A
:1054B00080911113909112130E94F365F8010190ED
:1054C0000020E9F73197AF01401B510BB8018AED7D
:1054D00093E20E94EB286DE28AED93E20E9442295A
:1054E000609114138AED93E20E9417296DE28AED10
:1054F00093E20E944229609113138AED93E20E9485
:1055000017296FE58AED93E20E9442296091FC170A
:105510008AED93E20E9417296AE38AED93E20E94E2
:1055200042291091FB171A3028F460E38AED93E2C8
:105530000E944229612F8AED93E20E9417296AE3B3
:105540008AED93E20E944229109110131A3028F438
:1055500060E38AED93E20E944229612F8AED93E293
:105560000E9417296BE472E08AED93E20E945529AC
:1055700062E370E080E090E00E94750928960FB623
:10558000F894DEBF0FBECDBFDF91CF911F910F9179
:105590000895CF93DF93EC01FB018617970749F03D
:1055A000608171816115710541F0448155810E94CE
:1055B000A529CE01DF91CF9108950E946629F9CFE8
:1055C000FC011182108213821282158214820C94C3
:1055D000C92AFC0111821082138212821582148260
:1055E000FB0101900020E9F73197AF01461B570BF3
:1055F0000C94A529FC0180819181009711F00C94F5
:1056000073640895CF93DF93EC01898D9A8D009791
:1056100041F00E94A91A898D9A8D0E9473641A8E96
:10562000198EDF91CF910895CF92DF92EF92FF9282
:105630000F931F93CF93DF93EC017B018A01E881E5
:10564000F9810280F381E02D0995D82E882329F174
:10565000E114F104D1F001151105B9F0CFB6F894B9
:105660008A8D8350990BF8012081281719061CF0A8
:105670008A8D84508083F801408150E0BE01615ED4
:105680007F4FC7010E941C6ACFBE8FB7F894FE01FE
:10569000E65EFE4F10821A8E8FBF8D2DDF91CF9167
:1056A0001F910F91FF90EF90DF90CF900895EF92B0
:1056B000FF920F931F93CF93DF9300D01F92CDB72C
:1056C000DEB78C010E949B0CE82E81110CC0E12CEE
:1056D0008E2D0F900F900F90DF91CF911F910F9112
:1056E000FF90EF900895F801808D8A3009F47EC014
:1056F0008B3009F47DC022E0F22E823041F740E881
:1057000061E0C8010E94710A6AE070E080E090E008
:105710000E94750961E0C8010E94B10B8038B9F69A
:1057200060E0F801808D0E940A09F801818D8F3FA9
:1057300049F48091E117843050F691E0980F9093EE
:10574000E117818FF801818DE82FF0E0EE0FFF1F48
:10575000EE51F84E1183008362E97CE0882349F022
:1057600069E87CE0813029F0823009F0B0CF60E850
:105770007CE08F2D0E94FE0640E06EE0C8010E9492
:10578000710A40E06FE0C8010E94710AC8010E94DE
:10579000C90A43E050E064E87BE0CE0101960E9434
:1057A000BE6549816DE1C8010E94710A4A816EE1BE
:1057B000C8010E94710A4B8166E2C8010E94710A09
:1057C00040E060E2C8010E94710A48E061E2C8015D
:1057D0000E94710A40E050EC64E674E4C8010E9443
:1057E000DD0A6DE0C8010E94A10A72CFF12C87CFBB
:1057F000FF24F39484CF85ED8093BC0080916C1AD4
:1058000090916D1AA0916E1AB0916F1A0796A11D12
:10581000B11D23E0B695A795979587952A95D1F761
:105820002091BC0024FD03C010926A1A0895409193
:105830006C1A50916D1A60916E1A70916F1A452B07
:10584000462B472B69F30097A105B10541F02AE1EA
:105850002A95F1F700C00197A109B109E1CF809124
:105860006B1A0C94E50E3F924F925F926F927F926B
:105870008F929F92AF92BF92CF92DF92EF92FF9260
:105880000F931F93CF93DF93CDB7DEB72B970FB650
:10589000F894DEBF0FBECDBF7C01DC0115968C9164
:1058A000811115C0FE013196CE010C966F0130E2D8
:1058B00031938E179F07E1F7DA0130E087E09D9181
:1058C000B92E992329F19E3239F48A3011F480E0FF
:1058D000BFC038E08AE0F3CFE4E7FBE04491442323
:1058E00021F031969413FACFF2CF831780F34FED66
:1058F000490F4E3560F74FE9490F4A3118F440EE31
:10590000B42EB90EF601E30FF11DB0823F5FD7CF81
:1059100089818032E1F2322E8B01FB01838D948DDF
:10592000D7015C969C938E935B97168217821086A4
:1059300011861286138614861586F8018285938552
:10594000A485B58543895489658976898417950727
:10595000A607B70790F525E0B695A7959795879583
:105960002A95D1F7F82FFF70AF2EC8010E942A1E8A
:10597000009709F4ACCFDC012C91222341F0253EA5
:1059800009F058C0BB2029F0BB24B394D6CFB11086
:105990000EC0F701A28A4091260150912701609123
:1059A00028017091290146875787608B718BFC0114
:1059B00080818111E9CFBB24B394832D8271823120
:1059C00009F085CFBB2009F45BC0C7010E945214C7
:1059D000009709F47CCF20E2FC0111922A95E9F7A7
:1059E0002BE0F601DC0101900D922A95E1F721E20E
:1059F00038E2DC0151963C932E93509740E058E0FA
:105A00001F965C934E931E9753963C932E935297FA
:105A100059963C932E93589757965C934E9356976E
:105A200081E00E94DD13882309F451CF432DF70153
:105A300062890BC04BE050E0BC01C6010E940F6AB6
:105A4000892B09F07ACF432D6A2DC7010E94FC21D2
:105A50002B960FB6F894DEBF0FBECDBFDF91CF916E
:105A60001F910F91FF90EF90DF90CF90BF90AF907C
:105A70009F908F907F906F905F904F903F90089590
:105A8000D80115968C91823009F421CFC8010E946B
:105A90000A18882309F41BCFD8015B96ED91FC917D
:105AA0005C9716968D909D90AD90BC901997B2E042
:105AB0008B1A9108A108B108858504C0880C991C2F
:105AC000AA1CBB1C8A95D2F786859785A089B189C7
:105AD000880E991EAA1EBB1E848124013501480E22
