:100000000C94F9050C949E510C9473510C94485126
:100010000C941D540C9423060C9423060C94230674
:100020000C9423060C9423060C9423060C942306AC
:100030000C9423060C94C9510C9423060C942306AB
:100040000C9423060C9423060C94FE500C94230667
:100050000C94C9500C949F500C9423060C942306C6
:100060000C9423060C9423060C94F9520C9423064A
:100070000C946A500C9440500C9423060C94230664
:100080000C9423060C9423060C9423062B43524510
:10009000473A200041542B435245473F0052656781
:1000A0006973746572656420726F616D696E670053
:1000B000556E6B6E6F776E0044656E696564004EB9
:1000C0006F74207265676973746572656420287344
:1000D0006561726368696E67290052656769737448
:1000E000657265642028686F6D6529004E6F742005
:1000F00072656769737465726564003A20004E65C5
:1001000074776F726B20737461747573200047503D
:100110005253206F6E004552524F523A2047505270
:1001200053206661696C656420746F207475726E0B
:10013000206F6E004552524F523A20496E76616CE4
:1001400069642075706C6F616420696E7465727685
:10015000616C202865766572792031206F722034B9
:1001600020686F75727329004552524F523A2049E8
:100170006E76616C696420696E74657276616C205C
:100180002865766572792031352C2032302C203369
:10019000302C206F72203630206D696E732900700C
:1001A000726F6A65637449443A20002020696E705A
:1001B0007574206D696E7574653A20002020696E33
:1001C00070757420686F75723A20202000202069B5
:1001D0006E70757420796561723A202020002020AD
:1001E000696E707574206461793A202020200020A7
:1001F00020696E707574206D6F6E74683A202000EF
:1002000053796E6368726F6E697A6174696F6E207C
:100210006661696C65642E20506C6561736520654C
:100220006E7465722074696D65206D616E75616CA8
:100230006C7920696E205554433A200053796E63DF
:1002400068726F6E697A696E6720636C6F636B208A
:10025000746F204E49535420736572766572202E58
:100260002E2E200044656661756C7420726164698D
:100270006F20494420616363657074656400526156
:1002800064696F2049442075706461746564004539
:100290006E746572206E657720726164696F2049A3
:1002A000443A200020456E74657220277927206625
:1002B0006F72207965732C20276E2720666F72205D
:1002C0006E6F3A2000576F756C6420796F75206CE3
:1002D000696B6520746F206368616E676520746860
:1002E0006520726164696F2049442066726F6D20D9
:1002F0007468652064656661756C742076616C75E0
:10030000653F00456E7465722074686520486F6CA7
:100310006F6772616D20646576696365206B6579CE
:1003200020666F7220746869732047617465776115
:10033000793A2000456E7465722074686520726198
:1003400064696F20494420666F72204E6F64652097
:1003500000293F00496E76616C6964206E756D629C
:100360006572206F66206E6F6465732E2020486F63
:1003700077206D616E79206E6F64657320617265A0
:100380002061742074686973207369746520286D16
:1003900061782E00486F77206D616E79206E6F64F2
:1003A00065732061726520617420746869732073BD
:1003B00069746520286D61782E2000496E76616C25
:1003C000696420696E74657276616C2E20506C656C
:1003D00061736520656E7465722031206F72203400
:1003E0002E00456E74657220223122206F72202209
:1003F00034223A20005365742075706C6F6164205C
:10040000696E74657276616C20746F2031206F7232
:10041000203420686F7572732E00506C65617365AF
:1004200020656E74657220616E6F74686572206DF0
:100430006561737572656D656E7420696E74657241
:1004400076616C3A20004552524F523A206D6178E5
:10045000696D756D2038204E6F646573206174205E
:100460003135206D696E75746520696E74657276BC
:10047000616C00496E76616C696420696E746572A6
:1004800076616C2E20456E746572206D65617375A2
:1004900072656D656E7420696E74657276616C202C
:1004A0002831352C2032302C2033302C206F722014
:1004B0003630293A2000456E746572206D6561738F
:1004C0007572656D656E7420696E74657276616CA7
:1004D000202831352C2032302C2033302C206F72E4
:1004E000203630206D696E73293A2000506C6561AA
:1004F000736520656E74657220616E6F74686572D5
:10050000206D6561737572656D656E7420696E74BA
:10051000657276616C3A20004552524F523A206D16
:100520006178696D756D2034204E6F64657320614C
:1005300074203230206D696E75746520696E746543
:100540007276616C00506C6561736520656E7465D0
:100550007220616E6F74686572206D65617375726B
:10056000656D656E7420696E74657276616C3A2093
:10057000004552524F523A206D6178696D756D2079
:1005800032204E6F646573206174203135206D69AF
:100590006E75746520696E74657276616C00496E63
:1005A00076616C696420696E74657276616C2E2068
:1005B000456E746572206D6561737572656D656EEB
:1005C0007420696E74657276616C202831352C2038
:1005D00032302C2033302C206F72203630293A20D4
:1005E00000456E746572206D6561737572656D6529
:1005F0006E7420696E74657276616C202831352CBA
:100600002032302C2033302C206F72203630206D79
:10061000696E73293A20002073756363657366758C
:100620006C6C792073796E63656420746F20476108
:100630007465776179004E6F646520004578697450
:10064000002020456E74657220612050726F6A65CB
:1006500063742049442028757020746F203520630E
:100660006861726163746572732C2065783A2050FA
:100670005341293A200045786974004572617365D9
:1006800020534420636172643A20005072696E7492
:1006900020646174612066696C65733A200053615F
:1006A0007665642066696C65733A200053656E64F4
:1006B000696E672074696D6520746F204E6F646584
:1006C0002E2E2E004D616B6520737572652073614F
:1006D0006D65204E6F6465206D656E75206F70745A
:1006E000696F6E206F70656E20696E20616E6F7429
:1006F0006865722053657269616C204D6F6E697414
:100700006F722077696E646F77004552524F523A8C
:100710002075706C6F616420696E74657276616CAF
:10072000206D75737420626520656E7465726564F2
:100730002066697273742E2052657475726E696ECC
:100740006720746F206D656E752E2E2E00456E74B9
:10075000657220636F6E66696775726174696F6E2A
:1007600020737472696E673A2000456E746572205A
:1007700063686F6963653A20002020207820203C60
:100780002D2D202045786974206D656E7500202020
:10079000206520203C2D2D20204572617365206D41
:1007A0006963726F5344206361726400202020707B
:1007B00020203C2D2D20205072696E74206E6F64B5
:1007C00065206461746120746F2073637265656E67
:1007D000002020206620203C2D2D20205365652000
:1007E0006C697374206F6620736176656420666936
:1007F0006C6573002020205320203C2D2D20205399
:10080000796E6368726F6E697A6520476174657787
:1008100061792026204E6F646520636C6F636B7373
:10082000002020206D20203C2D2D20205365742099
:100830006D6561737572656D656E7420696E746542
:100840007276616C002020207520203C2D2D202008
:1008500053657420646174612075706C6F616420ED
:10086000746F20636C6F756420696E746572766155
:100870006C002020206E20203C2D2D2020456E7401
:100880006572204E6F646520726164696F2049440F
:1008900073002020206420203C2D2D2020456E74E4
:1008A000657220486F6C6F6772616D204465766970
:1008B0006365204B6579002020206720203C2D2D8A
:1008C00020204368616E67652047617465776179B0
:1008D00020726164696F2049440020202069202033
:1008E0003C2D2D2020456E7465722070726F6A65F4
:1008F0006374204944002020206320203C2D2D20BB
:100900002053657420636C6F636B20746F204E49B5
:1009100053542074696D65002020203020203C2D28
:100920002D2020456E74657220636F6E6669677551
:10093000726174696F6E20737472696E67004D65C1
:100940006E75206F7074696F6E73200043757272DC
:10095000656E74206261747465727920766F6C7450
:100960006167653A20200030003A0030003A002DDF
:10097000002D0043757272656E7420646174652089
:10098000262074696D653A200055706C6F61642093
:10099000696E74657276616C2028687273293A20DA
:1009A000004D6561737572656D656E7420496E7476
:1009B000657276616C3A2000446174612066696CEE
:1009C000653A20004E6574776F726B6564204E6FD8
:1009D0006465204944733A200023206F66206E6FBF
:1009E0006465733A2000446576696365206B6579B8
:1009F0003A20004761746577617920526164696FBC
:100A00002049443A200050726F6A6563742049445B
:100A10003A200053657269616C204E756D62657293
:100A20003A200056657273696F6E2000536F696CCF
:100A30002057617465722044617461204E6574773B
:100A40006F726B202D2043656C6C756C6172204752
:100A5000617465776179007C3C3E5E2B3D3F2F5B86
:100A60005D3B2C2A225C0072740092740048940052
:100A700078C40000002100240027002A0000002282
:100A800000250028002B000000200023002600295C
:100A9000000202020202020202040404040404042A
:100AA0000403030303030303030101010101010123
:100AB00001010204081020408001020408102040B7
:100AC0008001020408102040800102040810204028
:100AD00080000000010200090A0000000004030871
:100AE00007000000000000000000000000000000FF
:100AF0000053494D3830304800093C2D2D2D200041
:100B0000092D2D2D3E200053494D434F4D5F534934
:100B10004D35333230450053494D434F4D5F5349B6
:100B20004D35333230410053494D38303020523149
:100B3000330053494D383038205231330053494D3A
:100B40003830382052313400093C2D2D2D20000939
:100B50002D2D2D3E200041542B435648553D30004D
:100B60004154453000415445300041540041540047
:100B700041540054696D656F75743A204E6F207250
:100B80006573706F6E736520746F2041542E2E2E26
:100B9000206C617374206469746368206174746587
:100BA0006D70742E00415400415400415400417452
:100BB00074656D7074696E6720746F206F70656EF8
:100BC00020636F6D6D20776974682041547300094C
:100BD0003C2D2D2D2000092D2D2D3E20004F4B00AA
:100BE000464F4E4100464F4E416E657400003954E9
:100BF000DD5911241FBECFEFD0E4DEBFCDBF1CE016
:100C0000A0E0B1E0E8EBF6EC00E00BBF02C007901B
:100C10000D92A635B107D9F721E2A6E5BCE001C0E7
:100C20001D92A534B207E1F715E0C8EFD5E004C086
:100C30002197FE010E94FF5DC73FD107C9F70E94BF
:100C400016560C944F630C94000008950895982F45
:100C50002091C11781E0213208F043C08091C01774
:100C60008111FCCF8091B91732E03093C017909377
:100C7000BF179FEF90939717109296172093951791
:100C8000A9E9B7E1E5E7F7E190E0291331C0109257
:100C9000741790917417880F892B80937417809123
:100CA000BE17813049F51092BE178091741780935A
:100CB000BB008091BC0083FDF8CF85EC8093BC0025
:100CC0008091C0178230E1F3809197178F3FB1F088
:100CD000809197178032A1F080919717803391F01F
:100CE00084E01092C2171092C117109298170895BD
:100CF0003D9131939F5FC9CF85EEE0CF80E0F1CF8A
:100D000082E0EFCF83E0EDCF9091C0179111FCCF3F
:100D100091E09093C0179093BF172FEF20939717F0
:100D200010929617260F2093951790937417909111
:100D30007417880F892B809374178091BE178130A8
:100D4000F9F41092BE17809174178093BB008091C4
:100D5000BC0083FDF8CF85EC8093BC008091C01768
:100D60008130E1F380919617861710F46091961701
:100D7000A5E7B7E1E4E5F7E180E0861303C0089555
:100D800085EEEACF9D9191938F5FF7CF0F931F93DD
:100D9000CF93DF93EC019A01AB01E889F98982E0F6
:100DA0008083EC85FD8510820E851F8560E874E8E0
:100DB0008EE190E00E948F5C215031094109510978
:100DC0005695479537952795F8012083188EEC891D
:100DD000FD8986E08083EA89FB8980818061808348
:100DE000EA89FB89808188608083EA89FB89808128
:100DF00080688083EA89FB8980818F7D8083DF9191
:100E0000CF911F910F9108958091D01D9091D11D88
:100E1000DC01ED91FC910484F585E02D0994FF92AD
:100E20000F931F93CF93DF938C01F62EC0EDDDE17E
:100E300088819981DC01ED91FC910488F589E02D90
:100E4000642F099588819981DC01ED91FC910680E0
:100E5000F781E02D4F2DB801DF91CF911F910F91B8
:100E6000FF900994E82FF0E0EE0FFF1FE45DFE4FC6
:100E700071836083813049F0823071F08091690024
:100E8000836080936900E89A0895809169008C607E
:100E900080936900E99A0895809169008063809346
:100EA0006900EA9A0895EF92FF920F931F93CF93F0
:100EB000DF938C017B01D0E0C0E0F701EC0FFD1F58
:100EC0006491662361F0D801ED91FC910190F0816D
:100ED000E02DC8010995892B11F02196EECFCE01A6
:100EE000DF91CF911F910F91FF90EF900895AF92F6
:100EF000BF92CF92DF92EF92FF920F931F93CF9307
:100F0000DF936C017B018B01040F151FEB015E0168
:100F1000AE18BF08C017D10759F06991D601ED91FD
:100F2000FC910190F081E02DC6010995892B79F79C
:100F3000C501DF91CF911F910F91FF90EF90DF904E
:100F4000CF90BF90AF900895FC01538D448D252F15
:100F500030E0842F90E0821B930B541718F08150DF
:100F60009F4F089501970895FC01918D828D9817E8
:100F700059F0A28DAE0FBF2FB11D5D968C91928D51
:100F80009F5F928F90E008958FEF9FEF0895FC018F
:100F9000918D828D981731F0828DE80FF11D858D2E
:100FA00090E008958FEF9FEF0895FC01918D828D61
:100FB000981B892F90E0089585EC97E10E94D50752
:100FC00021E0892B09F420E0822F089582EE99E137
:100FD0000E94D50721E0892B09F420E0822F089593
:100FE000CF93DF93EC01E881F9810680F781E02D52
:100FF0000995EA89FB8980818F7E8083EA89FB8954
:101000008081877F8083EA89FB8980818F778083D5
:10101000EA89FB8980818F7D80838A8D898FDF912A
:10102000CF910895FC01A48DA80FB92FB11DA35E27
:10103000BE4F9C91848D8F5F848FA689B7899C93C6
:10104000A089B1898C91837080648C93938D848DF9
:10105000981306C00288F389E02D80818F7D8083FC
:1010600008950F931F93CF93DF93EC0181E0888F56
:101070009B8D8C8D981318C0E889F989808185FF34
:1010800013C09FB7F894EE89FF896083E889F989D6
:1010900080818370806480839FBF81E090E0DF91D6
:1010A000CF911F910F910895062F1B8D1F5F8C8D7F
:1010B00081130CC00FB607FCFACFE889F98980814B
:1010C00085FFF5CFCE010E941208F1CFEB8DEC0F1A
:1010D000FD2FF11DE35EFE4F00839FB7F8941B8F39
:1010E000EA89FB8980818062D6CF682F82EE99E100
:1010F0000C943108CF93DF93EC01888D8823B9F0ED
:10110000AA89BB89E889F9898C9185FD03C0808112
:1011100086FD0DC00FB607FCF7CF8C9185FFF2CF8F
:10112000808185FFEDCFCE010E941208E9CFDF91CB
:10113000CF91089580E090E0892B29F00E94E60786
:1011400081110E94000080E090E0892B29F00E942C
:10115000DC0781110C940000089581508A3080F5DD
:10116000E82FF0E0EA54F74F0C94FF5DCA08CE0870
:10117000C008C608E008E008D108D708DB08E10885
:10118000809180008F778093800008958091800007
:101190008F7DF9CF84B58F7784BD089584B58F7D19
:1011A000FBCF8091B0008F778093B000089580913D
:1011B000B0008F7DF9CF809190008F778093900061
:1011C0000895809190008F7DF9CFCF93DF93282FE2
:1011D00030E0F901EF52F54F8491F901EF54F54FEA
:1011E000D491F901EF56F54FC491CC23A1F08111B0
:1011F0000E94AD08EC2FF0E0EE0FFF1FE957F54F0E
:10120000A591B491EC91ED2381E090E009F480E0A8
:10121000DF91CF91089580E090E0FACF1F93CF93B4
:10122000DF93282F30E0F901EF52F54F8491F90157
:10123000EF54F54FD491F901EF56F54FC491CC23FB
:10124000A9F0162F81110E94AD08EC2FF0E0EE0FEF
:10125000FF1FE358F54FA591B4918FB7F894EC9127
:10126000111108C0D095DE23DC938FBFDF91CF91A1
:101270001F910895DE2BF8CF1092C4171092C31758
:101280001092C2171092C1171092C01781E080937C
:10129000BF171092BE1761E081E10E940E0961E064
:1012A00080E10E940E09E9EBF0E080818E7F80836F
:1012B00080818D7F808380E28093B80085E4809375
:1012C000BC0085E296E09093BD178093BC1786E240
:1012D00096E09093BB178093BA170895CF93DF934E
:1012E00090E0FC01EF54F54F24918F56954FFC018F
:1012F00084918823D1F090E0880F991FFC01ED586C
:10130000F54FA591B491FC01E358F54FC591D491E7
:1013100061110EC09FB7F8948C91E22FE0958E2357
:101320008C932881E223E8839FBFDF91CF910895BA
:101330008FB7F894EC91E22BEC938FBFF6CF883106
:1013400008F088518770806480937C0080917A00D7
:10135000806480937A0080917A0086FDFCCF809132
:1013600078009091790008953FB7F8948091580DD6
:101370009091590DA0915A0DB0915B0D26B5A89B87
:1013800005C02F3F19F00196A11DB11D3FBFBA2F17
:10139000A92F982F8827BC01CD01620F711D811DD7
:1013A000911D43E0660F771F881F991F4A95D1F75B
:1013B00008958F929F92AF92BF92CF92DF92EF9259
:1013C000FF924B015C010E94B4096B017C010E94F9
:1013D000B4096C197D098E099F09683E7340810527
:1013E0009105A8F321E0821A9108A108B10888EEBE
:1013F000C80E83E0D81EE11CF11C81149104A104E5
:10140000B10429F7FF90EF90DF90CF90BF90AF909D
:101410009F908F900895FF920F931F93CF93DF9328
:10142000F82E04EF11E0D0E0C0E08091CE1D909145
:10143000CF1DDC01ED91FC910084F185E02D099533
:10144000892BC9F08091CE1D9091CF1DDC01ED91CB
:10145000FC910284F385E02D09958D3031F38A30BB
:1014600021F4209711F3FF2091F0FE01EA54F34E8E
:1014700086872196DACF0150110949F061E070E0CA
:1014800080E090E00E94D909CE3FD10570F2FE01C4
:10149000EA54F34E16868C2FDF91CF911F910F9156
:1014A000FF9008952FB7F8946091540D7091550DE9
:1014B0008091560D9091570D2FBF08950895885E25
:1014C0009E4FDC018D919C91DC01ED91FC91068099
:1014D000F781E02D0994885E9E4FDC018D919C91EF
:1014E000DC01ED91FC910484F585E02D0994885E82
:1014F0009E4FDC018D919C91DC01ED91FC91028469
:10150000F385E02D0994885E9E4FDC018D919C91BE
:10151000DC01ED91FC910190F081E02D0994885E51
:101520009E4FDC018D919C91DC01ED91FC9100843A
:10153000F185E02D0994CF93DF9390E080E0EC01FA
:1015400021968897A8F486EB9CE10E948F0A892B4C
:1015500039F086EB9CE10E94770AD0E0C0E0F3CF3F
:1015600061E070E080E090E00E94D909CE01E7CF11
:10157000DF91CF9108958BEF0895CF93DF93FC0116
:10158000228133812230310569F0EC01638D818D38
:101590000E940E0960E0888D0E940E0982E090E0B2
:1015A0009B838A83DF91CF910895FF920F931F93BE
:1015B000CF93DF93EC01162FF42E0FB7F89460E071
:1015C0008F890E940E098D899E89612F6068DC01D8
:1015D000ED91FC910190F081E02D0995182F8D89F6
:1015E0009E89DC01ED91FC910190F081E02D6F2D41
:1015F000099561E08F890E940E090FBF812FDF914D
:10160000CF911F910F91FF9008950F931F93CF9348
:101610008C01C62F44E06DE40E94D50A4BEF4C0FBD
:10162000406869E0C801CF911F910F910C94D50AD1
:10163000CF93DF93FC01228133812130310549F0C2
:10164000EC0140E061E00E94D50A81E090E09B83DC
:101650008A8381E0DF91CF910895CF93DF93FC01DE
:10166000228133812230310549F0EC0141E061E013
:101670000E94D50A82E090E09B838A83DF91CF911C
:101680000895CF92DF92EF92FF92CF93DF93EC0118
:10169000CB01BA0120E034E244E759E40E94895BBF
:1016A00020E034E244E752E40E942D5D0E94A65DF2
:1016B0006B017C01A7016627772766E0CE010E94B7
:1016C000D50A77276F2D5E2D4D2D67E0CE010E9444
:1016D000D50A4C2D68E0CE010E94D50A81E0DF9149
:1016E000CF91FF90EF90DF90CF900895CF92DF924F
:1016F000EF92FF920F931F93CF93DF934C3F08F02D
:1017000067C0142F072FF62EEC01E881F9810484BD
:10171000F585E02D0995CE010E942D0B40E06DE08E
:10172000CE010E94D50A4A8560E0CE010E94D50A0A
:101730004B8560E0CE010E94D50A4C8560E0CE0169
:101740000E94D50A4D8560E0CE010E94D50AEFB611
:10175000F89460E08F890E940E098D899E89DC01D2
:10176000ED91FC910190F081E02D60E80995CF2C7E
:10177000D02E012F015068F08D899E89F60161916C
:101780006F01DC01ED91FC910190F081E02D099554
:10179000F1CF61E08F890E940E09EFBE44E0410F56
:1017A00062E2CE010E94D50A8A819B81039771F083
:1017B00043E061E0CE010E94D50A40E460E4CE013E
:1017C0000E94D50A83E090E09B838A8381E001C078
:1017D00080E0DF91CF911F910F91FF90EF90DF900C
:1017E000CF900895CF93DF93FC0122813381233082
:1017F0003105C9F0EC0182819381049771F045E0D5
:1018000061E0CF010E94D50A40E060E4CE010E9471
:10181000D50A84E090E09B838A83C65EDE4F888190
:10182000DF91CF91089580E0FBCF0F931F93CF936B
:10183000DF93EC01162F0FB7F89460E08F890E94B8
:101840000E098D899E89DC01ED91FC910190F0815A
:10185000E02D612F09958D899E89DC01ED91FC9128
:101860000190F081E02D60E00995182F61E08F89EB
:101870000E940E090FBF812FDF91CF911F910F9111
:101880000895DF92EF92FF920F931F93CF93DF9310
:10189000EC0162E10E94150C2A813B812430310564
:1018A000A1F4982F907A89F08F8598890196988B6A
:1018B0008F874FEF62E1CE01DF91CF911F910F91A2
:1018C000FF90EF90DF900C94D50A2A813B81243061
:1018D000310511F486FD0DC02A813B81233031058D
:1018E00041F783FFE6CF8B899C8901969C8B8B8B7C
:1018F00067C063E1CE010E94150C082F60E1CE01A4
:101900000E94150C482F6DE0CE010E94D50ADFB66B
:10191000F89460E08F890E940E098D899E89DC0110
:10192000ED91FC910190F081E02D60E009957E0140
:10193000BBE1EB0EF11C102F115070F08D899E89C8
:10194000DC01ED91FC910190F081E02D60E00995C2
:10195000F70181937F01F0CF61E08F890E940E092A
:10196000DFBE0A8F4FEF62E1CE010E94D50A6AE125
:10197000CE010E94150C89588E878A8DFE01E65E85
:10198000FE4F8430C8F08B8D8E838C8D8F838D8D30
:1019900088878E8D89878D81811107C09E818C817A
:1019A000981719F08E818F3F39F489899A890196A9
:1019B0009A8B898B81E080838081882309F479CF99
:1019C000CE010E942D0B75CF8091510D9091520D3B
:1019D000009711F00C94410C089580914F0D909157
:1019E000500D009711F00C94410C089580914D0D0D
:1019F00090914E0D009711F00C94410C0895CF93E7
:101A0000DF93EC018D899E89DC01ED91FC910680CC
:101A1000F781E02D099561E08F890E946E0961E0F0
:101A20008F890E940E0964E670E080E090E00E94D9
:101A3000D90981E0DF91CF910895FF920F931F9311
:101A4000CF93DF931F92CDB7DEB7F42E00ED1DE1EB
:101A5000D8018D919C91DC01ED91FC91008CF18D70
:101A6000E02D0995F80180819181DC01ED91FC91D7
:101A7000028CF38DE02D40E060E8099581E28983D6
:101A80004F2D61E0CE0101960E940F070E940407CE
:101A90000F90DF91CF911F910F91FF9008952F929A
:101AA0003F924F925F926F927F928F929F92AF92EE
:101AB000BF92CF92DF92EF92FF920F931F93CF933B
:101AC000DF9300D000D0CDB7DEB77C011B016A01E7
:101AD00029011A8309830E94520A4B015C01712C6F
:101AE000612C0E94520A681979098A099B096415B8
:101AF00075058605970508F07CC08091D01D9091F2
:101B0000D11DDC01ED91FC910280F381E02D09955E
:101B1000882339F38091D01D9091D11DDC01ED9186
:101B2000FC910480F581E02DA601B10109958B831C
:101B30008823B9F28091D01D9091D11DDC01ED91E7
:101B4000FC9100A0F1A1E02D09958C838091D01D1E
:101B50009091D11DDC01ED91FC91068CF78DE02D6B
:101B60000995082F8091D01D9091D11DDC01ED9138
:101B7000FC9102A0F3A1E02D0995182F8091D01DB2
:101B80009091D11DDC01ED91FC9104A0F5A1E02D17
:101B9000099587FDA6CF0F3F29F04C81612FC70122
:101BA0000E941D0DF701BC81EB0FF11DDF011B969B
:101BB0008385811709F495CF8C81E981FA8180832F
:101BC0001C938B810F900F900F900F90DF91CF910E
:101BD0001F910F91FF90EF90DF90CF90BF90AF904B
:101BE0009F908F907F906F905F904F903F902F903D
:101BF00008951B82E6CF9FB7F89480914B0D882300
:101C000019F0815080934B0D80914B0D811105C0CF
:101C10008CB58F7B8CBD109241159FBF08958CB5FC
:101C20008F778CBD08958CB580688CBD0895FC01BC
:101C3000738362830895FC01778366830895FC01B2
:101C4000758364830895089580E00895FC0181857B
:101C50000895FC0180850895FC0187810895FC01A9
:101C6000868108954095FC0125854223642B658774
:101C70000895FC0164870895FC0163870895FC01C1
:101C800062870895FC0164830895FC0165830895CB
:101C90008F929F92AF92BF92CF92DF92EF92FF927C
:101CA000CF93DF93EC016B010E94520A4B015C0160
:101CB000F12CE12C0E94520A681979098A099B09C2
:101CC0006C157D058E059F0580F48A819B810397A5
:101CD00089F381E0DF91CF91FF90EF90DF90CF907B
:101CE000BF90AF909F908F90089580E0F3CFFC015C
:101CF0002281338123303105D1F381E008958F9221
:101D00009F92AF92BF92CF92DF92EF92FF92CF93CA
:101D1000DF93EC016B010E94520A4B015C01F12C34
:101D2000E12C0E94520A681979098A099B096C15ED
:101D30007D058E059F05A0F4E881F9810280F3817D
:101D4000E02DCE010995882361F3DF91CF91FF90BB
:101D5000EF90DF90CF90BF90AF909F908F900895BD
:101D600080E0F3CFCF93DF93EC01E881F98102802B
:101D7000F381E02DCE0109958823B9F3DF91CF914E
:101D8000089581E008951F93CF93DF93EC01162F00
:101D900088819981DC01ED91FC910288F389E02D25
:101DA000099588819981DC01ED91FC910688F7897C
:101DB000E02D612F09951A83DF91CF911F9108952E
:101DC000CF92DF92EF92FF920F931F93CF936B010D
:101DD0007C01142F8091D01D9091D11DDC01ED91DB
:101DE000FC910190F081E02D0995C82F882309F11D
:101DF0006091D21D80ED9DE10E94C30E88E790E0C6
:101E00009093D91D8093D81D83E08093DA1D612FB4
:101E100080ED9DE10E94C30E0091D01D1091D11D57
:101E2000B701A601C8010E94410B64E1C8010E94EC
:101E3000050B8C2FCF911F910F91FF90EF90DF90AA
:101E4000CF90089585ED8093BC008091BC0084FD07
:101E5000FCCF1092C01708952091280D260F33272C
:101E6000331F21323105ECF42091C017FC0190E0C2
:101E700080E0243069F082E00895A091280D21913E
:101E8000AC01485F524FA40FB52FB11D2C930196A2
:101E9000861798F38091280D680F6093280D80E0D5
:101EA000089581E008950895E091C4178091C317C3
:101EB000E81730F4F0E0EC5AF84E808190E0089595
:101EC0008FEF9FEF08959091C4178091C3172FEF64
:101ED0003FEF981748F4E92FF0E0EC5AF84E2081D4
:101EE00030E09F5F9093C417C90108958091C31794
:101EF0009091C417891B990B0895CF92DF92EF92AE
:101F0000FF920F931F93CF93DF937C01CB018A0144
:101F100020919817222389F0EB016B01C40ED51E86
:101F2000CC15DD0569F06991D701ED91FC91019027
:101F3000F081E02DC7010995F3CF642F0E942C0F8B
:101F4000C801DF91CF911F910F91FF90EF90DF902B
:101F5000CF900895CF93DF931F92CDB7DEB76983FB
:101F6000209198172223F9F02091C117203258F0C0
:101F700021E030E0FC013383228390E080E00F9089
:101F8000DF91CF9108958091C217E82FF0E0E756D6
:101F9000F84E998190838F5F8093C2178093C11709
:101FA00081E090E0ECCF61E0CE0101960E942C0F21
:101FB000F7CFCF93C62F91E09093981798E6909320
:101FC000B9171092C2171092C117682F85E391E2DA
:101FD0000E94AA0F6C2F85E391E20E94AA0F81E074
:101FE000CF910C942706CF93CFB7F89480914B0DE7
:101FF000811127C0E5E9FAE08491E5EBFAE09491DC
:10200000E82FF0E0EE0FFF1FED58F54FA591B491CA
:10201000EC91E92321F461E084E00E940E0961E083
:1020200084E00E946E098CB580618CBD8CB58064A3
:102030008CBD61E087E00E946E0961E085E00E944E
:102040006E0980914B0D8F5F80934B0DCFBFCF9169
:102050000895FC01268137812115310591F1213048
:10206000310559F12230310551F12330310549F55F
:102070002CE09CB5937F922B9CBD84819581019728
:1020800011F58CB580628CBD82819381019784307B
:102090009105E0F484599E4FFC0190818CB58C7FB2
:1020A000292F2370822B8CBD8DB592FB992790F937
:1020B0008E7F892B8DBD0C94F30F24E0DACF28E0BE
:1020C000D8CF20E0D6CF8CB58F7DDDCF95E0E6CFA1
:1020D0009FB7F894209141158091020D213019F499
:1020E0008DBB9FBF08958FBF089561E0FC0184817F
:1020F0000E940E098091010D882339F01092010D84
:102100008091411581110C94681008958EBD0000D6
:102110000DB407FEFDCF8EB50895862F0C94861062
:102120008FEF0C9486100F931F93CF93DF93EC01E6
:102130000E94520A8B010E9490108F3F69F00E940A
:10214000520A601B710B6C177D07A8F380E0DF91CA
:10215000CF911F910F91089581E0F9CF2091411502
:10216000222361F02FB7F89430914115313049F4B2
:102170003DB33093020D3DB33DBB2FBF8CBD9DBD24
:1021800008952093020DFACFCF93DF93EC01809155
:10219000010D811109C081E08093010D8091FF1B29
:1021A0009091001C0E94AE1060E08C81DF91CF9175
:1021B0000C940E098F929F92AF92BF92FF920F9351
:1021C0001F93CF93DF93EC01F62E49015A018E81C4
:1021D000882389F08F8198859C012F5F3F4F388736
:1021E0002F838230924018F40E949010F3CFCE01DA
:1021F0000E9475101E82CE010E94C4108CE291E0F4
:102200000E9493108F2D80640E94861008E110E0D8
:10221000D501C401002E04C0B695A7959795879562
:102220000A94D2F70E94861008501109083F8FEFD8
:10223000180771F785E9FF2021F028E087E8F212FE
:102240008FEF0E94861010E00E9490108A8787FF0F
:1022500004C01F3F11F01F5FF7CFDF91CF911F9197
:102260000F91FF90BF90AF909F908F900895AF9285
:10227000BF92CF92DF92EF92FF920F931F93CF9373
:10228000DF93EC016901C801820F931F81309240F6
:1022900050F58E81882379F088819981AA81BB814C
:1022A00084179507A607B70731F48F819885C8165C
:1022B000D90608F042C0488359836A837B838B85A3
:1022C000833039F089E0440F551F661F771F8A95C8
:1022D000D1F79A01AB0161E1CE010E94DA108823A7
:1022E00089F083E08D83CE010E94751080E0DF913C
:1022F000CF911F910F91FF90EF90DF90CF90BF9003
:10230000AF9008950E94520A5B010E9490108A8744
:102310008F3F69F40E94520A6A197B096D3271403D
:10232000A0F38FE08D83CE010E947510DCCF8E3F2D
:1023300089F418861F8281E08E838F8198858C15A1
:102340009D0550F40E9490108F8198850196988782
:102350008F83F3CF8DE0E6CF6701E00EF11E0E9480
:102360009010F60181936F01EE15FF05C1F78F8183
:102370009885080F191F18870F838985882319F0FE
:1023800001151240A0F08E81882389F08F819885F5
:102390009C012F5F3F4F38872F838230924018F483
:1023A0000E949010F3CFCE010E9475101E8281E032
:1023B0009ECFEF92FF920F931F93CF93DF93EC0189
:1023C000790182E1411551056105710599F08B850F
:1023D000833039F089E0440F551F661F771F8A95B7
:1023E000D1F79A01AB0168E1CE010E94DA1088238F
:1023F00019F084E08D8330C08EEF0E948610870133
:102400008EEFF81AF80181918F010E9486100E1547
:102410001F05C1F78FEF0E9486108FEF0E94861074
:102420000E9490108A878F71853089F488E592E048
:102430000E9493108823A9F020E030E0A9016DE00C
:10244000CE010E94DA10882371F084E1D3CF81E1BC
:102450008D83CE010E947510CE010E94751080E020
:102460000AC085E1C7CF0E9490108111EECFCE0146
:102470000E94751081E0DF91CF911F910F91FF9025
:10248000EF900895CF93DF938091030D8823A9F1F6
:10249000C0914215D091431540911D0150911E01EC
:1024A00060911F017091200124E435E1CE010E946A
:1024B000D911811104C080E0DF91CF91089540913E
:1024C000040D5091050D6091060D7091070D411599
:1024D00051056105710579F024E435E1CE010E94D2
:1024E000D911882341F31092040D1092050D10921A
:1024F000060D1092070D1092030D81E0DDCF8F9233
:102500009F92AF92BF92EF92FF920F931F93CF9340
:102510004B015C01C42F80911D0190911E01A0917F
:102520001F01B091200188159905AA05BB0549F145
:102530000E94421281110BC080E0CF911F910F9138
:10254000FF90EF90BF90AF909F908F90089584E49C
:10255000E82E85E1F82E00E012E030E020E0B50141
:10256000A40180914215909143150E943711882350
:1025700019F380921D0190921E01A0921F01B0924A
:1025800020014091030D4C2B4093030D81E0D5CFEA
:10259000CF93DF93EC016E857F858889998941E02F
:1025A0000E947F12882351F08A8920E2829FC00115
:1025B00011248C5B9A4EDF91CF91089590E080E0DA
:1025C000FACF8F929F92AF92BF92CF92DF92EF920B
:1025D000FF92CF9321E03CE13093431520934215C5
:1025E000882309F46DC040E060E070E0CB010E94F8
:1025F0007F1281110BC080E0CF91FF90EF90DF90B0
:10260000CF90BF90AF909F908F90089580910217C8
:102610008F7789F780910E1790910F17A09110175F
:10262000B091111784369105A105B10520F3C09032
:102630000A17D0900B17E0900C17F0900D17C114EB
:10264000D104E104F104B9F240E0C701B6010E94EF
:102650007F12882381F280914F159091501581153A
:10266000924049F6A0915415AA2329F2609152157F
:10267000709153156115710509F4BDCF2091511565
:10268000222309F4B8CFA0931F1C2093111C90E0C3
:1026900080E030E0E1E0F0E0C82FAF01082E02C09A
:1026A000440F551F0A94E2F72417350769F041E0FB
:1026B000480F01968930910579F740931A1C9BCFFA
:1026C000C12CD12C7601C0CF80931A1C20915A15B1
:1026D00030915B1550E040E02115310541F4209127
:1026E00068153091691540916A1550916B152093CA
:1026F000121C3093131C4093141C5093151C46015C
:102700005701860E971EA11CB11C8092201C90922E
:10271000211CA092221CB092231CE0915515F0912F
:102720005615F093261CE093251CB0E00E947C5CBB
:10273000DC01CB01880D991DAA1DBB1D8093271CB0
:102740009093281CA093291CB0932A1C25E0EE0F1F
:10275000FF1F2A95E1F7E150FE4FEF2FFF27E69587
:102760008E0F9F1FA11DB11D80931B1C90931C1CDD
:10277000A0931D1CB0931E1C809057159090581567
:10278000B12CA12C8114910441F480906415909097
:102790006515A0906615B0906715C81AD90AEA0A9F
:1027A000FB0AC80CD91CEA1CFB1C04C0F694E79475
:1027B000D794C794CA95D2F7C092161CD092171C12
:1027C000E092181CF092191C85EFC8168FE0D8060D
:1027D000E104F10428F48CE08093241C81E00CCF08
:1027E00080E125EFC2162FEFD206E104F104A0F339
:1027F0008091701590917115A0917215B09173151B
:102800008093271C9093281CA093291CB0932A1C0A
:1028100080E2E2CF4F925F926F927F928F929F926F
:10282000AF92BF92CF92DF92EF92FF920F931F93DE
:10283000CF93DF93EC01423051056105710590F4AF
:1028400080E0DF91CF911F910F91FF90EF90DF908B
:10285000CF90BF90AF909F908F907F906F905F9040
:102860004F90089589859A85AB85BC850196A11DF9
:10287000B11D84179507A607B70710F3CB88DC882E
:10288000ED88FE888F89803109F042C0BB27A72FD1
:10289000962F852F480159012A013B01C80ED91EE8
:1028A000EA1EFB1E80911D0190911E01A0911F0147
:1028B000B0912001C816D906EA06FB0699F58F8962
:1028C0008031C1F5B301A201552766277727440F50
:1028D000551F4C5B5A4EFA01918280828091030D04
:1028E00081608093030D8A89823080F08D819E8182
:1028F000AF81B8858C0D9D1DAE1DBF1D8093040D4D
:102900009093050DA093060DB093070D81E099CF2C
:10291000DB01CA01E7E0B695A79597958795EA95FB
:10292000D1F7B8CF40E0C701B6010E947F128111F4
:10293000C6CF86CFB301A2014F77552766277727E9
:10294000440F551F440F551F4C5B5A4EFA018082AD
:102950009182A282B382C2CF8F929F92AF92BF9296
:10296000CF92DF92EF92FF920F931F93CF93DF935B
:10297000FC0181859285A385B4850196A11DB11DB9
:1029800084179507A607B70770F480E0DF91CF9111
:102990001F910F91FF90EF90DF90CF90BF90AF907D
:1029A0009F908F90089583889488A588B68887899A
:1029B000803189F5BB27A72F962F852FE9016A0162
:1029C0007B018F01BC01CD01680D791D8A1D9B1D06
:1029D00080901D0190901E01A0901F01B0902001D9
:1029E00086169706A806B90601F5F8018789803191
:1029F00011F5DD24EE24FF24F601EE0FFF1FEC5B42
:102A0000FA4E80819181B0E0A0E088839983AA8307
:102A1000BB8381E0BBCFDB01CA01C7E0B695A795B8
:102A200097958795CA95D1F7C9CF40E00E947F124C
:102A30008111DBCFAACFE894C7F8DD24EE24FF2470
:102A4000F601EE0FFF1FEE0FFF1FEC5BFA4E8081C9
:102A50009181A281B381BF70D8CF4F925F926F9264
:102A60007F92AF92BF92CF92DF92EF92FF920F933D
:102A70001F93CF93DF9300D000D0CDB7DEB78C018A
:102A800049835A836B837C835901C12CD12C7601F5
:102A9000412C82E0582E612C712C49815A816B8126
:102AA0007C819E012F5F3F4FC8010E94AC14882398
:102AB00039F1F8018585A301920104C0220F331F6B
:102AC000441F551F8A95D2F7DA01C901C80ED91ED5
:102AD000EA1EFB1E49815A816B817C818789803186
:102AE00011F188EF9FEFAFEFBFE0481759076A0772
:102AF0007B0798F2F501C082D182E282F38281E005
:102B00000F900F900F900F90DF91CF911F910F9129
:102B1000FF90EF90DF90CF90BF90AF907F906F903D
:102B20005F904F90089588EF9FEFA0E0B0E0DDCF79
:102B3000CF93DF93FC012581222321F080E0DF91F8
:102B4000CF910895EC018091241C803159F582E0E9
:102B50008583178A108E118E128E8091251C90917C
:102B6000261CB0E0A0E025E0880F991FAA1FBB1F1C
:102B70002A95D1F7838B948BA58BB68B8DE09CE146
:102B80009C8F8B8F81E08C831E821F821886198612
:102B90001A861B861C861D861E861F86188A198A21
:102BA0001A8ACDCF803251F683E085834091271C6D
:102BB0005091281C6091291C70912A1C478B508FC2
:102BC000618F728F9F012D5E3F4F8DE09CE10E94CF
:102BD0002D158111D3CFB2CF8F929F92AF92BF921A
:102BE000CF92DF92EF92FF920F931F93CF93DF93D9
:102BF000EC018D8181110EC080E0DF91CF911F919A
:102C00000F91FF90EF90DF90CF90BF90AF909F908B
:102C10008F9008950B891C892D893E89041715070B
:102C20002607370748F34A015B01823031F48A8670
:102C30009B86AC86BD8681E0E0CF81149104A1041F
:102C4000B10449F41E821F82188619861A861B86D3
:102C50001C861D86F0CF0A851B852C853D85EB8D56
:102C6000FC8D858590E00996B901A8014150510974
:102C700061097109082E04C07695679557954795A7
:102C80000A94D2F775016401E1E0CE1AD108E10897
:102C9000F10804C0F694E794D794C7948A95D2F7C4
:102CA000C416D506E606F70620F0012B022B032BEF
:102CB00011F58F89988DA98DBA8D8E839F83A887F2
:102CC000B9878E010A5F1F4FC114D104E104F104DA
:102CD00009F4ADCF4E815F816885798598018B8D30
:102CE0009C8D0E94AC1491E0C91AD108E108F1084A
:102CF0008111EACF81CFC41AD50AE60AF70AE1CFDB
:102D00003F924F925F926F927F928F929F92AF927B
:102D1000BF92CF92DF92EF92FF920F931F93CF93C8
:102D2000DF93CDB7DEB72C970FB6F894DEBF0FBE9A
:102D3000CDBF5C01DC015B968D909C905C971696F4
:102D40004D905D906D907C901997411451046104F1
:102D5000710409F468C0BFEF4B1A5B0A6B0A7B0A67
:102D6000312CF40181859285A385B4859C01AD0148
:102D70002F5F3F4F4F4F5F4F29873A874B875C87C5
:102D8000730162011D821E821F821886F4018185F3
:102D90009285A385B4852D813E814F815885281762
:102DA00039074A075B0708F056C089859A85AB85C5
:102DB000BC858C159D05AE05BF0550F482E0C82E7C
:102DC000D12CE12CF12C92E0492E512C612C712C4C
:102DD0009E012F5F3F4FB701A601C4010E94AC14B2
:102DE0008823C9F189819A81AB81BC81892B8A2B87
:102DF0008B2B09F1260137019FEF491A590A690AFD
:102E0000790A2D813E814F8158852F5F3F4F4F4F6B
:102E10005F4F2D833E834F8358873FEFC31AD30AFA
:102E2000E30AF30AB3CFF4014080518062807380DB
:102E30003324339496CFC414D504E604F70409F779
:102E40000FEF1FEF2FEF3FE0B701A601C4010E9473
:102E50000A14811119C080E02C960FB6F894DEBFD9
:102E60000FBECDBFDF91CF911F910F91FF90EF90DB
:102E7000DF90CF90BF90AF909F908F907F906F909A
:102E80005F904F903F900895F5014681578160858E
:102E90007185411551056105710539F0970186016C
:102EA000C4010E940A148823B1F2D5011696CD926E
:102EB000DD92ED92FC921997332051F0D701C601B3
:102EC0000196A11DB11DF40180839183A283B38378
:102ED000F5018789908DA18DB28D892B8A2B8B2B43
:102EE00039F4C78AD08EE18EF28E84818068848323
:102EF00081E0B2CF2F923F924F925F926F927F927A
:102F00008F929F92AF92BF92CF92DF92EF92FF92F9
:102F10000F931F93CF93DF93EC015B012A018D8107
:102F2000811115C08FEF9FEFDF91CF911F910F910E
:102F3000FF90EF90DF90CF90BF90AF909F908F90D9
:102F40007F906F905F904F903F902F9008958C816D
:102F500080FFE8CF0B891C892D893E894A855B85D6
:102F60006C857D85C201B0E0A0E068017901C41ADA
:102F7000D50AE60AF70AC816D906EA06FB0618F4C7
:102F80002801441A550A42011E0126E0220E311C76
:102F90008114910409F4B3C04A855B856C857D85F5
:102FA0006A0181E0D8228B8D9C8D8A019B01E9E02A
:102FB0003695279517950795EA95D1F7ED81E2307B
:102FC000E1F5FC01628D738D848D958D600F711F0D
:102FD000821F931F612C22E0722E6C187D088614CC
:102FE000970408F434012C8126FD04C06114F2E03A
:102FF0007F0671F400911D0110911E0120911F01A7
:1030000030912001061717072807390709F053C028
:1030100040E00E947F12882309F484CFC6018C5BB4
:103020009A4ED5019C01260D371DFC012E173F0736
:1030300009F460C041914D93F9CFFC0174807A94FA
:103040007022C114D10471F471100CC0452B462BB1
:10305000472B39F58F89988DA98DBA8D8E839F83E3
:10306000A887B987EB8DFC8D6E817F8188859985D6
:103070006250710981099109258504C0660F771F87
:10308000881F991F2A95D2F70685178520893189CF
:10309000600F711F821F931F670D711D811D911D90
:1030A00099CF4E815F816885798591010E94AC142A
:1030B0008111D8CF37CF750183019601AB01BC01D7
:1030C00080914215909143150E943711882309F48D
:1030D00029CFA60CB71C8A859B85AC85BD85860D3E
:1030E000971DA11DB11D8A879B87AC87BD87861858
:1030F00097084ECF281B390BA20EB31EECCFC2018E
:1031000013CFCF93DF93EC018D81882329F18C813C
:1031100087FF1EC0CE010E94C812FC01892BE1F07E
:103120008D81823040F48B899C89AD89BE89848FE2
:10313000958FA68FB78F8F89988D938F828F8F8968
:10314000988DA98DBA8DB58BA48B8C818F778C834C
:10315000DF91CF910C94421280E0DF91CF910895DE
:10316000CF93DF93EC010E948118882311F01D8218
:1031700081E0DF91CF910895CF92DF92EF92FF929D
:103180001F93CF93DF938091301C882321F08BE233
:103190009CE10E94B01810920C1C10920A1C109214
:1031A000071C1092061C83E08093051C0E94520AA3
:1031B000EB0161E08091051C0E946E0961E0809145
:1031C000051C0E940E090E94F30F82E58093FF1BED
:1031D00081E08093001C8091FF1B9091001C0E9455
:1031E000AE101AE08FEF0E9486101150D9F780912F
:1031F000411581110E94681081E09CE10E94C41079
:1032000020E030E0A90160E081E09CE10E94DA105A
:10321000182F80930B1C813081F00E94520A6C1B86
:103220007D0B613D774060F381E08093061C81E077
:103230009CE10E94751090E078C02AEA31E040E0FD
:1032400050E068E081E09CE10E94DA1082FF2AC031
:1032500010930C1C80910C1CC12CD12C7601823057
:1032600029F4C12CD12CE12C80E4F82E20E030E0B0
:10327000A90167E381E09CE10E94DA10A7019601B1
:1032800069E281E09CE10E94DA1080930B1C8823A4
:10329000C1F00E94520A6C1B7D0B613D774030F3F8
:1032A00088E0C3CF14E00E94901080930B1C115053
:1032B000D1F78A3A11F082E0B8CF82E080930C1CFB
:1032C000C9CF80910C1C8230D1F420E030E0A901FC
:1032D0006AE381E09CE10E94DA10882311F086E025
:1032E000A4CF0E949010807C803C19F483E08093EE
:1032F0000C1C0E9490100E9490100E94901081E07F
:103300009CE10E94751080E58093FF1B81E0809313
:10331000001C0E94E112882389F08BE29CE10E944C
:10332000981591E0882309F486CF892FDF91CF91FA
:103330001F91FF90EF90DF90CF90089580E00E9462
:10334000E112882309F477CFE8CF2F923F924F9272
:103350005F926F927F928F929F92AF92BF92CF9225
:10336000DF92EF92FF920F931F93CF93DF9300D0E2
:1033700000D0CDB7DEB78C015B011A01DC011596D8
:103380008C911597813009F0C8C014968C9181FFFB
:10339000C4C082FDAEC06101D8011A964D915D9105
:1033A0006D917C911D97C114D10409F429C15B96DC
:1033B0008D919C915C97FC0174802FEF270D2A0161
:1033C0003B0139E076946794579447943A95D1F746
:1033D000722E74207A01F1E0FF22711020C0E114F6
:1033E000F104E9F416964D915D916D917C911997D8
:1033F000411551056105710509F098C057968D91E9
:103400009D910D90BC91A02D0097A105B10509F0EB
:10341000AFC0C8010E948016882309F47EC080E0F6
:1034200092E08E199F0946018C159D0508F44C0108
:10343000D8015B964D915C915C9716968D919D910C
:103440000D90BC91A02D0297A109B109FA01258523
:1034500004C0880F991FAA1FBB1F2A95D2F7468563
:10346000578560897189840F951FA61FB71F9C011E
:10347000AD01270D311D411D511D29013A01811456
:1034800032E0930609F07AC080911D0190911E01EF
:10349000A0911F01B091200184159505A605B705DF
:1034A00059F48FEF9FEFDC0180931D0190931E0173
:1034B000A0931F01B09320019501B301A201809157
:1034C0004215909143150E94D911882331F19EEF46
:1034D000B91AC818D908F80182859385A485B585DD
:1034E000880D991DA11DB11D82879387A487B5877B
:1034F00053CFF801438954896589768982859385FC
:10350000A485B585481759076A077B0709F443CF97
:10351000C8010E94EC1581113ECF81E090E0D801F6
:1035200013969C938E93129780E007C09E012F5FA5
:103530003F4F0E94AC14811102C090E077C0898196
:103540009A81AB81BC81F801238D348DF9012789E3
:1035500048EF5FEF60E070E0203121F048EF5FEF6F
:103560006FEF7FE084179507A607B70708F051CFE4
:10357000F80186839783A087B18751CFE114F104C6
:1035800091F5D8011A964D915D916D917C911D97A1
:1035900053968D919D910D90BC91A02D4817590780
:1035A0006A077B0700F10E944212882309F4B5CF15
:1035B00040921D0150921E0160921F0170922001E5
:1035C0008091030D81608093030D97012C5B3A4E2F
:1035D000D501C901880D991DF9018E179F0759F072
:1035E0004D914193FACF41E0C301B2010E947F1295
:1035F0008111EBCF92CF821B930BA80EB91E69CF1E
:10360000F80183899489A589B68984179507A60747
:10361000B70738F48481438B548B658B768B806835
:103620008483F801848183FD18C0C1010F900F903D
:103630000F900F90DF91CF911F910F91FF90EF901E
:10364000DF90CF90BF90AF909F908F907F906F90C2
:103650005F904F903F902F900895C8010E9481186D
:10366000882309F45ACFE1CFCF93DF931F92CDB7D0
:10367000DEB7698341E050E0BE016F5F7F4F0E947B
:10368000A5190F90DF91CF910895FC01DB011296EF
:103690008D919C9113979383828382EC91E0918327
:1036A000808314968C911497848315968C9115972A
:1036B000858316964D915D916D917C911997468306
:1036C0005783608771871A964D915D916D917C91BA
:1036D0001D9742875387648775871E964D915D912C
:1036E0006D917C91519746875787608B718B52966D
:1036F0008C915297828B53964D915D916D917C91F7
:103700005697438B548B658B768B57964D915D9175
:103710006D917C915A97478B508F618F728F5B961A
:103720008D919C91948F838F0895DC015996ED9132
:10373000FC91309721F081E09581911101C080E0EA
:103740000895FC01818D928D009711F00C948118E1
:103750000895DC015996ED91FC913097B9F0838979
:103760009489A589B6894285538564857585841BAE
:10377000950BA60BB70B811520E89207A105B105A3
:1037800038F08FEF9FE7A0E0B0E0089590E080E090
:103790000895CF93DF93EC01E98DFA8D309749F4CA
:1037A00081E090E09B838A8390E080E0DF91CF917D
:1037B000089513821282898D9A8D0E94A519E98D30
:1037C000FA8D22813381232B59F7F0CFCF93DF93EA
:1037D0001F92CDB7DEB76983DC01ED91FC910280C9
:1037E000F381E02D41E050E0BE016F5F7F4F09950E
:1037F0000F90DF91CF910895CF93DF931F92CDB7B4
:10380000DEB741E050E0BE016F5F7F4F0E947A1744
:10381000019731F4898190E00F90DF91CF91089565
:103820008FEF9FEFF9CF1F93CF93DF93FC0125819B
:10383000223030F490E080E0DF91CF911F91089525
:10384000EC01428553856485758585E0769567959D
:10385000579547958A95D1F7142F1F70CF010E9475
:10386000FC1B97FDE7CF8A859B85AC85BD854F9670
:10387000A11DB11D8A879B87AC87BD87F0E21F9F82
:10388000C00111248C5B9A4ED7CFFC01818D928DA3
:10389000009711F00C94FC1B8FEF9FEF08950F938E
:1038A0001F93CF93DF93EC01898D9A8D10E000E098
:1038B000009799F00E94FC1B8C010F3F100769F0E4
:1038C000898D9A8DFC0142855385648575854150AB
:1038D0005109610971090E94EC15C801DF91CF916E
:1038E0001F910F910895CF93DF93EC01FB0182812B
:1038F00093819B838A8384819581A681B7818C8300
:103900009D83AE83BF8380859185A285B38588879B
:103910009987AA87BB878EEC91E0998388838DE095
:103920003C96DE011C9601900D928A95E1F7FB0111
:10393000818D928D9A8F898FDF91CF9108958DE13E
:103940000E949F09BC0190E080E00E94285B23E375
:1039500033E343E550E40E94895B20E030E040E837
:103960005AE30E94895B9B01AC010E94C15C0895EF
:10397000CF92DF92EF92FF9261E08CE10E940E09FC
:1039800066E970E080E090E00E94D9090E949F1CE7
:103990006B017C0160E08CE10E940E0920E030E0C8
:1039A0004AE754E4C701B6010E94895B0E94A65D04
:1039B000CB01FF90EF90DF90CF90089560E080E022
:1039C0000E940E0968EB7BE080E090E00E94D9093C
:1039D00061E080E00C940E09CF93DF9380B780689C
:1039E00080BF61E08EE00E940E0962E370E080E03B
:1039F00090E00E94D90988E10E949F09EC0160E0F3
:103A00008EE00E940E09BE01DD0F880B990B0E940B
:103A10002A5B23EA36E043E55BE30E94895B2EEBF9
:103A20003FE94AEA5FE30E94895BDF91CF91089505
:103A3000CF93DF93FB0122813381DC0113963C930A
:103A40002E931297448155816681778114964D9308
:103A50005D936D937C93179740855185628573853F
:103A600018964D935D936D937C931B971C96EF0175
:103A70002C969C01275E3F4F49914D93A217B307A7
:103A8000D9F7218D328DFC01328F218FDF91CF91BB
:103A90000895CF93DF9382EE99E10E94F00784EEC0
:103AA0009FE10E94180B80B78F7780BFCAE7D0E0F4
:103AB00088818F778883F89485B7806885BF85B7BC
:103AC000806885BF789461E081E00E940E098CB522
:103AD0008F7B8CBD61E085E00E946E0960E085E02F
:103AE0000E940E0983B7817F846083BF83B78160A2
:103AF00083BF7894EBE6F0E0808184608083E8E621
:103B0000F0E080818160808383B7816083BF889586
:103B100083B78E7F83BF88818068888360E081E07F
:103B20000E940E098CB580648CBD40E051EE60E0CF
:103B300070E082EE99E10E94C60668EE73E080E0D4
:103B400090E0DF91CF910C94D90990E080E0089546
:103B5000282F30E094E0359527959A95E1F7922F3C
:103B6000990F990F291B220F820F089581E08093EE
:103B7000981788E68093B9171092C2171092C11750
:103B800060E085E391E20E94AA0F81E00E9427068F
:103B9000811142C067E088E60E9484061092C41733
:103BA0008093C31785E391E20E94630F8F770E9491
:103BB000A81D80934D1785E391E20E94630F0E9438
:103BC000A81D80934E1785E391E20E94630F8F7BBF
:103BD0000E94A81D80934F1785E391E20E94630F16
:103BE0008093501785E391E20E94630F0E94A81D05
:103BF0008093511785E391E20E94630F8F770E94B3
:103C0000A81D8093521785E391E20E94630F0E94E2
:103C1000A81D825E8093531780914D178093BE0C30
:103C200080914E1780933B1580914F1780933C15E0
:103C3000809151178093C10C809152178093C20CD0
:103C40008091531790E08E54984F9093C00C8093BE
:103C5000BF0C62E370E080E090E00C94D909CF9350
:103C600091E09093981798E69093B9171092C21725
:103C70001092C117682F85E391E20E94AA0F81E09C
:103C80000E94270681110DC061E088E60E9484062B
:103C90001092C4178093C31785E391E20E94630FCB
:103CA000C82F8C2FCF9108951F93CF93DF9381E07E
:103CB0008093981788E68093B9171092C2171092D4
:103CC000C11760E085E391E20E94AA0FCDE4D7E13D
:103CD00028811AE0822F612F0E94DF5D682F660F16
:103CE000680F660F620F85E391E20E94AA0F298197
:103CF000822F612F0E94DF5D682F660F680F660FAD
:103D0000620F85E391E20E94AA0F2A81822F612F20
:103D10000E94DF5D682F660F680F660F620F85E3F4
:103D200091E20E94AA0F6B8185E391E20E94AA0FA3
:103D30002C81822F612F0E94DF5D682F660F680F34
:103D4000660F620F85E391E20E94AA0F2D81822FF8
:103D5000612F0E94DF5D682F660F680F660F620F8C
:103D600085E391E20E94AA0F2E812E51822F612FAE
:103D70000E94DF5D682F660F680F660F620F85E394
:103D800091E20E94AA0F81E00E942706C82F8FE0CF
:103D90000E942F1E682F6F778FE00E94D90F8C2F03
:103DA000DF91CF911F910895CF93DF93C82F8FE0BC
:103DB0000E942F1EC150DD0B21E030E001C0220F18
:103DC000CA95EAF7982F922351F02095622F682325
:103DD0008FE00E94D90F81E0DF91CF91089580E0BC
:103DE000FBCFCF9382E10E942F1EC82F81E10E945A
:103DF0002F1E6C2F782F77FF02C0615C7F4F86E00B
:103E0000759567958A95E1F7072E000C880B990B3D
:103E10000E942A5B20E030E040E85EE30E94895B7C
:103E2000CF9108958F929F92AF92BF92CF92DF92DF
:103E3000EF92FF920F931F93CF93DF9300D000D0A8
:103E4000CDB7DEB7FC018581813091F080E00F9025
:103E50000F900F900F90DF91CF911F910F91FF90D6
:103E6000EF90DF90CF90BF90AF909F908F9008958C
:103E7000848181FFEBCF83899489A589B689892BB9
:103E80008A2B8B2B09F45EC07F0140E050E0BA0121
:103E9000CF010E94EC158823C9F2F701C38CD48CA2
:103EA0008788908CA18CB28C82E090E0A0E0B0E09A
:103EB000F60180839183A283B3839E012F5F3F4FDE
:103EC000B501A401C6010E94AC14882309F4BECF39
:103ED00000E010E09801B501A401C6010E940A1497
:103EE000882309F4B3CF89809A80AB80BC80F60127
:103EF0008789803111F188EF9FEFAFEFBFE088161F
:103F00009906AA06BB06C8F2F701178A108E118E11
:103F1000128E138A148A158A168A84818068848393
:103F2000C7010E948118882309F490CF40E050E037
:103F3000BA01C7010E94EC158ACF88EF9FEFA0E07D
:103F4000B0E0DDCF81E083CFCF93DF93EC010E941F
:103F5000121F882369F0CE010E94C812009741F019
:103F600025EEFC0120831D82DF91CF910C9442123B
:103F700080E0DF91CF910895CF92DF92EF92FF9290
:103F80001F93CF93DF93EC0180E2689FF00111242F
:103F9000EC5BFA4E9385917161F0842F827449F045
:103FA00080E0DF91CF911F91FF90EF90DF90CF9055
:103FB0000895142F6A8B80911D0190911E01A0918C
:103FC0001F01B09120018E879F87A88BB98BC48871
:103FD000D588F12CE12C7601DD24CC24CF8AD88E33
:103FE000E98EFA8E828D938DB0E0A0E0AC01BD0128
:103FF0004C295D296E297F294F8B588F698F7A8FC5
:1040000083858871B1F4848D958DA68DB78D8B8B4A
:104010009C8BAD8BBE8B81E08D831F701C831E82B9
:104020001F82188619861A861B861C861D8681E0CB
:10403000B8CF803109F0B4CF9E012D5E3F4F8B8DFC
:104040009C8D0E942D15882309F4AACF84E0E4CF2B
:104050002F923F924F925F926F927F928F929F9298
:10406000AF92BF92CF92DF92EF92FF920F931F9386
:10407000CF93DF9300D000D000D0CDB7DEB78C0156
:104080006B8349838091D71D22242394280E20928C
:10409000D71D312CC12CD12C7601D3947724739465
:1040A000730C8091DA1D831508F4EFC08091D01D48
:1040B0009091D11DDC01ED91FC91008CF18DE02DF2
:1040C000622D09958091D01D9091D11DDC01ED915B
:1040D000FC91028CF38DE02D40E860E00995498168
:1040E0006B81C8010E940F070E940407B981BF3F7E
:1040F000D1F481E026960FB6F894DEBF0FBECDBF97
:10410000DF91CF911F910F91FF90EF90DF90CF90B3
:10411000BF90AF909F908F907F906F905F904F90E7
:104120003F902F90089521E0271598F48091D31D9A
:104130009091D41DA091D51DB091D61D0196A11DC1
:10414000B11D8093D31D9093D41DA093D51DB09322
:10415000D61D0E94520A4B015C018091D81D90919E
:10416000D91D9D838C830E94445AA70196010E9409
:104170005D5C9B01AC01AC81BD810E947C5CA701B0
:1041800096010E945D5CAC81BD812A0F3B1F372CDC
:104190002901712C612C0E94520A681979098A0937
:1041A0009B09641575058605970508F077CF809102
:1041B000D01D9091D11DDC01ED91FC910280F38125
:1041C000E02D0995882339F38091D01D9091D11D60
:1041D000DC01ED91FC910480F581E02D50E040E0A0
:1041E00070E060E009958823B1F28091D01D909134
:1041F000D11DDC01ED91FC9100A0F1A1E02D09950C
:104200008E838091D01D9091D11DDC01ED91FC91A8
:10421000068CF78DE02D09958A838091D01D9091B1
:10422000D11DDC01ED91FC9102A0F3A1E02D0995D7
:104230008C838091D01D9091D11DDC01ED91FC917A
:1042400004A0F5A1E02D0995B9812E81B2130BC010
:104250009091D21DAA819A1306C087FF04C0BC8129
:104260002B1609F446CF87FD96CF2E81E22FF0E082
:10427000E053F24E83859C8189138DCF422F692FA5
:1042800080ED9DE10E941D0D86CF80E033CF0F931E
:104290001F93CF93DF934115510559F061157105B7
:1042A00041F0FC01048115810115110539F4FB0170
:1042B0001082DF91CF911F910F91089541505109C4
:1042C0004017510708F48A01EB01FC0160817181FC
:1042D000A801CE010E944F60C00FD11F1882E9CF04
:1042E000CF92DF92EF92FF920F931F93CF93DF93C2
:1042F000EB017B0126E0E20EF11C8B016C01C61A7A
:10430000D70AC601800F911F0E94475CF801819374
:104310008F01EE15FF05A9F7CE01DF91CF911F9117
:104320000F91FF90EF90DF90CF9008950C94475C31
:104330000E942260FB0101900020E9F73197AF0154
:10434000461B570BDC01ED91FC910280F381E02DBF
:1043500009948F929F92AF92BF920F931F93CF9326
:10436000DF93CDB7DEB7A1970FB6F894DEBF0FBECF
:10437000CDBF19A2423008F44AE08E010F5D1F4FF5
:10438000842E912CB12CA12CA50194010E948F5C4C
:10439000E62FB901CA01EA3004F5E05DD801EE93D9
:1043A0008D01232B242B252B79F790E080E01097AB
:1043B00029F0BD0182EE99E10E949A21A1960FB6E3
:1043C000F894DEBF0FBECDBFDF91CF911F910F914B
:1043D000BF90AF909F908F900895E95CDFCF682FDA
:1043E00070E090E080E04AE00C94A921CF92DF9247
:1043F000EF92FF92CF93DF9397FF19C06B017C017F
:104400008DE20E947508EC0166277727CB016C19B5
:104410007D098E099F094AE00E94A9218C0F9D1FEA
:10442000DF91CF91FF90EF90DF90CF9008954AE019
:10443000DF91CF91FF90EF90DF90CF900C94A92166
:10444000009729F0BC0182EE99E10C949A2190E04A
:1044500080E0089569E278E00C949A21CF93DF938D
:104460000E94EF21EC0182EE99E10E942A228C0F3A
:104470009D1FDF91CF910895CF92DF92EF92FF922F
:10448000CF930E94520A6B017C0128E9C20E2AE3F5
:10449000D21EE11CF11CC092E60CD092E70CE09217
:1044A000E80CF092E90C1092E50C0E94520A6C158F
:1044B0007D058E059F0520F582EE99E10E94D507C6
:1044C0001816190694F764E670E080E090E00E9408
:1044D000D90982EE99E10E94D507D82EF12CCAE0C5
:1044E000E090E50CFD1460F482EE99E10E94B407BF
:1044F000EC9E800D112480538093E50CF394F0CF53
:104500008091E50CCF91FF90EF90DF90CF900C94CD
:104510002E22CF930E94B61D2091D00C243009F09A
:1045200046C030913C15432F50E0CA0102968231BB
:10453000910509F452C03231B9F568E170E00E948A
:10454000EB5DC82F3AE08C2F632F0E94DF5D982F20
:10455000990F890F880FC80F822F0E94DF5D682F87
:10456000660F680F660F620F8BE00E94D90F6C2FE9
:104570008CE00E94D90F60E88DE00E94D90F8AE19B
:1045800092E00E94202282E10E94EF2181E699E0E0
:104590000E94202283E20E942E2262E370E080E0EB
:1045A00090E0CF910C94D909CA010496C6CF21306E
:1045B00049F6C0913C15C23139F480913B158332E4
:1045C00068F0C3E124E0BECF8C2F90E0019668E153
:1045D00070E00E94EB5DC82FF5CFC2E123E2B2CFBD
:1045E000CF930E94B61D2091C30CE22FF0E0809182
:1045F0003B158E0F9F2F911D6CE370E00E94EB5DC9
:10460000BF010E94EB5D269F202D11242F5F209378
:10461000560C822F6AE00E94DF5DC82FCC0FC80FB6
:10462000CC0FC20F60E087E00E94D90F6C2F88E0AA
:104630000E94D90F60E889E00E94D90F60E88AE003
:104640000E94D90F8CE292E00E9420228091560CA9
:104650000E942E2262E370E080E090E0CF910C9403
:10466000D909CF93DF93BC01990F880B990B0E9456
:10467000F621EC0182EE99E10E942A228C0F9D1F07
:10468000DF91CF910895CF92DF92EF92FF920F9337
:104690001F93CF93DF930E94520A6B017C0128E99C
:1046A000C20E2AE3D21EE11CF11CC092E60CD0928D
:1046B000E70CE092E80CF092E90C1092E40C1092F6
:1046C000E30C0E94520A6C157D058E059F0508F0CB
:1046D00046C082EE99E10E94D507181619068CF79C
:1046E00064E670E080E090E00E94D90982EE99E1F2
:1046F0000E94D5078C019093E20C8093E10C81E03D
:104700008093E00C3AE0C32ED090E00CCD2DD0E0A9
:10471000E090E30CF090E40C0C171D0704F182EE1E
:1047200099E10E94B407CC0FDD1FCE52D34F99837D
:1047300088838D30910579F08A30910561F0C097BA
:10474000CE9C9001CF9C300D1124820F931F90932B
:10475000E40C8093E30CD394D092E00CD5CF8091FD
:10476000E30C9091E40C0E9431236AE070E080E059
:1047700090E0DF91CF911F910F91FF90EF90DF902C
:10478000CF900C94D909CF93DF934AE00E94A921DE
:10479000EC0182EE99E10E942A228C0F9D1FDF918D
:1047A000CF9108950F931F93CF93DF938C01D0E0A7
:1047B000C0E06115710519F00E949A21EC01C80151
:1047C0000E942A228C0F9D1FDF91CF911F910F9184
:1047D0000895CF92DF92EF92FF921F93CF93DF93D2
:1047E0000E94520A6B017C0128E9C20E2AE3D21E04
:1047F000E11CF11C0E94520A6C157D058E059F0577
:1048000040F582EE99E10E94D5071816190694F733
:1048100064E670E080E090E00E94D90982EE99E1C0
:104820000E94D507EC01F82E10E082EE99E10E947B
:10483000B4078D3039F08A3029F0E12FF0E0E651ED
:10484000F34F80831F5FF11680F7DD27C651D34FEA
:1048500018826AEE7CE082EE99E1DF91CF911F91A0
:10486000FF90EF90DF90CF900C94D2230F931F9383
:10487000CF93DF93EC01FB0144815581608171810D
:10488000E881F9810280F381E02D09958C01CE0148
:104890000E942A22800F911FDF91CF911F910F91CB
:1048A00008950F931F93CF93DF93EC010E9453075A
:1048B0008C01CE010E942A22800F911FDF91CF919F
:1048C0001F910F910895CF93DF93EC010E949B0AF3
:1048D00066ED7BE082EE99E10E945307BE0182EE15
:1048E00099E10E945124BE018091CE1D9091CF1D6F
:1048F0000E94512480E00E940B0AC82F6FEC7BE0DD
:1049000082EE99E10E94530764EC7CE182EE99E12A
:104910000E94D2238C2FDF91CF910895CF93DF9304
:10492000EB010E946324882341F0BE0184EC9CE1EA
:104930000E94C35A21E0892B09F020E0822FDF91E9
:10494000CF910895CF93DF939093CF1D8093CE1D89
:1049500061E08091C21C0E946E0961E08091C21CDE
:104960000E940E096AE070E080E090E00E94D909A0
:1049700060E08091C21C0E940E0964E670E080E055
:1049800090E00E94D90961E08091C21C0E940E094A
:104990006EEA7BE082EE99E10E945124CEE0D0E005
:1049A0008091CE1D9091CF1DDC01ED91FC91008492
:1049B000F185E02D0995892B61F08091CE1D9091B4
:1049C000CF1DDC01ED91FC910284F385E02D09956A
:1049D000E7CF6091CC1D7091CD1D8BEA9BE00E94CA
:1049E0008E2481115AC08091CE1D9091CF1DDC0183
:1049F000ED91FC910084F185E02D0995892B61F002
:104A00008091CE1D9091CF1DDC01ED91FC9102842F
:104A1000F385E02D0995E7CF65EA7BE088EA9BE026
:104A20000E948E24811139C064EF71E080E090E033
:104A30000E94D909219709F0B3CF63E77BE082EEAA
:104A400099E10E9451246091CC1D7091CD1D80E7A9
:104A50009BE00E948E2464E670E080E090E00E947B
:104A6000D9096091CC1D7091CD1D8DE69BE00E940F
:104A70008E2464E670E080E090E00E94D9096091A5
:104A8000CC1D7091CD1D8AE69BE00E948E2464E6C9
:104A900070E080E090E00E94D9096091CC1D709197
:104AA000CD1D85E69BE00E948E2464E670E080E0E8
:104AB00090E00E94D9096091CC1D7091CD1D80E6D7
:104AC0009BE00E948E24C82F882309F470C0609157
:104AD000CC1D7091CD1D86E59BE00E948E2464E67E
:104AE00070E080E090E00E94D9090E949B0A6FE488
:104AF0007BE082EE99E10E9453076EE372E082EE62
:104B000099E10E94D2236EE372E08091CE1D9091D4
:104B1000CF1D0E94D22381E00E940B0A68E47BE053
:104B200082EE99E10E94530764EC7CE182EE99E108
:104B30000E94D2236DE37BE084EC9CE10E94CC5A7E
:104B4000892BC9F183E08093C31C8091C31C813001
:104B500071F560E07BE082EE99E10E94530762E428
:104B600072E082EE99E10E94D22362E472E08091C9
:104B7000CE1D9091CF1D0E94D22381E00E940B0A8E
:104B800069EF7AE082EE99E10E94530764EC7CE1E0
:104B900082EE99E10E94D22361EF7AE084EC9CE1FD
:104BA0000E94CC5A892B19F086E08093C31C8C2F6D
:104BB000DF91CF91089562E37BE084EC9CE10E9459
:104BC000CC5A892B11F082E0BECF67E27BE084EC07
:104BD0009CE10E94CC5A892B11F081E0B4CF67E1AF
:104BE0007BE084EC9CE10E94CC5A892B11F084E09C
:104BF000AACF67E07BE084EC9CE10E94CC5A892B31
:104C000009F4A3CF85E09FCF0F931F93CF93DF933A
:104C1000EC0188819981009759F02A813B81261700
:104C2000370730F081E0DF91CF911F910F91089508
:104C30008B016F5F7F4F0E94415F009759F099830E
:104C400088831B830A832C813D81232B59F7FC0128
:104C50001082E8CF80E0E7CFEF92FF920F931F938F
:104C6000CF93DF936115710541F480E0DF91CF911F
:104C70001F910F91FF90EF90089541155105B1F0EC
:104C80007B01EC010C811D81040F151FB8010E94EE
:104C90000426882351F3288139818C819D81B701B5
:104CA000820F931F0E9448601D830C8381E0DECF3A
:104CB000EF92FF920F931F93CF93DF9300D000D01A
:104CC000CDB7DEB77C01862F4AE08E010F5F1F4F04
:104CD000B80190E00E94E65AF80101900020E9F73F
:104CE0003197AF01401B510BB801C7010E942C2620
:104CF0000F900F900F900F90DF91CF911F910F9118
:104D0000FF90EF900895CF93DF9300D0CDB7DEB73B
:104D100069831A8241E050E0BE016F5F7F4F0E94BD
:104D20002C260F900F90DF91CF910895FB010190F9
:104D30000020E9F73197AF01461B570B0C942C2646
:104D4000FB0144815581608171810C942C26CF93A5
:104D5000DF93EC0188819981009711F00E94B85E81
:104D6000198218821D821C821B821A82DF91CF91C8
:104D70000895CF93DF93EC016115710539F4CE01ED
:104D80000E94A726CE01DF91CF910895FB010190EB
:104D90000020E9F73197AF01461B570B0E942C26E4
:104DA000882369F3EFCFCF93DF93EC01FB014481BC
:104DB0005581608171810E942C26811103C0CE0132
:104DC0000E94A726CE01DF91CF910895EF92FF9226
:104DD0000F931F93CF93DF93EC017B018A01BA01FC
:104DE0000E94042681110BC0CE010E94A726CE018D
:104DF000DF91CF911F910F91FF90EF9008951D8348
:104E00000C83B701888199810E944860F0CFFB0133
:104E100001900020E9F73197AF01461B570B0C9426
:104E2000E6260F931F93CF93DF93CDB7DEB7299775
:104E30000FB6F894DEBF0FBECDBF8C01862FF801F0
:104E40001182108213821282158214824AE0BE01FE
:104E50006F5F7F4F90E00E94F95ABE016F5F7F4FF6
:104E6000C8010E94072729960FB6F894DEBF0FBE2F
:104E7000CDBFDF91CF911F910F9108950F931F9395
:104E8000CF93DF93CDB7DEB762970FB6F894DEBF4E
:104E90000FBECDBF8C01CB01F801118210821382AD
:104EA0001282158214824AE0BE016F5F7F4F0E941A
:104EB000E65ABE016F5F7F4FC8010E9407276296C6
:104EC0000FB6F894DEBF0FBECDBFDF91CF911F911B
:104ED0000F910895CF93DF93C0E0D6E08091D10C7D
:104EE000C81758F4CD9FC001112462E572E08F5EAF
:104EF0009E4D0E940727CF5FF1CFDF91CF9108959C
:104F00000F931F93CF93DF93CDB7DEB728970FB6DC
:104F1000F894DEBF0FBECDBF62E572E085E091E29E
:104F20000E9407270E94B61D4AE08E010F5F1F4FA7
:104F3000B8018091BF0C9091C00C0E94E65AF80114
:104F400001900020E9F73197AF01401B510BB801E8
:104F500085E091E20E942C266DE285E091E20E94BC
:104F600083266091C20C85E091E20E9458266DE292
:104F700085E091E20E9483266091C10C85E091E278
:104F80000E9458266FE585E091E20E948326609199
:104F90003C1585E091E20E9458266AE385E091E2A3
:104FA0000E94832610913B151A3028F460E385E0B7
:104FB00091E20E948326612F85E091E20E945826AB
:104FC0006AE385E091E20E9483261091BE0C1A30BC
:104FD00028F460E385E091E20E948326612F85E05A
:104FE00091E20E94582669E472E085E091E20E9415
:104FF000962662E370E080E090E00E94D90928964E
:105000000FB6F894DEBF0FBECDBFDF91CF911F91D9
:105010000F910895CF93DF93EC01FB01861797075B
:1050200049F0608171816115710541F044815581BC
:105030000E94E626CE01DF91CF9108950E94A72617
:10504000F9CFFC0111821082138212821582148220
:105050000C940A28FC01118210821382128215829C
:105060001482FB0101900020E9F73197AF01461B44
:10507000570B0C94E626FC01808191810C94B85E5C
:10508000CF93DF93EC01898D9A8D009741F00E94B8
:10509000B018898D9A8D0E94B85E1A8E198EDF9194
:1050A000CF910895CF92DF92EF92FF920F931F93CB
:1050B000CF93DF93EC017B018A01E881F9810280C3
:1050C000F381E02D0995D82E882329F1E114F1040C
:1050D000D1F001151105B9F0CFB6F8948A8D83503F
:1050E000990BF8012081281719061CF08A8D84502D
:1050F0008083F801408150E0BE01615E7F4FC701AF
:105100000E943460CFBE8FB7F894FE01E65EFE4F7A
:1051100010821A8E8FBF8D2DDF91CF911F910F912D
:10512000FF90EF90DF90CF900895EF92FF920F9352
:105130001F93CF93DF9300D01F92CDB7DEB78C01C2
:105140000E94FF0CE82E81110CC0E12C8E2D0F90D7
:105150000F900F90DF91CF911F910F91FF90EF90E3
:105160000895F801808D8A3009F47EC08B3009F4EF
:105170007DC022E0F22E823041F740E861E0C801B4
:105180000E94D50A6AE070E080E090E00E94D909B0
:1051900061E0C8010E94150C8038B9F660E0F801A2
:1051A000808D0E946E09F801818D8F3F49F48091B6
:1051B0004C0D843050F691E0980F90934C0D818FF8
:1051C000F801818DE82FF0E0EE0FFF1FE35BF24F57
:1051D0001183008366EF7CE0882349F06DEE7CE06C
:1051E000813029F0823009F0B0CF64EE7CE08F2D61
:1051F0000E94320740E06EE0C8010E94D50A40E0FC
:105200006FE0C8010E94D50AC8010E942D0B43E03F
:1052100050E067E67AE0CE0101960E94BA5A4981D1
:105220006DE1C8010E94D50A4A816EE1C8010E9461
:10523000D50A4B8166E2C8010E94D50A40E060E2CF
:10524000C8010E94D50A48E061E2C8010E94D50A5F
:1052500040E050EC64E674E4C8010E94410B6DE04C
:10526000C8010E94050B72CFF12C87CFFF24F39465
:1052700084CF3F924F925F926F927F928F929F92D4
:10528000AF92BF92CF92DF92EF92FF920F931F9354
:10529000CF93DF93CDB7DEB72B970FB6F894DEBF71
:1052A0000FBECDBF7C01DC0115968C91811115C01C
:1052B000FE013196CE010C966F0130E231938E17CC
:1052C0009F07E1F7DA0130E087E09D91B92E99233D
:1052D00029F19E3239F48A3011F480E0BEC038E002
:1052E0008AE0F3CFE7E5FAE04491442321F03196D8
:1052F0009413FACFF2CF831780F34FED490F4E3559
:1053000060F74FE9490F4A3118F440EEB42EB90E58
:10531000F601E30FF11DB0823F5FD7CF8981803264
:10532000E1F2322E8B01FB01838D948DD7015C96C7
:105330009C938E935B971682178210861186128635
:10534000138614861586F80182859385A485B58514
:10535000438954896589768984179507A607B70715
:1053600090F525E0B695A795979587952A95D1F75D
:10537000F82FFF70AF2EC8010E94131C009709F48C
:10538000ACCFDC012C91222341F0253E09F057C01F
:10539000BB2029F0BB24B394D6CFB1100EC0F701C7
:1053A000A28A40911D0150911E0160911F017091D0
:1053B000200146875787608B718BFC0180818111AA
:1053C000E9CFBB24B394832D8271823109F085CF5C
:1053D000BB2009F45AC0C7010E94C812009709F403
:1053E0007CCF20E2FC0111922A95E9F72BE0F6012F
:1053F000DC0101900D922A95E1F721E238E2DC010F
:1054000051963C932E93509740E058E01F965C9342
:105410004E931E9753963C932E93529759963C93D6
:105420002E93589757965C934E9356970E9442122C
:10543000882309F452CF432DF70162890BC04BE05A
:1054400050E0BC01C6010E942760892B09F07BCF88
:10545000432D6A2DC7010E94BC1F2B960FB6F894EE
:10546000DEBF0FBECDBFDF91CF911F910F91FF9097
:10547000EF90DF90CF90BF90AF909F908F907F90F4
:105480006F905F904F903F900895D80115968C9142
:10549000823009F422CFC8010E948016882309F4C3
:1054A0001CCFD8015B96ED91FC915C9716968D9080
:1054B0009D90AD90BC901997B2E08B1A9108A1080D
:1054C000B108858504C0880C991CAA1CBB1C8A9550
:1054D000D2F786859785A089B189880E991EAA1E64
:1054E000BB1E848124013501480E511C611C711CB6
:1054F00084149504A604B70401F1E1E04E1A5108A2
:10550000610871080E944212882309F4E6CEE4E49F
:10551000F5E1119284E497E18E179F07D1F740924D
:105520001D0150921E0160921F0170922001809116
:10553000030D81608093030DDBCFD8015B96ED9165
:10554000FC91258580E092E0A0E0B0E004C0880FE7
:10555000991FAA1FBB1F2A95D2F7F80143895489C6
:1055600065897689840F951FA61FB71F838B948B3F
:10557000A58BB68BD70152961C9284E495E131CF6E
:105580005F926F927F928F929F92AF92BF92CF92D3
:10559000DF92EF92FF920F931F93CF93DF93CDB7DC
:1055A000DEB7C754D1090FB6F894DEBF0FBECDBF2A
:1055B0005C013B0119A218A282EC91E09F8F8E8FB3
:1055C0001BA21C821B829A8389831E8210E000E04A
:1055D0006E018EE1C80ED11C8BE2E82E8CE1F82E14
:1055E000F501E00FF11F80818F3211F40F5F1F4F23
:1055F000D501A00FB11FFE01FB9690E080E04F01A6
:105600002D912F3249F0222339F00F5F1F4F019661
:1056100021938C309105A1F7880D991DFC01108212
:10562000F501E00FF11F80818F3211F40F5F1F4FE2
:10563000F501E00FF11F508041E0511040E030E0F3
:1056400020E0B401C701F3010995811121C0FBE2FB
:10565000EF16FCE1FF06C1F480E0C95BDF4F0FB637
:10566000F894DEBF0FBECDBFDF91CF911F910F9198
:10567000FF90EF90DF90CF90BF90AF909F908F9072
:105680007F906F905F900895C7010E94B018E4CF9B
:10569000552091F021E0A401B701C6010E943929EB
:1056A000982E8BE2E8168CE1F80681F0C7010E9483
:1056B000B018911010C0D0CF9BE2E9169CE1F9061A
:1056C00019F0C7010E94B01881E0C7CF992021F2DC
:1056D000FE0131967F019E2D8F2D7601C92ED82E89
:1056E0007FCFCF93DF93CDB7DEB76D970FB6F8942A
:1056F000DEBF0FBECDBF442309F453C0AB01BC01D4
:105700001C821B8282EC91E09A8389831E8221E0B5
:10571000CE0101960E943929882339F08E81843088
:1057200071F090E081E0911101C080E06D960FB6BC
:10573000F894DEBF0FBECDBFDF91CF9108951F82D9
:10574000188619861A861B861C861D861E864B8522
:105750005C856D857E858C899D89AE89BF8948175A
:1057600059076A077B0790F4CE0101960E94131C2B
:105770000097B9F2FC012081222341F0253E39F344
:105780002E3229F3838583FDE2CFCBCF81E08E8358
:105790008D8182608D83CE0101960E94A41F982F77
:1057A000C1CF81E0C3CFCF93DF93CDB7DEB76D9785
:1057B0000FB6F894DEBF0FBECDBF442311F1AB018D
:1057C000BC011C821B8282EC91E09A8389831E8239
:1057D00022E0CE0101960E943929882321F0CE01D2
:1057E00001960E94A41F91E0811101C090E0892FD1
:1057F0006D960FB6F894DEBF0FBECDBFDF91CF918F
:10580000089591E0F4CF1F93CF93DF93CDB7DEB728
:105810006D970FB6F894DEBF0FBECDBFAB011C82F3
:105820001B8222EC31E03A8329831E8221E0BC01F5
:10583000CE0101960E94392911E081110CC010E0BF
:10584000812F6D960FB6F894DEBF0FBECDBFDF91EE
:10585000CF911F910895CE0101960E94B018F0CF0C
:10586000EF92FF920F931F93CF93DF93EC017B0195
:105870008A011B821A8288EE93E0A0E0B0E08C835C
:105880009D83AE83BF838EEC91E0998388838DE105
:1058900090E00E941C5E9A8F898F009779F02DE12D
:1058A000F701DC0101900D922A95E1F74CE050E000
:1058B000B801CE010C960E944F60188EDF91CF91F7
:1058C0001F910F91FF90EF900895CF92DF92EF928A
:1058D000FF920F931F93CF93DF93CDB7DEB7C756D9
:1058E000D1090FB6F894DEBF0FBECDBF8C017B018E
:1058F000DB015996CD90DC90F6018581823008F469
:105900009AC082859385A485B5858F719927AA272A
:10591000BB27892B8A2B8B2B09F08DC040E250E0EE
:10592000BE016F5F7F4FC6010E947A17803209F077
:1059300082C08981882309F47EC0853E79F38E3246
:1059400069F38C8583FDEACF22961FAE1EAE2297A7
:1059500082EC91E09FAF8EAF24961FAE2497BE01DC
:105960006F5F7F4FE0E080E02EE2DB019D91BD01A3
:105970009032A1F0883049F44BE550E04C0F5D1FA8
:105980004E0F511DDA012C93EF5F4BE550E04C0FA9
:105990005D1F4E0F511DDA019C93EF5F8F5F8B30BF
:1059A00021F78BE590E08C0F9D1F8E0F911DFC0160
:1059B0001082D70159966D917C9121E0AE01455A34
:1059C0005F4FCE01CE960E943929882309F1BE018E
:1059D000625C7F4FCE0181960E94451BAE01455A05
:1059E0005F4FBE016F5D7F4FC8010E94302CC80120
:1059F000C959DF4F0FB6F894DEBF0FBECDBFDF91A0
:105A0000CF911F910F91FF90EF90DF90CF9008956D
:105A1000F8011382128288EE93E0A0E0B0E0848364
:105A20009583A683B7838EEC91E091838083128E59
:105A3000118E1486DCCFD80113961C921E921297F9
:105A400088EE93E0A0E0B0E0F801E9CFAF92BF921A
:105A5000CF92DF92EF92FF921F93CF93DF93CDB758
:105A6000DEB7E6970FB6F894DEBF0FBECDBF6C0170
:105A70007B015B018FEFA81AB80AB601CE0101962F
:105A80000E94652CCE0101960E94951B8823E9F1A6
:105A900010E01E151F042CF489E00E9475081F5F9A
:105AA000F8CFCE010D960E942022EA8DFB8D309713
:105AB000D1F085818230B8F06EE472E082EE99E137
:105AC0000E94D223BE016F5F7F4FCE014C960E9491
:105AD000731CB501CE014C960E94262DCE01019675
