:100000000C9454040C944C3A0C94213A0C94F63908
:100010000C94CB3C0C947E040C947E040C94E73C32
:100020000C947E040C947E040C947E040C947E0448
:100030000C947E040C94773A0C947E040C947E0409
:100040000C947E040C947E040C94AC390C947E04C5
:100050000C9477390C944D390C947E040C947E04E6
:100060000C947E040C947E040C94A73B0C947E04A8
:100070000C947E040C947E040C947E040C947E04F8
:100080000C947E040C947E040C947E0400407A1040
:10009000F35A00A0724E18090010A5D4E80000E839
:1000A0007648170000E40B54020000CA9A3B000097
:1000B00000E1F505000080969800000040420F0026
:1000C0000000A08601000000102700000000E803E7
:1000D000000000006400000000000A0000000000B2
:1000E0000100000000002C76D888DC674F0823DF71
:1000F000C1DFAE59E1B1B796E5E3E453C63AE65144
:10010000997696E8E6C28426EB898C9B62ED407C6A
:100110006FFCEFBC9C9F40F2BAA56FA5F490055A06
:100120002AF75C936B6CF9676DC11BFCE0E40D472B
:10013000FEF520E6B500D0ED902E0300943577054E
:100140000080841E080000204E0A000000C80C3306
:100150003333330F986E12831141EF8D2114893B95
:10016000E65516CFFEE6DB18D1844B381BF77C1D15
:10017000901DA4BBE424203284725E228100C9F168
:1001800024ECA1E53D276364696E6F707375785840
:100190005B00446F6E65005363616E6E696E67202D
:1001A000666F72205344492D31322073656E736F30
:1001B00072732E2E2E004552524F523A20496E76BF
:1001C000616C696420696E74657276616C20286563
:1001D000766572792031352C2032302C2033302C4A
:1001E000206F72203630206D696E73290070726F37
:1001F0006A65637449443A20002020696E70757402
:10020000206D696E7574653A20002020696E7075E6
:100210007420686F75723A202020002020696E706B
:10022000757420796561723A202020002020696E63
:10023000707574206461793A2020202000202069A4
:100240006E707574206D6F6E74683A202000456E74
:1002500074657220746865206461746520616E64E1
:100260002074696D6520696E20436F6F7264696EDA
:100270006174656420556E6976657273616C205493
:10028000696D652028555443293A200020202020FC
:10029000456E74657220476174657761792072617B
:1002A00064696F2049443A200041726520796F7576
:1002B000207573696E672061204761746577617985
:1002C0003F20456E7465722027792720666F722063
:1002D0007965732C20276E2720666F72206E6F3A27
:1002E000200044656661756C7420726164696F20DA
:1002F0004944206163636570746564005261646998
:100300006F20494420757064617465640020456EF7
:10031000746572206E657720726164696F2049444C
:100320003A200020456E7465722027792720666F79
:1003300072207965732C20276E2720666F72206EDD
:100340006F3A2000576F756C6420796F75206C6967
:100350006B6520746F206368616E676520746865E3
:1003600020726164696F2049442066726F6D207449
:1003700068652064656661756C742076616C75656E
:100380003F00496E76616C696420696E74657276AF
:10039000616C2E20456E746572206D656173757297
:1003A000656D656E7420696E74657276616C202867
:1003B00065766572792031352C2032302C2033302F
:1003C0002C206F72203630206D696E73293A200020
:1003D000456E746572206D6561737572656D656ECD
:1003E0007420696E74657276616C2028657665721A
:1003F000792031352C2032302C2033302C206F7274
:10040000203630206D696E73293A20002020456E19
:1004100074657220612050726F6A6563742049446C
:100420002028757020746F203520636861726163C5
:10043000746572732C2065783A20505341293A2014
:10044000004578697400456E74657220277927200D
:10045000666F7220796573206F7220276E27206681
:100460006F72206E6F3A200041726520796F75209F
:100470007375726520796F752077616E7420746F63
:1004800020657261736520616C6C20646174612009
:1004900073746F72656420696E206D656D6F72791B
:1004A0003F005072696E7420616C6C2064617461ED
:1004B00020746F2073637265656E3A200054657313
:1004C00074206D6561737572656D656E74733A0045
:1004D00057616974696E6720666F722074696D6513
:1004E0002066726F6D20476174657761792E2E2EBC
:1004F00000456E7465722073656E736F722064655B
:1005000070746820696E20636D2E205573652027F6
:100510002B27206F7220272D2720746F20696E648F
:1005200069636174652061626F7665206F72206215
:10053000656C6F7720736F696C2073757266616389
:10054000653A00456E74657220636F6E6669677503
:10055000726174696F6E20737472696E673A2000FD
:10056000456E7465722063686F6963653A20002088
:1005700020207820203C2D2D202045786974206D86
:10058000656E75002020206520203C2D2D20204503
:100590007261736520616C6C20646174610020205D
:1005A000207020203C2D2D20205072696E74206414
:1005B00061746120746F2073637265656E00202022
:1005C000205320203C2D2D202053796E6368726FBC
:1005D0006E697A6520476174657761792026204EBF
:1005E0006F646520636C6F636B7300202020742040
:1005F000203C2D2D2020546573742073656E736F1D
:100600007273002020206120203C2D2D2020436883
:10061000616E6765205344492D31322073656E73D6
:100620006F722061646472657373002020206E20F5
:10063000203C2D2D20205363616E20666F72206454
:10064000657669636573206F6E205344492D31329E
:1006500020627573002020206D20203C2D2D20204D
:10066000536574206D6561737572656D656E742078
:10067000696E74657276616C002020207220203CC7
:100680002D2D20204368616E6765204E6F646520C4
:10069000726164696F204944002020206720203C5B
:1006A0002D2D2020456E7465722047617465776139
:1006B0007920726164696F204944002020206920FC
:1006C000203C2D2D2020456E7465722070726F6A5B
:1006D000656374204944002020206320203C2D2D98
:1006E000202053657420636C6F636B0020202064AE
:1006F00020203C2D2D2020456E7465722073656E80
:10070000736F72206465707468730020202030203D
:10071000203C2D2D2020456E74657220636F6E661F
:10072000696775726174696F6E20737472696E6740
:10073000004D656E75206F7074696F6E733A20009E
:1007400043757272656E742062617474657279208B
:10075000766F6C746167653A20200043757272652C
:100760006E74206461746520262074696D653A207A
:1007700020004D6561737572656D656E7420496EFC
:1007800074657276616C3A200047617465776179AF
:1007900020526164696F2049443A200052616469C3
:1007A0006F2049443A200050726F6A656374204993
:1007B000443A200053657269616C204E756D626524
:1007C000723A200056657273696F6E2000536F692C
:1007D0006C2057617465722044617461204E6574A9
:1007E000776F726B202D20576972656C657373206B
:1007F0005344492D313220446174616C6F676765E1
:1008000072204E6F64650043757272656E7420616C
:100810006464726573733A200072740092740048C5
:10082000940078C40000002100240027002A000062
:10083000002200250028002B0000002000230026B5
:10084000002900020202020202020204040404045B
:10085000040404030303030303030301010101016F
:100860000101010102040810204080010204081067
:10087000204080010204081020408001020408107A
:10088000204080000000010200090A00000000046E
:100890000308070000000000000000000000000046
:1008A000000000009F3DB84311241FBECFEFD0E4ED
:1008B000DEBFCDBF17E0A0E0B1E0E6EFFFE900E06A
:1008C0000BBF02C007900D92A031B107D9F721E10B
:1008D000A0E1B7E001C01D92AD3DB207E1F714E021
:1008E000C3E5D4E004C02197FE010E945A4AC235F4
:1008F000D107C9F70E94713E0C94EE4F0C94000092
:100900004F925F926F927F928F929F92AF92BF921F
:10091000CF92DF92EF92FF920F931F930091620E9E
:100920001091630E2091640E3091650EC0905E0EA2
:10093000D0905F0EE090600EF090610E480159017A
:100940008C189D08AE08BF0826013701401A510ACD
:10095000620A730A601771078207930728F0640D13
:10096000751D861D971DF6CF6C157D058E059F059F
:1009700028F4680D791D8A1D9B1DECCF1F910F91E6
:10098000FF90EF90DF90CF90BF90AF909F908F90AF
:100990007F906F905F904F900895BF92CF92DF92BB
:1009A000EF92FF920F931F93CF93DF93EC01B62E3C
:1009B000C880D980EA80FB800091660E1091670E96
:1009C000980150E040E0C701B6010E94AB486623A1
:1009D00091F0862F90E0980136952795821793071E
:1009E00000F1081B190BC00ED11EE11CF11CC882BE
:1009F000D982EA82FB82688179818A819B81BB20CE
:100A0000A9F00E948004688379838A839B83DF91A5
:100A1000CF911F910F91FF90EF90DF90CF90BF90FB
:100A20000895C61AD108E108F108E1CF0091620EDD
:100A30001091630E2091640E3091650E0617170712
:100A40002807390720F7088319832A833B83DFCFE0
:100A5000EFE1FCE0A089B18982E08C93A485B585A3
:100A60001C92A685B78580E18C93108EA489B589E8
:100A700086E08C93A289B3898C9180618C93A28942
:100A8000B3898C9188608C93A289B3898C9180689A
:100A90008C930288F389E02D80818F7D8083089577
:100AA000982F2091730B81E0213208F043C0809190
:100AB0004F0B8111FCCF8091720B32E030934F0BC2
:100AC00090934E0B9FEF90934D0B10924C0B2093F5
:100AD0004B0BA2E5BBE0EBE2FBE090E0291331C059
:100AE00010922A0B90912A0B880F892B80932A0B46
:100AF0008091290B813049F51092290B80912A0BA6
:100B00008093BB008091BC0083FDF8CF85EC80937F
:100B1000BC0080914F0B8230E1F380914D0B8F3FF1
:100B2000B1F080914D0B8032A1F080914D0B80335C
:100B300091F084E01092510B1092730B1092500BB5
:100B400008953D9131939F5FC9CF85EEE0CF80E05E
:100B5000F1CF82E0EFCF83E0EDCF90914F0B911179
:100B6000FCCF91E090934F0B90934E0B2FEF20937F
:100B70004D0B10924C0B260F20934B0B90932A0B8E
:100B800090912A0B880F892B80932A0B8091290B37
:100B90008130F9F41092290B80912A0B8093BB00CD
:100BA0008091BC0083FDF8CF85EC8093BC008091E0
:100BB0004F0B8130E1F380914C0B861710F460915C
:100BC0004C0BABE2BBE0E9E0FBE080E0861303C046
:100BD000089585EEEACF9D9191938F5FF7CF809135
:100BE0007A0E90917B0EDC01ED91FC910484F585E9
:100BF000E02D0994FF920F931F93CF93DF938C0105
:100C0000F62ECAE7DEE088819981DC01ED91FC9146
:100C10000488F589E02D642F099588819981DC018C
:100C2000ED91FC910680F781E02D4F2DB801DF9109
:100C3000CF911F910F91FF90099408950895E82F87
:100C4000F0E0EE0FFF1FED5EFE4F71836083813099
:100C500049F0823071F0809169008360809369006F
:100C6000E89A0895809169008C6080936900E99A00
:100C7000089580916900806380936900EA9A0895DD
:100C80000895AF92BF92CF92DF92EF92FF920F93AF
:100C90001F93CF93DF936C017B018B01040F151F12
:100CA000EB015E01AE18BF08C017D10759F069917A
:100CB000D601ED91FC910190F081E02DC6010995DE
:100CC000892B79F7C501DF91CF911F910F91FF908B
:100CD000EF90DF90CF90BF90AF900895FC01538DBF
:100CE000448D252F30E0842F90E0821B930B541706
:100CF00018F081509F4F089501970895FC01918D40
:100D0000828D981759F0A28DAE0FBF2FB11D5D9641
:100D10008C91928D9F5F928F90E008958FEF9FEF5F
:100D20000895FC01918D828D981731F0828DE80F26
:100D3000F11D858D90E008958FEF9FEF0895FC01E0
:100D4000918D828D981B892F90E008958FE19CE012
:100D50000E949F0621E0892B09F420E0822F08954C
:100D6000FC01A48DA80FB92FB11DA35EBE4F9C91AD
:100D7000848D8F5F848FA689B7899C93A089B18960
:100D80008C91837080648C93938D848D981306C0AE
:100D90000288F389E02D80818F7D808308950F93F1
:100DA0001F93CF93DF93EC0181E0888F9B8D8C8D17
:100DB000981318C0E889F989808185FF13C09FB70F
:100DC000F894EE89FF896083E889F98980818370CE
:100DD000806480839FBF81E090E0DF91CF911F917D
:100DE0000F910895062F1B8D1F5F8C8D81130CC0F2
:100DF0000FB607FCFACFE889F989808185FFF5CF26
:100E0000CE010E94B006F1CFEB8DEC0FFD2FF11D4E
:100E1000E35EFE4F00839FB7F8941B8FEA89FB893E
:100E200080818062D6CF682F8FE19CE00C94CF0642
:100E30000F931F93CF93DF938C01D0E0C0E0F801B4
:100E4000EC0FFD1F6491662341F08FE19CE00E944E
:100E5000CF06892B11F02196F2CFCE01DF91CF91F1
:100E60001F910F910895CF93DF93EC01888D882314
:100E7000B9F0AA89BB89E889F9898C9185FD03C0FD
:100E8000808186FD0DC00FB607FCF7CF8C9185FFE2
:100E9000F2CF808185FFEDCFCE010E94B006E9CF71
:100EA000DF91CF91089580E090E0892B29F00E9496
:100EB000A60681110E94000080E090E0892B49F095
:100EC00080E090E0892B29F00E94000081110C94B1
:100ED0000000089581508A3080F5E82FF0E0ED5849
:100EE000F84F0C945A4A87078B077D0783079D07A5
:100EF0009D078E07940798079E07809180008F7743
:100F0000809380000895809180008F7DF9CF84B513
:100F10008F7784BD089584B58F7DFBCF8091B0001D
:100F20008F778093B00008958091B0008F7DF9CFC6
:100F3000809190008F778093900008958091900029
:100F40008F7DF9CFCF93DF93282F30E0F901ED5754
:100F5000F74F8491F901ED59F74FD491F901ED5B09
:100F6000F74FC491CC23A1F081110E946A07EC2FA6
:100F7000F0E0EE0FFF1FE75CF74FA591B491EC9105
:100F8000ED2381E090E009F480E0DF91CF910895B6
:100F900080E090E0FACF1F93CF93DF93282F30E0CB
:100FA000F901ED57F74F8491F901ED59F74FD491BD
:100FB000F901ED5BF74FC491CC23A9F0162F8111F5
:100FC0000E946A07EC2FF0E0EE0FFF1FE15DF74F84
:100FD000A591B4918FB7F894EC91111108C0D095F8
:100FE000DE23DC938FBFDF91CF911F910895DE2B1D
:100FF000F8CF1092080B1092070B1092510B109221
:10100000730B10924F0B81E080934E0B1092290BC3
:1010100061E081E10E94CB0761E080E10E94CB07A3
:10102000E9EBF0E080818E7F808380818D7F8083FB
:1010300080E28093B80085E48093BC008DE196E067
:101040009093FF0A8093FE0A8EE196E09093FD0A4A
:101050008093FC0A0895CF93DF9390E0FC01ED5953
:10106000F74F24918D5B974FFC0184918823D1F039
:1010700090E0880F991FFC01EB5DF74FA591B491AB
:10108000FC01E15DF74FC591D49161110EC09FB78E
:10109000F8948C91E22FE0958E238C932881E223A3
:1010A000E8839FBFDF91CF9108958FB7F894EC91BB
:1010B000E22BEC938FBFF6CF8851806480937C0045
:1010C00080917A00806480937A0080917A0086FD16
:1010D000FCCF809178009091790008953FB7F89403
:1010E0008091E50A9091E60AA091E70AB091E80A9A
:1010F00026B5A89B05C02F3F19F00196A11DB11D73
:101100003FBFBA2FA92F982F8827BC01CD01620FAE
:10111000711D811D911D43E0660F771F881F991F68
:101120004A95D1F708958F929F92AF92BF92CF9236
:10113000DF92EF92FF926B017C010E946E084B01DF
:101140005C01C114D104E104F104B9F00E946E08FD
:10115000681979098A099B09683E734081059105E0
:1011600080F321E0C21AD108E108F10888EE880E68
:1011700083E0981EA11CB11CE4CFFF90EF90DF909C
:10118000CF90BF90AF909F908F9008952FB7F89415
:101190006091E10A7091E20A8091E30A9091E40A79
:1011A0002FBF089508958BEF0895CF93DF93FC012F
:1011B000228133812230310569F0EC01638D818D0C
:1011C0000E94CB0760E0888D0E94CB0782E090E010
:1011D0009B838A83DF91CF910895FF920F931F9392
:1011E000CF93DF93EC01162FF42E0FB7F89460E045
:1011F0008F890E94CB078D899E89612F6068DC01F1
:10120000ED91FC910190F081E02D0995182F8D89C9
:101210009E89DC01ED91FC910190F081E02D6F2D14
:10122000099561E08F890E94CB070FBF812FDF9165
:10123000CF911F910F91FF9008950F931F93CF931C
:101240008C01C62F44E06DE40E94ED084BEF4C0F7B
:10125000406869E0C801CF911F910F910C94ED088F
:10126000CF93DF93FC01228133812130310549F096
:10127000EC0140E061E00E94ED0881E090E09B839A
:101280008A8381E0DF91CF910895CF93DF93FC01B2
:10129000228133812230310549F0EC0141E061E0E7
:1012A0000E94ED0882E090E09B838A83DF91CF91DA
:1012B0000895CF92DF92EF92FF92CF93DF93EC01EC
:1012C000CB01BA0120E034E244E759E40E94D74759
:1012D00020E034E244E752E40E947B490E94ED4959
:1012E0006B017C01A7016627772766E0CE010E948B
:1012F000ED0877276F2D5E2D4D2D67E0CE010E9402
:10130000ED084C2D68E0CE010E94ED0881E0DF91F0
:10131000CF91FF90EF90DF90CF900895CF92DF9222
:10132000EF92FF920F931F93CF93DF934C3F08F000
:1013300067C0142F072FF62EEC01E881F981048491
:10134000F585E02D0995CE010E94450940E06DE04C
:10135000CE010E94ED084A8560E0CE010E94ED08B2
:101360004B8560E0CE010E94ED084C8560E0CE0127
:101370000E94ED084D8560E0CE010E94ED08EFB6B9
:10138000F89460E08F890E94CB078D899E89DC01EB
:10139000ED91FC910190F081E02D60E80995CF2C52
:1013A000D02E012F015068F08D899E89F601619140
:1013B0006F01DC01ED91FC910190F081E02D099528
:1013C000F1CF61E08F890E94CB07EFBE44E0410F6F
:1013D00062E2CE010E94ED088A819B81039771F041
:1013E00043E061E0CE010E94ED0840E460E4CE01FC
:1013F0000E94ED0883E090E09B838A8381E001C036
:1014000080E0DF91CF911F910F91FF90EF90DF90DF
:10141000CF900895CF93DF93FC0122813381233055
:101420003105C9F0EC0182819381049771F045E0A8
:1014300061E0CF010E94ED0840E060E4CE010E942F
:10144000ED0884E090E09B838A83C65EDE4F88814E
:10145000DF91CF91089580E0FBCF0F931F93CF933F
:10146000DF93EC01162F0FB7F89460E08F890E948C
:10147000CB078D899E89DC01ED91FC910190F08173
:10148000E02D612F09958D899E89DC01ED91FC91FC
:101490000190F081E02D60E00995182F61E08F89BF
:1014A0000E94CB070FBF812FDF91CF911F910F912A
:1014B0000895DF92EF92FF920F931F93CF93DF93E4
:1014C000EC0162E10E942D0A2A813B812430310522
:1014D000A1F4982F907A89F08F8598890196988B3E
:1014E0008F874FEF62E1CE01DF91CF911F910F9176
:1014F000FF90EF90DF900C94ED082A813B8124301F
:10150000310511F486FD0DC02A813B812330310560
:1015100041F783FFE6CF8B899C8901969C8B8B8B4F
:1015200067C063E1CE010E942D0A082F60E1CE0161
:101530000E942D0A482F6DE0CE010E94ED08DFB613
:10154000F89460E08F890E94CB078D899E89DC0129
:10155000ED91FC910190F081E02D60E009957E0114
:10156000BBE1EB0EF11C102F115070F08D899E899C
:10157000DC01ED91FC910190F081E02D60E0099596
:10158000F70181937F01F0CF61E08F890E94CB0743
:10159000DFBE0A8F4FEF62E1CE010E94ED086AE1E3
:1015A000CE010E942D0A89588E878A8DFE01E65E43
:1015B000FE4F8430C8F08B8D8E838C8D8F838D8D04
:1015C00088878E8D89878D81811107C09E818C814E
:1015D000981719F08E818F3F39F489899A8901967D
:1015E0009A8B898B81E080838081882309F479CF6D
:1015F000CE010E94450975CF8091DE0A9091DF0AE5
:10160000009711F00C94590A08958091DC0A90918A
:10161000DD0A009711F00C94590A08958091DA0AB6
:101620009091DB0A009711F00C94590A0895CF931A
:10163000DF93EC018D899E89DC01ED91FC910680A0
:10164000F781E02D099561E08F890E942B0861E008
:101650008F890E94CB0764E670E080E090E00E94F2
:10166000930881E0DF91CF910895FF920F931F932C
:10167000CF93DF931F92CDB7DEB7F42E0AE71EE0BB
:10168000D8018D919C91DC01ED91FC91008CF18D44
:10169000E02D0995F80180819181DC01ED91FC91AB
:1016A000028CF38DE02D40E060E8099581E28983AA
:1016B0004F2D61E0CE0101960E94FA050E94EF05D0
:1016C0000F90DF91CF911F910F91FF9008952F926E
:1016D0003F924F925F926F927F928F929F92AF92C2
:1016E000BF92CF92DF92EF92FF920F931F93CF930F
:1016F000DF938C015B016A0119010E94C6082B016E
:101700003C01F12CE12C0E94C60864197509860978
:1017100097096C157D058E059F0508F078C08091AE
:101720007A0E90917B0EDC01ED91FC910280F381A9
:10173000E02D0995882339F380917A0E90917B0EE4
:10174000DC01ED91FC910480F581E02DA501B8014B
:101750000995C82F8823B9F280917A0E90917B0E5B
:10176000DC01ED91FC9100A0F1A1E02D0995D82FAD
:1017700080917A0E90917B0EDC01ED91FC91068CAC
:10178000F78DE02D0995882E80917A0E90917B0E31
:10179000DC01ED91FC9102A0F3A1E02D0995982EBA
:1017A00080917A0E90917B0EDC01ED91FC9104A06A
:1017B000F5A1E02D099587FDA6CFBFEF8B1631F07F
:1017C0004D2F692D8AE79EE00E94350BED2FF0E04A
:1017D000E658F14FDF011B968385891509F493CFF5
:1017E000F101D0839C928C2FDF91CF911F910F91AB
:1017F000FF90EF90DF90CF90BF90AF909F908F9031
:101800007F906F905F904F903F902F900895C0E031
:10181000EACF9FB7F8948091D80A882319F08150B5
:101820008093D80A8091D80A811105C08CB58F7B2E
:101830008CBD1092D70A9FBF08958CB58F778CBD51
:1018400008958CB580688CBD0895FC017383628314
:101850000895FC01778366830895FC017583648392
:10186000089580E00895FC0181850895FC0180853C
:101870000895FC0187810895FC01868108954095B3
:10188000FC0125854223642B65870895FC0164874C
:101890000895FC0163870895FC0162870895FC01A7
:1018A00064830895FC01658308958F929F92AF929F
:1018B000BF92CF92DF92EF92FF92CF93DF93EC0132
:1018C0006B010E94C6084B015C01F12CE12C0E94C7
:1018D000C608681979098A099B096C157D058E056A
:1018E0009F0580F48A819B81039789F381E0DF91D2
:1018F000CF91FF90EF90DF90CF90BF90AF909F90EF
:101900008F90089580E0F3CFFC0122813381233052
:101910003105D1F381E008958F929F92AF92BF92EB
:10192000CF92DF92EF92FF92CF93DF93EC016B01A6
:101930000E94C6084B015C01F12CE12C0E94C608F4
:10194000681979098A099B096C157D058E059F0523
:10195000A0F4E881F9810280F381E02DCE010995A0
:10196000882361F3DF91CF91FF90EF90DF90CF90CC
:10197000BF90AF909F908F90089580E0F3CFCF936A
:10198000DF93EC01E881F9810280F381E02DCE0143
:1019900009958823B9F3DF91CF91089581E00895E7
:1019A0001F93CF93DF93EC01162F88819981DC017F
:1019B000ED91FC910288F389E02D09958881998148
:1019C000DC01ED91FC910688F789E02D612F0995E6
:1019D0001A83DF91CF911F910895CF92DF92EF92FA
:1019E000FF920F931F93CF936B017C01142F809173
:1019F0007A0E90917B0EDC01ED91FC910190F081CB
:101A0000E02D0995C82F882309F160917C0E8AE7A3
:101A10009EE00E94D00C88E790E09093830E809324
:101A2000820E83E08093840E612F8AE79EE00E94FD
:101A3000D00C00917A0E10917B0EB701A601C8015F
:101A40000E94590964E1C8010E941D098C2FCF91A1
:101A50001F910F91FF90EF90DF90CF900895282F66
:101A600030E094E0359527959A95E1F7922F990FFC
:101A7000990F291B220F820F089585ED8093BC00DA
:101A80008091BC0084FDFCCF10924F0B08952091F3
:101A9000B40A260F3327331F21323105ECF420918D
:101AA0004F0BFC0190E080E0243069F082E0089563
:101AB000A091B40A2191AC014C56554FA40FB52FFB
:101AC000B11D2C930196861798F38091B40A680F84
:101AD0006093B40A80E0089581E008950895E0914C
:101AE000080B8091070BE81730F4F0E0E75FF44F44
:101AF000808190E008958FEF9FEF08959091080BFB
:101B00008091070B2FEF3FEF981748F4E92FF0E093
:101B1000E75FF44F208130E09F5F9093080BC9018D
:101B200008958091070B9091080B891B990B0895DC
:101B3000CF92DF92EF92FF920F931F93CF93DF9399
:101B40007C01CB018A012091500B222389F0EB010B
:101B50006B01C40ED51ECC15DD0569F06991D70166
:101B6000ED91FC910190F081E02DC7010995F3CF33
:101B7000642F0E94470DC801DF91CF911F910F91F3
:101B8000FF90EF90DF90CF900895CF93DF931F9257
:101B9000CDB7DEB769832091500B2223F9F0209155
:101BA000730B203258F021E030E0FC0133832283B4
:101BB00090E080E00F90DF91CF9108958091510BDC
:101BC000E82FF0E0EE5AF44F998190838F5F809375
:101BD000510B8093730B81E090E0ECCF61E0CE017C
:101BE00001960E94470DF7CFCF93C62F91E09093B7
:101BF000500B98E69093720B1092510B1092730B4E
:101C0000682F8CE39EE00E94C50D6C2F8CE39EE054
:101C10000E94C50D81E0CF910C9450050F931F9346
:101C2000CF93DF93382FE62F5AE0862F652F0E943F
:101C3000264A182F110F180F110F1E0F842F0E9404
:101C4000264AD82FDD0FD80FDD0FD40F822F0E9428
:101C5000264AC82FCC0FC80FCC0FC20F32FDD06858
:101C600033FDC0680BE037FD05C060E087E00E94EF
:101C7000F40D08E0612F802F0E94F40D6D2F81E09C
:101C8000800F0E94F40D6C2F82E0800FDF91CF91C6
:101C90001F910F910C94F40DCF93CFB7F8948091CE
:101CA000D80A811127C0E7E4F8E08491E7E6F8E07C
:101CB0009491E82FF0E0EE0FFF1FEB5DF74FA59139
:101CC000B491EC91E92321F461E084E00E94CB0718
:101CD00061E084E00E942B088CB580618CBD8CB5DE
:101CE00080648CBD61E087E00E942B0861E085E0A4
:101CF0000E942B088091D80A8F5F8093D80ACFBFAB
:101D0000CF910895FC01268137812115310591F18C
:101D10002130310559F12230310551F1233031059F
:101D200049F52CE09CB5937F922B9CBD84819581D5
:101D3000019711F58CB580628CBD828193810197EA
:101D400084309105E0F48F5C9E4FFC0190818CB54E
:101D50008C7F292F2370822B8CBD8DB592FB992708
:101D600090F98E7F892B8DBD0C944C0E24E0DACF38
:101D700028E0D8CF20E0D6CF8CB58F7DDDCF95E0A1
:101D8000E6CFCF93DF9380B7806880BF61E08EE0BD
:101D90000E94CB0762E370E080E090E00E9493082D
:101DA00088E10E945C08EC0160E08EE00E94CB07B5
:101DB000BE01DD0F880B990B0E94784723EA36E0BD
:101DC00043E55BE30E94D74723E939EA4AEA5FE348
:101DD0000E94D747DF91CF9108958FE19CE00E9448
:101DE0003307EFE1FCE0A289B3898C918F7E8C935D
:101DF000A289B3898C91877F8C93A289B3898C91B6
:101E00008F778C93A289B3898C918F7D8C93828DEF
:101E1000818F60E08FE00E94CB0760E080E00E944D
:101E2000CB0760E081E00E94CB078EE890E10E9442
:101E3000300980B78F7780BFEAE7F0E080818F7745
:101E40008083F89485B7806885BF85B7806885BF33
:101E5000789483B7817F846083BF83B7816083BFB9
:101E60007894ABE6B0E08C9184608C93A8E6B0E007
:101E70008C9181608C9383B7816083BF889583B791
:101E80008E7F83BF8081806880830E9428050E94A6
:101E90004C0E61E080E00E94CB0761E081E00C9491
:101EA000CB070F931F93CF93DF93FB014081FC017E
:101EB0009C012C5D3F4F80E08B010C5F1F4F919187
:101EC00094130BC0DB011196EF0199918D9198133A
:101ED0000CC0A017B107C9F781E0E217F30779F743
:101EE000DF91CF911F910F91089580E0F6CFEAE541
:101EF000F7E09191981731F097E0EB36F907C9F7C1
:101F000080E0089581E00895EAE5F7E030E020E020
:101F10009191911105C0265A384FF9018083089597
:101F20002F5F3F4F2131310599F708958091D70AEE
:101F3000882361F09FB7F8942091D70A80915507C4
:101F4000213019F48DBB9FBF08958FBF0895CF93A3
:101F5000DF93EC0161E088810E94CB070E94960F1D
:101F60008B818CBD8C818DBDDF91CF9108958EBD0D
:101F700000000DB407FEFDCF8EB50895862F0C949A
:101F8000B70F2091D70A222361F02FB7F894309130
:101F9000D70A313049F43DB3309355073DB33DBBCB
:101FA0002FBF8CBD9DBD089520935507FACF80E5C6
:101FB00091E00E94C10F60E087E10E94CB0789EBAE
:101FC0000E94B70F61E087E10E94CB070C94960F47
:101FD000CF93DF93EC018CB58B838DB58C838D8192
:101FE0009E810E94C10F60E08881DF91CF910C94A7
:101FF000CB078F929F92AF92BF92CF92DF92EF92D8
:10200000FF920F931F93CF93DF934B015C0128E85E
:1020100033E140E050E00E94AB482A31310510F036
:1020200029E130E06901F12CE12CC501B401A701DF
:102030000E94AB488901D0E0C0E0C017D107C8F4C6
:10204000A090480EB090490EC5010E94E80F85E0AF
:102050000E94B70F80E00E94B70F982EC5010E9422
:10206000A70F90FE14C0C701B6010E9493082196E5
:10207000E4CF80E0DF91CF911F910F91FF90EF901F
:10208000DF90CF90BF90AF909F908F90089581E0A8
:10209000F1CF0F931F93CF93DF93EC01162F4423BF
:1020A00039F040E066E00E944910CE010E94A70F7F
:1020B000CE010E94E80F85E00E94B70F80E00E94E9
:1020C000B70F082FCE010E94A70F00FDF1CFCE0160
:1020D0000E94E80F812FDF91CF911F910F910C94F7
:1020E000B70FCF92DF92EF92FF92CF93DF936B0106
:1020F0007C01C42F68EE73E080E090E00E94F90F4D
:102100008823E9F180915E0E90915F0EA091600EA0
:10211000B091610EC816D906EA06FB0678F08091E8
:10212000620E9091630EA091640EB091650EC81678
:10213000D906EA06FB0610F4CC2309F1C091480E3B
:10214000D091490E41E060E2CE010E9449108E2DEF
:102150000E94B70F8D2D0E94B70F8C2D0E94B70FD4
:10216000CE010E94A70F68EE73E080E090E0DF915F
:10217000CF91FF90EF90DF90CF900C94F90F80E01B
:10218000DF91CF91FF90EF90DF90CF9008952F9245
:102190003F924F925F926F927F928F929F92AF92F7
:1021A000BF92CF92DF92EF92FF920F931F93CF9344
:1021B000DF936C012A013B0119019A01332780E06A
:1021C00091E0821B930B912C812C0115110581F15B
:1021D000E8018017910708F4EC0141E062E0C601D4
:1021E0000E944910862D0E94B70F852D0E94B70FBF
:1021F000842D0E94B70F5101A80CB91C7501F7017D
:1022000081917F010E94B70FC7018A199B098C1722
:102210009D07A8F3C6010E94A70F4C0E5D1E611C0E
:10222000711C8C0E9D1E0C1B1D0B80E091E0CDCF10
:10223000DF91CF911F910F91FF90EF90DF90CF90A2
:10224000BF90AF909F908F907F906F905F904F90D6
:102250003F902F900895BF92CF92DF92EF92FF921E
:102260000F931F93CF93DF937C01EA01B62E690190
:1022700040E06BE00E9449108B2D0E94B70F8D2F1C
:102280000E94B70F8C2F0E94B70F80E00E94B70FFB
:10229000E6010C0D1D1DC017D10729F080E00E943A
:1022A000B70F8993F8CFC701DF91CF911F910F919D
:1022B000FF90EF90DF90CF90BF900C94A70F0F93FB
:1022C0001F93CF93DF9300D0CDB7DEB7AB01BC0136
:1022D0004C5F5F4F6F4F7F4F02E010E09E012F5F1A
:1022E0003F4F8091480E9091490E0E942B112091F2
:1022F000680E3091690E89819A812817390710F488
:102300001A82198289819A810F900F90DF91CF9163
:102310001F910F910895CF92DF92EF92FF926B0180
:102320007C010E945F119C01009769F0E091660EAC
:10233000F091670EBF010E94324A009721F02E0FE4
:102340003F1F281B390BC701B601620F731F811D88
:10235000911DFF90EF90DF90CF900C9480040F932D
:102360001F93CF93DF93CDB7DEB760970FB6F89486
:10237000DEBF0FBECDBFAB01BC0100E110E09E018E
:102380002F5F3F4F8091480E9091490E0E942B1174
:10239000FE013196CE01419621912F3F79F4E81745
:1023A000F907D1F781E060960FB6F894DEBF0FBE53
:1023B000CDBFDF91CF911F910F91089580E0F3CFB2
:1023C0004F925F926F927F92AF92BF92CF92DF92C5
:1023D000EF92FF920F931F93CF93DF93CDB7DEB7AA
:1023E0002C970FB6F894DEBF0FBECDBF6B017C01FA
:1023F0005A01FA01108211821282138204E010E065
:102400009A01BC01A6018091480E9091490E0E944C
:102410002B11F50180819181A281B3818F3F9F4F64
:10242000AF4FBF4F79F019861A861B861C86C701ED
:10243000B6010E948B112B013C01C414D504E604A3
:10244000F70411F480E054C004E010E09E01275F1F
:102450003F4FBC01A2018091480E9091490E0E940D
:102460002B1149855A856B857C85F5018081918189
:10247000A281B3810196A11DB11D84179507A607FE
:10248000B70709F451C04F3F5F4F6F4F7F4FD1F6F1
:10249000C301B2010E94AF118823A1F28091660EA0
:1024A0009091670EC81AD90AE108F108CD82DE8240
:1024B000EF82F886AE014F5F5F4F6FEFCE0105965A
:1024C0000E949612882349F149815A816B817C814F
:1024D0004F5F5F4F6F4F7F4F81E0F501C080D1802C
:1024E000E280F3804C155D056E057F0509F0AACFEB
:1024F0002C960FB6F894DEBF0FBECDBFDF91CF9103
:102500001F910F91FF90EF90DF90CF90BF90AF9011
:102510007F906F905F904F9008956D817E818F8145
:1025200098850E94AF11E4CF81E0E2CFCF92DF9295
:10253000EF92FF920F931F93CF93DF93EC01D62E70
:102540007A01688179818A819B810E94AF11CC24B4
:10255000C39410E000E0882391F08FEF9FEFDC013F
:10256000F70180839183A283B38380E0DF91CF91D1
:102570001F910F91FF90EF90DF90CF9008956881A9
:1025800079818A819B81A7010E94E0118111EECFA0
:10259000CC20D9F061E0CE010E94CD046881798120
:1025A0008A819B810E94AF11C82E8111D6CF809164
:1025B000680E9091690E6091660E7091670E0E9490
:1025C000324A60177107D8F6C8CF88819981AA81ED
:1025D000BB814091660E5091670E70E060E01D1463
:1025E000ACF0841B950BA60BB70B88839983AA8349
:1025F000BB83688179818A819B810E948004688382
:1026000079838A839B830F5F1F4FC8CF840F951FE9
:10261000A61FB71FEACF2F923F924F925F926F9201
:102620007F928F929F92AF92BF92CF92DF92EF9262
:10263000FF920F931F93CF93DF93CDB7DEB72E9703
:102640000FB6F894DEBF0FBECDBF8C016D87FC01C5
:1026500060817181828193810E94AF118823C9F0CA
:10266000F80180809180A280B380FD85F13009F46B
:10267000F5C080915E0E90915F0EA091600EB091BA
:10268000610E75016401C81AD90AEA0AFB0A7D8441
:10269000F3C02091660E3091670E8091620E90918A
:1026A000630EA091640EB091650E821B930BA1097D
:1026B000B109F80180839183A283B383AE01475FA0
:1026C0005F4F6FEFC8010E94961281110BC0F80195
:1026D00060817181828193810E94AF118111C0CF8D
:1026E000612C22C180915E0E90915F0EA091600ED0
:1026F000B091610EF80180839183A283B383AE0110
:102700004B5F5F4F61E0C8010E949612F801608143
:10271000718122819381811102C0822FDDCF4D8092
:102720005E806F8078846B01E22EF92E8090620EBD
:102730009090630EA090640EB090650E8C189D086A
:10274000AE08BF0822E9222E332433948091660E0E
:102750009091670EB0E0A0E088159905AA05BB0529
:1027600020F4B694A79497948794FFEF3F1252C039
:10277000C814D904EA04FB0408F04CC08091620E2E
:102780009091630EA091640EB091650E40915E0E23
:1027900050915F0E6091600E7091610E841B950BDD
:1027A000A60BB70B8C0D9D1DAE1DBF1D6C017D01D1
:1027B000C818D908EA08FB08F801C082D182E28271
:1027C000F38260E0C8010E94CD04F801608171814C
:1027D000828193810E94AF11811142CFAE014F5F80
:1027E0005F4F632DC8010E949612882341F18981B1
:1027F0009A81AB81BC81F1E03F1219C0481659069D
:102800006A067B0640F52A94222009F469CF2C0140
:102810003D019CCFA32D032C000CBB0BA501940103
:102820000E94F748C60ED71EE81EF91EC5CF8415B4
:102830009505A605B70538F333243394E4CFF801A2
:1028400060817181828193810E94AF11811108CFD3
:10285000D301C201D8CF33243A94D5CFC090620EB1
:10286000D090630EE090640EF090650EC818D90801
:10287000EA08FB0877247394F2E9FE87F801608187
:102880007181828193810E94AF118111C7C0F801CB
:102890002080318042805380C201B1016627707F61
:1028A00099277051810991090E9480040E94AF11FB
:1028B000682E8823E9F0C201B1010E94AF11811195
:1028C00017C0FD85F130A1F4F80180819181A281CA
:1028D000B3818827907FBB2780839183A283B383B2
:1028E000AE014F5F5F4F61E0C8010E9496121CC0AD
:1028F000AE014B5F5F4F672DC8010E949612F80131
:102900004081518162817381882309F47EC0FD85F5
:10291000FF3F21F5CB01BA010E948B110E94AF113C
:10292000682E882309F47EC0862D2E960FB6F89463
:10293000DEBF0FBECDBFDF91CF911F910F91FF90F2
:10294000EF90DF90CF90BF90AF909F908F907F904F
:102950006F905F904F903F902F9008958091660EFA
:102960009091670E2A013B01481A590A61087108C3
:10297000C301B2010E94AF11682E8111B1CF77243B
:102980007A948091660E9091670EB0E0A0E08C156D
:102990009D05AE05BF0520F4F694E794D794C7943F
:1029A0008FEF781242C08C149D04AE04BF04E8F58A
:1029B0008091620E9091630EA091640EB091650EAD
:1029C00040915E0E50915F0E6091600E7091610EAD
:1029D000841B950BA60BB70B880D991DAA1DBB1D5B
:1029E0004C015D018C189D08AE08BF08F80180827B
:1029F0009182A282B38260E0C8010E94CD04FE856C
:102A0000F150FE87F1113ACF6BCECB01BA010E9493
:102A1000AF11882309F4B5CF7194B3CF2D852F3F23
:102A200009F4ADCF77247394ACCFA72D072C000CFD
:102A3000BB0BA70196010E94F748860E971EA81EA1
:102A4000B91ED4CFCF93DF9300D000D0CDB7DEB77F
:102A5000AE014F5F5F4F0E94E011882359F06981FA
:102A60007A818B819C810F900F900F900F90DF9156
:102A7000CF9108956FEF7FEFCB01F5CFEF92FF92EB
:102A80000F931F93CF93DF938C01C62FF894F09090
:102A9000B20061E0FC0184850E94CB079C2F80E09E
:102AA00031E0992329F083272FEF290F9223F9CFC3
:102AB000F0E88F9FC0011124C82B80E8D9E0982F3F
:102AC0009C2319F0D1508695FACF8091B2008F19CE
:102AD0008A31D8F3F090B200EE24E394F8018485B3
:102AE000ED1678F460E0C0FF61E00E94CB078091B2
:102AF000B2008F198A31D8F3F090B200C695E394F2
:102B0000EDCF60E00E94CB0778948AE090E08D1BC7
:102B100091099AE1899F802D11249091B2009F190B
:102B20009817D8F3DF91CF911F910F91FF90EF90FD
:102B30000895FC0115869091770780917807981782
:102B400089F0E0917707F0E0E05FF84F8081209115
:102B5000770730E02F5F3F4F2F733327209377079E
:102B600090E008958FEF9FEF0895909177078091FF
:102B70007807981741F0E0917707F0E0E05FF84FB1
:102B8000808190E008958FEF9FEF0895FC01858587
:102B900081110EC0809178072091770790E0805CCA
:102BA0009F4F821B910960E470E00E94464A08959D
:102BB0008FEF9FEF089590E080E00895DC011C9670
:102BC0009C911C97ECE6F0E0983050F0E3E7F0E0E1
:102BD000903130F0EBE6F0E0983110F4EDE6F0E003
:102BE0008081977021E030E001C0220F9A95EAF7CA
:102BF0002095282320831C968C91ECE6F0E0883009
:102C000050F0E3E7F0E0803130F0EBE6F0E08831BF
:102C100010F4EDE6F0E09081911110C0F0E0E0E0FA
:102C2000803210F4E8E6F0E09081883040F08031A6
:102C300040F0883140F08EEF8923808308958DEF36
:102C4000FBCF87EFF9CF8BEFF7CFCF93DF93EC017B
:102C50006330710521F164307105E1F16230710575
:102C600009F05FC060E083E00E942B0861E083E030
:102C70000E942B0861E083E00E94CB0760E08C8516
:102C80000E942B0861E08C850E942B0860E08C85F7
:102C90000E94CB07CE01DF91CF910C94DE1560E04E
:102CA00083E00E942B0861E083E00E942B0861E032
:102CB00083E00E94CB0762E070E080E090E00E9439
:102CC000930860E08C850E942B0861E08C850E944F
:102CD0002B08E0CF61E083E00E942B0860E083E0F6
:102CE0000E94CB0762E070E080E090E00E949308D1
:102CF00060E08C850E94CB0760E08C850E942B08E9
:102D00007894809168008860809368008091730057
:102D10008460809373008FEF80935407DF91CF918D
:102D2000089561E083E00E942B0861E083E00E9447
:102D3000CB0760E08C850E94CB0760E0C7CF70E0D6
:102D400060E08AE69EE00E94251610921E0C10920A
:102D50001D0C80911C0C8093B00080911B0C809303
:102D6000B100089580911D0C90911E0C8A569E40D2
:102D700061F062E070E08AE69EE00E9425168AE635
:102D80009EE090931E0C80931D0C86E990E0A0E0DD
:102D9000B0E080936E0E90936F0EA093700EB09380
:102DA000710E81EF98ED9093790E8093780E80915B
:102DB000B00080931C0C8091B10080931B0C10928A
:102DC000B00086E08093B10008950F931F93CF93D6
:102DD000DF938C0163E070E08AE69EE00E94251696
:102DE00061E08091760E0E94CB078CE895E6019712
:102DF000F1F760E08091760E0E94CB078CE496E4B8
:102E00000197F1F7D0E0C0E0D80114968D919C9124
:102E10001597C817D90790F4ED91FC91309759F4A4
:102E200010921A0CEAE1FCE060818AE69EE00E94C2
:102E30003E152196E9CFEC0FFD1FF6CF64E070E060
:102E40008AE69EE0DF91CF911F910F910C94251699
:102E50001F93CF93DF93EC01162F63E070E00E9485
:102E60002516612FCE010E943E1564E070E0CE0170
:102E70000E94251681E090E0DF91CF911F91089587
:102E800081E08093500B88E68093720B1092510B77
:102E90001092730B60E08CE39EE00E94C50D81E010
:102EA0000E945005811142C067E088E60E94AD058E
:102EB0001092080B8093070B8CE39EE00E947E0D1E
:102EC0008F770E942F0D8093000B8CE39EE00E9471
:102ED0007E0D0E942F0D8093010B8CE39EE00E94DB
:102EE0007E0D8F7B0E942F0D8093020B8CE39EE062
:102EF0000E947E0D8093030B8CE39EE00E947E0D6A
:102F00000E942F0D8093040B8CE39EE00E947E0DA7
:102F10008F770E942F0D8093050B8CE39EE00E941B
:102F20007E0D0E942F0D825E8093060B8091000B18
:102F30008093C3098091010B8093F30A8091020B67
:102F40008093C4098091040B8093C7098091050B7D
:102F50008093C8098091060B90E08E54984F90930F
:102F6000C6098093C50962E370E080E090E00C94AC
:102F70009308CF9391E09093500B98E69093720B47
:102F80001092510B1092730B682F8CE39EE00E94FD
:102F9000C50D81E00E94500581110DC061E088E6F9
:102FA0000E94AD051092080B8093070B8CE39EE006
:102FB0000E947E0DC82F8C2FCF9108951F93CF9321
:102FC000DF9381E08093500B88E68093720B109220
:102FD000510B1092730B60E08CE39EE00E94C50DD4
:102FE000C0E0DBE028811AE0822F612F0E94264A90
:102FF000682F660F680F660F620F8CE39EE00E94D9
:10300000C50D2981822F612F0E94264A682F660FE5
:10301000680F660F620F8CE39EE00E94C50D2A8147
:10302000822F612F0E94264A682F660F680F660F55
:10303000620F8CE39EE00E94C50D6B818CE39EE0E5
:103040000E94C50D2C81822F612F0E94264A682F75
:10305000660F680F660F620F8CE39EE00E94C50D3D
:103060002D81822F612F0E94264A682F660F680FDC
:10307000660F620F8CE39EE00E94C50D2E812E51DB
:10308000822F612F0E94264A682F660F680F660FF5
:10309000620F8CE39EE00E94C50D81E00E94500506
:1030A000C82F8FE00E94B917682F6F778FE00E94BA
:1030B000F40D8C2FDF91CF911F910895CF93DF9363
:1030C000C82F8FE00E94B917C150DD0B21E030E01E
:1030D00001C0220FCA95EAF7982F922351F020954C
:1030E000622F68238FE00E94F40D81E0DF91CF9181
:1030F000089580E0FBCFFC0101900020E9F73197B3
:10310000AF01481B590BBC018FE19CE00C944106B8
:1031100081EC91E00C947B18CF93DF93FC01448108
:103120005581608171818FE19CE00E944106EC0134
:103130000E9488188C0F9D1FDF91CF910895CF9327
:10314000DF930E941807EC010E9488188C0F9D1FC6
:10315000DF91CF910895CF93DF930E941307EC0185
:103160000E9488188C0F9D1FDF91CF9108958F9238
:103170009F92AF92BF920F931F93CF93DF93CDB7E0
:10318000DEB7A1970FB6F894DEBF0FBECDBF19A270
:10319000423008F44AE08E010F5D1F4F842E912CBF
:1031A000B12CA12CA50194010E94AB48E62FB901D6
:1031B000CA01EA30F4F4E05DD801EE938D01232BCF
:1031C000242B252B79F790E080E0109719F0CD01A2
:1031D0000E947B18A1960FB6F894DEBF0FBECDBF3C
:1031E000DF91CF911F910F91BF90AF909F908F90E3
:1031F0000895E95CE1CF682F70E090E080E04AE05C
:103200000C94B718CF93DF930E94FB18EC010E9437
:1032100088188C0F9D1FDF91CF910895CF92DF9278
:10322000EF92FF92CF93DF9397FF19C06B017C0160
:103230008DE20E941307EC0166277727CB016C19FA
:103240007D098E099F094AE00E94B7188C0F9D1FC7
:10325000DF91CF91FF90EF90DF90CF9008954AE0FB
:10326000DF91CF91FF90EF90DF90CF900C94B71843
:10327000CF92DF92EF92FF92CF93DF930E94C60826
:103280006B017C0120E1C20E27E2D21EE11CF11C81
:103290001092CB091092CA090E94C6086C157D05D0
:1032A0008E059F0560F58FE19CE00E949F06181631
:1032B000190694F764E670E080E090E00E949308BD
:1032C0008FE19CE00E949F06D82EC1E0DAE0E090FA
:1032D000CA09F090CB09DC1690F08FE19CE00E94C7
:1032E0007E06DE9D9001DF9D300D1124C097280FD2
:1032F000391F3093CB092093CA09CF5FE8CF609183
:10330000CA097091CB09072E000C880B990B0E94FB
:103310000E190E9488186AE070E080E090E0DF916A
:10332000CF91FF90EF90DF90CF900C949308CF93C4
:10333000DF934AE00E94B718EC010E9488188C0FB6
:103340009D1FDF91CF910895CF93DF93D0E0C0E030
:10335000009719F00E947B18EC010E9488188C0FCE
:103360009D1FDF91CF9108958F929F92AF92BF9250
:10337000CF92DF92EF92FF921F93CF93DF93CDB75F
:10338000DEB764970FB6F894DEBF0FBECDBF6B01FA
:103390007C0149015A0168E873E180E090E00E94F5
:1033A000F90F182F882309F410C2C0925E0ED09234
:1033B0005F0EE092600EF092610E8092620E90922B
:1033C000630EA092640EB092650E80E290E090933E
:1033D000670E8093660E80E090E19093690E809373
:1033E000680EF8948FEF9FEFDC0180934A0E909364
:1033F0004B0EA0934C0EB0934D0E80934E0E9093B7
:103400004F0EA093500EB093510E8093520E909396
:10341000530EA093540EB093550E8093560E909376
:10342000570EA093580EB093590E60915E0E709196
:103430005F0E8091600E9091610E0E94AF11882303
:1034400009F4C0C080905E0E90905F0EA090600E58
:10345000B090610E6091620E7091630E8091640E67
:103460009091650E681979098A099B099695879547
:1034700077956795680D791D8A1D9B1D0E94AF1178
:10348000882309F49FC080915E0E90915F0EA091F9
:10349000600EB091610E898B9A8BAB8BBC8B8D8744
:1034A0009E87AF87B88B69897A898B899C8960935D
:1034B0004E0E70934F0E8093500E9093510ECD840C
:1034C000DE84EF84F888C0924A0ED0924B0EE092D0
:1034D0004C0EF0924D0E0E948B116093520E709321
:1034E000530E8093540E9093550E6B017C01CC24A7
:1034F00020EFD222FF246C157D058E059F0509F073
:10350000A6C16093560E7093570E8093580E9093F9
:10351000590E6091560E7091570E8091580E9091F1
:10352000590E0E9480046093560E7093570E80933C
:10353000580E9093590E80914E0E90914F0EA0917F
:10354000500EB091510E0097A048B10508F486C105
:1035500010925A0E10925B0E10925C0E10925D0E3D
:10356000789484EC91E00E94A4190E9488186091DC
:103570004A0E70914B0E80914C0E90914D0E0E9410
:10358000221560914E0E70914F0E8091500E9091C9
:10359000510E0E9422158FE19CE00E943307812F7B
:1035A00064960FB6F894DEBF0FBECDBFDF91CF910A
:1035B0001F91FF90EF90DF90CF90BF90AF909F90C2
:1035C0008F90089580915E0E90915F0EA091600E95
:1035D000B091610E898B9A8BAB8BBC8BAE014B5F2C
:1035E0005F4F6FEFCE0141960E94961281111DC070
:1035F00080915E0E90915F0EA091600EB091610E71
:10360000898B9A8BAB8BBC8BAE014B5F5F4F61E0BC
:10361000CE0141960E949612811107C08FEF9FEF55
:10362000DC018D839E83AF83B8872091660E309135
:10363000670E8091620E9091630EA091640EB0911E
:10364000650E821B930BA109B109898B9A8BAB8BF9
:10365000BC8BAE01475F5F4F6FEFCE0141960E947A
:103660009612811107C08FEF9FEFDC0189879A873F
:10367000AB87BC8789849A84AB84BC8480915E0EBE
:1036800090915F0EA091600EB091610E4D815E81B0
:103690006F8178854F3F5F4F6F4F7F4F09F18B20D0
:1036A0008A208920809409F096C08D879E87AF87F5
:1036B000B88BAE014F5F5F4F61E0CE010D960E9467
:1036C00096128823E1F12091660E3091670E809169
:1036D000620E9091630EA091640EB091650E9AC037
:1036E0002091660E3091670E4091620E5091630EEC
:1036F0006091640E7091650E421B530B6109710954
:103700008B208A208920809409F48DC0498B5A8BA4
:103710006B8B7C8B8D879E87AF87B88BAE014F5F9D
:103720005F4F6FEFCE0141960E949612882339F0C9
:1037300061E0CE010D960E940B138111B4CE8989F0
:103740009A89AB89BC89C816D906EA06FB06E1F559
:103750008D859E85AF85B889C816D906EA06FB0611
:1037600099F580E090E0A0E8B0E080934E0E909351
:103770004F0EA093500EB093510E80934A0E90932B
:103780004B0EA0934C0EB0934D0EC092520ED092A1
:10379000530EE092540EF092550E80E1D80EE11CCB
:1037A000F11CC092560ED092570EE092580EF09235
:1037B000590E8FEF9FEFDC0180935A0E90935B0EB2
:1037C000A0935C0EB0935D0E78948BED91E00E9417
:1037D000A41910E0E4CE19861A861B861C864FEFCA
:1037E0005FEFBA014D835E836F8378878D879E87F5
:1037F000AF87B88B61E0CE010D960E940B13882332
:1038000009F49DCF2091660E3091670E8D859E85BF
:10381000AF85B889821B930BA109B109898B9A8B5B
:10382000AB8BBC8B10C08D879E87AF87B88B498BC5
:103830005A8B6B8B7C8B61E0CE010D960E940B1333
:10384000882309F47CCF6FEFCE01419674CF705F6F
:103850008F4F9F4F6627707F992753CE4AE55EE0D2
:1038600061E08EE49EE00E9496127ACECF92DF92C3
:10387000EF92FF921F93CF93DF930E94C6086B01D4
:103880007C0120E1C20E27E2D21EE11CF11C0E9445
:10389000C6086C157D058E059F0540F58FE19CE0FF
:1038A0000E949F061816190694F764E670E080E0FF
:1038B00090E00E9493088FE19CE00E949F06EC013B
:1038C000F82E10E08FE19CE00E947E068D3039F0EA
:1038D0008A3029F0E12FF0E0E453F64F80831F5F38
:1038E000F11680F7DD27C453D64F18828CEC99E08F
:1038F000DF91CF911F91FF90EF90DF90CF900C94CC
:10390000A4190C947B18CF930E9440178091C8098A
:10391000982F9D7FC091C709943011F0993061F5BF
:10392000CE31C1F1CF5F2C2F42E163E288E890E015
:103930000E940E0E89EF91E00E94811C8091C809BF
:103940000E94FB188FE20E9413078C2F0E94FB1825
:1039500080E20E94130782E10E94FB188EEA95E044
:103960000E94811C83E20E94021962E370E080E001
:1039700090E0CF910C949308823071F4CD3151F0E6
:10398000CC3181F68091C5099091C6098370992741
:10399000892B41F2C1E0C7CFCF3121F6FBCFCF93C6
:1039A000DF93482F5091F30A852F90E0E091F60ABB
:1039B000E41328C0CE2FD0E08C0F9D1F6CE370E085
:1039C0000E94464ABE010E94464AE69FE02D11240D
:1039D000E0936B0720E040E060916B078CE090E0A3
:1039E0000E940E0E8BE092E00E94811C80916B077A
:1039F0000E94021962E370E080E090E0DF91CF91D5
:103A00000C949308840F911D8C3391053CF06CE36A
:103A100070E00E94464A80936B07DCCF450F4093CD
:103A20006B07D8CFEF92FF920F931F93CF93DF9343
:103A30007C018C01CAE0D0E0CE010E949548F801DB
:103A400081938F012196CE30D105B1F7C701DF9167
:103A5000CF911F910F91FF90EF9008950F931F93B7
:103A6000CF93DF930AE71BE0C8E0DBE0CE010E94C2
:103A70009548F80181938F012196C83AFBE0DF0752
:103A8000A9F78AE79BE0DF91CF911F910F910895ED
:103A9000CF93DF93EB010E9495488883CE01DF919D
:103AA000CF9108950C9495480F931F93CF93DF9374
:103AB000FC01048115810115110539F4FB01108207
:103AC000DF91CF911F910F910895415051094017F7
:103AD000510708F48A01EB01FC0160817181A801A2
:103AE000CE010E94904CC00FD11F1882E9CFCF9316
:103AF000DF93DC011496ED91FC916E177F0728F59A
:103B00004115510511F19F01261B370B4217530731
:103B100008F49A01DB01EC0188819981E21BF30B27
:103B2000FD83EC83AF01461B570B260F371FBC01EB
:103B3000620F731F8A0F9B1F0E94904CE881F981CE
:103B40008C819D81E80FF91F1082DF91CF9108953C
:103B5000DF92EF92FF920F931F93CF93DF93FC01BD
:103B6000E480F580E114F10451F48FEF9FEFDF91D1
:103B7000CF911F910F91FF90EF90DF900895EC018E
:103B80000190F081E02DEE0DFF1DD08010820881A4
:103B900019816EE770E0C8010E949F4C0E0D1F1D39
:103BA000F801D082009709F328813981821B930B99
:103BB000DECFCF93DF93EC0188819981009711F0DC
:103BC0000E94FF4A198218821D821C821B821A825F
:103BD000DF91CF910895FC01808191810C94FF4A7F
:103BE0000E94694C0F931F93CF93DF93EC01888160
:103BF0009981009759F02A813B812617370730F0C9
:103C000081E0DF91CF911F910F9108958B016F5F3C
:103C10007F4F0E94884B009759F0998388831B83BC
:103C20000A832C813D81232B59F7FC011082E8CFB8
:103C300080E0E7CFEF92FF920F931F93CF93DF9334
:103C40006115710541F480E0DF91CF911F910F91D3
:103C5000FF90EF90089541155105B1F07B01EC0103
:103C60000C811D81040F151FB8010E94F21D8823CD
:103C700051F3288139818C819D81B701820F931F77
:103C80000E94894C1D830C8381E0DECF0F931F932C
:103C9000CF93DF9300D000D0CDB7DEB74AE08E01DE
:103CA0000F5F1F4FB80190E00E94B444F8010190EB
:103CB0000020E9F73197AF01401B510BB80189EAA9
:103CC00091E10E941A1E0F900F900F900F90DF91BC
:103CD000CF911F910F9108950F931F93CF93DF936F
:103CE000CDB7DEB764970FB6F894DEBF0FBECDBF79
:103CF0008E010F5F1F4F22E044E00E94E043FC0171
:103D000001900020E9F73197AF01481B590BBC0126
:103D100089EA91E10E941A1E64960FB6F894DEBFFC
:103D20000FBECDBFDF91CF911F910F910895CF931B
:103D3000DF9300D0CDB7DEB769831A8241E050E04F
:103D4000BE016F5F7F4F0E941A1E0F900F90DF9190
:103D5000CF910895FB0101900020E9F73197AF0161
:103D6000461B570B0C941A1EEF92FF920F931F9352
:103D7000CF93DF93EC017B018A01BA010E94F21D0F
:103D800081110BC0CE010E94D91DCE01DF91CF91D0
:103D90001F910F91FF90EF9008951D830C83B70141
:103DA000888199810E94894CF0CFFB01019000200D
:103DB000E9F73197AF01461B570B0C94B41ECF9314
:103DC000DF93EC01FB018617970749F06081718151
:103DD0006115710541F0448155810E94B41ECE01E8
:103DE000DF91CF9108950E94D91DF9CFCF93DF9332
:103DF00000D000D000D0CDB7DEB71A8219821C8265
:103E00001B821E821D8269EA71E1CE0101960E9429
:103E1000DF1E4091B3115091B4116091AF117091B8
:103E2000B011CE0101960E941A1E811104C0CE016C
:103E300001960E94D91DBE016F5F7F4F8FEA91E10D
:103E40000E94DF1ECE0101960E94EB1D64E670E029
:103E500080E090E00E9493088FEA91E10E948C1824
:103E600062E370E080E090E00E94930826960FB62F
:103E7000F894DEBF0FBECDBFDF91CF910895FC0156
:103E8000118210821382128215821482FB0101902A
:103E90000020E9F73197AF01461B570B0C94B41E75
:103EA0001F93CF93DF9300D000D000D0CDB7DEB703
:103EB00063EC71E0CE0101960E943F1F87E098E01D
:103EC0000E941807809110010E94AB188BE192E0CC
:103ED0000E94811C8FE19CE00E949F06892BD1F3F8
:103EE0008FE19CE00E947E06182F80ED810F8A30C2
:103EF00090F0812F8F7D81548A3168F01A3021F043
:103F00008FE292E00E94A4198FE19CE00E949F063C
:103F1000892BD1F3E5CF812F0E94AB188FE692E079
:103F20000E94A41963EC71E0CE0101960E94D51E97
:103F300060911001CE0101960E94971E64E872E024
:103F4000CE0101960E94AA1E612FCE0101960E9409
:103F5000971E63EA74E0CE0101960E94AA1ECE016C
:103F600001960E94E5166CE271E080E090E00E940C
:103F700093088AE69EE00E94C615892BA1F08AE686
:103F80009EE00E94C615892B51F08AE69EE00E94B1
:103F90009915682F8FE19CE00E94CF06F0CF86E84C
:103FA00092E00E94A419CE0101960E94EB1D269674
:103FB0000FB6F894DEBF0FBECDBFDF91CF911F913A
:103FC0000895CF93DF9300D000D000D0CDB7DEB7F7
:103FD0000E94B21664E670E080E090E00E949308D0
:103FE00063EC71E0CE0101960E943F1F6091810752
:103FF000CE0101960E94971E6FE872E0CE010196F5
:104000000E94AA1ECE0101960E94E5166CE271E0A4
:1040100080E090E00E9493088AE69EE00E94C61528
:10402000892B29F08AE69EE00E949915F5CF64E17C
:1040300070E080E090E00E9493080E949F1664E187
:1040400070E080E090E00E949308CE0101960E940B
:10405000EB1D26960FB6F894DEBF0FBECDBFDF91E5
:10406000CF910895CF93DF9300D000D000D0CDB78B
:10407000DEB70E94B21664E670E080E090E00E9435
:10408000930863EC71E0CE0101960E943F1F60919E
:104090008107CE0101960E94971E63E972E0CE016E
:1040A00001960E94AA1ECE0101960E94E5166CE2BE
:1040B00071E080E090E00E9493088AE69EE00E9412
:1040C000C615892B29F08AE69EE00E949915F5CF46
:1040D00064E170E080E090E00E9493080E949F16E7
:1040E00064E170E080E090E00E949308CE010196C8
:1040F0000E94EB1D26960FB6F894DEBF0FBECDBF13
:10410000DF91CF910895AF92BF92CF92DF92EF925D
:10411000FF920F931F93CF93DF93CDB7DEB7E9974D
:104120000FB6F894DEBF0FBECDBF082F10927807F0
:10413000109277071092770E63EC71E0CE018596AE
:104140000E943F1F602FCE0185960E94971E67E94F
:1041500072E0CE0185960E94AA1ECE0185960E942D
:10416000E51665E372E080E090E00E9493088AE63D
:104170009EE00E94C615B82EF12CE12C84E2A82EF8
:104180001091C209C12ED12CEB1440F58AE69EE0B5
:104190000E949915182F682F8BEB91E10E94971EB2
:1041A00068E070E080E090E00E9493081A3091F09F
:1041B0001D3081F0AC9CF001AD9CF00D1124EE5748
:1041C000F84FEE0DFF1D108368E070E080E090E096
:1041D0000E9493082FEFE21AF20AD2CF85E0EAE9B3
:1041E000F2E0DE019B9601900D928A95E1F785E061
:1041F000EFE9F2E0DE01D09601900D928A95E1F7A9
:1042000085E0E4EAF2E0DE01D59601900D928A9510
:10421000E1F734E2139FC00111249C012E57384F5F
:104220007901BE01655D7F4FC9010E94510F88234E
:1042300009F181E08093F40A009381071F5F1093D6
:10424000C2098FE19CE00E943307CE0185960E944F
:10425000EB1DE9960FB6F894DEBF0FBECDBFDF9120
:10426000CF911F910F91FF90EF90DF90CF90BF9073
:10427000AF900895BE01605D7F4FC7010E94510F4E
:10428000882319F000937A07D9CFBE016B5C7F4F6A
:10429000CE0101960E94510F882381F20093790785
:1042A000CDCF0F931F93CF93DF9300D000D000D0DA
:1042B000CDB7DEB7182F63EC71E0CE0101960E94F6
:1042C0003F1F63EC71E0CE0101960E94D51E612F65
:1042D000CE0101960E94971E63EA74E0CE0101961A
:1042E0000E94AA1E03E010E0CE0101960E94E5168E
:1042F00064E670E080E090E00E9493088AE69EE029
:104300000E94C615181619064CF064E670E080E0AD
:1043100090E00E9493080150110931F78AE69EE06F
:104320000E94C61510927807109277071092770EA8
:1043300011E002970CF410E0CE0101960E94EB1DF3
:10434000812F26960FB6F894DEBF0FBECDBFDF914A
:10435000CF911F910F910895CF92DF92EF92FF922C
:104360000F931F93CF93DF93EC017B018A01E881C8
:10437000F9810280F381E02D0995D82E882329F157
:10438000E114F104D1F001151105B9F0CFB6F8949C
:104390008A8D8350990BF8012081281719061CF08B
:1043A0008A8D84508083F801408150E0BE01615EB7
:1043B0007F4FC7010E946E4CCFBE8FB7F894FE01AD
:1043C000E65EFE4F10821A8E8FBF8D2DDF91CF914A
:1043D0001F910F91FF90EF90DF90CF900895EF9293
:1043E000FF920F931F93CF93DF9300D01F92CDB70F
:1043F000DEB78C010E94170BE82E81110CC0E12C56
:104400008E2D0F900F900F90DF91CF911F910F91F4
:10441000FF90EF900895F801808D8A3009F47EC0F6
:104420008B3009F47DC022E0F22E823041F740E863
:1044300061E0C8010E94ED086AE070E080E090E071
:104440000E94930861E0C8010E942D0A8038B9F6E5
:1044500060E0F801808D0E942B08F801818D8F3F6C
:1044600049F48091D90A843050F691E0980F9093E6
:10447000D90A818FF801818DE82FF0E0EE0FFF1F40
:10448000E652F54F118300836EE07BE0882349F00C
:1044900065E07BE0813029F0823009F0B0CF6CEF2D
:1044A0007AE08F2D0E941F0640E06EE0C8010E9456
:1044B000ED0840E06FE0C8010E94ED08C8010E94CD
:1044C000450943E050E069E178E0CE0101960E94A1
:1044D000AB4449816DE1C8010E94ED084A816EE15B
:1044E000C8010E94ED084B8166E2C8010E94ED08F8
:1044F00040E060E2C8010E94ED0848E061E2C801C6
:104500000E94ED0840E050EC64E674E4C8010E94AB
:1045100059096DE0C8010E941D0972CFF12C87CFA7
:10452000FF24F39484CF2F923F924F925F926F9229
:104530007F928F929F92AF92BF92CF92DF92EF9233
:10454000FF920F931F93CF93DF9300D000D000D042
:104550001F92CDB7DEB79F838E837C836B834D83A1
:104560002983DC0117968C91179722242394280E17
:1045700017962C92312CC12CD12C7601D394772410
:104580007394730CEE81FF818285831508F4E3C078
:1045900080917A0E90917B0EDC01ED91FC91008C64
:1045A000F18DE02D622D099580917A0E90917B0E10
:1045B000DC01ED91FC91028CF38DE02D40E860E090
:1045C000099549816D818B819C810E94FA050E9429
:1045D000EF05B981BF3FD1F481E027960FB6F8947B
:1045E000DEBF0FBECDBFDF91CF911F910F91FF9026
:1045F000EF90DF90CF90BF90AF909F908F907F9083
:104600006F905F904F903F902F900895E1E0E715F5
:1046100068F4EE81FF8183819481A581B681019642
:10462000A11DB11D83839483A583B6830E94C60810
:104630004B015C01AE81BF8118960D911C910E94C7
:104640004A44A70196010E94CD489B01AC01D801C4
:104650000E94EC48A70196010E94CD48200F311F0F
:10466000372C2901712C612C0E94C6086819790920
:104670008A099B09641575058605970508F07FCFA3
:1046800080917A0E90917B0EDC01ED91FC9102807D
:10469000F381E02D0995882339F380917A0E90916A
:1046A0007B0EDC01ED91FC910480F581E02D50E062
:1046B00040E070E060E009958823B1F280917A0EC5
:1046C00090917B0EDC01ED91FC9100A0F1A1E02D19
:1046D0000995182F80917A0E90917B0EDC01ED9157
:1046E000FC91068CF78DE02D09958A8380917A0ED6
:1046F00090917B0EDC01ED91FC9102A0F3A1E02DE5
:104700000995082F80917A0E90917B0EDC01ED9136
:10471000FC9104A0F5A1E02D0995B981B1130BC05E
:10472000EE81FF819281FA819F1305C087FF03C04C
:10473000201609F451CF87FD97CFEE81FF81E10F5D
:10474000F11D8385801390CF412F602F8E819F8133
:104750000E94350B89CF80E040CFAF92BF92CF92BD
:10476000DF92EF92FF920F931F93CF93DF93FC01A1
:10477000D62F04811581C80187509F4F6AEF70E0E2
:104780000E94324A662309F448C0C62F7F01C150F7
:1047900030E020E0AA24A394B12C01151105E9F121
:1047A0000B3F110540F169018AEFC80ED11C0A5F69
:1047B0001109A501421B530B4C0D5D1DC093850FC4
:1047C000A6E8BFE02C153D05E0F4F7018481958152
:1047D0002817390738F480819181FC01E20FF31F1B
:1047E000892B21F410921A0CEAE1FCE080818D9370
:1047F0002F5F3F4FE7CF6801C20ED31E10E000E0ED
:10480000D8CF2D2F65E87FE08AE79EE00E949322B3
:10481000882321F0C1509601C0CF81E0DF91CF9174
:104820001F910F91FF90EF90DF90CF90BF90AF90CE
:1048300008950E942E1D64E670E080E090E00E94E2
:104840009308EAE7FBE080EADF011D928A95E9F729
:1048500008952F923F924F925F926F927F928F9224
:104860009F92AF92BF92CF92DF92EF92FF920F93FF
:104870001F93CF93DF93CDB7DEB764970FB6F8944D
:10488000DEBF0FBECDBFCDB6DEB6DE86CD860E94C2
:10489000F61EE090B311F090B411FC8AEB8A2DB7AC
:1048A0003EB72E193F090FB6F8943EBF0FBE2DBF7D
:1048B0008DB79EB701965C016091AF117091B011F8
:1048C000A7010E946E4C8091680E9091690E069728
:1048D0008E159F0530F589EA92E00E94A4190E9486
:1048E000D70FED84FE840FB6F894FEBE0FBEEDBE6A
:1048F00064960FB6F894DEBF0FBECDBFDF91CF91A7
:104900001F910F91FF90EF90DF90CF90BF90AF90ED
:104910009F908F907F906F905F904F903F902F90DF
:1049200008952DB63EB640905A0E50905B0E6090A2
:104930005C0E70905D0E9FEF491A590A690A790A58
:10494000EB88FC88A6E0EA0EF11C0091660E10913F
:10495000670EC701B8010E94324A009709F462C18C
:104960000E0D1F1D081B190BEDB7FEB7E01BF10B59
:104970000FB6F894FEBF0FBEEDBF2DB73EB72F5F49
:104980003F4F4901ADB7BEB711964D925D926D9202
:104990007C921497F901F582E4828DB79EB7079651
:1049A0004B895C89B5010E946E4CA8014E195F09C4
:1049B00070E060E0C4018E0D9F1D0E94774C2801BD
:1049C000712C612C4091520E5091530E6091540EF7
:1049D0007091550EC090620ED090630EE090640E00
:1049E000F090650ECF86D88AE98AFA8AD301C80189
:1049F000840F951FA61FB71FE091480EF091490E36
:104A0000C816D906EA06FB0608F00EC15601A41A1C
:104A1000B50A7801EA18FB0885019401CF010E94CC
:104A2000C71064EF71E080E090E00E94F90F9401FC
:104A30002A0D3B1D40915E0E50915F0E6091600EFD
:104A40007091610E87018091480E9091490E0E94ED
:104A5000C7108090520E9090530EA090540EB090BC
:104A6000550E80915A0E90915B0EA0915C0EB09104
:104A70005D0E0196A11DB11D80935A0E90935B0EA1
:104A8000A0935C0EB0935D0EC301B201680D791D59
:104A90008A1D9B1D0E9480046093520E7093530EDA
:104AA0008093540E9093550E705F8F4F9F4F6627E3
:104AB000707F99270E9480042B013C010E94AF1156
:104AC000811129C041E0C301B2010E947110C301EC
:104AD000B201705F8F4F9F4F6627707F99270E94AA
:104AE00080046D837E838F839887AE014F5F5F4F15
:104AF00061E0CE0105960E949612882361F08D81B7
:104B00009E81AF81B88580934A0E90934B0EA093FF
:104B10004C0EB0934D0E4092560E5092570E60922E
:104B2000580E7092590E80924E0E90924F0EA09297
:104B3000500EB092510E80914A0E90914B0EA09162
:104B40004C0EB0914D0E0097A048B10540F08092F8
:104B50004A0E90924B0EA0924C0EB0924D0E0FB694
:104B6000F8943EBE0FBE2DBE60914E0E70914F0E5A
:104B70008091500E9091510E0E945F117C016091C6
:104B80004E0E70914F0E8091500E9091510E0E94DA
:104B90005F118C01009769F02091660E3091670ECD
:104BA000B9010E94324A009721F0020F131F081B1F
:104BB000190B8EEB92E00E94811C60915A0E70914D
:104BC0005B0E80915C0E90915D0E0E9497198EECA9
:104BD00092E00E94811C8FEA91E10E948C1885ED81
:104BE00092E00E94811CCB88DC88B60190E080E0D6
:104BF0004AE00E94B71881EE92E00E94811CB70142
:104C000090E080E04AE00E94B7188EEE92E00E94A9
:104C1000811CB80190E080E04AE00E94B7180E9431
:104C200088185DCE8701A0CE9401CF0110CF2F92BE
:104C30003F924F925F926F927F928F929F92AF922C
:104C4000BF92CF92DF92EF92FF920F931F93CF9379
:104C5000DF93CDB7DEB7A7970FB6F894DEBF0FBED0
:104C6000CDBF2DB73EB73EA32DA30E942E1D64E1FC
:104C700070E080E090E00E9493080E94B21664EF1A
:104C800071E080E090E00E94930863EC71E08FEAAD
:104C900091E10E94D51E8FEA91E10E948C1800E0FC
:104CA00088EE882E83E0982EC090C2090C1508F07B
:104CB000F2C234E2309FC0011124DC01AE57B84F7C
:104CC0007D011C9100937C0763EC71E085EB91E121
:104CD0000E94D51E64E170E080E090E00E9493089D
:104CE000B70185EB91E10E94AA1EEAE7FBE080E0B4
:104CF000D12CC81649F09081191303C08AA3DD2472
:104D0000D3948F5F3A96F5CFFE013196BAA12AE08F
:104D1000B29FA001112481E090E07F019C0121500D
:104D20003109DA01A80FB91FA658B44F6C91662358
:104D300009F45CC0619301968A30910579F76EE7BA
:104D400085EB91E10E94971EB701D11002C060E28D
:104D500073E085EB91E10E94AA1E63EC71E0CE0145
:104D60004C960E943F1F612FCE014C960E94971EC9
:104D700060E073E0CE014C960E94AA1ECE014C96D4
:104D80000E94E51664E670E080E090E00E949308DF
:104D90008AE69EE00E94C615181619060CF005C199
:104DA000ADB6BEB6B1E0B0937B078AE69EE00E9446
:104DB000C615782EEDB7FEB7E81BF1090FB6F894CB
:104DC000FEBF0FBEEDBF2DB73EB72F5F3F4F69014E
:104DD000622E79018E2D8619871568F48AE69EE089
:104DE0000E949915D7018D937D01F4CF2E0D3F1DA3
:104DF000D9011C92A4CFF6018381082E000C990BD7
:104E0000C097889D9001899D300D989D300D11248B
:104E100030937607209375070FB6F894BEBE0FBE89
:104E2000ADBE6091750770917607072E000C880B58
:104E3000990B0E94930810927807109277071092AE
:104E4000770E62E370E080E090E00E94930880912A
:104E50007B07882309F406C22DB73EB73CA32BA3DA
:104E600063EC71E0CE0146960E943F1F612FCE0198
:104E700046960E94971E63E073E0CE0146960E941C
:104E8000AA1ECE0146960E94E51664EF71E080E00E
:104E900090E00E9493088AE69EE00E94C615782E54
:104EA0007C01FF24270131E0431A51088DB79EB7DA
:104EB0008E199F090FB6F8949EBF0FBE8DBFADB778
:104EC000BEB711966D01B5E0B71508F0B2C12DB6A9
:104ED0003EB66C2C56018AE69EE00E949915F501BB
:104EE00081935F016FE070E080E090E00E949308A2
:104EF0008A2D8619871578F32DB73EB72E193F09ED
:104F00000FB6F8943EBF0FBE2DBF8DB79EB701966A
:104F10005C0160907A0780918107181711F01611D3
:104F20004BC09FEFC91AD90AAFA27501D6018D9166
:104F30006D01F70181937F016FE070E080E090E008
:104F40000E9493088E2DFFA18F1B871578F3DA2C12
:104F500075018E2D8D19841508F059C0F701C19087
:104F60007F0185ED8C0D8035A0F7FBE2CF1619F09F
:104F70002DE2C21242C06EE785EB91E10E94971EBE
:104F800064E170E080E090E00E9493083DE2C3128B
:104F9000E0CF6DE285EB91E10E94971E64E170E045
:104FA00080E090E00E949308D4CF909276078092A0
:104FB000750710927B0735CF712C22E0E21AF108B9
:104FC000872D90E08E159F058CF4F501E80FF91FF1
:104FD0008C0D9D1DDC0111968C91808364E170E045
:104FE00080E090E00E9493087394EACF64E170E05F
:104FF00080E090E00E949308AACF6C2D85EB91E1B0
:105000000E94971E69E170E080E090E0CBCF16151A
:1050100009F4B2C080918107181709F4ADC08091DE
:105020007907181709F4A8C04DB65EB663EC71E0B5
:10503000CE0140960E943F1F612FCE0140960E94F4
:10504000971E67E073E0CE0140960E94AA1ECE0133
:1050500040960E94E51664EF71E080E090E00E94C7
:1050600093088AE69EE00E94C6157C01FF24670132
:10507000A2E0CA1AD108EDB7FEB7EC19FD090FB6C8
:10508000F894FEBF0FBEEDBF2DB73EB72F5F3F4F69
:1050900059018630E8F010E031E0E31AF108612EA2
:1050A000712C6E147F04A4F48AE69EE00E94991588
:1050B0008D3061F08A3051F0F501E60DF71D8083E7
:1050C0006FE070E080E090E00E9493081F5FE7CF00
:1050D00063EC71E0CE010A960E943F1F11E0812F20
:1050E00090E08C159D05A4F48A0D9B1DDC016C914C
:1050F0006B3261F0CE010A960E94971E64E170E067
:1051000080E090E00E9493081F5FE9CF6EE7F2CF46
:10511000CE010A960E94A81D4E85481B50E0BC0196
:105120007727CE010A960E94771DCE010A960E942B
:10513000A81DAC01552770E060E0CE010A960E94E0
:10514000771D4E855F856A857B8585EB91E10E94A1
:105150001A1E64E170E080E090E00E949308CE01A6
:105160000A960E94EB1DCE0140960E94EB1D0FB6E1
:10517000F8945EBE0FBE4DBE0FB6F8943EBE0FBE95
:105180002DBECE0146960E94EB1DEBA1FCA10FB6F1
:10519000F894FEBF0FBEEDBF6CE271E080E090E0DE
:1051A0000E94930810927807109277071092770E5A
:1051B00062E370E080E090E00E949308109278072C
:1051C000109277071092770E62E370E080E090E033
:1051D0000E9493081B861A861D861C861F861E86C3
:1051E00065EB71E1CE010A960E94DF1E6EE7CE01EB
:1051F0000A960E94971E811104C0CE010A960E9451
:10520000D91D4E855F856A857B858FEA91E10E9475
:105210001A1ECE010A960E94EB1D64E670E080E043
:1052200090E00E949308CE014C960E94EB1D0F5F08
:105230003BCD8091790765E173E0181771F080919B
:105240007A076FE173E0181741F0809181076AE1F6
:1052500073E0181711F06BE073E085EB91E10E94A9
:10526000AA1E8FCF8091790765E173E0181771F05E
:1052700080917A076FE173E0181741F08091810700
:105280006AE173E0181711F06BE073E085EB91E1D0
:105290000E94AA1E81CF8091B3119091B4112DB7B5
:1052A0003EB7281B390B0FB6F8943EBF0FBE2DBF7B
:1052B0000DB71EB70F5F1F4F62E370E080E090E014
:1052C0000E9493084091B3115091B41141155105BA
:1052D00029F0B8018FEA91E10E94541D62E370E069
:1052E00080E090E00E949308E091B311F091B41136
:1052F000E00FF11F108262E370E080E090E00E9416
:105300009308B801CE0101960E943F1F8091AF1112
:105310009091B011009709F454C069817A816115A8
:10532000710509F44CC04091B1115091B2112D8119
:105330003E814217530708F442C00E94894C8D8178
:105340009E819093B4118093B3111E821D82CE0171
:1053500001960E94EB1D62E370E080E090E00E9405
:1053600093080E949F1662E370E080E090E00E9444
:10537000930862E370E080E090E00E9493088DA1C2
:105380009EA10FB6F8949EBF0FBE8DBFA7960FB615
:10539000F894DEBF0FBECDBFDF91CF911F910F916B
:1053A000FF90EF90DF90CF90BF90AF909F908F9045
:1053B0007F906F905F904F903F902F9008950E9444
:1053C000FF4A89819A819093B0118093AF118B81AC
:1053D0009C819093B2118093B1118D819E819093A5
:1053E000B4118093B3111A8219821C821B82ADCF33
:1053F0003F924F925F926F927F928F929F92AF9265
:10540000BF92CF92DF92EF92FF920F931F93CF93B1
:10541000DF93CDB7DEB7ADB6BEB60E94B21664E676
:1054200070E080E090E00E94930887E991E00E949C
:105430009F180E948818EAE5F7E083E697E011924A
:105440008E179F07E1F762E370E080E090E00E9432
:10545000930810E3812F0E945121882319F0812F96
:105460000E94840F1F5F1A33A9F711E6812F0E9453
:105470005121882319F0812F0E94840F1F5F1B3751
:10548000A9F711E4812F0E945121882319F0812F5F
:105490000E94840F1F5F1B35A9F764E170E080E074
:1054A00090E00E94930810E3812F0E94770F8823D9
:1054B00019F0812F0E9483201F5F1A33A9F711E68C
:1054C000812F0E94770F882319F0812F0E9483205B
:1054D0001F5F1B37A9F711E4812F0E94770F8823E4
:1054E00019F0812F0E9483201F5F1B35A9F78DB60D
:1054F0009EB680E591E00E94C10F60E087E10E94C6
:10550000CB07000061E087E10E94CB070E94960F65
:1055100062E370E080E090E00E94930840E060E089
:1055200070E180E090E00E94711062E370E080E042
:1055300090E00E949308C090BF11D090C0118DB729
:105540009EB78C199D090FB6F8949EBF0FBE8DBFF4
:1055500001967C01C114D10431F0A601BC018BEB92
:1055600091E10E94541D80915E0E90915F0EA0917A
:10557000600EB091610E81309041A105B10568F4D3
:105580008091620E9091630EA091640EB091650EB1
:1055900081309041A105B10560F48601970140E09A
:1055A00050E160E070E08091480E9091490E0E94B9
:1055B000C7106CE271E080E090E00E9493080D2C2F
:1055C000000CEE08FF0880E1D80EE11CF11CC0922F
:1055D0005607D0925707E0925807F09259076AE0B1
:1055E00070E080E090E00E949308412C80E1582E0A
:1055F000612C712C4C145D046E047F0440F5009105
:10560000480E1091490E40E063E0C8010E94491025
:10561000862D0E94B70F852D0E94B70F842D0E9402
:10562000B70F80E00E94B70F382EC8010E94A70F65
:10563000832D0E94130768E070E080E090E00E94F4
:1056400093089FEF491A590A690A790AD3CF64E18E
:1056500070E080E090E00E9493080E94D70F0FB6A0
:10566000F8949EBE0FBE8DBE62E370E080E090E0D5
:105670000E9493080E9488180E94881882E991E08D
:105680000E949F1862E370E080E090E00E9493081F
:105690000E949F161092E90A0FB6F894BEBE0FBE84
:1056A000ADBEDF91CF911F910F91FF90EF90DF90F2
:1056B000CF90BF90AF909F908F907F906F905F90B2
:1056C0004F903F900895CF92DF92EF92FF920F9309
:1056D0001F93CF93DF93CDB7DEB72D970FB6F89416
:1056E000DEBF0FBECDBF0E94C10E6093F80A70935B
:1056F000F90A8093FA0A9093FB0A82E10E94B91793
:10570000182F81E10E94B917612F782F77FF02C00F
:10571000615C7F4F86E0759567958A95E1F7072E66
:10572000000C880B990B0E94784720E030E040E89D
:105730005EE30E94D74760937D0770937E07809356
:105740007F079093800761E08CE10E94CB0766E9B8
:1057500070E080E090E00E9493088DE10E945C0878
:105760006C0160E08CE10E94CB078DE10E945C0837
:105770007C0163EC71E089EA91E10E94D51E64E14D
:1057800070E080E090E00E94930864E071E089EAB4
:1057900091E10E94AA1E6EE789EA91E10E94971E9C
:1057A00064E77BE089EA91E10E94AA1E6EE789EA3C
:1057B00091E10E94971E6091EF0A7091F00A80912A
:1057C000F10A9091F20A2AE08E010F5F1F4FA801A3
:1057D0000E94CE44F80101900020E9F73197AF0113
:1057E000401B510BB80189EA91E10E941A1E6EE735
:1057F00089EA91E10E94971E6091F80A7091F90A76
:105800008091FA0A9091FB0A0E946C1E6EE789EA69
:1058100091E10E94971E60917D0770917E078091B3
:105820007F07909180070E946C1E6EE789EA91E1E4
:105830000E94971EB60190E080E00E94764723E325
:1058400033E343E550E40E94D74720E030E040E8EE
:105850005AE30E94D7479B01AC010E940F4920E008
:1058600030E04AE754E40E94D7470E94ED49CB015B
:105870004AE0B8010E94F044F80101900020E9F7E5
:105880003197AF01401B510BB80189EA91E10E94A9
:105890001A1E6EE789EA91E10E94971EB70190E017
:1058A00080E00E94764723E333E343E550E40E941F
:1058B000D74720E030E040E85AE30E94D7479B01F9
:1058C000AC010E940F490E946C1E6EE789EA91E1CB
:1058D0000E94971E4AE0B8018091C5099091C609BF
:1058E0000E94B444F80101900020E9F73197AF011C
:1058F000401B510BB80189EA91E10E941A1E6DE22A
:1059000089EA91E10E94971E8091C8090E94461E73
:105910006DE289EA91E10E94971E8091C7090E9479
:10592000461E6FE589EA91E10E94971E8091C409A5
:105930000E94461E6AE389EA91E10E94971E109137
:10594000F30A1A3028F460E389EA91E10E94971E75
:10595000812F0E94461E6AE389EA91E10E94971E08
:105960001091C3091A3028F460E389EA91E10E949A
:10597000971E812F0E94461E6FE589EA91E10E94E1
:10598000971E60E071E089EA91E10E94AA1E6EE72D
:1059900089EA91E10E94971E62E370E080E090E066
:1059A0000E9493082D960FB6F894DEBF0FBECDBFB0
:1059B000DF91CF911F910F91FF90EF90DF90CF90EB
:1059C00008952F923F924F925F926F927F928F92A3
:1059D0009F92AF92BF92CF92DF92EF92FF920F937E
:1059E0001F93CF93DF93CDB7DEB7A8970FB6F89488
:1059F000DEBF0FBECDBF0E944C0E68EC70E080E0B1
:105A000090E00E9493086091EA0A7091EB0A90E09E
:105A100080E00E947647409185100E94ED0C811134
:105A200004C085E293E00E94A41984E189A3109246
:105A3000740782E393E00E94A4190E94C6081B0128
:105A40002C0180911101882309F4B0C0C090700727
:105A5000D0907107E0907207F090730720E8C20EB3
:105A60002CE2D21E20E8E21EF11C80916C0790917E
:105A70006D07A0916E07B0916F07C81AD90AEA0A9C
:105A8000FB0A89E493E00E94811CC701B6010E94D1
:105A90000E190E9488188E010F5F1F4F3E0135E1DD
:105AA000630E711C4E0187E1880E911C9E01275EDA
:105AB0003F4F3CA32BA3CE014B969EA38DA32C5FFF
:105AC0003F4F38A72FA35E013FE1A30EB11C809189
:105AD0007407811183C00E94C60862197309840982
