:100000000C9487000C94B1000C94B1000C94B100D6
:100010000C94B1000C94B1000C94B1000C94E80461
:100020000C94B1000C94B1000C94B1000C94B1008C
:100030000C94B1000C94B1000C94B1000C94B1007C
:100040000C94B1000C94B1000C949E040C94B1007B
:100050000C9469040C943F040C94B1000C94B1000E
:100060000C94B1000C94B1000C94B1000C94B1004C
:100070000C94B1000C94B1000C94B1000C94B1003C
:100080000C94B1000C94B1000C94B100000020005D
:1000900023002600290000002100240027002A0058
:1000A00000002200250028002B00020202020202AA
:1000B000020204040404040404040303030303030A
:1000C00003030101010101010101010204081020E3
:1000D0004080010204081020408001020408102022
:1000E000408001020408102040800000000102004E
:1000F000090A0000000004030807000000000000D7
:1001000000000000000000000000BF056C08112482
:100110001FBECFEFD0E4DEBFCDBF28E0A0EAB1E044
:1001200001C01D92A135B207E1F711E0A0E0B1E0F6
:10013000EAECF1E100E00BBF02C007900D92A03A9B
:10014000B107D9F710E0C6E8D0E004C02197FE015E
:100150000E94BB08C538D107C9F70E9453060C940A
:10016000D8080C940000AF92BF92CF92DF92EF922A
:10017000FF920F931F93CF93DF936C017B018B0151
:10018000040F151FEB015E01AE18BF08C017D107A1
:1001900059F06991D601ED91FC910190F081E02D2B
:1001A000C6010995892B79F7C501DF91CF911F9180
:1001B0000F91FF90EF90DF90CF90BF90AF90089598
:1001C000FC01538D448D252F30E0842F90E0821B5D
:1001D000930B541718F081509F4F0895019708957D
:1001E000FC01918D828D981759F0A28DAE0FBF2F13
:1001F000B11D5D968C91928D9F5F928F90E00895D6
:100200008FEF9FEF0895FC01918D828D981731F04B
:10021000828DE80FF11D858D90E008958FEF9FEF9F
:100220000895FC01918D828D981B892F90E008958F
:100230008CEB92E00E94110121E0892B09F420E06F
:10024000822F0895FC01A48DA80FB92FB11DA35EC4
:10025000BE4F9C91848D8F5F848FA689B7899C93B4
:10026000A089B1898C91837080648C93938D848DE7
:10027000981306C00288F389E02D80818F7D8083EA
:1002800008950F931F93CF93DF93EC0181E0888F44
:100290009B8D8C8D981318C0E889F989808185FF22
:1002A00013C09FB7F894EE89FF896083E889F989C4
:1002B00080818370806480839FBF81E090E0DF91C4
:1002C000CF911F910F910895062F1B8D1F5F8C8D6D
:1002D00081130CC00FB607FCFACFE889F989808139
:1002E00085FFF5CFCE010E942201F1CFEB8DEC0FFF
:1002F000FD2FF11DE35EFE4F00839FB7F8941B8F27
:10030000EA89FB8980818062D6CFCF93DF93EC01AD
:10031000888D8823B9F0AA89BB89E889F9898C91ED
:1003200085FD03C0808186FD0DC00FB607FCF7CFA9
:100330008C9185FFF2CF808185FFEDCFCE010E94A9
:100340002201E9CFDF91CF91089580E090E0892BE1
:1003500029F00E94180181110E94000080E090E0C5
:10036000892B49F080E090E0892B29F00E94000061
:1003700081110C940000089581508A3080F5E82F97
:10038000F0E0EB53FE4F0C94BB08D901DD01CF0127
:10039000D501EF01EF01E001E601EA01F0018091F2
:1003A00080008F77809380000895809180008F7DFA
:1003B000F9CF84B58F7784BD089584B58F7DFBCF49
:1003C0008091B0008F778093B00008958091B00045
:1003D0008F7DF9CF809190008F7780939000089562
:1003E000809190008F7DF9CF1F93CF93DF93282FBB
:1003F00030E0F901E651FF4F8491F901E653FF4FD8
:10040000D491F901E655FF4FC491CC23A9F0162FE2
:1004100081110E94BC01EC2FF0E0EE0FFF1FE056AF
:10042000FF4FA591B4918FB7F894EC91111108C0CA
:10043000D095DE23DC938FBFDF91CF911F9108957C
:10044000DE2BF8CFCF93DF9390E0FC01E653FF4F14
:10045000249186559F4FFC0184918823D1F090E030
:10046000880F991FFC01EA56FF4FA591B491FC013A
:10047000E056FF4FC591D49161110EC09FB7F8941B
:100480008C91E22FE0958E238C932881E223E883E0
:100490009FBFDF91CF9108958FB7F894EC91E22B35
:1004A000EC938FBFF6CF3FB7F8948091E60190911F
:1004B000E701A091E801B091E90126B5A89B05C02C
:1004C0002F3F19F00196A11DB11D3FBFBA2FA92FD3
:1004D000982F8827BC01CD01620F711D811D911DD0
:1004E00043E0660F771F881F991F4A95D1F708953B
:1004F0008F929F92AF92BF92CF92DF92EF92FF9234
:100500004B015C010E9453026B017C010E9453026B
:100510006C197D098E099F09683E7340810591051C
:10052000A8F321E0821A9108A108B10888EEC80E4C
:1005300083E0D81EE11CF11C81149104A104B104D4
:1005400029F7FF90EF90DF90CF90BF90AF909F90F2
:100550008F900895EF92FF920F931F93CF93DF93A5
:100560008C01C62FF894F090B20061E0FC01848504
:100570000E94F4019C2F80E031E0992329F0832729
:100580002FEF290F9223F9CFF0E88F9FC00111249C
:10059000C82B80E8D9E0982F9C2319F0D15086957C
:1005A000FACF8091B2008F198A31D8F3F090B2005F
:1005B000EE24E394F8018485ED1678F460E0C0FF42
:1005C00061E00E94F4018091B2008F198A31D8F362
:1005D000F090B200C695E394EDCF60E00E94F40184
:1005E00078948AE090E08D1B91099AE1899F802D93
:1005F00011249091B2009F199817D8F3DF91CF91F1
:100600001F910F91FF90EF900895FC011586909136
:10061000F2018091F301981789F0E091F201F0E086
:10062000E056FE4F80812091F20130E02F5F3F4F76
:100630002F7333272093F20190E008958FEF9FEFFF
:1006400008959091F2018091F301981741F0E091A3
:10065000F201F0E0E056FE4F808190E008958FEFC8
:100660009FEF0895FC01858581110EC08091F301F3
:100670002091F20190E0805C9F4F821B910960E421
:1006800070E00E94850808958FEF9FEF0895089508
:1006900090E080E00895DC011C969C911C97ECE6AC
:1006A000F0E0983050F0E3E7F0E0903130F0EBE626
:1006B000F0E0983110F4EDE6F0E08081977021E0F1
:1006C00030E001C0220F9A95EAF720952823208375
:1006D0001C968C91ECE6F0E0883050F0E3E7F0E017
:1006E000803130F0EBE6F0E0883110F4EDE6F0E038
:1006F0009081911110C0F0E0E0E0803210F4E8E663
:10070000F0E09081883040F0803140F0883140F056
:100710008EEF8923808308958DEFFBCF87EFF9CF8C
:100720008BEFF7CFCF93DF93EC016330710521F1AD
:1007300064307105E1F16230710509F05FC060E07D
:1007400083E00E94220261E083E00E94220261E0D5
:1007500083E00E94F40160E08C850E94220261E047
:100760008C850E94220260E08C850E94F401CE01FB
:10077000DF91CF910C944B0360E083E00E94220252
:1007800061E083E00E94220261E083E00E94F401C4
:1007900062E070E080E090E00E94780260E08C858A
:1007A0000E94220261E08C850E942202E0CF61E07B
:1007B00083E00E94220260E083E00E94F40162E094
:1007C00070E080E090E00E94780260E08C850E94FA
:1007D000F40160E08C850E94220278948091680088
:1007E00088608093680080917300846080937300B8
:1007F0008FEF8093E401DF91CF91089561E083E072
:100800000E94220261E083E00E94F40160E08C8596
:100810000E94F40160E0C7CF1F93CF93DF93EC01F8
:10082000162F63E070E00E949203612FCE010E94B8
:10083000AA0264E070E0CE010E94920381E090E0A1
:10084000DF91CF911F910895FC0101900020E9F7FD
:100850003197AF01481B590BBC018CEB92E00C9413
:10086000B300CF93DF930E942404EC0184E391E072
:100870000E9424048C0F9D1FDF91CF9108951F9239
:100880000F920FB60F9211240BB60F922F933F9336
:100890004F935F936F937F938F939F93AF93BF9388
:1008A000EF93FF938CEB92E00E942201FF91EF9176
:1008B000BF91AF919F918F917F916F915F914F9178
:1008C0003F912F910F900BBE0F900FBE0F901F9076
:1008D00018951F920F920FB60F9211240BB60F921C
:1008E0002F938F939F93EF93FF93E091CC02F0911E
:1008F000CD028081E091D202F091D30282FD1CC032
:1009000090818091D5028F5F2091D602821741F0AD
:10091000E091D502F0E0E454FD4F958F8093D5022D
:10092000FF91EF919F918F912F910F900BBE0F90A0
:100930000FBE0F901F9018958081F2CF1F920F92DB
:100940000FB60F9211242F933F938F939F93AF93E2
:10095000BF938091EE019091EF01A091F001B091D1
:10096000F1013091E50126E0230F2D3758F502966D
:10097000A11DB11D2093E5018093EE019093EF013D
:10098000A093F001B093F1018091E6019091E7010D
:10099000A091E801B091E9010196A11DB11D8093DC
:1009A000E6019093E701A093E801B093E901BF91BC
:1009B000AF919F918F913F912F910F900FBE0F900C
:1009C0001F90189529E8230F0396A11DB11DD2CFC2
:1009D0001F920F920FB60F9211240BB60F92EF9247
:1009E000FF920F931F932F933F934F935F936F93B8
:1009F0007F938F939F93AF93BF93CF93DF93EF93A7
:100A0000FF93C091EC01D091ED01209709F434C01F
:100A10000091B2002C8530E0F901E651FF4F84913E
:100A2000F901E653FF4FF490F901E655FF4F149199
:100A3000112379F081110E94BC01E12FF0E0EE0F4B
:100A4000FF1FE457FF4FA591B491EC91FE2261E0A6
:100A500009F460E07091E4017F3F39F5662361F0AD
:100A60001092E40181E08093E0011092E10110E036
:100A70001093E3010093E201FF91EF91DF91CF9199
:100A8000BF91AF919F918F917F916F915F914F91A6
:100A90003F912F911F910F91FF90EF900F900BBE00
:100AA0000F900FBE0F901F9018959091E2018AE071
:100AB000800F891B27E2829FC0011124892F99276B
:100AC0008695869529E0271BE22FF0E0E817F907C5
:100AD00008F0282F720F7093E4014091E001A0917B
:100AE000E101613061F52150342F330F2F3F19F0B0
:100AF000A42B432FF8CFA093E1013093E00178308D
:100B000008F4B5CF4091E1014F774093E101209186
:100B1000F3015091F20130E02F5F3F4F2F733327E5
:100B200052171306E1F421E02D87662321F0E81720
:100B3000F90708F495CF8FEF8093E40198CF50E048
:100B40002150330B7A0102C0EE0CFF1C2A95E2F70C
:100B50009701E092E0012A2B2093E101D0CFA091F0
:100B6000F301B0E0A056BE4F4C932091F30130E06A
:100B70002F5F3F4F2F7333272093F301D6CFCF93AF
:100B8000DF931092BF021092BE0288EE93E0A0E0C5
:100B9000B0E08093C0029093C102A093C202B093D0
:100BA000C30284E191E09093BD028093BC0285EC86
:100BB00090E09093C9028093C80284EC90E09093F7
:100BC000CB028093CA0280EC90E09093CD02809398
:100BD000CC0281EC90E09093CF028093CE0282EC25
:100BE00090E09093D1028093D00286EC90E09093B5
:100BF000D3028093D2021092D5021092D6021092A4
:100C0000D7021092D802C1E0D5E085E0E0E0F1E043
:100C1000DE019F9601900D928A95E1F71CAAE59658
:100C200088E0C135D80789F785E0E6E0F1E0A9EE74
:100C3000B4E001900D928A95E1F7EEEEF4E085E0E4
:100C4000DF011D928A95E9F71092F50486E0809302
:100C5000F60485E690E09093F8048093F70485E528
:100C60008093F90480E38093FA041092DC041092DC
:100C7000DB0488EE93E0A0E0B0E08093DD04909385
:100C8000DE04A093DF04B093E00486E291E0909349
:100C9000DA048093D9041092E6048AE08093E50494
:100CA000DF91CF910895CF93DF93CDB7DEB7A197B2
:100CB0000FB6F894DEBF0FBECDBF789484B58260C6
:100CC00084BD84B5816084BD85B5826085BD85B5F0
:100CD000816085BD80916E00816080936E0010926E
:100CE00081008091810082608093810080918100E9
:100CF000816080938100809180008160809380007A
:100D00008091B10084608093B1008091B0008160D7
:100D10008093B000809191008260809391008091D7
:100D20009100816080939100809190008160809318
:100D3000900080917A00846080937A0080917A009C
:100D4000826080937A0080917A008E7F80937A000F
:100D500080917A00806880937A001092C100E091BF
:100D6000CC02F091CD0282E08083E091C802F09144
:100D7000C9021082E091CA02F091CB0280E1808327
:100D80001092D402E091D002F091D10286E08083EB
:100D9000E091CE02F091CF02808180618083E0916A
:100DA000CE02F091CF02808188608083E091CE02F4
:100DB000F091CF02808180688083E091CE02F09133
:100DC000CF0280818F7D808364E670E080E090E0D8
:100DD0000E94780261E080E00E94220261E080E0EF
:100DE0000E94F40161E081E00E94220261E081E062
:100DF0000E94F4018091EC019091ED01895D944095
:100E000061F062E070E089ED94E00E94920389ED68
:100E100094E09093ED018093EC0186E990E0A0E0EE
:100E2000B0E08093DD049093DE04A093DF04B093E0
:100E3000E00481EF98ED9093E8048093E7048091BB
:100E4000B0008093EB018091B1008093EA01109291
:100E5000B00086E08093B10064E670E080E090E04E
:100E60000E9478021092F3011092F2011092E604AF
:100E700087E391E00E9431048FE491E00E94310405
:100E80008CE8682E85E6782E9CE4C92E96E4D92E4F
:100E90002AE0822E912CA12CB12C8091F40188376C
:100EA00009F417C18DE691E00E9424048FB7F894ED
:100EB0002090EE013090EF014090F0015090F10150
:100EC0008FBF80E6280E8AEE381E411C511C2FB7BA
:100ED000F8948091EE019091EF01A091F001B09112
:100EE000F1012FBF82159305A405B50548F58CEBDC
:100EF00092E00E941101181619064CF764E670E0A2
:100F000080E090E00E9478028CEB92E00E94110158
:100F10008C01E82EF12C8CEB92E00E94F0008D30D9
:100F200039F08A3029F0EF2DF0E0EC50FE4F80834D
:100F3000F394EF1480F71127F801EC50FE4F108264
:100F400084EF91E00E94310464E170E080E090E081
:100F50000E94780263E070E089ED94E00E949203C1
:100F600061E08091E5040E94F401C3010197F1F76B
:100F700060E08091E5040E94F401C6010197F1F759
:100F800004EF11E07801F70101900020E9F7CF01AB
:100F9000855F91409801245F31402817390740F45C
:100FA000F80161918F0189ED94E00E94AA02EBCFD4
:100FB00064E070E089ED94E00E94920364EF71E0D8
:100FC00080E090E00E94780289ED94E00E94320374
:100FD000181619060CF071C089ED94E00E943203D6
:100FE0007C0187E791E00E94240417010F2C000C7C
:100FF0004408550857FE38C06DE28CEB92E00E9421
:10100000410122273327A90122193309440955092F
:1010100019A28E010F5D1F4FCA01B901A5019401EC
:101020000E949908605DF80162938F0121153105D6
:101030004105510589F70115110519F0C8010E94F4
:10104000240484E391E00E94240410E01E151F0490
:101050000CF589ED94E00E940503682F8CEB92E07B
:101060000E9441011F5FF2CFA201910119A28E01DE
:101070000F5D1F4FCA01B901A50194010E94990893
:10108000605DF80162938F0121153105410551051D
:1010900089F7D1CF62E370E080E090E00E947802AF
:1010A0001092F3011092F2011092E60460E570E0F4
:1010B00080E090E00E947802F0CE8091F4018837C1
:1010C00029F48AE891E00E943104EACF8AE991E0AC
:1010D000FACF0E94A501FDCF86E291E09093DA0459
:1010E0008093D90470E060E089ED94E00E9492035F
:1010F0001092ED011092EC018091EB018093B00011
:101100008091EA018093B100089597FB072E16F4B1
:10111000009407D077FD09D00E94C40807FC05D0D1
:101120003EF4909581959F4F0895709561957F4FFE
:101130000895A1E21A2EAA1BBB1BFD010DC0AA1F18
:10114000BB1FEE1FFF1FA217B307E407F50720F030
:10115000A21BB30BE40BF50B661F771F881F991FAB
:101160001A9469F760957095809590959B01AC01F4
:10117000BD01CF010895EE0FFF1F0024001C0BBE20
:101180000790F691E02D0994AA1BBB1B51E107C003
:10119000AA1FBB1FA617B70710F0A61BB70B881F07
:1011A000991F5A95A9F780959095BC01CD01089596
:1011B00010E0C6E8D0E004C0FE010E94BB08219602
:0A11C000C738D107C9F7F894FFCF34
:1011CA002D39393900004E6F6465000000000000B7
:1011DA00000000004101B300E00085011101F000A8
:1011EA000301000000000C04B30048034703320364
:1011FA00050321030D0A002D2D2D205344492D31BD
:10120A0032205465726D696E616C202D2D2D00455A
:10121A006E7465722027782720617420616E7920A8
:10122A0074696D6520746F20657869740053444948
:10123A003132203E3E20002320696E636F6D696E55
:10124A00672062797465733A20005465726D696E1D
:10125A00616C20636C6F736564004661696C0000A1
:00000001FF
