:020000040000FA
:100000000C94EB050C941A590C94EF580C94C458AA
:100010000C94995B0C9415060C9415060C9415061B
:100020000C9415060C9415060C9415060C941506E4
:100030000C9415060C9445590C9415060C94150651
:100040000C9415060C9415060C947A580C9415060D
:100050000C9445580C941B580C9415060C941506DA
:100060000C9415060C9415060C94755A0C941506F0
:100070000C94E6570C94BC570C9415060C9415067A
:100080000C9415060C9415060C94150600407A1075
:10009000F35A00A0724E18090010A5D4E80000E839
:1000A0007648170000E40B54020000CA9A3B000097
:1000B00000E1F505000080969800000040420F0026
:1000C0000000A08601000000102700000000E803E7
:1000D000000000006400000000000A0000000000B2
:1000E0000100000000002C76D888DC674F0823DF71
:1000F000C1DFAE59E1B1B796E5E3E453C63AE65144
:10010000997696E8E6C28426EB898C9B62ED407C6A
:100110006FFCEFBC9C9F40F2BAA56FA5F490055A06
:100120002AF75C936B6CF9676DC11BFCE0E40D472B
:10013000FEF520E6B500D0ED902E0300943577054E
:100140000080841E080000204E0A000000C80C3306
:100150003333330F986E12831141EF8D2114893B95
:10016000E65516CFFEE6DB18D1844B381BF77C1D15
:10017000901DA4BBE424203284725E228100C9F168
:1001800024ECA1E53D275475726E696E67206365A6
:100190006C6C206D6F64756C65206F66662E2E2EFC
:1001A0000052535349202864426D293A2000456E7D
:1001B0007465722027782720617420616E7920741D
:1001C000696D6520746F2073746F70005475726E62
:1001D000696E672063656C6C206D6F64756C65205B
:1001E0006F6E2E2E2E004552524F523A20496E7697
:1001F000616C696420696E74657276616C20286533
:10020000766572792031206F72203420686F7572A4
:100210007329004552524F523A20496E76616C69FB
:100220006420696E74657276616C202865766572EB
:10023000792031302C2031352C2032302C203330B5
:100240002C206F72203630206D696E732900507239
:100250006F6A6563742049443A20002020696E70FB
:100260007574206D696E7574653A20002020696E82
:1002700070757420686F75723A2020200020206904
:100280006E70757420796561723A202020002020FC
:10029000696E707574206461793A202020200020F6
:1002A00020696E707574206D6F6E74683A2020003E
:1002B00053796E6368726F6E697A6174696F6E20CC
:1002C0006661696C65642E20506C6561736520659C
:1002D0006E7465722074696D65206D616E75616CF8
:1002E0006C7920696E205554433A200053796E632F
:1002F00068726F6E697A696E6720636C6F636B20DA
:10030000746F204E49535420736572766572202EA7
:100310002E2E200044656661756C742072616469DC
:100320006F204944206163636570746564005261A5
:1003300064696F2049442075706461746564004588
:100340006E746572206E657720726164696F2049F2
:10035000443A2000576F756C6420796F75206C6982
:100360006B6520746F206368616E676520746865D3
:1003700020726164696F2049442066726F6D207439
:1003800068652064656661756C742076616C75655E
:100390003F20792F6E3A2000456E74657220746894
:1003A0006520486F6C6F6772616D20646576696364
:1003B00065206B657920666F7220746869732047C9
:1003C0006174657761793A2000456E7465722074B6
:1003D000686520726164696F20494420666F7220ED
:1003E0004E6F64652000293F00496E76616C696438
:1003F000206E756D626572206F66206E6F64657326
:100400002E2020486F77206D616E79206E6F6465B5
:100410007320617265206174207468697320736948
:10042000746520286D61782E00486F77206D616EAD
:1004300079206E6F64657320617265206174207429
:10044000686973207369746520286D61782E2000B7
:10045000496E76616C696420696E74657276616C50
:100460002E20456E746572206D6561737572656DC1
:10047000656E7420696E74657276616C2028313007
:100480002C2031352C2032302C2033302C206F7230
:10049000203630293A2000456E746572206D656102
:1004A000737572656D656E7420696E7465727661C0
:1004B0006C202831302C2031352C2032302C203348
:1004C000302C206F72203630206D696E73293A20EF
:1004D000004578697400202052656365697665720D
:1004E000204D6F646520646561637469766174652D
:1004F000640020205265636569766572204D6F64E3
:10050000652061637469766174656400576F756C0A
:100510006420796F75206C696B6520746F2075732A
:1005200065205265636569766572204D6F64653F2D
:1005300020792F6E3A20004E4F54453A2052656381
:100540006569766572206F6E6C79206D6F646520C9
:1005500077696C6C206E6F742075706C6F616420AD
:100560006461746120746F20486F6C6F6772616D95
:10057000002020456E74657220612050726F6A659C
:1005800063742049442028757020746F20352063DF
:100590006861726163746572732C2065783A2050CB
:1005A0005341293A200020204552524F523A2050C0
:1005B000726F6A6563742049442065786365656479
:1005C0007320352063686172616374657273210002
:1005D0002020456E74657220612050726F6A6563D9
:1005E000742049442028757020746F20352063687A
:1005F00061726163746572732C2065783A20505380
:1006000041293A20004578697400576F756C642061
:10061000796F75206C696B6520746F207475726ECC
:100620002064656275672073746174656D656E74AE
:1006300073206F6E3F20792F6E3A2000576F756CD4
:100640006420796F75206C696B6520746F207475F8
:10065000726E2064656275672073746174656D6580
:100660006E7473206F66663F20792F6E3A200045C6
:100670007261736520534420636172643A200050B4
:1006800072696E7420646174612066696C65733A86
:10069000200053617665642066696C65733A2000BA
:1006A000456E74657220636F6E66696775726174FA
:1006B000696F6E20737472696E673A2000456E74BC
:1006C00065722063686F6963653A20002020782096
:1006D000203C2D2D202045786974206D656E7500B5
:1006E00020203220203C2D2D202048696465206385
:1006F0006F6E66696775726174696F6E206F707472
:10070000696F6E730020206520203C2D2D20204530
:1007100072617365206D6963726F53442063617207
:10072000640020206320203C2D2D20205365742060
:10073000636C6F636B0020206D20203C2D2D2020EA
:10074000536574206D6561737572656D656E742097
:10075000696E74657276616C0020207520203C2DD6
:100760002D2020536574206761746577617920645A
:1007700061746120696E74657276616C0020207509
:1007800020203C2D2D20205365742064617461204D
:1007900075706C6F616420746F20636C6F7564207A
:1007A000696E74657276616C0020206E20203C2D8D
:1007B0002D2020456E746572204E6F646520726135
:1007C00064696F204944730020206420203C2D2D53
:1007D0002020456E74657220486F6C6F6772616D82
:1007E00020446576696365204B6579002020672089
:1007F000203C2D2D20204368616E67652047617481
:100800006577617920726164696F20494400202016
:100810006920203C2D2D2020456E74657220707259
:100820006F6A6563742049440020203020203C2DED
:100830002D2020456E74657220636F6E6669677542
:10084000726174696F6E20737472696E6700436FB2
:100850006E66696775726174696F6E204F70746936
:100860006F6E733A0020203220203C2D2D20205323
:10087000686F7720636F6E66696775726174696F00
:100880006E206F7074696F6E730020206F20203CA3
:100890002D2D202044656275672073746174656D29
:1008A000656E7473206F6E2F6F6666002020662061
:1008B000203C2D2D2020536565206C697374206FBA
:1008C000662073617665642066696C65730020201C
:1008D0007220203C2D2D202052656365697665725B
:1008E000204D6F6465206F6E2F6F6666002020704C
:1008F00020203C2D2D20205072696E74206E6F6474
:1009000065206461746120746F2073637265656E25
:100910000020203120203C2D2D202043656C6C755B
:100920006C6172205369676E616C2053636F7574DC
:10093000696E67204D6F64650055736572204F7056
:1009400074696F6E733A004465627567206F6666FE
:10095000004465627567206F6E0043757272656E44
:1009600074206261747465727920766F6C7461674B
:10097000653A20200030003A0030003A002D002D6A
:100980000043757272656E74206461746520262060
:1009900074696D653A2000476174657761792064F8
:1009A00061746120696E74657276616C202868726A
:1009B00073293A200055706C6F616420696E74650C
:1009C0007276616C2028687273293A20004D656147
:1009D000737572656D656E7420496E7465727661AB
:1009E0006C3A2000446174612066696C653A2000AD
:1009F0004E6574776F726B6564204E6F6465204935
:100A000044733A200023206F66206E6F6465733A4A
:100A10002000446576696365206B65793A2000475C
:100A200061746577617920526164696F2049443A45
:100A3000200050726F6A6563742049443A20004375
:100A4000656C6C756C6172204D6F64756C653A20D5
:100A5000004C6F526120526164696F20467265716B
:100A600020284D487A293A200053657269616C202C
:100A70004E756D6265723A200056657273696F6ECD
:100A800020002D2D2D205265636569766572204FFB
:100A90006E6C79204D6F6465202D2D2D00536F698C
:100AA0006C2057617465722044617461204E6574D6
:100AB000776F726B202D2043656C6C756C617220B2
:100AC0004761746577617900496E76616C6964206D
:100AD000696E74657276616C2E20506C6561736509
:100AE00020656E7465722031206F7220342E0045AF
:100AF0006E74657220223122206F72202234223AD5
:100B0000200020696E74657276616C20746F2031EC
:100B1000206F72203420686F7572732E0020676119
:100B200074657761792064617461002075706C6F01
:100B3000616400536574007C3C3E5E2B3D3F2F5B3F
:100B40005D3B2C2A225C0072740092740048940071
:100B500078C40000002100240027002A00000022A1
:100B600000250028002B000000200023002600297B
:100B70000002020202020202020404040404040449
:100B80000403030303030303030101010101010142
:100B900001010204081020408001020408102040D6
:100BA0008001020408102040800102040810204047
:100BB00080000000010200090A0000000004030890
:100BC000070000000000000000000000000000001E
:100BD0000000B55B3E6011241FBECFEFD0E4DEBF46
:100BE000CDBF1CE0A0E0B1E0EAE1F8ED00E00BBF12
:100BF00002C007900D92A63EB107D9F72DE1A6EEEF
:100C0000BCE001C01D92A339B207E1F715E0CAEEBE
:100C1000D5E004C02197FE010E94C466C93ED107F9
:100C2000C9F70E94845D0C94006C0C940000089538
:100C3000089590911214809111142FEF3FEF98179F
:100C400048F4E92FF0E0E356FC4E208130E09F5F4E
:100C500090931214C9010895909112148091111467
:100C60002FEF3FEF981748F4E92FF0E0E356FC4EE2
:100C7000208130E09F5F90931214C9010895CF92B4
:100C8000DF92EF92FF92CF93DF93EC016A017B0139
:100C900060E874E88EE190E0A70196010E94476544
:100CA00021503109410951095695479537952795A6
:100CB000E889F98982E08083211580E1380798F07E
:100CC000E889F989108260E472E48FE090E0A7017E
:100CD00096010E94476521503109410951095695F5
:100CE000479537952795EC85FD853083EE85FF8503
:100CF0002083188EEC89FD8986E08083EA89FB8950
:100D0000808180618083EA89FB898081886080831B
:100D1000EA89FB89808180688083EA89FB898081F8
:100D20008F7D8083DF91CF91FF90EF90DF90CF9008
:100D300008958091121A9091131ADC01ED91FC91A3
:100D40000484F585E02D0994FF920F931F93CF93B0
:100D5000DF938C01F62EC2E1DAE188819981DC0112
:100D6000ED91FC910488F589E02D642F0995888127
:100D70009981DC01ED91FC910680F781E02D4F2DEA
:100D8000B801DF91CF911F910F91FF90099480914D
:100D9000031A9091041A009799F04091051A509106
:100DA000061A6091071A7091081A411551056105DC
:100DB000710531F00E943F0681E08093091A089581
:100DC00080E00895E82FF0E0EE0FFF1FEE5BFE4F8E
:100DD00071836083813049F0823071F080916900C5
:100DE000836080936900E89A0895809169008C601F
:100DF00080936900E99A08958091690080638093E7
:100E00006900EA9A0895DC01ED91FC910190F0816E
:100E1000E02D0994AF92BF92CF92DF92EF92FF92B2
:100E20000F931F93CF93DF936C017B018B01040F12
:100E3000151FEB015E01AE18BF08C017D10759F0AE
:100E40006991D601ED91FC910190F081E02DC601F0
:100E50000995892B79F7C501DF91CF911F910F91EA
:100E6000FF90EF90DF90CF90BF90AF900895FC017E
:100E7000538D448D252F30E0842F90E0821B930BFF
:100E8000541718F081509F4F089501970895FC0161
:100E9000918D828D981759F0A28DAE0FBF2FB11D85
:100EA0005D968C91928D9F5F928F90E008958FEF69
:100EB0009FEF0895FC01918D828D981731F0828DFE
:100EC000E80FF11D858D90E008958FEF9FEF089555
:100ED000FC01918D828D981B892F90E0089583E10C
:100EE00094E10E94680721E0892B09F420E0822F19
:100EF000089580E396E10E94680721E0892B09F4B8
:100F000020E0822F0895FC01A48DA80FB92FB11DF8
:100F1000A35EBE4F9C91848D8F5F848FA689B78915
:100F20009C93A089B1898C91837080648C93938DFC
:100F3000848D981306C00288F389E02D80818F7D0F
:100F4000808308950F931F93CF93DF93EC0181E08B
:100F5000888F9B8D8C8D981318C0E889F9898081C2
:100F600085FF13C09FB7F894EE89FF896083E889F5
:100F7000F98980818370806480839FBF81E090E0E5
:100F8000DF91CF911F910F910895062F1B8D1F5F49
:100F90008C8D81130CC00FB607FCFACFE889F98954
:100FA000808185FFF5CFCE010E948307F1CFEB8DC5
:100FB000EC0FFD2FF11DE35EFE4F00839FB7F89409
:100FC0001B8FEA89FB8980818062D6CF0F931F93A4
:100FD000CF93DF938C01D0E0C0E0F801EC0FFD1F50
:100FE0006491662341F080E396E10E94A207892B79
:100FF00011F02196F2CFCE01DF91CF911F910F9189
:101000000895CF93DF93EC01888D8823B9F0AA89E6
:10101000BB89E889F9898C9185FD03C0808186FDB3
:101020000DC00FB607FCF7CF8C9185FFF2CF808102
:1010300085FFEDCFCE010E948307E9CFDF91CF91ED
:10104000089580E090E0892B29F00E9479078111B2
:101050000E94000080E090E0892B29F00E946F0739
:1010600081110C940000089581508A3080F5E82F9A
:10107000F0E0E35CF74F0C94C4665108550847084C
:101080004D086708670858085E086208680880917C
:1010900080008F77809380000895809180008F7DFD
:1010A000F9CF84B58F7784BD089584B58F7DFBCF4C
:1010B0008091B0008F778093B00008958091B00048
:1010C0008F7DF9CF809190008F7780939000089565
:1010D000809190008F7DF9CFCF93DF93282F30E060
:1010E000F901EF54F44F8491F901EF56F44FD49184
:1010F000F901EF58F44FC491CC23A1F081110E9463
:101100003408EC2FF0E0EE0FFF1FE959F44FA591E2
:10111000B491EC91ED2381E090E009F480E0DF915F
:10112000CF91089580E090E0FACF1F93CF93DF93A3
:10113000282F30E0F901EF54F44F8491F901EF5674
:10114000F44FD491F901EF58F44FC491CC23A9F096
:10115000162F81110E943408EC2FF0E0EE0FFF1FD4
:10116000E35AF44FA591B4918FB7F894EC91111113
:1011700008C0D095DE23DC938FBFDF91CF911F9104
:101180000895DE2BF8CFCF93DF9390E0FC01EF566C
:10119000F44F24918F58944FFC0184918823D1F00F
:1011A00090E0880F991FFC01ED5AF44FA591B4917E
:1011B000FC01E35AF44FC591D49161110EC09FB761
:1011C000F8948C91E22FE0958E238C932881E22372
:1011D000E8839FBFDF91CF9108958FB7F894EC918A
:1011E000E22BEC938FBFF6CF883108F088518770DF
:1011F000806480937C0080917A00806480937A0080
:1012000080917A0086FDFCCF8091780090917900E2
:1012100008953FB7F8948091661190916711A0915D
:101220006811B091691126B5A89B05C02F3F19F030
:101230000196A11DB11D3FBFBA2FA92F982F882756
:10124000BC01CD01620F711D811D911D43E0660F30
:10125000771F881F991F4A95D1F708958F929F9203
:10126000AF92BF92CF92DF92EF92FF926B017C011F
:101270000E9409094B015C01C114D104E104F1048D
:10128000B9F00E940909681979098A099B09683E21
:1012900073408105910580F321E0C21AD108E1086D
:1012A000F10888EE880E83E0981EA11CB11CE4CFE3
:1012B000FF90EF90DF90CF90BF90AF909F908F9076
:1012C00008952FB7F8946091621170916311809125
:1012D0006411909165112FBF089508958BEF0895C3
:1012E000CF93DF93FC01228133812230310569F0F5
:1012F000EC01638D818D0E94950860E0888D0E94CD
:10130000950882E090E09B838A83DF91CF910895D6
:10131000FF920F931F93CF93DF93EC01162FF42EC0
:101320000FB7F89460E08F890E9495088D899E8997
:10133000612F6068DC01ED91FC910190F081E02D5E
:101340000995182F8D899E89DC01ED91FC91019002
:10135000F081E02D6F2D099561E08F890E9495083D
:101360000FBF812FDF91CF911F910F91FF900895B3
:101370000F931F93CF938C01C62F44E06DE40E941E
:1013800088094BEF4C0F406869E0C801CF911F916D
:101390000F910C948809CF93DF93FC012281338154
:1013A0002130310549F0EC0140E061E00E948809FC
:1013B00081E090E09B838A8381E0DF91CF91089563
:1013C000CF93DF93FC01228133812230310549F034
:1013D000EC0141E061E00E94880982E090E09B839B
:1013E0008A83DF91CF910895CF92DF92EF92FF929F
:1013F000CF93DF93EC01CB01BA0120E034E244E764
:1014000059E40E94416420E034E244E752E40E943F
:10141000E5650E9457666B017C01A7016627772767
:1014200066E0CE010E94880977276F2D5E2D4D2D35
:1014300067E0CE010E9488094C2D68E0CE010E9431
:10144000880981E0DF91CF91FF90EF90DF90CF90FE
:101450000895CF92DF92EF92FF920F931F93CF9355
:10146000DF934C3F08F067C0142F072FF62EEC01D6
:10147000E881F9810484F585E02D0995CE010E946B
:10148000E00940E06DE0CE010E9488094A8560E0F5
:10149000CE010E9488094B8560E0CE010E94880938
:1014A0004C8560E0CE010E9488094D8560E0CE0148
:1014B0000E948809EFB6F89460E08F890E94950831
:1014C0008D899E89DC01ED91FC910190F081E02DE8
:1014D00060E80995CF2CD02E012F015068F08D893E
:1014E0009E89F60161916F01DC01ED91FC91019003
:1014F000F081E02D0995F1CF61E08F890E94950878
:10150000EFBE44E0410F62E2CE010E9488098A8169
:101510009B81039771F043E061E0CE010E9488094E
:1015200040E460E4CE010E94880983E090E09B8360
:101530008A8381E001C080E0DF91CF911F910F91FC
:10154000FF90EF90DF90CF900895CF93DF93FC0151
:101550002281338123303105C9F0EC0182819381EE
:10156000049771F045E061E0CF010E94880940E0F6
:1015700060E4CE010E94880984E090E09B838A8326
:10158000C65EDE4F8881DF91CF91089580E0FBCF6A
:101590000F931F93CF93DF93EC01162F0FB7F8949F
:1015A00060E08F890E9495088D899E89DC01ED910C
:1015B000FC910190F081E02D612F09958D899E8924
:1015C000DC01ED91FC910190F081E02D60E0099546
:1015D000182F61E08F890E9495080FBF812FDF913E
:1015E000CF911F910F910895DF92EF92FF920F9389
:1015F0001F93CF93DF93EC0162E10E94C80A2A8116
:101600003B8124303105A1F4982F907A89F08F85A1
:1016100098890196988B8F874FEF62E1CE01DF9119
:10162000CF911F910F91FF90EF90DF900C9488095C
:101630002A813B812430310511F486FD0DC02A81B9
:101640003B812330310541F783FFE6CF8B899C89AD
:1016500001969C8B8B8B67C063E1CE010E94C80A08
:10166000082F60E1CE010E94C80A482F6DE0CE012C
:101670000E948809DFB6F89460E08F890E9495087F
:101680008D899E89DC01ED91FC910190F081E02D26
:1016900060E009957E01BBE1EB0EF11C102F1150AB
:1016A00070F08D899E89DC01ED91FC910190F081B3
:1016B000E02D60E00995F70181937F01F0CF61E0B3
:1016C0008F890E949508DFBE0A8F4FEF62E1CE013D
:1016D0000E9488096AE1CE010E94C80A89588E8753
:1016E0008A8DFE01E65EFE4F8430C8F08B8D8E83BE
:1016F0008C8D8F838D8D88878E8D89878D818111CB
:1017000007C09E818C81981719F08E818F3F39F424
:1017100089899A8901969A8B898B81E0808380815F
:10172000882309F479CFCE010E94E00975CF80911A
:101730005F1190916011009711F00C94F40A0895D4
:1017400080915D1190915E11009711F00C94F40A54
:10175000089580915B1190915C11009711F00C94A9
:10176000F40A0895CF93DF93EC018D899E89DC0103
:10177000ED91FC910680F781E02D099561E08F895C
:101780000E94C30861E08F890E94950864E670E0BA
:1017900080E090E00E942E0981E0DF91CF910895D2
:1017A000FF920F931F93CF93DF931F92CDB7DEB7B6
:1017B000F42E02E11AE1D8018D919C91DC01ED91AA
:1017C000FC91008CF18DE02D0995F80180819181CB
:1017D000DC01ED91FC91028CF38DE02D40E060E89E
:1017E000099581E289834F2D61E0CE0101960E9427
:1017F000A4060E9499060F90DF91CF911F910F913F
:10180000FF900895CF92DF92EF92FF920F931F9374
:10181000CF93DF93EC018B017A0169018091121A59
:101820009091131ADC01ED91FC910280F381E02D7F
:10183000099581110BC010E0812FDF91CF911F918D
:101840000F91FF90EF90DF90CF9008958091121A42
:101850009091131ADC01ED91FC910480F581E02D4B
:10186000A701B8010995182F882329F38091121A2E
:101870009091131ADC01ED91FC9100A0F1A1E02DF3
:101880000995F82E8091121A9091131ADC01ED91AE
:10189000FC91068CF78DE02D0995E82E8091121AA7
:1018A0009091131ADC01ED91FC9102A0F3A1E02DBF
:1018B0000995082F8091121A9091131ADC01ED916D
:1018C000FC9104A0F5A1E02D099587FDB4CFBFEFF1
:1018D000EB1629F04F2D602FCE010E94D00BCF0DBB
:1018E000D11D8B85801709F4A6CFF601F0820B87F6
:1018F000A3CF9FB7F89480915911882319F0815094
:101900008093591180915911811105C08CB58F7B3D
:101910008CBD10927C119FBF08958CB58F778CBDC4
:1019200008958CB580688CBD0895FC017383628333
:101930000895FC01778366830895FC0175836483B1
:101940000895089580E00895FC0181850895FC01C3
:1019500080850895FC0187810895FC0186810895A2
:101960004095FC0125854223642B65870895FC0181
:1019700064870895FC0163870895FC0162870895D8
:10198000FC0164830895FC01658308958F929F9202
:10199000AF92BF92CF92DF92EF92FF92CF93DF93FD
:1019A000EC016B010E9461094B015C01F12CE12CFF
:1019B0000E946109681979098A099B096C157D05DE
:1019C0008E059F0580F48A819B81039789F381E0CE
:1019D000DF91CF91FF90EF90DF90CF90BF90AF90CD
:1019E0009F908F90089580E0F3CFFC012281338196
:1019F00023303105D1F381E008958F929F92AF9209
:101A0000BF92CF92DF92EF92FF92CF93DF93EC01E0
:101A10006B010E9461094B015C01F12CE12C0E94D9
:101A20006109681979098A099B096C157D058E057C
:101A30009F05A0F4E881F9810280F381E02DCE01B9
:101A40000995882361F3DF91CF91FF90EF90DF90AC
:101A5000CF90BF90AF909F908F90089580E0F3CF8C
:101A6000CF93DF93EC01E881F9810280F381E02DCF
:101A7000CE0109958823B9F3DF91CF91089581E0D4
:101A800008951F93CF93DF93EC01162F88819981DE
:101A9000DC01ED91FC910288F389E02D09958881A4
:101AA0009981DC01ED91FC910688F789E02D612F89
:101AB00009951A83DF91CF911F910895CF92DF92FC
:101AC000EF92FF920F931F93CF936B017C01142F22
:101AD0008091121A9091131ADC01ED91FC91019002
:101AE000F081E02D0995C82F882309F16091141A1F
:101AF00082E19AE10E94410D8CE291E090931B1AE1
:101B000080931A1A83E080931C1A612F82E19AE174
:101B10000E94410D0091121A1091131AB701A601EB
:101B2000C8010E94F40961E1C8010E94B8098C2F24
:101B3000CF911F910F91FF90EF90DF90CF9008957C
:101B400020913611260F3327331F21323105ECF453
:101B50002091E313FC0190E080E0243069F082E002
:101B60000895A09136112191AC014A5E5E4EA40FFA
:101B7000B52FB11D2C930196861798F380913611DD
:101B8000680F6093361180E0089581E00895109207
:101B9000E31381E08093E2131092BD1361E081E1D1
:101BA0000E94950861E080E10E949508E9EBF0E071
:101BB00080818E7F808380818D7F808380E280938F
:101BC000B80085E48093BC0008951092121410921E
:101BD00011141092101410920F140E94C70D87E177
:101BE00096E090930E1480930D1488E196E0909304
:101BF0000C1480930B140895CF93DF9391E090938E
:101C000015118823B9F0C091B800D091BA00809125
:101C1000BC008A7B8093BC0060E081E10E94950853
:101C200060E080E10E9495080E94C70DD093BA0041
:101C3000C093B800DF91CF9108958F929F92AF9299
:101C4000BF92CF92DF92EF92FF920F931F93CF93A9
:101C5000DF93D0910F14D13208F0D7C0182FC09164
:101C60000A140E9409096B017C018091E313811120
:101C70006BC082E08093E3131093E2138FEF8093A5
:101C8000E1131092E013D093DF13AAEEB3E1EFEB70
:101C9000F3E180E0D81391C01092BE138091BE137F
:101CA000CC0FC82BC093BE138091BD13813009F0B7
:101CB00088C01092BD130E9409096B017C018091BC
:101CC000BE138093BB008091E5139091E613A09121
:101CD000E713B091E813892B8A2B8B2BA1F00E947C
:101CE00009090091E5131091E6132091E713309153
:101CF000E8136C197D098E099F0906171707280735
:101D0000390708F442C08091BC0083FDD8CF85EC30
:101D10008093BC000E9409096B017C018091E31350
:101D2000823009F450C08091E1138F3F09F46FC0F5
:101D30008091E113803209F46CC08091E11380330B
:101D400009F469C084E026C08091E5139091E61300
:101D5000A091E713B091E813892B8A2B8B2B09F400
:101D600084CF0E9409098090E5139090E613A0901B
:101D7000E713B090E8136C197D098E099F09861648
:101D80009706A806B90608F070CF8091E4130E9468
:101D9000FC0D85E01092101410920F141092E913AC
:101DA000DF91CF911F910F91FF90EF90DF90CF9037
:101DB000BF90AF909F908F9008959D9191938F5F6A
:101DC00069CF85EEA5CF8091E5139091E613A091A0
:101DD000E713B091E813892B8A2B8B2B09F49ECF44
:101DE0000E9409090091E5131091E6132091E71371
:101DF0003091E8136C197D098E099F0906171707A2
:101E00002807390708F08ACFC0CF81E0C3CF80E030
:101E1000C1CF82E0BFCF83E0BDCFCF92DF92EF9200
:101E2000FF920F931F93CF93DF93D82FC62F61326A
:101E300008F098C00E9409096B017C018091E313AE
:101E400081116BC081E08093E3138093E2139FEFD5
:101E50009093E1131092E0139C0F9093DF13809303
:101E6000BE138091BE13DD0FD82BD093BE1380918B
:101E7000BD13813009F078C01092BD130E9409098A
:101E80006B017C018091BE138093BB008091E513B0
:101E90009091E613A091E713B091E813892B8A2B58
:101EA0008B2BA1F00E9409090091E5131091E61314
:101EB0002091E7133091E8136C197D098E099F0971
:101EC000061717072807390708F448C08091BC0097
:101ED00083FDD8CF85EC8093BC000E9409096B017B
:101EE0007C018091E313813009F440C08091E013BC
:101EF0008C1710F4C091E013EFEBF3E1ADE9B3E11F
:101F000080E08C1355C08C2FDF91CF911F910F91E2
:101F1000FF90EF90DF90CF9008958091E51390911E
:101F2000E613A091E713B091E813892B8A2B8B2B32
:101F300009F484CF0E9409090091E5131091E6137A
:101F40002091E7133091E8136C197D098E099F09E0
:101F5000061717072807390708F070CF8091E41398
:101F60000E94FC0DC0E0CFCF85EEB5CF8091E51388
:101F70009091E613A091E713B091E813892B8A2B77
:101F80008B2B09F4AECF0E9409090091E513109143
:101F9000E6132091E7133091E8136C197D098E093F
:101FA0009F09061717072807390708F09ACFD6CFD9
:101FB00091919D938F5FA5CF0895E0911214809128
:101FC0001114E81730F4F0E0E356FC4E808190E005
:101FD00008958FEF9FEF089580911114909112143E
:101FE000891B990B0895CF92DF92EF92FF920F9386
:101FF0001F93CF93DF937C01CB018A012091E913DA
:10200000222389F0EB016B01C40ED51ECC15DD0532
:1020100069F06991D701ED91FC910190F081E02D7B
:10202000C7010995F3CF642F0E94A00DC801DF916D
:10203000CF911F910F91FF90EF90DF90CF90089577
:10204000CF93DF931F92CDB7DEB769832091E91359
:102050002223F9F020910F14203258F021E030E0D3
:10206000FC013383228390E080E00F90DF91CF91D9
:10207000089580911014E82FF0E0E651FC4E99810C
:1020800090838F5F8093101480930F1481E090E011
:10209000ECCF61E0CE0101960E94A00DF7CFCF9367
:1020A000C62F91E09093E91398E690930A1410924A
:1020B000101410920F14682F83E89DE10E942010E5
:1020C0006C2F83E89DE10E94201081E0CF910C9459
:1020D0001D0E1F93CF93DF93EC01142F8B8191E0A2
:1020E0009093E91380930A141092101410920F1415
:1020F00083E89DE10E942010612F83E89DE10E940A
:10210000201081E00E941D0E8883DF91CF911F91E6
:102110000895CF93CFB7F89480915911811127C0BA
:10212000E5E7FBE08491E5E9FBE09491E82FF0E03E
:10213000EE0FFF1FED5AF44FA591B491EC91E923F6
:1021400021F461E084E00E94950861E084E00E944F
:10215000C3088CB580618CBD8CB580648CBD61E09A
:1021600087E00E94C30861E085E00E94C308809177
:1021700059118F5F80935911CFBFCF910895FC0102
:10218000268137812115310591F12130310559F131
:102190002230310551F12330310549F52CE09CB551
:1021A000937F922B9CBD84819581019711F58CB50D
:1021B00080628CBD82819381019784309105E0F427
:1021C0008C5D9D4FFC0190818CB58C7F292F2370F5
:1021D000822B8CBD8DB592FB992790F98E7F892B30
:1021E0008DBD0C94891024E0DACF28E0D8CF20E010
:1021F000D6CF8CB58F7DDDCF95E0E6CF9FB7F89435
:1022000020917C1180910F11213019F48DBB9FBF5B
:1022100008958FBF089561E0FC0184810E949508B4
:1022200080910E11882339F010920E1180917C114B
:1022300081110C94FE1008958EBD00000DB407FEB0
:10224000FDCF8EB50895862F0C941C118FEF0C9442
:102250001C110F931F93CF93DF93EC010E94610930
:102260008B010E9426118F3F69F00E946109601B5B
:10227000710B6C177D07A8F380E0DF91CF911F9160
:102280000F91089581E0F9CF20917C11222361F014
:102290002FB7F89430917C11313049F43DB330932D
:1022A0000F113DB33DBB2FBF8CBD9DBD0895209345
:1022B0000F11FACFCF93DF93EC0180910E118111B2
:1022C00009C081E080930E1180914D1890914E18B5
:1022D0000E94441160E08C81DF91CF910C949508AD
:1022E0008F929F92AF92BF92FF920F931F93CF93C3
:1022F000DF93EC01F62E49015A018E81882389F083
:102300008F8198859C012F5F3F4F38872F838230C4
:10231000924018F40E942611F3CFCE010E940B11B7
:102320001E82CE010E945A118CE291E00E94291176
:102330008F2D80640E941C1108E110E0D501C401BA
:10234000002E04C0B695A795979587950A94D2F765
:102350000E941C1108501109083F8FEF180771F7F0
:1023600085E9FF2021F028E087E8F2128FEF0E9434
:102370001C1110E00E9426118A8787FF04C01F3FAE
:1023800011F01F5FF7CFDF91CF911F910F91FF9059
:10239000BF90AF909F908F900895AF92BF92CF92D1
:1023A000DF92EF92FF920F931F93CF93DF93EC0195
:1023B0006901C801820F931F8130924050F58E81D0
:1023C000882379F088819981AA81BB818417950738
:1023D000A607B70731F48F819885C816D90608F08B
:1023E00042C0488359836A837B838B85833039F06D
:1023F00089E0440F551F661F771F8A95D1F79A0110
:10240000AB0161E1CE010E947011882389F083E065
:102410008D83CE010E940B1180E0DF91CF911F913F
:102420000F91FF90EF90DF90CF90BF90AF90089505
:102430000E9461095B010E9426118A878F3F69F41F
:102440000E9461096A197B096D327140A0F38FE027
:102450008D83CE010E940B11DCCF8E3F89F418864C
:102460001F8281E08E838F8198858C159D0550F4A5
:102470000E9426118F819885019698878F83F3CFCC
:102480008DE0E6CF6701E00EF11E0E942611F601F5
:1024900081936F01EE15FF05C1F78F819885080FB5
:1024A000191F18870F838985882319F00115124099
:1024B000A0F08E81882389F08F8198859C012F5F01
:1024C0003F4F38872F838230924018F40E942611A4
:1024D000F3CFCE010E940B111E8281E09ECFCF92DE
:1024E000DF92EF92FF920F93CF93DF93EC0169019C
:1024F00082E1411551056105710599F08B858330A5
:1025000039F089E0440F551F661F771F8A95D1F770
:102510009A01AB0168E1CE010E947011882319F085
:1025200084E08D832DC08EEF0E941C1176018EEF0A
:10253000D81AF70181917F010E941C11EC14FD044F
:10254000C1F78FEF0E941C118FEF0E941C110E9497
:1025500026118A878F71853071F4011116C0CE0162
:102560000E940B1181E0DF91CF910F91FF90EF90CE
:10257000DF90CF90089581E18D83CE010E940B11F1
:10258000CE010E940B1180E0EECF88E592E00E9420
:102590002911811102C085E1C4CF20E030E0A901FA
:1025A0006DE0CE010E947011882311F084E1B9CF53
:1025B0000E9426118111FACFD2CF0F9340911111B1
:1025C0005091121160911311709114114115510520
:1025D0006105710599F0082F2FE731E180917D1198
:1025E00090917E110E946F12882349F01092111170
:1025F00010921211109213111092141181E00F9188
:1026000008950F93CF93C82F80911011811105C0A9
:10261000C1E08C2FCF910F91089540913A015091D4
:102620003B0160913C0170913D010C2F2FE731E19E
:1026300080917D1190917E110E946F12811102C0D4
:10264000C0E0E7CFCC2321F381E00E94DD12882394
:10265000B9F310921011DDCF8F929F92AF92BF927B
:10266000EF92FF920F931F93CF934B015C01C42F06
:1026700080913A0190913B01A0913C01B0913D01C4
:1026800088159905AA05BB0551F181E00E94011347
:1026900081110BC080E0CF911F910F91FF90EF90BF
:1026A000BF90AF909F908F9008958FE7E82E81E1C3
:1026B000F82E00E012E030E020E0B501A4018091A6
:1026C0007D1190917E110E94CD11882319F3809283
:1026D0003A0190923B01A0923C01B0923D014091A1
:1026E00010114C2B4093101181E0D5CFCF93DF9385
:1026F000EC016E857F858889998941E00E942C13C1
:10270000882351F08A8920E2829FC00111248158D8
:102710009E4EDF91CF91089590E080E0FACF8F92A6
:102720009F92AF92BF92CF92DF92EF92FF92CF93A0
:102730002FE438E130937E1120937D11882309F432
:102740006DC040E060E070E0CB010E942C1381116D
:102750000BC080E0CF91FF90EF90DF90CF90BF90C3
:10276000AF909F908F90089580913D138F7789F758
:102770008091491390914A13A0914B13B0914C133F
:1027800084369105A105B10520F3C0904513D09082
:102790004613E0904713F0904813C114D104E104AC
:1027A000F104B9F240E0C701B6010E942C1388235E
:1027B00081F280918A1190918B118115924049F696
:1027C000A0918F11AA2329F260918D1170918E1121
:1027D0006115710509F4BDCF20918C11222309F4F4
:1027E000B8CFA0936D1820935F1890E080E030E0A0
:1027F000E1E0F0E0C82FAF01082E02C0440F551FE2
:102800000A94E2F72417350769F041E0480F019672
:102810008930910579F7409368189BCFC12CD12C52
:102820007601C0CF80936818209195113091961150
:1028300050E040E02115310541F42091A311309181
:10284000A4114091A5115091A611209360183093C6
:102850006118409362185093631846015701860E21
:10286000971EA11CB11C80926E1890926F18A092B6
:102870007018B0927118E0919011F0919111F0934D
:102880007418E0937318B0E00E943465DC01CB014A
:10289000880D991DAA1DBB1D8093751890937618FD
:1028A000A0937718B093781825E0EE0FFF1F2A95B4
:1028B000E1F7E150FE4FEF2FFF27E6958E0F9F1FA8
:1028C000A11DB11D8093691890936A18A0936B188D
:1028D000B0936C188090921190909311B12CA12C10
:1028E0008114910441F480909F119090A011A090C8
:1028F000A111B090A211C81AD90AEA0AFB0AC80CA1
:10290000D91CEA1CFB1C04C0F694E794D794C79426
:10291000CA95D2F7C0926418D0926518E0926618F2
:10292000F092671885EFC8168FE0D806E104F1042D
:1029300028F48CE08093721881E00CCF80E125EFC1
:10294000C2162FEFD206E104F104A0F38091AB117F
:102950009091AC11A091AD11B091AE11809375180A
:1029600090937618A0937718B093781880E2E2CF0E
:102970004F925F926F927F928F929F92AF92BF928F
:10298000CF92DF92EF92FF920F931F93CF93DF933B
:10299000EC01423051056105710590F480E0DF9152
:1029A000CF911F910F91FF90EF90DF90CF90BF904C
:1029B000AF909F908F907F906F905F904F90089511
:1029C00089859A85AB85BC850196A11DB11D8417AB
:1029D0009507A607B70710F3CB88DC88ED88FE883B
:1029E0008F89803109F042C0BB27A72F962F852FF2
:1029F000480159012A013B01C80ED91EEA1EFB1EDF
:102A000080913A0190913B01A0913C01B0913D0130
:102A1000C816D906EA06FB0699F58F898031C1F5FB
:102A2000B301A201552766277727440F551F415848
:102A30005E4EFA01918280828091101181608093B4
:102A400010118A89823080F08D819E81AF81B88596
:102A50008C0D9D1DAE1DBF1D809311119093121101
:102A6000A0931311B093141181E099CFDB01CA0137
:102A7000E7E0B695A79597958795EA95D1F7B8CFF2
:102A800040E0C701B6010E942C138111C6CF86CF4A
:102A9000B301A2014F77552766277727440F551FAB
:102AA000440F551F41585E4EFA0180829182A282E6
:102AB000B382C2CF8F929F92AF92BF92CF92DF929A
:102AC000EF92FF920F931F93CF93DF93FC018185C9
:102AD0009285A385B4850196A11DB11D8417950724
:102AE000A607B70770F480E0DF91CF911F910F9197
:102AF000FF90EF90DF90CF90BF90AF909F908F901E
:102B0000089583889488A588B6888789803189F557
:102B1000BB27A72F962F852FE9016A017B018F0123
:102B2000BC01CD01680D791D8A1D9B1D80903A0165
:102B300090903B01A0903C01B0903D018616970615
:102B4000A806B90601F5F8018789803111F5DD2461
:102B5000EE24FF24F601EE0FFF1FE158FE4E8081A8
:102B60009181B0E0A0E088839983AA83BB8381E050
:102B7000BBCFDB01CA01C7E0B695A79597958795AE
:102B8000CA95D1F7C9CF40E00E942C138111DBCF49
:102B9000AACFE894C7F8DD24EE24FF24F601EE0F57
:102BA000FF1FEE0FFF1FE158FE4E80819181A28131
:102BB000B381BF70D8CF4F925F926F927F92AF92E6
:102BC000BF92CF92DF92EF92FF920F931F93CF931A
:102BD000DF9300D000D0CDB7DEB78C0149835A8394
:102BE0006B837C835901C12CD12C7601412C82E06E
:102BF000582E612C712C49815A816B817C819E01F8
:102C00002F5F3F4FC8010E945A15882339F1F80100
:102C10008585A301920104C0220F331F441F551F55
:102C20008A95D2F7DA01C901C80ED91EEA1EFB1E29
:102C300049815A816B817C818789803111F188EFCC
:102C40009FEFAFEFBFE0481759076A077B0798F27D
:102C5000F501C082D182E282F38281E00F900F9071
:102C60000F900F90DF91CF911F910F91FF90EF90F8
:102C7000DF90CF90BF90AF907F906F905F904F901C
:102C8000089588EF9FEFA0E0B0E0DDCFCF93DF9312
:102C9000FC012581222321F080E0DF91CF9108956E
:102CA000EC0180917218803159F582E08583178A92
:102CB000108E118E128E8091731890917418B0E05E
:102CC000A0E025E0880F991FAA1FBB1F2A95D1F706
:102CD000838B948BA58BB68B8BE598E19C8F8B8F28
:102CE00081E08C831E821F82188619861A861B86B5
:102CF0001C861D861E861F86188A198A1A8ACDCFC1
:102D0000803251F683E08583409175185091761892
:102D10006091771870917818478B508F618F728F00
:102D20009F012D5E3F4F8BE598E10E94DB158111DD
:102D3000D3CFB2CF8F929F92AF92BF92CF92DF92BA
:102D4000EF92FF920F931F93CF93DF93EC018D814E
:102D500081110EC080E0DF91CF911F910F91FF9004
:102D6000EF90DF90CF90BF90AF909F908F9008959D
:102D70000B891C892D893E890417150726073707FB
:102D800048F34A015B01823031F48A869B86AC8627
:102D9000BD8681E0E0CF81149104A104B10449F41F
:102DA0001E821F82188619861A861B861C861D861F
:102DB000F0CF0A851B852C853D85EB8DFC8D8585A7
:102DC00090E00996B901A8014150510961097109C2
:102DD000082E04C076956795579547950A94D2F7C3
:102DE00075016401E1E0CE1AD108E108F10804C0E0
:102DF000F694E794D794C7948A95D2F7C416D5066B
:102E0000E606F70620F0012B022B032B11F58F8924
:102E1000988DA98DBA8D8E839F83A887B9878E01DF
:102E20000A5F1F4FC114D104E104F10409F4ADCFCE
:102E30004E815F816885798598018B8D9C8D0E947C
:102E40005A1591E0C91AD108E108F1088111EACFB9
:102E500081CFC41AD50AE60AF70AE1CF3F924F9212
:102E60005F926F927F928F929F92AF92BF92CF921A
:102E7000DF92EF92FF920F931F93CF93DF93CDB723
:102E8000DEB72C970FB6F894DEBF0FBECDBF5C0146
:102E9000DC015B968D909C905C9716964D905D90B2
:102EA0006D907C901997411451046104710409F4E8
:102EB00068C0BFEF4B1A5B0A6B0A7B0A312CF40126
:102EC00081859285A385B4859C01AD012F5F3F4F1D
:102ED0004F4F5F4F29873A874B875C8773016201A9
:102EE0001D821E821F821886F40181859285A3852A
:102EF000B4852D813E814F815885281739074A07AF
:102F00005B0708F056C089859A85AB85BC858C1512
:102F10009D05AE05BF0550F482E0C82ED12CE12CF2
:102F2000F12C92E0492E512C612C712C9E012F5FC7
:102F30003F4FB701A601C4010E945A158823C9F169
:102F400089819A81AB81BC81892B8A2B8B2B09F1DA
:102F5000260137019FEF491A590A690A790A2D811A
:102F60003E814F8158852F5F3F4F4F4F5F4F2D83DD
:102F70003E834F8358873FEFC31AD30AE30AF30A0D
:102F8000B3CFF40140805180628073803324339446
:102F900096CFC414D504E604F70409F70FEF1FEF2A
:102FA0002FEF3FE0B701A601C4010E94B8148111C0
:102FB00019C080E02C960FB6F894DEBF0FBECDBFCF
:102FC000DF91CF911F910F91FF90EF90DF90CF9005
:102FD000BF90AF909F908F907F906F905F904F9039
:102FE0003F900895D50116964D915D916D917C911C
:102FF0001997411551056105710539F09701860151
:10300000C4010E94B8148823A1F2D5011696CD926E
:10301000DD92ED92FC921997332051F0D701C60151
:103020000196A11DB11DF40180839183A283B38316
:10303000F5018789908DA18DB28D892B8A2B8B2BE1
:1030400039F48481C78AD08EE18EF28E80688483C1
:10305000F50184818062848381E0ACCF2F923F921E
:103060004F925F926F927F928F929F92AF92BF9298
:10307000CF92DF92EF92FF920F931F93CF93DF9344
:10308000EC015B012A018D81811115C08FEF9FEF4B
:10309000DF91CF911F910F91FF90EF90DF90CF9034
:1030A000BF90AF909F908F907F906F905F904F9068
:1030B0003F902F9008958C8180FFE8CF0B891C8969
:1030C0002D893E894A855B856C857D85C201B0E08E
:1030D000A0E068017901C41AD50AE60AF70AC81601
:1030E000D906EA06FB0618F42801441A550A4201DB
:1030F0001E0126E0220E311C8114910409F4B3C094
:103100004A855B856C857D856A0181E0D8228B8D3F
:103110009C8D8A019B01E9E03695279517950795C7
:10312000EA95D1F7ED81E230E1F5FC01628D738D16
:10313000848D958D600F711F821F931F612C22E07B
:10314000722E6C187D088614970408F434012C81C3
:1031500026FD04C06114F2E07F0671F400913A018B
:1031600010913B0120913C0130913D01061717075A
:103170002807390709F053C040E00E942C13882328
:1031800009F484CFC60181589E4ED5019C01260DBD
:10319000371DFC012E173F0709F460C041914D9384
:1031A000F9CFFC0174807A947022C114D10471F4B7
:1031B00071100CC0452B462B472B39F58F89988D04
:1031C000A98DBA8D8E839F83A887B987EB8DFC8DDF
:1031D0006E817F8188859985625071098109910985
:1031E000258504C0660F771F881F991F2A95D2F77F
:1031F0000685178520893189600F711F821F931FF3
:10320000670D711D811D911D99CF4E815F8168856C
:10321000798591010E945A158111D8CF37CF750158
:1032200083019601AB01BC0180917D1190917E11CB
:103230000E94CD11882309F429CFA60CB71C8A85DA
:103240009B85AC85BD85860D971DA11DB11D8A8707
:103250009B87AC87BD87861897084ECF281B390BF4
:10326000A20EB31EECCFC20113CF1F93CF93DF93F7
:10327000FC012581222371F1162FEC01848187FF47
:103280001EC0CF010E947613FC01892B19F18D819C
:10329000823040F48B899C89AD89BE89848F958F5B
:1032A000A68FB78F8F89988D938F828F8F89988DF6
:1032B000A98DBA8DB58BA48B8C818F778C831111DE
:1032C00003C08C818F7E8C83812FDF91CF911F91E2
:1032D0000C94011380E0DF91CF911F910895FF922C
:1032E0000F931F93CF93DF93EC018D81813041F0D9
:1032F00090E080E0DF91CF911F910F91FF900895B2
:103300008C8181FFF5CF82FD1BC000917D11109152
:103310007E11C8010E945A110E942611F82EC80180
:103320000E940B118FEFF812E3CF8C8185FF1BC039
:1033300060E0CE010E9435198C818F7D8C83D8CFBF
:103340004B895C896D897E898A859B85AC85BD8525
:1033500084179507A607B707C1F2CE010E949A16F7
:103360008111D3CFC5CF40911111509112116091AD
:10337000131170911411452B462B472B21F080E03F
:103380000E94DD12B5CF80618C832A853B85317028
:1033900080E092E0821B930BADCFCF93DF93EC01E3
:1033A00061E00E943519882311F01D8281E0DF91D0
:1033B000CF910895CF92DF92EF92FF921F93CF9318
:1033C000DF9380917E18882321F089E798E10E949D
:1033D000CD1910925A181092581810925518109230
:1033E000541883E0809353180E946109EB0161E057
:1033F000809153180E94C30861E0809153180E9485
:1034000095080E94891082E580934D1881E0809391
:103410004E1880914D1890914E180E9444111AE058
:103420008FEF0E941C111150D9F780917C118111EE
:103430000E94FE108FE498E10E945A1120E030E0D3
:10344000A90160E08FE498E10E947011182F809329
:103450005918813081F00E9461096C1B7D0B613D20
:10346000774060F381E0809354188FE498E10E94E4
:103470000B1190E078C02AEA31E040E050E068E0CB
:103480008FE498E10E94701182FF2AC010935A18AD
:1034900080915A18C12CD12C7601823029F4C12C8C
:1034A000D12CE12C80E4F82E20E030E0A90167E384
:1034B0008FE498E10E947011A701960169E28FE400
:1034C00098E10E947011809359188823C1F00E94DE
:1034D00061096C1B7D0B613D774030F388E0C3CF01
:1034E00014E00E942611809359181150D1F78A3A9E
:1034F00011F082E0B8CF82E080935A18C9CF809152
:103500005A188230D1F420E030E0A9016AE38FE458
:1035100098E10E947011882311F086E0A4CF0E94E8
:103520002611807C803C19F483E080935A180E9415
:1035300026110E9426110E9426118FE498E10E9414
:103540000B1180E580934D1881E080934E180E9406
:103550008F13882389F089E798E10E94461691E04D
:10356000882309F486CF892FDF91CF911F91FF9097
:10357000EF90DF90CF90089580E00E948F13882312
:1035800009F477CFE8CF2F923F924F925F926F92DC
:103590007F928F929F92AF92BF92CF92DF92EF92E3
:1035A000FF920F931F93CF93DF9300D000D01F9211
:1035B000CDB7DEB77C015B01342E5D83DC0115964F
:1035C0008C911597813009F0CEC014962C9021FE75
:1035D000CAC022FCB4C0C32CDD8022947FE0272225
:1035E0002094B22DB1702B2ED7011A964D915D917A
:1035F0006D917C911D97C114D10409F428C15B968B
:103600008D919C915C97FC0174807A948A019B0156
:1036100069E036952795179507956A95D1F7702239
:103620008A011170711020C001151105E9F4169678
:103630004D915D916D917C911997411551056105F1
:10364000710509F099C057968D919D910D90BC918F
:10365000A02D0097A105B10509F0B0C0C7010E94D7
:103660002E17882309F47FC080E092E0801B910B25
:1036700046018C159D0508F44C01D7015B964D91D0
:103680005C915C9716968D919D910D90BC91A02DAB
:103690000297A109B109FA01258504C0880F991F75
:1036A000AA1FBB1F2A95D2F7468557856089718965
:1036B000840F951FA61FB71F9C01AD01270D311D5B
:1036C000411D511D29013A01811432E0930609F090
:1036D0007BC080913A0190913B01A0913C01B09157
:1036E0003D0184159505A605B70559F48FEF9FEFA9
:1036F000DC0180933A0190933B01A0933C01B0938D
:103700003D01022D9501B301A20180917D1190919F
:103710007E110E946F12882331F19EEFB91AC818EA
:10372000D908F70182859385A485B585880D991DF3
:10373000A11DB11D82879387A487B58755CFF70157
:10374000438954896589768982859385A485B58561
:10375000481759076A077B0709F43DCFC7010E9444
:103760009A16811138CF81E090E0D70113969C938F
:103770008E93129780E007C09E012F5F3F4F0E94FB
:103780005A15811102C090E079C089819A81AB817C
:10379000BC81F701238D348DF901278948EF5FEF54
:1037A00060E070E0203121F048EF5FEF6FEF7FE0E5
:1037B00084179507A607B70708F050CFF70186834F
:1037C0009783A087B18750CF0115110599F5D701CF
:1037D0001A964D915D916D917C911D9753968D91A7
:1037E0009D910D90BC91A02D481759076A077B0742
:1037F00008F181E00E940113882309F4B4CF4092BC
:103800003A0150923B0160923C0170923D018091DF
:103810001011816080931011C80181589E4ED5010E
:103820009C01280D391DFC012E173F0759F04D91C1
:103830004193FACF41E0C301B2010E942C138111E0
:10384000EBCF91CF281B390BA20EB31E68CFF70127
:1038500083899489A589B68984179507A607B70730
:1038600038F48481438B548B658B768B806884839A
:10387000F701848183FD1AC0832D9D810F900F90E5
:103880000F900F900F90DF91CF911F910F91FF90AC
:10389000EF90DF90CF90BF90AF909F908F907F90F0
:1038A0006F905F904F903F902F90089561E0C70117
:1038B0000E943519882309F456CFDECFCF93DF93CA
:1038C0001F92CDB7DEB7698341E050E0BE016F5F64
:1038D0007F4F0E94C31A0F90DF91CF910895FC0192
:1038E000DB0112968D919C911397938382838AE7D3
:1038F00092E09183808314968C911497848315961B
:103900008C911597858316964D915D916D917C9163
:10391000199746835783608771871A964D915D91F9
:103920006D917C911D9742875387648775871E969A
:103930004D915D916D917C91519746875787608B32
:10394000718B52968C915297828B53964D915D91CB
:103950006D917C915697438B548B658B768B5796E4
:103960004D915D916D917C915A97478B508F618FEE
:10397000728F5B968D919C91948F838F0895DC015B
:103980005996ED91FC91309721F081E0958191114C
:1039900001C080E00895FC01818D928D009719F09F
:1039A00061E00C9435190895DC015996ED91FC9174
:1039B0003097B9F083899489A589B6894285538562
:1039C00064857585841B950BA60BB70B811520E8C4
:1039D0009207A105B10538F08FEF9FE7A0E0B0E0B6
:1039E000089590E080E00895DC0159968D919C91B6
:1039F000009739F0DC01ED91FC910480F581E02D18
:103A0000099490E080E00895CF93DF93EC01E98D75
:103A1000FA8D309749F481E090E09B838A8390E0AF
:103A200080E0DF91CF91089513821282898D9A8D63
:103A30000E94C31AE98DFA8D22813381232B59F715
:103A4000F0CFCF93DF931F92CDB7DEB76983DC0150
:103A5000ED91FC910280F381E02D41E050E0BE0148
:103A60006F5F7F4F09950F90DF91CF910895CF93AE
:103A7000DF931F92CDB7DEB741E050E0BE016F5F2C
:103A80007F4F0E942E18019731F4898190E00F90AA
:103A9000DF91CF9108958FEF9FEFF9CF1F93CF93D1
:103AA000DF93FC012581223030F490E080E0DF914B
:103AB000CF911F910895EC014285538564857585EA
:103AC00085E076956795579547958A95D1F7142F98
:103AD0001F70CF010E94371D97FDE7CF8A859B8518
:103AE000AC85BD854F96A11DB11D8A879B87AC878C
:103AF000BD87F0E21F9FC001112481589E4ED7CF91
:103B0000FC01818D928D009711F00C94371D8FEF81
:103B10009FEF08950F931F93CF93DF93EC01898D4F
:103B20009A8D10E000E0009799F00E94371D8C01FB
:103B30000F3F100769F0898D9A8DFC0142855385EE
:103B40006485758541505109610971090E949A1671
:103B5000C801DF91CF911F910F910895CF93DF930B
:103B6000EC01FB01828193819B838A83848195810F
:103B7000A681B7818C839D83AE83BF838085918529
:103B8000A285B38588879987AA87BB8786E892E054
:103B9000998388838DE03C96DE011C9601900D92FE
:103BA0008A95E1F7FB01818D928D9A8F898FDF9144
:103BB000CF910895CF92DF92EF92FF92CF93DF9350
:103BC00060E08DE10E94C3088DE10E94F408B0E03E
:103BD000A0E0BC01CD01660F771F881F991F0E94CE
:103BE000E06323E333E343E550E40E94416420E0D3
:103BF00030E048EC52E40E94416420E030E84FEFAE
:103C000053E40E94796520E030EC4FE754E40E94D1
:103C1000E5650E945766CB0164E670E00E949C66F1
:103C2000EB01BC0190E080E00E94E06320E030E026
:103C300048EC52E40E94E5656B017C01BE0190E016
:103C400080E00E94E0639B01AC01C701B6010E94C5
:103C50007965DF91CF91FF90EF90DF90CF9008953D
:103C6000CF93DF9380B7806880BF61E08EE00E94D1
:103C7000950862E370E080E090E00E942E0988E100
:103C80000E94F408EC0160E08EE00E949508BE01FD
:103C9000DD0F880B990B0E94E26323EA36E043E5CF
:103CA0005BE30E9441642EEB3FE94AEA5FE30E9436
:103CB0004164DF91CF910895CF93DF93FB0122817F
:103CC0003381DC0113963C932E93129744815581E6
:103CD0006681778114964D935D936D937C931797CE
:103CE000408551856285738518964D935D936D93DC
:103CF0007C931B971C96EF012C969C01275E3F4FEF
:103D000049914D93A217B307D9F7218D328DFC014C
:103D1000328F218FDF91CF910895CF93DF9380E38E
:103D200096E10E940108E0E3F6E1A289B3898C9153
:103D30008F7E8C93A289B3898C91877F8C93A28983
:103D4000B3898C918F778C93A289B3898C918F7D65
:103D50008C93828D818F86E29CE10E94CB0980B793
:103D60008F7780BFCAE7D0E088818F778883F89407
:103D700085B7806885BF85B7806885BF789461E026
:103D800081E00E9495088CB58F7B8CBD61E085E059
:103D90000E94C30860E085E00E94950883B7817F98
:103DA000846083BF83B7816083BF7894EBE6F0E0E3
:103DB000808184608083E8E6F0E080818160808398
:103DC00083B7816083BF889583B78E7F83BF8881E7
:103DD0008068888360E081E00E9495088CB58064EB
:103DE0008CBD40E051EE60E070E080E396E10E941F
:103DF0003F0668EE73E080E090E0DF91CF910C9495
:103E00002E0990E080E00895282F30E094E0359569
:103E100027959A95E1F7922F990F990F291B220F59
:103E2000820F089581E08093E91388E680930A1455
:103E30001092101410920F1460E083E89DE10E942C
:103E4000201081E00E941D0E811134C067E088E6D9
:103E50000E940D0F10921214809311140E942C06D0
:103E60008F770E94041F809396130E942C060E9455
:103E7000041F809397130E942C068F7B0E94041FBF
:103E8000809398130E942C06809399130E942C060D
:103E90000E94041F80939A130E942C068F770E9421
:103EA000041F80939B130E942C060E94041F825EB5
:103EB00080939C13809196138093D61080919713D2
:103EC00080937411809198138093751180919A1347
:103ED0008093D91080919B138093DA1080919C136A
:103EE00090E08E54984F9093D8108093D71062E34F
:103EF00070E080E090E00C942E09CF9391E09093D5
:103F0000E91398E690930A141092101410920F146B
:103F1000682F83E89DE10E94201081E00E941D0E21
:103F200081110BC061E088E60E940D0F10921214FF
:103F3000809311140E942C06C82F8C2FCF910895C6
:103F40001F93CF93DF9381E08093E91388E68093FA
:103F50000A141092101410920F1460E083E89DE18F
:103F60000E942010C6E9D3E128811AE0822F612F38
:103F70000E949066682F660F680F660F620F83E8D5
:103F80009DE10E9420102981822F612F0E9490665E
:103F9000682F660F680F660F620F83E89DE10E942D
:103FA00020102A81822F612F0E949066682F660F51
:103FB000680F660F620F83E89DE10E9420106B81FD
:103FC00083E89DE10E9420102C81822F612F0E94A6
:103FD0009066682F660F680F660F620F83E89DE199
:103FE0000E9420102D81822F612F0E949066682FE1
:103FF000660F680F660F620F83E89DE10E94201034
:104000002E812E51822F612F0E949066682F660F9D
:10401000680F660F620F83E89DE10E94201081E027
:104020000E941D0EC82F8FE00E947D1F682F6F77A2
:104030008FE00E944F108C2FDF91CF911F91089538
:10404000CF93DF93C82FD62F8EE00E947D1F4C2F79
:104050004150550B61E070E001C0660F4A95EAF7E8
:10406000DD2331F0682B8EE0DF91CF910C944F105F
:1040700060956823F8CFCF93DF93C82F8FE00E941D
:104080007D1FC150DD0B21E030E001C0220FCA9539
:10409000EAF7982F922351F02095622F68238FE042
:1040A0000E944F1081E0DF91CF91089580E0FBCF17
:1040B000CF9382E10E947D1FC82F81E10E947D1F66
:1040C0006C2F782F77FF02C0615C7F4F86E075957B
:1040D00067958A95E1F7072E000C880B990B0E94D3
:1040E000E26320E030E040E85EE30E944164CF916B
:1040F00008958F929F92AF92BF92CF92DF92EF92EC
:10410000FF920F931F93CF93DF9300D000D0CDB7D2
:10411000DEB7FC018581813091F080E00F900F9037
:104120000F900F90DF91CF911F910F91FF90EF9023
:10413000DF90CF90BF90AF909F908F900895848133
:1041400081FFEBCF83899489A589B689892B8A2B36
:104150008B2B09F45FC07F0140E050E0BA01CF0132
:104160000E949A168823C9F2F701C38CD48C8788E1
:10417000908CA18CB28C82E090E0A0E0B0E0F601DF
:1041800080839183A283B3839E012F5F3F4FB5014C
:10419000A401C6010E945A15882309F4BECF00E08D
:1041A00010E09801B501A401C6010E94B81488234B
:1041B00009F4B3CF89809A80AB80BC80F6018789EF
:1041C000803119F188EF9FEFAFEFBFE088169906B5
:1041D000AA06BB06C8F2F701178A108E118E128E3E
:1041E000138A148A158A168A84818068848361E020
:1041F000C7010E943519882309F48FCF40E050E0B1
:10420000BA01C7010E949A1689CF88EF9FEFA0E0FC
:10421000B0E0DCCF81E082CFCF93DF93EC010E944E
:104220007920882371F0CE010E947613009749F01F
:1042300025EEFC0120831D8281E0DF91CF910C945B
:10424000011380E0DF91CF910895CF92DF92EF923A
:10425000FF921F93CF93DF93EC0180E2689FF00100
:104260001124E158FE4E9385917161F0842F827480
:1042700049F080E0DF91CF911F91FF90EF90DF90A8
:10428000CF900895142F6A8B80913A0190913B0151
:10429000A0913C01B0913D018E879F87A88BB98B7F
:1042A000C488D588F12CE12C7601DD24CC24CF8A7A
:1042B000D88EE98EFA8E828D938DB0E0A0E0AC01AD
:1042C000BD014C295D296E297F294F8B588F698F3D
:1042D0007A8F83858871B1F4848D958DA68DB78D85
:1042E0008B8B9C8BAD8BBE8B81E08D831F701C8371
:1042F0001E821F82188619861A861B861C861D86BA
:1043000081E0B8CF803109F0B4CF9E012D5E3F4FE0
:104310008B8D9C8D0E94DB15882309F4AACF84E045
:10432000E4CFCF93DF93EC018B8191E09093E9137D
:1043300080930A141092101410920F1483E89DE1D8
:104340000E94201081E00E941D0E888381110DC003
:1043500061E08B810E940D0F109212148093111452
:104360000E942C06DF91CF91089580E0FBCF9F92B1
:10437000AF92BF92CF92DF92EF92FF920F931F9373
:10438000CF93DF93CDB7DEB77C01CDB6DEB68DB768
:104390009EB78E199F090FB6F8949EBF0FBE8DBFB2
:1043A00001965C01912C092D10E00E151F0578F483
:1043B00083E194E10E944707F501E00FF11F80833C
:1043C000682F80E396E10E9403079394ECCF0FB629
:1043D000F894DEBE0FBECDBEDF91CF911F910F913D
:1043E000FF90EF90DF90CF90BF90AF909F90089597
:1043F0002F923F924F925F926F927F928F929F92F5
:10440000AF92BF92CF92DF92EF92FF920F931F93E2
:10441000CF93DF9300D000D000D0CDB7DEB78C01B2
:104420006B8349838091191A22242394280E2092A9
:10443000191A312CC12CD12C7601D3947724739482
:10444000730C80911C1A831508F4EFC08091121A26
:104450009091131ADC01ED91FC91008CF18DE02D0F
:10446000622D09958091121A9091131ADC01ED9139
:10447000FC91028CF38DE02D40E860E009954981C4
:104480006B81C8010E94A4060E949906B981BF3FB2
:10449000D1F481E026960FB6F894DEBF0FBECDBFF3
:1044A000DF91CF911F910F91FF90EF90DF90CF9010
:1044B000BF90AF909F908F907F906F905F904F9044
:1044C0003F902F90089521E0271598F48091151AB8
:1044D0009091161AA091171AB091181A0196A11D61
:1044E000B11D8093151A9093161AA093171AB093C2
:1044F000181A0E9461094B015C0180911A1A90916F
:104500001B1A9D838C830E94CB60A70196010E9499
:1045100015659B01AC01AC81BD810E943465A7018A
:1045200096010E941565AC81BD812A0F3B1F372C77
:104530002901712C612C0E946109681979098A0985
:104540009B09641575058605970508F077CF80915E
:10455000121A9091131ADC01ED91FC910280F38103
:10456000E02D0995882339F38091121A9091131A3E
:10457000DC01ED91FC910480F581E02D50E040E0FC
:1045800070E060E009958823B1F28091121A909151
:10459000131ADC01ED91FC9100A0F1A1E02D099529
:1045A0008E838091121A9091131ADC01ED91FC9187
:1045B000068CF78DE02D09958A838091121A9091CF
:1045C000131ADC01ED91FC9102A0F3A1E02D0995F5
:1045D0008C838091121A9091131ADC01ED91FC9159
:1045E00004A0F5A1E02D0995B9812E81B2130BC06D
:1045F0009091141AAA819A1306C087FF04C0BC8147
:104600002B1609F446CF87FD96CF2E81E22FF0E0DE
:10461000EE5EF54E83859C8189138DCF422F692FE5
:1046200082E19AE10E94D00B86CF80E033CF0F93D6
:104630001F93CF93DF934115510541F0FC01048195
:1046400015810115110539F4FB011082DF91CF911D
:104650001F910F910895415051094017510708F4D7
:104660008A01EB01FC0160817181A801CE010E94E9
:104670000069C00FD11F1882E9CF0E94D368FB01E7
:1046800001900020E9F73197AF01461B570BDC0181
:10469000ED91FC910280F381E02D099460EC72E0D1
:1046A0000C943F23CF93DF930E94E607EC0180E355
:1046B00096E10E944E238C0F9D1FDF91CF910895AC
:1046C0000F931F93CF93DF93EC01FB01448155813E
:1046D00060817181E881F9810280F381E02D099583
:1046E0008C01CE010E944E23800F911FDF91CF914C
:1046F0001F910F9108956115710511F00C943F23DE
:1047000090E080E008958F929F92AF92BF92EF92D7
:10471000FF920F931F93CF93DF93CDB7DEB7A1978F
:104720000FB6F894DEBF0FBECDBF7C01FA01CB01FE
:1047300019A2223008F42AE08E010F5D1F4F822E4D
:10474000912CB12CA12CBF01A50194010E944765B9
:10475000F901CA016A30ECF4605DD8016E938D01F5
:10476000232B242B252B79F7BD01C7010E947B2326
:10477000A1960FB6F894DEBF0FBECDBFDF91CF91EB
:104780001F910F91FF90EF90BF90AF909F908F90EF
:104790000895695CE2CF462F50E070E060E02AE0C7
:1047A0000C9483230F931F93CF93DF93EC010E940C
:1047B000CB238C01CE010E944E23800F911FDF91ED
:1047C000CF911F910F910895CF92DF92EF92FF92B8
:1047D000CF930E9461096B017C0128E9C20E2AE394
:1047E000D21EE11CF11CC092F010D092F110E092A8
:1047F000F210F092F3101092091110920811109219
:10480000EF100E9461096C157D058E059F0548F526
:1048100080E396E10E9468071816190694F764E68B
:1048200070E080E090E00E942E0980E396E10E9413
:1048300068076C019093091180930811F12CCAE06C
:10484000E090EF10FC141D0464F480E396E10E94F4
:104850004707EC9E800D112480538093EF10F39452
:10486000EFCF6091EF1080E396E1CF91FF90EF9052
:10487000DF90CF900C94D223CF92DF92EF92FF92F1
:104880000F931F93CF93DF936B01770FEE08FF0811
:10489000F7FE1BC0EC016DE20E9403078C01442768
:1048A0005527BA014C195D096E097F092AE0CE012E
:1048B0000E948323800F911FDF91CF911F910F9151
:1048C000FF90EF90DF90CF9008952AE0B701A60106
:1048D000DF91CF911F910F91FF90EF90DF90CF90DC
:1048E0000C9483230F931F93CF93DF93EC010E94CB
:1048F0003C248C01CE010E944E23800F911FDF913A
:10490000CF911F910F910895CF92DF92EF92FF9276
:104910000F931F93CF93DF930E9461096B017C017A
:1049200028E9C20E2AE3D21EE11CF11CC092F0104D
:10493000D092F110E092F210F092F310109209115F
:10494000109208111092EE101092ED100E94610961
:104950006C157D058E059F0508F046C080E396E145
:104960000E946807181619068CF764E670E080E06C
:1049700090E00E942E0980E396E10E9468078C0176
:10498000909309118093081181E08093EC103AE034
:10499000C32ED090EC10CD2DD0E0E090ED10F09033
:1049A000EE100C171D0704F180E396E10E94470703
:1049B000CC0FDD1FC252DF4E998388838D30910565
:1049C00079F08A30910561F0C097CE9C9001CF9C20
:1049D000300D1124820F931F9093EE108093ED10F1
:1049E000D394D092EC10D5CF6091ED107091EE1071
:1049F00080E396E10E9472246AE070E080E090E03B
:104A0000DF91CF911F910F91FF90EF90DF90CF90AA
:104A10000C942E09CF93DF93AB01BC012AE080E315
:104A200096E10E948323EC0180E396E10E944E23ED
:104A30008C0F9D1FDF91CF9108950F931F93CF93FC
:104A4000DF93EC010E947B238C01CE010E944E2358
:104A5000800F911FDF91CF911F910F910895CF93F8
:104A600089E10E946C08892B91F560E080E00E944A
:104A7000950861E080E00E94C30862E370E080E096
:104A800090E00E942E0961E080E00E94950862EEAD
:104A900074E080E090E00E942E0960E080E00E94D7
:104AA0009508C5E189E10E946C08892B81F46CE5C9
:104AB00070E080E090E00E942E0963EC72E080E3F9
:104AC00096E10E941D25C15069F780E001C081E098
:104AD000CF9108959F92AF92BF92CF92DF92EF92C3
:104AE000FF920F931F93CF93DF93CDB7DEB75C0197
:104AF000CDB6DEB68DB79EB78A199B090FB6F8946E
:104B00009EBF0FBE8DBF01967C01912C092D10E038
:104B10000A151B0578F483E194E10E944707F70129
:104B2000E00FF11F8083682F80E396E10E94030766
:104B30009394ECCF90E080E010E08A159B05A8F4F8
:104B4000F701E80FF91F20812F3469F49C012F5FD2
:104B50003F4FF701E20FF31F4081029611E04B3403
:104B600011F0C90110E00196E8CF66EE72E0111174
:104B700002C062EE72E080E396E10E941D25812F63
:104B80000FB6F894DEBE0FBECDBEDF91CF911F9160
:104B90000F91FF90EF90DF90CF90BF90AF909F90DC
:104BA0000895CF92DF92EF92FF920F931F93CF93CE
:104BB000DF930E9461096B017C0128E9C20E2AE3A0
:104BC000D21EE11CF11C10920911109208110E94D2
:104BD00061096C157D058E059F0568F580E396E1FA
:104BE0000E9468071816190694F764E670E080E0E2
:104BF00090E00E942E0980E396E10E946807EC0194
:104C00009093091180930811F12C0F2D10E0C0171B
:104C1000D10774F080E396E10E9447078D3031F0B0
:104C20008A3021F0F801EC50FF4E8083F394EDCFF1
:104C3000CC50DF4E188264EF70E180E396E1DF91A3
:104C4000CF911F910F91FF90EF90DF90CF900C9438
:104C50001D250C947B231F93CF93DF930E94121F7B
:104C60008091DD108430A9F440917511242F30E03B
:104C7000C90102968231910509F45FC0423131F4D5
:104C800068E170E00E94B066C82F12C0C9010496A6
:104C9000F7CF813071F4C09175118C2F90E001969F
:104CA000C23171F780917411833208F447C0C3E1B7
:104CB000D3E02AE08C2F622F0E949066182F110FEC
:104CC000180F110F1C0F8D2F0E949066682F660F12
:104CD000680F660F6D0F8BE00E944F10612F8CE004
:104CE0000E944F1060E88DE00E944F1080913F01BC
:104CF0008823D1F080916A11811116C069EE72E0AB
:104D000080E396E10E9429266C2F80E396E10E94C1
:104D1000CB2366E777E080E396E10E9429266D2F9A
:104D200080E396E10E94D22362E370E080E090E0AD
:104D3000DF91CF911F910C942E09C2E1D3E2B9CF3C
:104D4000CF930E94121F2091DB10E22FF0E08091A0
:104D500074118E0F9F2F911D6CE370E00E94B0665E
:104D6000BF010E94B066269F202D11242F5F209343
:104D7000CE10822F6AE00E949066C82FCC0FC80F19
:104D8000CC0FC20F60E087E00E944F106C2F88E0CC
:104D90000E944F1060E889E00E944F1060E88AE0AE
:104DA0000E944F1080913F01882381F080916A1109
:104DB00081110CC06BEF72E080E396E10E9429261E
:104DC0006091CE1080E396E10E94D22362E370E00E
:104DD00080E090E0CF910C942E098F929F92AF9239
:104DE000BF92CF92DF92EF92FF92CF93DF937C013D
:104DF000EB016A0183E194E10E9468071816190625
:104E00002CF483E194E10E944707F4CFB70183E1DA
:104E100094E10E947B2362E370E080E090E00E94D6
:104E20002E090E9461094B015C01F12CE12C0E94CA
:104E30006109681979098A099B096C157D058E0538
:104E40009F05C8F483E194E10E946807892B79F3F8
:104E5000BE0190E080E00E942E0983E194E1DF91A1
:104E6000CF91FF90EF90DF90CF90BF90AF909F9049
:104E70008F900C94680790E080E0DF91CF91FF90D5
:104E8000EF90DF90CF90BF90AF909F908F9008955C
:104E9000CF93DF93CDB7DEB72E970FB6F894DEBF72
:104EA0000FBECDBF8EE0EDE0F3E0DE011196019084
:104EB0000D928A95E1F740ED57E064E670E0CE018F
:104EC00001960E94ED260E946A252E960FB6F89450
:104ED000DEBF0FBECDBFDF91CF9108956F927F925D
:104EE0008F929F92AF92BF92CF92DF92EF92FF92FA
:104EF0000F931F93CF93DF93CDB7DEB769970FB6AC
:104F0000F894DEBF0FBECDBF5C017B01942E852ED1
:104F10006DB67EB68CE0EBE2F3E0DE011E9601900A
:104F20000D928A95E1F701E06B30710508F002E01F
:104F300010E0C8010E962DB73EB7281B390B0FB6EF
:104F4000F8943EBF0FBE2DBF8DB79EB701966C0182
:104F5000FF92EF92CE010E969F938F938BE193E099
:104F60009F938F93DF92CF920E94296962E370E052
:104F700080E090E00E942E0948EB5BE068EE73E071
:104F8000C6010E94ED266C010E94B7212DB73EB7E5
:104F9000285F3F4F0FB6F8943EBF0FBE2DBFCD2800
:104FA00009F45FC0CDB6DEB62DE0E7E3F3E0CE0155
:104FB0000196DC0101900D922A95E1F7015F1F4FE8
:104FC0002DB73EB7201B310B0FB6F8943EBF0FBE76
:104FD0002DBF0DB71EB70F5F1F4F8F929F92FF928D
:104FE000EF929F938F9382E293E09F938F931F930F
:104FF0000F930E94296948E853E168EE73E0C80105
:105000000E94ED268C010E94B7218DB79EB70A96AB
:105010000FB6F8949EBF0FBE8DBF012BE9F0B5010E
:1050200083E194E10E947B2364E670E080E090E0FD
:105030000E942E0983E194E10E946807892BD1F335
:1050400068EE73E080E090E00E942E0983E194E135
:105050000E9468070E946A250FB6F894DEBE0FBE54
:10506000CDBE0FB6F8947EBE0FBE6DBE69960FB66C
:10507000F894DEBF0FBECDBFDF91CF911F910F918E
:10508000FF90EF90DF90CF90BF90AF909F908F9068
:105090007F906F900895CF92DF92EF92FF920F93DF
:1050A0001F93CF93DF93CDB7DEB766970FB6F89413
:1050B000DEBF0FBECDBFEDB6FEB636E1EEE4F3E0E7
:1050C000DE0111966D0101900D923A95E1F7295E8E
:1050D000620F2DB73EB7261B31090FB6F8943EBFBD
:1050E0000FBE2DBF0DB71EB70F5F1F4F5F934F93BE
:1050F0009F938F93DF92CF9284E493E09F938F935B
:105100001F930F930E94296960E570E080E090E0B2
:105110000E942E0940E157E260ED77E0C8010E944D
:10512000ED260E946A25ADB7BEB71A960FB6F89461
:10513000BEBF0FBEADBF0FB6F894FEBE0FBEEDBE34
:1051400066960FB6F894DEBF0FBECDBFDF91CF914C
:105150001F910F91FF90EF90DF90CF9008959F9255
:10516000AF92BF92CF92DF92EF92FF920F931F9375
:10517000CF93DF93CDB7DEB72A970FB6F894DEBF93
:105180000FBECDBFCDB6DEB68AE0E4E6F3E0DE01C9
:10519000119601900D928A95E1F74EE150E064E19D
:1051A00070E0CE0101960E94ED265C018DB79EB79E
:1051B0008A199B090FB6F8949EBF0FBE8DBFEDB73D
:1051C000FEB731967F01912C092D10E00A151B05C1
:1051D00050F483E194E10E944707F701E00FF11FCB
:1051E00080839394F1CF6CE270E0C7010E94EE6877
:1051F000FC0111811053612F80E396E10E94D223BC
:10520000812F0FB6F894DEBE0FBECDBE2A960FB624
:10521000F894DEBF0FBECDBFDF91CF911F910F91EC
:10522000FF90EF90DF90CF90BF90AF909F90089548
:105230009F92AF92BF92CF92DF92EF92FF920F9325
:105240001F93CF93DF93CDB7DEB72B970FB6F894AC
:10525000DEBF0FBECDBFCDB6DEB688E0EEE6F3E032
:10526000DE01119601900D928A95E1F744E150E03C
:105270006AE070E0CE0101960E94ED265C018DB7D8
:105280009EB78A199B090FB6F8949EBF0FBE8DBFBB
:1052900001967C01912C092D10E00A151B0550F494
:1052A00083E194E10E944707F701E00FF11F80833B
:1052B0009394F1CF6AE370E0C7010E94EE68FC01AD
:1052C0009281998783818A878C32E9F0CE01099691
:1052D0000E942361880F81570FB6F894DEBE0FBE7F
:1052E000CDBE2B960FB6F894DEBF0FBECDBFDF91BB
:1052F000CF911F910F91FF90EF90DF90CF90BF90D3
:10530000AF909F900895892F990F990BE1CF0F933C
:105310001F93CF93DF93EC0188819981009759F017
:105320002A813B812617370730F081E0DF91CF914A
:105330001F910F9108958B016F5F7F4F0E94F2675D
:10534000009759F0998388831B830A832C813D81C0
:10535000232B59F7FC011082E8CF80E0E7CFEF92D2
:10536000FF920F931F93CF93DF936115710541F463
:1053700080E0DF91CF911F910F91FF90EF90089502
:1053800041155105B1F07B01EC010C811D81040F29
:10539000151FB8010E948729882351F3288139817C
:1053A0008C819D81B701820F931F0E94F9681D8334
:1053B0000C8381E0DECFEF92FF920F931F93CF9388
:1053C000DF9300D000D0CDB7DEB77C01862F4AE056
:1053D0008E010F5F1F4FB80190E00E944A61F801F3
:1053E00001900020E9F73197AF01401B510BB80144
:1053F000C7010E94AF290F900F900F900F90DF917F
:10540000CF911F910F91FF90EF900895CF93DF936D
:1054100000D0CDB7DEB769831A8241E050E0BE010B
:105420006F5F7F4F0E94AF290F900F90DF91CF9158
:105430000895FB0101900020E9F73197AF01461B69
:10544000570B0C94AF29FB01448155816081718118
:105450000C94AF29CF93DF93EC0188819981009759
:1054600011F00E946967198218821D821C821B82BA
:105470001A82DF91CF910895CF93DF93EC016115EC
:10548000710539F4CE010E942A2ACE01DF91CF9115
:105490000895FB0101900020E9F73197AF01461B09
:1054A000570B0E94AF29882369F3EFCFCF93DF9387
:1054B000EC01FB0144815581608171810E94AF291B
:1054C000811103C0CE010E942A2ACE01DF91CF9123
:1054D0000895EF92FF920F931F93CF93DF93EC0108
:1054E0007B018A01BA010E94872981110BC0CE017C
:1054F0000E942A2ACE01DF91CF911F910F91FF9038
:10550000EF9008951D830C83B701888199810E94D3
:10551000F968F0CFFB0101900020E9F73197AF0166
:10552000461B570B0C94692A0F931F93CF93DF935D
:10553000CDB7DEB729970FB6F894DEBF0FBECDBF4B
:105540008C01862FF801118210821382128215823B
:1055500014824AE0BE016F5F7F4F90E00E945D6160
:10556000BE016F5F7F4FC8010E948A2A29960FB63D
:10557000F894DEBF0FBECDBFDF91CF911F910F9189
:1055800008950F931F93CF93DF93CDB7DEB7629744
:105590000FB6F894DEBF0FBECDBF8C01CB01F80172
:1055A0001182108213821282158214824AE0BE0197
:1055B0006F5F7F4F0E944A61BE016F5F7F4FC801DE
:1055C0000E948A2A62960FB6F894DEBF0FBECDBF46
:1055D000DF91CF911F910F9108950F931F93CF9358
:1055E000DF93CDB7DEB761970FB6F894DEBF0FBE7D
:1055F000CDBF8C01CB01F80111821082138212827F
:10560000158214824AE0BE016F5F7F4F0E945D6188
:10561000BE016F5F7F4FC8010E948A2A61960FB654
:10562000F894DEBF0FBECDBFDF91CF911F910F91D8
:105630000895EF92FF920F931F93CF93DF93CDB70F
:10564000DEB7A1970FB6F894DEBF0FBECDBF7C01C9
:10565000CB01BA01F70111821082138212821582E6
:1056600014828E010F5F1F4F22E044E00E946160B0
:10567000009789F0BC01C7010E948A2AA1960FB643
:10568000F894DEBF0FBECDBFDF91CF911F910F9178
:10569000FF90EF900895C7010E942A2AEFCFCF9381
:1056A000DF93C0E0D6E08091DC10C81758F4CD9F9E
:1056B000C001112469E975E08D5A924E0E948A2A30
:1056C000CF5FF1CFDF91CF9108950F931F93CF93C9
:1056D000DF93CDB7DEB728970FB6F894DEBF0FBEC5
:1056E000CDBF69E975E087E49DE10E948A2A0E94A6
:1056F000121F4AE08E010F5F1F4FB8018091D71033
:105700009091D8100E944A61F80101900020E9F7B9
:105710003197AF01401B510BB80187E49DE10E9416
:10572000AF296DE287E49DE10E94062A6091DA10BC
:1057300087E49DE10E94DB296DE287E49DE10E9400
:10574000062A6091D91087E49DE10E94DB296FE56C
:1057500087E49DE10E94062A6091751187E49DE12E
:105760000E94DB296AE387E49DE10E94062A1091EA
:1057700074111A3028F460E387E49DE10E94062A40
:10578000612F87E49DE10E94DB296AE387E49DE1C4
:105790000E94062A1091D6101A3028F460E387E49C
:1057A0009DE10E94062A612F87E49DE10E94DB298A
:1057B00066E773E087E49DE10E94192A62E370E0E6
:1057C00080E090E00E942E0928960FB6F894DEBF84
:1057D0000FBECDBFDF91CF911F910F9108958F9292
:1057E0009F92AF92BF92CF92DF92EF92FF920F9370
:1057F0001F93CF93DF93CDB7DEB7EDB6FEB68091A2
:105800003F01882351F080E396E10E944E236BE72D
:1058100073E080E396E10E941D2580910D11813097
:1058200009F09CC0CDB6DEB66CE370E080E090E09D
:105830000E942E090E94652B00914B1D0F5F10E006
:105840002DB73EB7201B310B0FB6F8943EBF0FBEED
:105850002DBF8DB79EB701965C01A801BC0187E4FE
:105860009DE10E94172364E170E080E090E00E94D7
:105870002E09015C1F4F2DB73EB7201B310B0FB611
:10588000F8943EBF0FBE2DBF8DB79EB701964C0159
:10589000809170118F9380916F118F9380916E1111
:1058A0008F9380916D118F93BF92AF9287E893E1B0
:1058B0009F938F938BEA93E09F938F939F928F9206
:1058C0000E9429696CE370E080E090E00E942E095C
:1058D00025E030E049E051E068E170E08EE091E0E1
:1058E0000E944B288093D0102DB73EB7245F3F4FC6
:1058F0000FB6F8943EBF0FBE2DBF882391F06CE326
:1059000070E080E090E00E942E0940E157E2B8018B
:10591000C4010E946E278093D0100E944827809374
:10592000D0100FB6F894DEBE0FBECDBE68EE73E0A9
:1059300080E090E00E942E090FB6F894FEBE0FBEE4
:10594000EDBEDF91CF911F910F91FF90EF90DF900F
:10595000CF90BF90AF909F908F90089580913F011E
:10596000882321F363EE73E080E396E10E941D2516
:10597000DDCFCF93DF93EC01FB018617970749F04A
:10598000608171816115710541F0448155810E94EA
:10599000692ACE01DF91CF9108950E942A2AF9CF7A
:1059A000FC011182108213821282158214820C94DF
:1059B000B92CFC011182108213821282158214828A
:1059C000FB0101900020E9F73197AF01461B570B0F
:1059D0000C94692AFC0180819181009711F00C944C
:1059E000696708954F925F926F927F928F929F9214
:1059F000AF92BF92CF92DF92EF92FF920F931F93DD
:105A0000CF93DF93CDB7DEB72B970FB6F894DEBFF9
:105A10000FBECDBF8C01A62ECDB6DEB60E94121FE2
:105A200069E975E0C8010E948A2A6091D7107091D7
:105A3000D810CE0101960E94C12ABE016F5F7F4F30
:105A4000C8010E94232ACE0101960E94EA2C68E038
:105A500074E0C8010E94192A6091DA10CE01019603
:105A60000E94942ABE016F5F7F4FC8010E94232AC3
:105A7000CE0101960E94EA2C68E074E0C8010E9401
:105A8000192A6091D910CE0101960E94942ABE0174
:105A90006F5F7F4FC8010E94232ACE0101960E94AA
:105AA000EA2C6AE074E0C8010E94192A609175111D
:105AB000CE0101960E94942ABE016F5F7F4FC801FC
:105AC0000E94232ACE0101960E94EA2C66E777E025
:105AD000C8010E94192A60917411CE0101960E949A
